{
  "transactions": [
    {
      "hash": "0x8cb04aec9962e6161f93c1b3329dd1811e51c330982c0b83d9b021a8a55f4438",
      "transactionType": "CALL",
      "contractName": "FlexibleAssetHandler",
      "contractAddress": "0xe55cd346e5097ab8a715c4ef599725791b841e8f",
      "function": "configureAsset(address,uint8,uint256,uint256,uint256,uint256)",
      "arguments": [
        "0x87bb55de00f7D2791dbF3461A110D99bB47cF62F",
        "1",
        "1050000",
        "1020000",
        "1000000000000000000000",
        "200000"
      ],
      "transaction": {
        "from": "0xa6b3d200cd34ca14d7579dac8b054bf50a62c37c",
        "to": "0xe55cd346e5097ab8a715c4ef599725791b841e8f",
        "gas": "0x10969",
        "value": "0x0",
        "input": "0x51e23bf100000000000000000000000087bb55de00f7d2791dbf3461a110d99bb47cf62f0000000000000000000000000000000000000000000000000000000000000001000000000000000000000000000000000000000000000000000000000010059000000000000000000000000000000000000000000000000000000000000f906000000000000000000000000000000000000000000000003635c9adc5dea000000000000000000000000000000000000000000000000000000000000000030d40",
        "nonce": "0xc43",
        "chainId": "0x14a34"
      },
      "additionalContracts": [],
      "isFixedGasLimit": false
    },
    {
      "hash": "0xcd9645dd0f408fd1b6f09f287496b0cb9ed4487f819367b7a5d8fac64b254bbc",
      "transactionType": "CALL",
      "contractName": "FlexibleAssetHandler",
      "contractAddress": "0xe55cd346e5097ab8a715c4ef599725791b841e8f",
      "function": "configureAsset(address,uint8,uint256,uint256,uint256,uint256)",
      "arguments": [
        "0xcbeC2cAa97A660434aA5420d667b3f1e60E2C17B",
        "1",
        "1500000",
        "1200000",
        "1000000000000",
        "100000"
      ],
      "transaction": {
        "from": "0xa6b3d200cd34ca14d7579dac8b054bf50a62c37c",
        "to": "0xe55cd346e5097ab8a715c4ef599725791b841e8f",
        "gas": "0x10946",
        "value": "0x0",
        "input": "0x51e23bf1000000000000000000000000cbec2caa97a660434aa5420d667b3f1e60e2c17b0000000000000000000000000000000000000000000000000000000000000001000000000000000000000000000000000000000000000000000000000016e3600000000000000000000000000000000000000000000000000000000000124f80000000000000000000000000000000000000000000000000000000e8d4a5100000000000000000000000000000000000000000000000000000000000000186a0",
        "nonce": "0xc44",
        "chainId": "0x14a34"
      },
      "additionalContracts": [],
      "isFixedGasLimit": false
    },
    {
      "hash": "0xf369c68dc053a9b28d9b96fc71d24356158163577ead135d4cd12ebe44331ee7",
      "transactionType": "CALL",
      "contractName": "FlexibleAssetHandler",
      "contractAddress": "0xe55cd346e5097ab8a715c4ef599725791b841e8f",
      "function": "configureAsset(address,uint8,uint256,uint256,uint256,uint256)",
      "arguments": [
        "0x4Cd911B122e27e5EF684e3553B8187525725a399",
        "1",
        "1400000",
        "1150000",
        "10000000000",
        "150000"
      ],
      "transaction": {
        "from": "0xa6b3d200cd34ca14d7579dac8b054bf50a62c37c",
        "to": "0xe55cd346e5097ab8a715c4ef599725791b841e8f",
        "gas": "0x10946",
        "value": "0x0",
        "input": "0x51e23bf10000000000000000000000004cd911b122e27e5ef684e3553b8187525725a39900000000000000000000000000000000000000000000000000000000000000010000000000000000000000000000000000000000000000000000000000155cc00000000000000000000000000000000000000000000000000000000000118c3000000000000000000000000000000000000000000000000000000002540be40000000000000000000000000000000000000000000000000000000000000249f0",
        "nonce": "0xc45",
        "chainId": "0x14a34"
      },
      "additionalContracts": [],
      "isFixedGasLimit": false
    }
  ],
  "receipts": [
    {
      "status": "0x1",
      "cumulativeGasUsed": "0x53cb3a",
      "logs": [
        {
          "address": "0xe55cd346e5097ab8a715c4ef599725791b841e8f",
          "topics": [
            "0xef4fb1b25c475da87164d55f9cbc768c795bd55c6bd1255e7d1e5d058742a3a8",
            "0x00000000000000000000000087bb55de00f7d2791dbf3461a110d99bb47cf62f"
          ],
          "data": "0x00000000000000000000000000000000000000000000000000000000000000010000000000000000000000000000000000000000000000000000000000100590",
          "blockHash": "0xbad0831a393f32735a149da011556c5c57070d79c701665bd96ce2c415fc2e82",
          "blockNumber": "0x19eb5dd",
          "transactionHash": "0x8cb04aec9962e6161f93c1b3329dd1811e51c330982c0b83d9b021a8a55f4438",
          "transactionIndex": "0x12",
          "logIndex": "0xca",
          "removed": false
        }
      ],
      "logsBloom": "0x00000000000000000000000000000000000000000000000000000000000000000000000000000000000000000000000000000000000000000000000000000000000000000000000000000000000000000000000000000000000000000000000000000000000000000000001000800000000000000000800000000000000000000000000000000000200000000000000000000000400000000000000000000000000000000000000000000000180000000000000000000000000000000000000000000000000000400000000000000000000000000000000000000000000000000000000000000000000000080000000000000000000000000000000000000000",
      "type": "0x2",
      "transactionHash": "0x8cb04aec9962e6161f93c1b3329dd1811e51c330982c0b83d9b021a8a55f4438",
      "transactionIndex": "0x12",
      "blockHash": "0xbad0831a393f32735a149da011556c5c57070d79c701665bd96ce2c415fc2e82",
      "blockNumber": "0x19eb5dd",
      "gasUsed": "0xb57b",
      "effectiveGasPrice": "0x45d8c",
      "from": "0xa6b3d200cd34ca14d7579dac8b054bf50a62c37c",
      "to": "0xe55cd346e5097ab8a715c4ef599725791b841e8f",
      "contractAddress": null,
      "l1BaseFeeScalar": "0x44d",
      "l1BlobBaseFee": "0x1",
      "l1BlobBaseFeeScalar": "0xa118b",
      "l1Fee": "0x20974",
      "l1GasPrice": "0xf06f",
      "l1GasUsed": "0x7b0"
    },
    {
      "status": "0x1",
      "cumulativeGasUsed": "0x54809d",
      "logs": [
        {
          "address": "0xe55cd346e5097ab8a715c4ef599725791b841e8f",
          "topics": [
            "0xef4fb1b25c475da87164d55f9cbc768c795bd55c6bd1255e7d1e5d058742a3a8",
            "0x000000000000000000000000cbec2caa97a660434aa5420d667b3f1e60e2c17b"
          ],
          "data": "0x0000000000000000000000000000000000000000000000000000000000000001000000000000000000000000000000000000000000000000000000000016e360",
          "blockHash": "0xbad0831a393f32735a149da011556c5c57070d79c701665bd96ce2c415fc2e82",
          "blockNumber": "0x19eb5dd",
          "transactionHash": "0xcd9645dd0f408fd1b6f09f287496b0cb9ed4487f819367b7a5d8fac64b254bbc",
          "transactionIndex": "0x13",
          "logIndex": "0xcb",
          "removed": false
        }
      ],
      "logsBloom": "0x00000000000000000000000000000000000000000000000000000000000000000000000000000000000000000000000000000000000000000000000000000000000000000000000000000000000000000000000000001000000000000000000000000000000000000000001000000000000000000000800000000000000000000000000000000000000000000000000000000000400000040000000000000000000000000000000000000000100000000000000000000000000000000000000000000000000000400000000000000000000000000000000000000000000000000000000000000000000000080000000002000000000000000000000000000000",
      "type": "0x2",
      "transactionHash": "0xcd9645dd0f408fd1b6f09f287496b0cb9ed4487f819367b7a5d8fac64b254bbc",
      "transactionIndex": "0x13",
      "blockHash": "0xbad0831a393f32735a149da011556c5c57070d79c701665bd96ce2c415fc2e82",
      "blockNumber": "0x19eb5dd",
      "gasUsed": "0xb563",
      "effectiveGasPrice": "0x45d8c",
      "from": "0xa6b3d200cd34ca14d7579dac8b054bf50a62c37c",
      "to": "0xe55cd346e5097ab8a715c4ef599725791b841e8f",
      "contractAddress": null,
      "l1BaseFeeScalar": "0x44d",
      "l1BlobBaseFee": "0x1",
      "l1BlobBaseFeeScalar": "0xa118b",
      "l1Fee": "0x1fed2",
      "l1GasPrice": "0xf06f",
      "l1GasUsed": "0x788"
    },
    {
      "status": "0x1",
      "cumulativeGasUsed": "0x553600",
      "logs": [
        {
          "address": "0xe55cd346e5097ab8a715c4ef599725791b841e8f",
          "topics": [
            "0xef4fb1b25c475da87164d55f9cbc768c795bd55c6bd1255e7d1e5d058742a3a8",
            "0x0000000000000000000000004cd911b122e27e5ef684e3553b8187525725a399"
          ],
          "data": "0x00000000000000000000000000000000000000000000000000000000000000010000000000000000000000000000000000000000000000000000000000155cc0",
          "blockHash": "0xbad0831a393f32735a149da011556c5c57070d79c701665bd96ce2c415fc2e82",
          "blockNumber": "0x19eb5dd",
          "transactionHash": "0xf369c68dc053a9b28d9b96fc71d24356158163577ead135d4cd12ebe44331ee7",
          "transactionIndex": "0x14",
          "logIndex": "0xcc",
          "removed": false
        }
      ],
      "logsBloom": "0x00000000000000000000000000000000000000000000000000000000000000000000000000000000000000000000000000000000000000000000000000000000000000000000000000000000000000000000000000000000000000000000000000000000000000000000001000000000000010000000800000000000000000000000000000000000000000000000000000000000400000000000000000000000000000000000000000000000100000000000000000000000010000000000000000000000000000400000000000000000000000000000000000000000000000000000000000000000000000080000000000080000000000000000000000000000",
      "type": "0x2",
      "transactionHash": "0xf369c68dc053a9b28d9b96fc71d24356158163577ead135d4cd12ebe44331ee7",
      "transactionIndex": "0x14",
      "blockHash": "0xbad0831a393f32735a149da011556c5c57070d79c701665bd96ce2c415fc2e82",
      "blockNumber": "0x19eb5dd",
      "gasUsed": "0xb563",
      "effectiveGasPrice": "0x45d8c",
      "from": "0xa6b3d200cd34ca14d7579dac8b054bf50a62c37c",
      "to": "0xe55cd346e5097ab8a715c4ef599725791b841e8f",
      "contractAddress": null,
      "l1BaseFeeScalar": "0x44d",
      "l1BlobBaseFee": "0x1",
      "l1BlobBaseFeeScalar": "0xa118b",
      "l1Fee": "0x1fb46",
      "l1GasPrice": "0xf06f",
      "l1GasUsed": "0x77b"
    }
  ],
  "libraries": [],
  "pending": [],
  "returns": {},
  "timestamp": 1750125212,
  "chain": 84532,
  "commit": "e3173ca"
}