{
  "transactions": [
    {
      "hash": "0xa36b2a107540561ce3d0e33b56f04b3cff8e3de8b4facc539bab1b7f4ec2978d",
      "transactionType": "CALL",
      "contractName": null,
      "contractAddress": "0x111444fd9b2e748308057ab8983ddda8c262ceec",
      "function": "configureAsset(address,uint8,uint256,uint256,uint256,uint256)",
      "arguments": [
        "0xca09D6c5f9f5646A20b5EF71986EED5f8A86add0",
        "1",
        "1050000",
        "1020000",
        "1000000000000000000000",
        "200000"
      ],
      "transaction": {
        "from": "0xa6b3d200cd34ca14d7579dac8b054bf50a62c37c",
        "to": "0x111444fd9b2e748308057ab8983ddda8c262ceec",
        "gas": "0x109a4",
        "value": "0x0",
        "input": "0x51e23bf1000000000000000000000000ca09d6c5f9f5646a20b5ef71986eed5f8a86add00000000000000000000000000000000000000000000000000000000000000001000000000000000000000000000000000000000000000000000000000010059000000000000000000000000000000000000000000000000000000000000f906000000000000000000000000000000000000000000000003635c9adc5dea000000000000000000000000000000000000000000000000000000000000000030d40",
        "nonce": "0xcf1",
        "chainId": "0x14a34"
      },
      "additionalContracts": [],
      "isFixedGasLimit": false
    },
    {
      "hash": "0xb3dfd18c7057492550d82fd858069c9bce1d9504b0aa9dc6fc91958aec8ed530",
      "transactionType": "CALL",
      "contractName": null,
      "contractAddress": "0x111444fd9b2e748308057ab8983ddda8c262ceec",
      "function": "configureAsset(address,uint8,uint256,uint256,uint256,uint256)",
      "arguments": [
        "0xAdc9649EF0468d6C73B56Dc96fF6bb527B8251A0",
        "1",
        "1500000",
        "1200000",
        "1000000000000",
        "100000"
      ],
      "transaction": {
        "from": "0xa6b3d200cd34ca14d7579dac8b054bf50a62c37c",
        "to": "0x111444fd9b2e748308057ab8983ddda8c262ceec",
        "gas": "0xfaaf",
        "value": "0x0",
        "input": "0x51e23bf1000000000000000000000000adc9649ef0468d6c73b56dc96ff6bb527b8251a00000000000000000000000000000000000000000000000000000000000000001000000000000000000000000000000000000000000000000000000000016e3600000000000000000000000000000000000000000000000000000000000124f80000000000000000000000000000000000000000000000000000000e8d4a5100000000000000000000000000000000000000000000000000000000000000186a0",
        "nonce": "0xcf2",
        "chainId": "0x14a34"
      },
      "additionalContracts": [],
      "isFixedGasLimit": false
    },
    {
      "hash": "0x90db822ad653817c5b89e1dd62dd3a196a5abea00daff2e3db54f1840d7d6c53",
      "transactionType": "CALL",
      "contractName": null,
      "contractAddress": "0x111444fd9b2e748308057ab8983ddda8c262ceec",
      "function": "configureAsset(address,uint8,uint256,uint256,uint256,uint256)",
      "arguments": [
        "0x6C2AAf9cFb130d516401Ee769074F02fae6ACb91",
        "1",
        "1400000",
        "1150000",
        "10000000000",
        "150000"
      ],
      "transaction": {
        "from": "0xa6b3d200cd34ca14d7579dac8b054bf50a62c37c",
        "to": "0x111444fd9b2e748308057ab8983ddda8c262ceec",
        "gas": "0xfaaf",
        "value": "0x0",
        "input": "0x51e23bf10000000000000000000000006c2aaf9cfb130d516401ee769074f02fae6acb9100000000000000000000000000000000000000000000000000000000000000010000000000000000000000000000000000000000000000000000000000155cc00000000000000000000000000000000000000000000000000000000000118c3000000000000000000000000000000000000000000000000000000002540be40000000000000000000000000000000000000000000000000000000000000249f0",
        "nonce": "0xcf3",
        "chainId": "0x14a34"
      },
      "additionalContracts": [],
      "isFixedGasLimit": false
    }
  ],
  "receipts": [
    {
      "status": "0x1",
      "cumulativeGasUsed": "0x8401ae",
      "logs": [
        {
          "address": "0x111444fd9b2e748308057ab8983ddda8c262ceec",
          "topics": [
            "0xef4fb1b25c475da87164d55f9cbc768c795bd55c6bd1255e7d1e5d058742a3a8",
            "0x000000000000000000000000ca09d6c5f9f5646a20b5ef71986eed5f8a86add0"
          ],
          "data": "0x00000000000000000000000000000000000000000000000000000000000000010000000000000000000000000000000000000000000000000000000000100590",
          "blockHash": "0x6a0ddfe361565276a8cf513612228ab9e2bfcd6afcfc9dca2a7fb844f2c67d7d",
          "blockNumber": "0x19eba4c",
          "transactionHash": "0xa36b2a107540561ce3d0e33b56f04b3cff8e3de8b4facc539bab1b7f4ec2978d",
          "transactionIndex": "0x1e",
          "logIndex": "0x18a",
          "removed": false
        }
      ],
      "logsBloom": "0x08000000000000000000000000000000000000000000000000000000000000000000000000000000000000000000000000000000000000000000000000000000000000000000000000000000000000000000000000000000000000000000000000000000000000000000000000000000000000000000800000000000000000000000008020200000000000000000000000000000400000000000000000000000000000000000000000000000000000000000000000000000000000000000000000000000000000000000000000000000000000100000000000000000000000000000000800000000000000080000000000000000000000000000000000000000",
      "type": "0x2",
      "transactionHash": "0xa36b2a107540561ce3d0e33b56f04b3cff8e3de8b4facc539bab1b7f4ec2978d",
      "transactionIndex": "0x1e",
      "blockHash": "0x6a0ddfe361565276a8cf513612228ab9e2bfcd6afcfc9dca2a7fb844f2c67d7d",
      "blockNumber": "0x19eba4c",
      "gasUsed": "0xb5a3",
      "effectiveGasPrice": "0x5124a",
      "from": "0xa6b3d200cd34ca14d7579dac8b054bf50a62c37c",
      "to": "0x111444fd9b2e748308057ab8983ddda8c262ceec",
      "contractAddress": null,
      "l1BaseFeeScalar": "0x44d",
      "l1BlobBaseFee": "0x1",
      "l1BlobBaseFeeScalar": "0xa118b",
      "l1Fee": "0x573a",
      "l1GasPrice": "0x2819",
      "l1GasUsed": "0x7b0"
    },
    {
      "status": "0x1",
      "cumulativeGasUsed": "0x84b72d",
      "logs": [
        {
          "address": "0x111444fd9b2e748308057ab8983ddda8c262ceec",
          "topics": [
            "0xef4fb1b25c475da87164d55f9cbc768c795bd55c6bd1255e7d1e5d058742a3a8",
            "0x000000000000000000000000adc9649ef0468d6c73b56dc96ff6bb527b8251a0"
          ],
          "data": "0x0000000000000000000000000000000000000000000000000000000000000001000000000000000000000000000000000000000000000000000000000016e360",
          "blockHash": "0x6a0ddfe361565276a8cf513612228ab9e2bfcd6afcfc9dca2a7fb844f2c67d7d",
          "blockNumber": "0x19eba4c",
          "transactionHash": "0xb3dfd18c7057492550d82fd858069c9bce1d9504b0aa9dc6fc91958aec8ed530",
          "transactionIndex": "0x1f",
          "logIndex": "0x18b",
          "removed": false
        }
      ],
      "logsBloom": "0x08000000000000000000000000000000000000000000000000000000000000000000000000000000000000000000000000000000000000000000000000000000000000000000000000000000000000000000000000000000000000000000000000000000000000000000000000000000000010000000800000000000000000000000000020200000000000000000000000000000400000000000000000000000000000000000004000000000000000000000000000000000000000000000000000000000000000000000000000000000000000000000000000000000000080000000000000000000000000080000000000000000000000000000000000000000",
      "type": "0x2",
      "transactionHash": "0xb3dfd18c7057492550d82fd858069c9bce1d9504b0aa9dc6fc91958aec8ed530",
      "transactionIndex": "0x1f",
      "blockHash": "0x6a0ddfe361565276a8cf513612228ab9e2bfcd6afcfc9dca2a7fb844f2c67d7d",
      "blockNumber": "0x19eba4c",
      "gasUsed": "0xb57f",
      "effectiveGasPrice": "0x5124a",
      "from": "0xa6b3d200cd34ca14d7579dac8b054bf50a62c37c",
      "to": "0x111444fd9b2e748308057ab8983ddda8c262ceec",
      "contractAddress": null,
      "l1BaseFeeScalar": "0x44d",
      "l1BlobBaseFee": "0x1",
      "l1BlobBaseFeeScalar": "0xa118b",
      "l1Fee": "0x54db",
      "l1GasPrice": "0x2819",
      "l1GasUsed": "0x77b"
    },
    {
      "status": "0x1",
      "cumulativeGasUsed": "0x87cdc2",
      "logs": [
        {
          "address": "0x111444fd9b2e748308057ab8983ddda8c262ceec",
          "topics": [
            "0xef4fb1b25c475da87164d55f9cbc768c795bd55c6bd1255e7d1e5d058742a3a8",
            "0x0000000000000000000000006c2aaf9cfb130d516401ee769074f02fae6acb91"
          ],
          "data": "0x00000000000000000000000000000000000000000000000000000000000000010000000000000000000000000000000000000000000000000000000000155cc0",
          "blockHash": "0x6a0ddfe361565276a8cf513612228ab9e2bfcd6afcfc9dca2a7fb844f2c67d7d",
          "blockNumber": "0x19eba4c",
          "transactionHash": "0x90db822ad653817c5b89e1dd62dd3a196a5abea00daff2e3db54f1840d7d6c53",
          "transactionIndex": "0x21",
          "logIndex": "0x190",
          "removed": false
        }
      ],
      "logsBloom": "0x08000000000000000000000000000000000000000000000000000000000000000000000000000000000000000000000000000000000000000000000000000000001000000000000000000000000000000000000000000000000000000000000000000000000000000000010000000000000000000000800000100000000000000000000020200000000000000000000000000000400000000000000000000000000000000000000000000000000000000000000000000000000000000000000000000000000000000000000000000000000000000000000000000000000000000000000000000000000000080000000000000000000000000000000000000000",
      "type": "0x2",
      "transactionHash": "0x90db822ad653817c5b89e1dd62dd3a196a5abea00daff2e3db54f1840d7d6c53",
      "transactionIndex": "0x21",
      "blockHash": "0x6a0ddfe361565276a8cf513612228ab9e2bfcd6afcfc9dca2a7fb844f2c67d7d",
      "blockNumber": "0x19eba4c",
      "gasUsed": "0xb57f",
      "effectiveGasPrice": "0x5124a",
      "from": "0xa6b3d200cd34ca14d7579dac8b054bf50a62c37c",
      "to": "0x111444fd9b2e748308057ab8983ddda8c262ceec",
      "contractAddress": null,
      "l1BaseFeeScalar": "0x44d",
      "l1BlobBaseFee": "0x1",
      "l1BlobBaseFeeScalar": "0xa118b",
      "l1Fee": "0x54db",
      "l1GasPrice": "0x2819",
      "l1GasUsed": "0x77b"
    }
  ],
  "libraries": [],
  "pending": [],
  "returns": {},
  "timestamp": 1750127481,
  "chain": 84532,
  "commit": "e3173ca"
}