{
  "transactions": [
    {
      "hash": "0xe490af464c8369f71086b8f882c9223da8143ff5d0ce84865e3b0040083b357e",
      "transactionType": "CALL",
      "contractName": null,
      "contractAddress": "0x111444fd9b2e748308057ab8983ddda8c262ceec",
      "function": "configureAsset(address,uint8,uint256,uint256,uint256,uint256)",
      "arguments": [
        "0xca09D6c5f9f5646A20b5EF71986EED5f8A86add0",
        "1",
        "1050000",
        "1020000",
        "1000000000000000000000",
        "200000"
      ],
      "transaction": {
        "from": "0xa6b3d200cd34ca14d7579dac8b054bf50a62c37c",
        "to": "0x111444fd9b2e748308057ab8983ddda8c262ceec",
        "gas": "0x109a4",
        "value": "0x0",
        "input": "0x51e23bf1000000000000000000000000ca09d6c5f9f5646a20b5ef71986eed5f8a86add00000000000000000000000000000000000000000000000000000000000000001000000000000000000000000000000000000000000000000000000000010059000000000000000000000000000000000000000000000000000000000000f906000000000000000000000000000000000000000000000003635c9adc5dea000000000000000000000000000000000000000000000000000000000000000030d40",
        "nonce": "0xcf4",
        "chainId": "0x14a34"
      },
      "additionalContracts": [],
      "isFixedGasLimit": false
    },
    {
      "hash": "0x1fc9f2a9e9f9bc23627afb6049d3bba916fe8ba5342c4e01d07d482e3f28425c",
      "transactionType": "CALL",
      "contractName": null,
      "contractAddress": "0x111444fd9b2e748308057ab8983ddda8c262ceec",
      "function": "configureAsset(address,uint8,uint256,uint256,uint256,uint256)",
      "arguments": [
        "0xAdc9649EF0468d6C73B56Dc96fF6bb527B8251A0",
        "1",
        "1500000",
        "1200000",
        "1000000000000",
        "100000"
      ],
      "transaction": {
        "from": "0xa6b3d200cd34ca14d7579dac8b054bf50a62c37c",
        "to": "0x111444fd9b2e748308057ab8983ddda8c262ceec",
        "gas": "0xfaaf",
        "value": "0x0",
        "input": "0x51e23bf1000000000000000000000000adc9649ef0468d6c73b56dc96ff6bb527b8251a00000000000000000000000000000000000000000000000000000000000000001000000000000000000000000000000000000000000000000000000000016e3600000000000000000000000000000000000000000000000000000000000124f80000000000000000000000000000000000000000000000000000000e8d4a5100000000000000000000000000000000000000000000000000000000000000186a0",
        "nonce": "0xcf5",
        "chainId": "0x14a34"
      },
      "additionalContracts": [],
      "isFixedGasLimit": false
    },
    {
      "hash": "0x04645b817cd3bd775fd36d18071617b4e15ac55c48bf0f1fc8226a241ff4abf2",
      "transactionType": "CALL",
      "contractName": null,
      "contractAddress": "0x111444fd9b2e748308057ab8983ddda8c262ceec",
      "function": "configureAsset(address,uint8,uint256,uint256,uint256,uint256)",
      "arguments": [
        "0x6C2AAf9cFb130d516401Ee769074F02fae6ACb91",
        "1",
        "1400000",
        "1150000",
        "10000000000",
        "150000"
      ],
      "transaction": {
        "from": "0xa6b3d200cd34ca14d7579dac8b054bf50a62c37c",
        "to": "0x111444fd9b2e748308057ab8983ddda8c262ceec",
        "gas": "0xfaaf",
        "value": "0x0",
        "input": "0x51e23bf10000000000000000000000006c2aaf9cfb130d516401ee769074f02fae6acb9100000000000000000000000000000000000000000000000000000000000000010000000000000000000000000000000000000000000000000000000000155cc00000000000000000000000000000000000000000000000000000000000118c3000000000000000000000000000000000000000000000000000000002540be40000000000000000000000000000000000000000000000000000000000000249f0",
        "nonce": "0xcf6",
        "chainId": "0x14a34"
      },
      "additionalContracts": [],
      "isFixedGasLimit": false
    }
  ],
  "receipts": [
    {
      "status": "0x1",
      "cumulativeGasUsed": "0x287c8d",
      "logs": [
        {
          "address": "0x111444fd9b2e748308057ab8983ddda8c262ceec",
          "topics": [
            "0xef4fb1b25c475da87164d55f9cbc768c795bd55c6bd1255e7d1e5d058742a3a8",
            "0x000000000000000000000000ca09d6c5f9f5646a20b5ef71986eed5f8a86add0"
          ],
          "data": "0x00000000000000000000000000000000000000000000000000000000000000010000000000000000000000000000000000000000000000000000000000100590",
          "blockHash": "0x0fdc112d7f654e458275a9c2a47f2f8d3be74e3cdc174169c6c2251cc1c163ba",
          "blockNumber": "0x19eba7c",
          "transactionHash": "0xe490af464c8369f71086b8f882c9223da8143ff5d0ce84865e3b0040083b357e",
          "transactionIndex": "0xd",
          "logIndex": "0x63",
          "removed": false
        }
      ],
      "logsBloom": "0x08000000000000000000000000000000000000000000000000000000000000000000000000000000000000000000000000000000000000000000000000000000000000000000000000000000000000000000000000000000000000000000000000000000000000000000000000000000000000000000800000000000000000000000008020200000000000000000000000000000400000000000000000000000000000000000000000000000000000000000000000000000000000000000000000000000000000000000000000000000000000100000000000000000000000000000000800000000000000080000000000000000000000000000000000000000",
      "type": "0x2",
      "transactionHash": "0xe490af464c8369f71086b8f882c9223da8143ff5d0ce84865e3b0040083b357e",
      "transactionIndex": "0xd",
      "blockHash": "0x0fdc112d7f654e458275a9c2a47f2f8d3be74e3cdc174169c6c2251cc1c163ba",
      "blockNumber": "0x19eba7c",
      "gasUsed": "0xb5a3",
      "effectiveGasPrice": "0x56941",
      "from": "0xa6b3d200cd34ca14d7579dac8b054bf50a62c37c",
      "to": "0x111444fd9b2e748308057ab8983ddda8c262ceec",
      "contractAddress": null,
      "l1BaseFeeScalar": "0x44d",
      "l1BlobBaseFee": "0x1",
      "l1BlobBaseFeeScalar": "0xa118b",
      "l1Fee": "0x7ca6",
      "l1GasPrice": "0x395d",
      "l1GasUsed": "0x7b0"
    },
    {
      "status": "0x1",
      "cumulativeGasUsed": "0x29320c",
      "logs": [
        {
          "address": "0x111444fd9b2e748308057ab8983ddda8c262ceec",
          "topics": [
            "0xef4fb1b25c475da87164d55f9cbc768c795bd55c6bd1255e7d1e5d058742a3a8",
            "0x000000000000000000000000adc9649ef0468d6c73b56dc96ff6bb527b8251a0"
          ],
          "data": "0x0000000000000000000000000000000000000000000000000000000000000001000000000000000000000000000000000000000000000000000000000016e360",
          "blockHash": "0x0fdc112d7f654e458275a9c2a47f2f8d3be74e3cdc174169c6c2251cc1c163ba",
          "blockNumber": "0x19eba7c",
          "transactionHash": "0x1fc9f2a9e9f9bc23627afb6049d3bba916fe8ba5342c4e01d07d482e3f28425c",
          "transactionIndex": "0xe",
          "logIndex": "0x64",
          "removed": false
        }
      ],
      "logsBloom": "0x08000000000000000000000000000000000000000000000000000000000000000000000000000000000000000000000000000000000000000000000000000000000000000000000000000000000000000000000000000000000000000000000000000000000000000000000000000000000010000000800000000000000000000000000020200000000000000000000000000000400000000000000000000000000000000000004000000000000000000000000000000000000000000000000000000000000000000000000000000000000000000000000000000000000080000000000000000000000000080000000000000000000000000000000000000000",
      "type": "0x2",
      "transactionHash": "0x1fc9f2a9e9f9bc23627afb6049d3bba916fe8ba5342c4e01d07d482e3f28425c",
      "transactionIndex": "0xe",
      "blockHash": "0x0fdc112d7f654e458275a9c2a47f2f8d3be74e3cdc174169c6c2251cc1c163ba",
      "blockNumber": "0x19eba7c",
      "gasUsed": "0xb57f",
      "effectiveGasPrice": "0x56941",
      "from": "0xa6b3d200cd34ca14d7579dac8b054bf50a62c37c",
      "to": "0x111444fd9b2e748308057ab8983ddda8c262ceec",
      "contractAddress": null,
      "l1BaseFeeScalar": "0x44d",
      "l1BlobBaseFee": "0x1",
      "l1BlobBaseFeeScalar": "0xa118b",
      "l1Fee": "0x7943",
      "l1GasPrice": "0x395d",
      "l1GasUsed": "0x77b"
    },
    {
      "status": "0x1",
      "cumulativeGasUsed": "0x29e78b",
      "logs": [
        {
          "address": "0x111444fd9b2e748308057ab8983ddda8c262ceec",
          "topics": [
            "0xef4fb1b25c475da87164d55f9cbc768c795bd55c6bd1255e7d1e5d058742a3a8",
            "0x0000000000000000000000006c2aaf9cfb130d516401ee769074f02fae6acb91"
          ],
          "data": "0x00000000000000000000000000000000000000000000000000000000000000010000000000000000000000000000000000000000000000000000000000155cc0",
          "blockHash": "0x0fdc112d7f654e458275a9c2a47f2f8d3be74e3cdc174169c6c2251cc1c163ba",
          "blockNumber": "0x19eba7c",
          "transactionHash": "0x04645b817cd3bd775fd36d18071617b4e15ac55c48bf0f1fc8226a241ff4abf2",
          "transactionIndex": "0xf",
          "logIndex": "0x65",
          "removed": false
        }
      ],
      "logsBloom": "0x08000000000000000000000000000000000000000000000000000000000000000000000000000000000000000000000000000000000000000000000000000000001000000000000000000000000000000000000000000000000000000000000000000000000000000000010000000000000000000000800000100000000000000000000020200000000000000000000000000000400000000000000000000000000000000000000000000000000000000000000000000000000000000000000000000000000000000000000000000000000000000000000000000000000000000000000000000000000000080000000000000000000000000000000000000000",
      "type": "0x2",
      "transactionHash": "0x04645b817cd3bd775fd36d18071617b4e15ac55c48bf0f1fc8226a241ff4abf2",
      "transactionIndex": "0xf",
      "blockHash": "0x0fdc112d7f654e458275a9c2a47f2f8d3be74e3cdc174169c6c2251cc1c163ba",
      "blockNumber": "0x19eba7c",
      "gasUsed": "0xb57f",
      "effectiveGasPrice": "0x56941",
      "from": "0xa6b3d200cd34ca14d7579dac8b054bf50a62c37c",
      "to": "0x111444fd9b2e748308057ab8983ddda8c262ceec",
      "contractAddress": null,
      "l1BaseFeeScalar": "0x44d",
      "l1BlobBaseFee": "0x1",
      "l1BlobBaseFeeScalar": "0xa118b",
      "l1Fee": "0x7943",
      "l1GasPrice": "0x395d",
      "l1GasUsed": "0x77b"
    }
  ],
  "libraries": [],
  "pending": [],
  "returns": {},
  "timestamp": 1750127576,
  "chain": 84532,
  "commit": "e3173ca"
}