{
  "transactions": [
    {
      "hash": "0x7a3da37529a4263af19142c9d2b0511ca73ff748ad43ec859947b3b524588d35",
      "transactionType": "CALL",
      "contractName": null,
      "contractAddress": "0x111444fd9b2e748308057ab8983ddda8c262ceec",
      "function": "configureAsset(address,uint8,uint256,uint256,uint256,uint256)",
      "arguments": [
        "0xca09D6c5f9f5646A20b5EF71986EED5f8A86add0",
        "1",
        "1050000",
        "1020000",
        "1000000000000000000000",
        "200000"
      ],
      "transaction": {
        "from": "0xa6b3d200cd34ca14d7579dac8b054bf50a62c37c",
        "to": "0x111444fd9b2e748308057ab8983ddda8c262ceec",
        "gas": "0x149a0",
        "value": "0x0",
        "input": "0x51e23bf1000000000000000000000000ca09d6c5f9f5646a20b5ef71986eed5f8a86add00000000000000000000000000000000000000000000000000000000000000001000000000000000000000000000000000000000000000000000000000010059000000000000000000000000000000000000000000000000000000000000f906000000000000000000000000000000000000000000000003635c9adc5dea000000000000000000000000000000000000000000000000000000000000000030d40",
        "nonce": "0xdc2",
        "chainId": "0x14a34"
      },
      "additionalContracts": [],
      "isFixedGasLimit": false
    },
    {
      "hash": "0x193722d8118d205edec58b4b06a17d82ed07f3bc271c7b9097878fb1f371b48e",
      "transactionType": "CALL",
      "contractName": null,
      "contractAddress": "0x111444fd9b2e748308057ab8983ddda8c262ceec",
      "function": "configureAsset(address,uint8,uint256,uint256,uint256,uint256)",
      "arguments": [
        "0xAdc9649EF0468d6C73B56Dc96fF6bb527B8251A0",
        "1",
        "1500000",
        "1200000",
        "1000000000000",
        "100000"
      ],
      "transaction": {
        "from": "0xa6b3d200cd34ca14d7579dac8b054bf50a62c37c",
        "to": "0x111444fd9b2e748308057ab8983ddda8c262ceec",
        "gas": "0x1371d",
        "value": "0x0",
        "input": "0x51e23bf1000000000000000000000000adc9649ef0468d6c73b56dc96ff6bb527b8251a00000000000000000000000000000000000000000000000000000000000000001000000000000000000000000000000000000000000000000000000000016e3600000000000000000000000000000000000000000000000000000000000124f80000000000000000000000000000000000000000000000000000000e8d4a5100000000000000000000000000000000000000000000000000000000000000186a0",
        "nonce": "0xdc3",
        "chainId": "0x14a34"
      },
      "additionalContracts": [],
      "isFixedGasLimit": false
    },
    {
      "hash": "0x174e87f521b40fce86846af7c69671901ca3618585726aeb6a2f3b2a6b0b5f90",
      "transactionType": "CALL",
      "contractName": null,
      "contractAddress": "0x111444fd9b2e748308057ab8983ddda8c262ceec",
      "function": "configureAsset(address,uint8,uint256,uint256,uint256,uint256)",
      "arguments": [
        "0x6C2AAf9cFb130d516401Ee769074F02fae6ACb91",
        "1",
        "1400000",
        "1150000",
        "10000000000",
        "150000"
      ],
      "transaction": {
        "from": "0xa6b3d200cd34ca14d7579dac8b054bf50a62c37c",
        "to": "0x111444fd9b2e748308057ab8983ddda8c262ceec",
        "gas": "0x1371d",
        "value": "0x0",
        "input": "0x51e23bf10000000000000000000000006c2aaf9cfb130d516401ee769074f02fae6acb9100000000000000000000000000000000000000000000000000000000000000010000000000000000000000000000000000000000000000000000000000155cc00000000000000000000000000000000000000000000000000000000000118c3000000000000000000000000000000000000000000000000000000002540be40000000000000000000000000000000000000000000000000000000000000249f0",
        "nonce": "0xdc4",
        "chainId": "0x14a34"
      },
      "additionalContracts": [],
      "isFixedGasLimit": false
    }
  ],
  "receipts": [
    {
      "status": "0x1",
      "cumulativeGasUsed": "0x400a13",
      "logs": [
        {
          "address": "0x111444fd9b2e748308057ab8983ddda8c262ceec",
          "topics": [
            "0xef4fb1b25c475da87164d55f9cbc768c795bd55c6bd1255e7d1e5d058742a3a8",
            "0x000000000000000000000000ca09d6c5f9f5646a20b5ef71986eed5f8a86add0"
          ],
          "data": "0x00000000000000000000000000000000000000000000000000000000000000010000000000000000000000000000000000000000000000000000000000100590",
          "blockHash": "0x2c00dd456cf6f8ab18b1d076ee6c827a97fc11486ad7a8bd9a54bb7f737180c1",
          "blockNumber": "0x19ec40e",
          "transactionHash": "0x7a3da37529a4263af19142c9d2b0511ca73ff748ad43ec859947b3b524588d35",
          "transactionIndex": "0x9",
          "logIndex": "0x8c",
          "removed": false
        }
      ],
      "logsBloom": "0x08000000000000000000000000000000000000000000000000000000000000000000000000000000000000000000000000000000000000000000000000000000000000000000000000000000000000000000000000000000000000000000000000000000000000000000000000000000000000000000800000000000000000000000008020200000000000000000000000000000400000000000000000000000000000000000000000000000000000000000000000000000000000000000000000000000000000000000000000000000000000100000000000000000000000000000000800000000000000080000000000000000000000000000000000000000",
      "type": "0x2",
      "transactionHash": "0x7a3da37529a4263af19142c9d2b0511ca73ff748ad43ec859947b3b524588d35",
      "transactionIndex": "0x9",
      "blockHash": "0x2c00dd456cf6f8ab18b1d076ee6c827a97fc11486ad7a8bd9a54bb7f737180c1",
      "blockNumber": "0x19ec40e",
      "gasUsed": "0xe163",
      "effectiveGasPrice": "0x58edf",
      "from": "0xa6b3d200cd34ca14d7579dac8b054bf50a62c37c",
      "to": "0x111444fd9b2e748308057ab8983ddda8c262ceec",
      "contractAddress": null,
      "l1BaseFeeScalar": "0x44d",
      "l1BlobBaseFee": "0x1",
      "l1BlobBaseFeeScalar": "0xa118b",
      "l1Fee": "0x1c42e8",
      "l1GasPrice": "0xd09c3",
      "l1GasUsed": "0x7b0"
    },
    {
      "status": "0x1",
      "cumulativeGasUsed": "0x40eb52",
      "logs": [
        {
          "address": "0x111444fd9b2e748308057ab8983ddda8c262ceec",
          "topics": [
            "0xef4fb1b25c475da87164d55f9cbc768c795bd55c6bd1255e7d1e5d058742a3a8",
            "0x000000000000000000000000adc9649ef0468d6c73b56dc96ff6bb527b8251a0"
          ],
          "data": "0x0000000000000000000000000000000000000000000000000000000000000001000000000000000000000000000000000000000000000000000000000016e360",
          "blockHash": "0x2c00dd456cf6f8ab18b1d076ee6c827a97fc11486ad7a8bd9a54bb7f737180c1",
          "blockNumber": "0x19ec40e",
          "transactionHash": "0x193722d8118d205edec58b4b06a17d82ed07f3bc271c7b9097878fb1f371b48e",
          "transactionIndex": "0xa",
          "logIndex": "0x8d",
          "removed": false
        }
      ],
      "logsBloom": "0x08000000000000000000000000000000000000000000000000000000000000000000000000000000000000000000000000000000000000000000000000000000000000000000000000000000000000000000000000000000000000000000000000000000000000000000000000000000000010000000800000000000000000000000000020200000000000000000000000000000400000000000000000000000000000000000004000000000000000000000000000000000000000000000000000000000000000000000000000000000000000000000000000000000000080000000000000000000000000080000000000000000000000000000000000000000",
      "type": "0x2",
      "transactionHash": "0x193722d8118d205edec58b4b06a17d82ed07f3bc271c7b9097878fb1f371b48e",
      "transactionIndex": "0xa",
      "blockHash": "0x2c00dd456cf6f8ab18b1d076ee6c827a97fc11486ad7a8bd9a54bb7f737180c1",
      "blockNumber": "0x19ec40e",
      "gasUsed": "0xe13f",
      "effectiveGasPrice": "0x58edf",
      "from": "0xa6b3d200cd34ca14d7579dac8b054bf50a62c37c",
      "to": "0x111444fd9b2e748308057ab8983ddda8c262ceec",
      "contractAddress": null,
      "l1BaseFeeScalar": "0x44d",
      "l1BlobBaseFee": "0x1",
      "l1BlobBaseFeeScalar": "0xa118b",
      "l1Fee": "0x1baf58",
      "l1GasPrice": "0xd09c3",
      "l1GasUsed": "0x788"
    },
    {
      "status": "0x1",
      "cumulativeGasUsed": "0x41cc91",
      "logs": [
        {
          "address": "0x111444fd9b2e748308057ab8983ddda8c262ceec",
          "topics": [
            "0xef4fb1b25c475da87164d55f9cbc768c795bd55c6bd1255e7d1e5d058742a3a8",
            "0x0000000000000000000000006c2aaf9cfb130d516401ee769074f02fae6acb91"
          ],
          "data": "0x00000000000000000000000000000000000000000000000000000000000000010000000000000000000000000000000000000000000000000000000000155cc0",
          "blockHash": "0x2c00dd456cf6f8ab18b1d076ee6c827a97fc11486ad7a8bd9a54bb7f737180c1",
          "blockNumber": "0x19ec40e",
          "transactionHash": "0x174e87f521b40fce86846af7c69671901ca3618585726aeb6a2f3b2a6b0b5f90",
          "transactionIndex": "0xb",
          "logIndex": "0x8e",
          "removed": false
        }
      ],
      "logsBloom": "0x08000000000000000000000000000000000000000000000000000000000000000000000000000000000000000000000000000000000000000000000000000000001000000000000000000000000000000000000000000000000000000000000000000000000000000000010000000000000000000000800000100000000000000000000020200000000000000000000000000000400000000000000000000000000000000000000000000000000000000000000000000000000000000000000000000000000000000000000000000000000000000000000000000000000000000000000000000000000000080000000000000000000000000000000000000000",
      "type": "0x2",
      "transactionHash": "0x174e87f521b40fce86846af7c69671901ca3618585726aeb6a2f3b2a6b0b5f90",
      "transactionIndex": "0xb",
      "blockHash": "0x2c00dd456cf6f8ab18b1d076ee6c827a97fc11486ad7a8bd9a54bb7f737180c1",
      "blockNumber": "0x19ec40e",
      "gasUsed": "0xe13f",
      "effectiveGasPrice": "0x58edf",
      "from": "0xa6b3d200cd34ca14d7579dac8b054bf50a62c37c",
      "to": "0x111444fd9b2e748308057ab8983ddda8c262ceec",
      "contractAddress": null,
      "l1BaseFeeScalar": "0x44d",
      "l1BlobBaseFee": "0x1",
      "l1BlobBaseFeeScalar": "0xa118b",
      "l1Fee": "0x1baf58",
      "l1GasPrice": "0xd09c3",
      "l1GasUsed": "0x788"
    }
  ],
  "libraries": [],
  "pending": [],
  "returns": {},
  "timestamp": 1750132477,
  "chain": 84532,
  "commit": "e3173ca"
}