{
  "transactions": [
    {
      "hash": "0x21a78c0e1c824fffb6f60686a9ff4431a384537780224ce5ba07583f43b66487",
      "transactionType": "CREATE",
      "contractName": "RewardDistributor",
      "contractAddress": "0xcd96339b2d7a653b885d389d6c7752bc5e4fa43f",
      "function": null,
      "arguments": null,
      "transaction": {
        "from": "0xa6b3d200cd34ca14d7579dac8b054bf50a62c37c",
        "gas": "0x1a4949",
        "value": "0x0",
        "input": "0x608080604052346071573315605e575f8054336001600160a01b0319821681178355916001600160a01b03909116907f8be0079c531659141344cd1fd0a4f28419497f9722a3daafe3b4186f6b6457e09080a361169790816100768239f35b631e4fbdf760e01b5f525f60045260245ffd5b5f80fdfe6080806040526004361015610012575f80fd5b5f905f3560e01c908162f96434146110715750806309f2c01914610fac5780630b36db1514610dde578063179aae8814610db85780632073de5c14610d3157806323be345c14610d0b5780632636e8a014610ae5578063274ee47514610a3d578063312e109c1461093a57806348f60dfd146108125780634e210544146107ec57806368b2c40c1461077857806369883b4e14610740578063715018a6146106e95780637790ddc6146105205780638209ec501461046b5780638da5cb5b146104455780638ff29cfe146104085780639002392e146103a057806395ccea671461036757806399fc65d414610309578063b79f12b2146102e2578063bb13c3cb146102bb578063d88ff1f414610205578063ec01da10146101db5763f2fde38b1461013b575f80fd5b346101d85760203660031901126101d8576001600160a01b0361015c6111a0565b610164611475565b1680156101ac576001600160a01b038254826001600160a01b03198216178455167f8be0079c531659141344cd1fd0a4f28419497f9722a3daafe3b4186f6b6457e08380a380f35b6024827f1e4fbdf700000000000000000000000000000000000000000000000000000000815280600452fd5b80fd5b50346101d85760203660031901126101d85760406020916004358152600483522054604051908152f35b50346101d857806003193601126101d85760405180602060025491828152018091600285527f405787fa12a823e0f2b7631cc41b3ba8828b3321ca811111fa75cd3aa3bb5ace90855b8181106102a55750505082610264910383611231565b604051928392602084019060208552518091526040840192915b81811061028c575050500390f35b825184528594506020938401939092019160010161027e565b825484526020909301926001928301920161024e565b50346101d857806003193601126101d85760206001600160a01b03600a5416604051908152f35b50346101d857806003193601126101d85760206001600160a01b0360065416604051908152f35b50346101d85760403660031901126101d8576103236111a0565b6024358015158103610363576001600160a01b0361036092610343611475565b1683526005602052604083209060ff801983541691151516179055565b80f35b8280fd5b50346101d85760403660031901126101d8576103606103846111a0565b61038c611475565b602435906001600160a01b033391166114b4565b50346101d85760403660031901126101d8576001600160a01b0360406103c461118a565b92600435815260036020522091165f52602052608060405f208054906001810154906003600282015491015491604051938452602084015260408301526060820152f35b50346101d85760203660031901126101d85760ff60406020926001600160a01b036104316111a0565b168152600584522054166040519015158152f35b50346101d857806003193601126101d8576001600160a01b036020915416604051908152f35b50346101d85760203660031901126101d8576001600160a01b0361048d6111a0565b610495611475565b1680156104dc576020817f1be038705a495dd627af47e6738a26c370e9ee5df6e53f67515bd987c64d0fdd926001600160a01b0319600a541617600a55604051908152a180f35b606460405162461bcd60e51b815260206004820152601a60248201527f496e76616c69642056434f5020746f6b656e20616464726573730000000000006044820152fd5b50346106695760203660031901126106695760043561053f3382611399565b805f52600360205260405f206001600160a01b0333165f52602052600160405f2001908154918261056e578380f35b5f9055805f52600160205260405f206002810161058c848254611287565b90558260ff600683015460081c16806106cb575b156106b157506001600160a01b03600a54161561066d57546001600160a01b0316803b15610669576040517f40c10f1900000000000000000000000000000000000000000000000000000000815233600482015260248101849052905f908290604490829084905af1801561065e57610649575b505b6040519182527ffec539b3c42d74cd492c3ecf7966bf014b327beef98e935cdc3ec5e54a6901c760203393a35f80808380f35b6106569193505f90611231565b5f915f610614565b6040513d5f823e3d90fd5b5f80fd5b606460405162461bcd60e51b815260206004820152601260248201527f56434f5020746f6b656e206e6f742073657400000000000000000000000000006044820152fd5b6106c6916001600160a01b03339154166114b4565b610616565b506001600160a01b038254166001600160a01b03600a5416146105a0565b34610669575f36600319011261066957610701611475565b5f6001600160a01b0381546001600160a01b031981168355167f8be0079c531659141344cd1fd0a4f28419497f9722a3daafe3b4186f6b6457e08280a3005b3461066957602036600319011261066957600435600254811015610669576107696020916111cc565b90549060031b1c604051908152f35b346106695760207facefc4a7d159e33f5c2d6facc53467d06090e50ccfa880ef241dc1d1a9200f6c6107a9366111b6565b6107b4939193611475565b835f526001825260405f206107c885611294565b6005820155600442910155835f526001825280600360405f200155604051908152a2005b34610669575f3660031901126106695760206001600160a01b0360085416604051908152f35b3461066957610820366111b6565b815f52600160205260405f2060068101549160ff8316156108f657600160209260ff7f603c893fe5a7abb065fd37be5d74b7570a708f31c5b02b409779f57f8ab597889560081c165f14610886570161087a828254611287565b90555b604051908152a2005b6108e36001600160a01b03825416604051907f23b872dd0000000000000000000000000000000000000000000000000000000087830152336024830152306044830152856064830152606482526108de608483611231565b61150b565b016108ef828254611287565b905561087d565b606460405162461bcd60e51b815260206004820152600f60248201527f506f6f6c206e6f742061637469766500000000000000000000000000000000006044820152fd5b34610669576040366003190112610669576109dd60043561095961118a565b90805f52600360205260405f206001600160a01b0383165f52602052602060405f20926040519261098984611215565b8454845260018501548385015260606003600287015496876040880152015494019384526040519586928392623e590d60e21b8452600484019092916001600160a01b036020916040840195845216910152565b0381305afa90811561065e575f91610a08575b60609350519060405192835260208301526040820152f35b90506020833d602011610a35575b81610a2360209383611231565b810103126106695760609251906109f0565b3d9150610a16565b3461066957608036600319011261066957610a566111a0565b610a5e61118a565b90604435906001600160a01b03821680920361066957606435926001600160a01b038416809403610669576001600160a01b038092610a9b611475565b166001600160a01b03196006541617600655166001600160a01b031960075416176007556001600160a01b031960085416176008556001600160a01b031960095416176009555f80f35b3461066957606036600319011261066957600435610b0161118a565b60443590610b0d611475565b825f5260016020526001600160a01b0360405f205416610cc7576001600160a01b03168015610c83576001600160a01b03600a5416811490604051610b51816111f8565b818152602081015f8152610bea600660408401935f8552606081018881526080820142815260a08301915f835260c08401976001895260e08501978b89528d5f5260016020526001600160a01b0360405f209651166001600160a01b03198754161786555160018601555160028501555160038401555160048301555160058201550192511515839060ff801983541691151516179055565b51815461ff00191690151560081b61ff00161790556002549168010000000000000000831015610c6f577f908210fc0149379fe25f26a14ba6965e58ae6f8b5e8bb5e1f4586b323fd79b6793610c48846001606096016002556111cc565b81549060031b9088821b915f19901b191617905560405192835260208301526040820152a2005b634e487b7160e01b5f52604160045260245ffd5b606460405162461bcd60e51b815260206004820152601460248201527f496e76616c69642072657761726420746f6b656e0000000000000000000000006044820152fd5b606460405162461bcd60e51b815260206004820152601360248201527f506f6f6c20616c726561647920657869737473000000000000000000000000006044820152fd5b34610669575f3660031901126106695760206001600160a01b0360095416604051908152f35b34610669576020366003190112610669576004355f52600160205261010060405f2060ff6001600160a01b0382541691600181015490600281015460038201546004830154916006600585015494015494604051978852602088015260408701526060860152608085015260a0840152818116151560c084015260081c16151560e0820152f35b34610669575f3660031901126106695760206001600160a01b0360075416604051908152f35b3461066957608036600319011261066957600435610dfa61118a565b90604435916064359081151580830361066957335f52600560205260ff60405f20541615610f6857610e2c8285611399565b835f52600360205260405f206001600160a01b0383165f5260205260405f20925f14610ebf576040916001600160a01b03918460027f9f0a7aaf8d18c024e8123bdcd157b0f6e0f42892a4ea14a2becc88a320a799229601610e8f898254611287565b9055865f526004602052845f20610ea7898254611287565b90555b600342910155835196875260208701521693a3005b6002830191825491868310610f24577f9f0a7aaf8d18c024e8123bdcd157b0f6e0f42892a4ea14a2becc88a320a7992294604094610f05896001600160a01b0396611253565b9055865f526004602052845f20610f1d898254611253565b9055610eaa565b606460405162461bcd60e51b815260206004820152601260248201527f496e73756666696369656e74207374616b6500000000000000000000000000006044820152fd5b606460405162461bcd60e51b815260206004820152600e60248201527f4e6f7420617574686f72697a65640000000000000000000000000000000000006044820152fd5b346106695760203660031901126106695760c0600435805f52600160205260405f2090604051610fdb816111f8565b6001600160a01b0383541692838252600181015492836020840152600282015490816040850152600660038401549384606087015260048101546080870152600581015460a087015201549360e060ff898301968181161515885260081c1615159101525f52600460205260405f20549251151593604051958652602086015260408501526060840152608083015260a0820152f35b34610669576040366003190112610669576111826020916004359061109461118a565b90825f526001855260e060ff600660405f206110af856111f8565b6001600160a01b038154168552600181015489860152600281015460408601526003810154606086015260048101546080860152600581015460a08601520154818116151560c085015260081c161515910152815f52600384526001600160a01b0360405f2091165f528352670de0b6b3a764000061117960405f206111736040519161113b83611215565b8054835261116960018201549689850197885260036002840154936040870194855201546060860152611294565b9051925190611253565b90611274565b04905190611287565b604051908152f35b602435906001600160a01b038216820361066957565b600435906001600160a01b038216820361066957565b6040906003190112610669576004359060243590565b6002548110156111e45760025f5260205f2001905f90565b634e487b7160e01b5f52603260045260245ffd5b610100810190811067ffffffffffffffff821117610c6f57604052565b6080810190811067ffffffffffffffff821117610c6f57604052565b90601f8019910116810190811067ffffffffffffffff821117610c6f57604052565b9190820391821161126057565b634e487b7160e01b5f52601160045260245ffd5b8181029291811591840414171561126057565b9190820180921161126057565b805f52600160205260405f20604051906112ad826111f8565b6001600160a01b0381541682526001810154602083015260028101546040830152600381015490606083019182526004810154926080810193845260e060ff600660058501549460a085019586520154818116151560c085015260081c161515910152835f52600460205260405f205415611391579061133361133b9251935142611253565b905190611274565b91670de0b6b3a7640000830292808404670de0b6b3a76400001490151715611260575f52600460205260405f2054801561137d5761137a920490611287565b90565b634e487b7160e01b5f52601260045260245ffd5b925050505190565b90815f52600160205260405f20906113b083611294565b91600581019283556004429101556001600160a01b0381166113d157505050565b602061142591845f526003825260405f206001600160a01b0382165f52825260405f20946040519384928392623e590d60e21b8452600484019092916001600160a01b036020916040840195845216910152565b0381305afa90811561065e575f91611443575b506001830155549055565b90506020813d60201161146d575b8161145e60209383611231565b8101031261066957515f611438565b3d9150611451565b6001600160a01b035f5416330361148857565b7f118cdaa7000000000000000000000000000000000000000000000000000000005f523360045260245ffd5b6040517fa9059cbb0000000000000000000000000000000000000000000000000000000060208201526001600160a01b03929092166024830152604480830193909352918152611509916108de606483611231565b565b5f6001600160a01b038192169260208151910182855af13d156115c9573d67ffffffffffffffff8111610c6f5761156491604051916115546020601f19601f8401160184611231565b82523d5f602084013e5b836115d5565b80519081151591826115a5575b505061157a5750565b7f5274afe7000000000000000000000000000000000000000000000000000000005f5260045260245ffd5b81925090602091810103126106695760200151801590811503610669575f80611571565b6115649060609061155e565b9061161257508051156115ea57805190602001fd5b7f1425ea42000000000000000000000000000000000000000000000000000000005f5260045ffd5b81511580611658575b611623575090565b6001600160a01b03907f9996b315000000000000000000000000000000000000000000000000000000005f521660045260245ffd5b50803b1561161b56fea2646970667358221220d1fcdd1bcf6e42d0710f1bf9b1504c4f9f4b952cedc3fe1df4b067681adea8f264736f6c634300081a0033",
        "nonce": "0x873",
        "chainId": "0x14a34"
      },
      "additionalContracts": [],
      "isFixedGasLimit": false
    },
    {
      "hash": "0xc0d9a9a54aa139b64984c6da1e4304e7a21fc7fb1d0fdbcbb1878ce71410601b",
      "transactionType": "CALL",
      "contractName": "RewardDistributor",
      "contractAddress": "0xcd96339b2d7a653b885d389d6c7752bc5e4fa43f",
      "function": "setVCOPToken(address)",
      "arguments": [
        "0x4bcBDc0db8e522144D782c1b012B5ddc2149B427"
      ],
      "transaction": {
        "from": "0xa6b3d200cd34ca14d7579dac8b054bf50a62c37c",
        "to": "0xcd96339b2d7a653b885d389d6c7752bc5e4fa43f",
        "gas": "0xff6f",
        "value": "0x0",
        "input": "0x8209ec500000000000000000000000004bcbdc0db8e522144d782c1b012b5ddc2149b427",
        "nonce": "0x874",
        "chainId": "0x14a34"
      },
      "additionalContracts": [],
      "isFixedGasLimit": false
    },
    {
      "hash": "0x5227be0f1d23dfc0567002736393490d4d8acf6fa7cf433cbb8e54f39868be09",
      "transactionType": "CALL",
      "contractName": null,
      "contractAddress": "0x4bcbdc0db8e522144d782c1b012b5ddc2149b427",
      "function": "setMinter(address,bool)",
      "arguments": [
        "0xcd96339b2d7a653b885d389D6c7752bc5e4fA43F",
        "true"
      ],
      "transaction": {
        "from": "0xa6b3d200cd34ca14d7579dac8b054bf50a62c37c",
        "to": "0x4bcbdc0db8e522144d782c1b012b5ddc2149b427",
        "gas": "0x10274",
        "value": "0x0",
        "input": "0xcf456ae7000000000000000000000000cd96339b2d7a653b885d389d6c7752bc5e4fa43f0000000000000000000000000000000000000000000000000000000000000001",
        "nonce": "0x875",
        "chainId": "0x14a34"
      },
      "additionalContracts": [],
      "isFixedGasLimit": false
    },
    {
      "hash": "0xd301f0ea1968f2e6c0835dcf8cfcb2392ebce2baed8829822b8f19f87e5b6648",
      "transactionType": "CALL",
      "contractName": "RewardDistributor",
      "contractAddress": "0xcd96339b2d7a653b885d389d6c7752bc5e4fa43f",
      "function": "setProtocolComponents(address,address,address,address)",
      "arguments": [
        "0x8185E0Bf3B3DbaF643d8AEc98A67E39A6A6Cf19C",
        "0x3F0bE2F4b6b5db83632E84AA9B45AA9528A42E01",
        "0x4CB0E8D0a6CBb7e056f0c4C00364746E6D659Db6",
        "0x2B7fb7cA735Ed85Cf372f0FEbF305494058D73ca"
      ],
      "transaction": {
        "from": "0xa6b3d200cd34ca14d7579dac8b054bf50a62c37c",
        "to": "0xcd96339b2d7a653b885d389d6c7752bc5e4fa43f",
        "gas": "0x265f7",
        "value": "0x0",
        "input": "0x274ee4750000000000000000000000008185e0bf3b3dbaf643d8aec98a67e39a6a6cf19c0000000000000000000000003f0be2f4b6b5db83632e84aa9b45aa9528a42e010000000000000000000000004cb0e8d0a6cbb7e056f0c4c00364746e6d659db60000000000000000000000002b7fb7ca735ed85cf372f0febf305494058d73ca",
        "nonce": "0x876",
        "chainId": "0x14a34"
      },
      "additionalContracts": [],
      "isFixedGasLimit": false
    },
    {
      "hash": "0x4127f4fb3e78244edd36e289dc8f8003c7caececefaa7cb5d370304e28afada9",
      "transactionType": "CALL",
      "contractName": "RewardDistributor",
      "contractAddress": "0xcd96339b2d7a653b885d389d6c7752bc5e4fa43f",
      "function": "setAuthorizedUpdater(address,bool)",
      "arguments": [
        "0x3F0bE2F4b6b5db83632E84AA9B45AA9528A42E01",
        "true"
      ],
      "transaction": {
        "from": "0xa6b3d200cd34ca14d7579dac8b054bf50a62c37c",
        "to": "0xcd96339b2d7a653b885d389d6c7752bc5e4fa43f",
        "gas": "0xfbb6",
        "value": "0x0",
        "input": "0x99fc65d40000000000000000000000003f0be2f4b6b5db83632e84aa9b45aa9528a42e010000000000000000000000000000000000000000000000000000000000000001",
        "nonce": "0x877",
        "chainId": "0x14a34"
      },
      "additionalContracts": [],
      "isFixedGasLimit": false
    },
    {
      "hash": "0x763f9fececd4245d22d6b08ce8c1d79f13c108dd007d4dabe1ef8277d729c8e1",
      "transactionType": "CALL",
      "contractName": "RewardDistributor",
      "contractAddress": "0xcd96339b2d7a653b885d389d6c7752bc5e4fa43f",
      "function": "setAuthorizedUpdater(address,bool)",
      "arguments": [
        "0x4CB0E8D0a6CBb7e056f0c4C00364746E6D659Db6",
        "true"
      ],
      "transaction": {
        "from": "0xa6b3d200cd34ca14d7579dac8b054bf50a62c37c",
        "to": "0xcd96339b2d7a653b885d389d6c7752bc5e4fa43f",
        "gas": "0xfbb6",
        "value": "0x0",
        "input": "0x99fc65d40000000000000000000000004cb0e8d0a6cbb7e056f0c4c00364746e6d659db60000000000000000000000000000000000000000000000000000000000000001",
        "nonce": "0x878",
        "chainId": "0x14a34"
      },
      "additionalContracts": [],
      "isFixedGasLimit": false
    },
    {
      "hash": "0x9a91a37e0087cf923cde5702fad33c97a9bcbcdb136ef3f55b247890622a2958",
      "transactionType": "CALL",
      "contractName": "RewardDistributor",
      "contractAddress": "0xcd96339b2d7a653b885d389d6c7752bc5e4fa43f",
      "function": "setAuthorizedUpdater(address,bool)",
      "arguments": [
        "0x8185E0Bf3B3DbaF643d8AEc98A67E39A6A6Cf19C",
        "true"
      ],
      "transaction": {
        "from": "0xa6b3d200cd34ca14d7579dac8b054bf50a62c37c",
        "to": "0xcd96339b2d7a653b885d389d6c7752bc5e4fa43f",
        "gas": "0xfbb6",
        "value": "0x0",
        "input": "0x99fc65d40000000000000000000000008185e0bf3b3dbaf643d8aec98a67e39a6a6cf19c0000000000000000000000000000000000000000000000000000000000000001",
        "nonce": "0x879",
        "chainId": "0x14a34"
      },
      "additionalContracts": [],
      "isFixedGasLimit": false
    },
    {
      "hash": "0xaed6e943debddeee088492e0783a3f121fb9944c59b1b285db91cae7bf792931",
      "transactionType": "CALL",
      "contractName": "RewardDistributor",
      "contractAddress": "0xcd96339b2d7a653b885d389d6c7752bc5e4fa43f",
      "function": "setAuthorizedUpdater(address,bool)",
      "arguments": [
        "0x2B7fb7cA735Ed85Cf372f0FEbF305494058D73ca",
        "true"
      ],
      "transaction": {
        "from": "0xa6b3d200cd34ca14d7579dac8b054bf50a62c37c",
        "to": "0xcd96339b2d7a653b885d389d6c7752bc5e4fa43f",
        "gas": "0xfbb6",
        "value": "0x0",
        "input": "0x99fc65d40000000000000000000000002b7fb7ca735ed85cf372f0febf305494058d73ca0000000000000000000000000000000000000000000000000000000000000001",
        "nonce": "0x87a",
        "chainId": "0x14a34"
      },
      "additionalContracts": [],
      "isFixedGasLimit": false
    },
    {
      "hash": "0xec3aaad13fac72ea953bf96aa709a12c5924432cf9db27626149a18a0e1e2d7c",
      "transactionType": "CALL",
      "contractName": "RewardDistributor",
      "contractAddress": "0xcd96339b2d7a653b885d389d6c7752bc5e4fa43f",
      "function": "createRewardPool(bytes32,address,uint256)",
      "arguments": [
        "0x88ef8906c27d3e6af98ad7a5cf53c31a771fadb410370749ce5bf0cdb279c3b6",
        "0x4bcBDc0db8e522144D782c1b012B5ddc2149B427",
        "1000000000000000"
      ],
      "transaction": {
        "from": "0xa6b3d200cd34ca14d7579dac8b054bf50a62c37c",
        "to": "0xcd96339b2d7a653b885d389d6c7752bc5e4fa43f",
        "gas": "0x3c6ba",
        "value": "0x0",
        "input": "0x2636e8a088ef8906c27d3e6af98ad7a5cf53c31a771fadb410370749ce5bf0cdb279c3b60000000000000000000000004bcbdc0db8e522144d782c1b012b5ddc2149b42700000000000000000000000000000000000000000000000000038d7ea4c68000",
        "nonce": "0x87b",
        "chainId": "0x14a34"
      },
      "additionalContracts": [],
      "isFixedGasLimit": false
    },
    {
      "hash": "0x4fb730b5b3c6c940c5e1a377a601e783d91d3be957a7e38ecc499d360e3dad52",
      "transactionType": "CALL",
      "contractName": "RewardDistributor",
      "contractAddress": "0xcd96339b2d7a653b885d389d6c7752bc5e4fa43f",
      "function": "createRewardPool(bytes32,address,uint256)",
      "arguments": [
        "0x924cafe3f4668225141f2f2252ca17f67b629c2ff1426ac8ff340549f1266789",
        "0x4bcBDc0db8e522144D782c1b012B5ddc2149B427",
        "1000000000000000"
      ],
      "transaction": {
        "from": "0xa6b3d200cd34ca14d7579dac8b054bf50a62c37c",
        "to": "0xcd96339b2d7a653b885d389d6c7752bc5e4fa43f",
        "gas": "0x334c1",
        "value": "0x0",
        "input": "0x2636e8a0924cafe3f4668225141f2f2252ca17f67b629c2ff1426ac8ff340549f12667890000000000000000000000004bcbdc0db8e522144d782c1b012b5ddc2149b42700000000000000000000000000000000000000000000000000038d7ea4c68000",
        "nonce": "0x87c",
        "chainId": "0x14a34"
      },
      "additionalContracts": [],
      "isFixedGasLimit": false
    },
    {
      "hash": "0x445008ebe3145741b0b5a3fa997d3cf9a8d50b8e6e318018fd93cd38479debbd",
      "transactionType": "CALL",
      "contractName": "RewardDistributor",
      "contractAddress": "0xcd96339b2d7a653b885d389d6c7752bc5e4fa43f",
      "function": "createRewardPool(bytes32,address,uint256)",
      "arguments": [
        "0x870729ce323527c7d70de6e3b4d0cf8167c8b204a3f39d2c51d3c92ccebc3edc",
        "0x4bcBDc0db8e522144D782c1b012B5ddc2149B427",
        "1000000000000000"
      ],
      "transaction": {
        "from": "0xa6b3d200cd34ca14d7579dac8b054bf50a62c37c",
        "to": "0xcd96339b2d7a653b885d389d6c7752bc5e4fa43f",
        "gas": "0x334c1",
        "value": "0x0",
        "input": "0x2636e8a0870729ce323527c7d70de6e3b4d0cf8167c8b204a3f39d2c51d3c92ccebc3edc0000000000000000000000004bcbdc0db8e522144d782c1b012b5ddc2149b42700000000000000000000000000000000000000000000000000038d7ea4c68000",
        "nonce": "0x87d",
        "chainId": "0x14a34"
      },
      "additionalContracts": [],
      "isFixedGasLimit": false
    },
    {
      "hash": "0x2102237861c0584f89c1bd6a2a050fbd89111c4ccf7b6bab529199d2c49997d2",
      "transactionType": "CALL",
      "contractName": "RewardDistributor",
      "contractAddress": "0xcd96339b2d7a653b885d389d6c7752bc5e4fa43f",
      "function": "createRewardPool(bytes32,address,uint256)",
      "arguments": [
        "0x1887cd0d242fb25ce3889259bf747a4bc6ac3eb3fe083aa1d14c660f7a59c3e2",
        "0x4bcBDc0db8e522144D782c1b012B5ddc2149B427",
        "1000000000000000"
      ],
      "transaction": {
        "from": "0xa6b3d200cd34ca14d7579dac8b054bf50a62c37c",
        "to": "0xcd96339b2d7a653b885d389d6c7752bc5e4fa43f",
        "gas": "0x334c1",
        "value": "0x0",
        "input": "0x2636e8a01887cd0d242fb25ce3889259bf747a4bc6ac3eb3fe083aa1d14c660f7a59c3e20000000000000000000000004bcbdc0db8e522144d782c1b012b5ddc2149b42700000000000000000000000000000000000000000000000000038d7ea4c68000",
        "nonce": "0x87e",
        "chainId": "0x14a34"
      },
      "additionalContracts": [],
      "isFixedGasLimit": false
    },
    {
      "hash": "0x78ff191dc19fd24e39f248617d97c0737fee3adf7d0e0a4d89e1423769ef99a2",
      "transactionType": "CALL",
      "contractName": "RewardDistributor",
      "contractAddress": "0xcd96339b2d7a653b885d389d6c7752bc5e4fa43f",
      "function": "addRewards(bytes32,uint256)",
      "arguments": [
        "0x88ef8906c27d3e6af98ad7a5cf53c31a771fadb410370749ce5bf0cdb279c3b6",
        "10000000000000"
      ],
      "transaction": {
        "from": "0xa6b3d200cd34ca14d7579dac8b054bf50a62c37c",
        "to": "0xcd96339b2d7a653b885d389d6c7752bc5e4fa43f",
        "gas": "0x111fe",
        "value": "0x0",
        "input": "0x48f60dfd88ef8906c27d3e6af98ad7a5cf53c31a771fadb410370749ce5bf0cdb279c3b6000000000000000000000000000000000000000000000000000009184e72a000",
        "nonce": "0x87f",
        "chainId": "0x14a34"
      },
      "additionalContracts": [],
      "isFixedGasLimit": false
    },
    {
      "hash": "0x087ff5540622f2ddfd64c8c061eb11db5c720d2daa6f6302de226856563bea94",
      "transactionType": "CALL",
      "contractName": "RewardDistributor",
      "contractAddress": "0xcd96339b2d7a653b885d389d6c7752bc5e4fa43f",
      "function": "addRewards(bytes32,uint256)",
      "arguments": [
        "0x924cafe3f4668225141f2f2252ca17f67b629c2ff1426ac8ff340549f1266789",
        "10000000000000"
      ],
      "transaction": {
        "from": "0xa6b3d200cd34ca14d7579dac8b054bf50a62c37c",
        "to": "0xcd96339b2d7a653b885d389d6c7752bc5e4fa43f",
        "gas": "0x111fe",
        "value": "0x0",
        "input": "0x48f60dfd924cafe3f4668225141f2f2252ca17f67b629c2ff1426ac8ff340549f1266789000000000000000000000000000000000000000000000000000009184e72a000",
        "nonce": "0x880",
        "chainId": "0x14a34"
      },
      "additionalContracts": [],
      "isFixedGasLimit": false
    },
    {
      "hash": "0x6fdb6685907db48b066281905d6177aa994234245d8c6e79ae311003a79e691b",
      "transactionType": "CALL",
      "contractName": "RewardDistributor",
      "contractAddress": "0xcd96339b2d7a653b885d389d6c7752bc5e4fa43f",
      "function": "addRewards(bytes32,uint256)",
      "arguments": [
        "0x870729ce323527c7d70de6e3b4d0cf8167c8b204a3f39d2c51d3c92ccebc3edc",
        "10000000000000"
      ],
      "transaction": {
        "from": "0xa6b3d200cd34ca14d7579dac8b054bf50a62c37c",
        "to": "0xcd96339b2d7a653b885d389d6c7752bc5e4fa43f",
        "gas": "0x111fe",
        "value": "0x0",
        "input": "0x48f60dfd870729ce323527c7d70de6e3b4d0cf8167c8b204a3f39d2c51d3c92ccebc3edc000000000000000000000000000000000000000000000000000009184e72a000",
        "nonce": "0x881",
        "chainId": "0x14a34"
      },
      "additionalContracts": [],
      "isFixedGasLimit": false
    },
    {
      "hash": "0x212954b11a1015858e9c09b2b05c341646fbe6e05eff1a9a2b1747c9eebc1fda",
      "transactionType": "CALL",
      "contractName": "RewardDistributor",
      "contractAddress": "0xcd96339b2d7a653b885d389d6c7752bc5e4fa43f",
      "function": "addRewards(bytes32,uint256)",
      "arguments": [
        "0x1887cd0d242fb25ce3889259bf747a4bc6ac3eb3fe083aa1d14c660f7a59c3e2",
        "10000000000000"
      ],
      "transaction": {
        "from": "0xa6b3d200cd34ca14d7579dac8b054bf50a62c37c",
        "to": "0xcd96339b2d7a653b885d389d6c7752bc5e4fa43f",
        "gas": "0x111fe",
        "value": "0x0",
        "input": "0x48f60dfd1887cd0d242fb25ce3889259bf747a4bc6ac3eb3fe083aa1d14c660f7a59c3e2000000000000000000000000000000000000000000000000000009184e72a000",
        "nonce": "0x882",
        "chainId": "0x14a34"
      },
      "additionalContracts": [],
      "isFixedGasLimit": false
    }
  ],
  "receipts": [
    {
      "status": "0x1",
      "cumulativeGasUsed": "0x8f22f7",
      "logs": [
        {
          "address": "0xcd96339b2d7a653b885d389d6c7752bc5e4fa43f",
          "topics": [
            "0x8be0079c531659141344cd1fd0a4f28419497f9722a3daafe3b4186f6b6457e0",
            "0x0000000000000000000000000000000000000000000000000000000000000000",
            "0x000000000000000000000000a6b3d200cd34ca14d7579dac8b054bf50a62c37c"
          ],
          "data": "0x",
          "blockHash": "0x724a749ae3df854e48e08d1f9b7748207b66156cbe13a175feddd353e7d423e1",
          "blockNumber": "0x19d4932",
          "blockTimestamp": "0x684df144",
          "transactionHash": "0x21a78c0e1c824fffb6f60686a9ff4431a384537780224ce5ba07583f43b66487",
          "transactionIndex": "0x1c",
          "logIndex": "0x96",
          "removed": false
        }
      ],
      "logsBloom": "0x00000000000000000000000400000000000001000000000002800000000000000000000000000000000000000000000000000000000000000000000000000000000000000000000000000000000000000001000000000000000000000000000000000000020000000000000000020800000000000000000000000000000000400000000000000000000000000000000020000000000000000000000000000000000000000000000000000000000000000000000000000000000000000000000000000040000000000000000000000000000000000000000000000000000020000000000000000000000000000000000000000000000000000000000000000000",
      "type": "0x2",
      "transactionHash": "0x21a78c0e1c824fffb6f60686a9ff4431a384537780224ce5ba07583f43b66487",
      "transactionIndex": "0x1c",
      "blockHash": "0x724a749ae3df854e48e08d1f9b7748207b66156cbe13a175feddd353e7d423e1",
      "blockNumber": "0x19d4932",
      "gasUsed": "0x143860",
      "effectiveGasPrice": "0x37ea",
      "from": "0xa6b3d200cd34ca14d7579dac8b054bf50a62c37c",
      "to": null,
      "contractAddress": "0xcd96339b2d7a653b885d389d6c7752bc5e4fa43f",
      "l1BaseFeeScalar": "0x44d",
      "l1BlobBaseFee": "0x1",
      "l1BlobBaseFeeScalar": "0xa118b",
      "l1Fee": "0x15fc095",
      "l1GasPrice": "0x5f297",
      "l1GasUsed": "0xd1cf"
    },
    {
      "status": "0x1",
      "cumulativeGasUsed": "0x8fdbe6",
      "logs": [
        {
          "address": "0xcd96339b2d7a653b885d389d6c7752bc5e4fa43f",
          "topics": [
            "0x1be038705a495dd627af47e6738a26c370e9ee5df6e53f67515bd987c64d0fdd"
          ],
          "data": "0x0000000000000000000000004bcbdc0db8e522144d782c1b012b5ddc2149b427",
          "blockHash": "0x724a749ae3df854e48e08d1f9b7748207b66156cbe13a175feddd353e7d423e1",
          "blockNumber": "0x19d4932",
          "blockTimestamp": "0x684df144",
          "transactionHash": "0xc0d9a9a54aa139b64984c6da1e4304e7a21fc7fb1d0fdbcbb1878ce71410601b",
          "transactionIndex": "0x1d",
          "logIndex": "0x97",
          "removed": false
        }
      ],
      "logsBloom": "0x00000000000000000000000000000200000001000000000000000000000000000000000000000000000000000000000000000000000000000000000000000000000000000000000000000000000000000000000000000000000000000000000000000000000000000000000000020000000000000000000000000000000000000000000000000000000000000000000020000000000000000000000000040000000000000000000000000000000000000000000000000800000000000000000000000000000000000000000000000000000000000000000000000000000000000000000000000000000000000000000000000000000000000000000000000000",
      "type": "0x2",
      "transactionHash": "0xc0d9a9a54aa139b64984c6da1e4304e7a21fc7fb1d0fdbcbb1878ce71410601b",
      "transactionIndex": "0x1d",
      "blockHash": "0x724a749ae3df854e48e08d1f9b7748207b66156cbe13a175feddd353e7d423e1",
      "blockNumber": "0x19d4932",
      "gasUsed": "0xb8ef",
      "effectiveGasPrice": "0x37ea",
      "from": "0xa6b3d200cd34ca14d7579dac8b054bf50a62c37c",
      "to": "0xcd96339b2d7a653b885d389d6c7752bc5e4fa43f",
      "contractAddress": null,
      "l1BaseFeeScalar": "0x44d",
      "l1BlobBaseFee": "0x1",
      "l1BlobBaseFeeScalar": "0xa118b",
      "l1Fee": "0xa7a73",
      "l1GasPrice": "0x5f297",
      "l1GasUsed": "0x640"
    },
    {
      "status": "0x1",
      "cumulativeGasUsed": "0x909705",
      "logs": [
        {
          "address": "0x4bcbdc0db8e522144d782c1b012b5ddc2149b427",
          "topics": [
            "0xb21afb9ce9be0a676f8f317ff0ca072fb89a4f8ce2d1b6fe80f8755c14f1cb19"
          ],
          "data": "0x000000000000000000000000cd96339b2d7a653b885d389d6c7752bc5e4fa43f0000000000000000000000000000000000000000000000000000000000000001",
          "blockHash": "0x724a749ae3df854e48e08d1f9b7748207b66156cbe13a175feddd353e7d423e1",
          "blockNumber": "0x19d4932",
          "blockTimestamp": "0x684df144",
          "transactionHash": "0x5227be0f1d23dfc0567002736393490d4d8acf6fa7cf433cbb8e54f39868be09",
          "transactionIndex": "0x1e",
          "logIndex": "0x98",
          "removed": false
        }
      ],
      "logsBloom": "0x00000000000000000000000010000000000000000000000000000000000000000000000000000000000000000020000000000000000000040000000000000080000000000000000000000000000000000001000000000000000000000000000000000000000000000000000000000000000000000000000000000000000000000000000000000000000000000000000000000000000000000000200000000000000000000000000000000000000000000000000000000000000000000000000000000000000000000000000000000000000000000000000000000000000000000000000000000000000000000000000000000000000000000000000000000000",
      "type": "0x2",
      "transactionHash": "0x5227be0f1d23dfc0567002736393490d4d8acf6fa7cf433cbb8e54f39868be09",
      "transactionIndex": "0x1e",
      "blockHash": "0x724a749ae3df854e48e08d1f9b7748207b66156cbe13a175feddd353e7d423e1",
      "blockNumber": "0x19d4932",
      "gasUsed": "0xbb1f",
      "effectiveGasPrice": "0x37ea",
      "from": "0xa6b3d200cd34ca14d7579dac8b054bf50a62c37c",
      "to": "0x4bcbdc0db8e522144d782c1b012b5ddc2149b427",
      "contractAddress": null,
      "l1BaseFeeScalar": "0x44d",
      "l1BlobBaseFee": "0x1",
      "l1BlobBaseFeeScalar": "0xa118b",
      "l1Fee": "0xa7a73",
      "l1GasPrice": "0x5f297",
      "l1GasUsed": "0x640"
    },
    {
      "status": "0x1",
      "cumulativeGasUsed": "0x925385",
      "logs": [],
      "logsBloom": "0x00000000000000000000000000000000000000000000000000000000000000000000000000000000000000000000000000000000000000000000000000000000000000000000000000000000000000000000000000000000000000000000000000000000000000000000000000000000000000000000000000000000000000000000000000000000000000000000000000000000000000000000000000000000000000000000000000000000000000000000000000000000000000000000000000000000000000000000000000000000000000000000000000000000000000000000000000000000000000000000000000000000000000000000000000000000",
      "type": "0x2",
      "transactionHash": "0xd301f0ea1968f2e6c0835dcf8cfcb2392ebce2baed8829822b8f19f87e5b6648",
      "transactionIndex": "0x1f",
      "blockHash": "0x724a749ae3df854e48e08d1f9b7748207b66156cbe13a175feddd353e7d423e1",
      "blockNumber": "0x19d4932",
      "gasUsed": "0x1bc80",
      "effectiveGasPrice": "0x37ea",
      "from": "0xa6b3d200cd34ca14d7579dac8b054bf50a62c37c",
      "to": "0xcd96339b2d7a653b885d389d6c7752bc5e4fa43f",
      "contractAddress": null,
      "l1BaseFeeScalar": "0x44d",
      "l1BlobBaseFee": "0x1",
      "l1BlobBaseFeeScalar": "0xa118b",
      "l1Fee": "0xeff0e",
      "l1GasPrice": "0x5f297",
      "l1GasUsed": "0x8f1"
    },
    {
      "status": "0x1",
      "cumulativeGasUsed": "0x9309c2",
      "logs": [],
      "logsBloom": "0x00000000000000000000000000000000000000000000000000000000000000000000000000000000000000000000000000000000000000000000000000000000000000000000000000000000000000000000000000000000000000000000000000000000000000000000000000000000000000000000000000000000000000000000000000000000000000000000000000000000000000000000000000000000000000000000000000000000000000000000000000000000000000000000000000000000000000000000000000000000000000000000000000000000000000000000000000000000000000000000000000000000000000000000000000000000",
      "type": "0x2",
      "transactionHash": "0x4127f4fb3e78244edd36e289dc8f8003c7caececefaa7cb5d370304e28afada9",
      "transactionIndex": "0x20",
      "blockHash": "0x724a749ae3df854e48e08d1f9b7748207b66156cbe13a175feddd353e7d423e1",
      "blockNumber": "0x19d4932",
      "gasUsed": "0xb63d",
      "effectiveGasPrice": "0x37ea",
      "from": "0xa6b3d200cd34ca14d7579dac8b054bf50a62c37c",
      "to": "0xcd96339b2d7a653b885d389d6c7752bc5e4fa43f",
      "contractAddress": null,
      "l1BaseFeeScalar": "0x44d",
      "l1BlobBaseFee": "0x1",
      "l1BlobBaseFeeScalar": "0xa118b",
      "l1Fee": "0xa7a73",
      "l1GasPrice": "0x5f297",
      "l1GasUsed": "0x640"
    },
    {
      "status": "0x1",
      "cumulativeGasUsed": "0x93bfff",
      "logs": [],
      "logsBloom": "0x00000000000000000000000000000000000000000000000000000000000000000000000000000000000000000000000000000000000000000000000000000000000000000000000000000000000000000000000000000000000000000000000000000000000000000000000000000000000000000000000000000000000000000000000000000000000000000000000000000000000000000000000000000000000000000000000000000000000000000000000000000000000000000000000000000000000000000000000000000000000000000000000000000000000000000000000000000000000000000000000000000000000000000000000000000000",
      "type": "0x2",
      "transactionHash": "0x763f9fececd4245d22d6b08ce8c1d79f13c108dd007d4dabe1ef8277d729c8e1",
      "transactionIndex": "0x21",
      "blockHash": "0x724a749ae3df854e48e08d1f9b7748207b66156cbe13a175feddd353e7d423e1",
      "blockNumber": "0x19d4932",
      "gasUsed": "0xb63d",
      "effectiveGasPrice": "0x37ea",
      "from": "0xa6b3d200cd34ca14d7579dac8b054bf50a62c37c",
      "to": "0xcd96339b2d7a653b885d389d6c7752bc5e4fa43f",
      "contractAddress": null,
      "l1BaseFeeScalar": "0x44d",
      "l1BlobBaseFee": "0x1",
      "l1BlobBaseFeeScalar": "0xa118b",
      "l1Fee": "0xa7a73",
      "l1GasPrice": "0x5f297",
      "l1GasUsed": "0x640"
    },
    {
      "status": "0x1",
      "cumulativeGasUsed": "0x94763c",
      "logs": [],
      "logsBloom": "0x00000000000000000000000000000000000000000000000000000000000000000000000000000000000000000000000000000000000000000000000000000000000000000000000000000000000000000000000000000000000000000000000000000000000000000000000000000000000000000000000000000000000000000000000000000000000000000000000000000000000000000000000000000000000000000000000000000000000000000000000000000000000000000000000000000000000000000000000000000000000000000000000000000000000000000000000000000000000000000000000000000000000000000000000000000000",
      "type": "0x2",
      "transactionHash": "0x9a91a37e0087cf923cde5702fad33c97a9bcbcdb136ef3f55b247890622a2958",
      "transactionIndex": "0x22",
      "blockHash": "0x724a749ae3df854e48e08d1f9b7748207b66156cbe13a175feddd353e7d423e1",
      "blockNumber": "0x19d4932",
      "gasUsed": "0xb63d",
      "effectiveGasPrice": "0x37ea",
      "from": "0xa6b3d200cd34ca14d7579dac8b054bf50a62c37c",
      "to": "0xcd96339b2d7a653b885d389d6c7752bc5e4fa43f",
      "contractAddress": null,
      "l1BaseFeeScalar": "0x44d",
      "l1BlobBaseFee": "0x1",
      "l1BlobBaseFeeScalar": "0xa118b",
      "l1Fee": "0xa7a73",
      "l1GasPrice": "0x5f297",
      "l1GasUsed": "0x640"
    },
    {
      "status": "0x1",
      "cumulativeGasUsed": "0xa092b8",
      "logs": [],
      "logsBloom": "0x00000000000000000000000000000000000000000000000000000000000000000000000000000000000000000000000000000000000000000000000000000000000000000000000000000000000000000000000000000000000000000000000000000000000000000000000000000000000000000000000000000000000000000000000000000000000000000000000000000000000000000000000000000000000000000000000000000000000000000000000000000000000000000000000000000000000000000000000000000000000000000000000000000000000000000000000000000000000000000000000000000000000000000000000000000000",
      "type": "0x2",
      "transactionHash": "0xaed6e943debddeee088492e0783a3f121fb9944c59b1b285db91cae7bf792931",
      "transactionIndex": "0x28",
      "blockHash": "0xaaa196444b17b54c3d905efa0a3d3c2cbca66150a5b9bd7a285b919e1169b579",
      "blockNumber": "0x19d4932",
      "gasUsed": "0xb63d",
      "effectiveGasPrice": "0x37b5",
      "from": "0xa6b3d200cd34ca14d7579dac8b054bf50a62c37c",
      "to": "0xcd96339b2d7a653b885d389d6c7752bc5e4fa43f",
      "contractAddress": null,
      "l1BaseFeeScalar": "0x44d",
      "l1BlobBaseFee": "0x1",
      "l1BlobBaseFeeScalar": "0xa118b",
      "l1Fee": "0xa7a73",
      "l1GasPrice": "0x5f297",
      "l1GasUsed": "0x640"
    },
    {
      "status": "0x1",
      "cumulativeGasUsed": "0xa327bb",
      "logs": [
        {
          "address": "0xcd96339b2d7a653b885d389d6c7752bc5e4fa43f",
          "topics": [
            "0x908210fc0149379fe25f26a14ba6965e58ae6f8b5e8bb5e1f4586b323fd79b67",
            "0x88ef8906c27d3e6af98ad7a5cf53c31a771fadb410370749ce5bf0cdb279c3b6"
          ],
          "data": "0x0000000000000000000000004bcbdc0db8e522144d782c1b012b5ddc2149b42700000000000000000000000000000000000000000000000000038d7ea4c680000000000000000000000000000000000000000000000000000000000000000001",
          "blockHash": "0xaaa196444b17b54c3d905efa0a3d3c2cbca66150a5b9bd7a285b919e1169b579",
          "blockNumber": "0x19d4932",
          "transactionHash": "0xec3aaad13fac72ea953bf96aa709a12c5924432cf9db27626149a18a0e1e2d7c",
          "transactionIndex": "0x29",
          "logIndex": "0xac",
          "removed": false
        }
      ],
      "logsBloom": "0x20000000000000000000000000000000000001000000000000000000000010000000000000000000000000000000000000000000000000000000000000000000000000000000000000000000000000000000000000000000200000000000000000000000000000000000000000020000000000000000000000000000000000000000000800000000000000000000000020000000000000000000000000000000000000000000000000000000000000000000000000000000000000000000000200000000000000000000000000000000000000000000000000000000000000000000000000000000400000000000000000000000000000000000000000000000",
      "type": "0x2",
      "transactionHash": "0xec3aaad13fac72ea953bf96aa709a12c5924432cf9db27626149a18a0e1e2d7c",
      "transactionIndex": "0x29",
      "blockHash": "0xaaa196444b17b54c3d905efa0a3d3c2cbca66150a5b9bd7a285b919e1169b579",
      "blockNumber": "0x19d4932",
      "gasUsed": "0x29503",
      "effectiveGasPrice": "0x37b5",
      "from": "0xa6b3d200cd34ca14d7579dac8b054bf50a62c37c",
      "to": "0xcd96339b2d7a653b885d389d6c7752bc5e4fa43f",
      "contractAddress": null,
      "l1BaseFeeScalar": "0x44d",
      "l1BlobBaseFee": "0x1",
      "l1BlobBaseFeeScalar": "0xa118b",
      "l1Fee": "0xc5de4",
      "l1GasPrice": "0x5f297",
      "l1GasUsed": "0x760"
    },
    {
      "status": "0x1",
      "cumulativeGasUsed": "0xa579f2",
      "logs": [
        {
          "address": "0xcd96339b2d7a653b885d389d6c7752bc5e4fa43f",
          "topics": [
            "0x908210fc0149379fe25f26a14ba6965e58ae6f8b5e8bb5e1f4586b323fd79b67",
            "0x924cafe3f4668225141f2f2252ca17f67b629c2ff1426ac8ff340549f1266789"
          ],
          "data": "0x0000000000000000000000004bcbdc0db8e522144d782c1b012b5ddc2149b42700000000000000000000000000000000000000000000000000038d7ea4c680000000000000000000000000000000000000000000000000000000000000000001",
          "blockHash": "0xaaa196444b17b54c3d905efa0a3d3c2cbca66150a5b9bd7a285b919e1169b579",
          "blockNumber": "0x19d4932",
          "transactionHash": "0x4fb730b5b3c6c940c5e1a377a601e783d91d3be957a7e38ecc499d360e3dad52",
          "transactionIndex": "0x2a",
          "logIndex": "0xad",
          "removed": false
        }
      ],
      "logsBloom": "0x00000000000000000000000000000000000001000000000000000000000010000000000000000000000000000000000000000000000000000000000000000000000000000000000000000000000000000000000000000000000000000000000000000000000000000000000000020000000000000000000000000000000000000000000000000000000000000000000020000000000000000000000000000000000000000000008000000000000000000000000000000000000000000000000200000000000000000000000000000000000000000000000000000020000000000000080000000000400000000000000000000000000000000000000000000000",
      "type": "0x2",
      "transactionHash": "0x4fb730b5b3c6c940c5e1a377a601e783d91d3be957a7e38ecc499d360e3dad52",
      "transactionIndex": "0x2a",
      "blockHash": "0xaaa196444b17b54c3d905efa0a3d3c2cbca66150a5b9bd7a285b919e1169b579",
      "blockNumber": "0x19d4932",
      "gasUsed": "0x25237",
      "effectiveGasPrice": "0x37b5",
      "from": "0xa6b3d200cd34ca14d7579dac8b054bf50a62c37c",
      "to": "0xcd96339b2d7a653b885d389d6c7752bc5e4fa43f",
      "contractAddress": null,
      "l1BaseFeeScalar": "0x44d",
      "l1BlobBaseFee": "0x1",
      "l1BlobBaseFeeScalar": "0xa118b",
      "l1Fee": "0xc5de4",
      "l1GasPrice": "0x5f297",
      "l1GasUsed": "0x760"
    },
    {
      "status": "0x1",
      "cumulativeGasUsed": "0xa7cc29",
      "logs": [
        {
          "address": "0xcd96339b2d7a653b885d389d6c7752bc5e4fa43f",
          "topics": [
            "0x908210fc0149379fe25f26a14ba6965e58ae6f8b5e8bb5e1f4586b323fd79b67",
            "0x870729ce323527c7d70de6e3b4d0cf8167c8b204a3f39d2c51d3c92ccebc3edc"
          ],
          "data": "0x0000000000000000000000004bcbdc0db8e522144d782c1b012b5ddc2149b42700000000000000000000000000000000000000000000000000038d7ea4c680000000000000000000000000000000000000000000000000000000000000000001",
          "blockHash": "0xaaa196444b17b54c3d905efa0a3d3c2cbca66150a5b9bd7a285b919e1169b579",
          "blockNumber": "0x19d4932",
          "transactionHash": "0x445008ebe3145741b0b5a3fa997d3cf9a8d50b8e6e318018fd93cd38479debbd",
          "transactionIndex": "0x2b",
          "logIndex": "0xae",
          "removed": false
        }
      ],
      "logsBloom": "0x00000000000000000000000000000000000001000000000000000000000010000000000000000000000000000000000000000000000000000000000000000000000000000000000000000000000000000000000000000000000000000000000000000000000000000000000000020000000000000000000000000000000000000000000000000000000000000000000020000000000000000000000000000000000000000000000000000000000000000000000000000000000010400000000200000000000000000000000000000000000000000000002000000000000000000000000000000000400000000000000000000000000000000000000000000000",
      "type": "0x2",
      "transactionHash": "0x445008ebe3145741b0b5a3fa997d3cf9a8d50b8e6e318018fd93cd38479debbd",
      "transactionIndex": "0x2b",
      "blockHash": "0xaaa196444b17b54c3d905efa0a3d3c2cbca66150a5b9bd7a285b919e1169b579",
      "blockNumber": "0x19d4932",
      "gasUsed": "0x25237",
      "effectiveGasPrice": "0x37b5",
      "from": "0xa6b3d200cd34ca14d7579dac8b054bf50a62c37c",
      "to": "0xcd96339b2d7a653b885d389d6c7752bc5e4fa43f",
      "contractAddress": null,
      "l1BaseFeeScalar": "0x44d",
      "l1BlobBaseFee": "0x1",
      "l1BlobBaseFeeScalar": "0xa118b",
      "l1Fee": "0xc5de4",
      "l1GasPrice": "0x5f297",
      "l1GasUsed": "0x760"
    },
    {
      "status": "0x1",
      "cumulativeGasUsed": "0xaa1e60",
      "logs": [
        {
          "address": "0xcd96339b2d7a653b885d389d6c7752bc5e4fa43f",
          "topics": [
            "0x908210fc0149379fe25f26a14ba6965e58ae6f8b5e8bb5e1f4586b323fd79b67",
            "0x1887cd0d242fb25ce3889259bf747a4bc6ac3eb3fe083aa1d14c660f7a59c3e2"
          ],
          "data": "0x0000000000000000000000004bcbdc0db8e522144d782c1b012b5ddc2149b42700000000000000000000000000000000000000000000000000038d7ea4c680000000000000000000000000000000000000000000000000000000000000000001",
          "blockHash": "0xaaa196444b17b54c3d905efa0a3d3c2cbca66150a5b9bd7a285b919e1169b579",
          "blockNumber": "0x19d4932",
          "transactionHash": "0x2102237861c0584f89c1bd6a2a050fbd89111c4ccf7b6bab529199d2c49997d2",
          "transactionIndex": "0x2c",
          "logIndex": "0xaf",
          "removed": false
        }
      ],
      "logsBloom": "0x00000000000000000000000000000000000001000000000000000000000010000000000000000000000000000000000004000000000000000000000000000000000000000000000000000000000000000000000000000000000000000000000000000000000000000000000000020000000000000000000000000000000000000000000000000000000000000000000020000000000000002000000000000000000000000000000000000000000000000000000000000000000000000000000200000000000000000000000000000000000000000000000000000000000000000000000000000000400000000000080000000000000000000000000000000000",
      "type": "0x2",
      "transactionHash": "0x2102237861c0584f89c1bd6a2a050fbd89111c4ccf7b6bab529199d2c49997d2",
      "transactionIndex": "0x2c",
      "blockHash": "0xaaa196444b17b54c3d905efa0a3d3c2cbca66150a5b9bd7a285b919e1169b579",
      "blockNumber": "0x19d4932",
      "gasUsed": "0x25237",
      "effectiveGasPrice": "0x37b5",
      "from": "0xa6b3d200cd34ca14d7579dac8b054bf50a62c37c",
      "to": "0xcd96339b2d7a653b885d389d6c7752bc5e4fa43f",
      "contractAddress": null,
      "l1BaseFeeScalar": "0x44d",
      "l1BlobBaseFee": "0x1",
      "l1BlobBaseFeeScalar": "0xa118b",
      "l1Fee": "0xc5de4",
      "l1GasPrice": "0x5f297",
      "l1GasUsed": "0x760"
    },
    {
      "status": "0x1",
      "cumulativeGasUsed": "0xaad9b9",
      "logs": [
        {
          "address": "0xcd96339b2d7a653b885d389d6c7752bc5e4fa43f",
          "topics": [
            "0x603c893fe5a7abb065fd37be5d74b7570a708f31c5b02b409779f57f8ab59788",
            "0x88ef8906c27d3e6af98ad7a5cf53c31a771fadb410370749ce5bf0cdb279c3b6"
          ],
          "data": "0x000000000000000000000000000000000000000000000000000009184e72a000",
          "blockHash": "0xaaa196444b17b54c3d905efa0a3d3c2cbca66150a5b9bd7a285b919e1169b579",
          "blockNumber": "0x19d4932",
          "transactionHash": "0x78ff191dc19fd24e39f248617d97c0737fee3adf7d0e0a4d89e1423769ef99a2",
          "transactionIndex": "0x2d",
          "logIndex": "0xb0",
          "removed": false
        }
      ],
      "logsBloom": "0x20000000000000000000000000000000000001000000000000000000200000000000000000000000000000000000000000000000000000000000000000000000000000000000000000000000000000000000000000000000200000000000000000000080000000000000000000030000000000000000000000000000000000000000000800000000000000000000000020000000000000000000000000000000000000000000000000000000000000000000000000000000000000000000000000000000000000000000000000000000000000000000000000000000000000000000000000000000000000000000000000000000000000000000000000000000",
      "type": "0x2",
      "transactionHash": "0x78ff191dc19fd24e39f248617d97c0737fee3adf7d0e0a4d89e1423769ef99a2",
      "transactionIndex": "0x2d",
      "blockHash": "0xaaa196444b17b54c3d905efa0a3d3c2cbca66150a5b9bd7a285b919e1169b579",
      "blockNumber": "0x19d4932",
      "gasUsed": "0xbb59",
      "effectiveGasPrice": "0x37b5",
      "from": "0xa6b3d200cd34ca14d7579dac8b054bf50a62c37c",
      "to": "0xcd96339b2d7a653b885d389d6c7752bc5e4fa43f",
      "contractAddress": null,
      "l1BaseFeeScalar": "0x44d",
      "l1BlobBaseFee": "0x1",
      "l1BlobBaseFeeScalar": "0xa118b",
      "l1Fee": "0xa7a73",
      "l1GasPrice": "0x5f297",
      "l1GasUsed": "0x640"
    },
    {
      "status": "0x1",
      "cumulativeGasUsed": "0xab9512",
      "logs": [
        {
          "address": "0xcd96339b2d7a653b885d389d6c7752bc5e4fa43f",
          "topics": [
            "0x603c893fe5a7abb065fd37be5d74b7570a708f31c5b02b409779f57f8ab59788",
            "0x924cafe3f4668225141f2f2252ca17f67b629c2ff1426ac8ff340549f1266789"
          ],
          "data": "0x000000000000000000000000000000000000000000000000000009184e72a000",
          "blockHash": "0x3b1a2077c2b09cc2d3722deb50d686ab6291138e9a26061f1e0a319acf65afd2",
          "blockNumber": "0x19d4932",
          "blockTimestamp": "0x684df144",
          "transactionHash": "0x087ff5540622f2ddfd64c8c061eb11db5c720d2daa6f6302de226856563bea94",
          "transactionIndex": "0x2e",
          "logIndex": "0xb1",
          "removed": false
        }
      ],
      "logsBloom": "0x00000000000000000000000000000000000001000000000000000000200000000000000000000000000000000000000000000000000000000000000000000000000000000000000000000000000000000000000000000000000000000000000000000080000000000000000000030000000000000000000000000000000000000000000000000000000000000000000020000000000000000000000000000000000000000000008000000000000000000000000000000000000000000000000000000000000000000000000000000000000000000000000000000020000000000000080000000000000000000000000000000000000000000000000000000000",
      "type": "0x2",
      "transactionHash": "0x087ff5540622f2ddfd64c8c061eb11db5c720d2daa6f6302de226856563bea94",
      "transactionIndex": "0x2e",
      "blockHash": "0x3b1a2077c2b09cc2d3722deb50d686ab6291138e9a26061f1e0a319acf65afd2",
      "blockNumber": "0x19d4932",
      "gasUsed": "0xbb59",
      "effectiveGasPrice": "0x37ea",
      "from": "0xa6b3d200cd34ca14d7579dac8b054bf50a62c37c",
      "to": "0xcd96339b2d7a653b885d389d6c7752bc5e4fa43f",
      "contractAddress": null,
      "l1BaseFeeScalar": "0x44d",
      "l1BlobBaseFee": "0x1",
      "l1BlobBaseFeeScalar": "0xa118b",
      "l1Fee": "0xa7a73",
      "l1GasPrice": "0x5f297",
      "l1GasUsed": "0x640"
    },
    {
      "status": "0x1",
      "cumulativeGasUsed": "0x13b349",
      "logs": [
        {
          "address": "0xcd96339b2d7a653b885d389d6c7752bc5e4fa43f",
          "topics": [
            "0x603c893fe5a7abb065fd37be5d74b7570a708f31c5b02b409779f57f8ab59788",
            "0x870729ce323527c7d70de6e3b4d0cf8167c8b204a3f39d2c51d3c92ccebc3edc"
          ],
          "data": "0x000000000000000000000000000000000000000000000000000009184e72a000",
          "blockHash": "0xea3232e81867daa1a52a2c8a56c6d19b2102f4abca8263ce21b351743135f8e1",
          "blockNumber": "0x19d4933",
          "blockTimestamp": "0x684df146",
          "transactionHash": "0x6fdb6685907db48b066281905d6177aa994234245d8c6e79ae311003a79e691b",
          "transactionIndex": "0x8",
          "logIndex": "0x22",
          "removed": false
        }
      ],
      "logsBloom": "0x00000000000000000000000000000000000001000000000000000000200000000000000000000000000000000000000000000000000000000000000000000000000000000000000000000000000000000000000000000000000000000000000000000080000000000000000000030000000000000000000000000000000000000000000000000000000000000000000020000000000000000000000000000000000000000000000000000000000000000000000000000000000010400000000000000000000000000000000000000000000000000000002000000000000000000000000000000000000000000000000000000000000000000000000000000000",
      "type": "0x2",
      "transactionHash": "0x6fdb6685907db48b066281905d6177aa994234245d8c6e79ae311003a79e691b",
      "transactionIndex": "0x8",
      "blockHash": "0xea3232e81867daa1a52a2c8a56c6d19b2102f4abca8263ce21b351743135f8e1",
      "blockNumber": "0x19d4933",
      "gasUsed": "0xbb59",
      "effectiveGasPrice": "0x37ea",
      "from": "0xa6b3d200cd34ca14d7579dac8b054bf50a62c37c",
      "to": "0xcd96339b2d7a653b885d389d6c7752bc5e4fa43f",
      "contractAddress": null,
      "l1BaseFeeScalar": "0x44d",
      "l1BlobBaseFee": "0x1",
      "l1BlobBaseFeeScalar": "0xa118b",
      "l1Fee": "0xa7a73",
      "l1GasPrice": "0x5f297",
      "l1GasUsed": "0x640"
    },
    {
      "status": "0x1",
      "cumulativeGasUsed": "0x146ea2",
      "logs": [
        {
          "address": "0xcd96339b2d7a653b885d389d6c7752bc5e4fa43f",
          "topics": [
            "0x603c893fe5a7abb065fd37be5d74b7570a708f31c5b02b409779f57f8ab59788",
            "0x1887cd0d242fb25ce3889259bf747a4bc6ac3eb3fe083aa1d14c660f7a59c3e2"
          ],
          "data": "0x000000000000000000000000000000000000000000000000000009184e72a000",
          "blockHash": "0xea3232e81867daa1a52a2c8a56c6d19b2102f4abca8263ce21b351743135f8e1",
          "blockNumber": "0x19d4933",
          "blockTimestamp": "0x684df146",
          "transactionHash": "0x212954b11a1015858e9c09b2b05c341646fbe6e05eff1a9a2b1747c9eebc1fda",
          "transactionIndex": "0x9",
          "logIndex": "0x23",
          "removed": false
        }
      ],
      "logsBloom": "0x00000000000000000000000000000000000001000000000000000000200000000000000000000000000000000000000004000000000000000000000000000000000000000000000000000000000000000000000000000000000000000000000000000080000000000000000000030000000000000000000000000000000000000000000000000000000000000000000020000000000000002000000000000000000000000000000000000000000000000000000000000000000000000000000000000000000000000000000000000000000000000000000000000000000000000000000000000000000000000000080000000000000000000000000000000000",
      "type": "0x2",
      "transactionHash": "0x212954b11a1015858e9c09b2b05c341646fbe6e05eff1a9a2b1747c9eebc1fda",
      "transactionIndex": "0x9",
      "blockHash": "0xea3232e81867daa1a52a2c8a56c6d19b2102f4abca8263ce21b351743135f8e1",
      "blockNumber": "0x19d4933",
      "gasUsed": "0xbb59",
      "effectiveGasPrice": "0x37ea",
      "from": "0xa6b3d200cd34ca14d7579dac8b054bf50a62c37c",
      "to": "0xcd96339b2d7a653b885d389d6c7752bc5e4fa43f",
      "contractAddress": null,
      "l1BaseFeeScalar": "0x44d",
      "l1BlobBaseFee": "0x1",
      "l1BlobBaseFeeScalar": "0xa118b",
      "l1Fee": "0xa7a73",
      "l1GasPrice": "0x5f297",
      "l1GasUsed": "0x640"
    }
  ],
  "libraries": [],
  "pending": [],
  "returns": {},
  "timestamp": 1749938502,
  "chain": 84532,
  "commit": "bbff0ba"
}