{
  "transactions": [
    {
      "hash": "0xe6e58e2422d1e1db867648a8d1fd61ef20e2417cea9b107156451fa565899866",
      "transactionType": "CREATE",
      "contractName": "RewardDistributor",
      "contractAddress": "0xaf8219fc3eeba4c1b64d1284569b93b3e479a3fa",
      "function": null,
      "arguments": null,
      "transaction": {
        "from": "0xa6b3d200cd34ca14d7579dac8b054bf50a62c37c",
        "gas": "0x193fcc",
        "value": "0x0",
        "input": "0x608080604052346071573315605e575f8054336001600160a01b0319821681178355916001600160a01b03909116907f8be0079c531659141344cd1fd0a4f28419497f9722a3daafe3b4186f6b6457e09080a361159490816100768239f35b631e4fbdf760e01b5f525f60045260245ffd5b5f80fdfe6080806040526004361015610012575f80fd5b5f905f3560e01c908162f9643414610ff45750806309f2c01914610f305780630b36db1514610d7e578063179aae8814610d565780632073de5c14610cd057806323be345c14610ca85780632636e8a014610a91578063274ee475146109dc578063312e109c146108d757806348f60dfd146107d75780634e210544146107af57806368b2c40c1461073b57806369883b4e14610703578063715018a6146106ac5780637790ddc6146105105780638209ec50146104585780638da5cb5b146104315780638ff29cfe146103f25780639002392e1461038b57806395ccea671461035257806399fc65d4146102f5578063b79f12b2146102cc578063bb13c3cb146102a3578063d88ff1f4146101ed578063ec01da10146101c35763f2fde38b1461013b575f80fd5b346101c05760203660031901126101c057610154611121565b61015c6113e9565b6001600160a01b031680156101ac5781546001600160a01b03198116821783556001600160a01b03167f8be0079c531659141344cd1fd0a4f28419497f9722a3daafe3b4186f6b6457e08380a380f35b631e4fbdf760e01b82526004829052602482fd5b80fd5b50346101c05760203660031901126101c05760406020916004358152600483522054604051908152f35b50346101c057806003193601126101c05760405180602060025491828152018091600285527f405787fa12a823e0f2b7631cc41b3ba8828b3321ca811111fa75cd3aa3bb5ace90855b81811061028d575050508261024c9103836111b2565b604051928392602084019060208552518091526040840192915b818110610274575050500390f35b8251845285945060209384019390920191600101610266565b8254845260209093019260019283019201610236565b50346101c057806003193601126101c057600a546040516001600160a01b039091168152602090f35b50346101c057806003193601126101c0576006546040516001600160a01b039091168152602090f35b50346101c05760403660031901126101c05761030f611121565b602435801515810361034e5761034b916103276113e9565b60018060a01b031683526005602052604083209060ff801983541691151516179055565b80f35b8280fd5b50346101c05760403660031901126101c05761034b61036f611121565b6103776113e9565b6024359033906001600160a01b031661140f565b50346101c05760403660031901126101c05760406103a761110b565b9160043581526003602052209060018060a01b03165f52602052608060405f208054906001810154906003600282015491015491604051938452602084015260408301526060820152f35b50346101c05760203660031901126101c05760209060ff906040906001600160a01b0361041d611121565b168152600584522054166040519015158152f35b50346101c057806003193601126101c057546040516001600160a01b039091168152602090f35b50346101c05760203660031901126101c057610472611121565b61047a6113e9565b6001600160a01b031680156104cb576020817f1be038705a495dd627af47e6738a26c370e9ee5df6e53f67515bd987c64d0fdd926001600160601b0360a01b600a541617600a55604051908152a180f35b60405162461bcd60e51b815260206004820152601a60248201527f496e76616c69642056434f5020746f6b656e20616464726573730000000000006044820152606490fd5b50346106395760203660031901126106395760043561052f3382611319565b5f81815260036020908152604080832033845290915290206001018054919082610557578380f35b5f9055805f52600160205260405f2060028101610575848254611208565b90558260ff600683015460081c1680610693575b156106775750600a546001600160a01b03161561063d57546001600160a01b0316803b15610639576040516340c10f1960e01b815233600482015260248101849052905f908290604490829084905af1801561062e57610619575b505b6040519182527ffec539b3c42d74cd492c3ecf7966bf014b327beef98e935cdc3ec5e54a6901c760203393a35f80808380f35b6106269193505f906111b2565b5f915f6105e4565b6040513d5f823e3d90fd5b5f80fd5b60405162461bcd60e51b81526020600482015260126024820152711590d3d4081d1bdad95b881b9bdd081cd95d60721b6044820152606490fd5b905461068e919033906001600160a01b031661140f565b6105e6565b508154600a546001600160a01b03908116911614610589565b34610639575f366003190112610639576106c46113e9565b5f80546001600160a01b0319811682556001600160a01b03167f8be0079c531659141344cd1fd0a4f28419497f9722a3daafe3b4186f6b6457e08280a3005b34610639576020366003190112610639576004356002548110156106395761072c60209161114d565b90549060031b1c604051908152f35b346106395760207facefc4a7d159e33f5c2d6facc53467d06090e50ccfa880ef241dc1d1a9200f6c61076c36611137565b6107779391936113e9565b835f526001825260405f2061078b85611215565b6005820155600442910155835f526001825280600360405f200155604051908152a2005b34610639575f366003190112610639576008546040516001600160a01b039091168152602090f35b34610639576107e536611137565b815f52600160205260405f2060068101549160ff8316156108a057600160209260ff7f603c893fe5a7abb065fd37be5d74b7570a708f31c5b02b409779f57f8ab597889560081c165f1461084b570161083f828254611208565b90555b604051908152a2005b61088d828060a01b03825416604051906323b872dd60e01b87830152336024830152306044830152856064830152606482526108886084836111b2565b61144d565b01610899828254611208565b9055610842565b60405162461bcd60e51b815260206004820152600f60248201526e506f6f6c206e6f742061637469766560881b6044820152606490fd5b346106395760403660031901126106395761097c6004356108f661110b565b90805f52600360205260405f2060018060a01b0383165f52602052602060405f20926040519261092584611196565b845484526001850154838501526002850154604080860182905260039096015460609095019485529451623e590d60e21b815260048101919091526001600160a01b03909116602482015293849081906044820190565b0381305afa90811561062e575f916109a7575b60609350519060405192835260208301526040820152f35b90506020833d6020116109d4575b816109c2602093836111b2565b8101031261063957606092519061098f565b3d91506109b5565b34610639576080366003190112610639576109f5611121565b6109fd61110b565b6044356001600160a01b0381169190829003610639576064356001600160a01b038116939084900361063957610a316113e9565b60018060a01b03166001600160601b0360a01b600654161760065560018060a01b03166001600160601b0360a01b60075416176007556001600160601b0360a01b60085416176008556001600160601b0360a01b60095416176009555f80f35b3461063957606036600319011261063957600435610aad61110b565b60443590610ab96113e9565b5f838152600160205260409020546001600160a01b0316610c6d576001600160a01b03168015610c315760018060a01b03600a5416811490604051610afd81611179565b818152602081015f8152610b98600660408401935f8552606081018881526080820142815260a08301915f835260c08401976001895260e08501978b89528d5f52600160205260405f209560018060a01b039051166001600160601b0360a01b8754161786555160018601555160028501555160038401555160048301555160058201550192511515839060ff801983541691151516179055565b51815461ff00191690151560081b61ff00161790556002549168010000000000000000831015610c1d577f908210fc0149379fe25f26a14ba6965e58ae6f8b5e8bb5e1f4586b323fd79b6793610bf68460016060960160025561114d565b81549060031b9088821b915f19901b191617905560405192835260208301526040820152a2005b634e487b7160e01b5f52604160045260245ffd5b60405162461bcd60e51b815260206004820152601460248201527324b73b30b634b2103932bbb0b932103a37b5b2b760611b6044820152606490fd5b60405162461bcd60e51b8152602060048201526013602482015272506f6f6c20616c72656164792065786973747360681b6044820152606490fd5b34610639575f366003190112610639576009546040516001600160a01b039091168152602090f35b34610639576020366003190112610639576004355f52600160205261010060405f2060ff60018060a01b0382541691600181015490600281015460038201546004830154916006600585015494015494604051978852602088015260408701526060860152608085015260a0840152818116151560c084015260081c16151560e0820152f35b34610639575f366003190112610639576007546040516001600160a01b039091168152602090f35b3461063957608036600319011261063957600435610d9a61110b565b9060443591606435908115159182810361063957335f52600560205260ff60405f20541615610efa57610dcd8285611319565b5f8481526003602090815260408083206001600160a01b038616845290915290209015610e6357907f9f0a7aaf8d18c024e8123bdcd157b0f6e0f42892a4ea14a2becc88a320a799229282600260409401610e29888254611208565b9055855f526004602052835f20610e41888254611208565b90555b4260039190910155825195865260208601526001600160a01b031693a3005b906002820192835492868410610ec0577f9f0a7aaf8d18c024e8123bdcd157b0f6e0f42892a4ea14a2becc88a320a7992294610ea1886040966111d4565b9055855f526004602052835f20610eb98882546111d4565b9055610e44565b60405162461bcd60e51b8152602060048201526012602482015271496e73756666696369656e74207374616b6560701b6044820152606490fd5b60405162461bcd60e51b815260206004820152600e60248201526d139bdd08185d5d1a1bdc9a5e995960921b6044820152606490fd5b346106395760203660031901126106395760c0600435805f52600160205260405f2090604051610f5f81611179565b60018060a01b0383541692838252600181015492836020840152600282015490816040850152600660038401549384606087015260048101546080870152600581015460a087015201549360e060ff898301968181161515885260081c1615159101525f52600460205260405f20549251151593604051958652602086015260408501526060840152608083015260a0820152f35b34610639576040366003190112610639576111036020916004359061101761110b565b90825f526001855260e060ff600660405f2061103285611179565b60018060a01b038154168552600181015489860152600281015460408601526003810154606086015260048101546080860152600581015460a08601520154818116151560c085015260081c161515910152815f526003845260405f209060018060a01b03165f528352670de0b6b3a76400006110fa60405f206110f4604051916110bc83611196565b805483526110ea60018201549689850197885260036002840154936040870194855201546060860152611215565b90519251906111d4565b906111f5565b04905190611208565b604051908152f35b602435906001600160a01b038216820361063957565b600435906001600160a01b038216820361063957565b6040906003190112610639576004359060243590565b6002548110156111655760025f5260205f2001905f90565b634e487b7160e01b5f52603260045260245ffd5b610100810190811067ffffffffffffffff821117610c1d57604052565b6080810190811067ffffffffffffffff821117610c1d57604052565b90601f8019910116810190811067ffffffffffffffff821117610c1d57604052565b919082039182116111e157565b634e487b7160e01b5f52601160045260245ffd5b818102929181159184041417156111e157565b919082018092116111e157565b805f52600160205260405f206040519061122e82611179565b60018060a01b0381541682526001810154602083015260028101546040830152600381015490606083019182526004810154926080810193845260e060ff600660058501549460a085019586520154818116151560c085015260081c161515910152835f52600460205260405f20541561131157906112b36112bb92519351426111d4565b9051906111f5565b91670de0b6b3a7640000830292808404670de0b6b3a764000014901517156111e1575f52600460205260405f205480156112fd576112fa920490611208565b90565b634e487b7160e01b5f52601260045260245ffd5b925050505190565b90815f52600160205260405f209061133083611215565b60058301908155426004909301929092556001600160a01b03811661135457505050565b5f8381526003602090815260408083206001600160a01b0394909416808452938252918290209151623e590d60e21b815260048101959095526024850192909252929081604481305afa90811561062e575f916113b7575b506001830155549055565b90506020813d6020116113e1575b816113d2602093836111b2565b8101031261063957515f6113ac565b3d91506113c5565b5f546001600160a01b031633036113fc57565b63118cdaa760e01b5f523360045260245ffd5b60405163a9059cbb60e01b60208201526001600160a01b0392909216602483015260448083019390935291815261144b916108886064836111b2565b565b81516001600160a01b03909116915f91829160200182855af13d156114f4573d67ffffffffffffffff8111610c1d576114a891604051916114986020601f19601f84011601846111b2565b82523d5f602084013e5b83611500565b80519081151591826114d0575b50506114be5750565b635274afe760e01b5f5260045260245ffd5b81925090602091810103126106395760200151801590811503610639575f806114b5565b6114a8906060906114a2565b90611524575080511561151557805190602001fd5b630a12f52160e11b5f5260045ffd5b81511580611555575b611535575090565b639996b31560e01b5f9081526001600160a01b0391909116600452602490fd5b50803b1561152d56fea26469706673582212209987b3ac7502db1a40843750357848946a35174124e424c6729b3b600a0b9b5264736f6c634300081a0033",
        "nonce": "0xd9f",
        "chainId": "0x14a34"
      },
      "additionalContracts": [],
      "isFixedGasLimit": false
    },
    {
      "hash": "0xde0a01f2ea4c566a30230024ac38fe6db109de093fe1ef4f6b10726706649ff0",
      "transactionType": "CALL",
      "contractName": "RewardDistributor",
      "contractAddress": "0xaf8219fc3eeba4c1b64d1284569b93b3e479a3fa",
      "function": "setVCOPToken(address)",
      "arguments": [
        "0x07b7381ba3b0f30a847ed290c8313c2B3c5B29d3"
      ],
      "transaction": {
        "from": "0xa6b3d200cd34ca14d7579dac8b054bf50a62c37c",
        "to": "0xaf8219fc3eeba4c1b64d1284569b93b3e479a3fa",
        "gas": "0x10e7b",
        "value": "0x0",
        "input": "0x8209ec5000000000000000000000000007b7381ba3b0f30a847ed290c8313c2b3c5b29d3",
        "nonce": "0xda0",
        "chainId": "0x14a34"
      },
      "additionalContracts": [],
      "isFixedGasLimit": false
    },
    {
      "hash": "0x947d1f5da9a0cb13fac873b54571ff771ba3f93e0df3a47e9b14698f72aa6f06",
      "transactionType": "CALL",
      "contractName": null,
      "contractAddress": "0x07b7381ba3b0f30a847ed290c8313c2b3c5b29d3",
      "function": "setMinter(address,bool)",
      "arguments": [
        "0xaf8219FC3EebA4c1b64d1284569b93B3E479A3FA",
        "true"
      ],
      "transaction": {
        "from": "0xa6b3d200cd34ca14d7579dac8b054bf50a62c37c",
        "to": "0x07b7381ba3b0f30a847ed290c8313c2b3c5b29d3",
        "gas": "0x10267",
        "value": "0x0",
        "input": "0xcf456ae7000000000000000000000000af8219fc3eeba4c1b64d1284569b93b3e479a3fa0000000000000000000000000000000000000000000000000000000000000001",
        "nonce": "0xda1",
        "chainId": "0x14a34"
      },
      "additionalContracts": [],
      "isFixedGasLimit": false
    },
    {
      "hash": "0xc8d7717dfc4335ca7975cbda7cf7ef46209bf829e319049587bd9802daa5d1d7",
      "transactionType": "CALL",
      "contractName": "RewardDistributor",
      "contractAddress": "0xaf8219fc3eeba4c1b64d1284569b93b3e479a3fa",
      "function": "setProtocolComponents(address,address,address,address)",
      "arguments": [
        "0x6af317d838CF7F2E07A0e0C9974D2Faa5dE1E51d",
        "0x32b8bbDF4827cb91748eea84f3b1095d6f936096",
        "0xFcEFB29436323ABc3dE96B210E93Fe954080fB89",
        "0x5fa22aebEEed8de99C65233A8072018F5Cb68b4C"
      ],
      "transaction": {
        "from": "0xa6b3d200cd34ca14d7579dac8b054bf50a62c37c",
        "to": "0xaf8219fc3eeba4c1b64d1284569b93b3e479a3fa",
        "gas": "0x26617",
        "value": "0x0",
        "input": "0x274ee4750000000000000000000000006af317d838cf7f2e07a0e0c9974d2faa5de1e51d00000000000000000000000032b8bbdf4827cb91748eea84f3b1095d6f936096000000000000000000000000fcefb29436323abc3de96b210e93fe954080fb890000000000000000000000005fa22aebeeed8de99c65233a8072018f5cb68b4c",
        "nonce": "0xda2",
        "chainId": "0x14a34"
      },
      "additionalContracts": [],
      "isFixedGasLimit": false
    },
    {
      "hash": "0xabe4318133009ff275668d57ec2a3139dd00c37e7d25b7e70b1a74884443b952",
      "transactionType": "CALL",
      "contractName": "RewardDistributor",
      "contractAddress": "0xaf8219fc3eeba4c1b64d1284569b93b3e479a3fa",
      "function": "setAuthorizedUpdater(address,bool)",
      "arguments": [
        "0x32b8bbDF4827cb91748eea84f3b1095d6f936096",
        "true"
      ],
      "transaction": {
        "from": "0xa6b3d200cd34ca14d7579dac8b054bf50a62c37c",
        "to": "0xaf8219fc3eeba4c1b64d1284569b93b3e479a3fa",
        "gas": "0xfbb6",
        "value": "0x0",
        "input": "0x99fc65d400000000000000000000000032b8bbdf4827cb91748eea84f3b1095d6f9360960000000000000000000000000000000000000000000000000000000000000001",
        "nonce": "0xda3",
        "chainId": "0x14a34"
      },
      "additionalContracts": [],
      "isFixedGasLimit": false
    },
    {
      "hash": "0xdcef7f84ff10b972331384387b2a16b6ae32d0f2edbe15f23f8424548a2a8e38",
      "transactionType": "CALL",
      "contractName": "RewardDistributor",
      "contractAddress": "0xaf8219fc3eeba4c1b64d1284569b93b3e479a3fa",
      "function": "setAuthorizedUpdater(address,bool)",
      "arguments": [
        "0xFcEFB29436323ABc3dE96B210E93Fe954080fB89",
        "true"
      ],
      "transaction": {
        "from": "0xa6b3d200cd34ca14d7579dac8b054bf50a62c37c",
        "to": "0xaf8219fc3eeba4c1b64d1284569b93b3e479a3fa",
        "gas": "0xfbb6",
        "value": "0x0",
        "input": "0x99fc65d4000000000000000000000000fcefb29436323abc3de96b210e93fe954080fb890000000000000000000000000000000000000000000000000000000000000001",
        "nonce": "0xda4",
        "chainId": "0x14a34"
      },
      "additionalContracts": [],
      "isFixedGasLimit": false
    },
    {
      "hash": "0xff4085b88a25930ab779eb410477fe2ea82d92f062ef31674a07557717d821ea",
      "transactionType": "CALL",
      "contractName": "RewardDistributor",
      "contractAddress": "0xaf8219fc3eeba4c1b64d1284569b93b3e479a3fa",
      "function": "setAuthorizedUpdater(address,bool)",
      "arguments": [
        "0x6af317d838CF7F2E07A0e0C9974D2Faa5dE1E51d",
        "true"
      ],
      "transaction": {
        "from": "0xa6b3d200cd34ca14d7579dac8b054bf50a62c37c",
        "to": "0xaf8219fc3eeba4c1b64d1284569b93b3e479a3fa",
        "gas": "0xfbb6",
        "value": "0x0",
        "input": "0x99fc65d40000000000000000000000006af317d838cf7f2e07a0e0c9974d2faa5de1e51d0000000000000000000000000000000000000000000000000000000000000001",
        "nonce": "0xda5",
        "chainId": "0x14a34"
      },
      "additionalContracts": [],
      "isFixedGasLimit": false
    },
    {
      "hash": "0xc6e4a3f7b55835f04d81c3c74f99e83ee46eb11ccdf22c1ea69c388e12a176de",
      "transactionType": "CALL",
      "contractName": "RewardDistributor",
      "contractAddress": "0xaf8219fc3eeba4c1b64d1284569b93b3e479a3fa",
      "function": "setAuthorizedUpdater(address,bool)",
      "arguments": [
        "0x5fa22aebEEed8de99C65233A8072018F5Cb68b4C",
        "true"
      ],
      "transaction": {
        "from": "0xa6b3d200cd34ca14d7579dac8b054bf50a62c37c",
        "to": "0xaf8219fc3eeba4c1b64d1284569b93b3e479a3fa",
        "gas": "0xfbb6",
        "value": "0x0",
        "input": "0x99fc65d40000000000000000000000005fa22aebeeed8de99c65233a8072018f5cb68b4c0000000000000000000000000000000000000000000000000000000000000001",
        "nonce": "0xda6",
        "chainId": "0x14a34"
      },
      "additionalContracts": [],
      "isFixedGasLimit": false
    },
    {
      "hash": "0x3a633757bbe679826d439bb0ed59144e48a2b9be7be06e4bf287a289417d9982",
      "transactionType": "CALL",
      "contractName": "RewardDistributor",
      "contractAddress": "0xaf8219fc3eeba4c1b64d1284569b93b3e479a3fa",
      "function": "createRewardPool(bytes32,address,uint256)",
      "arguments": [
        "0x88ef8906c27d3e6af98ad7a5cf53c31a771fadb410370749ce5bf0cdb279c3b6",
        "0x07b7381ba3b0f30a847ed290c8313c2B3c5B29d3",
        "1000000000000000"
      ],
      "transaction": {
        "from": "0xa6b3d200cd34ca14d7579dac8b054bf50a62c37c",
        "to": "0xaf8219fc3eeba4c1b64d1284569b93b3e479a3fa",
        "gas": "0x39112",
        "value": "0x0",
        "input": "0x2636e8a088ef8906c27d3e6af98ad7a5cf53c31a771fadb410370749ce5bf0cdb279c3b600000000000000000000000007b7381ba3b0f30a847ed290c8313c2b3c5b29d300000000000000000000000000000000000000000000000000038d7ea4c68000",
        "nonce": "0xda7",
        "chainId": "0x14a34"
      },
      "additionalContracts": [],
      "isFixedGasLimit": false
    },
    {
      "hash": "0xb395e9bccc4c8d806866c6390d6f127d46f952b09ca13525c5c1d270dd1ad2b4",
      "transactionType": "CALL",
      "contractName": "RewardDistributor",
      "contractAddress": "0xaf8219fc3eeba4c1b64d1284569b93b3e479a3fa",
      "function": "createRewardPool(bytes32,address,uint256)",
      "arguments": [
        "0x924cafe3f4668225141f2f2252ca17f67b629c2ff1426ac8ff340549f1266789",
        "0x07b7381ba3b0f30a847ed290c8313c2B3c5B29d3",
        "1000000000000000"
      ],
      "transaction": {
        "from": "0xa6b3d200cd34ca14d7579dac8b054bf50a62c37c",
        "to": "0xaf8219fc3eeba4c1b64d1284569b93b3e479a3fa",
        "gas": "0x36518",
        "value": "0x0",
        "input": "0x2636e8a0924cafe3f4668225141f2f2252ca17f67b629c2ff1426ac8ff340549f126678900000000000000000000000007b7381ba3b0f30a847ed290c8313c2b3c5b29d300000000000000000000000000000000000000000000000000038d7ea4c68000",
        "nonce": "0xda8",
        "chainId": "0x14a34"
      },
      "additionalContracts": [],
      "isFixedGasLimit": false
    },
    {
      "hash": "0xc0a748305a3bb2c0f8394997c46c543796f1bf517e40f772e8ea655db32970ce",
      "transactionType": "CALL",
      "contractName": "RewardDistributor",
      "contractAddress": "0xaf8219fc3eeba4c1b64d1284569b93b3e479a3fa",
      "function": "createRewardPool(bytes32,address,uint256)",
      "arguments": [
        "0x870729ce323527c7d70de6e3b4d0cf8167c8b204a3f39d2c51d3c92ccebc3edc",
        "0x07b7381ba3b0f30a847ed290c8313c2B3c5B29d3",
        "1000000000000000"
      ],
      "transaction": {
        "from": "0xa6b3d200cd34ca14d7579dac8b054bf50a62c37c",
        "to": "0xaf8219fc3eeba4c1b64d1284569b93b3e479a3fa",
        "gas": "0x36518",
        "value": "0x0",
        "input": "0x2636e8a0870729ce323527c7d70de6e3b4d0cf8167c8b204a3f39d2c51d3c92ccebc3edc00000000000000000000000007b7381ba3b0f30a847ed290c8313c2b3c5b29d300000000000000000000000000000000000000000000000000038d7ea4c68000",
        "nonce": "0xda9",
        "chainId": "0x14a34"
      },
      "additionalContracts": [],
      "isFixedGasLimit": false
    },
    {
      "hash": "0x33d9f276d5555cba0d122397b6269180f39596c50a2d93c8eacc6ebc519120f8",
      "transactionType": "CALL",
      "contractName": "RewardDistributor",
      "contractAddress": "0xaf8219fc3eeba4c1b64d1284569b93b3e479a3fa",
      "function": "createRewardPool(bytes32,address,uint256)",
      "arguments": [
        "0x1887cd0d242fb25ce3889259bf747a4bc6ac3eb3fe083aa1d14c660f7a59c3e2",
        "0x07b7381ba3b0f30a847ed290c8313c2B3c5B29d3",
        "1000000000000000"
      ],
      "transaction": {
        "from": "0xa6b3d200cd34ca14d7579dac8b054bf50a62c37c",
        "to": "0xaf8219fc3eeba4c1b64d1284569b93b3e479a3fa",
        "gas": "0x36518",
        "value": "0x0",
        "input": "0x2636e8a01887cd0d242fb25ce3889259bf747a4bc6ac3eb3fe083aa1d14c660f7a59c3e200000000000000000000000007b7381ba3b0f30a847ed290c8313c2b3c5b29d300000000000000000000000000000000000000000000000000038d7ea4c68000",
        "nonce": "0xdaa",
        "chainId": "0x14a34"
      },
      "additionalContracts": [],
      "isFixedGasLimit": false
    },
    {
      "hash": "0xcb85a180a6f110d15a4db0cf25a600aefb5ee4e4e86a61b08f79ba15c4ea1817",
      "transactionType": "CALL",
      "contractName": "RewardDistributor",
      "contractAddress": "0xaf8219fc3eeba4c1b64d1284569b93b3e479a3fa",
      "function": "addRewards(bytes32,uint256)",
      "arguments": [
        "0x88ef8906c27d3e6af98ad7a5cf53c31a771fadb410370749ce5bf0cdb279c3b6",
        "10000000000000"
      ],
      "transaction": {
        "from": "0xa6b3d200cd34ca14d7579dac8b054bf50a62c37c",
        "to": "0xaf8219fc3eeba4c1b64d1284569b93b3e479a3fa",
        "gas": "0x111fe",
        "value": "0x0",
        "input": "0x48f60dfd88ef8906c27d3e6af98ad7a5cf53c31a771fadb410370749ce5bf0cdb279c3b6000000000000000000000000000000000000000000000000000009184e72a000",
        "nonce": "0xdab",
        "chainId": "0x14a34"
      },
      "additionalContracts": [],
      "isFixedGasLimit": false
    },
    {
      "hash": "0x1e3f56013e67ae23c02b2214c54aba026f5fe83a70404f5f781f52ecbd780ebd",
      "transactionType": "CALL",
      "contractName": "RewardDistributor",
      "contractAddress": "0xaf8219fc3eeba4c1b64d1284569b93b3e479a3fa",
      "function": "addRewards(bytes32,uint256)",
      "arguments": [
        "0x924cafe3f4668225141f2f2252ca17f67b629c2ff1426ac8ff340549f1266789",
        "10000000000000"
      ],
      "transaction": {
        "from": "0xa6b3d200cd34ca14d7579dac8b054bf50a62c37c",
        "to": "0xaf8219fc3eeba4c1b64d1284569b93b3e479a3fa",
        "gas": "0x111fe",
        "value": "0x0",
        "input": "0x48f60dfd924cafe3f4668225141f2f2252ca17f67b629c2ff1426ac8ff340549f1266789000000000000000000000000000000000000000000000000000009184e72a000",
        "nonce": "0xdac",
        "chainId": "0x14a34"
      },
      "additionalContracts": [],
      "isFixedGasLimit": false
    },
    {
      "hash": "0xcaf7afb072db4c0c0ec2e2465e2c224bc77801c8c57db9d258f4e41385963976",
      "transactionType": "CALL",
      "contractName": "RewardDistributor",
      "contractAddress": "0xaf8219fc3eeba4c1b64d1284569b93b3e479a3fa",
      "function": "addRewards(bytes32,uint256)",
      "arguments": [
        "0x870729ce323527c7d70de6e3b4d0cf8167c8b204a3f39d2c51d3c92ccebc3edc",
        "10000000000000"
      ],
      "transaction": {
        "from": "0xa6b3d200cd34ca14d7579dac8b054bf50a62c37c",
        "to": "0xaf8219fc3eeba4c1b64d1284569b93b3e479a3fa",
        "gas": "0x111fe",
        "value": "0x0",
        "input": "0x48f60dfd870729ce323527c7d70de6e3b4d0cf8167c8b204a3f39d2c51d3c92ccebc3edc000000000000000000000000000000000000000000000000000009184e72a000",
        "nonce": "0xdad",
        "chainId": "0x14a34"
      },
      "additionalContracts": [],
      "isFixedGasLimit": false
    },
    {
      "hash": "0x3af9fc244118f721553631b2d346b14bb05f102be629af599e88cd0adb118a2d",
      "transactionType": "CALL",
      "contractName": "RewardDistributor",
      "contractAddress": "0xaf8219fc3eeba4c1b64d1284569b93b3e479a3fa",
      "function": "addRewards(bytes32,uint256)",
      "arguments": [
        "0x1887cd0d242fb25ce3889259bf747a4bc6ac3eb3fe083aa1d14c660f7a59c3e2",
        "10000000000000"
      ],
      "transaction": {
        "from": "0xa6b3d200cd34ca14d7579dac8b054bf50a62c37c",
        "to": "0xaf8219fc3eeba4c1b64d1284569b93b3e479a3fa",
        "gas": "0x111fe",
        "value": "0x0",
        "input": "0x48f60dfd1887cd0d242fb25ce3889259bf747a4bc6ac3eb3fe083aa1d14c660f7a59c3e2000000000000000000000000000000000000000000000000000009184e72a000",
        "nonce": "0xdae",
        "chainId": "0x14a34"
      },
      "additionalContracts": [],
      "isFixedGasLimit": false
    }
  ],
  "receipts": [
    {
      "status": "0x1",
      "cumulativeGasUsed": "0x272ff2",
      "logs": [
        {
          "address": "0xaf8219fc3eeba4c1b64d1284569b93b3e479a3fa",
          "topics": [
            "0x8be0079c531659141344cd1fd0a4f28419497f9722a3daafe3b4186f6b6457e0",
            "0x0000000000000000000000000000000000000000000000000000000000000000",
            "0x000000000000000000000000a6b3d200cd34ca14d7579dac8b054bf50a62c37c"
          ],
          "data": "0x",
          "blockHash": "0xd2ef90287a096632b6cba00b68d6ce3b4700c8d67b4bcfb4a9195a33824ffb89",
          "blockNumber": "0x19ec169",
          "transactionHash": "0xe6e58e2422d1e1db867648a8d1fd61ef20e2417cea9b107156451fa565899866",
          "transactionIndex": "0x6",
          "logIndex": "0x37",
          "removed": false
        }
      ],
      "logsBloom": "0x00000000000000000000000400000000000000400000000002800000000000000000000000000000000000000000000000000000000000000000000000000000000000000000000000000000000000000001000000000000000000000000000000000000020000000000000000000800400000000000000000000000000000400000000000000000000000000000000000000000000000000000000000000000000000000000000000000000000000000000000000000000000000000000000000000040000000000800000000000000000000000000000000000000000020000000000000000000000000000000000000000000000000000000000000000000",
      "type": "0x2",
      "transactionHash": "0xe6e58e2422d1e1db867648a8d1fd61ef20e2417cea9b107156451fa565899866",
      "transactionIndex": "0x6",
      "blockHash": "0xd2ef90287a096632b6cba00b68d6ce3b4700c8d67b4bcfb4a9195a33824ffb89",
      "blockNumber": "0x19ec169",
      "gasUsed": "0x136c27",
      "effectiveGasPrice": "0x4ce62",
      "from": "0xa6b3d200cd34ca14d7579dac8b054bf50a62c37c",
      "to": null,
      "contractAddress": "0xaf8219fc3eeba4c1b64d1284569b93b3e479a3fa",
      "l1BaseFeeScalar": "0x44d",
      "l1BlobBaseFee": "0x1",
      "l1BlobBaseFeeScalar": "0xa118b",
      "l1Fee": "0x2da944b",
      "l1GasPrice": "0xc238d",
      "l1GasUsed": "0xd585"
    },
    {
      "status": "0x1",
      "cumulativeGasUsed": "0x27e8e4",
      "logs": [
        {
          "address": "0xaf8219fc3eeba4c1b64d1284569b93b3e479a3fa",
          "topics": [
            "0x1be038705a495dd627af47e6738a26c370e9ee5df6e53f67515bd987c64d0fdd"
          ],
          "data": "0x00000000000000000000000007b7381ba3b0f30a847ed290c8313c2b3c5b29d3",
          "blockHash": "0xd2ef90287a096632b6cba00b68d6ce3b4700c8d67b4bcfb4a9195a33824ffb89",
          "blockNumber": "0x19ec169",
          "transactionHash": "0xde0a01f2ea4c566a30230024ac38fe6db109de093fe1ef4f6b10726706649ff0",
          "transactionIndex": "0x7",
          "logIndex": "0x38",
          "removed": false
        }
      ],
      "logsBloom": "0x00000000000000000000000000000200000000400000000000000000000000000000000000000000000000000000000000000000000000000000000000000000000000000000000000000000000000000000000000000000000000000000000000000000000000000000000000000000400000000000000000000000000000000000000000000000000000000000000000000000000000000000000000040000000000000000000000000000000000000000000000000800000000000000000000000000000000000800000000000000000000000000000000000000000000000000000000000000000000000000000000000000000000000000000000000000",
      "type": "0x2",
      "transactionHash": "0xde0a01f2ea4c566a30230024ac38fe6db109de093fe1ef4f6b10726706649ff0",
      "transactionIndex": "0x7",
      "blockHash": "0xd2ef90287a096632b6cba00b68d6ce3b4700c8d67b4bcfb4a9195a33824ffb89",
      "blockNumber": "0x19ec169",
      "gasUsed": "0xb8f2",
      "effectiveGasPrice": "0x4ce62",
      "from": "0xa6b3d200cd34ca14d7579dac8b054bf50a62c37c",
      "to": "0xaf8219fc3eeba4c1b64d1284569b93b3e479a3fa",
      "contractAddress": null,
      "l1BaseFeeScalar": "0x44d",
      "l1BlobBaseFee": "0x1",
      "l1BlobBaseFeeScalar": "0xa118b",
      "l1Fee": "0x156284",
      "l1GasPrice": "0xc238d",
      "l1GasUsed": "0x640"
    },
    {
      "status": "0x1",
      "cumulativeGasUsed": "0x28a3f9",
      "logs": [
        {
          "address": "0x07b7381ba3b0f30a847ed290c8313c2b3c5b29d3",
          "topics": [
            "0xb21afb9ce9be0a676f8f317ff0ca072fb89a4f8ce2d1b6fe80f8755c14f1cb19"
          ],
          "data": "0x000000000000000000000000af8219fc3eeba4c1b64d1284569b93b3e479a3fa0000000000000000000000000000000000000000000000000000000000000001",
          "blockHash": "0xd2ef90287a096632b6cba00b68d6ce3b4700c8d67b4bcfb4a9195a33824ffb89",
          "blockNumber": "0x19ec169",
          "transactionHash": "0x947d1f5da9a0cb13fac873b54571ff771ba3f93e0df3a47e9b14698f72aa6f06",
          "transactionIndex": "0x8",
          "logIndex": "0x39",
          "removed": false
        }
      ],
      "logsBloom": "0x00000000000000000000000000000000000000000000000000000000000000000000000000000000000000000000000000000000000100040000000000000080000000000000000001000000000000000000000000000000000000000000000000000000000000000000000000000000000000000000000000000000000000000000000000000000000000000080000000000000000000000000200000000000000000000000000000000000000000000000000000000000000000000000000000000000000000000000000000000000000000000000000000000000000000000000000000000000000000000000000000000000000000000000000000000000",
      "type": "0x2",
      "transactionHash": "0x947d1f5da9a0cb13fac873b54571ff771ba3f93e0df3a47e9b14698f72aa6f06",
      "transactionIndex": "0x8",
      "blockHash": "0xd2ef90287a096632b6cba00b68d6ce3b4700c8d67b4bcfb4a9195a33824ffb89",
      "blockNumber": "0x19ec169",
      "gasUsed": "0xbb15",
      "effectiveGasPrice": "0x4ce62",
      "from": "0xa6b3d200cd34ca14d7579dac8b054bf50a62c37c",
      "to": "0x07b7381ba3b0f30a847ed290c8313c2b3c5b29d3",
      "contractAddress": null,
      "l1BaseFeeScalar": "0x44d",
      "l1BlobBaseFee": "0x1",
      "l1BlobBaseFeeScalar": "0xa118b",
      "l1Fee": "0x156284",
      "l1GasPrice": "0xc238d",
      "l1GasUsed": "0x640"
    },
    {
      "status": "0x1",
      "cumulativeGasUsed": "0x2a6091",
      "logs": [],
      "logsBloom": "0x00000000000000000000000000000000000000000000000000000000000000000000000000000000000000000000000000000000000000000000000000000000000000000000000000000000000000000000000000000000000000000000000000000000000000000000000000000000000000000000000000000000000000000000000000000000000000000000000000000000000000000000000000000000000000000000000000000000000000000000000000000000000000000000000000000000000000000000000000000000000000000000000000000000000000000000000000000000000000000000000000000000000000000000000000000000",
      "type": "0x2",
      "transactionHash": "0xc8d7717dfc4335ca7975cbda7cf7ef46209bf829e319049587bd9802daa5d1d7",
      "transactionIndex": "0x9",
      "blockHash": "0xd2ef90287a096632b6cba00b68d6ce3b4700c8d67b4bcfb4a9195a33824ffb89",
      "blockNumber": "0x19ec169",
      "gasUsed": "0x1bc98",
      "effectiveGasPrice": "0x4ce62",
      "from": "0xa6b3d200cd34ca14d7579dac8b054bf50a62c37c",
      "to": "0xaf8219fc3eeba4c1b64d1284569b93b3e479a3fa",
      "contractAddress": null,
      "l1BaseFeeScalar": "0x44d",
      "l1BlobBaseFee": "0x1",
      "l1BlobBaseFeeScalar": "0xa118b",
      "l1Fee": "0x1ef694",
      "l1GasPrice": "0xc238d",
      "l1GasUsed": "0x90c"
    },
    {
      "status": "0x1",
      "cumulativeGasUsed": "0x2b16ce",
      "logs": [],
      "logsBloom": "0x00000000000000000000000000000000000000000000000000000000000000000000000000000000000000000000000000000000000000000000000000000000000000000000000000000000000000000000000000000000000000000000000000000000000000000000000000000000000000000000000000000000000000000000000000000000000000000000000000000000000000000000000000000000000000000000000000000000000000000000000000000000000000000000000000000000000000000000000000000000000000000000000000000000000000000000000000000000000000000000000000000000000000000000000000000000",
      "type": "0x2",
      "transactionHash": "0xabe4318133009ff275668d57ec2a3139dd00c37e7d25b7e70b1a74884443b952",
      "transactionIndex": "0xa",
      "blockHash": "0xd2ef90287a096632b6cba00b68d6ce3b4700c8d67b4bcfb4a9195a33824ffb89",
      "blockNumber": "0x19ec169",
      "gasUsed": "0xb63d",
      "effectiveGasPrice": "0x4ce62",
      "from": "0xa6b3d200cd34ca14d7579dac8b054bf50a62c37c",
      "to": "0xaf8219fc3eeba4c1b64d1284569b93b3e479a3fa",
      "contractAddress": null,
      "l1BaseFeeScalar": "0x44d",
      "l1BlobBaseFee": "0x1",
      "l1BlobBaseFeeScalar": "0xa118b",
      "l1Fee": "0x156284",
      "l1GasPrice": "0xc238d",
      "l1GasUsed": "0x640"
    },
    {
      "status": "0x1",
      "cumulativeGasUsed": "0x3cb373",
      "logs": [],
      "logsBloom": "0x00000000000000000000000000000000000000000000000000000000000000000000000000000000000000000000000000000000000000000000000000000000000000000000000000000000000000000000000000000000000000000000000000000000000000000000000000000000000000000000000000000000000000000000000000000000000000000000000000000000000000000000000000000000000000000000000000000000000000000000000000000000000000000000000000000000000000000000000000000000000000000000000000000000000000000000000000000000000000000000000000000000000000000000000000000000",
      "type": "0x2",
      "transactionHash": "0xdcef7f84ff10b972331384387b2a16b6ae32d0f2edbe15f23f8424548a2a8e38",
      "transactionIndex": "0x11",
      "blockHash": "0xd2ef90287a096632b6cba00b68d6ce3b4700c8d67b4bcfb4a9195a33824ffb89",
      "blockNumber": "0x19ec169",
      "gasUsed": "0xb63d",
      "effectiveGasPrice": "0x4ce62",
      "from": "0xa6b3d200cd34ca14d7579dac8b054bf50a62c37c",
      "to": "0xaf8219fc3eeba4c1b64d1284569b93b3e479a3fa",
      "contractAddress": null,
      "l1BaseFeeScalar": "0x44d",
      "l1BlobBaseFee": "0x1",
      "l1BlobBaseFeeScalar": "0xa118b",
      "l1Fee": "0x156284",
      "l1GasPrice": "0xc238d",
      "l1GasUsed": "0x640"
    },
    {
      "status": "0x1",
      "cumulativeGasUsed": "0x3d69b0",
      "logs": [],
      "logsBloom": "0x00000000000000000000000000000000000000000000000000000000000000000000000000000000000000000000000000000000000000000000000000000000000000000000000000000000000000000000000000000000000000000000000000000000000000000000000000000000000000000000000000000000000000000000000000000000000000000000000000000000000000000000000000000000000000000000000000000000000000000000000000000000000000000000000000000000000000000000000000000000000000000000000000000000000000000000000000000000000000000000000000000000000000000000000000000000",
      "type": "0x2",
      "transactionHash": "0xff4085b88a25930ab779eb410477fe2ea82d92f062ef31674a07557717d821ea",
      "transactionIndex": "0x12",
      "blockHash": "0xd2ef90287a096632b6cba00b68d6ce3b4700c8d67b4bcfb4a9195a33824ffb89",
      "blockNumber": "0x19ec169",
      "gasUsed": "0xb63d",
      "effectiveGasPrice": "0x4ce62",
      "from": "0xa6b3d200cd34ca14d7579dac8b054bf50a62c37c",
      "to": "0xaf8219fc3eeba4c1b64d1284569b93b3e479a3fa",
      "contractAddress": null,
      "l1BaseFeeScalar": "0x44d",
      "l1BlobBaseFee": "0x1",
      "l1BlobBaseFeeScalar": "0xa118b",
      "l1Fee": "0x156284",
      "l1GasPrice": "0xc238d",
      "l1GasUsed": "0x640"
    },
    {
      "status": "0x1",
      "cumulativeGasUsed": "0x3e1fed",
      "logs": [],
      "logsBloom": "0x00000000000000000000000000000000000000000000000000000000000000000000000000000000000000000000000000000000000000000000000000000000000000000000000000000000000000000000000000000000000000000000000000000000000000000000000000000000000000000000000000000000000000000000000000000000000000000000000000000000000000000000000000000000000000000000000000000000000000000000000000000000000000000000000000000000000000000000000000000000000000000000000000000000000000000000000000000000000000000000000000000000000000000000000000000000",
      "type": "0x2",
      "transactionHash": "0xc6e4a3f7b55835f04d81c3c74f99e83ee46eb11ccdf22c1ea69c388e12a176de",
      "transactionIndex": "0x13",
      "blockHash": "0xd2ef90287a096632b6cba00b68d6ce3b4700c8d67b4bcfb4a9195a33824ffb89",
      "blockNumber": "0x19ec169",
      "gasUsed": "0xb63d",
      "effectiveGasPrice": "0x4ce62",
      "from": "0xa6b3d200cd34ca14d7579dac8b054bf50a62c37c",
      "to": "0xaf8219fc3eeba4c1b64d1284569b93b3e479a3fa",
      "contractAddress": null,
      "l1BaseFeeScalar": "0x44d",
      "l1BlobBaseFee": "0x1",
      "l1BlobBaseFeeScalar": "0xa118b",
      "l1Fee": "0x156284",
      "l1GasPrice": "0xc238d",
      "l1GasUsed": "0x640"
    },
    {
      "status": "0x1",
      "cumulativeGasUsed": "0x40b4fa",
      "logs": [
        {
          "address": "0xaf8219fc3eeba4c1b64d1284569b93b3e479a3fa",
          "topics": [
            "0x908210fc0149379fe25f26a14ba6965e58ae6f8b5e8bb5e1f4586b323fd79b67",
            "0x88ef8906c27d3e6af98ad7a5cf53c31a771fadb410370749ce5bf0cdb279c3b6"
          ],
          "data": "0x00000000000000000000000007b7381ba3b0f30a847ed290c8313c2b3c5b29d300000000000000000000000000000000000000000000000000038d7ea4c680000000000000000000000000000000000000000000000000000000000000000001",
          "blockHash": "0xd2ef90287a096632b6cba00b68d6ce3b4700c8d67b4bcfb4a9195a33824ffb89",
          "blockNumber": "0x19ec169",
          "transactionHash": "0x3a633757bbe679826d439bb0ed59144e48a2b9be7be06e4bf287a289417d9982",
          "transactionIndex": "0x14",
          "logIndex": "0x55",
          "removed": false
        }
      ],
      "logsBloom": "0x20000000000000000000000000000000000000400000000000000000000010000000000000000000000000000000000000000000000000000000000000000000000000000000000000000000000000000000000000000000200000000000000000000000000000000000000000000000400000000000000000000000000000000000000800000000000000000000000000000000000000000000000000000000000000000000000000000000000000000000000000000000000000000000000200000000000000000800000000000000000000000000000000000000000000000000000000000000400000000000000000000000000000000000000000000000",
      "type": "0x2",
      "transactionHash": "0x3a633757bbe679826d439bb0ed59144e48a2b9be7be06e4bf287a289417d9982",
      "transactionIndex": "0x14",
      "blockHash": "0xd2ef90287a096632b6cba00b68d6ce3b4700c8d67b4bcfb4a9195a33824ffb89",
      "blockNumber": "0x19ec169",
      "gasUsed": "0x2950d",
      "effectiveGasPrice": "0x4ce62",
      "from": "0xa6b3d200cd34ca14d7579dac8b054bf50a62c37c",
      "to": "0xaf8219fc3eeba4c1b64d1284569b93b3e479a3fa",
      "contractAddress": null,
      "l1BaseFeeScalar": "0x44d",
      "l1BlobBaseFee": "0x1",
      "l1BlobBaseFeeScalar": "0xa118b",
      "l1Fee": "0x1998bf",
      "l1GasPrice": "0xc238d",
      "l1GasUsed": "0x77b"
    },
    {
      "status": "0x1",
      "cumulativeGasUsed": "0x4c9463",
      "logs": [
        {
          "address": "0xaf8219fc3eeba4c1b64d1284569b93b3e479a3fa",
          "topics": [
            "0x908210fc0149379fe25f26a14ba6965e58ae6f8b5e8bb5e1f4586b323fd79b67",
            "0x924cafe3f4668225141f2f2252ca17f67b629c2ff1426ac8ff340549f1266789"
          ],
          "data": "0x00000000000000000000000007b7381ba3b0f30a847ed290c8313c2b3c5b29d300000000000000000000000000000000000000000000000000038d7ea4c680000000000000000000000000000000000000000000000000000000000000000001",
          "blockHash": "0xd2ef90287a096632b6cba00b68d6ce3b4700c8d67b4bcfb4a9195a33824ffb89",
          "blockNumber": "0x19ec169",
          "transactionHash": "0xb395e9bccc4c8d806866c6390d6f127d46f952b09ca13525c5c1d270dd1ad2b4",
          "transactionIndex": "0x18",
          "logIndex": "0x62",
          "removed": false
        }
      ],
      "logsBloom": "0x00000000000000000000000000000000000000400000000000000000000010000000000000000000000000000000000000000000000000000000000000000000000000000000000000000000000000000000000000000000000000000000000000000000000000000000000000000000400000000000000000000000000000000000000000000000000000000000000000000000000000000000000000000000000000000000008000000000000000000000000000000000000000000000000200000000000000000800000000000000000000000000000000000020000000000000080000000000400000000000000000000000000000000000000000000000",
      "type": "0x2",
      "transactionHash": "0xb395e9bccc4c8d806866c6390d6f127d46f952b09ca13525c5c1d270dd1ad2b4",
      "transactionIndex": "0x18",
      "blockHash": "0xd2ef90287a096632b6cba00b68d6ce3b4700c8d67b4bcfb4a9195a33824ffb89",
      "blockNumber": "0x19ec169",
      "gasUsed": "0x25241",
      "effectiveGasPrice": "0x4ce62",
      "from": "0xa6b3d200cd34ca14d7579dac8b054bf50a62c37c",
      "to": "0xaf8219fc3eeba4c1b64d1284569b93b3e479a3fa",
      "contractAddress": null,
      "l1BaseFeeScalar": "0x44d",
      "l1BlobBaseFee": "0x1",
      "l1BlobBaseFeeScalar": "0xa118b",
      "l1Fee": "0x1998bf",
      "l1GasPrice": "0xc238d",
      "l1GasUsed": "0x77b"
    },
    {
      "status": "0x1",
      "cumulativeGasUsed": "0x4ee6a4",
      "logs": [
        {
          "address": "0xaf8219fc3eeba4c1b64d1284569b93b3e479a3fa",
          "topics": [
            "0x908210fc0149379fe25f26a14ba6965e58ae6f8b5e8bb5e1f4586b323fd79b67",
            "0x870729ce323527c7d70de6e3b4d0cf8167c8b204a3f39d2c51d3c92ccebc3edc"
          ],
          "data": "0x00000000000000000000000007b7381ba3b0f30a847ed290c8313c2b3c5b29d300000000000000000000000000000000000000000000000000038d7ea4c680000000000000000000000000000000000000000000000000000000000000000001",
          "blockHash": "0xd2ef90287a096632b6cba00b68d6ce3b4700c8d67b4bcfb4a9195a33824ffb89",
          "blockNumber": "0x19ec169",
          "transactionHash": "0xc0a748305a3bb2c0f8394997c46c543796f1bf517e40f772e8ea655db32970ce",
          "transactionIndex": "0x19",
          "logIndex": "0x63",
          "removed": false
        }
      ],
      "logsBloom": "0x00000000000000000000000000000000000000400000000000000000000010000000000000000000000000000000000000000000000000000000000000000000000000000000000000000000000000000000000000000000000000000000000000000000000000000000000000000000400000000000000000000000000000000000000000000000000000000000000000000000000000000000000000000000000000000000000000000000000000000000000000000000000010400000000200000000000000000800000000000000000000000000002000000000000000000000000000000000400000000000000000000000000000000000000000000000",
      "type": "0x2",
      "transactionHash": "0xc0a748305a3bb2c0f8394997c46c543796f1bf517e40f772e8ea655db32970ce",
      "transactionIndex": "0x19",
      "blockHash": "0xd2ef90287a096632b6cba00b68d6ce3b4700c8d67b4bcfb4a9195a33824ffb89",
      "blockNumber": "0x19ec169",
      "gasUsed": "0x25241",
      "effectiveGasPrice": "0x4ce62",
      "from": "0xa6b3d200cd34ca14d7579dac8b054bf50a62c37c",
      "to": "0xaf8219fc3eeba4c1b64d1284569b93b3e479a3fa",
      "contractAddress": null,
      "l1BaseFeeScalar": "0x44d",
      "l1BlobBaseFee": "0x1",
      "l1BlobBaseFeeScalar": "0xa118b",
      "l1Fee": "0x1998bf",
      "l1GasPrice": "0xc238d",
      "l1GasUsed": "0x77b"
    },
    {
      "status": "0x1",
      "cumulativeGasUsed": "0x5138e5",
      "logs": [
        {
          "address": "0xaf8219fc3eeba4c1b64d1284569b93b3e479a3fa",
          "topics": [
            "0x908210fc0149379fe25f26a14ba6965e58ae6f8b5e8bb5e1f4586b323fd79b67",
            "0x1887cd0d242fb25ce3889259bf747a4bc6ac3eb3fe083aa1d14c660f7a59c3e2"
          ],
          "data": "0x00000000000000000000000007b7381ba3b0f30a847ed290c8313c2b3c5b29d300000000000000000000000000000000000000000000000000038d7ea4c680000000000000000000000000000000000000000000000000000000000000000001",
          "blockHash": "0xd2ef90287a096632b6cba00b68d6ce3b4700c8d67b4bcfb4a9195a33824ffb89",
          "blockNumber": "0x19ec169",
          "transactionHash": "0x33d9f276d5555cba0d122397b6269180f39596c50a2d93c8eacc6ebc519120f8",
          "transactionIndex": "0x1a",
          "logIndex": "0x64",
          "removed": false
        }
      ],
      "logsBloom": "0x00000000000000000000000000000000000000400000000000000000000010000000000000000000000000000000000004000000000000000000000000000000000000000000000000000000000000000000000000000000000000000000000000000000000000000000000000000000400000000000000000000000000000000000000000000000000000000000000000000000000000002000000000000000000000000000000000000000000000000000000000000000000000000000000200000000000000000800000000000000000000000000000000000000000000000000000000000000400000000000080000000000000000000000000000000000",
      "type": "0x2",
      "transactionHash": "0x33d9f276d5555cba0d122397b6269180f39596c50a2d93c8eacc6ebc519120f8",
      "transactionIndex": "0x1a",
      "blockHash": "0xd2ef90287a096632b6cba00b68d6ce3b4700c8d67b4bcfb4a9195a33824ffb89",
      "blockNumber": "0x19ec169",
      "gasUsed": "0x25241",
      "effectiveGasPrice": "0x4ce62",
      "from": "0xa6b3d200cd34ca14d7579dac8b054bf50a62c37c",
      "to": "0xaf8219fc3eeba4c1b64d1284569b93b3e479a3fa",
      "contractAddress": null,
      "l1BaseFeeScalar": "0x44d",
      "l1BlobBaseFee": "0x1",
      "l1BlobBaseFeeScalar": "0xa118b",
      "l1Fee": "0x1998bf",
      "l1GasPrice": "0xc238d",
      "l1GasUsed": "0x77b"
    },
    {
      "status": "0x1",
      "cumulativeGasUsed": "0x51f43e",
      "logs": [
        {
          "address": "0xaf8219fc3eeba4c1b64d1284569b93b3e479a3fa",
          "topics": [
            "0x603c893fe5a7abb065fd37be5d74b7570a708f31c5b02b409779f57f8ab59788",
            "0x88ef8906c27d3e6af98ad7a5cf53c31a771fadb410370749ce5bf0cdb279c3b6"
          ],
          "data": "0x000000000000000000000000000000000000000000000000000009184e72a000",
          "blockHash": "0xd2ef90287a096632b6cba00b68d6ce3b4700c8d67b4bcfb4a9195a33824ffb89",
          "blockNumber": "0x19ec169",
          "transactionHash": "0xcb85a180a6f110d15a4db0cf25a600aefb5ee4e4e86a61b08f79ba15c4ea1817",
          "transactionIndex": "0x1b",
          "logIndex": "0x65",
          "removed": false
        }
      ],
      "logsBloom": "0x20000000000000000000000000000000000000400000000000000000200000000000000000000000000000000000000000000000000000000000000000000000000000000000000000000000000000000000000000000000200000000000000000000080000000000000000000010000400000000000000000000000000000000000000800000000000000000000000000000000000000000000000000000000000000000000000000000000000000000000000000000000000000000000000000000000000000000800000000000000000000000000000000000000000000000000000000000000000000000000000000000000000000000000000000000000",
      "type": "0x2",
      "transactionHash": "0xcb85a180a6f110d15a4db0cf25a600aefb5ee4e4e86a61b08f79ba15c4ea1817",
      "transactionIndex": "0x1b",
      "blockHash": "0xd2ef90287a096632b6cba00b68d6ce3b4700c8d67b4bcfb4a9195a33824ffb89",
      "blockNumber": "0x19ec169",
      "gasUsed": "0xbb59",
      "effectiveGasPrice": "0x4ce62",
      "from": "0xa6b3d200cd34ca14d7579dac8b054bf50a62c37c",
      "to": "0xaf8219fc3eeba4c1b64d1284569b93b3e479a3fa",
      "contractAddress": null,
      "l1BaseFeeScalar": "0x44d",
      "l1BlobBaseFee": "0x1",
      "l1BlobBaseFeeScalar": "0xa118b",
      "l1Fee": "0x156284",
      "l1GasPrice": "0xc238d",
      "l1GasUsed": "0x640"
    },
    {
      "status": "0x1",
      "cumulativeGasUsed": "0x52af97",
      "logs": [
        {
          "address": "0xaf8219fc3eeba4c1b64d1284569b93b3e479a3fa",
          "topics": [
            "0x603c893fe5a7abb065fd37be5d74b7570a708f31c5b02b409779f57f8ab59788",
            "0x924cafe3f4668225141f2f2252ca17f67b629c2ff1426ac8ff340549f1266789"
          ],
          "data": "0x000000000000000000000000000000000000000000000000000009184e72a000",
          "blockHash": "0xd2ef90287a096632b6cba00b68d6ce3b4700c8d67b4bcfb4a9195a33824ffb89",
          "blockNumber": "0x19ec169",
          "transactionHash": "0x1e3f56013e67ae23c02b2214c54aba026f5fe83a70404f5f781f52ecbd780ebd",
          "transactionIndex": "0x1c",
          "logIndex": "0x66",
          "removed": false
        }
      ],
      "logsBloom": "0x00000000000000000000000000000000000000400000000000000000200000000000000000000000000000000000000000000000000000000000000000000000000000000000000000000000000000000000000000000000000000000000000000000080000000000000000000010000400000000000000000000000000000000000000000000000000000000000000000000000000000000000000000000000000000000000008000000000000000000000000000000000000000000000000000000000000000000800000000000000000000000000000000000020000000000000080000000000000000000000000000000000000000000000000000000000",
      "type": "0x2",
      "transactionHash": "0x1e3f56013e67ae23c02b2214c54aba026f5fe83a70404f5f781f52ecbd780ebd",
      "transactionIndex": "0x1c",
      "blockHash": "0xd2ef90287a096632b6cba00b68d6ce3b4700c8d67b4bcfb4a9195a33824ffb89",
      "blockNumber": "0x19ec169",
      "gasUsed": "0xbb59",
      "effectiveGasPrice": "0x4ce62",
      "from": "0xa6b3d200cd34ca14d7579dac8b054bf50a62c37c",
      "to": "0xaf8219fc3eeba4c1b64d1284569b93b3e479a3fa",
      "contractAddress": null,
      "l1BaseFeeScalar": "0x44d",
      "l1BlobBaseFee": "0x1",
      "l1BlobBaseFeeScalar": "0xa118b",
      "l1Fee": "0x156284",
      "l1GasPrice": "0xc238d",
      "l1GasUsed": "0x640"
    },
    {
      "status": "0x1",
      "cumulativeGasUsed": "0x536af0",
      "logs": [
        {
          "address": "0xaf8219fc3eeba4c1b64d1284569b93b3e479a3fa",
          "topics": [
            "0x603c893fe5a7abb065fd37be5d74b7570a708f31c5b02b409779f57f8ab59788",
            "0x870729ce323527c7d70de6e3b4d0cf8167c8b204a3f39d2c51d3c92ccebc3edc"
          ],
          "data": "0x000000000000000000000000000000000000000000000000000009184e72a000",
          "blockHash": "0xd2ef90287a096632b6cba00b68d6ce3b4700c8d67b4bcfb4a9195a33824ffb89",
          "blockNumber": "0x19ec169",
          "transactionHash": "0xcaf7afb072db4c0c0ec2e2465e2c224bc77801c8c57db9d258f4e41385963976",
          "transactionIndex": "0x1d",
          "logIndex": "0x67",
          "removed": false
        }
      ],
      "logsBloom": "0x00000000000000000000000000000000000000400000000000000000200000000000000000000000000000000000000000000000000000000000000000000000000000000000000000000000000000000000000000000000000000000000000000000080000000000000000000010000400000000000000000000000000000000000000000000000000000000000000000000000000000000000000000000000000000000000000000000000000000000000000000000000000010400000000000000000000000000800000000000000000000000000002000000000000000000000000000000000000000000000000000000000000000000000000000000000",
      "type": "0x2",
      "transactionHash": "0xcaf7afb072db4c0c0ec2e2465e2c224bc77801c8c57db9d258f4e41385963976",
      "transactionIndex": "0x1d",
      "blockHash": "0xd2ef90287a096632b6cba00b68d6ce3b4700c8d67b4bcfb4a9195a33824ffb89",
      "blockNumber": "0x19ec169",
      "gasUsed": "0xbb59",
      "effectiveGasPrice": "0x4ce62",
      "from": "0xa6b3d200cd34ca14d7579dac8b054bf50a62c37c",
      "to": "0xaf8219fc3eeba4c1b64d1284569b93b3e479a3fa",
      "contractAddress": null,
      "l1BaseFeeScalar": "0x44d",
      "l1BlobBaseFee": "0x1",
      "l1BlobBaseFeeScalar": "0xa118b",
      "l1Fee": "0x156284",
      "l1GasPrice": "0xc238d",
      "l1GasUsed": "0x640"
    },
    {
      "status": "0x1",
      "cumulativeGasUsed": "0x542649",
      "logs": [
        {
          "address": "0xaf8219fc3eeba4c1b64d1284569b93b3e479a3fa",
          "topics": [
            "0x603c893fe5a7abb065fd37be5d74b7570a708f31c5b02b409779f57f8ab59788",
            "0x1887cd0d242fb25ce3889259bf747a4bc6ac3eb3fe083aa1d14c660f7a59c3e2"
          ],
          "data": "0x000000000000000000000000000000000000000000000000000009184e72a000",
          "blockHash": "0xd2ef90287a096632b6cba00b68d6ce3b4700c8d67b4bcfb4a9195a33824ffb89",
          "blockNumber": "0x19ec169",
          "transactionHash": "0x3af9fc244118f721553631b2d346b14bb05f102be629af599e88cd0adb118a2d",
          "transactionIndex": "0x1e",
          "logIndex": "0x68",
          "removed": false
        }
      ],
      "logsBloom": "0x00000000000000000000000000000000000000400000000000000000200000000000000000000000000000000000000004000000000000000000000000000000000000000000000000000000000000000000000000000000000000000000000000000080000000000000000000010000400000000000000000000000000000000000000000000000000000000000000000000000000000002000000000000000000000000000000000000000000000000000000000000000000000000000000000000000000000000800000000000000000000000000000000000000000000000000000000000000000000000000080000000000000000000000000000000000",
      "type": "0x2",
      "transactionHash": "0x3af9fc244118f721553631b2d346b14bb05f102be629af599e88cd0adb118a2d",
      "transactionIndex": "0x1e",
      "blockHash": "0xd2ef90287a096632b6cba00b68d6ce3b4700c8d67b4bcfb4a9195a33824ffb89",
      "blockNumber": "0x19ec169",
      "gasUsed": "0xbb59",
      "effectiveGasPrice": "0x4ce62",
      "from": "0xa6b3d200cd34ca14d7579dac8b054bf50a62c37c",
      "to": "0xaf8219fc3eeba4c1b64d1284569b93b3e479a3fa",
      "contractAddress": null,
      "l1BaseFeeScalar": "0x44d",
      "l1BlobBaseFee": "0x1",
      "l1BlobBaseFeeScalar": "0xa118b",
      "l1Fee": "0x156284",
      "l1GasPrice": "0xc238d",
      "l1GasUsed": "0x640"
    }
  ],
  "libraries": [],
  "pending": [],
  "returns": {},
  "timestamp": 1750131122,
  "chain": 84532,
  "commit": "e3173ca"
}