{
  "transactions": [
    {
      "hash": "0x79cb66c74b7fb1da9f80ddbe1952c5b8f25a022d02f826c735208683afee31f5",
      "transactionType": "CREATE",
      "contractName": "RewardDistributor",
      "contractAddress": "0x6323cb90555ba52ae0b37450935c56d511390787",
      "function": null,
      "arguments": null,
      "transaction": {
        "from": "0xa6b3d200cd34ca14d7579dac8b054bf50a62c37c",
        "gas": "0x193fcc",
        "value": "0x0",
        "input": "0x608080604052346071573315605e575f8054336001600160a01b0319821681178355916001600160a01b03909116907f8be0079c531659141344cd1fd0a4f28419497f9722a3daafe3b4186f6b6457e09080a361159490816100768239f35b631e4fbdf760e01b5f525f60045260245ffd5b5f80fdfe6080806040526004361015610012575f80fd5b5f905f3560e01c908162f9643414610ff45750806309f2c01914610f305780630b36db1514610d7e578063179aae8814610d565780632073de5c14610cd057806323be345c14610ca85780632636e8a014610a91578063274ee475146109dc578063312e109c146108d757806348f60dfd146107d75780634e210544146107af57806368b2c40c1461073b57806369883b4e14610703578063715018a6146106ac5780637790ddc6146105105780638209ec50146104585780638da5cb5b146104315780638ff29cfe146103f25780639002392e1461038b57806395ccea671461035257806399fc65d4146102f5578063b79f12b2146102cc578063bb13c3cb146102a3578063d88ff1f4146101ed578063ec01da10146101c35763f2fde38b1461013b575f80fd5b346101c05760203660031901126101c057610154611121565b61015c6113e9565b6001600160a01b031680156101ac5781546001600160a01b03198116821783556001600160a01b03167f8be0079c531659141344cd1fd0a4f28419497f9722a3daafe3b4186f6b6457e08380a380f35b631e4fbdf760e01b82526004829052602482fd5b80fd5b50346101c05760203660031901126101c05760406020916004358152600483522054604051908152f35b50346101c057806003193601126101c05760405180602060025491828152018091600285527f405787fa12a823e0f2b7631cc41b3ba8828b3321ca811111fa75cd3aa3bb5ace90855b81811061028d575050508261024c9103836111b2565b604051928392602084019060208552518091526040840192915b818110610274575050500390f35b8251845285945060209384019390920191600101610266565b8254845260209093019260019283019201610236565b50346101c057806003193601126101c057600a546040516001600160a01b039091168152602090f35b50346101c057806003193601126101c0576006546040516001600160a01b039091168152602090f35b50346101c05760403660031901126101c05761030f611121565b602435801515810361034e5761034b916103276113e9565b60018060a01b031683526005602052604083209060ff801983541691151516179055565b80f35b8280fd5b50346101c05760403660031901126101c05761034b61036f611121565b6103776113e9565b6024359033906001600160a01b031661140f565b50346101c05760403660031901126101c05760406103a761110b565b9160043581526003602052209060018060a01b03165f52602052608060405f208054906001810154906003600282015491015491604051938452602084015260408301526060820152f35b50346101c05760203660031901126101c05760209060ff906040906001600160a01b0361041d611121565b168152600584522054166040519015158152f35b50346101c057806003193601126101c057546040516001600160a01b039091168152602090f35b50346101c05760203660031901126101c057610472611121565b61047a6113e9565b6001600160a01b031680156104cb576020817f1be038705a495dd627af47e6738a26c370e9ee5df6e53f67515bd987c64d0fdd926001600160601b0360a01b600a541617600a55604051908152a180f35b60405162461bcd60e51b815260206004820152601a60248201527f496e76616c69642056434f5020746f6b656e20616464726573730000000000006044820152606490fd5b50346106395760203660031901126106395760043561052f3382611319565b5f81815260036020908152604080832033845290915290206001018054919082610557578380f35b5f9055805f52600160205260405f2060028101610575848254611208565b90558260ff600683015460081c1680610693575b156106775750600a546001600160a01b03161561063d57546001600160a01b0316803b15610639576040516340c10f1960e01b815233600482015260248101849052905f908290604490829084905af1801561062e57610619575b505b6040519182527ffec539b3c42d74cd492c3ecf7966bf014b327beef98e935cdc3ec5e54a6901c760203393a35f80808380f35b6106269193505f906111b2565b5f915f6105e4565b6040513d5f823e3d90fd5b5f80fd5b60405162461bcd60e51b81526020600482015260126024820152711590d3d4081d1bdad95b881b9bdd081cd95d60721b6044820152606490fd5b905461068e919033906001600160a01b031661140f565b6105e6565b508154600a546001600160a01b03908116911614610589565b34610639575f366003190112610639576106c46113e9565b5f80546001600160a01b0319811682556001600160a01b03167f8be0079c531659141344cd1fd0a4f28419497f9722a3daafe3b4186f6b6457e08280a3005b34610639576020366003190112610639576004356002548110156106395761072c60209161114d565b90549060031b1c604051908152f35b346106395760207facefc4a7d159e33f5c2d6facc53467d06090e50ccfa880ef241dc1d1a9200f6c61076c36611137565b6107779391936113e9565b835f526001825260405f2061078b85611215565b6005820155600442910155835f526001825280600360405f200155604051908152a2005b34610639575f366003190112610639576008546040516001600160a01b039091168152602090f35b34610639576107e536611137565b815f52600160205260405f2060068101549160ff8316156108a057600160209260ff7f603c893fe5a7abb065fd37be5d74b7570a708f31c5b02b409779f57f8ab597889560081c165f1461084b570161083f828254611208565b90555b604051908152a2005b61088d828060a01b03825416604051906323b872dd60e01b87830152336024830152306044830152856064830152606482526108886084836111b2565b61144d565b01610899828254611208565b9055610842565b60405162461bcd60e51b815260206004820152600f60248201526e506f6f6c206e6f742061637469766560881b6044820152606490fd5b346106395760403660031901126106395761097c6004356108f661110b565b90805f52600360205260405f2060018060a01b0383165f52602052602060405f20926040519261092584611196565b845484526001850154838501526002850154604080860182905260039096015460609095019485529451623e590d60e21b815260048101919091526001600160a01b03909116602482015293849081906044820190565b0381305afa90811561062e575f916109a7575b60609350519060405192835260208301526040820152f35b90506020833d6020116109d4575b816109c2602093836111b2565b8101031261063957606092519061098f565b3d91506109b5565b34610639576080366003190112610639576109f5611121565b6109fd61110b565b6044356001600160a01b0381169190829003610639576064356001600160a01b038116939084900361063957610a316113e9565b60018060a01b03166001600160601b0360a01b600654161760065560018060a01b03166001600160601b0360a01b60075416176007556001600160601b0360a01b60085416176008556001600160601b0360a01b60095416176009555f80f35b3461063957606036600319011261063957600435610aad61110b565b60443590610ab96113e9565b5f838152600160205260409020546001600160a01b0316610c6d576001600160a01b03168015610c315760018060a01b03600a5416811490604051610afd81611179565b818152602081015f8152610b98600660408401935f8552606081018881526080820142815260a08301915f835260c08401976001895260e08501978b89528d5f52600160205260405f209560018060a01b039051166001600160601b0360a01b8754161786555160018601555160028501555160038401555160048301555160058201550192511515839060ff801983541691151516179055565b51815461ff00191690151560081b61ff00161790556002549168010000000000000000831015610c1d577f908210fc0149379fe25f26a14ba6965e58ae6f8b5e8bb5e1f4586b323fd79b6793610bf68460016060960160025561114d565b81549060031b9088821b915f19901b191617905560405192835260208301526040820152a2005b634e487b7160e01b5f52604160045260245ffd5b60405162461bcd60e51b815260206004820152601460248201527324b73b30b634b2103932bbb0b932103a37b5b2b760611b6044820152606490fd5b60405162461bcd60e51b8152602060048201526013602482015272506f6f6c20616c72656164792065786973747360681b6044820152606490fd5b34610639575f366003190112610639576009546040516001600160a01b039091168152602090f35b34610639576020366003190112610639576004355f52600160205261010060405f2060ff60018060a01b0382541691600181015490600281015460038201546004830154916006600585015494015494604051978852602088015260408701526060860152608085015260a0840152818116151560c084015260081c16151560e0820152f35b34610639575f366003190112610639576007546040516001600160a01b039091168152602090f35b3461063957608036600319011261063957600435610d9a61110b565b9060443591606435908115159182810361063957335f52600560205260ff60405f20541615610efa57610dcd8285611319565b5f8481526003602090815260408083206001600160a01b038616845290915290209015610e6357907f9f0a7aaf8d18c024e8123bdcd157b0f6e0f42892a4ea14a2becc88a320a799229282600260409401610e29888254611208565b9055855f526004602052835f20610e41888254611208565b90555b4260039190910155825195865260208601526001600160a01b031693a3005b906002820192835492868410610ec0577f9f0a7aaf8d18c024e8123bdcd157b0f6e0f42892a4ea14a2becc88a320a7992294610ea1886040966111d4565b9055855f526004602052835f20610eb98882546111d4565b9055610e44565b60405162461bcd60e51b8152602060048201526012602482015271496e73756666696369656e74207374616b6560701b6044820152606490fd5b60405162461bcd60e51b815260206004820152600e60248201526d139bdd08185d5d1a1bdc9a5e995960921b6044820152606490fd5b346106395760203660031901126106395760c0600435805f52600160205260405f2090604051610f5f81611179565b60018060a01b0383541692838252600181015492836020840152600282015490816040850152600660038401549384606087015260048101546080870152600581015460a087015201549360e060ff898301968181161515885260081c1615159101525f52600460205260405f20549251151593604051958652602086015260408501526060840152608083015260a0820152f35b34610639576040366003190112610639576111036020916004359061101761110b565b90825f526001855260e060ff600660405f2061103285611179565b60018060a01b038154168552600181015489860152600281015460408601526003810154606086015260048101546080860152600581015460a08601520154818116151560c085015260081c161515910152815f526003845260405f209060018060a01b03165f528352670de0b6b3a76400006110fa60405f206110f4604051916110bc83611196565b805483526110ea60018201549689850197885260036002840154936040870194855201546060860152611215565b90519251906111d4565b906111f5565b04905190611208565b604051908152f35b602435906001600160a01b038216820361063957565b600435906001600160a01b038216820361063957565b6040906003190112610639576004359060243590565b6002548110156111655760025f5260205f2001905f90565b634e487b7160e01b5f52603260045260245ffd5b610100810190811067ffffffffffffffff821117610c1d57604052565b6080810190811067ffffffffffffffff821117610c1d57604052565b90601f8019910116810190811067ffffffffffffffff821117610c1d57604052565b919082039182116111e157565b634e487b7160e01b5f52601160045260245ffd5b818102929181159184041417156111e157565b919082018092116111e157565b805f52600160205260405f206040519061122e82611179565b60018060a01b0381541682526001810154602083015260028101546040830152600381015490606083019182526004810154926080810193845260e060ff600660058501549460a085019586520154818116151560c085015260081c161515910152835f52600460205260405f20541561131157906112b36112bb92519351426111d4565b9051906111f5565b91670de0b6b3a7640000830292808404670de0b6b3a764000014901517156111e1575f52600460205260405f205480156112fd576112fa920490611208565b90565b634e487b7160e01b5f52601260045260245ffd5b925050505190565b90815f52600160205260405f209061133083611215565b60058301908155426004909301929092556001600160a01b03811661135457505050565b5f8381526003602090815260408083206001600160a01b0394909416808452938252918290209151623e590d60e21b815260048101959095526024850192909252929081604481305afa90811561062e575f916113b7575b506001830155549055565b90506020813d6020116113e1575b816113d2602093836111b2565b8101031261063957515f6113ac565b3d91506113c5565b5f546001600160a01b031633036113fc57565b63118cdaa760e01b5f523360045260245ffd5b60405163a9059cbb60e01b60208201526001600160a01b0392909216602483015260448083019390935291815261144b916108886064836111b2565b565b81516001600160a01b03909116915f91829160200182855af13d156114f4573d67ffffffffffffffff8111610c1d576114a891604051916114986020601f19601f84011601846111b2565b82523d5f602084013e5b83611500565b80519081151591826114d0575b50506114be5750565b635274afe760e01b5f5260045260245ffd5b81925090602091810103126106395760200151801590811503610639575f806114b5565b6114a8906060906114a2565b90611524575080511561151557805190602001fd5b630a12f52160e11b5f5260045ffd5b81511580611555575b611535575090565b639996b31560e01b5f9081526001600160a01b0391909116600452602490fd5b50803b1561152d56fea26469706673582212209987b3ac7502db1a40843750357848946a35174124e424c6729b3b600a0b9b5264736f6c634300081a0033",
        "nonce": "0xd3f",
        "chainId": "0x14a34"
      },
      "additionalContracts": [],
      "isFixedGasLimit": false
    },
    {
      "hash": "0x73e792750f7b246be2a1cdbf462466953bb01758ff0e9cab845056ea03ce3a0e",
      "transactionType": "CALL",
      "contractName": "RewardDistributor",
      "contractAddress": "0x6323cb90555ba52ae0b37450935c56d511390787",
      "function": "setVCOPToken(address)",
      "arguments": [
        "0x91B187907157431Ab6D97A1015d24745C5936Cee"
      ],
      "transaction": {
        "from": "0xa6b3d200cd34ca14d7579dac8b054bf50a62c37c",
        "to": "0x6323cb90555ba52ae0b37450935c56d511390787",
        "gas": "0x10e7b",
        "value": "0x0",
        "input": "0x8209ec5000000000000000000000000091b187907157431ab6d97a1015d24745c5936cee",
        "nonce": "0xd40",
        "chainId": "0x14a34"
      },
      "additionalContracts": [],
      "isFixedGasLimit": false
    },
    {
      "hash": "0x6ac781f3efb673e1d923cfbe031221c593f7c417bb2e4c82b942e40c7d605678",
      "transactionType": "CALL",
      "contractName": null,
      "contractAddress": "0x91b187907157431ab6d97a1015d24745c5936cee",
      "function": "setMinter(address,bool)",
      "arguments": [
        "0x6323cb90555ba52aE0b37450935c56D511390787",
        "true"
      ],
      "transaction": {
        "from": "0xa6b3d200cd34ca14d7579dac8b054bf50a62c37c",
        "to": "0x91b187907157431ab6d97a1015d24745c5936cee",
        "gas": "0x10267",
        "value": "0x0",
        "input": "0xcf456ae70000000000000000000000006323cb90555ba52ae0b37450935c56d5113907870000000000000000000000000000000000000000000000000000000000000001",
        "nonce": "0xd41",
        "chainId": "0x14a34"
      },
      "additionalContracts": [],
      "isFixedGasLimit": false
    },
    {
      "hash": "0x796f4aad3e402760c64ab635ce8095be70da8f794f7e8dd22eabb05c6d04e63a",
      "transactionType": "CALL",
      "contractName": "RewardDistributor",
      "contractAddress": "0x6323cb90555ba52ae0b37450935c56d511390787",
      "function": "setProtocolComponents(address,address,address,address)",
      "arguments": [
        "0xFE9cc4DC386606B00Dcb057F4F3425a0Cbd8Bd3f",
        "0xA29A62877d840B8fb0975b1A6bDFcB65E5A56757",
        "0xe2AA5803F1baD51f092650De840Ea79547F26b7d",
        "0x453f37d2DAc02248AC9eaA4DC9c877F5877da6CD"
      ],
      "transaction": {
        "from": "0xa6b3d200cd34ca14d7579dac8b054bf50a62c37c",
        "to": "0x6323cb90555ba52ae0b37450935c56d511390787",
        "gas": "0x26617",
        "value": "0x0",
        "input": "0x274ee475000000000000000000000000fe9cc4dc386606b00dcb057f4f3425a0cbd8bd3f000000000000000000000000a29a62877d840b8fb0975b1a6bdfcb65e5a56757000000000000000000000000e2aa5803f1bad51f092650de840ea79547f26b7d000000000000000000000000453f37d2dac02248ac9eaa4dc9c877f5877da6cd",
        "nonce": "0xd42",
        "chainId": "0x14a34"
      },
      "additionalContracts": [],
      "isFixedGasLimit": false
    },
    {
      "hash": "0xb5470d775c3a38e757f302aea9d4fd94e8a2c524b667c45c9beaeb8a623f78a7",
      "transactionType": "CALL",
      "contractName": "RewardDistributor",
      "contractAddress": "0x6323cb90555ba52ae0b37450935c56d511390787",
      "function": "setAuthorizedUpdater(address,bool)",
      "arguments": [
        "0xA29A62877d840B8fb0975b1A6bDFcB65E5A56757",
        "true"
      ],
      "transaction": {
        "from": "0xa6b3d200cd34ca14d7579dac8b054bf50a62c37c",
        "to": "0x6323cb90555ba52ae0b37450935c56d511390787",
        "gas": "0xfbb6",
        "value": "0x0",
        "input": "0x99fc65d4000000000000000000000000a29a62877d840b8fb0975b1a6bdfcb65e5a567570000000000000000000000000000000000000000000000000000000000000001",
        "nonce": "0xd43",
        "chainId": "0x14a34"
      },
      "additionalContracts": [],
      "isFixedGasLimit": false
    },
    {
      "hash": "0xc371df3649bd3542f6048e3f8cd4f39a5c84e8737b897ebea96b7a81d41045bb",
      "transactionType": "CALL",
      "contractName": "RewardDistributor",
      "contractAddress": "0x6323cb90555ba52ae0b37450935c56d511390787",
      "function": "setAuthorizedUpdater(address,bool)",
      "arguments": [
        "0xe2AA5803F1baD51f092650De840Ea79547F26b7d",
        "true"
      ],
      "transaction": {
        "from": "0xa6b3d200cd34ca14d7579dac8b054bf50a62c37c",
        "to": "0x6323cb90555ba52ae0b37450935c56d511390787",
        "gas": "0xfbb6",
        "value": "0x0",
        "input": "0x99fc65d4000000000000000000000000e2aa5803f1bad51f092650de840ea79547f26b7d0000000000000000000000000000000000000000000000000000000000000001",
        "nonce": "0xd44",
        "chainId": "0x14a34"
      },
      "additionalContracts": [],
      "isFixedGasLimit": false
    },
    {
      "hash": "0xd524b3e15e7cdc6cf19f6b7a38f20387c7c2d52edc0dd36c471ce1badf6517ea",
      "transactionType": "CALL",
      "contractName": "RewardDistributor",
      "contractAddress": "0x6323cb90555ba52ae0b37450935c56d511390787",
      "function": "setAuthorizedUpdater(address,bool)",
      "arguments": [
        "0xFE9cc4DC386606B00Dcb057F4F3425a0Cbd8Bd3f",
        "true"
      ],
      "transaction": {
        "from": "0xa6b3d200cd34ca14d7579dac8b054bf50a62c37c",
        "to": "0x6323cb90555ba52ae0b37450935c56d511390787",
        "gas": "0xfbb6",
        "value": "0x0",
        "input": "0x99fc65d4000000000000000000000000fe9cc4dc386606b00dcb057f4f3425a0cbd8bd3f0000000000000000000000000000000000000000000000000000000000000001",
        "nonce": "0xd45",
        "chainId": "0x14a34"
      },
      "additionalContracts": [],
      "isFixedGasLimit": false
    },
    {
      "hash": "0x12d4805efbf4ce166784f100b962a173652a0a6f66022b259bc7deaa3b99e2e7",
      "transactionType": "CALL",
      "contractName": "RewardDistributor",
      "contractAddress": "0x6323cb90555ba52ae0b37450935c56d511390787",
      "function": "setAuthorizedUpdater(address,bool)",
      "arguments": [
        "0x453f37d2DAc02248AC9eaA4DC9c877F5877da6CD",
        "true"
      ],
      "transaction": {
        "from": "0xa6b3d200cd34ca14d7579dac8b054bf50a62c37c",
        "to": "0x6323cb90555ba52ae0b37450935c56d511390787",
        "gas": "0xfbb6",
        "value": "0x0",
        "input": "0x99fc65d4000000000000000000000000453f37d2dac02248ac9eaa4dc9c877f5877da6cd0000000000000000000000000000000000000000000000000000000000000001",
        "nonce": "0xd46",
        "chainId": "0x14a34"
      },
      "additionalContracts": [],
      "isFixedGasLimit": false
    },
    {
      "hash": "0x6d9f802687071f47a153ab0caf59e56a2f2e2acba7bdccbe94405c610df1c2fc",
      "transactionType": "CALL",
      "contractName": "RewardDistributor",
      "contractAddress": "0x6323cb90555ba52ae0b37450935c56d511390787",
      "function": "createRewardPool(bytes32,address,uint256)",
      "arguments": [
        "0x88ef8906c27d3e6af98ad7a5cf53c31a771fadb410370749ce5bf0cdb279c3b6",
        "0x91B187907157431Ab6D97A1015d24745C5936Cee",
        "1000000000000000"
      ],
      "transaction": {
        "from": "0xa6b3d200cd34ca14d7579dac8b054bf50a62c37c",
        "to": "0x6323cb90555ba52ae0b37450935c56d511390787",
        "gas": "0x39112",
        "value": "0x0",
        "input": "0x2636e8a088ef8906c27d3e6af98ad7a5cf53c31a771fadb410370749ce5bf0cdb279c3b600000000000000000000000091b187907157431ab6d97a1015d24745c5936cee00000000000000000000000000000000000000000000000000038d7ea4c68000",
        "nonce": "0xd47",
        "chainId": "0x14a34"
      },
      "additionalContracts": [],
      "isFixedGasLimit": false
    },
    {
      "hash": "0x03eb05099d33453555e8046ad7adf15c7ccefb775be22bd5cc02fb19ac95225f",
      "transactionType": "CALL",
      "contractName": "RewardDistributor",
      "contractAddress": "0x6323cb90555ba52ae0b37450935c56d511390787",
      "function": "createRewardPool(bytes32,address,uint256)",
      "arguments": [
        "0x924cafe3f4668225141f2f2252ca17f67b629c2ff1426ac8ff340549f1266789",
        "0x91B187907157431Ab6D97A1015d24745C5936Cee",
        "1000000000000000"
      ],
      "transaction": {
        "from": "0xa6b3d200cd34ca14d7579dac8b054bf50a62c37c",
        "to": "0x6323cb90555ba52ae0b37450935c56d511390787",
        "gas": "0x36518",
        "value": "0x0",
        "input": "0x2636e8a0924cafe3f4668225141f2f2252ca17f67b629c2ff1426ac8ff340549f126678900000000000000000000000091b187907157431ab6d97a1015d24745c5936cee00000000000000000000000000000000000000000000000000038d7ea4c68000",
        "nonce": "0xd48",
        "chainId": "0x14a34"
      },
      "additionalContracts": [],
      "isFixedGasLimit": false
    },
    {
      "hash": "0x2739da557a386d3ea39e655d4fb6b5fc9c8bed9cf40dec3b5592f3ec5dc8579b",
      "transactionType": "CALL",
      "contractName": "RewardDistributor",
      "contractAddress": "0x6323cb90555ba52ae0b37450935c56d511390787",
      "function": "createRewardPool(bytes32,address,uint256)",
      "arguments": [
        "0x870729ce323527c7d70de6e3b4d0cf8167c8b204a3f39d2c51d3c92ccebc3edc",
        "0x91B187907157431Ab6D97A1015d24745C5936Cee",
        "1000000000000000"
      ],
      "transaction": {
        "from": "0xa6b3d200cd34ca14d7579dac8b054bf50a62c37c",
        "to": "0x6323cb90555ba52ae0b37450935c56d511390787",
        "gas": "0x36518",
        "value": "0x0",
        "input": "0x2636e8a0870729ce323527c7d70de6e3b4d0cf8167c8b204a3f39d2c51d3c92ccebc3edc00000000000000000000000091b187907157431ab6d97a1015d24745c5936cee00000000000000000000000000000000000000000000000000038d7ea4c68000",
        "nonce": "0xd49",
        "chainId": "0x14a34"
      },
      "additionalContracts": [],
      "isFixedGasLimit": false
    },
    {
      "hash": "0x1b7df70069e1ca5b79d928d821c7bcff72a9b8e3752b15e26e4b00f8542d5339",
      "transactionType": "CALL",
      "contractName": "RewardDistributor",
      "contractAddress": "0x6323cb90555ba52ae0b37450935c56d511390787",
      "function": "createRewardPool(bytes32,address,uint256)",
      "arguments": [
        "0x1887cd0d242fb25ce3889259bf747a4bc6ac3eb3fe083aa1d14c660f7a59c3e2",
        "0x91B187907157431Ab6D97A1015d24745C5936Cee",
        "1000000000000000"
      ],
      "transaction": {
        "from": "0xa6b3d200cd34ca14d7579dac8b054bf50a62c37c",
        "to": "0x6323cb90555ba52ae0b37450935c56d511390787",
        "gas": "0x36518",
        "value": "0x0",
        "input": "0x2636e8a01887cd0d242fb25ce3889259bf747a4bc6ac3eb3fe083aa1d14c660f7a59c3e200000000000000000000000091b187907157431ab6d97a1015d24745c5936cee00000000000000000000000000000000000000000000000000038d7ea4c68000",
        "nonce": "0xd4a",
        "chainId": "0x14a34"
      },
      "additionalContracts": [],
      "isFixedGasLimit": false
    },
    {
      "hash": "0x5ca33ecd6341991884f8a3c32ff3fad1ec7564f4a6b40858001199f3d6b78f16",
      "transactionType": "CALL",
      "contractName": "RewardDistributor",
      "contractAddress": "0x6323cb90555ba52ae0b37450935c56d511390787",
      "function": "addRewards(bytes32,uint256)",
      "arguments": [
        "0x88ef8906c27d3e6af98ad7a5cf53c31a771fadb410370749ce5bf0cdb279c3b6",
        "10000000000000"
      ],
      "transaction": {
        "from": "0xa6b3d200cd34ca14d7579dac8b054bf50a62c37c",
        "to": "0x6323cb90555ba52ae0b37450935c56d511390787",
        "gas": "0x111fe",
        "value": "0x0",
        "input": "0x48f60dfd88ef8906c27d3e6af98ad7a5cf53c31a771fadb410370749ce5bf0cdb279c3b6000000000000000000000000000000000000000000000000000009184e72a000",
        "nonce": "0xd4b",
        "chainId": "0x14a34"
      },
      "additionalContracts": [],
      "isFixedGasLimit": false
    },
    {
      "hash": "0x88440880373cbaaa81add9faf562c634dd4195c966f7626f83193d46908dab62",
      "transactionType": "CALL",
      "contractName": "RewardDistributor",
      "contractAddress": "0x6323cb90555ba52ae0b37450935c56d511390787",
      "function": "addRewards(bytes32,uint256)",
      "arguments": [
        "0x924cafe3f4668225141f2f2252ca17f67b629c2ff1426ac8ff340549f1266789",
        "10000000000000"
      ],
      "transaction": {
        "from": "0xa6b3d200cd34ca14d7579dac8b054bf50a62c37c",
        "to": "0x6323cb90555ba52ae0b37450935c56d511390787",
        "gas": "0x111fe",
        "value": "0x0",
        "input": "0x48f60dfd924cafe3f4668225141f2f2252ca17f67b629c2ff1426ac8ff340549f1266789000000000000000000000000000000000000000000000000000009184e72a000",
        "nonce": "0xd4c",
        "chainId": "0x14a34"
      },
      "additionalContracts": [],
      "isFixedGasLimit": false
    },
    {
      "hash": "0xda0f77595227f09554fcebd36e77990bade74e9cdf7d2041e929b312ce4e22c6",
      "transactionType": "CALL",
      "contractName": "RewardDistributor",
      "contractAddress": "0x6323cb90555ba52ae0b37450935c56d511390787",
      "function": "addRewards(bytes32,uint256)",
      "arguments": [
        "0x870729ce323527c7d70de6e3b4d0cf8167c8b204a3f39d2c51d3c92ccebc3edc",
        "10000000000000"
      ],
      "transaction": {
        "from": "0xa6b3d200cd34ca14d7579dac8b054bf50a62c37c",
        "to": "0x6323cb90555ba52ae0b37450935c56d511390787",
        "gas": "0x111fe",
        "value": "0x0",
        "input": "0x48f60dfd870729ce323527c7d70de6e3b4d0cf8167c8b204a3f39d2c51d3c92ccebc3edc000000000000000000000000000000000000000000000000000009184e72a000",
        "nonce": "0xd4d",
        "chainId": "0x14a34"
      },
      "additionalContracts": [],
      "isFixedGasLimit": false
    },
    {
      "hash": "0xf2cacbfe676f9644418da4d9fe78b6dfa8490431523c7df5aef1255559e17c11",
      "transactionType": "CALL",
      "contractName": "RewardDistributor",
      "contractAddress": "0x6323cb90555ba52ae0b37450935c56d511390787",
      "function": "addRewards(bytes32,uint256)",
      "arguments": [
        "0x1887cd0d242fb25ce3889259bf747a4bc6ac3eb3fe083aa1d14c660f7a59c3e2",
        "10000000000000"
      ],
      "transaction": {
        "from": "0xa6b3d200cd34ca14d7579dac8b054bf50a62c37c",
        "to": "0x6323cb90555ba52ae0b37450935c56d511390787",
        "gas": "0x111fe",
        "value": "0x0",
        "input": "0x48f60dfd1887cd0d242fb25ce3889259bf747a4bc6ac3eb3fe083aa1d14c660f7a59c3e2000000000000000000000000000000000000000000000000000009184e72a000",
        "nonce": "0xd4e",
        "chainId": "0x14a34"
      },
      "additionalContracts": [],
      "isFixedGasLimit": false
    }
  ],
  "receipts": [
    {
      "status": "0x1",
      "cumulativeGasUsed": "0x4af952",
      "logs": [
        {
          "address": "0x6323cb90555ba52ae0b37450935c56d511390787",
          "topics": [
            "0x8be0079c531659141344cd1fd0a4f28419497f9722a3daafe3b4186f6b6457e0",
            "0x0000000000000000000000000000000000000000000000000000000000000000",
            "0x000000000000000000000000a6b3d200cd34ca14d7579dac8b054bf50a62c37c"
          ],
          "data": "0x",
          "blockHash": "0x86f6367af6b96217c1994ebbcf7a965e7c97e4d73e0acf18b4fc9d914bba35c6",
          "blockNumber": "0x19ebc02",
          "transactionHash": "0x79cb66c74b7fb1da9f80ddbe1952c5b8f25a022d02f826c735208683afee31f5",
          "transactionIndex": "0xb",
          "logIndex": "0x7c",
          "removed": false
        }
      ],
      "logsBloom": "0x00000000000000000000000400000000000000000000000002800000000000000000000000000000000000000000000000000000000000000000000000000000000004000000040000000000000000000001000000000000000000000000000000000000020000000000000000000800000000000000000000000000000000400000000000000000000000000000000000000000000000000000000000000000000000000000000000000000000000000000000000000000000000000000000000000040000000000000000000000000000000000000000000000000000020000000000000000000000000000000000000000010000000000000000000000000",
      "type": "0x2",
      "transactionHash": "0x79cb66c74b7fb1da9f80ddbe1952c5b8f25a022d02f826c735208683afee31f5",
      "transactionIndex": "0xb",
      "blockHash": "0x86f6367af6b96217c1994ebbcf7a965e7c97e4d73e0acf18b4fc9d914bba35c6",
      "blockNumber": "0x19ebc02",
      "gasUsed": "0x136c27",
      "effectiveGasPrice": "0x39538",
      "from": "0xa6b3d200cd34ca14d7579dac8b054bf50a62c37c",
      "to": null,
      "contractAddress": "0x6323cb90555ba52ae0b37450935c56d511390787",
      "l1BaseFeeScalar": "0x44d",
      "l1BlobBaseFee": "0x1",
      "l1BlobBaseFeeScalar": "0xa118b",
      "l1Fee": "0x208966",
      "l1GasPrice": "0x8a39",
      "l1GasUsed": "0xd592"
    },
    {
      "status": "0x1",
      "cumulativeGasUsed": "0x4bb244",
      "logs": [
        {
          "address": "0x6323cb90555ba52ae0b37450935c56d511390787",
          "topics": [
            "0x1be038705a495dd627af47e6738a26c370e9ee5df6e53f67515bd987c64d0fdd"
          ],
          "data": "0x00000000000000000000000091b187907157431ab6d97a1015d24745c5936cee",
          "blockHash": "0x86f6367af6b96217c1994ebbcf7a965e7c97e4d73e0acf18b4fc9d914bba35c6",
          "blockNumber": "0x19ebc02",
          "transactionHash": "0x73e792750f7b246be2a1cdbf462466953bb01758ff0e9cab845056ea03ce3a0e",
          "transactionIndex": "0xc",
          "logIndex": "0x7d",
          "removed": false
        }
      ],
      "logsBloom": "0x00000000000000000000000000000200000000000000000000000000000000000000000000000000000000000000000000000000000000000000000000000000000004000000040000000000000000000000000000000000000000000000000000000000000000000000000000000000000000000000000000000000000000000000000000000000000000000000000000000000000000000000000000040000000000000000000000000000000000000000000000000800000000000000000000000000000000000000000000000000000000000000000000000000000000000000000000000000000000000000000000000010000000000000000000000000",
      "type": "0x2",
      "transactionHash": "0x73e792750f7b246be2a1cdbf462466953bb01758ff0e9cab845056ea03ce3a0e",
      "transactionIndex": "0xc",
      "blockHash": "0x86f6367af6b96217c1994ebbcf7a965e7c97e4d73e0acf18b4fc9d914bba35c6",
      "blockNumber": "0x19ebc02",
      "gasUsed": "0xb8f2",
      "effectiveGasPrice": "0x39538",
      "from": "0xa6b3d200cd34ca14d7579dac8b054bf50a62c37c",
      "to": "0x6323cb90555ba52ae0b37450935c56d511390787",
      "contractAddress": null,
      "l1BaseFeeScalar": "0x44d",
      "l1BlobBaseFee": "0x1",
      "l1BlobBaseFeeScalar": "0xa118b",
      "l1Fee": "0xf3c0",
      "l1GasPrice": "0x8a39",
      "l1GasUsed": "0x640"
    },
    {
      "status": "0x1",
      "cumulativeGasUsed": "0x4c6d59",
      "logs": [
        {
          "address": "0x91b187907157431ab6d97a1015d24745c5936cee",
          "topics": [
            "0xb21afb9ce9be0a676f8f317ff0ca072fb89a4f8ce2d1b6fe80f8755c14f1cb19"
          ],
          "data": "0x0000000000000000000000006323cb90555ba52ae0b37450935c56d5113907870000000000000000000000000000000000000000000000000000000000000001",
          "blockHash": "0x86f6367af6b96217c1994ebbcf7a965e7c97e4d73e0acf18b4fc9d914bba35c6",
          "blockNumber": "0x19ebc02",
          "transactionHash": "0x6ac781f3efb673e1d923cfbe031221c593f7c417bb2e4c82b942e40c7d605678",
          "transactionIndex": "0xd",
          "logIndex": "0x7e",
          "removed": false
        }
      ],
      "logsBloom": "0x00000000000000000000000000000000000000000000000000000000000000000000000000000000000000000000000000000000000000040000000000000080000000000000000000000000000000000000000000000000000000000000000000000000000020000000000000000000000000000000000000004000000000000000000000000000000000000000000000000000000000000000204000000000000000000000000000000000000000000000000000000000000000000000000000000000000000000000000000000000000000000000000000000000000000000000000000000000000000000000000000000000000000000000000000000000",
      "type": "0x2",
      "transactionHash": "0x6ac781f3efb673e1d923cfbe031221c593f7c417bb2e4c82b942e40c7d605678",
      "transactionIndex": "0xd",
      "blockHash": "0x86f6367af6b96217c1994ebbcf7a965e7c97e4d73e0acf18b4fc9d914bba35c6",
      "blockNumber": "0x19ebc02",
      "gasUsed": "0xbb15",
      "effectiveGasPrice": "0x39538",
      "from": "0xa6b3d200cd34ca14d7579dac8b054bf50a62c37c",
      "to": "0x91b187907157431ab6d97a1015d24745c5936cee",
      "contractAddress": null,
      "l1BaseFeeScalar": "0x44d",
      "l1BlobBaseFee": "0x1",
      "l1BlobBaseFeeScalar": "0xa118b",
      "l1Fee": "0xf3c0",
      "l1GasPrice": "0x8a39",
      "l1GasUsed": "0x640"
    },
    {
      "status": "0x1",
      "cumulativeGasUsed": "0x4e29f1",
      "logs": [],
      "logsBloom": "0x00000000000000000000000000000000000000000000000000000000000000000000000000000000000000000000000000000000000000000000000000000000000000000000000000000000000000000000000000000000000000000000000000000000000000000000000000000000000000000000000000000000000000000000000000000000000000000000000000000000000000000000000000000000000000000000000000000000000000000000000000000000000000000000000000000000000000000000000000000000000000000000000000000000000000000000000000000000000000000000000000000000000000000000000000000000",
      "type": "0x2",
      "transactionHash": "0x796f4aad3e402760c64ab635ce8095be70da8f794f7e8dd22eabb05c6d04e63a",
      "transactionIndex": "0xe",
      "blockHash": "0x86f6367af6b96217c1994ebbcf7a965e7c97e4d73e0acf18b4fc9d914bba35c6",
      "blockNumber": "0x19ebc02",
      "gasUsed": "0x1bc98",
      "effectiveGasPrice": "0x39538",
      "from": "0xa6b3d200cd34ca14d7579dac8b054bf50a62c37c",
      "to": "0x6323cb90555ba52ae0b37450935c56d511390787",
      "contractAddress": null,
      "l1BaseFeeScalar": "0x44d",
      "l1BlobBaseFee": "0x1",
      "l1BlobBaseFeeScalar": "0xa118b",
      "l1Fee": "0x160ed",
      "l1GasPrice": "0x8a39",
      "l1GasUsed": "0x90c"
    },
    {
      "status": "0x1",
      "cumulativeGasUsed": "0x4ee02e",
      "logs": [],
      "logsBloom": "0x00000000000000000000000000000000000000000000000000000000000000000000000000000000000000000000000000000000000000000000000000000000000000000000000000000000000000000000000000000000000000000000000000000000000000000000000000000000000000000000000000000000000000000000000000000000000000000000000000000000000000000000000000000000000000000000000000000000000000000000000000000000000000000000000000000000000000000000000000000000000000000000000000000000000000000000000000000000000000000000000000000000000000000000000000000000",
      "type": "0x2",
      "transactionHash": "0xb5470d775c3a38e757f302aea9d4fd94e8a2c524b667c45c9beaeb8a623f78a7",
      "transactionIndex": "0xf",
      "blockHash": "0x86f6367af6b96217c1994ebbcf7a965e7c97e4d73e0acf18b4fc9d914bba35c6",
      "blockNumber": "0x19ebc02",
      "gasUsed": "0xb63d",
      "effectiveGasPrice": "0x39538",
      "from": "0xa6b3d200cd34ca14d7579dac8b054bf50a62c37c",
      "to": "0x6323cb90555ba52ae0b37450935c56d511390787",
      "contractAddress": null,
      "l1BaseFeeScalar": "0x44d",
      "l1BlobBaseFee": "0x1",
      "l1BlobBaseFeeScalar": "0xa118b",
      "l1Fee": "0xf3c0",
      "l1GasPrice": "0x8a39",
      "l1GasUsed": "0x640"
    },
    {
      "status": "0x1",
      "cumulativeGasUsed": "0x4f966b",
      "logs": [],
      "logsBloom": "0x00000000000000000000000000000000000000000000000000000000000000000000000000000000000000000000000000000000000000000000000000000000000000000000000000000000000000000000000000000000000000000000000000000000000000000000000000000000000000000000000000000000000000000000000000000000000000000000000000000000000000000000000000000000000000000000000000000000000000000000000000000000000000000000000000000000000000000000000000000000000000000000000000000000000000000000000000000000000000000000000000000000000000000000000000000000",
      "type": "0x2",
      "transactionHash": "0xc371df3649bd3542f6048e3f8cd4f39a5c84e8737b897ebea96b7a81d41045bb",
      "transactionIndex": "0x10",
      "blockHash": "0x86f6367af6b96217c1994ebbcf7a965e7c97e4d73e0acf18b4fc9d914bba35c6",
      "blockNumber": "0x19ebc02",
      "gasUsed": "0xb63d",
      "effectiveGasPrice": "0x39538",
      "from": "0xa6b3d200cd34ca14d7579dac8b054bf50a62c37c",
      "to": "0x6323cb90555ba52ae0b37450935c56d511390787",
      "contractAddress": null,
      "l1BaseFeeScalar": "0x44d",
      "l1BlobBaseFee": "0x1",
      "l1BlobBaseFeeScalar": "0xa118b",
      "l1Fee": "0xf3c0",
      "l1GasPrice": "0x8a39",
      "l1GasUsed": "0x640"
    },
    {
      "status": "0x1",
      "cumulativeGasUsed": "0x504ca8",
      "logs": [],
      "logsBloom": "0x00000000000000000000000000000000000000000000000000000000000000000000000000000000000000000000000000000000000000000000000000000000000000000000000000000000000000000000000000000000000000000000000000000000000000000000000000000000000000000000000000000000000000000000000000000000000000000000000000000000000000000000000000000000000000000000000000000000000000000000000000000000000000000000000000000000000000000000000000000000000000000000000000000000000000000000000000000000000000000000000000000000000000000000000000000000",
      "type": "0x2",
      "transactionHash": "0xd524b3e15e7cdc6cf19f6b7a38f20387c7c2d52edc0dd36c471ce1badf6517ea",
      "transactionIndex": "0x11",
      "blockHash": "0x86f6367af6b96217c1994ebbcf7a965e7c97e4d73e0acf18b4fc9d914bba35c6",
      "blockNumber": "0x19ebc02",
      "gasUsed": "0xb63d",
      "effectiveGasPrice": "0x39538",
      "from": "0xa6b3d200cd34ca14d7579dac8b054bf50a62c37c",
      "to": "0x6323cb90555ba52ae0b37450935c56d511390787",
      "contractAddress": null,
      "l1BaseFeeScalar": "0x44d",
      "l1BlobBaseFee": "0x1",
      "l1BlobBaseFeeScalar": "0xa118b",
      "l1Fee": "0xf3c0",
      "l1GasPrice": "0x8a39",
      "l1GasUsed": "0x640"
    },
    {
      "status": "0x1",
      "cumulativeGasUsed": "0x5a2faf",
      "logs": [],
      "logsBloom": "0x00000000000000000000000000000000000000000000000000000000000000000000000000000000000000000000000000000000000000000000000000000000000000000000000000000000000000000000000000000000000000000000000000000000000000000000000000000000000000000000000000000000000000000000000000000000000000000000000000000000000000000000000000000000000000000000000000000000000000000000000000000000000000000000000000000000000000000000000000000000000000000000000000000000000000000000000000000000000000000000000000000000000000000000000000000000",
      "type": "0x2",
      "transactionHash": "0x12d4805efbf4ce166784f100b962a173652a0a6f66022b259bc7deaa3b99e2e7",
      "transactionIndex": "0x13",
      "blockHash": "0x86f6367af6b96217c1994ebbcf7a965e7c97e4d73e0acf18b4fc9d914bba35c6",
      "blockNumber": "0x19ebc02",
      "gasUsed": "0xb63d",
      "effectiveGasPrice": "0x39538",
      "from": "0xa6b3d200cd34ca14d7579dac8b054bf50a62c37c",
      "to": "0x6323cb90555ba52ae0b37450935c56d511390787",
      "contractAddress": null,
      "l1BaseFeeScalar": "0x44d",
      "l1BlobBaseFee": "0x1",
      "l1BlobBaseFeeScalar": "0xa118b",
      "l1Fee": "0xf3c0",
      "l1GasPrice": "0x8a39",
      "l1GasUsed": "0x640"
    },
    {
      "status": "0x1",
      "cumulativeGasUsed": "0x5cc4bc",
      "logs": [
        {
          "address": "0x6323cb90555ba52ae0b37450935c56d511390787",
          "topics": [
            "0x908210fc0149379fe25f26a14ba6965e58ae6f8b5e8bb5e1f4586b323fd79b67",
            "0x88ef8906c27d3e6af98ad7a5cf53c31a771fadb410370749ce5bf0cdb279c3b6"
          ],
          "data": "0x00000000000000000000000091b187907157431ab6d97a1015d24745c5936cee00000000000000000000000000000000000000000000000000038d7ea4c680000000000000000000000000000000000000000000000000000000000000000001",
          "blockHash": "0x86f6367af6b96217c1994ebbcf7a965e7c97e4d73e0acf18b4fc9d914bba35c6",
          "blockNumber": "0x19ebc02",
          "transactionHash": "0x6d9f802687071f47a153ab0caf59e56a2f2e2acba7bdccbe94405c610df1c2fc",
          "transactionIndex": "0x14",
          "logIndex": "0x89",
          "removed": false
        }
      ],
      "logsBloom": "0x20000000000000000000000000000000000000000000000000000000000010000000000000000000000000000000000000000000000000000000000000000000000004000000040000000000000000000000000000000000200000000000000000000000000000000000000000000000000000000000000000000000000000000000000800000000000000000000000000000000000000000000000000000000000000000000000000000000000000000000000000000000000000000000000200000000000000000000000000000000000000000000000000000000000000000000000000000000400000000000000000000010000000000000000000000000",
      "type": "0x2",
      "transactionHash": "0x6d9f802687071f47a153ab0caf59e56a2f2e2acba7bdccbe94405c610df1c2fc",
      "transactionIndex": "0x14",
      "blockHash": "0x86f6367af6b96217c1994ebbcf7a965e7c97e4d73e0acf18b4fc9d914bba35c6",
      "blockNumber": "0x19ebc02",
      "gasUsed": "0x2950d",
      "effectiveGasPrice": "0x39538",
      "from": "0xa6b3d200cd34ca14d7579dac8b054bf50a62c37c",
      "to": "0x6323cb90555ba52ae0b37450935c56d511390787",
      "contractAddress": null,
      "l1BaseFeeScalar": "0x44d",
      "l1BlobBaseFee": "0x1",
      "l1BlobBaseFeeScalar": "0xa118b",
      "l1Fee": "0x123c2",
      "l1GasPrice": "0x8a39",
      "l1GasUsed": "0x77b"
    },
    {
      "status": "0x1",
      "cumulativeGasUsed": "0x5f16fd",
      "logs": [
        {
          "address": "0x6323cb90555ba52ae0b37450935c56d511390787",
          "topics": [
            "0x908210fc0149379fe25f26a14ba6965e58ae6f8b5e8bb5e1f4586b323fd79b67",
            "0x924cafe3f4668225141f2f2252ca17f67b629c2ff1426ac8ff340549f1266789"
          ],
          "data": "0x00000000000000000000000091b187907157431ab6d97a1015d24745c5936cee00000000000000000000000000000000000000000000000000038d7ea4c680000000000000000000000000000000000000000000000000000000000000000001",
          "blockHash": "0x86f6367af6b96217c1994ebbcf7a965e7c97e4d73e0acf18b4fc9d914bba35c6",
          "blockNumber": "0x19ebc02",
          "transactionHash": "0x03eb05099d33453555e8046ad7adf15c7ccefb775be22bd5cc02fb19ac95225f",
          "transactionIndex": "0x15",
          "logIndex": "0x8a",
          "removed": false
        }
      ],
      "logsBloom": "0x00000000000000000000000000000000000000000000000000000000000010000000000000000000000000000000000000000000000000000000000000000000000004000000040000000000000000000000000000000000000000000000000000000000000000000000000000000000000000000000000000000000000000000000000000000000000000000000000000000000000000000000000000000000000000000000008000000000000000000000000000000000000000000000000200000000000000000000000000000000000000000000000000000020000000000000080000000000400000000000000000000010000000000000000000000000",
      "type": "0x2",
      "transactionHash": "0x03eb05099d33453555e8046ad7adf15c7ccefb775be22bd5cc02fb19ac95225f",
      "transactionIndex": "0x15",
      "blockHash": "0x86f6367af6b96217c1994ebbcf7a965e7c97e4d73e0acf18b4fc9d914bba35c6",
      "blockNumber": "0x19ebc02",
      "gasUsed": "0x25241",
      "effectiveGasPrice": "0x39538",
      "from": "0xa6b3d200cd34ca14d7579dac8b054bf50a62c37c",
      "to": "0x6323cb90555ba52ae0b37450935c56d511390787",
      "contractAddress": null,
      "l1BaseFeeScalar": "0x44d",
      "l1BlobBaseFee": "0x1",
      "l1BlobBaseFeeScalar": "0xa118b",
      "l1Fee": "0x123c2",
      "l1GasPrice": "0x8a39",
      "l1GasUsed": "0x77b"
    },
    {
      "status": "0x1",
      "cumulativeGasUsed": "0x61693e",
      "logs": [
        {
          "address": "0x6323cb90555ba52ae0b37450935c56d511390787",
          "topics": [
            "0x908210fc0149379fe25f26a14ba6965e58ae6f8b5e8bb5e1f4586b323fd79b67",
            "0x870729ce323527c7d70de6e3b4d0cf8167c8b204a3f39d2c51d3c92ccebc3edc"
          ],
          "data": "0x00000000000000000000000091b187907157431ab6d97a1015d24745c5936cee00000000000000000000000000000000000000000000000000038d7ea4c680000000000000000000000000000000000000000000000000000000000000000001",
          "blockHash": "0x86f6367af6b96217c1994ebbcf7a965e7c97e4d73e0acf18b4fc9d914bba35c6",
          "blockNumber": "0x19ebc02",
          "transactionHash": "0x2739da557a386d3ea39e655d4fb6b5fc9c8bed9cf40dec3b5592f3ec5dc8579b",
          "transactionIndex": "0x16",
          "logIndex": "0x8b",
          "removed": false
        }
      ],
      "logsBloom": "0x00000000000000000000000000000000000000000000000000000000000010000000000000000000000000000000000000000000000000000000000000000000000004000000040000000000000000000000000000000000000000000000000000000000000000000000000000000000000000000000000000000000000000000000000000000000000000000000000000000000000000000000000000000000000000000000000000000000000000000000000000000000000010400000000200000000000000000000000000000000000000000000002000000000000000000000000000000000400000000000000000000010000000000000000000000000",
      "type": "0x2",
      "transactionHash": "0x2739da557a386d3ea39e655d4fb6b5fc9c8bed9cf40dec3b5592f3ec5dc8579b",
      "transactionIndex": "0x16",
      "blockHash": "0x86f6367af6b96217c1994ebbcf7a965e7c97e4d73e0acf18b4fc9d914bba35c6",
      "blockNumber": "0x19ebc02",
      "gasUsed": "0x25241",
      "effectiveGasPrice": "0x39538",
      "from": "0xa6b3d200cd34ca14d7579dac8b054bf50a62c37c",
      "to": "0x6323cb90555ba52ae0b37450935c56d511390787",
      "contractAddress": null,
      "l1BaseFeeScalar": "0x44d",
      "l1BlobBaseFee": "0x1",
      "l1BlobBaseFeeScalar": "0xa118b",
      "l1Fee": "0x123c2",
      "l1GasPrice": "0x8a39",
      "l1GasUsed": "0x77b"
    },
    {
      "status": "0x1",
      "cumulativeGasUsed": "0x6d1650",
      "logs": [
        {
          "address": "0x6323cb90555ba52ae0b37450935c56d511390787",
          "topics": [
            "0x908210fc0149379fe25f26a14ba6965e58ae6f8b5e8bb5e1f4586b323fd79b67",
            "0x1887cd0d242fb25ce3889259bf747a4bc6ac3eb3fe083aa1d14c660f7a59c3e2"
          ],
          "data": "0x00000000000000000000000091b187907157431ab6d97a1015d24745c5936cee00000000000000000000000000000000000000000000000000038d7ea4c680000000000000000000000000000000000000000000000000000000000000000001",
          "blockHash": "0x86f6367af6b96217c1994ebbcf7a965e7c97e4d73e0acf18b4fc9d914bba35c6",
          "blockNumber": "0x19ebc02",
          "transactionHash": "0x1b7df70069e1ca5b79d928d821c7bcff72a9b8e3752b15e26e4b00f8542d5339",
          "transactionIndex": "0x19",
          "logIndex": "0xa0",
          "removed": false
        }
      ],
      "logsBloom": "0x00000000000000000000000000000000000000000000000000000000000010000000000000000000000000000000000004000000000000000000000000000000000004000000040000000000000000000000000000000000000000000000000000000000000000000000000000000000000000000000000000000000000000000000000000000000000000000000000000000000000000002000000000000000000000000000000000000000000000000000000000000000000000000000000200000000000000000000000000000000000000000000000000000000000000000000000000000000400000000000080000000010000000000000000000000000",
      "type": "0x2",
      "transactionHash": "0x1b7df70069e1ca5b79d928d821c7bcff72a9b8e3752b15e26e4b00f8542d5339",
      "transactionIndex": "0x19",
      "blockHash": "0x86f6367af6b96217c1994ebbcf7a965e7c97e4d73e0acf18b4fc9d914bba35c6",
      "blockNumber": "0x19ebc02",
      "gasUsed": "0x25241",
      "effectiveGasPrice": "0x39538",
      "from": "0xa6b3d200cd34ca14d7579dac8b054bf50a62c37c",
      "to": "0x6323cb90555ba52ae0b37450935c56d511390787",
      "contractAddress": null,
      "l1BaseFeeScalar": "0x44d",
      "l1BlobBaseFee": "0x1",
      "l1BlobBaseFeeScalar": "0xa118b",
      "l1Fee": "0x123c2",
      "l1GasPrice": "0x8a39",
      "l1GasUsed": "0x77b"
    },
    {
      "status": "0x1",
      "cumulativeGasUsed": "0x6dd1a9",
      "logs": [
        {
          "address": "0x6323cb90555ba52ae0b37450935c56d511390787",
          "topics": [
            "0x603c893fe5a7abb065fd37be5d74b7570a708f31c5b02b409779f57f8ab59788",
            "0x88ef8906c27d3e6af98ad7a5cf53c31a771fadb410370749ce5bf0cdb279c3b6"
          ],
          "data": "0x000000000000000000000000000000000000000000000000000009184e72a000",
          "blockHash": "0x86f6367af6b96217c1994ebbcf7a965e7c97e4d73e0acf18b4fc9d914bba35c6",
          "blockNumber": "0x19ebc02",
          "transactionHash": "0x5ca33ecd6341991884f8a3c32ff3fad1ec7564f4a6b40858001199f3d6b78f16",
          "transactionIndex": "0x1a",
          "logIndex": "0xa1",
          "removed": false
        }
      ],
      "logsBloom": "0x20000000000000000000000000000000000000000000000000000000200000000000000000000000000000000000000000000000000000000000000000000000000004000000040000000000000000000000000000000000200000000000000000000080000000000000000000010000000000000000000000000000000000000000000800000000000000000000000000000000000000000000000000000000000000000000000000000000000000000000000000000000000000000000000000000000000000000000000000000000000000000000000000000000000000000000000000000000000000000000000000000010000000000000000000000000",
      "type": "0x2",
      "transactionHash": "0x5ca33ecd6341991884f8a3c32ff3fad1ec7564f4a6b40858001199f3d6b78f16",
      "transactionIndex": "0x1a",
      "blockHash": "0x86f6367af6b96217c1994ebbcf7a965e7c97e4d73e0acf18b4fc9d914bba35c6",
      "blockNumber": "0x19ebc02",
      "gasUsed": "0xbb59",
      "effectiveGasPrice": "0x39538",
      "from": "0xa6b3d200cd34ca14d7579dac8b054bf50a62c37c",
      "to": "0x6323cb90555ba52ae0b37450935c56d511390787",
      "contractAddress": null,
      "l1BaseFeeScalar": "0x44d",
      "l1BlobBaseFee": "0x1",
      "l1BlobBaseFeeScalar": "0xa118b",
      "l1Fee": "0xf3c0",
      "l1GasPrice": "0x8a39",
      "l1GasUsed": "0x640"
    },
    {
      "status": "0x1",
      "cumulativeGasUsed": "0x3d0af",
      "logs": [
        {
          "address": "0x6323cb90555ba52ae0b37450935c56d511390787",
          "topics": [
            "0x603c893fe5a7abb065fd37be5d74b7570a708f31c5b02b409779f57f8ab59788",
            "0x924cafe3f4668225141f2f2252ca17f67b629c2ff1426ac8ff340549f1266789"
          ],
          "data": "0x000000000000000000000000000000000000000000000000000009184e72a000",
          "blockHash": "0x051bcde1b2a4f1348c8279847016ec1712cd291faa54cc3707f474e75e07515d",
          "blockNumber": "0x19ebc03",
          "transactionHash": "0x88440880373cbaaa81add9faf562c634dd4195c966f7626f83193d46908dab62",
          "transactionIndex": "0x2",
          "logIndex": "0x4",
          "removed": false
        }
      ],
      "logsBloom": "0x00000000000000000000000000000000000000000000000000000000200000000000000000000000000000000000000000000000000000000000000000000000000004000000040000000000000000000000000000000000000000000000000000000080000000000000000000010000000000000000000000000000000000000000000000000000000000000000000000000000000000000000000000000000000000000000008000000000000000000000000000000000000000000000000000000000000000000000000000000000000000000000000000000020000000000000080000000000000000000000000000000010000000000000000000000000",
      "type": "0x2",
      "transactionHash": "0x88440880373cbaaa81add9faf562c634dd4195c966f7626f83193d46908dab62",
      "transactionIndex": "0x2",
      "blockHash": "0x051bcde1b2a4f1348c8279847016ec1712cd291faa54cc3707f474e75e07515d",
      "blockNumber": "0x19ebc03",
      "gasUsed": "0xbb59",
      "effectiveGasPrice": "0x39538",
      "from": "0xa6b3d200cd34ca14d7579dac8b054bf50a62c37c",
      "to": "0x6323cb90555ba52ae0b37450935c56d511390787",
      "contractAddress": null,
      "l1BaseFeeScalar": "0x44d",
      "l1BlobBaseFee": "0x1",
      "l1BlobBaseFeeScalar": "0xa118b",
      "l1Fee": "0xf3c0",
      "l1GasPrice": "0x8a39",
      "l1GasUsed": "0x640"
    },
    {
      "status": "0x1",
      "cumulativeGasUsed": "0x48c08",
      "logs": [
        {
          "address": "0x6323cb90555ba52ae0b37450935c56d511390787",
          "topics": [
            "0x603c893fe5a7abb065fd37be5d74b7570a708f31c5b02b409779f57f8ab59788",
            "0x870729ce323527c7d70de6e3b4d0cf8167c8b204a3f39d2c51d3c92ccebc3edc"
          ],
          "data": "0x000000000000000000000000000000000000000000000000000009184e72a000",
          "blockHash": "0x051bcde1b2a4f1348c8279847016ec1712cd291faa54cc3707f474e75e07515d",
          "blockNumber": "0x19ebc03",
          "transactionHash": "0xda0f77595227f09554fcebd36e77990bade74e9cdf7d2041e929b312ce4e22c6",
          "transactionIndex": "0x3",
          "logIndex": "0x5",
          "removed": false
        }
      ],
      "logsBloom": "0x00000000000000000000000000000000000000000000000000000000200000000000000000000000000000000000000000000000000000000000000000000000000004000000040000000000000000000000000000000000000000000000000000000080000000000000000000010000000000000000000000000000000000000000000000000000000000000000000000000000000000000000000000000000000000000000000000000000000000000000000000000000000010400000000000000000000000000000000000000000000000000000002000000000000000000000000000000000000000000000000000000010000000000000000000000000",
      "type": "0x2",
      "transactionHash": "0xda0f77595227f09554fcebd36e77990bade74e9cdf7d2041e929b312ce4e22c6",
      "transactionIndex": "0x3",
      "blockHash": "0x051bcde1b2a4f1348c8279847016ec1712cd291faa54cc3707f474e75e07515d",
      "blockNumber": "0x19ebc03",
      "gasUsed": "0xbb59",
      "effectiveGasPrice": "0x39538",
      "from": "0xa6b3d200cd34ca14d7579dac8b054bf50a62c37c",
      "to": "0x6323cb90555ba52ae0b37450935c56d511390787",
      "contractAddress": null,
      "l1BaseFeeScalar": "0x44d",
      "l1BlobBaseFee": "0x1",
      "l1BlobBaseFeeScalar": "0xa118b",
      "l1Fee": "0xf3c0",
      "l1GasPrice": "0x8a39",
      "l1GasUsed": "0x640"
    },
    {
      "status": "0x1",
      "cumulativeGasUsed": "0x54761",
      "logs": [
        {
          "address": "0x6323cb90555ba52ae0b37450935c56d511390787",
          "topics": [
            "0x603c893fe5a7abb065fd37be5d74b7570a708f31c5b02b409779f57f8ab59788",
            "0x1887cd0d242fb25ce3889259bf747a4bc6ac3eb3fe083aa1d14c660f7a59c3e2"
          ],
          "data": "0x000000000000000000000000000000000000000000000000000009184e72a000",
          "blockHash": "0x051bcde1b2a4f1348c8279847016ec1712cd291faa54cc3707f474e75e07515d",
          "blockNumber": "0x19ebc03",
          "transactionHash": "0xf2cacbfe676f9644418da4d9fe78b6dfa8490431523c7df5aef1255559e17c11",
          "transactionIndex": "0x4",
          "logIndex": "0x6",
          "removed": false
        }
      ],
      "logsBloom": "0x00000000000000000000000000000000000000000000000000000000200000000000000000000000000000000000000004000000000000000000000000000000000004000000040000000000000000000000000000000000000000000000000000000080000000000000000000010000000000000000000000000000000000000000000000000000000000000000000000000000000000002000000000000000000000000000000000000000000000000000000000000000000000000000000000000000000000000000000000000000000000000000000000000000000000000000000000000000000000000000080000000010000000000000000000000000",
      "type": "0x2",
      "transactionHash": "0xf2cacbfe676f9644418da4d9fe78b6dfa8490431523c7df5aef1255559e17c11",
      "transactionIndex": "0x4",
      "blockHash": "0x051bcde1b2a4f1348c8279847016ec1712cd291faa54cc3707f474e75e07515d",
      "blockNumber": "0x19ebc03",
      "gasUsed": "0xbb59",
      "effectiveGasPrice": "0x39538",
      "from": "0xa6b3d200cd34ca14d7579dac8b054bf50a62c37c",
      "to": "0x6323cb90555ba52ae0b37450935c56d511390787",
      "contractAddress": null,
      "l1BaseFeeScalar": "0x44d",
      "l1BlobBaseFee": "0x1",
      "l1BlobBaseFeeScalar": "0xa118b",
      "l1Fee": "0xf3c0",
      "l1GasPrice": "0x8a39",
      "l1GasUsed": "0x640"
    }
  ],
  "libraries": [],
  "pending": [],
  "returns": {},
  "timestamp": 1750128359,
  "chain": 84532,
  "commit": "e3173ca"
}