{
  "transactions": [
    {
      "hash": "0x709e5f17470d2eb52c0de68a3e44ae8fb79566caf4e5aa6ec14dc23bdafef439",
      "transactionType": "CREATE",
      "contractName": "RewardDistributor",
      "contractAddress": "0x55068815b3a50e347afdedcf9eb9184c466a2f21",
      "function": null,
      "arguments": null,
      "transaction": {
        "from": "0xa6b3d200cd34ca14d7579dac8b054bf50a62c37c",
        "gas": "0x1a4949",
        "value": "0x0",
        "input": "0x608080604052346071573315605e575f8054336001600160a01b0319821681178355916001600160a01b03909116907f8be0079c531659141344cd1fd0a4f28419497f9722a3daafe3b4186f6b6457e09080a361169790816100768239f35b631e4fbdf760e01b5f525f60045260245ffd5b5f80fdfe6080806040526004361015610012575f80fd5b5f905f3560e01c908162f96434146110715750806309f2c01914610fac5780630b36db1514610dde578063179aae8814610db85780632073de5c14610d3157806323be345c14610d0b5780632636e8a014610ae5578063274ee47514610a3d578063312e109c1461093a57806348f60dfd146108125780634e210544146107ec57806368b2c40c1461077857806369883b4e14610740578063715018a6146106e95780637790ddc6146105205780638209ec501461046b5780638da5cb5b146104455780638ff29cfe146104085780639002392e146103a057806395ccea671461036757806399fc65d414610309578063b79f12b2146102e2578063bb13c3cb146102bb578063d88ff1f414610205578063ec01da10146101db5763f2fde38b1461013b575f80fd5b346101d85760203660031901126101d8576001600160a01b0361015c6111a0565b610164611475565b1680156101ac576001600160a01b038254826001600160a01b03198216178455167f8be0079c531659141344cd1fd0a4f28419497f9722a3daafe3b4186f6b6457e08380a380f35b6024827f1e4fbdf700000000000000000000000000000000000000000000000000000000815280600452fd5b80fd5b50346101d85760203660031901126101d85760406020916004358152600483522054604051908152f35b50346101d857806003193601126101d85760405180602060025491828152018091600285527f405787fa12a823e0f2b7631cc41b3ba8828b3321ca811111fa75cd3aa3bb5ace90855b8181106102a55750505082610264910383611231565b604051928392602084019060208552518091526040840192915b81811061028c575050500390f35b825184528594506020938401939092019160010161027e565b825484526020909301926001928301920161024e565b50346101d857806003193601126101d85760206001600160a01b03600a5416604051908152f35b50346101d857806003193601126101d85760206001600160a01b0360065416604051908152f35b50346101d85760403660031901126101d8576103236111a0565b6024358015158103610363576001600160a01b0361036092610343611475565b1683526005602052604083209060ff801983541691151516179055565b80f35b8280fd5b50346101d85760403660031901126101d8576103606103846111a0565b61038c611475565b602435906001600160a01b033391166114b4565b50346101d85760403660031901126101d8576001600160a01b0360406103c461118a565b92600435815260036020522091165f52602052608060405f208054906001810154906003600282015491015491604051938452602084015260408301526060820152f35b50346101d85760203660031901126101d85760ff60406020926001600160a01b036104316111a0565b168152600584522054166040519015158152f35b50346101d857806003193601126101d8576001600160a01b036020915416604051908152f35b50346101d85760203660031901126101d8576001600160a01b0361048d6111a0565b610495611475565b1680156104dc576020817f1be038705a495dd627af47e6738a26c370e9ee5df6e53f67515bd987c64d0fdd926001600160a01b0319600a541617600a55604051908152a180f35b606460405162461bcd60e51b815260206004820152601a60248201527f496e76616c69642056434f5020746f6b656e20616464726573730000000000006044820152fd5b50346106695760203660031901126106695760043561053f3382611399565b805f52600360205260405f206001600160a01b0333165f52602052600160405f2001908154918261056e578380f35b5f9055805f52600160205260405f206002810161058c848254611287565b90558260ff600683015460081c16806106cb575b156106b157506001600160a01b03600a54161561066d57546001600160a01b0316803b15610669576040517f40c10f1900000000000000000000000000000000000000000000000000000000815233600482015260248101849052905f908290604490829084905af1801561065e57610649575b505b6040519182527ffec539b3c42d74cd492c3ecf7966bf014b327beef98e935cdc3ec5e54a6901c760203393a35f80808380f35b6106569193505f90611231565b5f915f610614565b6040513d5f823e3d90fd5b5f80fd5b606460405162461bcd60e51b815260206004820152601260248201527f56434f5020746f6b656e206e6f742073657400000000000000000000000000006044820152fd5b6106c6916001600160a01b03339154166114b4565b610616565b506001600160a01b038254166001600160a01b03600a5416146105a0565b34610669575f36600319011261066957610701611475565b5f6001600160a01b0381546001600160a01b031981168355167f8be0079c531659141344cd1fd0a4f28419497f9722a3daafe3b4186f6b6457e08280a3005b3461066957602036600319011261066957600435600254811015610669576107696020916111cc565b90549060031b1c604051908152f35b346106695760207facefc4a7d159e33f5c2d6facc53467d06090e50ccfa880ef241dc1d1a9200f6c6107a9366111b6565b6107b4939193611475565b835f526001825260405f206107c885611294565b6005820155600442910155835f526001825280600360405f200155604051908152a2005b34610669575f3660031901126106695760206001600160a01b0360085416604051908152f35b3461066957610820366111b6565b815f52600160205260405f2060068101549160ff8316156108f657600160209260ff7f603c893fe5a7abb065fd37be5d74b7570a708f31c5b02b409779f57f8ab597889560081c165f14610886570161087a828254611287565b90555b604051908152a2005b6108e36001600160a01b03825416604051907f23b872dd0000000000000000000000000000000000000000000000000000000087830152336024830152306044830152856064830152606482526108de608483611231565b61150b565b016108ef828254611287565b905561087d565b606460405162461bcd60e51b815260206004820152600f60248201527f506f6f6c206e6f742061637469766500000000000000000000000000000000006044820152fd5b34610669576040366003190112610669576109dd60043561095961118a565b90805f52600360205260405f206001600160a01b0383165f52602052602060405f20926040519261098984611215565b8454845260018501548385015260606003600287015496876040880152015494019384526040519586928392623e590d60e21b8452600484019092916001600160a01b036020916040840195845216910152565b0381305afa90811561065e575f91610a08575b60609350519060405192835260208301526040820152f35b90506020833d602011610a35575b81610a2360209383611231565b810103126106695760609251906109f0565b3d9150610a16565b3461066957608036600319011261066957610a566111a0565b610a5e61118a565b90604435906001600160a01b03821680920361066957606435926001600160a01b038416809403610669576001600160a01b038092610a9b611475565b166001600160a01b03196006541617600655166001600160a01b031960075416176007556001600160a01b031960085416176008556001600160a01b031960095416176009555f80f35b3461066957606036600319011261066957600435610b0161118a565b60443590610b0d611475565b825f5260016020526001600160a01b0360405f205416610cc7576001600160a01b03168015610c83576001600160a01b03600a5416811490604051610b51816111f8565b818152602081015f8152610bea600660408401935f8552606081018881526080820142815260a08301915f835260c08401976001895260e08501978b89528d5f5260016020526001600160a01b0360405f209651166001600160a01b03198754161786555160018601555160028501555160038401555160048301555160058201550192511515839060ff801983541691151516179055565b51815461ff00191690151560081b61ff00161790556002549168010000000000000000831015610c6f577f908210fc0149379fe25f26a14ba6965e58ae6f8b5e8bb5e1f4586b323fd79b6793610c48846001606096016002556111cc565b81549060031b9088821b915f19901b191617905560405192835260208301526040820152a2005b634e487b7160e01b5f52604160045260245ffd5b606460405162461bcd60e51b815260206004820152601460248201527f496e76616c69642072657761726420746f6b656e0000000000000000000000006044820152fd5b606460405162461bcd60e51b815260206004820152601360248201527f506f6f6c20616c726561647920657869737473000000000000000000000000006044820152fd5b34610669575f3660031901126106695760206001600160a01b0360095416604051908152f35b34610669576020366003190112610669576004355f52600160205261010060405f2060ff6001600160a01b0382541691600181015490600281015460038201546004830154916006600585015494015494604051978852602088015260408701526060860152608085015260a0840152818116151560c084015260081c16151560e0820152f35b34610669575f3660031901126106695760206001600160a01b0360075416604051908152f35b3461066957608036600319011261066957600435610dfa61118a565b90604435916064359081151580830361066957335f52600560205260ff60405f20541615610f6857610e2c8285611399565b835f52600360205260405f206001600160a01b0383165f5260205260405f20925f14610ebf576040916001600160a01b03918460027f9f0a7aaf8d18c024e8123bdcd157b0f6e0f42892a4ea14a2becc88a320a799229601610e8f898254611287565b9055865f526004602052845f20610ea7898254611287565b90555b600342910155835196875260208701521693a3005b6002830191825491868310610f24577f9f0a7aaf8d18c024e8123bdcd157b0f6e0f42892a4ea14a2becc88a320a7992294604094610f05896001600160a01b0396611253565b9055865f526004602052845f20610f1d898254611253565b9055610eaa565b606460405162461bcd60e51b815260206004820152601260248201527f496e73756666696369656e74207374616b6500000000000000000000000000006044820152fd5b606460405162461bcd60e51b815260206004820152600e60248201527f4e6f7420617574686f72697a65640000000000000000000000000000000000006044820152fd5b346106695760203660031901126106695760c0600435805f52600160205260405f2090604051610fdb816111f8565b6001600160a01b0383541692838252600181015492836020840152600282015490816040850152600660038401549384606087015260048101546080870152600581015460a087015201549360e060ff898301968181161515885260081c1615159101525f52600460205260405f20549251151593604051958652602086015260408501526060840152608083015260a0820152f35b34610669576040366003190112610669576111826020916004359061109461118a565b90825f526001855260e060ff600660405f206110af856111f8565b6001600160a01b038154168552600181015489860152600281015460408601526003810154606086015260048101546080860152600581015460a08601520154818116151560c085015260081c161515910152815f52600384526001600160a01b0360405f2091165f528352670de0b6b3a764000061117960405f206111736040519161113b83611215565b8054835261116960018201549689850197885260036002840154936040870194855201546060860152611294565b9051925190611253565b90611274565b04905190611287565b604051908152f35b602435906001600160a01b038216820361066957565b600435906001600160a01b038216820361066957565b6040906003190112610669576004359060243590565b6002548110156111e45760025f5260205f2001905f90565b634e487b7160e01b5f52603260045260245ffd5b610100810190811067ffffffffffffffff821117610c6f57604052565b6080810190811067ffffffffffffffff821117610c6f57604052565b90601f8019910116810190811067ffffffffffffffff821117610c6f57604052565b9190820391821161126057565b634e487b7160e01b5f52601160045260245ffd5b8181029291811591840414171561126057565b9190820180921161126057565b805f52600160205260405f20604051906112ad826111f8565b6001600160a01b0381541682526001810154602083015260028101546040830152600381015490606083019182526004810154926080810193845260e060ff600660058501549460a085019586520154818116151560c085015260081c161515910152835f52600460205260405f205415611391579061133361133b9251935142611253565b905190611274565b91670de0b6b3a7640000830292808404670de0b6b3a76400001490151715611260575f52600460205260405f2054801561137d5761137a920490611287565b90565b634e487b7160e01b5f52601260045260245ffd5b925050505190565b90815f52600160205260405f20906113b083611294565b91600581019283556004429101556001600160a01b0381166113d157505050565b602061142591845f526003825260405f206001600160a01b0382165f52825260405f20946040519384928392623e590d60e21b8452600484019092916001600160a01b036020916040840195845216910152565b0381305afa90811561065e575f91611443575b506001830155549055565b90506020813d60201161146d575b8161145e60209383611231565b8101031261066957515f611438565b3d9150611451565b6001600160a01b035f5416330361148857565b7f118cdaa7000000000000000000000000000000000000000000000000000000005f523360045260245ffd5b6040517fa9059cbb0000000000000000000000000000000000000000000000000000000060208201526001600160a01b03929092166024830152604480830193909352918152611509916108de606483611231565b565b5f6001600160a01b038192169260208151910182855af13d156115c9573d67ffffffffffffffff8111610c6f5761156491604051916115546020601f19601f8401160184611231565b82523d5f602084013e5b836115d5565b80519081151591826115a5575b505061157a5750565b7f5274afe7000000000000000000000000000000000000000000000000000000005f5260045260245ffd5b81925090602091810103126106695760200151801590811503610669575f80611571565b6115649060609061155e565b9061161257508051156115ea57805190602001fd5b7f1425ea42000000000000000000000000000000000000000000000000000000005f5260045ffd5b81511580611658575b611623575090565b6001600160a01b03907f9996b315000000000000000000000000000000000000000000000000000000005f521660045260245ffd5b50803b1561161b56fea2646970667358221220d1fcdd1bcf6e42d0710f1bf9b1504c4f9f4b952cedc3fe1df4b067681adea8f264736f6c634300081a0033",
        "nonce": "0x907",
        "chainId": "0x14a34"
      },
      "additionalContracts": [],
      "isFixedGasLimit": false
    },
    {
      "hash": "0xe42367ad90f1cd0183df78f62b8f4a5ed7c6a7331efc3bed03430a60549c7212",
      "transactionType": "CALL",
      "contractName": "RewardDistributor",
      "contractAddress": "0x55068815b3a50e347afdedcf9eb9184c466a2f21",
      "function": "setVCOPToken(address)",
      "arguments": [
        "0xdFc3e6bd819Ade53DE858Ce087923fFcA5A16027"
      ],
      "transaction": {
        "from": "0xa6b3d200cd34ca14d7579dac8b054bf50a62c37c",
        "to": "0x55068815b3a50e347afdedcf9eb9184c466a2f21",
        "gas": "0xff6f",
        "value": "0x0",
        "input": "0x8209ec50000000000000000000000000dfc3e6bd819ade53de858ce087923ffca5a16027",
        "nonce": "0x908",
        "chainId": "0x14a34"
      },
      "additionalContracts": [],
      "isFixedGasLimit": false
    },
    {
      "hash": "0x2bc03fd96dd45aaa3a7b5cdfe6ae91544845fcd42557dc3832bda0758c43ca51",
      "transactionType": "CALL",
      "contractName": null,
      "contractAddress": "0xdfc3e6bd819ade53de858ce087923ffca5a16027",
      "function": "setMinter(address,bool)",
      "arguments": [
        "0x55068815B3A50e347aFDEdcf9EB9184C466a2F21",
        "true"
      ],
      "transaction": {
        "from": "0xa6b3d200cd34ca14d7579dac8b054bf50a62c37c",
        "to": "0xdfc3e6bd819ade53de858ce087923ffca5a16027",
        "gas": "0x10274",
        "value": "0x0",
        "input": "0xcf456ae700000000000000000000000055068815b3a50e347afdedcf9eb9184c466a2f210000000000000000000000000000000000000000000000000000000000000001",
        "nonce": "0x909",
        "chainId": "0x14a34"
      },
      "additionalContracts": [],
      "isFixedGasLimit": false
    },
    {
      "hash": "0x18b1b4849b3340c9e27e5a9e87e7e184dd6ad404186f0bae36b20e9eb0ad026c",
      "transactionType": "CALL",
      "contractName": "RewardDistributor",
      "contractAddress": "0x55068815b3a50e347afdedcf9eb9184c466a2f21",
      "function": "setProtocolComponents(address,address,address,address)",
      "arguments": [
        "0x360e56C99eC8441F5bf98518261036A32CcB28Ec",
        "0x7602d3D5468562BA82d03a65ca28B5857CD0652D",
        "0x0D8B01E7e25AE121C32F06D02ea22ce362125351",
        "0x37CEA27d7825793C5D5F033f7bC90f065307b147"
      ],
      "transaction": {
        "from": "0xa6b3d200cd34ca14d7579dac8b054bf50a62c37c",
        "to": "0x55068815b3a50e347afdedcf9eb9184c466a2f21",
        "gas": "0x265f7",
        "value": "0x0",
        "input": "0x274ee475000000000000000000000000360e56c99ec8441f5bf98518261036a32ccb28ec0000000000000000000000007602d3d5468562ba82d03a65ca28b5857cd0652d0000000000000000000000000d8b01e7e25ae121c32f06d02ea22ce36212535100000000000000000000000037cea27d7825793c5d5f033f7bc90f065307b147",
        "nonce": "0x90a",
        "chainId": "0x14a34"
      },
      "additionalContracts": [],
      "isFixedGasLimit": false
    },
    {
      "hash": "0x20e567f68c7f8fa718195da451ea342431f9d9313b6e8e8fb5cc455387dda49b",
      "transactionType": "CALL",
      "contractName": "RewardDistributor",
      "contractAddress": "0x55068815b3a50e347afdedcf9eb9184c466a2f21",
      "function": "setAuthorizedUpdater(address,bool)",
      "arguments": [
        "0x7602d3D5468562BA82d03a65ca28B5857CD0652D",
        "true"
      ],
      "transaction": {
        "from": "0xa6b3d200cd34ca14d7579dac8b054bf50a62c37c",
        "to": "0x55068815b3a50e347afdedcf9eb9184c466a2f21",
        "gas": "0xfbb6",
        "value": "0x0",
        "input": "0x99fc65d40000000000000000000000007602d3d5468562ba82d03a65ca28b5857cd0652d0000000000000000000000000000000000000000000000000000000000000001",
        "nonce": "0x90b",
        "chainId": "0x14a34"
      },
      "additionalContracts": [],
      "isFixedGasLimit": false
    },
    {
      "hash": "0x033014fbeb217fe9080ee282d0741966e73140d4efa7b9b5bded583cc8af7bf6",
      "transactionType": "CALL",
      "contractName": "RewardDistributor",
      "contractAddress": "0x55068815b3a50e347afdedcf9eb9184c466a2f21",
      "function": "setAuthorizedUpdater(address,bool)",
      "arguments": [
        "0x0D8B01E7e25AE121C32F06D02ea22ce362125351",
        "true"
      ],
      "transaction": {
        "from": "0xa6b3d200cd34ca14d7579dac8b054bf50a62c37c",
        "to": "0x55068815b3a50e347afdedcf9eb9184c466a2f21",
        "gas": "0xfbb6",
        "value": "0x0",
        "input": "0x99fc65d40000000000000000000000000d8b01e7e25ae121c32f06d02ea22ce3621253510000000000000000000000000000000000000000000000000000000000000001",
        "nonce": "0x90c",
        "chainId": "0x14a34"
      },
      "additionalContracts": [],
      "isFixedGasLimit": false
    },
    {
      "hash": "0xca6162c3cb7a7b8924903de6c69fba39a786bb4ee9f49f6ded1227980265921b",
      "transactionType": "CALL",
      "contractName": "RewardDistributor",
      "contractAddress": "0x55068815b3a50e347afdedcf9eb9184c466a2f21",
      "function": "setAuthorizedUpdater(address,bool)",
      "arguments": [
        "0x360e56C99eC8441F5bf98518261036A32CcB28Ec",
        "true"
      ],
      "transaction": {
        "from": "0xa6b3d200cd34ca14d7579dac8b054bf50a62c37c",
        "to": "0x55068815b3a50e347afdedcf9eb9184c466a2f21",
        "gas": "0xfbb6",
        "value": "0x0",
        "input": "0x99fc65d4000000000000000000000000360e56c99ec8441f5bf98518261036a32ccb28ec0000000000000000000000000000000000000000000000000000000000000001",
        "nonce": "0x90d",
        "chainId": "0x14a34"
      },
      "additionalContracts": [],
      "isFixedGasLimit": false
    },
    {
      "hash": "0x09bfb289c3408197294f3cf2040e309746fce16180a5b1541831084e4c50d634",
      "transactionType": "CALL",
      "contractName": "RewardDistributor",
      "contractAddress": "0x55068815b3a50e347afdedcf9eb9184c466a2f21",
      "function": "setAuthorizedUpdater(address,bool)",
      "arguments": [
        "0x37CEA27d7825793C5D5F033f7bC90f065307b147",
        "true"
      ],
      "transaction": {
        "from": "0xa6b3d200cd34ca14d7579dac8b054bf50a62c37c",
        "to": "0x55068815b3a50e347afdedcf9eb9184c466a2f21",
        "gas": "0xfbb6",
        "value": "0x0",
        "input": "0x99fc65d400000000000000000000000037cea27d7825793c5d5f033f7bc90f065307b1470000000000000000000000000000000000000000000000000000000000000001",
        "nonce": "0x90e",
        "chainId": "0x14a34"
      },
      "additionalContracts": [],
      "isFixedGasLimit": false
    },
    {
      "hash": "0x0c55a2c23d0e2915029408b5c66546b9b0da1d04ce0e8444c5b6b0bc8be8943b",
      "transactionType": "CALL",
      "contractName": "RewardDistributor",
      "contractAddress": "0x55068815b3a50e347afdedcf9eb9184c466a2f21",
      "function": "createRewardPool(bytes32,address,uint256)",
      "arguments": [
        "0x88ef8906c27d3e6af98ad7a5cf53c31a771fadb410370749ce5bf0cdb279c3b6",
        "0xdFc3e6bd819Ade53DE858Ce087923fFcA5A16027",
        "1000000000000000"
      ],
      "transaction": {
        "from": "0xa6b3d200cd34ca14d7579dac8b054bf50a62c37c",
        "to": "0x55068815b3a50e347afdedcf9eb9184c466a2f21",
        "gas": "0x3c6ba",
        "value": "0x0",
        "input": "0x2636e8a088ef8906c27d3e6af98ad7a5cf53c31a771fadb410370749ce5bf0cdb279c3b6000000000000000000000000dfc3e6bd819ade53de858ce087923ffca5a1602700000000000000000000000000000000000000000000000000038d7ea4c68000",
        "nonce": "0x90f",
        "chainId": "0x14a34"
      },
      "additionalContracts": [],
      "isFixedGasLimit": false
    },
    {
      "hash": "0xf53224336a47aa94e1c6e5722cc9e627f8971199427452efb53ed94ff740c5a8",
      "transactionType": "CALL",
      "contractName": "RewardDistributor",
      "contractAddress": "0x55068815b3a50e347afdedcf9eb9184c466a2f21",
      "function": "createRewardPool(bytes32,address,uint256)",
      "arguments": [
        "0x924cafe3f4668225141f2f2252ca17f67b629c2ff1426ac8ff340549f1266789",
        "0xdFc3e6bd819Ade53DE858Ce087923fFcA5A16027",
        "1000000000000000"
      ],
      "transaction": {
        "from": "0xa6b3d200cd34ca14d7579dac8b054bf50a62c37c",
        "to": "0x55068815b3a50e347afdedcf9eb9184c466a2f21",
        "gas": "0x334c1",
        "value": "0x0",
        "input": "0x2636e8a0924cafe3f4668225141f2f2252ca17f67b629c2ff1426ac8ff340549f1266789000000000000000000000000dfc3e6bd819ade53de858ce087923ffca5a1602700000000000000000000000000000000000000000000000000038d7ea4c68000",
        "nonce": "0x910",
        "chainId": "0x14a34"
      },
      "additionalContracts": [],
      "isFixedGasLimit": false
    },
    {
      "hash": "0x4bb3b987b9521df2026490bb5ad7ee3974630e7cb969119b57f9da39aeadab56",
      "transactionType": "CALL",
      "contractName": "RewardDistributor",
      "contractAddress": "0x55068815b3a50e347afdedcf9eb9184c466a2f21",
      "function": "createRewardPool(bytes32,address,uint256)",
      "arguments": [
        "0x870729ce323527c7d70de6e3b4d0cf8167c8b204a3f39d2c51d3c92ccebc3edc",
        "0xdFc3e6bd819Ade53DE858Ce087923fFcA5A16027",
        "1000000000000000"
      ],
      "transaction": {
        "from": "0xa6b3d200cd34ca14d7579dac8b054bf50a62c37c",
        "to": "0x55068815b3a50e347afdedcf9eb9184c466a2f21",
        "gas": "0x334c1",
        "value": "0x0",
        "input": "0x2636e8a0870729ce323527c7d70de6e3b4d0cf8167c8b204a3f39d2c51d3c92ccebc3edc000000000000000000000000dfc3e6bd819ade53de858ce087923ffca5a1602700000000000000000000000000000000000000000000000000038d7ea4c68000",
        "nonce": "0x911",
        "chainId": "0x14a34"
      },
      "additionalContracts": [],
      "isFixedGasLimit": false
    },
    {
      "hash": "0x4c65be0cfd6e1a8161abef9377e4edc4ce3fe6f9160c91731d78cdd6f8851c19",
      "transactionType": "CALL",
      "contractName": "RewardDistributor",
      "contractAddress": "0x55068815b3a50e347afdedcf9eb9184c466a2f21",
      "function": "createRewardPool(bytes32,address,uint256)",
      "arguments": [
        "0x1887cd0d242fb25ce3889259bf747a4bc6ac3eb3fe083aa1d14c660f7a59c3e2",
        "0xdFc3e6bd819Ade53DE858Ce087923fFcA5A16027",
        "1000000000000000"
      ],
      "transaction": {
        "from": "0xa6b3d200cd34ca14d7579dac8b054bf50a62c37c",
        "to": "0x55068815b3a50e347afdedcf9eb9184c466a2f21",
        "gas": "0x334c1",
        "value": "0x0",
        "input": "0x2636e8a01887cd0d242fb25ce3889259bf747a4bc6ac3eb3fe083aa1d14c660f7a59c3e2000000000000000000000000dfc3e6bd819ade53de858ce087923ffca5a1602700000000000000000000000000000000000000000000000000038d7ea4c68000",
        "nonce": "0x912",
        "chainId": "0x14a34"
      },
      "additionalContracts": [],
      "isFixedGasLimit": false
    },
    {
      "hash": "0xa0e24b5c46cfbc75200d87f322bf48817fd661fe70039047613a0f82e4cf2e6b",
      "transactionType": "CALL",
      "contractName": "RewardDistributor",
      "contractAddress": "0x55068815b3a50e347afdedcf9eb9184c466a2f21",
      "function": "addRewards(bytes32,uint256)",
      "arguments": [
        "0x88ef8906c27d3e6af98ad7a5cf53c31a771fadb410370749ce5bf0cdb279c3b6",
        "10000000000000"
      ],
      "transaction": {
        "from": "0xa6b3d200cd34ca14d7579dac8b054bf50a62c37c",
        "to": "0x55068815b3a50e347afdedcf9eb9184c466a2f21",
        "gas": "0x111fe",
        "value": "0x0",
        "input": "0x48f60dfd88ef8906c27d3e6af98ad7a5cf53c31a771fadb410370749ce5bf0cdb279c3b6000000000000000000000000000000000000000000000000000009184e72a000",
        "nonce": "0x913",
        "chainId": "0x14a34"
      },
      "additionalContracts": [],
      "isFixedGasLimit": false
    },
    {
      "hash": "0xcdd29564a61f66667fa6bb497fe9c935d165ae32bde433f48c77fd8344e57b00",
      "transactionType": "CALL",
      "contractName": "RewardDistributor",
      "contractAddress": "0x55068815b3a50e347afdedcf9eb9184c466a2f21",
      "function": "addRewards(bytes32,uint256)",
      "arguments": [
        "0x924cafe3f4668225141f2f2252ca17f67b629c2ff1426ac8ff340549f1266789",
        "10000000000000"
      ],
      "transaction": {
        "from": "0xa6b3d200cd34ca14d7579dac8b054bf50a62c37c",
        "to": "0x55068815b3a50e347afdedcf9eb9184c466a2f21",
        "gas": "0x111fe",
        "value": "0x0",
        "input": "0x48f60dfd924cafe3f4668225141f2f2252ca17f67b629c2ff1426ac8ff340549f1266789000000000000000000000000000000000000000000000000000009184e72a000",
        "nonce": "0x914",
        "chainId": "0x14a34"
      },
      "additionalContracts": [],
      "isFixedGasLimit": false
    },
    {
      "hash": "0x47fa3de5ce9c332d7739127dd56574ef9aa1549c19e5237b2d62356d6cb7da83",
      "transactionType": "CALL",
      "contractName": "RewardDistributor",
      "contractAddress": "0x55068815b3a50e347afdedcf9eb9184c466a2f21",
      "function": "addRewards(bytes32,uint256)",
      "arguments": [
        "0x870729ce323527c7d70de6e3b4d0cf8167c8b204a3f39d2c51d3c92ccebc3edc",
        "10000000000000"
      ],
      "transaction": {
        "from": "0xa6b3d200cd34ca14d7579dac8b054bf50a62c37c",
        "to": "0x55068815b3a50e347afdedcf9eb9184c466a2f21",
        "gas": "0x111fe",
        "value": "0x0",
        "input": "0x48f60dfd870729ce323527c7d70de6e3b4d0cf8167c8b204a3f39d2c51d3c92ccebc3edc000000000000000000000000000000000000000000000000000009184e72a000",
        "nonce": "0x915",
        "chainId": "0x14a34"
      },
      "additionalContracts": [],
      "isFixedGasLimit": false
    },
    {
      "hash": "0x563593aaa4e5ebdb20528ced79976ad6d8bfbf258587e77a6f4815a4c11a5982",
      "transactionType": "CALL",
      "contractName": "RewardDistributor",
      "contractAddress": "0x55068815b3a50e347afdedcf9eb9184c466a2f21",
      "function": "addRewards(bytes32,uint256)",
      "arguments": [
        "0x1887cd0d242fb25ce3889259bf747a4bc6ac3eb3fe083aa1d14c660f7a59c3e2",
        "10000000000000"
      ],
      "transaction": {
        "from": "0xa6b3d200cd34ca14d7579dac8b054bf50a62c37c",
        "to": "0x55068815b3a50e347afdedcf9eb9184c466a2f21",
        "gas": "0x111fe",
        "value": "0x0",
        "input": "0x48f60dfd1887cd0d242fb25ce3889259bf747a4bc6ac3eb3fe083aa1d14c660f7a59c3e2000000000000000000000000000000000000000000000000000009184e72a000",
        "nonce": "0x916",
        "chainId": "0x14a34"
      },
      "additionalContracts": [],
      "isFixedGasLimit": false
    }
  ],
  "receipts": [
    {
      "status": "0x1",
      "cumulativeGasUsed": "0x50a9bd",
      "logs": [
        {
          "address": "0x55068815b3a50e347afdedcf9eb9184c466a2f21",
          "topics": [
            "0x8be0079c531659141344cd1fd0a4f28419497f9722a3daafe3b4186f6b6457e0",
            "0x0000000000000000000000000000000000000000000000000000000000000000",
            "0x000000000000000000000000a6b3d200cd34ca14d7579dac8b054bf50a62c37c"
          ],
          "data": "0x",
          "blockHash": "0xfeb2aa58922a4ce40ec10704eb28385105417acc460c5370cb4b3b8c3221d5b6",
          "blockNumber": "0x19d4ca7",
          "blockTimestamp": "0x684df82e",
          "transactionHash": "0x709e5f17470d2eb52c0de68a3e44ae8fb79566caf4e5aa6ec14dc23bdafef439",
          "transactionIndex": "0x10",
          "logIndex": "0x91",
          "removed": false
        }
      ],
      "logsBloom": "0x00000000000000000000000400000000000000000000000002800000000000000000000000000000000000000000000000000000000000000000000000000000000000000000000000000000000000000001000000000000000000000000000000000000020000000000000000000800000000000000000000000000000000400000000000000000000000000000000000000000000000000000000000000000000000000000000000000000000000000000000000000000000000000000000000000040000000000000020400000000000000000000000000000000000020000000000000000000000000000000004000000000000000000000000000000000",
      "type": "0x2",
      "transactionHash": "0x709e5f17470d2eb52c0de68a3e44ae8fb79566caf4e5aa6ec14dc23bdafef439",
      "transactionIndex": "0x10",
      "blockHash": "0xfeb2aa58922a4ce40ec10704eb28385105417acc460c5370cb4b3b8c3221d5b6",
      "blockNumber": "0x19d4ca7",
      "gasUsed": "0x143860",
      "effectiveGasPrice": "0x1c5a3",
      "from": "0xa6b3d200cd34ca14d7579dac8b054bf50a62c37c",
      "to": null,
      "contractAddress": "0x55068815b3a50e347afdedcf9eb9184c466a2f21",
      "l1BaseFeeScalar": "0x44d",
      "l1BlobBaseFee": "0x1",
      "l1BlobBaseFeeScalar": "0xa118b",
      "l1Fee": "0x33d2f35",
      "l1GasPrice": "0xe0480",
      "l1GasUsed": "0xd1dc"
    },
    {
      "status": "0x1",
      "cumulativeGasUsed": "0x5162ac",
      "logs": [
        {
          "address": "0x55068815b3a50e347afdedcf9eb9184c466a2f21",
          "topics": [
            "0x1be038705a495dd627af47e6738a26c370e9ee5df6e53f67515bd987c64d0fdd"
          ],
          "data": "0x000000000000000000000000dfc3e6bd819ade53de858ce087923ffca5a16027",
          "blockHash": "0xfeb2aa58922a4ce40ec10704eb28385105417acc460c5370cb4b3b8c3221d5b6",
          "blockNumber": "0x19d4ca7",
          "blockTimestamp": "0x684df82e",
          "transactionHash": "0xe42367ad90f1cd0183df78f62b8f4a5ed7c6a7331efc3bed03430a60549c7212",
          "transactionIndex": "0x11",
          "logIndex": "0x92",
          "removed": false
        }
      ],
      "logsBloom": "0x00000000000000000000000000000200000000000000000000000000000000000000000000000000000000000000000000000000000000000000000000000000000000000000000000000000000000000000000000000000000000000000000000000000000000000000000000000000000000000000000000000000000000000000000000000000000000000000000000000000000000000000000000040000000000000000000000000000000000000000000000000800000000000000000000000000000000000000020400000000000000000000000000000000000000000000000000000000000000000000004000000000000000000000000000000000",
      "type": "0x2",
      "transactionHash": "0xe42367ad90f1cd0183df78f62b8f4a5ed7c6a7331efc3bed03430a60549c7212",
      "transactionIndex": "0x11",
      "blockHash": "0xfeb2aa58922a4ce40ec10704eb28385105417acc460c5370cb4b3b8c3221d5b6",
      "blockNumber": "0x19d4ca7",
      "gasUsed": "0xb8ef",
      "effectiveGasPrice": "0x1c5a3",
      "from": "0xa6b3d200cd34ca14d7579dac8b054bf50a62c37c",
      "to": "0x55068815b3a50e347afdedcf9eb9184c466a2f21",
      "contractAddress": null,
      "l1BaseFeeScalar": "0x44d",
      "l1BlobBaseFee": "0x1",
      "l1BlobBaseFeeScalar": "0xa118b",
      "l1Fee": "0x18b1c2",
      "l1GasPrice": "0xe0480",
      "l1GasUsed": "0x640"
    },
    {
      "status": "0x1",
      "cumulativeGasUsed": "0x521dcb",
      "logs": [
        {
          "address": "0xdfc3e6bd819ade53de858ce087923ffca5a16027",
          "topics": [
            "0xb21afb9ce9be0a676f8f317ff0ca072fb89a4f8ce2d1b6fe80f8755c14f1cb19"
          ],
          "data": "0x00000000000000000000000055068815b3a50e347afdedcf9eb9184c466a2f210000000000000000000000000000000000000000000000000000000000000001",
          "blockHash": "0xfeb2aa58922a4ce40ec10704eb28385105417acc460c5370cb4b3b8c3221d5b6",
          "blockNumber": "0x19d4ca7",
          "blockTimestamp": "0x684df82e",
          "transactionHash": "0x2bc03fd96dd45aaa3a7b5cdfe6ae91544845fcd42557dc3832bda0758c43ca51",
          "transactionIndex": "0x12",
          "logIndex": "0x93",
          "removed": false
        }
      ],
      "logsBloom": "0x00000000000000000000000000000000000000000000000000000000000000000000000000000000000000000000000000000000000000040000000000000080000000000000000000000000000000000000000000000000000000000000000000000000000000000000000000000000000000000000000000000000000000000000000000000008000000000000000000000000000000000000200000000000040000000000000000000000000000000000000002000000000000000000000000000000000000000000000000000000000000000000000000000000000000000000000000000000000000000000000000000000000000000000000000000000",
      "type": "0x2",
      "transactionHash": "0x2bc03fd96dd45aaa3a7b5cdfe6ae91544845fcd42557dc3832bda0758c43ca51",
      "transactionIndex": "0x12",
      "blockHash": "0xfeb2aa58922a4ce40ec10704eb28385105417acc460c5370cb4b3b8c3221d5b6",
      "blockNumber": "0x19d4ca7",
      "gasUsed": "0xbb1f",
      "effectiveGasPrice": "0x1c5a3",
      "from": "0xa6b3d200cd34ca14d7579dac8b054bf50a62c37c",
      "to": "0xdfc3e6bd819ade53de858ce087923ffca5a16027",
      "contractAddress": null,
      "l1BaseFeeScalar": "0x44d",
      "l1BlobBaseFee": "0x1",
      "l1BlobBaseFeeScalar": "0xa118b",
      "l1Fee": "0x18b1c2",
      "l1GasPrice": "0xe0480",
      "l1GasUsed": "0x640"
    },
    {
      "status": "0x1",
      "cumulativeGasUsed": "0x53da4b",
      "logs": [],
      "logsBloom": "0x00000000000000000000000000000000000000000000000000000000000000000000000000000000000000000000000000000000000000000000000000000000000000000000000000000000000000000000000000000000000000000000000000000000000000000000000000000000000000000000000000000000000000000000000000000000000000000000000000000000000000000000000000000000000000000000000000000000000000000000000000000000000000000000000000000000000000000000000000000000000000000000000000000000000000000000000000000000000000000000000000000000000000000000000000000000",
      "type": "0x2",
      "transactionHash": "0x18b1b4849b3340c9e27e5a9e87e7e184dd6ad404186f0bae36b20e9eb0ad026c",
      "transactionIndex": "0x13",
      "blockHash": "0xfeb2aa58922a4ce40ec10704eb28385105417acc460c5370cb4b3b8c3221d5b6",
      "blockNumber": "0x19d4ca7",
      "gasUsed": "0x1bc80",
      "effectiveGasPrice": "0x1c5a3",
      "from": "0xa6b3d200cd34ca14d7579dac8b054bf50a62c37c",
      "to": "0x55068815b3a50e347afdedcf9eb9184c466a2f21",
      "contractAddress": null,
      "l1BaseFeeScalar": "0x44d",
      "l1BlobBaseFee": "0x1",
      "l1BlobBaseFeeScalar": "0xa118b",
      "l1Fee": "0x23c14c",
      "l1GasPrice": "0xe0480",
      "l1GasUsed": "0x90c"
    },
    {
      "status": "0x1",
      "cumulativeGasUsed": "0x549088",
      "logs": [],
      "logsBloom": "0x00000000000000000000000000000000000000000000000000000000000000000000000000000000000000000000000000000000000000000000000000000000000000000000000000000000000000000000000000000000000000000000000000000000000000000000000000000000000000000000000000000000000000000000000000000000000000000000000000000000000000000000000000000000000000000000000000000000000000000000000000000000000000000000000000000000000000000000000000000000000000000000000000000000000000000000000000000000000000000000000000000000000000000000000000000000",
      "type": "0x2",
      "transactionHash": "0x20e567f68c7f8fa718195da451ea342431f9d9313b6e8e8fb5cc455387dda49b",
      "transactionIndex": "0x14",
      "blockHash": "0xfeb2aa58922a4ce40ec10704eb28385105417acc460c5370cb4b3b8c3221d5b6",
      "blockNumber": "0x19d4ca7",
      "gasUsed": "0xb63d",
      "effectiveGasPrice": "0x1c5a3",
      "from": "0xa6b3d200cd34ca14d7579dac8b054bf50a62c37c",
      "to": "0x55068815b3a50e347afdedcf9eb9184c466a2f21",
      "contractAddress": null,
      "l1BaseFeeScalar": "0x44d",
      "l1BlobBaseFee": "0x1",
      "l1BlobBaseFeeScalar": "0xa118b",
      "l1Fee": "0x18b1c2",
      "l1GasPrice": "0xe0480",
      "l1GasUsed": "0x640"
    },
    {
      "status": "0x1",
      "cumulativeGasUsed": "0x5546c5",
      "logs": [],
      "logsBloom": "0x00000000000000000000000000000000000000000000000000000000000000000000000000000000000000000000000000000000000000000000000000000000000000000000000000000000000000000000000000000000000000000000000000000000000000000000000000000000000000000000000000000000000000000000000000000000000000000000000000000000000000000000000000000000000000000000000000000000000000000000000000000000000000000000000000000000000000000000000000000000000000000000000000000000000000000000000000000000000000000000000000000000000000000000000000000000",
      "type": "0x2",
      "transactionHash": "0x033014fbeb217fe9080ee282d0741966e73140d4efa7b9b5bded583cc8af7bf6",
      "transactionIndex": "0x15",
      "blockHash": "0xfeb2aa58922a4ce40ec10704eb28385105417acc460c5370cb4b3b8c3221d5b6",
      "blockNumber": "0x19d4ca7",
      "gasUsed": "0xb63d",
      "effectiveGasPrice": "0x1c5a3",
      "from": "0xa6b3d200cd34ca14d7579dac8b054bf50a62c37c",
      "to": "0x55068815b3a50e347afdedcf9eb9184c466a2f21",
      "contractAddress": null,
      "l1BaseFeeScalar": "0x44d",
      "l1BlobBaseFee": "0x1",
      "l1BlobBaseFeeScalar": "0xa118b",
      "l1Fee": "0x18b1c2",
      "l1GasPrice": "0xe0480",
      "l1GasUsed": "0x640"
    },
    {
      "status": "0x1",
      "cumulativeGasUsed": "0x55fd02",
      "logs": [],
      "logsBloom": "0x00000000000000000000000000000000000000000000000000000000000000000000000000000000000000000000000000000000000000000000000000000000000000000000000000000000000000000000000000000000000000000000000000000000000000000000000000000000000000000000000000000000000000000000000000000000000000000000000000000000000000000000000000000000000000000000000000000000000000000000000000000000000000000000000000000000000000000000000000000000000000000000000000000000000000000000000000000000000000000000000000000000000000000000000000000000",
      "type": "0x2",
      "transactionHash": "0xca6162c3cb7a7b8924903de6c69fba39a786bb4ee9f49f6ded1227980265921b",
      "transactionIndex": "0x16",
      "blockHash": "0xfeb2aa58922a4ce40ec10704eb28385105417acc460c5370cb4b3b8c3221d5b6",
      "blockNumber": "0x19d4ca7",
      "gasUsed": "0xb63d",
      "effectiveGasPrice": "0x1c5a3",
      "from": "0xa6b3d200cd34ca14d7579dac8b054bf50a62c37c",
      "to": "0x55068815b3a50e347afdedcf9eb9184c466a2f21",
      "contractAddress": null,
      "l1BaseFeeScalar": "0x44d",
      "l1BlobBaseFee": "0x1",
      "l1BlobBaseFeeScalar": "0xa118b",
      "l1Fee": "0x18b1c2",
      "l1GasPrice": "0xe0480",
      "l1GasUsed": "0x640"
    },
    {
      "status": "0x1",
      "cumulativeGasUsed": "0x56b33f",
      "logs": [],
      "logsBloom": "0x00000000000000000000000000000000000000000000000000000000000000000000000000000000000000000000000000000000000000000000000000000000000000000000000000000000000000000000000000000000000000000000000000000000000000000000000000000000000000000000000000000000000000000000000000000000000000000000000000000000000000000000000000000000000000000000000000000000000000000000000000000000000000000000000000000000000000000000000000000000000000000000000000000000000000000000000000000000000000000000000000000000000000000000000000000000",
      "type": "0x2",
      "transactionHash": "0x09bfb289c3408197294f3cf2040e309746fce16180a5b1541831084e4c50d634",
      "transactionIndex": "0x17",
      "blockHash": "0xfeb2aa58922a4ce40ec10704eb28385105417acc460c5370cb4b3b8c3221d5b6",
      "blockNumber": "0x19d4ca7",
      "gasUsed": "0xb63d",
      "effectiveGasPrice": "0x1c5a3",
      "from": "0xa6b3d200cd34ca14d7579dac8b054bf50a62c37c",
      "to": "0x55068815b3a50e347afdedcf9eb9184c466a2f21",
      "contractAddress": null,
      "l1BaseFeeScalar": "0x44d",
      "l1BlobBaseFee": "0x1",
      "l1BlobBaseFeeScalar": "0xa118b",
      "l1Fee": "0x18b1c2",
      "l1GasPrice": "0xe0480",
      "l1GasUsed": "0x640"
    },
    {
      "status": "0x1",
      "cumulativeGasUsed": "0x863f2a",
      "logs": [
        {
          "address": "0x55068815b3a50e347afdedcf9eb9184c466a2f21",
          "topics": [
            "0x908210fc0149379fe25f26a14ba6965e58ae6f8b5e8bb5e1f4586b323fd79b67",
            "0x88ef8906c27d3e6af98ad7a5cf53c31a771fadb410370749ce5bf0cdb279c3b6"
          ],
          "data": "0x000000000000000000000000dfc3e6bd819ade53de858ce087923ffca5a1602700000000000000000000000000000000000000000000000000038d7ea4c680000000000000000000000000000000000000000000000000000000000000000001",
          "blockHash": "0xf0de438f04970c4925dd4900747490a849647d7c899ffce54e6d2c1e85b57d06",
          "blockNumber": "0x19d4ca7",
          "blockTimestamp": "0x684df82e",
          "transactionHash": "0x0c55a2c23d0e2915029408b5c66546b9b0da1d04ce0e8444c5b6b0bc8be8943b",
          "transactionIndex": "0x1c",
          "logIndex": "0xf9",
          "removed": false
        }
      ],
      "logsBloom": "0x20000000000000000000000000000000000000000000000000000000000010000000000000000000000000000000000000000000000000000000000000000000000000000000000000000000000000000000000000000000200000000000000000000000000000000000000000000000000000000000000000000000000000000000000800000000000000000000000000000000000000000000000000000000000000000000000000000000000000000000000000000000000000000000000200000000000000000000020400000000000000000000000000000000000000000000000000000000400000000000004000000000000000000000000000000000",
      "type": "0x2",
      "transactionHash": "0x0c55a2c23d0e2915029408b5c66546b9b0da1d04ce0e8444c5b6b0bc8be8943b",
      "transactionIndex": "0x1c",
      "blockHash": "0xf0de438f04970c4925dd4900747490a849647d7c899ffce54e6d2c1e85b57d06",
      "blockNumber": "0x19d4ca7",
      "gasUsed": "0x29503",
      "effectiveGasPrice": "0x1c5a3",
      "from": "0xa6b3d200cd34ca14d7579dac8b054bf50a62c37c",
      "to": "0x55068815b3a50e347afdedcf9eb9184c466a2f21",
      "contractAddress": null,
      "l1BaseFeeScalar": "0x44d",
      "l1BlobBaseFee": "0x1",
      "l1BlobBaseFeeScalar": "0xa118b",
      "l1Fee": "0x1d8eda",
      "l1GasPrice": "0xe0480",
      "l1GasUsed": "0x77b"
    },
    {
      "status": "0x1",
      "cumulativeGasUsed": "0x889161",
      "logs": [
        {
          "address": "0x55068815b3a50e347afdedcf9eb9184c466a2f21",
          "topics": [
            "0x908210fc0149379fe25f26a14ba6965e58ae6f8b5e8bb5e1f4586b323fd79b67",
            "0x924cafe3f4668225141f2f2252ca17f67b629c2ff1426ac8ff340549f1266789"
          ],
          "data": "0x000000000000000000000000dfc3e6bd819ade53de858ce087923ffca5a1602700000000000000000000000000000000000000000000000000038d7ea4c680000000000000000000000000000000000000000000000000000000000000000001",
          "blockHash": "0xf0de438f04970c4925dd4900747490a849647d7c899ffce54e6d2c1e85b57d06",
          "blockNumber": "0x19d4ca7",
          "blockTimestamp": "0x684df82e",
          "transactionHash": "0xf53224336a47aa94e1c6e5722cc9e627f8971199427452efb53ed94ff740c5a8",
          "transactionIndex": "0x1d",
          "logIndex": "0xfa",
          "removed": false
        }
      ],
      "logsBloom": "0x00000000000000000000000000000000000000000000000000000000000010000000000000000000000000000000000000000000000000000000000000000000000000000000000000000000000000000000000000000000000000000000000000000000000000000000000000000000000000000000000000000000000000000000000000000000000000000000000000000000000000000000000000000000000000000000008000000000000000000000000000000000000000000000000200000000000000000000020400000000000000000000000000000020000000000000080000000000400000000000004000000000000000000000000000000000",
      "type": "0x2",
      "transactionHash": "0xf53224336a47aa94e1c6e5722cc9e627f8971199427452efb53ed94ff740c5a8",
      "transactionIndex": "0x1d",
      "blockHash": "0xf0de438f04970c4925dd4900747490a849647d7c899ffce54e6d2c1e85b57d06",
      "blockNumber": "0x19d4ca7",
      "gasUsed": "0x25237",
      "effectiveGasPrice": "0x1c5a3",
      "from": "0xa6b3d200cd34ca14d7579dac8b054bf50a62c37c",
      "to": "0x55068815b3a50e347afdedcf9eb9184c466a2f21",
      "contractAddress": null,
      "l1BaseFeeScalar": "0x44d",
      "l1BlobBaseFee": "0x1",
      "l1BlobBaseFeeScalar": "0xa118b",
      "l1Fee": "0x1d8eda",
      "l1GasPrice": "0xe0480",
      "l1GasUsed": "0x77b"
    },
    {
      "status": "0x1",
      "cumulativeGasUsed": "0x90ac46",
      "logs": [
        {
          "address": "0x55068815b3a50e347afdedcf9eb9184c466a2f21",
          "topics": [
            "0x908210fc0149379fe25f26a14ba6965e58ae6f8b5e8bb5e1f4586b323fd79b67",
            "0x870729ce323527c7d70de6e3b4d0cf8167c8b204a3f39d2c51d3c92ccebc3edc"
          ],
          "data": "0x000000000000000000000000dfc3e6bd819ade53de858ce087923ffca5a1602700000000000000000000000000000000000000000000000000038d7ea4c680000000000000000000000000000000000000000000000000000000000000000001",
          "blockHash": "0x28b3d262e33dad7b6562a6ea99c847536ece2cdaaede0218fd44eb99ac588c1f",
          "blockNumber": "0x19d4ca7",
          "transactionHash": "0x4bb3b987b9521df2026490bb5ad7ee3974630e7cb969119b57f9da39aeadab56",
          "transactionIndex": "0x22",
          "logIndex": "0x104",
          "removed": false
        }
      ],
      "logsBloom": "0x00000000000000000000000000000000000000000000000000000000000010000000000000000000000000000000000000000000000000000000000000000000000000000000000000000000000000000000000000000000000000000000000000000000000000000000000000000000000000000000000000000000000000000000000000000000000000000000000000000000000000000000000000000000000000000000000000000000000000000000000000000000000010400000000200000000000000000000020400000000000000000000002000000000000000000000000000000000400000000000004000000000000000000000000000000000",
      "type": "0x2",
      "transactionHash": "0x4bb3b987b9521df2026490bb5ad7ee3974630e7cb969119b57f9da39aeadab56",
      "transactionIndex": "0x22",
      "blockHash": "0x28b3d262e33dad7b6562a6ea99c847536ece2cdaaede0218fd44eb99ac588c1f",
      "blockNumber": "0x19d4ca7",
      "gasUsed": "0x25237",
      "effectiveGasPrice": "0x1c56c",
      "from": "0xa6b3d200cd34ca14d7579dac8b054bf50a62c37c",
      "to": "0x55068815b3a50e347afdedcf9eb9184c466a2f21",
      "contractAddress": null,
      "l1BaseFeeScalar": "0x44d",
      "l1BlobBaseFee": "0x1",
      "l1BlobBaseFeeScalar": "0xa118b",
      "l1Fee": "0x1d8eda",
      "l1GasPrice": "0xe0480",
      "l1GasUsed": "0x77b"
    },
    {
      "status": "0x1",
      "cumulativeGasUsed": "0x92fe7d",
      "logs": [
        {
          "address": "0x55068815b3a50e347afdedcf9eb9184c466a2f21",
          "topics": [
            "0x908210fc0149379fe25f26a14ba6965e58ae6f8b5e8bb5e1f4586b323fd79b67",
            "0x1887cd0d242fb25ce3889259bf747a4bc6ac3eb3fe083aa1d14c660f7a59c3e2"
          ],
          "data": "0x000000000000000000000000dfc3e6bd819ade53de858ce087923ffca5a1602700000000000000000000000000000000000000000000000000038d7ea4c680000000000000000000000000000000000000000000000000000000000000000001",
          "blockHash": "0x28b3d262e33dad7b6562a6ea99c847536ece2cdaaede0218fd44eb99ac588c1f",
          "blockNumber": "0x19d4ca7",
          "transactionHash": "0x4c65be0cfd6e1a8161abef9377e4edc4ce3fe6f9160c91731d78cdd6f8851c19",
          "transactionIndex": "0x23",
          "logIndex": "0x105",
          "removed": false
        }
      ],
      "logsBloom": "0x00000000000000000000000000000000000000000000000000000000000010000000000000000000000000000000000004000000000000000000000000000000000000000000000000000000000000000000000000000000000000000000000000000000000000000000000000000000000000000000000000000000000000000000000000000000000000000000000000000000000000002000000000000000000000000000000000000000000000000000000000000000000000000000000200000000000000000000020400000000000000000000000000000000000000000000000000000000400000000000084000000000000000000000000000000000",
      "type": "0x2",
      "transactionHash": "0x4c65be0cfd6e1a8161abef9377e4edc4ce3fe6f9160c91731d78cdd6f8851c19",
      "transactionIndex": "0x23",
      "blockHash": "0x28b3d262e33dad7b6562a6ea99c847536ece2cdaaede0218fd44eb99ac588c1f",
      "blockNumber": "0x19d4ca7",
      "gasUsed": "0x25237",
      "effectiveGasPrice": "0x1c56c",
      "from": "0xa6b3d200cd34ca14d7579dac8b054bf50a62c37c",
      "to": "0x55068815b3a50e347afdedcf9eb9184c466a2f21",
      "contractAddress": null,
      "l1BaseFeeScalar": "0x44d",
      "l1BlobBaseFee": "0x1",
      "l1BlobBaseFeeScalar": "0xa118b",
      "l1Fee": "0x1d8eda",
      "l1GasPrice": "0xe0480",
      "l1GasUsed": "0x77b"
    },
    {
      "status": "0x1",
      "cumulativeGasUsed": "0x93b9d6",
      "logs": [
        {
          "address": "0x55068815b3a50e347afdedcf9eb9184c466a2f21",
          "topics": [
            "0x603c893fe5a7abb065fd37be5d74b7570a708f31c5b02b409779f57f8ab59788",
            "0x88ef8906c27d3e6af98ad7a5cf53c31a771fadb410370749ce5bf0cdb279c3b6"
          ],
          "data": "0x000000000000000000000000000000000000000000000000000009184e72a000",
          "blockHash": "0x28b3d262e33dad7b6562a6ea99c847536ece2cdaaede0218fd44eb99ac588c1f",
          "blockNumber": "0x19d4ca7",
          "transactionHash": "0xa0e24b5c46cfbc75200d87f322bf48817fd661fe70039047613a0f82e4cf2e6b",
          "transactionIndex": "0x24",
          "logIndex": "0x106",
          "removed": false
        }
      ],
      "logsBloom": "0x20000000000000000000000000000000000000000000000000000000200000000000000000000000000000000000000000000000000000000000000000000000000000000000000000000000000000000000000000000000200000000000000000000080000000000000000000010000000000000000000000000000000000000000000800000000000000000000000000000000000000000000000000000000000000000000000000000000000000000000000000000000000000000000000000000000000000000000020400000000000000000000000000000000000000000000000000000000000000000000004000000000000000000000000000000000",
      "type": "0x2",
      "transactionHash": "0xa0e24b5c46cfbc75200d87f322bf48817fd661fe70039047613a0f82e4cf2e6b",
      "transactionIndex": "0x24",
      "blockHash": "0x28b3d262e33dad7b6562a6ea99c847536ece2cdaaede0218fd44eb99ac588c1f",
      "blockNumber": "0x19d4ca7",
      "gasUsed": "0xbb59",
      "effectiveGasPrice": "0x1c56c",
      "from": "0xa6b3d200cd34ca14d7579dac8b054bf50a62c37c",
      "to": "0x55068815b3a50e347afdedcf9eb9184c466a2f21",
      "contractAddress": null,
      "l1BaseFeeScalar": "0x44d",
      "l1BlobBaseFee": "0x1",
      "l1BlobBaseFeeScalar": "0xa118b",
      "l1Fee": "0x18b1c2",
      "l1GasPrice": "0xe0480",
      "l1GasUsed": "0x640"
    },
    {
      "status": "0x1",
      "cumulativeGasUsed": "0x94752f",
      "logs": [
        {
          "address": "0x55068815b3a50e347afdedcf9eb9184c466a2f21",
          "topics": [
            "0x603c893fe5a7abb065fd37be5d74b7570a708f31c5b02b409779f57f8ab59788",
            "0x924cafe3f4668225141f2f2252ca17f67b629c2ff1426ac8ff340549f1266789"
          ],
          "data": "0x000000000000000000000000000000000000000000000000000009184e72a000",
          "blockHash": "0x28b3d262e33dad7b6562a6ea99c847536ece2cdaaede0218fd44eb99ac588c1f",
          "blockNumber": "0x19d4ca7",
          "transactionHash": "0xcdd29564a61f66667fa6bb497fe9c935d165ae32bde433f48c77fd8344e57b00",
          "transactionIndex": "0x25",
          "logIndex": "0x107",
          "removed": false
        }
      ],
      "logsBloom": "0x00000000000000000000000000000000000000000000000000000000200000000000000000000000000000000000000000000000000000000000000000000000000000000000000000000000000000000000000000000000000000000000000000000080000000000000000000010000000000000000000000000000000000000000000000000000000000000000000000000000000000000000000000000000000000000000008000000000000000000000000000000000000000000000000000000000000000000000020400000000000000000000000000000020000000000000080000000000000000000000004000000000000000000000000000000000",
      "type": "0x2",
      "transactionHash": "0xcdd29564a61f66667fa6bb497fe9c935d165ae32bde433f48c77fd8344e57b00",
      "transactionIndex": "0x25",
      "blockHash": "0x28b3d262e33dad7b6562a6ea99c847536ece2cdaaede0218fd44eb99ac588c1f",
      "blockNumber": "0x19d4ca7",
      "gasUsed": "0xbb59",
      "effectiveGasPrice": "0x1c56c",
      "from": "0xa6b3d200cd34ca14d7579dac8b054bf50a62c37c",
      "to": "0x55068815b3a50e347afdedcf9eb9184c466a2f21",
      "contractAddress": null,
      "l1BaseFeeScalar": "0x44d",
      "l1BlobBaseFee": "0x1",
      "l1BlobBaseFeeScalar": "0xa118b",
      "l1Fee": "0x18b1c2",
      "l1GasPrice": "0xe0480",
      "l1GasUsed": "0x640"
    },
    {
      "status": "0x1",
      "cumulativeGasUsed": "0x953088",
      "logs": [
        {
          "address": "0x55068815b3a50e347afdedcf9eb9184c466a2f21",
          "topics": [
            "0x603c893fe5a7abb065fd37be5d74b7570a708f31c5b02b409779f57f8ab59788",
            "0x870729ce323527c7d70de6e3b4d0cf8167c8b204a3f39d2c51d3c92ccebc3edc"
          ],
          "data": "0x000000000000000000000000000000000000000000000000000009184e72a000",
          "blockHash": "0x28b3d262e33dad7b6562a6ea99c847536ece2cdaaede0218fd44eb99ac588c1f",
          "blockNumber": "0x19d4ca7",
          "transactionHash": "0x47fa3de5ce9c332d7739127dd56574ef9aa1549c19e5237b2d62356d6cb7da83",
          "transactionIndex": "0x26",
          "logIndex": "0x108",
          "removed": false
        }
      ],
      "logsBloom": "0x00000000000000000000000000000000000000000000000000000000200000000000000000000000000000000000000000000000000000000000000000000000000000000000000000000000000000000000000000000000000000000000000000000080000000000000000000010000000000000000000000000000000000000000000000000000000000000000000000000000000000000000000000000000000000000000000000000000000000000000000000000000000010400000000000000000000000000000020400000000000000000000002000000000000000000000000000000000000000000000004000000000000000000000000000000000",
      "type": "0x2",
      "transactionHash": "0x47fa3de5ce9c332d7739127dd56574ef9aa1549c19e5237b2d62356d6cb7da83",
      "transactionIndex": "0x26",
      "blockHash": "0x28b3d262e33dad7b6562a6ea99c847536ece2cdaaede0218fd44eb99ac588c1f",
      "blockNumber": "0x19d4ca7",
      "gasUsed": "0xbb59",
      "effectiveGasPrice": "0x1c56c",
      "from": "0xa6b3d200cd34ca14d7579dac8b054bf50a62c37c",
      "to": "0x55068815b3a50e347afdedcf9eb9184c466a2f21",
      "contractAddress": null,
      "l1BaseFeeScalar": "0x44d",
      "l1BlobBaseFee": "0x1",
      "l1BlobBaseFeeScalar": "0xa118b",
      "l1Fee": "0x18b1c2",
      "l1GasPrice": "0xe0480",
      "l1GasUsed": "0x640"
    },
    {
      "status": "0x1",
      "cumulativeGasUsed": "0x95ebe1",
      "logs": [
        {
          "address": "0x55068815b3a50e347afdedcf9eb9184c466a2f21",
          "topics": [
            "0x603c893fe5a7abb065fd37be5d74b7570a708f31c5b02b409779f57f8ab59788",
            "0x1887cd0d242fb25ce3889259bf747a4bc6ac3eb3fe083aa1d14c660f7a59c3e2"
          ],
          "data": "0x000000000000000000000000000000000000000000000000000009184e72a000",
          "blockHash": "0x28b3d262e33dad7b6562a6ea99c847536ece2cdaaede0218fd44eb99ac588c1f",
          "blockNumber": "0x19d4ca7",
          "transactionHash": "0x563593aaa4e5ebdb20528ced79976ad6d8bfbf258587e77a6f4815a4c11a5982",
          "transactionIndex": "0x27",
          "logIndex": "0x109",
          "removed": false
        }
      ],
      "logsBloom": "0x00000000000000000000000000000000000000000000000000000000200000000000000000000000000000000000000004000000000000000000000000000000000000000000000000000000000000000000000000000000000000000000000000000080000000000000000000010000000000000000000000000000000000000000000000000000000000000000000000000000000000002000000000000000000000000000000000000000000000000000000000000000000000000000000000000000000000000000020400000000000000000000000000000000000000000000000000000000000000000000084000000000000000000000000000000000",
      "type": "0x2",
      "transactionHash": "0x563593aaa4e5ebdb20528ced79976ad6d8bfbf258587e77a6f4815a4c11a5982",
      "transactionIndex": "0x27",
      "blockHash": "0x28b3d262e33dad7b6562a6ea99c847536ece2cdaaede0218fd44eb99ac588c1f",
      "blockNumber": "0x19d4ca7",
      "gasUsed": "0xbb59",
      "effectiveGasPrice": "0x1c56c",
      "from": "0xa6b3d200cd34ca14d7579dac8b054bf50a62c37c",
      "to": "0x55068815b3a50e347afdedcf9eb9184c466a2f21",
      "contractAddress": null,
      "l1BaseFeeScalar": "0x44d",
      "l1BlobBaseFee": "0x1",
      "l1BlobBaseFeeScalar": "0xa118b",
      "l1Fee": "0x18b1c2",
      "l1GasPrice": "0xe0480",
      "l1GasUsed": "0x640"
    }
  ],
  "libraries": [],
  "pending": [],
  "returns": {},
  "timestamp": 1749940271,
  "chain": 84532,
  "commit": "bbff0ba"
}