{
  "transactions": [
    {
      "hash": "0xb2a58e1c532efa1ffb90a6cc12bf21a31f9b50667dc114e9f377a0136b6fdb9a",
      "transactionType": "CREATE",
      "contractName": "RewardDistributor",
      "contractAddress": "0xbea3c66c430fc62e8ea94aae849e6df5f53f67a7",
      "function": null,
      "arguments": null,
      "transaction": {
        "from": "0xa6b3d200cd34ca14d7579dac8b054bf50a62c37c",
        "gas": "0x1a4949",
        "value": "0x0",
        "input": "0x608080604052346071573315605e575f8054336001600160a01b0319821681178355916001600160a01b03909116907f8be0079c531659141344cd1fd0a4f28419497f9722a3daafe3b4186f6b6457e09080a361169790816100768239f35b631e4fbdf760e01b5f525f60045260245ffd5b5f80fdfe6080806040526004361015610012575f80fd5b5f905f3560e01c908162f96434146110715750806309f2c01914610fac5780630b36db1514610dde578063179aae8814610db85780632073de5c14610d3157806323be345c14610d0b5780632636e8a014610ae5578063274ee47514610a3d578063312e109c1461093a57806348f60dfd146108125780634e210544146107ec57806368b2c40c1461077857806369883b4e14610740578063715018a6146106e95780637790ddc6146105205780638209ec501461046b5780638da5cb5b146104455780638ff29cfe146104085780639002392e146103a057806395ccea671461036757806399fc65d414610309578063b79f12b2146102e2578063bb13c3cb146102bb578063d88ff1f414610205578063ec01da10146101db5763f2fde38b1461013b575f80fd5b346101d85760203660031901126101d8576001600160a01b0361015c6111a0565b610164611475565b1680156101ac576001600160a01b038254826001600160a01b03198216178455167f8be0079c531659141344cd1fd0a4f28419497f9722a3daafe3b4186f6b6457e08380a380f35b6024827f1e4fbdf700000000000000000000000000000000000000000000000000000000815280600452fd5b80fd5b50346101d85760203660031901126101d85760406020916004358152600483522054604051908152f35b50346101d857806003193601126101d85760405180602060025491828152018091600285527f405787fa12a823e0f2b7631cc41b3ba8828b3321ca811111fa75cd3aa3bb5ace90855b8181106102a55750505082610264910383611231565b604051928392602084019060208552518091526040840192915b81811061028c575050500390f35b825184528594506020938401939092019160010161027e565b825484526020909301926001928301920161024e565b50346101d857806003193601126101d85760206001600160a01b03600a5416604051908152f35b50346101d857806003193601126101d85760206001600160a01b0360065416604051908152f35b50346101d85760403660031901126101d8576103236111a0565b6024358015158103610363576001600160a01b0361036092610343611475565b1683526005602052604083209060ff801983541691151516179055565b80f35b8280fd5b50346101d85760403660031901126101d8576103606103846111a0565b61038c611475565b602435906001600160a01b033391166114b4565b50346101d85760403660031901126101d8576001600160a01b0360406103c461118a565b92600435815260036020522091165f52602052608060405f208054906001810154906003600282015491015491604051938452602084015260408301526060820152f35b50346101d85760203660031901126101d85760ff60406020926001600160a01b036104316111a0565b168152600584522054166040519015158152f35b50346101d857806003193601126101d8576001600160a01b036020915416604051908152f35b50346101d85760203660031901126101d8576001600160a01b0361048d6111a0565b610495611475565b1680156104dc576020817f1be038705a495dd627af47e6738a26c370e9ee5df6e53f67515bd987c64d0fdd926001600160a01b0319600a541617600a55604051908152a180f35b606460405162461bcd60e51b815260206004820152601a60248201527f496e76616c69642056434f5020746f6b656e20616464726573730000000000006044820152fd5b50346106695760203660031901126106695760043561053f3382611399565b805f52600360205260405f206001600160a01b0333165f52602052600160405f2001908154918261056e578380f35b5f9055805f52600160205260405f206002810161058c848254611287565b90558260ff600683015460081c16806106cb575b156106b157506001600160a01b03600a54161561066d57546001600160a01b0316803b15610669576040517f40c10f1900000000000000000000000000000000000000000000000000000000815233600482015260248101849052905f908290604490829084905af1801561065e57610649575b505b6040519182527ffec539b3c42d74cd492c3ecf7966bf014b327beef98e935cdc3ec5e54a6901c760203393a35f80808380f35b6106569193505f90611231565b5f915f610614565b6040513d5f823e3d90fd5b5f80fd5b606460405162461bcd60e51b815260206004820152601260248201527f56434f5020746f6b656e206e6f742073657400000000000000000000000000006044820152fd5b6106c6916001600160a01b03339154166114b4565b610616565b506001600160a01b038254166001600160a01b03600a5416146105a0565b34610669575f36600319011261066957610701611475565b5f6001600160a01b0381546001600160a01b031981168355167f8be0079c531659141344cd1fd0a4f28419497f9722a3daafe3b4186f6b6457e08280a3005b3461066957602036600319011261066957600435600254811015610669576107696020916111cc565b90549060031b1c604051908152f35b346106695760207facefc4a7d159e33f5c2d6facc53467d06090e50ccfa880ef241dc1d1a9200f6c6107a9366111b6565b6107b4939193611475565b835f526001825260405f206107c885611294565b6005820155600442910155835f526001825280600360405f200155604051908152a2005b34610669575f3660031901126106695760206001600160a01b0360085416604051908152f35b3461066957610820366111b6565b815f52600160205260405f2060068101549160ff8316156108f657600160209260ff7f603c893fe5a7abb065fd37be5d74b7570a708f31c5b02b409779f57f8ab597889560081c165f14610886570161087a828254611287565b90555b604051908152a2005b6108e36001600160a01b03825416604051907f23b872dd0000000000000000000000000000000000000000000000000000000087830152336024830152306044830152856064830152606482526108de608483611231565b61150b565b016108ef828254611287565b905561087d565b606460405162461bcd60e51b815260206004820152600f60248201527f506f6f6c206e6f742061637469766500000000000000000000000000000000006044820152fd5b34610669576040366003190112610669576109dd60043561095961118a565b90805f52600360205260405f206001600160a01b0383165f52602052602060405f20926040519261098984611215565b8454845260018501548385015260606003600287015496876040880152015494019384526040519586928392623e590d60e21b8452600484019092916001600160a01b036020916040840195845216910152565b0381305afa90811561065e575f91610a08575b60609350519060405192835260208301526040820152f35b90506020833d602011610a35575b81610a2360209383611231565b810103126106695760609251906109f0565b3d9150610a16565b3461066957608036600319011261066957610a566111a0565b610a5e61118a565b90604435906001600160a01b03821680920361066957606435926001600160a01b038416809403610669576001600160a01b038092610a9b611475565b166001600160a01b03196006541617600655166001600160a01b031960075416176007556001600160a01b031960085416176008556001600160a01b031960095416176009555f80f35b3461066957606036600319011261066957600435610b0161118a565b60443590610b0d611475565b825f5260016020526001600160a01b0360405f205416610cc7576001600160a01b03168015610c83576001600160a01b03600a5416811490604051610b51816111f8565b818152602081015f8152610bea600660408401935f8552606081018881526080820142815260a08301915f835260c08401976001895260e08501978b89528d5f5260016020526001600160a01b0360405f209651166001600160a01b03198754161786555160018601555160028501555160038401555160048301555160058201550192511515839060ff801983541691151516179055565b51815461ff00191690151560081b61ff00161790556002549168010000000000000000831015610c6f577f908210fc0149379fe25f26a14ba6965e58ae6f8b5e8bb5e1f4586b323fd79b6793610c48846001606096016002556111cc565b81549060031b9088821b915f19901b191617905560405192835260208301526040820152a2005b634e487b7160e01b5f52604160045260245ffd5b606460405162461bcd60e51b815260206004820152601460248201527f496e76616c69642072657761726420746f6b656e0000000000000000000000006044820152fd5b606460405162461bcd60e51b815260206004820152601360248201527f506f6f6c20616c726561647920657869737473000000000000000000000000006044820152fd5b34610669575f3660031901126106695760206001600160a01b0360095416604051908152f35b34610669576020366003190112610669576004355f52600160205261010060405f2060ff6001600160a01b0382541691600181015490600281015460038201546004830154916006600585015494015494604051978852602088015260408701526060860152608085015260a0840152818116151560c084015260081c16151560e0820152f35b34610669575f3660031901126106695760206001600160a01b0360075416604051908152f35b3461066957608036600319011261066957600435610dfa61118a565b90604435916064359081151580830361066957335f52600560205260ff60405f20541615610f6857610e2c8285611399565b835f52600360205260405f206001600160a01b0383165f5260205260405f20925f14610ebf576040916001600160a01b03918460027f9f0a7aaf8d18c024e8123bdcd157b0f6e0f42892a4ea14a2becc88a320a799229601610e8f898254611287565b9055865f526004602052845f20610ea7898254611287565b90555b600342910155835196875260208701521693a3005b6002830191825491868310610f24577f9f0a7aaf8d18c024e8123bdcd157b0f6e0f42892a4ea14a2becc88a320a7992294604094610f05896001600160a01b0396611253565b9055865f526004602052845f20610f1d898254611253565b9055610eaa565b606460405162461bcd60e51b815260206004820152601260248201527f496e73756666696369656e74207374616b6500000000000000000000000000006044820152fd5b606460405162461bcd60e51b815260206004820152600e60248201527f4e6f7420617574686f72697a65640000000000000000000000000000000000006044820152fd5b346106695760203660031901126106695760c0600435805f52600160205260405f2090604051610fdb816111f8565b6001600160a01b0383541692838252600181015492836020840152600282015490816040850152600660038401549384606087015260048101546080870152600581015460a087015201549360e060ff898301968181161515885260081c1615159101525f52600460205260405f20549251151593604051958652602086015260408501526060840152608083015260a0820152f35b34610669576040366003190112610669576111826020916004359061109461118a565b90825f526001855260e060ff600660405f206110af856111f8565b6001600160a01b038154168552600181015489860152600281015460408601526003810154606086015260048101546080860152600581015460a08601520154818116151560c085015260081c161515910152815f52600384526001600160a01b0360405f2091165f528352670de0b6b3a764000061117960405f206111736040519161113b83611215565b8054835261116960018201549689850197885260036002840154936040870194855201546060860152611294565b9051925190611253565b90611274565b04905190611287565b604051908152f35b602435906001600160a01b038216820361066957565b600435906001600160a01b038216820361066957565b6040906003190112610669576004359060243590565b6002548110156111e45760025f5260205f2001905f90565b634e487b7160e01b5f52603260045260245ffd5b610100810190811067ffffffffffffffff821117610c6f57604052565b6080810190811067ffffffffffffffff821117610c6f57604052565b90601f8019910116810190811067ffffffffffffffff821117610c6f57604052565b9190820391821161126057565b634e487b7160e01b5f52601160045260245ffd5b8181029291811591840414171561126057565b9190820180921161126057565b805f52600160205260405f20604051906112ad826111f8565b6001600160a01b0381541682526001810154602083015260028101546040830152600381015490606083019182526004810154926080810193845260e060ff600660058501549460a085019586520154818116151560c085015260081c161515910152835f52600460205260405f205415611391579061133361133b9251935142611253565b905190611274565b91670de0b6b3a7640000830292808404670de0b6b3a76400001490151715611260575f52600460205260405f2054801561137d5761137a920490611287565b90565b634e487b7160e01b5f52601260045260245ffd5b925050505190565b90815f52600160205260405f20906113b083611294565b91600581019283556004429101556001600160a01b0381166113d157505050565b602061142591845f526003825260405f206001600160a01b0382165f52825260405f20946040519384928392623e590d60e21b8452600484019092916001600160a01b036020916040840195845216910152565b0381305afa90811561065e575f91611443575b506001830155549055565b90506020813d60201161146d575b8161145e60209383611231565b8101031261066957515f611438565b3d9150611451565b6001600160a01b035f5416330361148857565b7f118cdaa7000000000000000000000000000000000000000000000000000000005f523360045260245ffd5b6040517fa9059cbb0000000000000000000000000000000000000000000000000000000060208201526001600160a01b03929092166024830152604480830193909352918152611509916108de606483611231565b565b5f6001600160a01b038192169260208151910182855af13d156115c9573d67ffffffffffffffff8111610c6f5761156491604051916115546020601f19601f8401160184611231565b82523d5f602084013e5b836115d5565b80519081151591826115a5575b505061157a5750565b7f5274afe7000000000000000000000000000000000000000000000000000000005f5260045260245ffd5b81925090602091810103126106695760200151801590811503610669575f80611571565b6115649060609061155e565b9061161257508051156115ea57805190602001fd5b7f1425ea42000000000000000000000000000000000000000000000000000000005f5260045ffd5b81511580611658575b611623575090565b6001600160a01b03907f9996b315000000000000000000000000000000000000000000000000000000005f521660045260245ffd5b50803b1561161b56fea2646970667358221220d1fcdd1bcf6e42d0710f1bf9b1504c4f9f4b952cedc3fe1df4b067681adea8f264736f6c634300081a0033",
        "nonce": "0x9a0",
        "chainId": "0x14a34"
      },
      "additionalContracts": [],
      "isFixedGasLimit": false
    },
    {
      "hash": "0xb392eec66756a8d7d19edb934228b29f3a62711856484a6c783e36311709bd92",
      "transactionType": "CALL",
      "contractName": "RewardDistributor",
      "contractAddress": "0xbea3c66c430fc62e8ea94aae849e6df5f53f67a7",
      "function": "setVCOPToken(address)",
      "arguments": [
        "0x0075157B97E5a06AA107727f97294d200e9cE21E"
      ],
      "transaction": {
        "from": "0xa6b3d200cd34ca14d7579dac8b054bf50a62c37c",
        "to": "0xbea3c66c430fc62e8ea94aae849e6df5f53f67a7",
        "gas": "0x10e65",
        "value": "0x0",
        "input": "0x8209ec500000000000000000000000000075157b97e5a06aa107727f97294d200e9ce21e",
        "nonce": "0x9a1",
        "chainId": "0x14a34"
      },
      "additionalContracts": [],
      "isFixedGasLimit": false
    },
    {
      "hash": "0x796544563fd7c09b71622cf2fee6701329da124a1dfc90de5805b077f51a5212",
      "transactionType": "CALL",
      "contractName": null,
      "contractAddress": "0x0075157b97e5a06aa107727f97294d200e9ce21e",
      "function": "setMinter(address,bool)",
      "arguments": [
        "0xbEa3C66c430fC62e8Ea94AaE849E6DF5F53F67A7",
        "true"
      ],
      "transaction": {
        "from": "0xa6b3d200cd34ca14d7579dac8b054bf50a62c37c",
        "to": "0x0075157b97e5a06aa107727f97294d200e9ce21e",
        "gas": "0x10274",
        "value": "0x0",
        "input": "0xcf456ae7000000000000000000000000bea3c66c430fc62e8ea94aae849e6df5f53f67a70000000000000000000000000000000000000000000000000000000000000001",
        "nonce": "0x9a2",
        "chainId": "0x14a34"
      },
      "additionalContracts": [],
      "isFixedGasLimit": false
    },
    {
      "hash": "0x8b31fa311f91861537142b0cfae8b311729355368942f314252792d1f5049405",
      "transactionType": "CALL",
      "contractName": "RewardDistributor",
      "contractAddress": "0xbea3c66c430fc62e8ea94aae849e6df5f53f67a7",
      "function": "setProtocolComponents(address,address,address,address)",
      "arguments": [
        "0x1392470eCf8e14b519EC746Fd81462efA7925d87",
        "0xc99B9B7271af36b911Ff01106B09B14EA5dcF46f",
        "0x864997627539B1632a0BC7dAD0F1178f6348F8c9",
        "0x7e1579CeF885943A49BCd0A9c2a5b201Da9Df248"
      ],
      "transaction": {
        "from": "0xa6b3d200cd34ca14d7579dac8b054bf50a62c37c",
        "to": "0xbea3c66c430fc62e8ea94aae849e6df5f53f67a7",
        "gas": "0x265f7",
        "value": "0x0",
        "input": "0x274ee4750000000000000000000000001392470ecf8e14b519ec746fd81462efa7925d87000000000000000000000000c99b9b7271af36b911ff01106b09b14ea5dcf46f000000000000000000000000864997627539b1632a0bc7dad0f1178f6348f8c90000000000000000000000007e1579cef885943a49bcd0a9c2a5b201da9df248",
        "nonce": "0x9a3",
        "chainId": "0x14a34"
      },
      "additionalContracts": [],
      "isFixedGasLimit": false
    },
    {
      "hash": "0xe0820a0eac22982fd5d39f008d358715c89ad3dce8de3c208d8fe01b9e02a295",
      "transactionType": "CALL",
      "contractName": "RewardDistributor",
      "contractAddress": "0xbea3c66c430fc62e8ea94aae849e6df5f53f67a7",
      "function": "setAuthorizedUpdater(address,bool)",
      "arguments": [
        "0xc99B9B7271af36b911Ff01106B09B14EA5dcF46f",
        "true"
      ],
      "transaction": {
        "from": "0xa6b3d200cd34ca14d7579dac8b054bf50a62c37c",
        "to": "0xbea3c66c430fc62e8ea94aae849e6df5f53f67a7",
        "gas": "0xfbb6",
        "value": "0x0",
        "input": "0x99fc65d4000000000000000000000000c99b9b7271af36b911ff01106b09b14ea5dcf46f0000000000000000000000000000000000000000000000000000000000000001",
        "nonce": "0x9a4",
        "chainId": "0x14a34"
      },
      "additionalContracts": [],
      "isFixedGasLimit": false
    },
    {
      "hash": "0xb22af4a75948667aaa1acaa637812d489315b9656a2520a4bdb08f0329a6f941",
      "transactionType": "CALL",
      "contractName": "RewardDistributor",
      "contractAddress": "0xbea3c66c430fc62e8ea94aae849e6df5f53f67a7",
      "function": "setAuthorizedUpdater(address,bool)",
      "arguments": [
        "0x864997627539B1632a0BC7dAD0F1178f6348F8c9",
        "true"
      ],
      "transaction": {
        "from": "0xa6b3d200cd34ca14d7579dac8b054bf50a62c37c",
        "to": "0xbea3c66c430fc62e8ea94aae849e6df5f53f67a7",
        "gas": "0xfbb6",
        "value": "0x0",
        "input": "0x99fc65d4000000000000000000000000864997627539b1632a0bc7dad0f1178f6348f8c90000000000000000000000000000000000000000000000000000000000000001",
        "nonce": "0x9a5",
        "chainId": "0x14a34"
      },
      "additionalContracts": [],
      "isFixedGasLimit": false
    },
    {
      "hash": "0x4d70877878408e1a6dec87c5fa2b575cfdcc5895582f2533756a441abda846c3",
      "transactionType": "CALL",
      "contractName": "RewardDistributor",
      "contractAddress": "0xbea3c66c430fc62e8ea94aae849e6df5f53f67a7",
      "function": "setAuthorizedUpdater(address,bool)",
      "arguments": [
        "0x1392470eCf8e14b519EC746Fd81462efA7925d87",
        "true"
      ],
      "transaction": {
        "from": "0xa6b3d200cd34ca14d7579dac8b054bf50a62c37c",
        "to": "0xbea3c66c430fc62e8ea94aae849e6df5f53f67a7",
        "gas": "0xfbb6",
        "value": "0x0",
        "input": "0x99fc65d40000000000000000000000001392470ecf8e14b519ec746fd81462efa7925d870000000000000000000000000000000000000000000000000000000000000001",
        "nonce": "0x9a6",
        "chainId": "0x14a34"
      },
      "additionalContracts": [],
      "isFixedGasLimit": false
    },
    {
      "hash": "0xb1e6703e1533f43f6e2a895810bb851f52f42a48a96db50a17c156276c16bba3",
      "transactionType": "CALL",
      "contractName": "RewardDistributor",
      "contractAddress": "0xbea3c66c430fc62e8ea94aae849e6df5f53f67a7",
      "function": "setAuthorizedUpdater(address,bool)",
      "arguments": [
        "0x7e1579CeF885943A49BCd0A9c2a5b201Da9Df248",
        "true"
      ],
      "transaction": {
        "from": "0xa6b3d200cd34ca14d7579dac8b054bf50a62c37c",
        "to": "0xbea3c66c430fc62e8ea94aae849e6df5f53f67a7",
        "gas": "0xfbb6",
        "value": "0x0",
        "input": "0x99fc65d40000000000000000000000007e1579cef885943a49bcd0a9c2a5b201da9df2480000000000000000000000000000000000000000000000000000000000000001",
        "nonce": "0x9a7",
        "chainId": "0x14a34"
      },
      "additionalContracts": [],
      "isFixedGasLimit": false
    },
    {
      "hash": "0xc67de878099d5277974438a997c052892e172b1e36336e68db25b3610245d1d1",
      "transactionType": "CALL",
      "contractName": "RewardDistributor",
      "contractAddress": "0xbea3c66c430fc62e8ea94aae849e6df5f53f67a7",
      "function": "createRewardPool(bytes32,address,uint256)",
      "arguments": [
        "0x88ef8906c27d3e6af98ad7a5cf53c31a771fadb410370749ce5bf0cdb279c3b6",
        "0x0075157B97E5a06AA107727f97294d200e9cE21E",
        "1000000000000000"
      ],
      "transaction": {
        "from": "0xa6b3d200cd34ca14d7579dac8b054bf50a62c37c",
        "to": "0xbea3c66c430fc62e8ea94aae849e6df5f53f67a7",
        "gas": "0x390f4",
        "value": "0x0",
        "input": "0x2636e8a088ef8906c27d3e6af98ad7a5cf53c31a771fadb410370749ce5bf0cdb279c3b60000000000000000000000000075157b97e5a06aa107727f97294d200e9ce21e00000000000000000000000000000000000000000000000000038d7ea4c68000",
        "nonce": "0x9a8",
        "chainId": "0x14a34"
      },
      "additionalContracts": [],
      "isFixedGasLimit": false
    },
    {
      "hash": "0xcc736d68ad90ce5d78302e17b878db19589ad6a862fdc8da91930c68d2c82a1b",
      "transactionType": "CALL",
      "contractName": "RewardDistributor",
      "contractAddress": "0xbea3c66c430fc62e8ea94aae849e6df5f53f67a7",
      "function": "createRewardPool(bytes32,address,uint256)",
      "arguments": [
        "0x924cafe3f4668225141f2f2252ca17f67b629c2ff1426ac8ff340549f1266789",
        "0x0075157B97E5a06AA107727f97294d200e9cE21E",
        "1000000000000000"
      ],
      "transaction": {
        "from": "0xa6b3d200cd34ca14d7579dac8b054bf50a62c37c",
        "to": "0xbea3c66c430fc62e8ea94aae849e6df5f53f67a7",
        "gas": "0x364f8",
        "value": "0x0",
        "input": "0x2636e8a0924cafe3f4668225141f2f2252ca17f67b629c2ff1426ac8ff340549f12667890000000000000000000000000075157b97e5a06aa107727f97294d200e9ce21e00000000000000000000000000000000000000000000000000038d7ea4c68000",
        "nonce": "0x9a9",
        "chainId": "0x14a34"
      },
      "additionalContracts": [],
      "isFixedGasLimit": false
    },
    {
      "hash": "0x38b45d671bf5392048704e0899bb61eaf27ac20c44698836004df46798ca2cee",
      "transactionType": "CALL",
      "contractName": "RewardDistributor",
      "contractAddress": "0xbea3c66c430fc62e8ea94aae849e6df5f53f67a7",
      "function": "createRewardPool(bytes32,address,uint256)",
      "arguments": [
        "0x870729ce323527c7d70de6e3b4d0cf8167c8b204a3f39d2c51d3c92ccebc3edc",
        "0x0075157B97E5a06AA107727f97294d200e9cE21E",
        "1000000000000000"
      ],
      "transaction": {
        "from": "0xa6b3d200cd34ca14d7579dac8b054bf50a62c37c",
        "to": "0xbea3c66c430fc62e8ea94aae849e6df5f53f67a7",
        "gas": "0x364f8",
        "value": "0x0",
        "input": "0x2636e8a0870729ce323527c7d70de6e3b4d0cf8167c8b204a3f39d2c51d3c92ccebc3edc0000000000000000000000000075157b97e5a06aa107727f97294d200e9ce21e00000000000000000000000000000000000000000000000000038d7ea4c68000",
        "nonce": "0x9aa",
        "chainId": "0x14a34"
      },
      "additionalContracts": [],
      "isFixedGasLimit": false
    },
    {
      "hash": "0x9dc7bdb5f9bbd94fe611ccf6e6bded88d7d9c0c89ef02405fe3f51f9e2cf5752",
      "transactionType": "CALL",
      "contractName": "RewardDistributor",
      "contractAddress": "0xbea3c66c430fc62e8ea94aae849e6df5f53f67a7",
      "function": "createRewardPool(bytes32,address,uint256)",
      "arguments": [
        "0x1887cd0d242fb25ce3889259bf747a4bc6ac3eb3fe083aa1d14c660f7a59c3e2",
        "0x0075157B97E5a06AA107727f97294d200e9cE21E",
        "1000000000000000"
      ],
      "transaction": {
        "from": "0xa6b3d200cd34ca14d7579dac8b054bf50a62c37c",
        "to": "0xbea3c66c430fc62e8ea94aae849e6df5f53f67a7",
        "gas": "0x364f8",
        "value": "0x0",
        "input": "0x2636e8a01887cd0d242fb25ce3889259bf747a4bc6ac3eb3fe083aa1d14c660f7a59c3e20000000000000000000000000075157b97e5a06aa107727f97294d200e9ce21e00000000000000000000000000000000000000000000000000038d7ea4c68000",
        "nonce": "0x9ab",
        "chainId": "0x14a34"
      },
      "additionalContracts": [],
      "isFixedGasLimit": false
    },
    {
      "hash": "0x2347c19ddc5f2fcd217d33c7973b037fb186294b246cf786285462010a0ae3d4",
      "transactionType": "CALL",
      "contractName": "RewardDistributor",
      "contractAddress": "0xbea3c66c430fc62e8ea94aae849e6df5f53f67a7",
      "function": "addRewards(bytes32,uint256)",
      "arguments": [
        "0x88ef8906c27d3e6af98ad7a5cf53c31a771fadb410370749ce5bf0cdb279c3b6",
        "10000000000000"
      ],
      "transaction": {
        "from": "0xa6b3d200cd34ca14d7579dac8b054bf50a62c37c",
        "to": "0xbea3c66c430fc62e8ea94aae849e6df5f53f67a7",
        "gas": "0x111fe",
        "value": "0x0",
        "input": "0x48f60dfd88ef8906c27d3e6af98ad7a5cf53c31a771fadb410370749ce5bf0cdb279c3b6000000000000000000000000000000000000000000000000000009184e72a000",
        "nonce": "0x9ac",
        "chainId": "0x14a34"
      },
      "additionalContracts": [],
      "isFixedGasLimit": false
    },
    {
      "hash": "0x5c052429a0fa02ea872aa09a4e9690178c7666f580b44d7056094ce5ef71d1c3",
      "transactionType": "CALL",
      "contractName": "RewardDistributor",
      "contractAddress": "0xbea3c66c430fc62e8ea94aae849e6df5f53f67a7",
      "function": "addRewards(bytes32,uint256)",
      "arguments": [
        "0x924cafe3f4668225141f2f2252ca17f67b629c2ff1426ac8ff340549f1266789",
        "10000000000000"
      ],
      "transaction": {
        "from": "0xa6b3d200cd34ca14d7579dac8b054bf50a62c37c",
        "to": "0xbea3c66c430fc62e8ea94aae849e6df5f53f67a7",
        "gas": "0x111fe",
        "value": "0x0",
        "input": "0x48f60dfd924cafe3f4668225141f2f2252ca17f67b629c2ff1426ac8ff340549f1266789000000000000000000000000000000000000000000000000000009184e72a000",
        "nonce": "0x9ad",
        "chainId": "0x14a34"
      },
      "additionalContracts": [],
      "isFixedGasLimit": false
    },
    {
      "hash": "0xf82b7a0c163f176e96bb25373dc0dc738652b42f95fcff7058507bde2bed959a",
      "transactionType": "CALL",
      "contractName": "RewardDistributor",
      "contractAddress": "0xbea3c66c430fc62e8ea94aae849e6df5f53f67a7",
      "function": "addRewards(bytes32,uint256)",
      "arguments": [
        "0x870729ce323527c7d70de6e3b4d0cf8167c8b204a3f39d2c51d3c92ccebc3edc",
        "10000000000000"
      ],
      "transaction": {
        "from": "0xa6b3d200cd34ca14d7579dac8b054bf50a62c37c",
        "to": "0xbea3c66c430fc62e8ea94aae849e6df5f53f67a7",
        "gas": "0x111fe",
        "value": "0x0",
        "input": "0x48f60dfd870729ce323527c7d70de6e3b4d0cf8167c8b204a3f39d2c51d3c92ccebc3edc000000000000000000000000000000000000000000000000000009184e72a000",
        "nonce": "0x9ae",
        "chainId": "0x14a34"
      },
      "additionalContracts": [],
      "isFixedGasLimit": false
    },
    {
      "hash": "0xe65c25dba2030949900262bb88038e04338bd92f2ff3929b526c4e0400e77957",
      "transactionType": "CALL",
      "contractName": "RewardDistributor",
      "contractAddress": "0xbea3c66c430fc62e8ea94aae849e6df5f53f67a7",
      "function": "addRewards(bytes32,uint256)",
      "arguments": [
        "0x1887cd0d242fb25ce3889259bf747a4bc6ac3eb3fe083aa1d14c660f7a59c3e2",
        "10000000000000"
      ],
      "transaction": {
        "from": "0xa6b3d200cd34ca14d7579dac8b054bf50a62c37c",
        "to": "0xbea3c66c430fc62e8ea94aae849e6df5f53f67a7",
        "gas": "0x111fe",
        "value": "0x0",
        "input": "0x48f60dfd1887cd0d242fb25ce3889259bf747a4bc6ac3eb3fe083aa1d14c660f7a59c3e2000000000000000000000000000000000000000000000000000009184e72a000",
        "nonce": "0x9af",
        "chainId": "0x14a34"
      },
      "additionalContracts": [],
      "isFixedGasLimit": false
    }
  ],
  "receipts": [
    {
      "status": "0x1",
      "cumulativeGasUsed": "0x202a37",
      "logs": [
        {
          "address": "0xbea3c66c430fc62e8ea94aae849e6df5f53f67a7",
          "topics": [
            "0x8be0079c531659141344cd1fd0a4f28419497f9722a3daafe3b4186f6b6457e0",
            "0x0000000000000000000000000000000000000000000000000000000000000000",
            "0x000000000000000000000000a6b3d200cd34ca14d7579dac8b054bf50a62c37c"
          ],
          "data": "0x",
          "blockHash": "0x8407b55a74702362194958ec73f8a0f94b8e47e3b0cc2c3df067a6cc0e6e8e99",
          "blockNumber": "0x19d51d4",
          "blockTimestamp": "0x684e0288",
          "transactionHash": "0xb2a58e1c532efa1ffb90a6cc12bf21a31f9b50667dc114e9f377a0136b6fdb9a",
          "transactionIndex": "0x5",
          "logIndex": "0xd",
          "removed": false
        }
      ],
      "logsBloom": "0x00000000000000000000000400000000000000000000000002800000000000000000000000000000000000000000000000000000000000000000000000000000010000000000000000000000000000000001000000000000000000000000000000020000020000000000000000000800000000800000000000000000000000400000000000000000000000000000000000000000000000000000000000000000000000000000000000000000000000000000000000000000000000000000000000000040000000000000000000000000000000000000000000000000000020000000000000000000000000000000000000000000000000000000000000000000",
      "type": "0x2",
      "transactionHash": "0xb2a58e1c532efa1ffb90a6cc12bf21a31f9b50667dc114e9f377a0136b6fdb9a",
      "transactionIndex": "0x5",
      "blockHash": "0x8407b55a74702362194958ec73f8a0f94b8e47e3b0cc2c3df067a6cc0e6e8e99",
      "blockNumber": "0x19d51d4",
      "gasUsed": "0x143860",
      "effectiveGasPrice": "0xb2b",
      "from": "0xa6b3d200cd34ca14d7579dac8b054bf50a62c37c",
      "to": null,
      "contractAddress": "0xbea3c66c430fc62e8ea94aae849e6df5f53f67a7",
      "l1BaseFeeScalar": "0x44d",
      "l1BlobBaseFee": "0x1",
      "l1BlobBaseFeeScalar": "0xa118b",
      "l1Fee": "0x2de9b68",
      "l1GasPrice": "0xc6bf8",
      "l1GasUsed": "0xd1cf"
    },
    {
      "status": "0x1",
      "cumulativeGasUsed": "0x20e31a",
      "logs": [
        {
          "address": "0xbea3c66c430fc62e8ea94aae849e6df5f53f67a7",
          "topics": [
            "0x1be038705a495dd627af47e6738a26c370e9ee5df6e53f67515bd987c64d0fdd"
          ],
          "data": "0x0000000000000000000000000075157b97e5a06aa107727f97294d200e9ce21e",
          "blockHash": "0x8407b55a74702362194958ec73f8a0f94b8e47e3b0cc2c3df067a6cc0e6e8e99",
          "blockNumber": "0x19d51d4",
          "blockTimestamp": "0x684e0288",
          "transactionHash": "0xb392eec66756a8d7d19edb934228b29f3a62711856484a6c783e36311709bd92",
          "transactionIndex": "0x6",
          "logIndex": "0xe",
          "removed": false
        }
      ],
      "logsBloom": "0x00000000000000000000000000000200000000000000000000000000000000000000000000000000000000000000000000000000000000000000000000000000010000000000000000000000000000000000000000000000000000000000000000020000000000000000000000000000000000800000000000000000000000000000000000000000000000000000000000000000000000000000000000040000000000000000000000000000000000000000000000000800000000000000000000000000000000000000000000000000000000000000000000000000000000000000000000000000000000000000000000000000000000000000000000000000",
      "type": "0x2",
      "transactionHash": "0xb392eec66756a8d7d19edb934228b29f3a62711856484a6c783e36311709bd92",
      "transactionIndex": "0x6",
      "blockHash": "0x8407b55a74702362194958ec73f8a0f94b8e47e3b0cc2c3df067a6cc0e6e8e99",
      "blockNumber": "0x19d51d4",
      "gasUsed": "0xb8e3",
      "effectiveGasPrice": "0xb2b",
      "from": "0xa6b3d200cd34ca14d7579dac8b054bf50a62c37c",
      "to": "0xbea3c66c430fc62e8ea94aae849e6df5f53f67a7",
      "contractAddress": null,
      "l1BaseFeeScalar": "0x44d",
      "l1BlobBaseFee": "0x1",
      "l1BlobBaseFeeScalar": "0xa118b",
      "l1Fee": "0x15e217",
      "l1GasPrice": "0xc6bf8",
      "l1GasUsed": "0x640"
    },
    {
      "status": "0x1",
      "cumulativeGasUsed": "0x219e39",
      "logs": [
        {
          "address": "0x0075157b97e5a06aa107727f97294d200e9ce21e",
          "topics": [
            "0xb21afb9ce9be0a676f8f317ff0ca072fb89a4f8ce2d1b6fe80f8755c14f1cb19"
          ],
          "data": "0x000000000000000000000000bea3c66c430fc62e8ea94aae849e6df5f53f67a70000000000000000000000000000000000000000000000000000000000000001",
          "blockHash": "0x8407b55a74702362194958ec73f8a0f94b8e47e3b0cc2c3df067a6cc0e6e8e99",
          "blockNumber": "0x19d51d4",
          "blockTimestamp": "0x684e0288",
          "transactionHash": "0x796544563fd7c09b71622cf2fee6701329da124a1dfc90de5805b077f51a5212",
          "transactionIndex": "0x7",
          "logIndex": "0xf",
          "removed": false
        }
      ],
      "logsBloom": "0x00000000000000000000000000000000000000000000000000000000000000000000000000000000000000000000001000000000000000040000000000000080000000000000000000000000000000000000000000000000000000000000000000000000000000000000000000000000000000000002000000000000000000000000000000000000000000000000000000040000000000000000200000000000000000000000000000000000000000000000000000000000000000000000000000000000000000000000000000000000000000000000000000000000000000000000000000000000000000000000000000000000000000000000000000000000",
      "type": "0x2",
      "transactionHash": "0x796544563fd7c09b71622cf2fee6701329da124a1dfc90de5805b077f51a5212",
      "transactionIndex": "0x7",
      "blockHash": "0x8407b55a74702362194958ec73f8a0f94b8e47e3b0cc2c3df067a6cc0e6e8e99",
      "blockNumber": "0x19d51d4",
      "gasUsed": "0xbb1f",
      "effectiveGasPrice": "0xb2b",
      "from": "0xa6b3d200cd34ca14d7579dac8b054bf50a62c37c",
      "to": "0x0075157b97e5a06aa107727f97294d200e9ce21e",
      "contractAddress": null,
      "l1BaseFeeScalar": "0x44d",
      "l1BlobBaseFee": "0x1",
      "l1BlobBaseFeeScalar": "0xa118b",
      "l1Fee": "0x15e217",
      "l1GasPrice": "0xc6bf8",
      "l1GasUsed": "0x640"
    },
    {
      "status": "0x1",
      "cumulativeGasUsed": "0x235ab9",
      "logs": [],
      "logsBloom": "0x00000000000000000000000000000000000000000000000000000000000000000000000000000000000000000000000000000000000000000000000000000000000000000000000000000000000000000000000000000000000000000000000000000000000000000000000000000000000000000000000000000000000000000000000000000000000000000000000000000000000000000000000000000000000000000000000000000000000000000000000000000000000000000000000000000000000000000000000000000000000000000000000000000000000000000000000000000000000000000000000000000000000000000000000000000000",
      "type": "0x2",
      "transactionHash": "0x8b31fa311f91861537142b0cfae8b311729355368942f314252792d1f5049405",
      "transactionIndex": "0x8",
      "blockHash": "0x8407b55a74702362194958ec73f8a0f94b8e47e3b0cc2c3df067a6cc0e6e8e99",
      "blockNumber": "0x19d51d4",
      "gasUsed": "0x1bc80",
      "effectiveGasPrice": "0xb2b",
      "from": "0xa6b3d200cd34ca14d7579dac8b054bf50a62c37c",
      "to": "0xbea3c66c430fc62e8ea94aae849e6df5f53f67a7",
      "contractAddress": null,
      "l1BaseFeeScalar": "0x44d",
      "l1BlobBaseFee": "0x1",
      "l1BlobBaseFeeScalar": "0xa118b",
      "l1Fee": "0x1f5191",
      "l1GasPrice": "0xc6bf8",
      "l1GasUsed": "0x8f1"
    },
    {
      "status": "0x1",
      "cumulativeGasUsed": "0x2410f6",
      "logs": [],
      "logsBloom": "0x00000000000000000000000000000000000000000000000000000000000000000000000000000000000000000000000000000000000000000000000000000000000000000000000000000000000000000000000000000000000000000000000000000000000000000000000000000000000000000000000000000000000000000000000000000000000000000000000000000000000000000000000000000000000000000000000000000000000000000000000000000000000000000000000000000000000000000000000000000000000000000000000000000000000000000000000000000000000000000000000000000000000000000000000000000000",
      "type": "0x2",
      "transactionHash": "0xe0820a0eac22982fd5d39f008d358715c89ad3dce8de3c208d8fe01b9e02a295",
      "transactionIndex": "0x9",
      "blockHash": "0x8407b55a74702362194958ec73f8a0f94b8e47e3b0cc2c3df067a6cc0e6e8e99",
      "blockNumber": "0x19d51d4",
      "gasUsed": "0xb63d",
      "effectiveGasPrice": "0xb2b",
      "from": "0xa6b3d200cd34ca14d7579dac8b054bf50a62c37c",
      "to": "0xbea3c66c430fc62e8ea94aae849e6df5f53f67a7",
      "contractAddress": null,
      "l1BaseFeeScalar": "0x44d",
      "l1BlobBaseFee": "0x1",
      "l1BlobBaseFeeScalar": "0xa118b",
      "l1Fee": "0x15e217",
      "l1GasPrice": "0xc6bf8",
      "l1GasUsed": "0x640"
    },
    {
      "status": "0x1",
      "cumulativeGasUsed": "0x24c733",
      "logs": [],
      "logsBloom": "0x00000000000000000000000000000000000000000000000000000000000000000000000000000000000000000000000000000000000000000000000000000000000000000000000000000000000000000000000000000000000000000000000000000000000000000000000000000000000000000000000000000000000000000000000000000000000000000000000000000000000000000000000000000000000000000000000000000000000000000000000000000000000000000000000000000000000000000000000000000000000000000000000000000000000000000000000000000000000000000000000000000000000000000000000000000000",
      "type": "0x2",
      "transactionHash": "0xb22af4a75948667aaa1acaa637812d489315b9656a2520a4bdb08f0329a6f941",
      "transactionIndex": "0xa",
      "blockHash": "0x8407b55a74702362194958ec73f8a0f94b8e47e3b0cc2c3df067a6cc0e6e8e99",
      "blockNumber": "0x19d51d4",
      "gasUsed": "0xb63d",
      "effectiveGasPrice": "0xb2b",
      "from": "0xa6b3d200cd34ca14d7579dac8b054bf50a62c37c",
      "to": "0xbea3c66c430fc62e8ea94aae849e6df5f53f67a7",
      "contractAddress": null,
      "l1BaseFeeScalar": "0x44d",
      "l1BlobBaseFee": "0x1",
      "l1BlobBaseFeeScalar": "0xa118b",
      "l1Fee": "0x15e217",
      "l1GasPrice": "0xc6bf8",
      "l1GasUsed": "0x640"
    },
    {
      "status": "0x1",
      "cumulativeGasUsed": "0x257d70",
      "logs": [],
      "logsBloom": "0x00000000000000000000000000000000000000000000000000000000000000000000000000000000000000000000000000000000000000000000000000000000000000000000000000000000000000000000000000000000000000000000000000000000000000000000000000000000000000000000000000000000000000000000000000000000000000000000000000000000000000000000000000000000000000000000000000000000000000000000000000000000000000000000000000000000000000000000000000000000000000000000000000000000000000000000000000000000000000000000000000000000000000000000000000000000",
      "type": "0x2",
      "transactionHash": "0x4d70877878408e1a6dec87c5fa2b575cfdcc5895582f2533756a441abda846c3",
      "transactionIndex": "0xb",
      "blockHash": "0x8407b55a74702362194958ec73f8a0f94b8e47e3b0cc2c3df067a6cc0e6e8e99",
      "blockNumber": "0x19d51d4",
      "gasUsed": "0xb63d",
      "effectiveGasPrice": "0xb2b",
      "from": "0xa6b3d200cd34ca14d7579dac8b054bf50a62c37c",
      "to": "0xbea3c66c430fc62e8ea94aae849e6df5f53f67a7",
      "contractAddress": null,
      "l1BaseFeeScalar": "0x44d",
      "l1BlobBaseFee": "0x1",
      "l1BlobBaseFeeScalar": "0xa118b",
      "l1Fee": "0x15e217",
      "l1GasPrice": "0xc6bf8",
      "l1GasUsed": "0x640"
    },
    {
      "status": "0x1",
      "cumulativeGasUsed": "0x2e8b03",
      "logs": [],
      "logsBloom": "0x00000000000000000000000000000000000000000000000000000000000000000000000000000000000000000000000000000000000000000000000000000000000000000000000000000000000000000000000000000000000000000000000000000000000000000000000000000000000000000000000000000000000000000000000000000000000000000000000000000000000000000000000000000000000000000000000000000000000000000000000000000000000000000000000000000000000000000000000000000000000000000000000000000000000000000000000000000000000000000000000000000000000000000000000000000000",
      "type": "0x2",
      "transactionHash": "0xb1e6703e1533f43f6e2a895810bb851f52f42a48a96db50a17c156276c16bba3",
      "transactionIndex": "0xe",
      "blockHash": "0xaf6a86e182eb01c2fd50b4dda7832fea76fc9e56726b780c28532a9cfe6faf54",
      "blockNumber": "0x19d51d4",
      "gasUsed": "0xb63d",
      "effectiveGasPrice": "0xb2b",
      "from": "0xa6b3d200cd34ca14d7579dac8b054bf50a62c37c",
      "to": "0xbea3c66c430fc62e8ea94aae849e6df5f53f67a7",
      "contractAddress": null,
      "l1BaseFeeScalar": "0x44d",
      "l1BlobBaseFee": "0x1",
      "l1BlobBaseFeeScalar": "0xa118b",
      "l1Fee": "0x15e217",
      "l1GasPrice": "0xc6bf8",
      "l1GasUsed": "0x640"
    },
    {
      "status": "0x1",
      "cumulativeGasUsed": "0x311ffa",
      "logs": [
        {
          "address": "0xbea3c66c430fc62e8ea94aae849e6df5f53f67a7",
          "topics": [
            "0x908210fc0149379fe25f26a14ba6965e58ae6f8b5e8bb5e1f4586b323fd79b67",
            "0x88ef8906c27d3e6af98ad7a5cf53c31a771fadb410370749ce5bf0cdb279c3b6"
          ],
          "data": "0x0000000000000000000000000075157b97e5a06aa107727f97294d200e9ce21e00000000000000000000000000000000000000000000000000038d7ea4c680000000000000000000000000000000000000000000000000000000000000000001",
          "blockHash": "0xaf6a86e182eb01c2fd50b4dda7832fea76fc9e56726b780c28532a9cfe6faf54",
          "blockNumber": "0x19d51d4",
          "blockTimestamp": "0x684e0288",
          "transactionHash": "0xc67de878099d5277974438a997c052892e172b1e36336e68db25b3610245d1d1",
          "transactionIndex": "0xf",
          "logIndex": "0x22",
          "removed": false
        }
      ],
      "logsBloom": "0x20000000000000000000000000000000000000000000000000000000000010000000000000000000000000000000000000000000000000000000000000000000010000000000000000000000000000000000000000000000200000000000000000020000000000000000000000000000000000800000000000000000000000000000000800000000000000000000000000000000000000000000000000000000000000000000000000000000000000000000000000000000000000000000000200000000000000000000000000000000000000000000000000000000000000000000000000000000400000000000000000000000000000000000000000000000",
      "type": "0x2",
      "transactionHash": "0xc67de878099d5277974438a997c052892e172b1e36336e68db25b3610245d1d1",
      "transactionIndex": "0xf",
      "blockHash": "0xaf6a86e182eb01c2fd50b4dda7832fea76fc9e56726b780c28532a9cfe6faf54",
      "blockNumber": "0x19d51d4",
      "gasUsed": "0x294f7",
      "effectiveGasPrice": "0xb2b",
      "from": "0xa6b3d200cd34ca14d7579dac8b054bf50a62c37c",
      "to": "0xbea3c66c430fc62e8ea94aae849e6df5f53f67a7",
      "contractAddress": null,
      "l1BaseFeeScalar": "0x44d",
      "l1BlobBaseFee": "0x1",
      "l1BlobBaseFeeScalar": "0xa118b",
      "l1Fee": "0x19a4dc",
      "l1GasPrice": "0xc6bf8",
      "l1GasUsed": "0x752"
    },
    {
      "status": "0x1",
      "cumulativeGasUsed": "0x337225",
      "logs": [
        {
          "address": "0xbea3c66c430fc62e8ea94aae849e6df5f53f67a7",
          "topics": [
            "0x908210fc0149379fe25f26a14ba6965e58ae6f8b5e8bb5e1f4586b323fd79b67",
            "0x924cafe3f4668225141f2f2252ca17f67b629c2ff1426ac8ff340549f1266789"
          ],
          "data": "0x0000000000000000000000000075157b97e5a06aa107727f97294d200e9ce21e00000000000000000000000000000000000000000000000000038d7ea4c680000000000000000000000000000000000000000000000000000000000000000001",
          "blockHash": "0xaf6a86e182eb01c2fd50b4dda7832fea76fc9e56726b780c28532a9cfe6faf54",
          "blockNumber": "0x19d51d4",
          "blockTimestamp": "0x684e0288",
          "transactionHash": "0xcc736d68ad90ce5d78302e17b878db19589ad6a862fdc8da91930c68d2c82a1b",
          "transactionIndex": "0x10",
          "logIndex": "0x23",
          "removed": false
        }
      ],
      "logsBloom": "0x00000000000000000000000000000000000000000000000000000000000010000000000000000000000000000000000000000000000000000000000000000000010000000000000000000000000000000000000000000000000000000000000000020000000000000000000000000000000000800000000000000000000000000000000000000000000000000000000000000000000000000000000000000000000000000000008000000000000000000000000000000000000000000000000200000000000000000000000000000000000000000000000000000020000000000000080000000000400000000000000000000000000000000000000000000000",
      "type": "0x2",
      "transactionHash": "0xcc736d68ad90ce5d78302e17b878db19589ad6a862fdc8da91930c68d2c82a1b",
      "transactionIndex": "0x10",
      "blockHash": "0xaf6a86e182eb01c2fd50b4dda7832fea76fc9e56726b780c28532a9cfe6faf54",
      "blockNumber": "0x19d51d4",
      "gasUsed": "0x2522b",
      "effectiveGasPrice": "0xb2b",
      "from": "0xa6b3d200cd34ca14d7579dac8b054bf50a62c37c",
      "to": "0xbea3c66c430fc62e8ea94aae849e6df5f53f67a7",
      "contractAddress": null,
      "l1BaseFeeScalar": "0x44d",
      "l1BlobBaseFee": "0x1",
      "l1BlobBaseFeeScalar": "0xa118b",
      "l1Fee": "0x19a4dc",
      "l1GasPrice": "0xc6bf8",
      "l1GasUsed": "0x752"
    },
    {
      "status": "0x1",
      "cumulativeGasUsed": "0x35c450",
      "logs": [
        {
          "address": "0xbea3c66c430fc62e8ea94aae849e6df5f53f67a7",
          "topics": [
            "0x908210fc0149379fe25f26a14ba6965e58ae6f8b5e8bb5e1f4586b323fd79b67",
            "0x870729ce323527c7d70de6e3b4d0cf8167c8b204a3f39d2c51d3c92ccebc3edc"
          ],
          "data": "0x0000000000000000000000000075157b97e5a06aa107727f97294d200e9ce21e00000000000000000000000000000000000000000000000000038d7ea4c680000000000000000000000000000000000000000000000000000000000000000001",
          "blockHash": "0xaf6a86e182eb01c2fd50b4dda7832fea76fc9e56726b780c28532a9cfe6faf54",
          "blockNumber": "0x19d51d4",
          "blockTimestamp": "0x684e0288",
          "transactionHash": "0x38b45d671bf5392048704e0899bb61eaf27ac20c44698836004df46798ca2cee",
          "transactionIndex": "0x11",
          "logIndex": "0x24",
          "removed": false
        }
      ],
      "logsBloom": "0x00000000000000000000000000000000000000000000000000000000000010000000000000000000000000000000000000000000000000000000000000000000010000000000000000000000000000000000000000000000000000000000000000020000000000000000000000000000000000800000000000000000000000000000000000000000000000000000000000000000000000000000000000000000000000000000000000000000000000000000000000000000000010400000000200000000000000000000000000000000000000000000002000000000000000000000000000000000400000000000000000000000000000000000000000000000",
      "type": "0x2",
      "transactionHash": "0x38b45d671bf5392048704e0899bb61eaf27ac20c44698836004df46798ca2cee",
      "transactionIndex": "0x11",
      "blockHash": "0xaf6a86e182eb01c2fd50b4dda7832fea76fc9e56726b780c28532a9cfe6faf54",
      "blockNumber": "0x19d51d4",
      "gasUsed": "0x2522b",
      "effectiveGasPrice": "0xb2b",
      "from": "0xa6b3d200cd34ca14d7579dac8b054bf50a62c37c",
      "to": "0xbea3c66c430fc62e8ea94aae849e6df5f53f67a7",
      "contractAddress": null,
      "l1BaseFeeScalar": "0x44d",
      "l1BlobBaseFee": "0x1",
      "l1BlobBaseFeeScalar": "0xa118b",
      "l1Fee": "0x19a4dc",
      "l1GasPrice": "0xc6bf8",
      "l1GasUsed": "0x752"
    },
    {
      "status": "0x1",
      "cumulativeGasUsed": "0x38167b",
      "logs": [
        {
          "address": "0xbea3c66c430fc62e8ea94aae849e6df5f53f67a7",
          "topics": [
            "0x908210fc0149379fe25f26a14ba6965e58ae6f8b5e8bb5e1f4586b323fd79b67",
            "0x1887cd0d242fb25ce3889259bf747a4bc6ac3eb3fe083aa1d14c660f7a59c3e2"
          ],
          "data": "0x0000000000000000000000000075157b97e5a06aa107727f97294d200e9ce21e00000000000000000000000000000000000000000000000000038d7ea4c680000000000000000000000000000000000000000000000000000000000000000001",
          "blockHash": "0xaf6a86e182eb01c2fd50b4dda7832fea76fc9e56726b780c28532a9cfe6faf54",
          "blockNumber": "0x19d51d4",
          "blockTimestamp": "0x684e0288",
          "transactionHash": "0x9dc7bdb5f9bbd94fe611ccf6e6bded88d7d9c0c89ef02405fe3f51f9e2cf5752",
          "transactionIndex": "0x12",
          "logIndex": "0x25",
          "removed": false
        }
      ],
      "logsBloom": "0x00000000000000000000000000000000000000000000000000000000000010000000000000000000000000000000000004000000000000000000000000000000010000000000000000000000000000000000000000000000000000000000000000020000000000000000000000000000000000800000000000000000000000000000000000000000000000000000000000000000000000002000000000000000000000000000000000000000000000000000000000000000000000000000000200000000000000000000000000000000000000000000000000000000000000000000000000000000400000000000080000000000000000000000000000000000",
      "type": "0x2",
      "transactionHash": "0x9dc7bdb5f9bbd94fe611ccf6e6bded88d7d9c0c89ef02405fe3f51f9e2cf5752",
      "transactionIndex": "0x12",
      "blockHash": "0xaf6a86e182eb01c2fd50b4dda7832fea76fc9e56726b780c28532a9cfe6faf54",
      "blockNumber": "0x19d51d4",
      "gasUsed": "0x2522b",
      "effectiveGasPrice": "0xb2b",
      "from": "0xa6b3d200cd34ca14d7579dac8b054bf50a62c37c",
      "to": "0xbea3c66c430fc62e8ea94aae849e6df5f53f67a7",
      "contractAddress": null,
      "l1BaseFeeScalar": "0x44d",
      "l1BlobBaseFee": "0x1",
      "l1BlobBaseFeeScalar": "0xa118b",
      "l1Fee": "0x19a4dc",
      "l1GasPrice": "0xc6bf8",
      "l1GasUsed": "0x752"
    },
    {
      "status": "0x1",
      "cumulativeGasUsed": "0x38d1d4",
      "logs": [
        {
          "address": "0xbea3c66c430fc62e8ea94aae849e6df5f53f67a7",
          "topics": [
            "0x603c893fe5a7abb065fd37be5d74b7570a708f31c5b02b409779f57f8ab59788",
            "0x88ef8906c27d3e6af98ad7a5cf53c31a771fadb410370749ce5bf0cdb279c3b6"
          ],
          "data": "0x000000000000000000000000000000000000000000000000000009184e72a000",
          "blockHash": "0xaf6a86e182eb01c2fd50b4dda7832fea76fc9e56726b780c28532a9cfe6faf54",
          "blockNumber": "0x19d51d4",
          "blockTimestamp": "0x684e0288",
          "transactionHash": "0x2347c19ddc5f2fcd217d33c7973b037fb186294b246cf786285462010a0ae3d4",
          "transactionIndex": "0x13",
          "logIndex": "0x26",
          "removed": false
        }
      ],
      "logsBloom": "0x20000000000000000000000000000000000000000000000000000000200000000000000000000000000000000000000000000000000000000000000000000000010000000000000000000000000000000000000000000000200000000000000000020080000000000000000000010000000000800000000000000000000000000000000800000000000000000000000000000000000000000000000000000000000000000000000000000000000000000000000000000000000000000000000000000000000000000000000000000000000000000000000000000000000000000000000000000000000000000000000000000000000000000000000000000000",
      "type": "0x2",
      "transactionHash": "0x2347c19ddc5f2fcd217d33c7973b037fb186294b246cf786285462010a0ae3d4",
      "transactionIndex": "0x13",
      "blockHash": "0xaf6a86e182eb01c2fd50b4dda7832fea76fc9e56726b780c28532a9cfe6faf54",
      "blockNumber": "0x19d51d4",
      "gasUsed": "0xbb59",
      "effectiveGasPrice": "0xb2b",
      "from": "0xa6b3d200cd34ca14d7579dac8b054bf50a62c37c",
      "to": "0xbea3c66c430fc62e8ea94aae849e6df5f53f67a7",
      "contractAddress": null,
      "l1BaseFeeScalar": "0x44d",
      "l1BlobBaseFee": "0x1",
      "l1BlobBaseFeeScalar": "0xa118b",
      "l1Fee": "0x15e217",
      "l1GasPrice": "0xc6bf8",
      "l1GasUsed": "0x640"
    },
    {
      "status": "0x1",
      "cumulativeGasUsed": "0x398d2d",
      "logs": [
        {
          "address": "0xbea3c66c430fc62e8ea94aae849e6df5f53f67a7",
          "topics": [
            "0x603c893fe5a7abb065fd37be5d74b7570a708f31c5b02b409779f57f8ab59788",
            "0x924cafe3f4668225141f2f2252ca17f67b629c2ff1426ac8ff340549f1266789"
          ],
          "data": "0x000000000000000000000000000000000000000000000000000009184e72a000",
          "blockHash": "0xaf6a86e182eb01c2fd50b4dda7832fea76fc9e56726b780c28532a9cfe6faf54",
          "blockNumber": "0x19d51d4",
          "blockTimestamp": "0x684e0288",
          "transactionHash": "0x5c052429a0fa02ea872aa09a4e9690178c7666f580b44d7056094ce5ef71d1c3",
          "transactionIndex": "0x14",
          "logIndex": "0x27",
          "removed": false
        }
      ],
      "logsBloom": "0x00000000000000000000000000000000000000000000000000000000200000000000000000000000000000000000000000000000000000000000000000000000010000000000000000000000000000000000000000000000000000000000000000020080000000000000000000010000000000800000000000000000000000000000000000000000000000000000000000000000000000000000000000000000000000000000008000000000000000000000000000000000000000000000000000000000000000000000000000000000000000000000000000000020000000000000080000000000000000000000000000000000000000000000000000000000",
      "type": "0x2",
      "transactionHash": "0x5c052429a0fa02ea872aa09a4e9690178c7666f580b44d7056094ce5ef71d1c3",
      "transactionIndex": "0x14",
      "blockHash": "0xaf6a86e182eb01c2fd50b4dda7832fea76fc9e56726b780c28532a9cfe6faf54",
      "blockNumber": "0x19d51d4",
      "gasUsed": "0xbb59",
      "effectiveGasPrice": "0xb2b",
      "from": "0xa6b3d200cd34ca14d7579dac8b054bf50a62c37c",
      "to": "0xbea3c66c430fc62e8ea94aae849e6df5f53f67a7",
      "contractAddress": null,
      "l1BaseFeeScalar": "0x44d",
      "l1BlobBaseFee": "0x1",
      "l1BlobBaseFeeScalar": "0xa118b",
      "l1Fee": "0x15e217",
      "l1GasPrice": "0xc6bf8",
      "l1GasUsed": "0x640"
    },
    {
      "status": "0x1",
      "cumulativeGasUsed": "0x5c7ea6",
      "logs": [
        {
          "address": "0xbea3c66c430fc62e8ea94aae849e6df5f53f67a7",
          "topics": [
            "0x603c893fe5a7abb065fd37be5d74b7570a708f31c5b02b409779f57f8ab59788",
            "0x870729ce323527c7d70de6e3b4d0cf8167c8b204a3f39d2c51d3c92ccebc3edc"
          ],
          "data": "0x000000000000000000000000000000000000000000000000000009184e72a000",
          "blockHash": "0x9401a7ad11f4ea29e239de0308319d6cb1562397d0eb8f9f712c83386e3a09db",
          "blockNumber": "0x19d51d4",
          "transactionHash": "0xf82b7a0c163f176e96bb25373dc0dc738652b42f95fcff7058507bde2bed959a",
          "transactionIndex": "0x1e",
          "logIndex": "0x62",
          "removed": false
        }
      ],
      "logsBloom": "0x00000000000000000000000000000000000000000000000000000000200000000000000000000000000000000000000000000000000000000000000000000000010000000000000000000000000000000000000000000000000000000000000000020080000000000000000000010000000000800000000000000000000000000000000000000000000000000000000000000000000000000000000000000000000000000000000000000000000000000000000000000000000010400000000000000000000000000000000000000000000000000000002000000000000000000000000000000000000000000000000000000000000000000000000000000000",
      "type": "0x2",
      "transactionHash": "0xf82b7a0c163f176e96bb25373dc0dc738652b42f95fcff7058507bde2bed959a",
      "transactionIndex": "0x1e",
      "blockHash": "0x9401a7ad11f4ea29e239de0308319d6cb1562397d0eb8f9f712c83386e3a09db",
      "blockNumber": "0x19d51d4",
      "gasUsed": "0xbb59",
      "effectiveGasPrice": "0xaf6",
      "from": "0xa6b3d200cd34ca14d7579dac8b054bf50a62c37c",
      "to": "0xbea3c66c430fc62e8ea94aae849e6df5f53f67a7",
      "contractAddress": null,
      "l1BaseFeeScalar": "0x44d",
      "l1BlobBaseFee": "0x1",
      "l1BlobBaseFeeScalar": "0xa118b",
      "l1Fee": "0x15e217",
      "l1GasPrice": "0xc6bf8",
      "l1GasUsed": "0x640"
    },
    {
      "status": "0x1",
      "cumulativeGasUsed": "0x5d39ff",
      "logs": [
        {
          "address": "0xbea3c66c430fc62e8ea94aae849e6df5f53f67a7",
          "topics": [
            "0x603c893fe5a7abb065fd37be5d74b7570a708f31c5b02b409779f57f8ab59788",
            "0x1887cd0d242fb25ce3889259bf747a4bc6ac3eb3fe083aa1d14c660f7a59c3e2"
          ],
          "data": "0x000000000000000000000000000000000000000000000000000009184e72a000",
          "blockHash": "0x9401a7ad11f4ea29e239de0308319d6cb1562397d0eb8f9f712c83386e3a09db",
          "blockNumber": "0x19d51d4",
          "transactionHash": "0xe65c25dba2030949900262bb88038e04338bd92f2ff3929b526c4e0400e77957",
          "transactionIndex": "0x1f",
          "logIndex": "0x63",
          "removed": false
        }
      ],
      "logsBloom": "0x00000000000000000000000000000000000000000000000000000000200000000000000000000000000000000000000004000000000000000000000000000000010000000000000000000000000000000000000000000000000000000000000000020080000000000000000000010000000000800000000000000000000000000000000000000000000000000000000000000000000000002000000000000000000000000000000000000000000000000000000000000000000000000000000000000000000000000000000000000000000000000000000000000000000000000000000000000000000000000000080000000000000000000000000000000000",
      "type": "0x2",
      "transactionHash": "0xe65c25dba2030949900262bb88038e04338bd92f2ff3929b526c4e0400e77957",
      "transactionIndex": "0x1f",
      "blockHash": "0x9401a7ad11f4ea29e239de0308319d6cb1562397d0eb8f9f712c83386e3a09db",
      "blockNumber": "0x19d51d4",
      "gasUsed": "0xbb59",
      "effectiveGasPrice": "0xaf6",
      "from": "0xa6b3d200cd34ca14d7579dac8b054bf50a62c37c",
      "to": "0xbea3c66c430fc62e8ea94aae849e6df5f53f67a7",
      "contractAddress": null,
      "l1BaseFeeScalar": "0x44d",
      "l1BlobBaseFee": "0x1",
      "l1BlobBaseFeeScalar": "0xa118b",
      "l1Fee": "0x15e217",
      "l1GasPrice": "0xc6bf8",
      "l1GasUsed": "0x640"
    }
  ],
  "libraries": [],
  "pending": [],
  "returns": {},
  "timestamp": 1749942922,
  "chain": 84532,
  "commit": "bbff0ba"
}