{
  "transactions": [
    {
      "hash": "0xb67a2c29ca12dcb4e08a912911fbd9f5d3d7d5fc48d55d751c3111f37591588b",
      "transactionType": "CREATE",
      "contractName": "RewardDistributor",
      "contractAddress": "0x907391aa8e654e9839052aea5ae73550ad79104b",
      "function": null,
      "arguments": null,
      "transaction": {
        "from": "0xa6b3d200cd34ca14d7579dac8b054bf50a62c37c",
        "gas": "0x178d55",
        "value": "0x0",
        "input": "0x608080604052346071573315605e575f8054336001600160a01b0319821681178355916001600160a01b03909116907f8be0079c531659141344cd1fd0a4f28419497f9722a3daafe3b4186f6b6457e09080a361141790816100768239f35b631e4fbdf760e01b5f525f60045260245ffd5b5f80fdfe6080806040526004361015610012575f80fd5b5f3560e01c908162f9643414610e0c5750806309f2c01914610d555780630b36db1514610b87578063179aae8814610b615780632073de5c14610ae857806323be345c14610ac25780632636e8a0146108b5578063274ee4751461080d578063312e109c146106ff57806348f60dfd146105f95780634e210544146105d357806368b2c40c1461055f57806369883b4e14610527578063715018a6146104d05780637790ddc6146104225780638da5cb5b146103fd5780638ff29cfe146103c05780639002392e1461035957806395ccea671461032157806399fc65d4146102c9578063b79f12b2146102a3578063d88ff1f4146101ed578063ec01da10146101c35763f2fde38b14610123575f80fd5b346101bf5760203660031901126101bf576001600160a01b03610144610f2e565b61014c6111f5565b168015610193576001600160a01b035f54826001600160a01b03198216175f55167f8be0079c531659141344cd1fd0a4f28419497f9722a3daafe3b4186f6b6457e05f80a3005b7f1e4fbdf7000000000000000000000000000000000000000000000000000000005f525f60045260245ffd5b5f80fd5b346101bf5760203660031901126101bf576004355f526004602052602060405f2054604051908152f35b346101bf575f3660031901126101bf576040518060206002549283815201809260025f527f405787fa12a823e0f2b7631cc41b3ba8828b3321ca811111fa75cd3aa3bb5ace905f5b81811061028d575050508161024b910382610fbe565b604051918291602083019060208452518091526040830191905f5b818110610274575050500390f35b8251845285945060209384019390920191600101610266565b8254845260209093019260019283019201610235565b346101bf575f3660031901126101bf5760206001600160a01b0360065416604051908152f35b346101bf5760403660031901126101bf576102e2610f2e565b60243580151581036101bf576001600160a01b0361031f926103026111f5565b165f52600560205260405f209060ff801983541691151516179055565b005b346101bf5760403660031901126101bf5761031f61033d610f2e565b6103456111f5565b602435906001600160a01b03339116611234565b346101bf5760403660031901126101bf57610372610f18565b6004355f5260036020526001600160a01b0360405f2091165f52602052608060405f208054906001810154906003600282015491015491604051938452602084015260408301526060820152f35b346101bf5760203660031901126101bf576001600160a01b036103e1610f2e565b165f526005602052602060ff60405f2054166040519015158152f35b346101bf575f3660031901126101bf5760206001600160a01b035f5416604051908152f35b346101bf5760203660031901126101bf576004356104403382611119565b805f52600360205260405f206001600160a01b0333165f52602052600160405f2001908154918261046d57005b5f9055805f5260016020526104a28260405f206002810161048f838254611014565b90556001600160a01b0333915416611234565b6040519182527ffec539b3c42d74cd492c3ecf7966bf014b327beef98e935cdc3ec5e54a6901c760203393a3005b346101bf575f3660031901126101bf576104e86111f5565b5f6001600160a01b0381546001600160a01b031981168355167f8be0079c531659141344cd1fd0a4f28419497f9722a3daafe3b4186f6b6457e08280a3005b346101bf5760203660031901126101bf576004356002548110156101bf57610550602091610f5a565b90549060031b1c604051908152f35b346101bf5760207facefc4a7d159e33f5c2d6facc53467d06090e50ccfa880ef241dc1d1a9200f6c61059036610f44565b61059b9391936111f5565b835f526001825260405f206105af85611021565b6005820155600442910155835f526001825280600360405f200155604051908152a2005b346101bf575f3660031901126101bf5760206001600160a01b0360085416604051908152f35b346101bf5761060736610f44565b815f52600160205260405f2060ff600682015416156106bb577f603c893fe5a7abb065fd37be5d74b7570a708f31c5b02b409779f57f8ab59788916001826106a46001600160a01b036020955416604051907f23b872dd00000000000000000000000000000000000000000000000000000000878301523360248301523060448301528560648301526064825261069f608483610fbe565b61128b565b016106b0828254611014565b9055604051908152a2005b606460405162461bcd60e51b815260206004820152600f60248201527f506f6f6c206e6f742061637469766500000000000000000000000000000000006044820152fd5b346101bf5760403660031901126101bf576107a260043561071e610f18565b90805f52600360205260405f206001600160a01b0383165f52602052602060405f20926040519261074e84610fa2565b8454845260018501548385015260606003600287015496876040880152015494019384526040519586928392623e590d60e21b8452600484019092916001600160a01b036020916040840195845216910152565b0381305afa908115610802575f916107cd575b60609350519060405192835260208301526040820152f35b90506020833d6020116107fa575b816107e860209383610fbe565b810103126101bf5760609251906107b5565b3d91506107db565b6040513d5f823e3d90fd5b346101bf5760803660031901126101bf57610826610f2e565b61082e610f18565b90604435906001600160a01b0382168092036101bf57606435926001600160a01b0384168094036101bf576001600160a01b03809261086b6111f5565b166001600160a01b03196006541617600655166001600160a01b031960075416176007556001600160a01b031960085416176008556001600160a01b031960095416176009555f80f35b346101bf5760603660031901126101bf576004356108d1610f18565b6044356108dc6111f5565b825f5260016020526001600160a01b0360405f205416610a7e576001600160a01b0382168015610a3a576040516109a29161091682610f86565b81526006602082015f8152604083015f815260608401868152608085019042825260a08601925f845260c0870194600186528b5f5260016020526001600160a01b0360405f209851166001600160a01b031989541617885551600188015551600287015551600386015551600485015551600584015551151591019060ff801983541691151516179055565b6002549168010000000000000000831015610a26576109e88360017f1b8c3bf52594d3e5de8d89e5e71716abb92ae11fc8c2ba8097ac21c223524bcb9501600255610f5a565b81549060031b9086821b915f19901b1916179055610a2160405192839283602090939291936001600160a01b0360408201951681520152565b0390a2005b634e487b7160e01b5f52604160045260245ffd5b606460405162461bcd60e51b815260206004820152601460248201527f496e76616c69642072657761726420746f6b656e0000000000000000000000006044820152fd5b606460405162461bcd60e51b815260206004820152601360248201527f506f6f6c20616c726561647920657869737473000000000000000000000000006044820152fd5b346101bf575f3660031901126101bf5760206001600160a01b0360095416604051908152f35b346101bf5760203660031901126101bf576004355f52600160205260e060405f206001600160a01b03815416906001810154906002810154600382015460048301549160ff600660058601549501541694604051968752602087015260408601526060850152608084015260a0830152151560c0820152f35b346101bf575f3660031901126101bf5760206001600160a01b0360075416604051908152f35b346101bf5760803660031901126101bf57600435610ba3610f18565b9060443591606435908115158083036101bf57335f52600560205260ff60405f20541615610d1157610bd58285611119565b835f52600360205260405f206001600160a01b0383165f5260205260405f20925f14610c68576040916001600160a01b03918460027f9f0a7aaf8d18c024e8123bdcd157b0f6e0f42892a4ea14a2becc88a320a799229601610c38898254611014565b9055865f526004602052845f20610c50898254611014565b90555b600342910155835196875260208701521693a3005b6002830191825491868310610ccd577f9f0a7aaf8d18c024e8123bdcd157b0f6e0f42892a4ea14a2becc88a320a7992294604094610cae896001600160a01b0396610fe0565b9055865f526004602052845f20610cc6898254610fe0565b9055610c53565b606460405162461bcd60e51b815260206004820152601260248201527f496e73756666696369656e74207374616b6500000000000000000000000000006044820152fd5b606460405162461bcd60e51b815260206004820152600e60248201527f4e6f7420617574686f72697a65640000000000000000000000000000000000006044820152fd5b346101bf5760203660031901126101bf5760c0600435805f52600160205260405f2090604051610d8481610f86565b6001600160a01b03835416928382526001810154928360208401526002820154908160408501528660ff600660038601549586606089015260048101546080890152600581015460a0890152015416940193151584525f52600460205260405f20549251151593604051958652602086015260408501526060840152608083015260a0820152f35b346101bf5760403660031901126101bf57610f1060209160043590610e2f610f18565b90825f526001855260c060ff600660405f20610e4a85610f86565b6001600160a01b038154168552600181015489860152600281015460408601526003810154606086015260048101546080860152600581015460a08601520154161515910152815f52600384526001600160a01b0360405f2091165f528352670de0b6b3a7640000610f0760405f20610f0160405191610ec983610fa2565b80548352610ef760018201549689850197885260036002840154936040870194855201546060860152611021565b9051925190610fe0565b90611001565b04905190611014565b604051908152f35b602435906001600160a01b03821682036101bf57565b600435906001600160a01b03821682036101bf57565b60409060031901126101bf576004359060243590565b600254811015610f725760025f5260205f2001905f90565b634e487b7160e01b5f52603260045260245ffd5b60e0810190811067ffffffffffffffff821117610a2657604052565b6080810190811067ffffffffffffffff821117610a2657604052565b90601f8019910116810190811067ffffffffffffffff821117610a2657604052565b91908203918211610fed57565b634e487b7160e01b5f52601160045260245ffd5b81810292918115918404141715610fed57565b91908201809211610fed57565b805f52600160205260405f206040519061103a82610f86565b6001600160a01b0381541682526001810154602083015260028101546040830152600381015490606083019182526004810154926080810193845260c060ff600660058501549460a085019586520154161515910152835f52600460205260405f20541561111157906110b36110bb9251935142610fe0565b905190611001565b91670de0b6b3a7640000830292808404670de0b6b3a76400001490151715610fed575f52600460205260405f205480156110fd576110fa920490611014565b90565b634e487b7160e01b5f52601260045260245ffd5b925050505190565b90815f52600160205260405f209061113083611021565b91600581019283556004429101556001600160a01b03811661115157505050565b60206111a591845f526003825260405f206001600160a01b0382165f52825260405f20946040519384928392623e590d60e21b8452600484019092916001600160a01b036020916040840195845216910152565b0381305afa908115610802575f916111c3575b506001830155549055565b90506020813d6020116111ed575b816111de60209383610fbe565b810103126101bf57515f6111b8565b3d91506111d1565b6001600160a01b035f5416330361120857565b7f118cdaa7000000000000000000000000000000000000000000000000000000005f523360045260245ffd5b6040517fa9059cbb0000000000000000000000000000000000000000000000000000000060208201526001600160a01b039290921660248301526044808301939093529181526112899161069f606483610fbe565b565b5f6001600160a01b038192169260208151910182855af13d15611349573d67ffffffffffffffff8111610a26576112e491604051916112d46020601f19601f8401160184610fbe565b82523d5f602084013e5b83611355565b8051908115159182611325575b50506112fa5750565b7f5274afe7000000000000000000000000000000000000000000000000000000005f5260045260245ffd5b81925090602091810103126101bf57602001518015908115036101bf575f806112f1565b6112e4906060906112de565b90611392575080511561136a57805190602001fd5b7f1425ea42000000000000000000000000000000000000000000000000000000005f5260045ffd5b815115806113d8575b6113a3575090565b6001600160a01b03907f9996b315000000000000000000000000000000000000000000000000000000005f521660045260245ffd5b50803b1561139b56fea2646970667358221220d4859dc9221cbfa25bc5db731b8bc7bad090127b24c4f75b6a6c0b91fdeae77e64736f6c634300081a0033",
        "nonce": "0x7e3",
        "chainId": "0x14a34"
      },
      "additionalContracts": [],
      "isFixedGasLimit": false
    },
    {
      "hash": "0xf763c2860130f839a93c2ec7df70ede72f05eedebce2a77207ea48f9d969dea2",
      "transactionType": "CALL",
      "contractName": "RewardDistributor",
      "contractAddress": "0x907391aa8e654e9839052aea5ae73550ad79104b",
      "function": "setProtocolComponents(address,address,address,address)",
      "arguments": [
        "0x5D81190A1c162D81b7053b443BC914c7716b8930",
        "0x79Ad6507A5683C6411477144ceE6c68914072001",
        "0xbF8f9F5e8A5A77ba627CF0CFed11e48bDE0ac36b",
        "0x013B87CcA1524AF27Eb30b6cA49A646C610d7236"
      ],
      "transaction": {
        "from": "0xa6b3d200cd34ca14d7579dac8b054bf50a62c37c",
        "to": "0x907391aa8e654e9839052aea5ae73550ad79104b",
        "gas": "0x28a0d",
        "value": "0x0",
        "input": "0x274ee4750000000000000000000000005d81190a1c162d81b7053b443bc914c7716b893000000000000000000000000079ad6507a5683c6411477144cee6c68914072001000000000000000000000000bf8f9f5e8a5a77ba627cf0cfed11e48bde0ac36b000000000000000000000000013b87cca1524af27eb30b6ca49a646c610d7236",
        "nonce": "0x7e4",
        "chainId": "0x14a34"
      },
      "additionalContracts": [],
      "isFixedGasLimit": false
    },
    {
      "hash": "0xae5552c2ee41b40c63d17eefad895094ec9c04c62a815e56836d7cb729f91bf7",
      "transactionType": "CALL",
      "contractName": "RewardDistributor",
      "contractAddress": "0x907391aa8e654e9839052aea5ae73550ad79104b",
      "function": "setAuthorizedUpdater(address,bool)",
      "arguments": [
        "0x79Ad6507A5683C6411477144ceE6c68914072001",
        "true"
      ],
      "transaction": {
        "from": "0xa6b3d200cd34ca14d7579dac8b054bf50a62c37c",
        "to": "0x907391aa8e654e9839052aea5ae73550ad79104b",
        "gas": "0x10a53",
        "value": "0x0",
        "input": "0x99fc65d400000000000000000000000079ad6507a5683c6411477144cee6c689140720010000000000000000000000000000000000000000000000000000000000000001",
        "nonce": "0x7e5",
        "chainId": "0x14a34"
      },
      "additionalContracts": [],
      "isFixedGasLimit": false
    },
    {
      "hash": "0xe516b29efee4a6ea56129288c96f155c99bef535997dcbb7d02f25d9037b35b4",
      "transactionType": "CALL",
      "contractName": "RewardDistributor",
      "contractAddress": "0x907391aa8e654e9839052aea5ae73550ad79104b",
      "function": "setAuthorizedUpdater(address,bool)",
      "arguments": [
        "0xbF8f9F5e8A5A77ba627CF0CFed11e48bDE0ac36b",
        "true"
      ],
      "transaction": {
        "from": "0xa6b3d200cd34ca14d7579dac8b054bf50a62c37c",
        "to": "0x907391aa8e654e9839052aea5ae73550ad79104b",
        "gas": "0x10a53",
        "value": "0x0",
        "input": "0x99fc65d4000000000000000000000000bf8f9f5e8a5a77ba627cf0cfed11e48bde0ac36b0000000000000000000000000000000000000000000000000000000000000001",
        "nonce": "0x7e6",
        "chainId": "0x14a34"
      },
      "additionalContracts": [],
      "isFixedGasLimit": false
    },
    {
      "hash": "0x629e1e89c4dd376bff4a7e4368115dbc079cbcdc2879e8befe7fa1ba92b625f6",
      "transactionType": "CALL",
      "contractName": "RewardDistributor",
      "contractAddress": "0x907391aa8e654e9839052aea5ae73550ad79104b",
      "function": "setAuthorizedUpdater(address,bool)",
      "arguments": [
        "0x5D81190A1c162D81b7053b443BC914c7716b8930",
        "true"
      ],
      "transaction": {
        "from": "0xa6b3d200cd34ca14d7579dac8b054bf50a62c37c",
        "to": "0x907391aa8e654e9839052aea5ae73550ad79104b",
        "gas": "0x10a53",
        "value": "0x0",
        "input": "0x99fc65d40000000000000000000000005d81190a1c162d81b7053b443bc914c7716b89300000000000000000000000000000000000000000000000000000000000000001",
        "nonce": "0x7e7",
        "chainId": "0x14a34"
      },
      "additionalContracts": [],
      "isFixedGasLimit": false
    },
    {
      "hash": "0xd4d3664b2ede1a8cc192dd42f62391a7d5b647354fbe7e93ef36bc7f70f6f74a",
      "transactionType": "CALL",
      "contractName": "RewardDistributor",
      "contractAddress": "0x907391aa8e654e9839052aea5ae73550ad79104b",
      "function": "setAuthorizedUpdater(address,bool)",
      "arguments": [
        "0x013B87CcA1524AF27Eb30b6cA49A646C610d7236",
        "true"
      ],
      "transaction": {
        "from": "0xa6b3d200cd34ca14d7579dac8b054bf50a62c37c",
        "to": "0x907391aa8e654e9839052aea5ae73550ad79104b",
        "gas": "0x10a53",
        "value": "0x0",
        "input": "0x99fc65d4000000000000000000000000013b87cca1524af27eb30b6ca49a646c610d72360000000000000000000000000000000000000000000000000000000000000001",
        "nonce": "0x7e8",
        "chainId": "0x14a34"
      },
      "additionalContracts": [],
      "isFixedGasLimit": false
    },
    {
      "hash": "0x4432f421dcd036b526ff933f4d26735a6e52d8519844d75005b4be6625eb61fa",
      "transactionType": "CALL",
      "contractName": "RewardDistributor",
      "contractAddress": "0x907391aa8e654e9839052aea5ae73550ad79104b",
      "function": "createRewardPool(bytes32,address,uint256)",
      "arguments": [
        "0x88ef8906c27d3e6af98ad7a5cf53c31a771fadb410370749ce5bf0cdb279c3b6",
        "0x36Af848382f9984f3f425B629cD2d8Fd12f7ED69",
        "1000000000000000"
      ],
      "transaction": {
        "from": "0xa6b3d200cd34ca14d7579dac8b054bf50a62c37c",
        "to": "0x907391aa8e654e9839052aea5ae73550ad79104b",
        "gas": "0x382ec",
        "value": "0x0",
        "input": "0x2636e8a088ef8906c27d3e6af98ad7a5cf53c31a771fadb410370749ce5bf0cdb279c3b600000000000000000000000036af848382f9984f3f425b629cd2d8fd12f7ed6900000000000000000000000000000000000000000000000000038d7ea4c68000",
        "nonce": "0x7e9",
        "chainId": "0x14a34"
      },
      "additionalContracts": [],
      "isFixedGasLimit": false
    },
    {
      "hash": "0x4b1cc1bddfe8407a69e93ffc85933f81c9327213fcf8ae6c157a139460c7e9a6",
      "transactionType": "CALL",
      "contractName": "RewardDistributor",
      "contractAddress": "0x907391aa8e654e9839052aea5ae73550ad79104b",
      "function": "createRewardPool(bytes32,address,uint256)",
      "arguments": [
        "0x924cafe3f4668225141f2f2252ca17f67b629c2ff1426ac8ff340549f1266789",
        "0x36Af848382f9984f3f425B629cD2d8Fd12f7ED69",
        "500000000000000"
      ],
      "transaction": {
        "from": "0xa6b3d200cd34ca14d7579dac8b054bf50a62c37c",
        "to": "0x907391aa8e654e9839052aea5ae73550ad79104b",
        "gas": "0x3561d",
        "value": "0x0",
        "input": "0x2636e8a0924cafe3f4668225141f2f2252ca17f67b629c2ff1426ac8ff340549f126678900000000000000000000000036af848382f9984f3f425b629cd2d8fd12f7ed690000000000000000000000000000000000000000000000000001c6bf52634000",
        "nonce": "0x7ea",
        "chainId": "0x14a34"
      },
      "additionalContracts": [],
      "isFixedGasLimit": false
    },
    {
      "hash": "0x79e1a19aad19b130efb36458f2e173ada1c1601d87d17fb42da2c3dca8553c60",
      "transactionType": "CALL",
      "contractName": "RewardDistributor",
      "contractAddress": "0x907391aa8e654e9839052aea5ae73550ad79104b",
      "function": "createRewardPool(bytes32,address,uint256)",
      "arguments": [
        "0xecfdf68dd313ee04cb77f5658c9ed69bbf41473da762b20d1b421a21de98fbb4",
        "0x36Af848382f9984f3f425B629cD2d8Fd12f7ED69",
        "2000000000000000"
      ],
      "transaction": {
        "from": "0xa6b3d200cd34ca14d7579dac8b054bf50a62c37c",
        "to": "0x907391aa8e654e9839052aea5ae73550ad79104b",
        "gas": "0x32699",
        "value": "0x0",
        "input": "0x2636e8a0ecfdf68dd313ee04cb77f5658c9ed69bbf41473da762b20d1b421a21de98fbb400000000000000000000000036af848382f9984f3f425b629cd2d8fd12f7ed6900000000000000000000000000000000000000000000000000071afd498d0000",
        "nonce": "0x7eb",
        "chainId": "0x14a34"
      },
      "additionalContracts": [],
      "isFixedGasLimit": false
    },
    {
      "hash": "0xfff4ffc3485f9045c5de946ec58727b612aa5c31632d5242593e82da9e409646",
      "transactionType": "CALL",
      "contractName": "RewardDistributor",
      "contractAddress": "0x907391aa8e654e9839052aea5ae73550ad79104b",
      "function": "createRewardPool(bytes32,address,uint256)",
      "arguments": [
        "0xe4cd8d210913bba3eedc531a84655dcd6fbb70f4d34730cf37a5e57a98b7d93b",
        "0x36Af848382f9984f3f425B629cD2d8Fd12f7ED69",
        "1500000000000000"
      ],
      "transaction": {
        "from": "0xa6b3d200cd34ca14d7579dac8b054bf50a62c37c",
        "to": "0x907391aa8e654e9839052aea5ae73550ad79104b",
        "gas": "0x3561d",
        "value": "0x0",
        "input": "0x2636e8a0e4cd8d210913bba3eedc531a84655dcd6fbb70f4d34730cf37a5e57a98b7d93b00000000000000000000000036af848382f9984f3f425b629cd2d8fd12f7ed690000000000000000000000000000000000000000000000000005543df729c000",
        "nonce": "0x7ec",
        "chainId": "0x14a34"
      },
      "additionalContracts": [],
      "isFixedGasLimit": false
    },
    {
      "hash": "0x021c949dfaeb6e1ba7b3a350da4dae56e0ea2f0e1513faabbe867187a90b4f02",
      "transactionType": "CALL",
      "contractName": "RewardDistributor",
      "contractAddress": "0x907391aa8e654e9839052aea5ae73550ad79104b",
      "function": "createRewardPool(bytes32,address,uint256)",
      "arguments": [
        "0x1314db6eea4458bbd4ff96565b0b2561ba3db9780cbdbded7e2df4230b8aa460",
        "0x36Af848382f9984f3f425B629cD2d8Fd12f7ED69",
        "1000000000000000"
      ],
      "transaction": {
        "from": "0xa6b3d200cd34ca14d7579dac8b054bf50a62c37c",
        "to": "0x907391aa8e654e9839052aea5ae73550ad79104b",
        "gas": "0x3561d",
        "value": "0x0",
        "input": "0x2636e8a01314db6eea4458bbd4ff96565b0b2561ba3db9780cbdbded7e2df4230b8aa46000000000000000000000000036af848382f9984f3f425b629cd2d8fd12f7ed6900000000000000000000000000000000000000000000000000038d7ea4c68000",
        "nonce": "0x7ed",
        "chainId": "0x14a34"
      },
      "additionalContracts": [],
      "isFixedGasLimit": false
    },
    {
      "hash": "0x889f0e2d72e48ec1ff7c46d220559a78a9e9d54027435b84753b0cd8d78a2cca",
      "transactionType": "CALL",
      "contractName": "RewardDistributor",
      "contractAddress": "0x907391aa8e654e9839052aea5ae73550ad79104b",
      "function": "createRewardPool(bytes32,address,uint256)",
      "arguments": [
        "0x1887cd0d242fb25ce3889259bf747a4bc6ac3eb3fe083aa1d14c660f7a59c3e2",
        "0x36Af848382f9984f3f425B629cD2d8Fd12f7ED69",
        "500000000000000"
      ],
      "transaction": {
        "from": "0xa6b3d200cd34ca14d7579dac8b054bf50a62c37c",
        "to": "0x907391aa8e654e9839052aea5ae73550ad79104b",
        "gas": "0x3561d",
        "value": "0x0",
        "input": "0x2636e8a01887cd0d242fb25ce3889259bf747a4bc6ac3eb3fe083aa1d14c660f7a59c3e200000000000000000000000036af848382f9984f3f425b629cd2d8fd12f7ed690000000000000000000000000000000000000000000000000001c6bf52634000",
        "nonce": "0x7ee",
        "chainId": "0x14a34"
      },
      "additionalContracts": [],
      "isFixedGasLimit": false
    },
    {
      "hash": "0x533235db7c4ae6c3075882660efcb7829fc247f4f5771cfa6923d028732feac3",
      "transactionType": "CALL",
      "contractName": null,
      "contractAddress": "0x79ad6507a5683c6411477144cee6c68914072001",
      "function": "setRewardDistributor(address)",
      "arguments": [
        "0x907391Aa8E654e9839052aEa5AE73550Ad79104b"
      ],
      "transaction": {
        "from": "0xa6b3d200cd34ca14d7579dac8b054bf50a62c37c",
        "to": "0x79ad6507a5683c6411477144cee6c68914072001",
        "gas": "0x9e84",
        "value": "0x0",
        "input": "0xa1809b95000000000000000000000000907391aa8e654e9839052aea5ae73550ad79104b",
        "nonce": "0x7ef",
        "chainId": "0x14a34"
      },
      "additionalContracts": [],
      "isFixedGasLimit": false
    },
    {
      "hash": "0xebd70d4f472611bf8569cca040022a9c472ff2543824b95c33435f343440a7fd",
      "transactionType": "CALL",
      "contractName": null,
      "contractAddress": "0xbf8f9f5e8a5a77ba627cf0cfed11e48bde0ac36b",
      "function": "setRewardDistributor(address)",
      "arguments": [
        "0x907391Aa8E654e9839052aEa5AE73550Ad79104b"
      ],
      "transaction": {
        "from": "0xa6b3d200cd34ca14d7579dac8b054bf50a62c37c",
        "to": "0xbf8f9f5e8a5a77ba627cf0cfed11e48bde0ac36b",
        "gas": "0x9e2d",
        "value": "0x0",
        "input": "0xa1809b95000000000000000000000000907391aa8e654e9839052aea5ae73550ad79104b",
        "nonce": "0x7f0",
        "chainId": "0x14a34"
      },
      "additionalContracts": [],
      "isFixedGasLimit": false
    },
    {
      "hash": "0xff56aa58e861108dfef495083cf1bfddf7ea257d52b0696b2135dc6f29c21e7c",
      "transactionType": "CALL",
      "contractName": null,
      "contractAddress": "0x5d81190a1c162d81b7053b443bc914c7716b8930",
      "function": "setRewardDistributor(address)",
      "arguments": [
        "0x907391Aa8E654e9839052aEa5AE73550Ad79104b"
      ],
      "transaction": {
        "from": "0xa6b3d200cd34ca14d7579dac8b054bf50a62c37c",
        "to": "0x5d81190a1c162d81b7053b443bc914c7716b8930",
        "gas": "0x9e3a",
        "value": "0x0",
        "input": "0xa1809b95000000000000000000000000907391aa8e654e9839052aea5ae73550ad79104b",
        "nonce": "0x7f1",
        "chainId": "0x14a34"
      },
      "additionalContracts": [],
      "isFixedGasLimit": false
    },
    {
      "hash": "0xf54317ee0b030ca21e9653fa7a6aeb3fb269679101ad3aa21ec8a984176f3061",
      "transactionType": "CALL",
      "contractName": null,
      "contractAddress": "0x013b87cca1524af27eb30b6ca49a646c610d7236",
      "function": "setRewardDistributor(address)",
      "arguments": [
        "0x907391Aa8E654e9839052aEa5AE73550Ad79104b"
      ],
      "transaction": {
        "from": "0xa6b3d200cd34ca14d7579dac8b054bf50a62c37c",
        "to": "0x013b87cca1524af27eb30b6ca49a646c610d7236",
        "gas": "0xa7ed",
        "value": "0x0",
        "input": "0xa1809b95000000000000000000000000907391aa8e654e9839052aea5ae73550ad79104b",
        "nonce": "0x7f2",
        "chainId": "0x14a34"
      },
      "additionalContracts": [],
      "isFixedGasLimit": false
    },
    {
      "hash": "0x6f893d005969e6ae343737ba8ebf4b42dde75af7f80b791c81dda2dafb1ec51f",
      "transactionType": "CALL",
      "contractName": null,
      "contractAddress": "0x36af848382f9984f3f425b629cd2d8fd12f7ed69",
      "function": "mint(address,uint256)",
      "arguments": [
        "0xA6B3D200cD34ca14d7579DAc8B054bf50a62c37c",
        "6000000000000"
      ],
      "transaction": {
        "from": "0xa6b3d200cd34ca14d7579dac8b054bf50a62c37c",
        "to": "0x36af848382f9984f3f425b629cd2d8fd12f7ed69",
        "gas": "0x11f32",
        "value": "0x0",
        "input": "0x40c10f19000000000000000000000000a6b3d200cd34ca14d7579dac8b054bf50a62c37c00000000000000000000000000000000000000000000000000000574fbde6000",
        "nonce": "0x7f3",
        "chainId": "0x14a34"
      },
      "additionalContracts": [],
      "isFixedGasLimit": false
    },
    {
      "hash": "0x6b1c628def471b5611c5ba493a5d47845443eb8cb89de1fd9c90b1c45a4758a2",
      "transactionType": "CALL",
      "contractName": null,
      "contractAddress": "0x36af848382f9984f3f425b629cd2d8fd12f7ed69",
      "function": "approve(address,uint256)",
      "arguments": [
        "0x907391Aa8E654e9839052aEa5AE73550Ad79104b",
        "6000000000000"
      ],
      "transaction": {
        "from": "0xa6b3d200cd34ca14d7579dac8b054bf50a62c37c",
        "to": "0x36af848382f9984f3f425b629cd2d8fd12f7ed69",
        "gas": "0xf802",
        "value": "0x0",
        "input": "0x095ea7b3000000000000000000000000907391aa8e654e9839052aea5ae73550ad79104b00000000000000000000000000000000000000000000000000000574fbde6000",
        "nonce": "0x7f4",
        "chainId": "0x14a34"
      },
      "additionalContracts": [],
      "isFixedGasLimit": false
    },
    {
      "hash": "0xab425eb7b8b739ac4c639465ba4817f65146e727327c96e06883d7dcb82f6067",
      "transactionType": "CALL",
      "contractName": "RewardDistributor",
      "contractAddress": "0x907391aa8e654e9839052aea5ae73550ad79104b",
      "function": "addRewards(bytes32,uint256)",
      "arguments": [
        "0x88ef8906c27d3e6af98ad7a5cf53c31a771fadb410370749ce5bf0cdb279c3b6",
        "1000000000000"
      ],
      "transaction": {
        "from": "0xa6b3d200cd34ca14d7579dac8b054bf50a62c37c",
        "to": "0x907391aa8e654e9839052aea5ae73550ad79104b",
        "gas": "0x1dcfb",
        "value": "0x0",
        "input": "0x48f60dfd88ef8906c27d3e6af98ad7a5cf53c31a771fadb410370749ce5bf0cdb279c3b6000000000000000000000000000000000000000000000000000000e8d4a51000",
        "nonce": "0x7f5",
        "chainId": "0x14a34"
      },
      "additionalContracts": [],
      "isFixedGasLimit": false
    },
    {
      "hash": "0x61c6a441b76f8f6aac94a1fd25a3c13601d3047fbfce36a4831f9f35ef75dd9f",
      "transactionType": "CALL",
      "contractName": "RewardDistributor",
      "contractAddress": "0x907391aa8e654e9839052aea5ae73550ad79104b",
      "function": "addRewards(bytes32,uint256)",
      "arguments": [
        "0x924cafe3f4668225141f2f2252ca17f67b629c2ff1426ac8ff340549f1266789",
        "1000000000000"
      ],
      "transaction": {
        "from": "0xa6b3d200cd34ca14d7579dac8b054bf50a62c37c",
        "to": "0x907391aa8e654e9839052aea5ae73550ad79104b",
        "gas": "0x180b8",
        "value": "0x0",
        "input": "0x48f60dfd924cafe3f4668225141f2f2252ca17f67b629c2ff1426ac8ff340549f1266789000000000000000000000000000000000000000000000000000000e8d4a51000",
        "nonce": "0x7f6",
        "chainId": "0x14a34"
      },
      "additionalContracts": [],
      "isFixedGasLimit": false
    },
    {
      "hash": "0x844e2d2efd619360cdb22b5bd337ec310a4db010f95c4930939c8764fa64f91c",
      "transactionType": "CALL",
      "contractName": "RewardDistributor",
      "contractAddress": "0x907391aa8e654e9839052aea5ae73550ad79104b",
      "function": "addRewards(bytes32,uint256)",
      "arguments": [
        "0xecfdf68dd313ee04cb77f5658c9ed69bbf41473da762b20d1b421a21de98fbb4",
        "1000000000000"
      ],
      "transaction": {
        "from": "0xa6b3d200cd34ca14d7579dac8b054bf50a62c37c",
        "to": "0x907391aa8e654e9839052aea5ae73550ad79104b",
        "gas": "0x180b8",
        "value": "0x0",
        "input": "0x48f60dfdecfdf68dd313ee04cb77f5658c9ed69bbf41473da762b20d1b421a21de98fbb4000000000000000000000000000000000000000000000000000000e8d4a51000",
        "nonce": "0x7f7",
        "chainId": "0x14a34"
      },
      "additionalContracts": [],
      "isFixedGasLimit": false
    },
    {
      "hash": "0xb830d4e74c685a613c7255b35ef7720feeb28eb05b7d69f325afaeabbfa30cf7",
      "transactionType": "CALL",
      "contractName": "RewardDistributor",
      "contractAddress": "0x907391aa8e654e9839052aea5ae73550ad79104b",
      "function": "addRewards(bytes32,uint256)",
      "arguments": [
        "0xe4cd8d210913bba3eedc531a84655dcd6fbb70f4d34730cf37a5e57a98b7d93b",
        "1000000000000"
      ],
      "transaction": {
        "from": "0xa6b3d200cd34ca14d7579dac8b054bf50a62c37c",
        "to": "0x907391aa8e654e9839052aea5ae73550ad79104b",
        "gas": "0x180b8",
        "value": "0x0",
        "input": "0x48f60dfde4cd8d210913bba3eedc531a84655dcd6fbb70f4d34730cf37a5e57a98b7d93b000000000000000000000000000000000000000000000000000000e8d4a51000",
        "nonce": "0x7f8",
        "chainId": "0x14a34"
      },
      "additionalContracts": [],
      "isFixedGasLimit": false
    },
    {
      "hash": "0xf15c0c36d6c170b57fff5838aa42b52de3c41f95c46629d258d2fdf972025e43",
      "transactionType": "CALL",
      "contractName": "RewardDistributor",
      "contractAddress": "0x907391aa8e654e9839052aea5ae73550ad79104b",
      "function": "addRewards(bytes32,uint256)",
      "arguments": [
        "0x1314db6eea4458bbd4ff96565b0b2561ba3db9780cbdbded7e2df4230b8aa460",
        "1000000000000"
      ],
      "transaction": {
        "from": "0xa6b3d200cd34ca14d7579dac8b054bf50a62c37c",
        "to": "0x907391aa8e654e9839052aea5ae73550ad79104b",
        "gas": "0x180b8",
        "value": "0x0",
        "input": "0x48f60dfd1314db6eea4458bbd4ff96565b0b2561ba3db9780cbdbded7e2df4230b8aa460000000000000000000000000000000000000000000000000000000e8d4a51000",
        "nonce": "0x7f9",
        "chainId": "0x14a34"
      },
      "additionalContracts": [],
      "isFixedGasLimit": false
    },
    {
      "hash": "0x7877c235c1deca5f1c6e24b8dd44c5e41d61868d5cc2cfb9663f76d3b41790e2",
      "transactionType": "CALL",
      "contractName": "RewardDistributor",
      "contractAddress": "0x907391aa8e654e9839052aea5ae73550ad79104b",
      "function": "addRewards(bytes32,uint256)",
      "arguments": [
        "0x1887cd0d242fb25ce3889259bf747a4bc6ac3eb3fe083aa1d14c660f7a59c3e2",
        "1000000000000"
      ],
      "transaction": {
        "from": "0xa6b3d200cd34ca14d7579dac8b054bf50a62c37c",
        "to": "0x907391aa8e654e9839052aea5ae73550ad79104b",
        "gas": "0x14cec",
        "value": "0x0",
        "input": "0x48f60dfd1887cd0d242fb25ce3889259bf747a4bc6ac3eb3fe083aa1d14c660f7a59c3e2000000000000000000000000000000000000000000000000000000e8d4a51000",
        "nonce": "0x7fa",
        "chainId": "0x14a34"
      },
      "additionalContracts": [],
      "isFixedGasLimit": false
    }
  ],
  "receipts": [
    {
      "status": "0x1",
      "cumulativeGasUsed": "0x663325",
      "logs": [
        {
          "address": "0x907391aa8e654e9839052aea5ae73550ad79104b",
          "topics": [
            "0x8be0079c531659141344cd1fd0a4f28419497f9722a3daafe3b4186f6b6457e0",
            "0x0000000000000000000000000000000000000000000000000000000000000000",
            "0x000000000000000000000000a6b3d200cd34ca14d7579dac8b054bf50a62c37c"
          ],
          "data": "0x",
          "blockHash": "0xe2c6adf259f2c00c0d9dc24cc6a5dc3c742f2bebfa67dab0990298d17ec812bd",
          "blockNumber": "0x19d3e08",
          "blockTimestamp": "0x684ddaf0",
          "transactionHash": "0xb67a2c29ca12dcb4e08a912911fbd9f5d3d7d5fc48d55d751c3111f37591588b",
          "transactionIndex": "0x17",
          "logIndex": "0xc7",
          "removed": false
        }
      ],
      "logsBloom": "0x00000000000000000000000400000000000000000000000002800000000000000000000000000000000000000000000000000000000000000000000000000000000000000000000000000000000000000001000000000000000000000000000000000000020000000000000000000800000000000000000000000000000000400000000000000000000000000000000000000000000000000000000000000000000000000000000000000000000000000000000000000000000000000400000000000040080000000000000000000000000000000000000000000000000020000000000000000000000400000000000000000000000000000000000000000000",
      "type": "0x2",
      "transactionHash": "0xb67a2c29ca12dcb4e08a912911fbd9f5d3d7d5fc48d55d751c3111f37591588b",
      "transactionIndex": "0x17",
      "blockHash": "0xe2c6adf259f2c00c0d9dc24cc6a5dc3c742f2bebfa67dab0990298d17ec812bd",
      "blockNumber": "0x19d3e08",
      "gasUsed": "0x121df3",
      "effectiveGasPrice": "0x2586",
      "from": "0xa6b3d200cd34ca14d7579dac8b054bf50a62c37c",
      "to": null,
      "contractAddress": "0x907391aa8e654e9839052aea5ae73550ad79104b",
      "l1BaseFeeScalar": "0x44d",
      "l1BlobBaseFee": "0x2",
      "l1BlobBaseFeeScalar": "0xa118b",
      "l1Fee": "0x3b5e238",
      "l1GasPrice": "0x11fd3c",
      "l1GasUsed": "0xbb54"
    },
    {
      "status": "0x1",
      "cumulativeGasUsed": "0x67efa0",
      "logs": [],
      "logsBloom": "0x00000000000000000000000000000000000000000000000000000000000000000000000000000000000000000000000000000000000000000000000000000000000000000000000000000000000000000000000000000000000000000000000000000000000000000000000000000000000000000000000000000000000000000000000000000000000000000000000000000000000000000000000000000000000000000000000000000000000000000000000000000000000000000000000000000000000000000000000000000000000000000000000000000000000000000000000000000000000000000000000000000000000000000000000000000000",
      "type": "0x2",
      "transactionHash": "0xf763c2860130f839a93c2ec7df70ede72f05eedebce2a77207ea48f9d969dea2",
      "transactionIndex": "0x18",
      "blockHash": "0xe2c6adf259f2c00c0d9dc24cc6a5dc3c742f2bebfa67dab0990298d17ec812bd",
      "blockNumber": "0x19d3e08",
      "gasUsed": "0x1bc7b",
      "effectiveGasPrice": "0x2586",
      "from": "0xa6b3d200cd34ca14d7579dac8b054bf50a62c37c",
      "to": "0x907391aa8e654e9839052aea5ae73550ad79104b",
      "contractAddress": null,
      "l1BaseFeeScalar": "0x44d",
      "l1BlobBaseFee": "0x2",
      "l1BlobBaseFeeScalar": "0xa118b",
      "l1Fee": "0x2d5b40",
      "l1GasPrice": "0x11fd3c",
      "l1GasUsed": "0x8f1"
    },
    {
      "status": "0x1",
      "cumulativeGasUsed": "0x68a5bb",
      "logs": [],
      "logsBloom": "0x00000000000000000000000000000000000000000000000000000000000000000000000000000000000000000000000000000000000000000000000000000000000000000000000000000000000000000000000000000000000000000000000000000000000000000000000000000000000000000000000000000000000000000000000000000000000000000000000000000000000000000000000000000000000000000000000000000000000000000000000000000000000000000000000000000000000000000000000000000000000000000000000000000000000000000000000000000000000000000000000000000000000000000000000000000000",
      "type": "0x2",
      "transactionHash": "0xae5552c2ee41b40c63d17eefad895094ec9c04c62a815e56836d7cb729f91bf7",
      "transactionIndex": "0x19",
      "blockHash": "0xe2c6adf259f2c00c0d9dc24cc6a5dc3c742f2bebfa67dab0990298d17ec812bd",
      "blockNumber": "0x19d3e08",
      "gasUsed": "0xb61b",
      "effectiveGasPrice": "0x2586",
      "from": "0xa6b3d200cd34ca14d7579dac8b054bf50a62c37c",
      "to": "0x907391aa8e654e9839052aea5ae73550ad79104b",
      "contractAddress": null,
      "l1BaseFeeScalar": "0x44d",
      "l1BlobBaseFee": "0x2",
      "l1BlobBaseFeeScalar": "0xa118b",
      "l1Fee": "0x1fb118",
      "l1GasPrice": "0x11fd3c",
      "l1GasUsed": "0x640"
    },
    {
      "status": "0x1",
      "cumulativeGasUsed": "0x695bd6",
      "logs": [],
      "logsBloom": "0x00000000000000000000000000000000000000000000000000000000000000000000000000000000000000000000000000000000000000000000000000000000000000000000000000000000000000000000000000000000000000000000000000000000000000000000000000000000000000000000000000000000000000000000000000000000000000000000000000000000000000000000000000000000000000000000000000000000000000000000000000000000000000000000000000000000000000000000000000000000000000000000000000000000000000000000000000000000000000000000000000000000000000000000000000000000",
      "type": "0x2",
      "transactionHash": "0xe516b29efee4a6ea56129288c96f155c99bef535997dcbb7d02f25d9037b35b4",
      "transactionIndex": "0x1a",
      "blockHash": "0xe2c6adf259f2c00c0d9dc24cc6a5dc3c742f2bebfa67dab0990298d17ec812bd",
      "blockNumber": "0x19d3e08",
      "gasUsed": "0xb61b",
      "effectiveGasPrice": "0x2586",
      "from": "0xa6b3d200cd34ca14d7579dac8b054bf50a62c37c",
      "to": "0x907391aa8e654e9839052aea5ae73550ad79104b",
      "contractAddress": null,
      "l1BaseFeeScalar": "0x44d",
      "l1BlobBaseFee": "0x2",
      "l1BlobBaseFeeScalar": "0xa118b",
      "l1Fee": "0x1fb118",
      "l1GasPrice": "0x11fd3c",
      "l1GasUsed": "0x640"
    },
    {
      "status": "0x1",
      "cumulativeGasUsed": "0x6a11f1",
      "logs": [],
      "logsBloom": "0x00000000000000000000000000000000000000000000000000000000000000000000000000000000000000000000000000000000000000000000000000000000000000000000000000000000000000000000000000000000000000000000000000000000000000000000000000000000000000000000000000000000000000000000000000000000000000000000000000000000000000000000000000000000000000000000000000000000000000000000000000000000000000000000000000000000000000000000000000000000000000000000000000000000000000000000000000000000000000000000000000000000000000000000000000000000",
      "type": "0x2",
      "transactionHash": "0x629e1e89c4dd376bff4a7e4368115dbc079cbcdc2879e8befe7fa1ba92b625f6",
      "transactionIndex": "0x1b",
      "blockHash": "0xe2c6adf259f2c00c0d9dc24cc6a5dc3c742f2bebfa67dab0990298d17ec812bd",
      "blockNumber": "0x19d3e08",
      "gasUsed": "0xb61b",
      "effectiveGasPrice": "0x2586",
      "from": "0xa6b3d200cd34ca14d7579dac8b054bf50a62c37c",
      "to": "0x907391aa8e654e9839052aea5ae73550ad79104b",
      "contractAddress": null,
      "l1BaseFeeScalar": "0x44d",
      "l1BlobBaseFee": "0x2",
      "l1BlobBaseFeeScalar": "0xa118b",
      "l1Fee": "0x1fb118",
      "l1GasPrice": "0x11fd3c",
      "l1GasUsed": "0x640"
    },
    {
      "status": "0x1",
      "cumulativeGasUsed": "0x6ac80c",
      "logs": [],
      "logsBloom": "0x00000000000000000000000000000000000000000000000000000000000000000000000000000000000000000000000000000000000000000000000000000000000000000000000000000000000000000000000000000000000000000000000000000000000000000000000000000000000000000000000000000000000000000000000000000000000000000000000000000000000000000000000000000000000000000000000000000000000000000000000000000000000000000000000000000000000000000000000000000000000000000000000000000000000000000000000000000000000000000000000000000000000000000000000000000000",
      "type": "0x2",
      "transactionHash": "0xd4d3664b2ede1a8cc192dd42f62391a7d5b647354fbe7e93ef36bc7f70f6f74a",
      "transactionIndex": "0x1c",
      "blockHash": "0xe2c6adf259f2c00c0d9dc24cc6a5dc3c742f2bebfa67dab0990298d17ec812bd",
      "blockNumber": "0x19d3e08",
      "gasUsed": "0xb61b",
      "effectiveGasPrice": "0x2586",
      "from": "0xa6b3d200cd34ca14d7579dac8b054bf50a62c37c",
      "to": "0x907391aa8e654e9839052aea5ae73550ad79104b",
      "contractAddress": null,
      "l1BaseFeeScalar": "0x44d",
      "l1BlobBaseFee": "0x2",
      "l1BlobBaseFeeScalar": "0xa118b",
      "l1Fee": "0x1fb118",
      "l1GasPrice": "0x11fd3c",
      "l1GasUsed": "0x640"
    },
    {
      "status": "0x1",
      "cumulativeGasUsed": "0x6d52db",
      "logs": [
        {
          "address": "0x907391aa8e654e9839052aea5ae73550ad79104b",
          "topics": [
            "0x1b8c3bf52594d3e5de8d89e5e71716abb92ae11fc8c2ba8097ac21c223524bcb",
            "0x88ef8906c27d3e6af98ad7a5cf53c31a771fadb410370749ce5bf0cdb279c3b6"
          ],
          "data": "0x00000000000000000000000036af848382f9984f3f425b629cd2d8fd12f7ed6900000000000000000000000000000000000000000000000000038d7ea4c68000",
          "blockHash": "0xe2c6adf259f2c00c0d9dc24cc6a5dc3c742f2bebfa67dab0990298d17ec812bd",
          "blockNumber": "0x19d3e08",
          "blockTimestamp": "0x684ddaf0",
          "transactionHash": "0x4432f421dcd036b526ff933f4d26735a6e52d8519844d75005b4be6625eb61fa",
          "transactionIndex": "0x1d",
          "logIndex": "0xc8",
          "removed": false
        }
      ],
      "logsBloom": "0x20000000000000000000000000000000000000000000000000000000000000000000000000000000000000000000000000000000000000000000000000000000000000000000000000000000000000000000000000000000200000000000000000000000000000000000000000000000000000000040000000000000000000000000000800000000000000000000000000000000000000000000000000000000000000000000000000000000000000000000000000000000000400000400000000000000080000000000000000000000000000100000000000000000000000000000000000000000000400000000000000000000000000000000000000000000",
      "type": "0x2",
      "transactionHash": "0x4432f421dcd036b526ff933f4d26735a6e52d8519844d75005b4be6625eb61fa",
      "transactionIndex": "0x1d",
      "blockHash": "0xe2c6adf259f2c00c0d9dc24cc6a5dc3c742f2bebfa67dab0990298d17ec812bd",
      "blockNumber": "0x19d3e08",
      "gasUsed": "0x28acf",
      "effectiveGasPrice": "0x2586",
      "from": "0xa6b3d200cd34ca14d7579dac8b054bf50a62c37c",
      "to": "0x907391aa8e654e9839052aea5ae73550ad79104b",
      "contractAddress": null,
      "l1BaseFeeScalar": "0x44d",
      "l1BlobBaseFee": "0x2",
      "l1BlobBaseFeeScalar": "0xa118b",
      "l1Fee": "0x256745",
      "l1GasPrice": "0x11fd3c",
      "l1GasUsed": "0x760"
    },
    {
      "status": "0x1",
      "cumulativeGasUsed": "0x7d476d",
      "logs": [
        {
          "address": "0x907391aa8e654e9839052aea5ae73550ad79104b",
          "topics": [
            "0x1b8c3bf52594d3e5de8d89e5e71716abb92ae11fc8c2ba8097ac21c223524bcb",
            "0x924cafe3f4668225141f2f2252ca17f67b629c2ff1426ac8ff340549f1266789"
          ],
          "data": "0x00000000000000000000000036af848382f9984f3f425b629cd2d8fd12f7ed690000000000000000000000000000000000000000000000000001c6bf52634000",
          "blockHash": "0x072d9121bc8ac0c0324ac6f56d70e3ec3ab5fe3b039444944056294878bd9dcb",
          "blockNumber": "0x19d3e08",
          "blockTimestamp": "0x684ddaf0",
          "transactionHash": "0x4b1cc1bddfe8407a69e93ffc85933f81c9327213fcf8ae6c157a139460c7e9a6",
          "transactionIndex": "0x22",
          "logIndex": "0xf6",
          "removed": false
        }
      ],
      "logsBloom": "0x00000000000000000000000000000000000000000000000000000000000000000000000000000000000000000000000000000000000000000000000000000000000000000000000000000000000000000000000000000000000000000000000000000000000000000000000000000000000000000040000000000000000000000000000000000000000000000000000000000000000000000000000000000000000000000000008000000000000000000000000000000000000400000400000000000000080000000000000000000000000000100000000000000020000000000000080000000000000400000000000000000000000000000000000000000000",
      "type": "0x2",
      "transactionHash": "0x4b1cc1bddfe8407a69e93ffc85933f81c9327213fcf8ae6c157a139460c7e9a6",
      "transactionIndex": "0x22",
      "blockHash": "0x072d9121bc8ac0c0324ac6f56d70e3ec3ab5fe3b039444944056294878bd9dcb",
      "blockNumber": "0x19d3e08",
      "gasUsed": "0x24803",
      "effectiveGasPrice": "0x2586",
      "from": "0xa6b3d200cd34ca14d7579dac8b054bf50a62c37c",
      "to": "0x907391aa8e654e9839052aea5ae73550ad79104b",
      "contractAddress": null,
      "l1BaseFeeScalar": "0x44d",
      "l1BlobBaseFee": "0x2",
      "l1BlobBaseFeeScalar": "0xa118b",
      "l1Fee": "0x256745",
      "l1GasPrice": "0x11fd3c",
      "l1GasUsed": "0x760"
    },
    {
      "status": "0x1",
      "cumulativeGasUsed": "0x7f8f64",
      "logs": [
        {
          "address": "0x907391aa8e654e9839052aea5ae73550ad79104b",
          "topics": [
            "0x1b8c3bf52594d3e5de8d89e5e71716abb92ae11fc8c2ba8097ac21c223524bcb",
            "0xecfdf68dd313ee04cb77f5658c9ed69bbf41473da762b20d1b421a21de98fbb4"
          ],
          "data": "0x00000000000000000000000036af848382f9984f3f425b629cd2d8fd12f7ed6900000000000000000000000000000000000000000000000000071afd498d0000",
          "blockHash": "0x072d9121bc8ac0c0324ac6f56d70e3ec3ab5fe3b039444944056294878bd9dcb",
          "blockNumber": "0x19d3e08",
          "blockTimestamp": "0x684ddaf0",
          "transactionHash": "0x79e1a19aad19b130efb36458f2e173ada1c1601d87d17fb42da2c3dca8553c60",
          "transactionIndex": "0x23",
          "logIndex": "0xf7",
          "removed": false
        }
      ],
      "logsBloom": "0x00000000000000000000000000000000000000000000000000000000000000000000000100000000000000000000000000000000000000000000000000000000000000000000000000000000000000000000000000000000000000000000000000000000000000000000000000000000000000000040000000000000000000000000000000000000000000000000000000000000000040000000000000000000000000000000000000000000000000000000000000000000000400000400000000000000080000000000000000000000000000108000000000000000000000000000000000000000000400000000000000000000000000000000000000000000",
      "type": "0x2",
      "transactionHash": "0x79e1a19aad19b130efb36458f2e173ada1c1601d87d17fb42da2c3dca8553c60",
      "transactionIndex": "0x23",
      "blockHash": "0x072d9121bc8ac0c0324ac6f56d70e3ec3ab5fe3b039444944056294878bd9dcb",
      "blockNumber": "0x19d3e08",
      "gasUsed": "0x247f7",
      "effectiveGasPrice": "0x2586",
      "from": "0xa6b3d200cd34ca14d7579dac8b054bf50a62c37c",
      "to": "0x907391aa8e654e9839052aea5ae73550ad79104b",
      "contractAddress": null,
      "l1BaseFeeScalar": "0x44d",
      "l1BlobBaseFee": "0x2",
      "l1BlobBaseFeeScalar": "0xa118b",
      "l1Fee": "0x256745",
      "l1GasPrice": "0x11fd3c",
      "l1GasUsed": "0x760"
    },
    {
      "status": "0x1",
      "cumulativeGasUsed": "0x81d767",
      "logs": [
        {
          "address": "0x907391aa8e654e9839052aea5ae73550ad79104b",
          "topics": [
            "0x1b8c3bf52594d3e5de8d89e5e71716abb92ae11fc8c2ba8097ac21c223524bcb",
            "0xe4cd8d210913bba3eedc531a84655dcd6fbb70f4d34730cf37a5e57a98b7d93b"
          ],
          "data": "0x00000000000000000000000036af848382f9984f3f425b629cd2d8fd12f7ed690000000000000000000000000000000000000000000000000005543df729c000",
          "blockHash": "0x072d9121bc8ac0c0324ac6f56d70e3ec3ab5fe3b039444944056294878bd9dcb",
          "blockNumber": "0x19d3e08",
          "blockTimestamp": "0x684ddaf0",
          "transactionHash": "0xfff4ffc3485f9045c5de946ec58727b612aa5c31632d5242593e82da9e409646",
          "transactionIndex": "0x24",
          "logIndex": "0xf8",
          "removed": false
        }
      ],
      "logsBloom": "0x00000000000000000000000000000000000000000000000000000000000000000002000000000000000000000000000000000000000000000000000000000000000000000000000000000000000000000000000000000000000000000000000000000000000000000000000000000000000000000040000000000000000000000000000000000000000000000000000000000000000000000000000000000000000000000000040800000000000000000000000000000000000400000400000000000000080000000000000000000000000000100000000000000000000000000000000000000000000400000000000000000000000000000000000000000000",
      "type": "0x2",
      "transactionHash": "0xfff4ffc3485f9045c5de946ec58727b612aa5c31632d5242593e82da9e409646",
      "transactionIndex": "0x24",
      "blockHash": "0x072d9121bc8ac0c0324ac6f56d70e3ec3ab5fe3b039444944056294878bd9dcb",
      "blockNumber": "0x19d3e08",
      "gasUsed": "0x24803",
      "effectiveGasPrice": "0x2586",
      "from": "0xa6b3d200cd34ca14d7579dac8b054bf50a62c37c",
      "to": "0x907391aa8e654e9839052aea5ae73550ad79104b",
      "contractAddress": null,
      "l1BaseFeeScalar": "0x44d",
      "l1BlobBaseFee": "0x2",
      "l1BlobBaseFeeScalar": "0xa118b",
      "l1Fee": "0x256745",
      "l1GasPrice": "0x11fd3c",
      "l1GasUsed": "0x760"
    },
    {
      "status": "0x1",
      "cumulativeGasUsed": "0x841f6a",
      "logs": [
        {
          "address": "0x907391aa8e654e9839052aea5ae73550ad79104b",
          "topics": [
            "0x1b8c3bf52594d3e5de8d89e5e71716abb92ae11fc8c2ba8097ac21c223524bcb",
            "0x1314db6eea4458bbd4ff96565b0b2561ba3db9780cbdbded7e2df4230b8aa460"
          ],
          "data": "0x00000000000000000000000036af848382f9984f3f425b629cd2d8fd12f7ed6900000000000000000000000000000000000000000000000000038d7ea4c68000",
          "blockHash": "0x072d9121bc8ac0c0324ac6f56d70e3ec3ab5fe3b039444944056294878bd9dcb",
          "blockNumber": "0x19d3e08",
          "blockTimestamp": "0x684ddaf0",
          "transactionHash": "0x021c949dfaeb6e1ba7b3a350da4dae56e0ea2f0e1513faabbe867187a90b4f02",
          "transactionIndex": "0x25",
          "logIndex": "0xf9",
          "removed": false
        }
      ],
      "logsBloom": "0x00000000000000000000000000000000000000000000000000000000000000000000000000000000000000000000000000000000000000000000000000000000000000000000000000000000000000000000000000000000000000000000000000000000000000000040000000000000000000000040000000000000000000000000000000000000000000000000000000000000000000000000000000000000000000000000000000000000000080000000000000000000000400000400000000000000080000000000000000000000000000100000000000000000000000000000000000000000000400000000000000000000040000000000000000000000",
      "type": "0x2",
      "transactionHash": "0x021c949dfaeb6e1ba7b3a350da4dae56e0ea2f0e1513faabbe867187a90b4f02",
      "transactionIndex": "0x25",
      "blockHash": "0x072d9121bc8ac0c0324ac6f56d70e3ec3ab5fe3b039444944056294878bd9dcb",
      "blockNumber": "0x19d3e08",
      "gasUsed": "0x24803",
      "effectiveGasPrice": "0x2586",
      "from": "0xa6b3d200cd34ca14d7579dac8b054bf50a62c37c",
      "to": "0x907391aa8e654e9839052aea5ae73550ad79104b",
      "contractAddress": null,
      "l1BaseFeeScalar": "0x44d",
      "l1BlobBaseFee": "0x2",
      "l1BlobBaseFeeScalar": "0xa118b",
      "l1Fee": "0x256745",
      "l1GasPrice": "0x11fd3c",
      "l1GasUsed": "0x760"
    },
    {
      "status": "0x1",
      "cumulativeGasUsed": "0x86676d",
      "logs": [
        {
          "address": "0x907391aa8e654e9839052aea5ae73550ad79104b",
          "topics": [
            "0x1b8c3bf52594d3e5de8d89e5e71716abb92ae11fc8c2ba8097ac21c223524bcb",
            "0x1887cd0d242fb25ce3889259bf747a4bc6ac3eb3fe083aa1d14c660f7a59c3e2"
          ],
          "data": "0x00000000000000000000000036af848382f9984f3f425b629cd2d8fd12f7ed690000000000000000000000000000000000000000000000000001c6bf52634000",
          "blockHash": "0x072d9121bc8ac0c0324ac6f56d70e3ec3ab5fe3b039444944056294878bd9dcb",
          "blockNumber": "0x19d3e08",
          "blockTimestamp": "0x684ddaf0",
          "transactionHash": "0x889f0e2d72e48ec1ff7c46d220559a78a9e9d54027435b84753b0cd8d78a2cca",
          "transactionIndex": "0x26",
          "logIndex": "0xfa",
          "removed": false
        }
      ],
      "logsBloom": "0x00000000000000000000000000000000000000000000000000000000000000000000000000000000000000000000000004000000000000000000000000000000000000000000000000000000000000000000000000000000000000000000000000000000000000000000000000000000000000000040000000000000000000000000000000000000000000000000000000000000000000002000000000000000000000000000000000000000000000000000000000000000000400000400000000000000080000000000000000000000000000100000000000000000000000000000000000000000000400000000080000000000000000000000000000000000",
      "type": "0x2",
      "transactionHash": "0x889f0e2d72e48ec1ff7c46d220559a78a9e9d54027435b84753b0cd8d78a2cca",
      "transactionIndex": "0x26",
      "blockHash": "0x072d9121bc8ac0c0324ac6f56d70e3ec3ab5fe3b039444944056294878bd9dcb",
      "blockNumber": "0x19d3e08",
      "gasUsed": "0x24803",
      "effectiveGasPrice": "0x2586",
      "from": "0xa6b3d200cd34ca14d7579dac8b054bf50a62c37c",
      "to": "0x907391aa8e654e9839052aea5ae73550ad79104b",
      "contractAddress": null,
      "l1BaseFeeScalar": "0x44d",
      "l1BlobBaseFee": "0x2",
      "l1BlobBaseFeeScalar": "0xa118b",
      "l1Fee": "0x256745",
      "l1GasPrice": "0x11fd3c",
      "l1GasUsed": "0x760"
    },
    {
      "status": "0x1",
      "cumulativeGasUsed": "0x86da31",
      "logs": [],
      "logsBloom": "0x00000000000000000000000000000000000000000000000000000000000000000000000000000000000000000000000000000000000000000000000000000000000000000000000000000000000000000000000000000000000000000000000000000000000000000000000000000000000000000000000000000000000000000000000000000000000000000000000000000000000000000000000000000000000000000000000000000000000000000000000000000000000000000000000000000000000000000000000000000000000000000000000000000000000000000000000000000000000000000000000000000000000000000000000000000000",
      "type": "0x2",
      "transactionHash": "0x533235db7c4ae6c3075882660efcb7829fc247f4f5771cfa6923d028732feac3",
      "transactionIndex": "0x27",
      "blockHash": "0x072d9121bc8ac0c0324ac6f56d70e3ec3ab5fe3b039444944056294878bd9dcb",
      "blockNumber": "0x19d3e08",
      "gasUsed": "0x72c4",
      "effectiveGasPrice": "0x2586",
      "from": "0xa6b3d200cd34ca14d7579dac8b054bf50a62c37c",
      "to": "0x79ad6507a5683c6411477144cee6c68914072001",
      "contractAddress": null,
      "l1BaseFeeScalar": "0x44d",
      "l1BlobBaseFee": "0x2",
      "l1BlobBaseFeeScalar": "0xa118b",
      "l1Fee": "0x1fb118",
      "l1GasPrice": "0x11fd3c",
      "l1GasUsed": "0x640"
    },
    {
      "status": "0x1",
      "cumulativeGasUsed": "0x874cb6",
      "logs": [],
      "logsBloom": "0x00000000000000000000000000000000000000000000000000000000000000000000000000000000000000000000000000000000000000000000000000000000000000000000000000000000000000000000000000000000000000000000000000000000000000000000000000000000000000000000000000000000000000000000000000000000000000000000000000000000000000000000000000000000000000000000000000000000000000000000000000000000000000000000000000000000000000000000000000000000000000000000000000000000000000000000000000000000000000000000000000000000000000000000000000000000",
      "type": "0x2",
      "transactionHash": "0xebd70d4f472611bf8569cca040022a9c472ff2543824b95c33435f343440a7fd",
      "transactionIndex": "0x28",
      "blockHash": "0x072d9121bc8ac0c0324ac6f56d70e3ec3ab5fe3b039444944056294878bd9dcb",
      "blockNumber": "0x19d3e08",
      "gasUsed": "0x7285",
      "effectiveGasPrice": "0x2586",
      "from": "0xa6b3d200cd34ca14d7579dac8b054bf50a62c37c",
      "to": "0xbf8f9f5e8a5a77ba627cf0cfed11e48bde0ac36b",
      "contractAddress": null,
      "l1BaseFeeScalar": "0x44d",
      "l1BlobBaseFee": "0x2",
      "l1BlobBaseFeeScalar": "0xa118b",
      "l1Fee": "0x1fb118",
      "l1GasPrice": "0x11fd3c",
      "l1GasUsed": "0x640"
    },
    {
      "status": "0x1",
      "cumulativeGasUsed": "0xaf4fd",
      "logs": [],
      "logsBloom": "0x00000000000000000000000000000000000000000000000000000000000000000000000000000000000000000000000000000000000000000000000000000000000000000000000000000000000000000000000000000000000000000000000000000000000000000000000000000000000000000000000000000000000000000000000000000000000000000000000000000000000000000000000000000000000000000000000000000000000000000000000000000000000000000000000000000000000000000000000000000000000000000000000000000000000000000000000000000000000000000000000000000000000000000000000000000000",
      "type": "0x2",
      "transactionHash": "0xff56aa58e861108dfef495083cf1bfddf7ea257d52b0696b2135dc6f29c21e7c",
      "transactionIndex": "0x4",
      "blockHash": "0xad41ce5a6aa2331813c89204e93a54ba04342ca0d175f34d140fff9d2cddef68",
      "blockNumber": "0x19d3e09",
      "gasUsed": "0x728f",
      "effectiveGasPrice": "0x2586",
      "from": "0xa6b3d200cd34ca14d7579dac8b054bf50a62c37c",
      "to": "0x5d81190a1c162d81b7053b443bc914c7716b8930",
      "contractAddress": null,
      "l1BaseFeeScalar": "0x44d",
      "l1BlobBaseFee": "0x2",
      "l1BlobBaseFeeScalar": "0xa118b",
      "l1Fee": "0x1fb118",
      "l1GasPrice": "0x11fd3c",
      "l1GasUsed": "0x640"
    },
    {
      "status": "0x1",
      "cumulativeGasUsed": "0xb67d0",
      "logs": [],
      "logsBloom": "0x00000000000000000000000000000000000000000000000000000000000000000000000000000000000000000000000000000000000000000000000000000000000000000000000000000000000000000000000000000000000000000000000000000000000000000000000000000000000000000000000000000000000000000000000000000000000000000000000000000000000000000000000000000000000000000000000000000000000000000000000000000000000000000000000000000000000000000000000000000000000000000000000000000000000000000000000000000000000000000000000000000000000000000000000000000000",
      "type": "0x2",
      "transactionHash": "0xf54317ee0b030ca21e9653fa7a6aeb3fb269679101ad3aa21ec8a984176f3061",
      "transactionIndex": "0x5",
      "blockHash": "0xad41ce5a6aa2331813c89204e93a54ba04342ca0d175f34d140fff9d2cddef68",
      "blockNumber": "0x19d3e09",
      "gasUsed": "0x72d3",
      "effectiveGasPrice": "0x2586",
      "from": "0xa6b3d200cd34ca14d7579dac8b054bf50a62c37c",
      "to": "0x013b87cca1524af27eb30b6ca49a646c610d7236",
      "contractAddress": null,
      "l1BaseFeeScalar": "0x44d",
      "l1BlobBaseFee": "0x2",
      "l1BlobBaseFeeScalar": "0xa118b",
      "l1Fee": "0x1fb118",
      "l1GasPrice": "0x11fd3c",
      "l1GasUsed": "0x640"
    },
    {
      "status": "0x1",
      "cumulativeGasUsed": "0x7a9435",
      "logs": [
        {
          "address": "0x36af848382f9984f3f425b629cd2d8fd12f7ed69",
          "topics": [
            "0xddf252ad1be2c89b69c2b068fc378daa952ba7f163c4a11628f55a4df523b3ef",
            "0x0000000000000000000000000000000000000000000000000000000000000000",
            "0x000000000000000000000000a6b3d200cd34ca14d7579dac8b054bf50a62c37c"
          ],
          "data": "0x00000000000000000000000000000000000000000000000000000574fbde6000",
          "blockHash": "0x4cbf95c9f5f85ffd1a238c910d34ae41ac448b3c3ec28907d1288a2ac630ae1c",
          "blockNumber": "0x19d3e09",
          "transactionHash": "0x6f893d005969e6ae343737ba8ebf4b42dde75af7f80b791c81dda2dafb1ec51f",
          "transactionIndex": "0x22",
          "logIndex": "0x133",
          "removed": false
        }
      ],
      "logsBloom": "0x00000000000000000000100400000000000000000000000002000000000000000000000000000000000000000000000000000000000000000000000000000000000000000000000000000008000000000000000000000000000000000000000000000000020000000000000000000800000000000000000000000010000000000000000000000000000000000000000000000000000000000000000000000000000000000000000000000000000000000000000000000000000000000000000000000042000000000000000000000000000000000000000010000000000020000000000400000000000000000000000000000000000000000000000000000000",
      "type": "0x2",
      "transactionHash": "0x6f893d005969e6ae343737ba8ebf4b42dde75af7f80b791c81dda2dafb1ec51f",
      "transactionIndex": "0x22",
      "blockHash": "0x4cbf95c9f5f85ffd1a238c910d34ae41ac448b3c3ec28907d1288a2ac630ae1c",
      "blockNumber": "0x19d3e09",
      "gasUsed": "0xcfee",
      "effectiveGasPrice": "0x2544",
      "from": "0xa6b3d200cd34ca14d7579dac8b054bf50a62c37c",
      "to": "0x36af848382f9984f3f425b629cd2d8fd12f7ed69",
      "contractAddress": null,
      "l1BaseFeeScalar": "0x44d",
      "l1BlobBaseFee": "0x2",
      "l1BlobBaseFeeScalar": "0xa118b",
      "l1Fee": "0x1fb118",
      "l1GasPrice": "0x11fd3c",
      "l1GasUsed": "0x640"
    },
    {
      "status": "0x1",
      "cumulativeGasUsed": "0x7b47c4",
      "logs": [
        {
          "address": "0x36af848382f9984f3f425b629cd2d8fd12f7ed69",
          "topics": [
            "0x8c5be1e5ebec7d5bd14f71427d1e84f3dd0314c0f7b2291e5b200ac8c7c3b925",
            "0x000000000000000000000000a6b3d200cd34ca14d7579dac8b054bf50a62c37c",
            "0x000000000000000000000000907391aa8e654e9839052aea5ae73550ad79104b"
          ],
          "data": "0x00000000000000000000000000000000000000000000000000000574fbde6000",
          "blockHash": "0x4cbf95c9f5f85ffd1a238c910d34ae41ac448b3c3ec28907d1288a2ac630ae1c",
          "blockNumber": "0x19d3e09",
          "transactionHash": "0x6b1c628def471b5611c5ba493a5d47845443eb8cb89de1fd9c90b1c45a4758a2",
          "transactionIndex": "0x23",
          "logIndex": "0x134",
          "removed": false
        }
      ],
      "logsBloom": "0x00000000000000000000100400000000000000000000000002000000000000000000000000000000000000000000000000000000000000000000000000200000000000000000000000000000000000000000000000000000000000000000000000000000000000000000000000000000000000100000000000000000000000000000000000000000000000000000000000000000000000000000000000000000020000000000000000000000000000000000000000000000000000000000000000000040000000000000000000000000000000000000000010000000000000000010000400000000000000000000000000400000000800000000000000000000",
      "type": "0x2",
      "transactionHash": "0x6b1c628def471b5611c5ba493a5d47845443eb8cb89de1fd9c90b1c45a4758a2",
      "transactionIndex": "0x23",
      "blockHash": "0x4cbf95c9f5f85ffd1a238c910d34ae41ac448b3c3ec28907d1288a2ac630ae1c",
      "blockNumber": "0x19d3e09",
      "gasUsed": "0xb38f",
      "effectiveGasPrice": "0x2544",
      "from": "0xa6b3d200cd34ca14d7579dac8b054bf50a62c37c",
      "to": "0x36af848382f9984f3f425b629cd2d8fd12f7ed69",
      "contractAddress": null,
      "l1BaseFeeScalar": "0x44d",
      "l1BlobBaseFee": "0x2",
      "l1BlobBaseFeeScalar": "0xa118b",
      "l1Fee": "0x1fb118",
      "l1GasPrice": "0x11fd3c",
      "l1GasUsed": "0x640"
    },
    {
      "status": "0x1",
      "cumulativeGasUsed": "0x7ca118",
      "logs": [
        {
          "address": "0x36af848382f9984f3f425b629cd2d8fd12f7ed69",
          "topics": [
            "0xddf252ad1be2c89b69c2b068fc378daa952ba7f163c4a11628f55a4df523b3ef",
            "0x000000000000000000000000a6b3d200cd34ca14d7579dac8b054bf50a62c37c",
            "0x000000000000000000000000907391aa8e654e9839052aea5ae73550ad79104b"
          ],
          "data": "0x000000000000000000000000000000000000000000000000000000e8d4a51000",
          "blockHash": "0x4cbf95c9f5f85ffd1a238c910d34ae41ac448b3c3ec28907d1288a2ac630ae1c",
          "blockNumber": "0x19d3e09",
          "transactionHash": "0xab425eb7b8b739ac4c639465ba4817f65146e727327c96e06883d7dcb82f6067",
          "transactionIndex": "0x24",
          "logIndex": "0x135",
          "removed": false
        },
        {
          "address": "0x907391aa8e654e9839052aea5ae73550ad79104b",
          "topics": [
            "0x603c893fe5a7abb065fd37be5d74b7570a708f31c5b02b409779f57f8ab59788",
            "0x88ef8906c27d3e6af98ad7a5cf53c31a771fadb410370749ce5bf0cdb279c3b6"
          ],
          "data": "0x000000000000000000000000000000000000000000000000000000e8d4a51000",
          "blockHash": "0x4cbf95c9f5f85ffd1a238c910d34ae41ac448b3c3ec28907d1288a2ac630ae1c",
          "blockNumber": "0x19d3e09",
          "transactionHash": "0xab425eb7b8b739ac4c639465ba4817f65146e727327c96e06883d7dcb82f6067",
          "transactionIndex": "0x24",
          "logIndex": "0x136",
          "removed": false
        }
      ],
      "logsBloom": "0x20000000000000000000100400000000000000000000000002000000200000000000000000000000000000000000000000000000000000000000000000000000000000000000000000000008000000000000000000000000200000000000000000000080000000000000000000010000000000100000000000000010000000000000000800000000000000000000000000000000000000000000000000000000000000000000000000000000000000000000000000000000000000000400000000000042080000000000000000000000000000000000000010000000000000000000000400000000000400000000000000400000000800000000000000000000",
      "type": "0x2",
      "transactionHash": "0xab425eb7b8b739ac4c639465ba4817f65146e727327c96e06883d7dcb82f6067",
      "transactionIndex": "0x24",
      "blockHash": "0x4cbf95c9f5f85ffd1a238c910d34ae41ac448b3c3ec28907d1288a2ac630ae1c",
      "blockNumber": "0x19d3e09",
      "gasUsed": "0x15954",
      "effectiveGasPrice": "0x2544",
      "from": "0xa6b3d200cd34ca14d7579dac8b054bf50a62c37c",
      "to": "0x907391aa8e654e9839052aea5ae73550ad79104b",
      "contractAddress": null,
      "l1BaseFeeScalar": "0x44d",
      "l1BlobBaseFee": "0x2",
      "l1BlobBaseFeeScalar": "0xa118b",
      "l1Fee": "0x1fb118",
      "l1GasPrice": "0x11fd3c",
      "l1GasUsed": "0x640"
    },
    {
      "status": "0x1",
      "cumulativeGasUsed": "0x7db7a0",
      "logs": [
        {
          "address": "0x36af848382f9984f3f425b629cd2d8fd12f7ed69",
          "topics": [
            "0xddf252ad1be2c89b69c2b068fc378daa952ba7f163c4a11628f55a4df523b3ef",
            "0x000000000000000000000000a6b3d200cd34ca14d7579dac8b054bf50a62c37c",
            "0x000000000000000000000000907391aa8e654e9839052aea5ae73550ad79104b"
          ],
          "data": "0x000000000000000000000000000000000000000000000000000000e8d4a51000",
          "blockHash": "0x4cbf95c9f5f85ffd1a238c910d34ae41ac448b3c3ec28907d1288a2ac630ae1c",
          "blockNumber": "0x19d3e09",
          "transactionHash": "0x61c6a441b76f8f6aac94a1fd25a3c13601d3047fbfce36a4831f9f35ef75dd9f",
          "transactionIndex": "0x25",
          "logIndex": "0x137",
          "removed": false
        },
        {
          "address": "0x907391aa8e654e9839052aea5ae73550ad79104b",
          "topics": [
            "0x603c893fe5a7abb065fd37be5d74b7570a708f31c5b02b409779f57f8ab59788",
            "0x924cafe3f4668225141f2f2252ca17f67b629c2ff1426ac8ff340549f1266789"
          ],
          "data": "0x000000000000000000000000000000000000000000000000000000e8d4a51000",
          "blockHash": "0x4cbf95c9f5f85ffd1a238c910d34ae41ac448b3c3ec28907d1288a2ac630ae1c",
          "blockNumber": "0x19d3e09",
          "transactionHash": "0x61c6a441b76f8f6aac94a1fd25a3c13601d3047fbfce36a4831f9f35ef75dd9f",
          "transactionIndex": "0x25",
          "logIndex": "0x138",
          "removed": false
        }
      ],
      "logsBloom": "0x00000000000000000000100400000000000000000000000002000000200000000000000000000000000000000000000000000000000000000000000000000000000000000000000000000008000000000000000000000000000000000000000000000080000000000000000000010000000000100000000000000010000000000000000000000000000000000000000000000000000000000000000000000000000000000000008000000000000000000000000000000000000000000400000000000042080000000000000000000000000000000000000010000020000000000000080400000000000400000000000000400000000800000000000000000000",
      "type": "0x2",
      "transactionHash": "0x61c6a441b76f8f6aac94a1fd25a3c13601d3047fbfce36a4831f9f35ef75dd9f",
      "transactionIndex": "0x25",
      "blockHash": "0x4cbf95c9f5f85ffd1a238c910d34ae41ac448b3c3ec28907d1288a2ac630ae1c",
      "blockNumber": "0x19d3e09",
      "gasUsed": "0x11688",
      "effectiveGasPrice": "0x2544",
      "from": "0xa6b3d200cd34ca14d7579dac8b054bf50a62c37c",
      "to": "0x907391aa8e654e9839052aea5ae73550ad79104b",
      "contractAddress": null,
      "l1BaseFeeScalar": "0x44d",
      "l1BlobBaseFee": "0x2",
      "l1BlobBaseFeeScalar": "0xa118b",
      "l1Fee": "0x1fb118",
      "l1GasPrice": "0x11fd3c",
      "l1GasUsed": "0x640"
    },
    {
      "status": "0x1",
      "cumulativeGasUsed": "0x7ece28",
      "logs": [
        {
          "address": "0x36af848382f9984f3f425b629cd2d8fd12f7ed69",
          "topics": [
            "0xddf252ad1be2c89b69c2b068fc378daa952ba7f163c4a11628f55a4df523b3ef",
            "0x000000000000000000000000a6b3d200cd34ca14d7579dac8b054bf50a62c37c",
            "0x000000000000000000000000907391aa8e654e9839052aea5ae73550ad79104b"
          ],
          "data": "0x000000000000000000000000000000000000000000000000000000e8d4a51000",
          "blockHash": "0x4cbf95c9f5f85ffd1a238c910d34ae41ac448b3c3ec28907d1288a2ac630ae1c",
          "blockNumber": "0x19d3e09",
          "transactionHash": "0x844e2d2efd619360cdb22b5bd337ec310a4db010f95c4930939c8764fa64f91c",
          "transactionIndex": "0x26",
          "logIndex": "0x139",
          "removed": false
        },
        {
          "address": "0x907391aa8e654e9839052aea5ae73550ad79104b",
          "topics": [
            "0x603c893fe5a7abb065fd37be5d74b7570a708f31c5b02b409779f57f8ab59788",
            "0xecfdf68dd313ee04cb77f5658c9ed69bbf41473da762b20d1b421a21de98fbb4"
          ],
          "data": "0x000000000000000000000000000000000000000000000000000000e8d4a51000",
          "blockHash": "0x4cbf95c9f5f85ffd1a238c910d34ae41ac448b3c3ec28907d1288a2ac630ae1c",
          "blockNumber": "0x19d3e09",
          "transactionHash": "0x844e2d2efd619360cdb22b5bd337ec310a4db010f95c4930939c8764fa64f91c",
          "transactionIndex": "0x26",
          "logIndex": "0x13a",
          "removed": false
        }
      ],
      "logsBloom": "0x00000000000000000000100400000000000000000000000002000000200000000000000100000000000000000000000000000000000000000000000000000000000000000000000000000008000000000000000000000000000000000000000000000080000000000000000000010000000000100000000000000010000000000000000000000000000000000000000000000000000040000000000000000000000000000000000000000000000000000000000000000000000000000400000000000042080000000000000000000000000000008000000010000000000000000000000400000000000400000000000000400000000800000000000000000000",
      "type": "0x2",
      "transactionHash": "0x844e2d2efd619360cdb22b5bd337ec310a4db010f95c4930939c8764fa64f91c",
      "transactionIndex": "0x26",
      "blockHash": "0x4cbf95c9f5f85ffd1a238c910d34ae41ac448b3c3ec28907d1288a2ac630ae1c",
      "blockNumber": "0x19d3e09",
      "gasUsed": "0x11688",
      "effectiveGasPrice": "0x2544",
      "from": "0xa6b3d200cd34ca14d7579dac8b054bf50a62c37c",
      "to": "0x907391aa8e654e9839052aea5ae73550ad79104b",
      "contractAddress": null,
      "l1BaseFeeScalar": "0x44d",
      "l1BlobBaseFee": "0x2",
      "l1BlobBaseFeeScalar": "0xa118b",
      "l1Fee": "0x1fb118",
      "l1GasPrice": "0x11fd3c",
      "l1GasUsed": "0x640"
    },
    {
      "status": "0x1",
      "cumulativeGasUsed": "0x7fe4b0",
      "logs": [
        {
          "address": "0x36af848382f9984f3f425b629cd2d8fd12f7ed69",
          "topics": [
            "0xddf252ad1be2c89b69c2b068fc378daa952ba7f163c4a11628f55a4df523b3ef",
            "0x000000000000000000000000a6b3d200cd34ca14d7579dac8b054bf50a62c37c",
            "0x000000000000000000000000907391aa8e654e9839052aea5ae73550ad79104b"
          ],
          "data": "0x000000000000000000000000000000000000000000000000000000e8d4a51000",
          "blockHash": "0x4cbf95c9f5f85ffd1a238c910d34ae41ac448b3c3ec28907d1288a2ac630ae1c",
          "blockNumber": "0x19d3e09",
          "transactionHash": "0xb830d4e74c685a613c7255b35ef7720feeb28eb05b7d69f325afaeabbfa30cf7",
          "transactionIndex": "0x27",
          "logIndex": "0x13b",
          "removed": false
        },
        {
          "address": "0x907391aa8e654e9839052aea5ae73550ad79104b",
          "topics": [
            "0x603c893fe5a7abb065fd37be5d74b7570a708f31c5b02b409779f57f8ab59788",
            "0xe4cd8d210913bba3eedc531a84655dcd6fbb70f4d34730cf37a5e57a98b7d93b"
          ],
          "data": "0x000000000000000000000000000000000000000000000000000000e8d4a51000",
          "blockHash": "0x4cbf95c9f5f85ffd1a238c910d34ae41ac448b3c3ec28907d1288a2ac630ae1c",
          "blockNumber": "0x19d3e09",
          "transactionHash": "0xb830d4e74c685a613c7255b35ef7720feeb28eb05b7d69f325afaeabbfa30cf7",
          "transactionIndex": "0x27",
          "logIndex": "0x13c",
          "removed": false
        }
      ],
      "logsBloom": "0x00000000000000000000100400000000000000000000000002000000200000000002000000000000000000000000000000000000000000000000000000000000000000000000000000000008000000000000000000000000000000000000000000000080000000000000000000010000000000100000000000000010000000000000000000000000000000000000000000000000000000000000000000000000000000000000040800000000000000000000000000000000000000000400000000000042080000000000000000000000000000000000000010000000000000000000000400000000000400000000000000400000000800000000000000000000",
      "type": "0x2",
      "transactionHash": "0xb830d4e74c685a613c7255b35ef7720feeb28eb05b7d69f325afaeabbfa30cf7",
      "transactionIndex": "0x27",
      "blockHash": "0x4cbf95c9f5f85ffd1a238c910d34ae41ac448b3c3ec28907d1288a2ac630ae1c",
      "blockNumber": "0x19d3e09",
      "gasUsed": "0x11688",
      "effectiveGasPrice": "0x2544",
      "from": "0xa6b3d200cd34ca14d7579dac8b054bf50a62c37c",
      "to": "0x907391aa8e654e9839052aea5ae73550ad79104b",
      "contractAddress": null,
      "l1BaseFeeScalar": "0x44d",
      "l1BlobBaseFee": "0x2",
      "l1BlobBaseFeeScalar": "0xa118b",
      "l1Fee": "0x1fb118",
      "l1GasPrice": "0x11fd3c",
      "l1GasUsed": "0x640"
    },
    {
      "status": "0x1",
      "cumulativeGasUsed": "0x80fb38",
      "logs": [
        {
          "address": "0x36af848382f9984f3f425b629cd2d8fd12f7ed69",
          "topics": [
            "0xddf252ad1be2c89b69c2b068fc378daa952ba7f163c4a11628f55a4df523b3ef",
            "0x000000000000000000000000a6b3d200cd34ca14d7579dac8b054bf50a62c37c",
            "0x000000000000000000000000907391aa8e654e9839052aea5ae73550ad79104b"
          ],
          "data": "0x000000000000000000000000000000000000000000000000000000e8d4a51000",
          "blockHash": "0x4cbf95c9f5f85ffd1a238c910d34ae41ac448b3c3ec28907d1288a2ac630ae1c",
          "blockNumber": "0x19d3e09",
          "transactionHash": "0xf15c0c36d6c170b57fff5838aa42b52de3c41f95c46629d258d2fdf972025e43",
          "transactionIndex": "0x28",
          "logIndex": "0x13d",
          "removed": false
        },
        {
          "address": "0x907391aa8e654e9839052aea5ae73550ad79104b",
          "topics": [
            "0x603c893fe5a7abb065fd37be5d74b7570a708f31c5b02b409779f57f8ab59788",
            "0x1314db6eea4458bbd4ff96565b0b2561ba3db9780cbdbded7e2df4230b8aa460"
          ],
          "data": "0x000000000000000000000000000000000000000000000000000000e8d4a51000",
          "blockHash": "0x4cbf95c9f5f85ffd1a238c910d34ae41ac448b3c3ec28907d1288a2ac630ae1c",
          "blockNumber": "0x19d3e09",
          "transactionHash": "0xf15c0c36d6c170b57fff5838aa42b52de3c41f95c46629d258d2fdf972025e43",
          "transactionIndex": "0x28",
          "logIndex": "0x13e",
          "removed": false
        }
      ],
      "logsBloom": "0x00000000000000000000100400000000000000000000000002000000200000000000000000000000000000000000000000000000000000000000000000000000000000000000000000000008000000000000000000000000000000000000000000000080000000000040000000010000000000100000000000000010000000000000000000000000000000000000000000000000000000000000000000000000000000000000000000000000000080000000000000000000000000000400000000000042080000000000000000000000000000000000000010000000000000000000000400000000000400000000000000400000040800000000000000000000",
      "type": "0x2",
      "transactionHash": "0xf15c0c36d6c170b57fff5838aa42b52de3c41f95c46629d258d2fdf972025e43",
      "transactionIndex": "0x28",
      "blockHash": "0x4cbf95c9f5f85ffd1a238c910d34ae41ac448b3c3ec28907d1288a2ac630ae1c",
      "blockNumber": "0x19d3e09",
      "gasUsed": "0x11688",
      "effectiveGasPrice": "0x2544",
      "from": "0xa6b3d200cd34ca14d7579dac8b054bf50a62c37c",
      "to": "0x907391aa8e654e9839052aea5ae73550ad79104b",
      "contractAddress": null,
      "l1BaseFeeScalar": "0x44d",
      "l1BlobBaseFee": "0x2",
      "l1BlobBaseFeeScalar": "0xa118b",
      "l1Fee": "0x1fb118",
      "l1GasPrice": "0x11fd3c",
      "l1GasUsed": "0x640"
    },
    {
      "status": "0x1",
      "cumulativeGasUsed": "0x81ec40",
      "logs": [
        {
          "address": "0x36af848382f9984f3f425b629cd2d8fd12f7ed69",
          "topics": [
            "0xddf252ad1be2c89b69c2b068fc378daa952ba7f163c4a11628f55a4df523b3ef",
            "0x000000000000000000000000a6b3d200cd34ca14d7579dac8b054bf50a62c37c",
            "0x000000000000000000000000907391aa8e654e9839052aea5ae73550ad79104b"
          ],
          "data": "0x000000000000000000000000000000000000000000000000000000e8d4a51000",
          "blockHash": "0x4cbf95c9f5f85ffd1a238c910d34ae41ac448b3c3ec28907d1288a2ac630ae1c",
          "blockNumber": "0x19d3e09",
          "transactionHash": "0x7877c235c1deca5f1c6e24b8dd44c5e41d61868d5cc2cfb9663f76d3b41790e2",
          "transactionIndex": "0x29",
          "logIndex": "0x13f",
          "removed": false
        },
        {
          "address": "0x907391aa8e654e9839052aea5ae73550ad79104b",
          "topics": [
            "0x603c893fe5a7abb065fd37be5d74b7570a708f31c5b02b409779f57f8ab59788",
            "0x1887cd0d242fb25ce3889259bf747a4bc6ac3eb3fe083aa1d14c660f7a59c3e2"
          ],
          "data": "0x000000000000000000000000000000000000000000000000000000e8d4a51000",
          "blockHash": "0x4cbf95c9f5f85ffd1a238c910d34ae41ac448b3c3ec28907d1288a2ac630ae1c",
          "blockNumber": "0x19d3e09",
          "transactionHash": "0x7877c235c1deca5f1c6e24b8dd44c5e41d61868d5cc2cfb9663f76d3b41790e2",
          "transactionIndex": "0x29",
          "logIndex": "0x140",
          "removed": false
        }
      ],
      "logsBloom": "0x00000000000000000000100400000000000000000000000002000000200000000000000000000000000000000000000004000000000000000000000000000000000000000000000000000008000000000000000000000000000000000000000000000080000000000000000000010000000000100000000000000010000000000000000000000000000000000000000000000000000000002000000000000000000000000000000000000000000000000000000000000000000000000400000000000042080000000000000000000000000000000000000010000000000000000000000400000000000400000000080000400000000800000000000000000000",
      "type": "0x2",
      "transactionHash": "0x7877c235c1deca5f1c6e24b8dd44c5e41d61868d5cc2cfb9663f76d3b41790e2",
      "transactionIndex": "0x29",
      "blockHash": "0x4cbf95c9f5f85ffd1a238c910d34ae41ac448b3c3ec28907d1288a2ac630ae1c",
      "blockNumber": "0x19d3e09",
      "gasUsed": "0xf108",
      "effectiveGasPrice": "0x2544",
      "from": "0xa6b3d200cd34ca14d7579dac8b054bf50a62c37c",
      "to": "0x907391aa8e654e9839052aea5ae73550ad79104b",
      "contractAddress": null,
      "l1BaseFeeScalar": "0x44d",
      "l1BlobBaseFee": "0x2",
      "l1BlobBaseFeeScalar": "0xa118b",
      "l1Fee": "0x1fb118",
      "l1GasPrice": "0x11fd3c",
      "l1GasUsed": "0x640"
    }
  ],
  "libraries": [],
  "pending": [],
  "returns": {},
  "timestamp": 1749932788,
  "chain": 84532,
  "commit": "34f47c4"
}