{
  "transactions": [
    {
      "hash": "0x0f3600d274d8cd36d26cff17bb34b3d26ecb4943e28ba019f10b9337b15ad960",
      "transactionType": "CREATE",
      "contractName": "RewardDistributor",
      "contractAddress": "0x6cf91b2000561c31b07560c6f2ada30d9f981454",
      "function": null,
      "arguments": null,
      "transaction": {
        "from": "0xa6b3d200cd34ca14d7579dac8b054bf50a62c37c",
        "gas": "0x18c193",
        "value": "0x0",
        "input": "0x608080604052346071573315605e575f8054336001600160a01b0319821681178355916001600160a01b03909116907f8be0079c531659141344cd1fd0a4f28419497f9722a3daafe3b4186f6b6457e09080a361152190816100768239f35b631e4fbdf760e01b5f525f60045260245ffd5b5f80fdfe60806040526004361015610011575f80fd5b5f803560e01c8062f9643414610ff057806309f2c01914610f2c5780630b36db1514610d7a578063179aae8814610d525780632073de5c14610ccc57806323be345c14610ca45780632636e8a014610a8d578063274ee475146109d8578063312e109c146108d357806348f60dfd146107d35780634e210544146107ab57806368b2c40c1461073757806369883b4e146106ff578063715018a6146106a85780637790ddc61461050c5780638209ec50146104545780638da5cb5b1461042d5780638ff29cfe146103ee5780639002392e1461038757806395ccea671461034e57806399fc65d4146102f1578063b79f12b2146102c8578063bb13c3cb1461029f578063d88ff1f4146101e9578063ec01da10146101bf5763f2fde38b14610137575f80fd5b346101bc5760203660031901126101bc576101506110ae565b610158611376565b6001600160a01b031680156101a85781546001600160a01b03198116821783556001600160a01b03167f8be0079c531659141344cd1fd0a4f28419497f9722a3daafe3b4186f6b6457e08380a380f35b631e4fbdf760e01b82526004829052602482fd5b80fd5b50346101bc5760203660031901126101bc5760406020916004358152600483522054604051908152f35b50346101bc57806003193601126101bc5760405180602060025491828152018091600285527f405787fa12a823e0f2b7631cc41b3ba8828b3321ca811111fa75cd3aa3bb5ace90855b818110610289575050508261024891038361113f565b604051928392602084019060208552518091526040840192915b818110610270575050500390f35b8251845285945060209384019390920191600101610262565b8254845260209093019260019283019201610232565b50346101bc57806003193601126101bc57600a546040516001600160a01b039091168152602090f35b50346101bc57806003193601126101bc576006546040516001600160a01b039091168152602090f35b50346101bc5760403660031901126101bc5761030b6110ae565b602435801515810361034a5761034791610323611376565b60018060a01b031683526005602052604083209060ff801983541691151516179055565b80f35b8280fd5b50346101bc5760403660031901126101bc5761034761036b6110ae565b610373611376565b6024359033906001600160a01b031661139c565b50346101bc5760403660031901126101bc5760406103a3611098565b9160043581526003602052209060018060a01b03165f52602052608060405f208054906001810154906003600282015491015491604051938452602084015260408301526060820152f35b50346101bc5760203660031901126101bc5760209060ff906040906001600160a01b036104196110ae565b168152600584522054166040519015158152f35b50346101bc57806003193601126101bc57546040516001600160a01b039091168152602090f35b50346101bc5760203660031901126101bc5761046e6110ae565b610476611376565b6001600160a01b031680156104c7576020817f1be038705a495dd627af47e6738a26c370e9ee5df6e53f67515bd987c64d0fdd926001600160601b0360a01b600a541617600a55604051908152a180f35b60405162461bcd60e51b815260206004820152601a60248201527f496e76616c69642056434f5020746f6b656e20616464726573730000000000006044820152606490fd5b50346106355760203660031901126106355760043561052b33826112a6565b5f81815260036020908152604080832033845290915290206001018054919082610553578380f35b5f9055805f52600160205260405f2060028101610571848254611195565b90558260ff600683015460081c168061068f575b156106735750600a546001600160a01b03161561063957546001600160a01b0316803b15610635576040516340c10f1960e01b815233600482015260248101849052905f908290604490829084905af1801561062a57610615575b505b6040519182527ffec539b3c42d74cd492c3ecf7966bf014b327beef98e935cdc3ec5e54a6901c760203393a35f80808380f35b6106229193505f9061113f565b5f915f6105e0565b6040513d5f823e3d90fd5b5f80fd5b60405162461bcd60e51b81526020600482015260126024820152711590d3d4081d1bdad95b881b9bdd081cd95d60721b6044820152606490fd5b905461068a919033906001600160a01b031661139c565b6105e2565b508154600a546001600160a01b03908116911614610585565b34610635575f366003190112610635576106c0611376565b5f80546001600160a01b0319811682556001600160a01b03167f8be0079c531659141344cd1fd0a4f28419497f9722a3daafe3b4186f6b6457e08280a3005b3461063557602036600319011261063557600435600254811015610635576107286020916110da565b90549060031b1c604051908152f35b346106355760207facefc4a7d159e33f5c2d6facc53467d06090e50ccfa880ef241dc1d1a9200f6c610768366110c4565b610773939193611376565b835f526001825260405f20610787856111a2565b6005820155600442910155835f526001825280600360405f200155604051908152a2005b34610635575f366003190112610635576008546040516001600160a01b039091168152602090f35b34610635576107e1366110c4565b815f52600160205260405f2060068101549160ff83161561089c57600160209260ff7f603c893fe5a7abb065fd37be5d74b7570a708f31c5b02b409779f57f8ab597889560081c165f14610847570161083b828254611195565b90555b604051908152a2005b610889828060a01b03825416604051906323b872dd60e01b878301523360248301523060448301528560648301526064825261088460848361113f565b6113da565b01610895828254611195565b905561083e565b60405162461bcd60e51b815260206004820152600f60248201526e506f6f6c206e6f742061637469766560881b6044820152606490fd5b34610635576040366003190112610635576109786004356108f2611098565b90805f52600360205260405f2060018060a01b0383165f52602052602060405f20926040519261092184611106565b845484526001850154838501526002850154604080860182905260039096015460609095019485529451623e590d60e21b815260048101919091526001600160a01b03909116602482015293849081906044820190565b0381305afa90811561062a575f916109a3575b60609350519060405192835260208301526040820152f35b90506020833d6020116109d0575b816109be6020938361113f565b8101031261063557606092519061098b565b3d91506109b1565b34610635576080366003190112610635576109f16110ae565b6109f9611098565b6044356001600160a01b0381169190829003610635576064356001600160a01b038116939084900361063557610a2d611376565b60018060a01b03166001600160601b0360a01b600654161760065560018060a01b03166001600160601b0360a01b60075416176007556001600160601b0360a01b60085416176008556001600160601b0360a01b60095416176009555f80f35b3461063557606036600319011261063557600435610aa9611098565b60443590610ab5611376565b5f838152600160205260409020546001600160a01b0316610c69576001600160a01b03168015610c2d5760018060a01b03600a5416811490604051610af981611122565b818152602081015f8152610b94600660408401935f8552606081018881526080820142815260a08301915f835260c08401976001895260e08501978b89528d5f52600160205260405f209560018060a01b039051166001600160601b0360a01b8754161786555160018601555160028501555160038401555160048301555160058201550192511515839060ff801983541691151516179055565b51815461ff00191690151560081b61ff00161790556002549168010000000000000000831015610c19577f908210fc0149379fe25f26a14ba6965e58ae6f8b5e8bb5e1f4586b323fd79b6793610bf2846001606096016002556110da565b81549060031b9088821b915f19901b191617905560405192835260208301526040820152a2005b634e487b7160e01b5f52604160045260245ffd5b60405162461bcd60e51b815260206004820152601460248201527324b73b30b634b2103932bbb0b932103a37b5b2b760611b6044820152606490fd5b60405162461bcd60e51b8152602060048201526013602482015272506f6f6c20616c72656164792065786973747360681b6044820152606490fd5b34610635575f366003190112610635576009546040516001600160a01b039091168152602090f35b34610635576020366003190112610635576004355f52600160205261010060405f2060ff60018060a01b0382541691600181015490600281015460038201546004830154916006600585015494015494604051978852602088015260408701526060860152608085015260a0840152818116151560c084015260081c16151560e0820152f35b34610635575f366003190112610635576007546040516001600160a01b039091168152602090f35b3461063557608036600319011261063557600435610d96611098565b9060443591606435908115159182810361063557335f52600560205260ff60405f20541615610ef657610dc982856112a6565b5f8481526003602090815260408083206001600160a01b038616845290915290209015610e5f57907f9f0a7aaf8d18c024e8123bdcd157b0f6e0f42892a4ea14a2becc88a320a799229282600260409401610e25888254611195565b9055855f526004602052835f20610e3d888254611195565b90555b4260039190910155825195865260208601526001600160a01b031693a3005b906002820192835492868410610ebc577f9f0a7aaf8d18c024e8123bdcd157b0f6e0f42892a4ea14a2becc88a320a7992294610e9d88604096611161565b9055855f526004602052835f20610eb5888254611161565b9055610e40565b60405162461bcd60e51b8152602060048201526012602482015271496e73756666696369656e74207374616b6560701b6044820152606490fd5b60405162461bcd60e51b815260206004820152600e60248201526d139bdd08185d5d1a1bdc9a5e995960921b6044820152606490fd5b346106355760203660031901126106355760c0600435805f52600160205260405f2090604051610f5b81611122565b60018060a01b0383541692838252600181015492836020840152600282015490816040850152600660038401549384606087015260048101546080870152600581015460a087015201549360e060ff898301968181161515885260081c1615159101525f52600460205260405f20549251151593604051958652602086015260408501526060840152608083015260a0820152f35b34610635576040366003190112610635576020611090600435611011611098565b815f526003845260405f209060018060a01b03165f528352670de0b6b3a764000061108760405f206110816040519161104983611106565b80548352611077600182015496898501978852600360028401549360408701948552015460608601526111a2565b9051925190611161565b90611182565b04905190611195565b604051908152f35b602435906001600160a01b038216820361063557565b600435906001600160a01b038216820361063557565b6040906003190112610635576004359060243590565b6002548110156110f25760025f5260205f2001905f90565b634e487b7160e01b5f52603260045260245ffd5b6080810190811067ffffffffffffffff821117610c1957604052565b610100810190811067ffffffffffffffff821117610c1957604052565b90601f8019910116810190811067ffffffffffffffff821117610c1957604052565b9190820391821161116e57565b634e487b7160e01b5f52601160045260245ffd5b8181029291811591840414171561116e57565b9190820180921161116e57565b805f52600160205260405f20604051906111bb82611122565b60018060a01b0381541682526001810154602083015260028101546040830152600381015490606083019182526004810154926080810193845260e060ff600660058501549460a085019586520154818116151560c085015260081c161515910152835f52600460205260405f20541561129e57906112406112489251935142611161565b905190611182565b91670de0b6b3a7640000830292808404670de0b6b3a7640000149015171561116e575f52600460205260405f2054801561128a57611287920490611195565b90565b634e487b7160e01b5f52601260045260245ffd5b925050505190565b90815f52600160205260405f20906112bd836111a2565b60058301908155426004909301929092556001600160a01b0381166112e157505050565b5f8381526003602090815260408083206001600160a01b0394909416808452938252918290209151623e590d60e21b815260048101959095526024850192909252929081604481305afa90811561062a575f91611344575b506001830155549055565b90506020813d60201161136e575b8161135f6020938361113f565b8101031261063557515f611339565b3d9150611352565b5f546001600160a01b0316330361138957565b63118cdaa760e01b5f523360045260245ffd5b60405163a9059cbb60e01b60208201526001600160a01b039290921660248301526044808301939093529181526113d89161088460648361113f565b565b81516001600160a01b03909116915f91829160200182855af13d15611481573d67ffffffffffffffff8111610c195761143591604051916114256020601f19601f840116018461113f565b82523d5f602084013e5b8361148d565b805190811515918261145d575b505061144b5750565b635274afe760e01b5f5260045260245ffd5b81925090602091810103126106355760200151801590811503610635575f80611442565b6114359060609061142f565b906114b157508051156114a257805190602001fd5b630a12f52160e11b5f5260045ffd5b815115806114e2575b6114c2575090565b639996b31560e01b5f9081526001600160a01b0391909116600452602490fd5b50803b156114ba56fea26469706673582212201ca2991e6a6d12d4cc14de26b42e7c4206b2877d14850fab5949cddff3534f4464736f6c634300081a0033",
        "nonce": "0xf21",
        "chainId": "0x14a34"
      },
      "additionalContracts": [],
      "isFixedGasLimit": false
    },
    {
      "hash": "0x15f5006c020f1a63251e96f03e56c9df251c0bafb966c1696f6b2ece300763d9",
      "transactionType": "CALL",
      "contractName": "RewardDistributor",
      "contractAddress": "0x6cf91b2000561c31b07560c6f2ada30d9f981454",
      "function": "setVCOPToken(address)",
      "arguments": [
        "0x6bF59e9cBbCe16AAf58b51D32D39b2a437281ae2"
      ],
      "transaction": {
        "from": "0xa6b3d200cd34ca14d7579dac8b054bf50a62c37c",
        "to": "0x6cf91b2000561c31b07560c6f2ada30d9f981454",
        "gas": "0xff66",
        "value": "0x0",
        "input": "0x8209ec500000000000000000000000006bf59e9cbbce16aaf58b51d32d39b2a437281ae2",
        "nonce": "0xf22",
        "chainId": "0x14a34"
      },
      "additionalContracts": [],
      "isFixedGasLimit": false
    },
    {
      "hash": "0xcb32fad37434db53bc263139d63f1fc2d1f27be72faf1cf700c88072450c8c22",
      "transactionType": "CALL",
      "contractName": null,
      "contractAddress": "0x6bf59e9cbbce16aaf58b51d32d39b2a437281ae2",
      "function": "setMinter(address,bool)",
      "arguments": [
        "0x6CF91B2000561c31B07560c6F2Ada30D9f981454",
        "true"
      ],
      "transaction": {
        "from": "0xa6b3d200cd34ca14d7579dac8b054bf50a62c37c",
        "to": "0x6bf59e9cbbce16aaf58b51d32d39b2a437281ae2",
        "gas": "0x11189",
        "value": "0x0",
        "input": "0xcf456ae70000000000000000000000006cf91b2000561c31b07560c6f2ada30d9f9814540000000000000000000000000000000000000000000000000000000000000001",
        "nonce": "0xf23",
        "chainId": "0x14a34"
      },
      "additionalContracts": [],
      "isFixedGasLimit": false
    },
    {
      "hash": "0xcf279e27a48f16c2e402f54698a8f384d9b553f27fa586fd2da846ff17418477",
      "transactionType": "CALL",
      "contractName": "RewardDistributor",
      "contractAddress": "0x6cf91b2000561c31b07560c6f2ada30d9f981454",
      "function": "setProtocolComponents(address,address,address,address)",
      "arguments": [
        "0x1fC089936dcf2Fb04aAbCAf26A6E1aDB82599717",
        "0x0015169eA252078aF9BE01e08cCdED6B29E3aE82",
        "0xb2913fC8850666A6c649D1AE830116c3e147302C",
        "0xBFBbF1624420984F7397cFB4EA8EBfe10E2B03Cf"
      ],
      "transaction": {
        "from": "0xa6b3d200cd34ca14d7579dac8b054bf50a62c37c",
        "to": "0x6cf91b2000561c31b07560c6f2ada30d9f981454",
        "gas": "0x28a17",
        "value": "0x0",
        "input": "0x274ee4750000000000000000000000001fc089936dcf2fb04aabcaf26a6e1adb825997170000000000000000000000000015169ea252078af9be01e08ccded6b29e3ae82000000000000000000000000b2913fc8850666a6c649d1ae830116c3e147302c000000000000000000000000bfbbf1624420984f7397cfb4ea8ebfe10e2b03cf",
        "nonce": "0xf24",
        "chainId": "0x14a34"
      },
      "additionalContracts": [],
      "isFixedGasLimit": false
    },
    {
      "hash": "0xf59b55a11cb3a065368a7bb6e6d86a16ad501fa4ca0452af264c6cd077b25a76",
      "transactionType": "CALL",
      "contractName": "RewardDistributor",
      "contractAddress": "0x6cf91b2000561c31b07560c6f2ada30d9f981454",
      "function": "setAuthorizedUpdater(address,bool)",
      "arguments": [
        "0x0015169eA252078aF9BE01e08cCdED6B29E3aE82",
        "true"
      ],
      "transaction": {
        "from": "0xa6b3d200cd34ca14d7579dac8b054bf50a62c37c",
        "to": "0x6cf91b2000561c31b07560c6f2ada30d9f981454",
        "gas": "0xfb98",
        "value": "0x0",
        "input": "0x99fc65d40000000000000000000000000015169ea252078af9be01e08ccded6b29e3ae820000000000000000000000000000000000000000000000000000000000000001",
        "nonce": "0xf25",
        "chainId": "0x14a34"
      },
      "additionalContracts": [],
      "isFixedGasLimit": false
    },
    {
      "hash": "0xd3c020cd6797f9b9e29572ff47aba2fba43c55cb806a275431c2105f8a9fe4ae",
      "transactionType": "CALL",
      "contractName": "RewardDistributor",
      "contractAddress": "0x6cf91b2000561c31b07560c6f2ada30d9f981454",
      "function": "setAuthorizedUpdater(address,bool)",
      "arguments": [
        "0xb2913fC8850666A6c649D1AE830116c3e147302C",
        "true"
      ],
      "transaction": {
        "from": "0xa6b3d200cd34ca14d7579dac8b054bf50a62c37c",
        "to": "0x6cf91b2000561c31b07560c6f2ada30d9f981454",
        "gas": "0x10a76",
        "value": "0x0",
        "input": "0x99fc65d4000000000000000000000000b2913fc8850666a6c649d1ae830116c3e147302c0000000000000000000000000000000000000000000000000000000000000001",
        "nonce": "0xf26",
        "chainId": "0x14a34"
      },
      "additionalContracts": [],
      "isFixedGasLimit": false
    },
    {
      "hash": "0x80edb090cff3885907c1694afb1467cc170f8d26c0b64f0e5f018ff5be161b62",
      "transactionType": "CALL",
      "contractName": "RewardDistributor",
      "contractAddress": "0x6cf91b2000561c31b07560c6f2ada30d9f981454",
      "function": "setAuthorizedUpdater(address,bool)",
      "arguments": [
        "0x1fC089936dcf2Fb04aAbCAf26A6E1aDB82599717",
        "true"
      ],
      "transaction": {
        "from": "0xa6b3d200cd34ca14d7579dac8b054bf50a62c37c",
        "to": "0x6cf91b2000561c31b07560c6f2ada30d9f981454",
        "gas": "0x10a76",
        "value": "0x0",
        "input": "0x99fc65d40000000000000000000000001fc089936dcf2fb04aabcaf26a6e1adb825997170000000000000000000000000000000000000000000000000000000000000001",
        "nonce": "0xf27",
        "chainId": "0x14a34"
      },
      "additionalContracts": [],
      "isFixedGasLimit": false
    },
    {
      "hash": "0x89dc73348814936a9e34b7200ef4789ab486e5dcc46fdd1ffed16216e9425a6c",
      "transactionType": "CALL",
      "contractName": "RewardDistributor",
      "contractAddress": "0x6cf91b2000561c31b07560c6f2ada30d9f981454",
      "function": "setAuthorizedUpdater(address,bool)",
      "arguments": [
        "0xBFBbF1624420984F7397cFB4EA8EBfe10E2B03Cf",
        "true"
      ],
      "transaction": {
        "from": "0xa6b3d200cd34ca14d7579dac8b054bf50a62c37c",
        "to": "0x6cf91b2000561c31b07560c6f2ada30d9f981454",
        "gas": "0x10a76",
        "value": "0x0",
        "input": "0x99fc65d4000000000000000000000000bfbbf1624420984f7397cfb4ea8ebfe10e2b03cf0000000000000000000000000000000000000000000000000000000000000001",
        "nonce": "0xf28",
        "chainId": "0x14a34"
      },
      "additionalContracts": [],
      "isFixedGasLimit": false
    },
    {
      "hash": "0x2c2db900081b515e5c57abd335650692b731c664812f6c696c085f4e72212286",
      "transactionType": "CALL",
      "contractName": "RewardDistributor",
      "contractAddress": "0x6cf91b2000561c31b07560c6f2ada30d9f981454",
      "function": "createRewardPool(bytes32,address,uint256)",
      "arguments": [
        "0x88ef8906c27d3e6af98ad7a5cf53c31a771fadb410370749ce5bf0cdb279c3b6",
        "0x6bF59e9cBbCe16AAf58b51D32D39b2a437281ae2",
        "1000000000000000"
      ],
      "transaction": {
        "from": "0xa6b3d200cd34ca14d7579dac8b054bf50a62c37c",
        "to": "0x6cf91b2000561c31b07560c6f2ada30d9f981454",
        "gas": "0x3c6ba",
        "value": "0x0",
        "input": "0x2636e8a088ef8906c27d3e6af98ad7a5cf53c31a771fadb410370749ce5bf0cdb279c3b60000000000000000000000006bf59e9cbbce16aaf58b51d32d39b2a437281ae200000000000000000000000000000000000000000000000000038d7ea4c68000",
        "nonce": "0xf29",
        "chainId": "0x14a34"
      },
      "additionalContracts": [],
      "isFixedGasLimit": false
    },
    {
      "hash": "0xc9c1f12f01ad560b9eeb3b530f849ec28728bdba38becc50663b5ea6fbf8bc38",
      "transactionType": "CALL",
      "contractName": "RewardDistributor",
      "contractAddress": "0x6cf91b2000561c31b07560c6f2ada30d9f981454",
      "function": "createRewardPool(bytes32,address,uint256)",
      "arguments": [
        "0x924cafe3f4668225141f2f2252ca17f67b629c2ff1426ac8ff340549f1266789",
        "0x6bF59e9cBbCe16AAf58b51D32D39b2a437281ae2",
        "1000000000000000"
      ],
      "transaction": {
        "from": "0xa6b3d200cd34ca14d7579dac8b054bf50a62c37c",
        "to": "0x6cf91b2000561c31b07560c6f2ada30d9f981454",
        "gas": "0x334c1",
        "value": "0x0",
        "input": "0x2636e8a0924cafe3f4668225141f2f2252ca17f67b629c2ff1426ac8ff340549f12667890000000000000000000000006bf59e9cbbce16aaf58b51d32d39b2a437281ae200000000000000000000000000000000000000000000000000038d7ea4c68000",
        "nonce": "0xf2a",
        "chainId": "0x14a34"
      },
      "additionalContracts": [],
      "isFixedGasLimit": false
    },
    {
      "hash": "0x11f993373a5300e4f0a63364ce5051d31c00204eb1467180e5c9360e8d396c07",
      "transactionType": "CALL",
      "contractName": "RewardDistributor",
      "contractAddress": "0x6cf91b2000561c31b07560c6f2ada30d9f981454",
      "function": "createRewardPool(bytes32,address,uint256)",
      "arguments": [
        "0x870729ce323527c7d70de6e3b4d0cf8167c8b204a3f39d2c51d3c92ccebc3edc",
        "0x6bF59e9cBbCe16AAf58b51D32D39b2a437281ae2",
        "1000000000000000"
      ],
      "transaction": {
        "from": "0xa6b3d200cd34ca14d7579dac8b054bf50a62c37c",
        "to": "0x6cf91b2000561c31b07560c6f2ada30d9f981454",
        "gas": "0x334c1",
        "value": "0x0",
        "input": "0x2636e8a0870729ce323527c7d70de6e3b4d0cf8167c8b204a3f39d2c51d3c92ccebc3edc0000000000000000000000006bf59e9cbbce16aaf58b51d32d39b2a437281ae200000000000000000000000000000000000000000000000000038d7ea4c68000",
        "nonce": "0xf2b",
        "chainId": "0x14a34"
      },
      "additionalContracts": [],
      "isFixedGasLimit": false
    },
    {
      "hash": "0x94ed38921fb3173007bd22ff18d10ffddc111358a15b832ee80351c47731334a",
      "transactionType": "CALL",
      "contractName": "RewardDistributor",
      "contractAddress": "0x6cf91b2000561c31b07560c6f2ada30d9f981454",
      "function": "createRewardPool(bytes32,address,uint256)",
      "arguments": [
        "0x1887cd0d242fb25ce3889259bf747a4bc6ac3eb3fe083aa1d14c660f7a59c3e2",
        "0x6bF59e9cBbCe16AAf58b51D32D39b2a437281ae2",
        "1000000000000000"
      ],
      "transaction": {
        "from": "0xa6b3d200cd34ca14d7579dac8b054bf50a62c37c",
        "to": "0x6cf91b2000561c31b07560c6f2ada30d9f981454",
        "gas": "0x334c1",
        "value": "0x0",
        "input": "0x2636e8a01887cd0d242fb25ce3889259bf747a4bc6ac3eb3fe083aa1d14c660f7a59c3e20000000000000000000000006bf59e9cbbce16aaf58b51d32d39b2a437281ae200000000000000000000000000000000000000000000000000038d7ea4c68000",
        "nonce": "0xf2c",
        "chainId": "0x14a34"
      },
      "additionalContracts": [],
      "isFixedGasLimit": false
    },
    {
      "hash": "0x9575e7e8d0ce3812b6103ade286b76d96c5bdf7dcc16e5050af8d7a9749992e9",
      "transactionType": "CALL",
      "contractName": "RewardDistributor",
      "contractAddress": "0x6cf91b2000561c31b07560c6f2ada30d9f981454",
      "function": "addRewards(bytes32,uint256)",
      "arguments": [
        "0x88ef8906c27d3e6af98ad7a5cf53c31a771fadb410370749ce5bf0cdb279c3b6",
        "10000000000000"
      ],
      "transaction": {
        "from": "0xa6b3d200cd34ca14d7579dac8b054bf50a62c37c",
        "to": "0x6cf91b2000561c31b07560c6f2ada30d9f981454",
        "gas": "0x102b7",
        "value": "0x0",
        "input": "0x48f60dfd88ef8906c27d3e6af98ad7a5cf53c31a771fadb410370749ce5bf0cdb279c3b6000000000000000000000000000000000000000000000000000009184e72a000",
        "nonce": "0xf2d",
        "chainId": "0x14a34"
      },
      "additionalContracts": [],
      "isFixedGasLimit": false
    },
    {
      "hash": "0xb59d2c13b4c82011324651d297c5ae0031054f50219ac4e39d983c522fd2efc0",
      "transactionType": "CALL",
      "contractName": "RewardDistributor",
      "contractAddress": "0x6cf91b2000561c31b07560c6f2ada30d9f981454",
      "function": "addRewards(bytes32,uint256)",
      "arguments": [
        "0x924cafe3f4668225141f2f2252ca17f67b629c2ff1426ac8ff340549f1266789",
        "10000000000000"
      ],
      "transaction": {
        "from": "0xa6b3d200cd34ca14d7579dac8b054bf50a62c37c",
        "to": "0x6cf91b2000561c31b07560c6f2ada30d9f981454",
        "gas": "0x102b7",
        "value": "0x0",
        "input": "0x48f60dfd924cafe3f4668225141f2f2252ca17f67b629c2ff1426ac8ff340549f1266789000000000000000000000000000000000000000000000000000009184e72a000",
        "nonce": "0xf2e",
        "chainId": "0x14a34"
      },
      "additionalContracts": [],
      "isFixedGasLimit": false
    },
    {
      "hash": "0xa81a9528411e2f1c5b974fd4692888861f82d50978bb195b4644ad70d6df8348",
      "transactionType": "CALL",
      "contractName": "RewardDistributor",
      "contractAddress": "0x6cf91b2000561c31b07560c6f2ada30d9f981454",
      "function": "addRewards(bytes32,uint256)",
      "arguments": [
        "0x870729ce323527c7d70de6e3b4d0cf8167c8b204a3f39d2c51d3c92ccebc3edc",
        "10000000000000"
      ],
      "transaction": {
        "from": "0xa6b3d200cd34ca14d7579dac8b054bf50a62c37c",
        "to": "0x6cf91b2000561c31b07560c6f2ada30d9f981454",
        "gas": "0x102b7",
        "value": "0x0",
        "input": "0x48f60dfd870729ce323527c7d70de6e3b4d0cf8167c8b204a3f39d2c51d3c92ccebc3edc000000000000000000000000000000000000000000000000000009184e72a000",
        "nonce": "0xf2f",
        "chainId": "0x14a34"
      },
      "additionalContracts": [],
      "isFixedGasLimit": false
    },
    {
      "hash": "0xfcdf40b8ccc0f2869f3dccc927fe28335aa39b89a30c38aa3852f21ea9dcacec",
      "transactionType": "CALL",
      "contractName": "RewardDistributor",
      "contractAddress": "0x6cf91b2000561c31b07560c6f2ada30d9f981454",
      "function": "addRewards(bytes32,uint256)",
      "arguments": [
        "0x1887cd0d242fb25ce3889259bf747a4bc6ac3eb3fe083aa1d14c660f7a59c3e2",
        "10000000000000"
      ],
      "transaction": {
        "from": "0xa6b3d200cd34ca14d7579dac8b054bf50a62c37c",
        "to": "0x6cf91b2000561c31b07560c6f2ada30d9f981454",
        "gas": "0x102b7",
        "value": "0x0",
        "input": "0x48f60dfd1887cd0d242fb25ce3889259bf747a4bc6ac3eb3fe083aa1d14c660f7a59c3e2000000000000000000000000000000000000000000000000000009184e72a000",
        "nonce": "0xf30",
        "chainId": "0x14a34"
      },
      "additionalContracts": [],
      "isFixedGasLimit": false
    }
  ],
  "receipts": [
    {
      "status": "0x1",
      "cumulativeGasUsed": "0x1b0e90",
      "logs": [
        {
          "address": "0x6cf91b2000561c31b07560c6f2ada30d9f981454",
          "topics": [
            "0x8be0079c531659141344cd1fd0a4f28419497f9722a3daafe3b4186f6b6457e0",
            "0x0000000000000000000000000000000000000000000000000000000000000000",
            "0x000000000000000000000000a6b3d200cd34ca14d7579dac8b054bf50a62c37c"
          ],
          "data": "0x",
          "blockHash": "0x7eab76ba3d25e0411a131a01fad8753bce87fb246dec740a81a33227c0560507",
          "blockNumber": "0x19fc549",
          "transactionHash": "0x0f3600d274d8cd36d26cff17bb34b3d26ecb4943e28ba019f10b9337b15ad960",
          "transactionIndex": "0x5",
          "logIndex": "0xd",
          "removed": false
        }
      ],
      "logsBloom": "0x00000000000000000000008400000000000000000000000002800000000000000000000000000000000000000000000000000000000000000000000000000000000000000000000000000000000000000001000000000000000000010000000000000000020000000000000000000800000000000000000200000000000000400000000000000000000000000000000000000000000000000000000000000000000000000000000000000000000000000000000000000000000000000000000000000040000000000000000000000000000000000000000000000000000020000000000000000000000000000000000000000000000000000000000000000000",
      "type": "0x2",
      "transactionHash": "0x0f3600d274d8cd36d26cff17bb34b3d26ecb4943e28ba019f10b9337b15ad960",
      "transactionIndex": "0x5",
      "blockHash": "0x7eab76ba3d25e0411a131a01fad8753bce87fb246dec740a81a33227c0560507",
      "blockNumber": "0x19fc549",
      "gasUsed": "0x130b0f",
      "effectiveGasPrice": "0x81534a",
      "from": "0xa6b3d200cd34ca14d7579dac8b054bf50a62c37c",
      "to": null,
      "contractAddress": "0x6cf91b2000561c31b07560c6f2ada30d9f981454",
      "l1BaseFeeScalar": "0x44d",
      "l1BlobBaseFee": "0x1",
      "l1BlobBaseFeeScalar": "0xa118b",
      "l1Fee": "0xbbef0f8",
      "l1GasPrice": "0x32a86f",
      "l1GasUsed": "0xd297"
    },
    {
      "status": "0x1",
      "cumulativeGasUsed": "0x1bc778",
      "logs": [
        {
          "address": "0x6cf91b2000561c31b07560c6f2ada30d9f981454",
          "topics": [
            "0x1be038705a495dd627af47e6738a26c370e9ee5df6e53f67515bd987c64d0fdd"
          ],
          "data": "0x0000000000000000000000006bf59e9cbbce16aaf58b51d32d39b2a437281ae2",
          "blockHash": "0x7eab76ba3d25e0411a131a01fad8753bce87fb246dec740a81a33227c0560507",
          "blockNumber": "0x19fc549",
          "transactionHash": "0x15f5006c020f1a63251e96f03e56c9df251c0bafb966c1696f6b2ece300763d9",
          "transactionIndex": "0x6",
          "logIndex": "0xe",
          "removed": false
        }
      ],
      "logsBloom": "0x00000000000000000000008000000200000000000000000000000000000000000000000000000000000000000000000000000000000000000000000000000000000000000000000000000000000000000000000000000000000000010000000000000000000000000000000000000000000000000000000200000000000000000000000000000000000000000000000000000000000000000000000000040000000000000000000000000000000000000000000000000800000000000000000000000000000000000000000000000000000000000000000000000000000000000000000000000000000000000000000000000000000000000000000000000000",
      "type": "0x2",
      "transactionHash": "0x15f5006c020f1a63251e96f03e56c9df251c0bafb966c1696f6b2ece300763d9",
      "transactionIndex": "0x6",
      "blockHash": "0x7eab76ba3d25e0411a131a01fad8753bce87fb246dec740a81a33227c0560507",
      "blockNumber": "0x19fc549",
      "gasUsed": "0xb8e8",
      "effectiveGasPrice": "0x81534a",
      "from": "0xa6b3d200cd34ca14d7579dac8b054bf50a62c37c",
      "to": "0x6cf91b2000561c31b07560c6f2ada30d9f981454",
      "contractAddress": null,
      "l1BaseFeeScalar": "0x44d",
      "l1BlobBaseFee": "0x1",
      "l1BlobBaseFeeScalar": "0xa118b",
      "l1Fee": "0x593d73",
      "l1GasPrice": "0x32a86f",
      "l1GasUsed": "0x640"
    },
    {
      "status": "0x1",
      "cumulativeGasUsed": "0x1c8281",
      "logs": [
        {
          "address": "0x6bf59e9cbbce16aaf58b51d32d39b2a437281ae2",
          "topics": [
            "0xb21afb9ce9be0a676f8f317ff0ca072fb89a4f8ce2d1b6fe80f8755c14f1cb19"
          ],
          "data": "0x0000000000000000000000006cf91b2000561c31b07560c6f2ada30d9f9814540000000000000000000000000000000000000000000000000000000000000001",
          "blockHash": "0x7eab76ba3d25e0411a131a01fad8753bce87fb246dec740a81a33227c0560507",
          "blockNumber": "0x19fc549",
          "transactionHash": "0xcb32fad37434db53bc263139d63f1fc2d1f27be72faf1cf700c88072450c8c22",
          "transactionIndex": "0x7",
          "logIndex": "0xf",
          "removed": false
        }
      ],
      "logsBloom": "0x00000000000000000000000000000000001000000000000000000000000000000000000000000000000000000000000000000000000000040000000000000080000000000000000000000000000000000000000000000000000000000000000020000000000000000000000000000000000000000000000000000000000000000000000000000000000000000000000000000000000000000000200000000000000000000000000000000000000000000000000000000000000000000000000000000000000000000000000000000000000000000000000000000000000000000000000000000000000000000000001000000000000000000000000000000000",
      "type": "0x2",
      "transactionHash": "0xcb32fad37434db53bc263139d63f1fc2d1f27be72faf1cf700c88072450c8c22",
      "transactionIndex": "0x7",
      "blockHash": "0x7eab76ba3d25e0411a131a01fad8753bce87fb246dec740a81a33227c0560507",
      "blockNumber": "0x19fc549",
      "gasUsed": "0xbb09",
      "effectiveGasPrice": "0x81534a",
      "from": "0xa6b3d200cd34ca14d7579dac8b054bf50a62c37c",
      "to": "0x6bf59e9cbbce16aaf58b51d32d39b2a437281ae2",
      "contractAddress": null,
      "l1BaseFeeScalar": "0x44d",
      "l1BlobBaseFee": "0x1",
      "l1BlobBaseFeeScalar": "0xa118b",
      "l1Fee": "0x593d73",
      "l1GasPrice": "0x32a86f",
      "l1GasUsed": "0x640"
    },
    {
      "status": "0x1",
      "cumulativeGasUsed": "0x1e3f03",
      "logs": [],
      "logsBloom": "0x00000000000000000000000000000000000000000000000000000000000000000000000000000000000000000000000000000000000000000000000000000000000000000000000000000000000000000000000000000000000000000000000000000000000000000000000000000000000000000000000000000000000000000000000000000000000000000000000000000000000000000000000000000000000000000000000000000000000000000000000000000000000000000000000000000000000000000000000000000000000000000000000000000000000000000000000000000000000000000000000000000000000000000000000000000000",
      "type": "0x2",
      "transactionHash": "0xcf279e27a48f16c2e402f54698a8f384d9b553f27fa586fd2da846ff17418477",
      "transactionIndex": "0x8",
      "blockHash": "0x7eab76ba3d25e0411a131a01fad8753bce87fb246dec740a81a33227c0560507",
      "blockNumber": "0x19fc549",
      "gasUsed": "0x1bc82",
      "effectiveGasPrice": "0x81534a",
      "from": "0xa6b3d200cd34ca14d7579dac8b054bf50a62c37c",
      "to": "0x6cf91b2000561c31b07560c6f2ada30d9f981454",
      "contractAddress": null,
      "l1BaseFeeScalar": "0x44d",
      "l1BlobBaseFee": "0x1",
      "l1BlobBaseFeeScalar": "0xa118b",
      "l1Fee": "0x813604",
      "l1GasPrice": "0x32a86f",
      "l1GasUsed": "0x90c"
    },
    {
      "status": "0x1",
      "cumulativeGasUsed": "0x1ef52a",
      "logs": [],
      "logsBloom": "0x00000000000000000000000000000000000000000000000000000000000000000000000000000000000000000000000000000000000000000000000000000000000000000000000000000000000000000000000000000000000000000000000000000000000000000000000000000000000000000000000000000000000000000000000000000000000000000000000000000000000000000000000000000000000000000000000000000000000000000000000000000000000000000000000000000000000000000000000000000000000000000000000000000000000000000000000000000000000000000000000000000000000000000000000000000000",
      "type": "0x2",
      "transactionHash": "0xf59b55a11cb3a065368a7bb6e6d86a16ad501fa4ca0452af264c6cd077b25a76",
      "transactionIndex": "0x9",
      "blockHash": "0x7eab76ba3d25e0411a131a01fad8753bce87fb246dec740a81a33227c0560507",
      "blockNumber": "0x19fc549",
      "gasUsed": "0xb627",
      "effectiveGasPrice": "0x81534a",
      "from": "0xa6b3d200cd34ca14d7579dac8b054bf50a62c37c",
      "to": "0x6cf91b2000561c31b07560c6f2ada30d9f981454",
      "contractAddress": null,
      "l1BaseFeeScalar": "0x44d",
      "l1BlobBaseFee": "0x1",
      "l1BlobBaseFeeScalar": "0xa118b",
      "l1Fee": "0x593d73",
      "l1GasPrice": "0x32a86f",
      "l1GasUsed": "0x640"
    },
    {
      "status": "0x1",
      "cumulativeGasUsed": "0x3348cc",
      "logs": [],
      "logsBloom": "0x00000000000000000000000000000000000000000000000000000000000000000000000000000000000000000000000000000000000000000000000000000000000000000000000000000000000000000000000000000000000000000000000000000000000000000000000000000000000000000000000000000000000000000000000000000000000000000000000000000000000000000000000000000000000000000000000000000000000000000000000000000000000000000000000000000000000000000000000000000000000000000000000000000000000000000000000000000000000000000000000000000000000000000000000000000000",
      "type": "0x2",
      "transactionHash": "0xd3c020cd6797f9b9e29572ff47aba2fba43c55cb806a275431c2105f8a9fe4ae",
      "transactionIndex": "0xe",
      "blockHash": "0x7eab76ba3d25e0411a131a01fad8753bce87fb246dec740a81a33227c0560507",
      "blockNumber": "0x19fc549",
      "gasUsed": "0xb633",
      "effectiveGasPrice": "0x81534a",
      "from": "0xa6b3d200cd34ca14d7579dac8b054bf50a62c37c",
      "to": "0x6cf91b2000561c31b07560c6f2ada30d9f981454",
      "contractAddress": null,
      "l1BaseFeeScalar": "0x44d",
      "l1BlobBaseFee": "0x1",
      "l1BlobBaseFeeScalar": "0xa118b",
      "l1Fee": "0x593d73",
      "l1GasPrice": "0x32a86f",
      "l1GasUsed": "0x640"
    },
    {
      "status": "0x1",
      "cumulativeGasUsed": "0x33feff",
      "logs": [],
      "logsBloom": "0x00000000000000000000000000000000000000000000000000000000000000000000000000000000000000000000000000000000000000000000000000000000000000000000000000000000000000000000000000000000000000000000000000000000000000000000000000000000000000000000000000000000000000000000000000000000000000000000000000000000000000000000000000000000000000000000000000000000000000000000000000000000000000000000000000000000000000000000000000000000000000000000000000000000000000000000000000000000000000000000000000000000000000000000000000000000",
      "type": "0x2",
      "transactionHash": "0x80edb090cff3885907c1694afb1467cc170f8d26c0b64f0e5f018ff5be161b62",
      "transactionIndex": "0xf",
      "blockHash": "0x7eab76ba3d25e0411a131a01fad8753bce87fb246dec740a81a33227c0560507",
      "blockNumber": "0x19fc549",
      "gasUsed": "0xb633",
      "effectiveGasPrice": "0x81534a",
      "from": "0xa6b3d200cd34ca14d7579dac8b054bf50a62c37c",
      "to": "0x6cf91b2000561c31b07560c6f2ada30d9f981454",
      "contractAddress": null,
      "l1BaseFeeScalar": "0x44d",
      "l1BlobBaseFee": "0x1",
      "l1BlobBaseFeeScalar": "0xa118b",
      "l1Fee": "0x593d73",
      "l1GasPrice": "0x32a86f",
      "l1GasUsed": "0x640"
    },
    {
      "status": "0x1",
      "cumulativeGasUsed": "0x34b532",
      "logs": [],
      "logsBloom": "0x00000000000000000000000000000000000000000000000000000000000000000000000000000000000000000000000000000000000000000000000000000000000000000000000000000000000000000000000000000000000000000000000000000000000000000000000000000000000000000000000000000000000000000000000000000000000000000000000000000000000000000000000000000000000000000000000000000000000000000000000000000000000000000000000000000000000000000000000000000000000000000000000000000000000000000000000000000000000000000000000000000000000000000000000000000000",
      "type": "0x2",
      "transactionHash": "0x89dc73348814936a9e34b7200ef4789ab486e5dcc46fdd1ffed16216e9425a6c",
      "transactionIndex": "0x10",
      "blockHash": "0x7eab76ba3d25e0411a131a01fad8753bce87fb246dec740a81a33227c0560507",
      "blockNumber": "0x19fc549",
      "gasUsed": "0xb633",
      "effectiveGasPrice": "0x81534a",
      "from": "0xa6b3d200cd34ca14d7579dac8b054bf50a62c37c",
      "to": "0x6cf91b2000561c31b07560c6f2ada30d9f981454",
      "contractAddress": null,
      "l1BaseFeeScalar": "0x44d",
      "l1BlobBaseFee": "0x1",
      "l1BlobBaseFeeScalar": "0xa118b",
      "l1Fee": "0x593d73",
      "l1GasPrice": "0x32a86f",
      "l1GasUsed": "0x640"
    },
    {
      "status": "0x1",
      "cumulativeGasUsed": "0x374a35",
      "logs": [
        {
          "address": "0x6cf91b2000561c31b07560c6f2ada30d9f981454",
          "topics": [
            "0x908210fc0149379fe25f26a14ba6965e58ae6f8b5e8bb5e1f4586b323fd79b67",
            "0x88ef8906c27d3e6af98ad7a5cf53c31a771fadb410370749ce5bf0cdb279c3b6"
          ],
          "data": "0x0000000000000000000000006bf59e9cbbce16aaf58b51d32d39b2a437281ae200000000000000000000000000000000000000000000000000038d7ea4c680000000000000000000000000000000000000000000000000000000000000000001",
          "blockHash": "0x7eab76ba3d25e0411a131a01fad8753bce87fb246dec740a81a33227c0560507",
          "blockNumber": "0x19fc549",
          "transactionHash": "0x2c2db900081b515e5c57abd335650692b731c664812f6c696c085f4e72212286",
          "transactionIndex": "0x11",
          "logIndex": "0x3c",
          "removed": false
        }
      ],
      "logsBloom": "0x20000000000000000000008000000000000000000000000000000000000010000000000000000000000000000000000000000000000000000000000000000000000000000000000000000000000000000000000000000000200000010000000000000000000000000000000000000000000000000000000200000000000000000000000800000000000000000000000000000000000000000000000000000000000000000000000000000000000000000000000000000000000000000000000200000000000000000000000000000000000000000000000000000000000000000000000000000000400000000000000000000000000000000000000000000000",
      "type": "0x2",
      "transactionHash": "0x2c2db900081b515e5c57abd335650692b731c664812f6c696c085f4e72212286",
      "transactionIndex": "0x11",
      "blockHash": "0x7eab76ba3d25e0411a131a01fad8753bce87fb246dec740a81a33227c0560507",
      "blockNumber": "0x19fc549",
      "gasUsed": "0x29503",
      "effectiveGasPrice": "0x81534a",
      "from": "0xa6b3d200cd34ca14d7579dac8b054bf50a62c37c",
      "to": "0x6cf91b2000561c31b07560c6f2ada30d9f981454",
      "contractAddress": null,
      "l1BaseFeeScalar": "0x44d",
      "l1BlobBaseFee": "0x1",
      "l1BlobBaseFeeScalar": "0xa118b",
      "l1Fee": "0x6ad0f4",
      "l1GasPrice": "0x32a86f",
      "l1GasUsed": "0x77b"
    },
    {
      "status": "0x1",
      "cumulativeGasUsed": "0x399c6c",
      "logs": [
        {
          "address": "0x6cf91b2000561c31b07560c6f2ada30d9f981454",
          "topics": [
            "0x908210fc0149379fe25f26a14ba6965e58ae6f8b5e8bb5e1f4586b323fd79b67",
            "0x924cafe3f4668225141f2f2252ca17f67b629c2ff1426ac8ff340549f1266789"
          ],
          "data": "0x0000000000000000000000006bf59e9cbbce16aaf58b51d32d39b2a437281ae200000000000000000000000000000000000000000000000000038d7ea4c680000000000000000000000000000000000000000000000000000000000000000001",
          "blockHash": "0x7eab76ba3d25e0411a131a01fad8753bce87fb246dec740a81a33227c0560507",
          "blockNumber": "0x19fc549",
          "transactionHash": "0xc9c1f12f01ad560b9eeb3b530f849ec28728bdba38becc50663b5ea6fbf8bc38",
          "transactionIndex": "0x12",
          "logIndex": "0x3d",
          "removed": false
        }
      ],
      "logsBloom": "0x00000000000000000000008000000000000000000000000000000000000010000000000000000000000000000000000000000000000000000000000000000000000000000000000000000000000000000000000000000000000000010000000000000000000000000000000000000000000000000000000200000000000000000000000000000000000000000000000000000000000000000000000000000000000000000000008000000000000000000000000000000000000000000000000200000000000000000000000000000000000000000000000000000020000000000000080000000000400000000000000000000000000000000000000000000000",
      "type": "0x2",
      "transactionHash": "0xc9c1f12f01ad560b9eeb3b530f849ec28728bdba38becc50663b5ea6fbf8bc38",
      "transactionIndex": "0x12",
      "blockHash": "0x7eab76ba3d25e0411a131a01fad8753bce87fb246dec740a81a33227c0560507",
      "blockNumber": "0x19fc549",
      "gasUsed": "0x25237",
      "effectiveGasPrice": "0x81534a",
      "from": "0xa6b3d200cd34ca14d7579dac8b054bf50a62c37c",
      "to": "0x6cf91b2000561c31b07560c6f2ada30d9f981454",
      "contractAddress": null,
      "l1BaseFeeScalar": "0x44d",
      "l1BlobBaseFee": "0x1",
      "l1BlobBaseFeeScalar": "0xa118b",
      "l1Fee": "0x6ad0f4",
      "l1GasPrice": "0x32a86f",
      "l1GasUsed": "0x77b"
    },
    {
      "status": "0x1",
      "cumulativeGasUsed": "0x3beea3",
      "logs": [
        {
          "address": "0x6cf91b2000561c31b07560c6f2ada30d9f981454",
          "topics": [
            "0x908210fc0149379fe25f26a14ba6965e58ae6f8b5e8bb5e1f4586b323fd79b67",
            "0x870729ce323527c7d70de6e3b4d0cf8167c8b204a3f39d2c51d3c92ccebc3edc"
          ],
          "data": "0x0000000000000000000000006bf59e9cbbce16aaf58b51d32d39b2a437281ae200000000000000000000000000000000000000000000000000038d7ea4c680000000000000000000000000000000000000000000000000000000000000000001",
          "blockHash": "0x7eab76ba3d25e0411a131a01fad8753bce87fb246dec740a81a33227c0560507",
          "blockNumber": "0x19fc549",
          "transactionHash": "0x11f993373a5300e4f0a63364ce5051d31c00204eb1467180e5c9360e8d396c07",
          "transactionIndex": "0x13",
          "logIndex": "0x3e",
          "removed": false
        }
      ],
      "logsBloom": "0x00000000000000000000008000000000000000000000000000000000000010000000000000000000000000000000000000000000000000000000000000000000000000000000000000000000000000000000000000000000000000010000000000000000000000000000000000000000000000000000000200000000000000000000000000000000000000000000000000000000000000000000000000000000000000000000000000000000000000000000000000000000000010400000000200000000000000000000000000000000000000000000002000000000000000000000000000000000400000000000000000000000000000000000000000000000",
      "type": "0x2",
      "transactionHash": "0x11f993373a5300e4f0a63364ce5051d31c00204eb1467180e5c9360e8d396c07",
      "transactionIndex": "0x13",
      "blockHash": "0x7eab76ba3d25e0411a131a01fad8753bce87fb246dec740a81a33227c0560507",
      "blockNumber": "0x19fc549",
      "gasUsed": "0x25237",
      "effectiveGasPrice": "0x81534a",
      "from": "0xa6b3d200cd34ca14d7579dac8b054bf50a62c37c",
      "to": "0x6cf91b2000561c31b07560c6f2ada30d9f981454",
      "contractAddress": null,
      "l1BaseFeeScalar": "0x44d",
      "l1BlobBaseFee": "0x1",
      "l1BlobBaseFeeScalar": "0xa118b",
      "l1Fee": "0x6ad0f4",
      "l1GasPrice": "0x32a86f",
      "l1GasUsed": "0x77b"
    },
    {
      "status": "0x1",
      "cumulativeGasUsed": "0x3e40da",
      "logs": [
        {
          "address": "0x6cf91b2000561c31b07560c6f2ada30d9f981454",
          "topics": [
            "0x908210fc0149379fe25f26a14ba6965e58ae6f8b5e8bb5e1f4586b323fd79b67",
            "0x1887cd0d242fb25ce3889259bf747a4bc6ac3eb3fe083aa1d14c660f7a59c3e2"
          ],
          "data": "0x0000000000000000000000006bf59e9cbbce16aaf58b51d32d39b2a437281ae200000000000000000000000000000000000000000000000000038d7ea4c680000000000000000000000000000000000000000000000000000000000000000001",
          "blockHash": "0x7eab76ba3d25e0411a131a01fad8753bce87fb246dec740a81a33227c0560507",
          "blockNumber": "0x19fc549",
          "transactionHash": "0x94ed38921fb3173007bd22ff18d10ffddc111358a15b832ee80351c47731334a",
          "transactionIndex": "0x14",
          "logIndex": "0x3f",
          "removed": false
        }
      ],
      "logsBloom": "0x00000000000000000000008000000000000000000000000000000000000010000000000000000000000000000000000004000000000000000000000000000000000000000000000000000000000000000000000000000000000000010000000000000000000000000000000000000000000000000000000200000000000000000000000000000000000000000000000000000000000000002000000000000000000000000000000000000000000000000000000000000000000000000000000200000000000000000000000000000000000000000000000000000000000000000000000000000000400000000000080000000000000000000000000000000000",
      "type": "0x2",
      "transactionHash": "0x94ed38921fb3173007bd22ff18d10ffddc111358a15b832ee80351c47731334a",
      "transactionIndex": "0x14",
      "blockHash": "0x7eab76ba3d25e0411a131a01fad8753bce87fb246dec740a81a33227c0560507",
      "blockNumber": "0x19fc549",
      "gasUsed": "0x25237",
      "effectiveGasPrice": "0x81534a",
      "from": "0xa6b3d200cd34ca14d7579dac8b054bf50a62c37c",
      "to": "0x6cf91b2000561c31b07560c6f2ada30d9f981454",
      "contractAddress": null,
      "l1BaseFeeScalar": "0x44d",
      "l1BlobBaseFee": "0x1",
      "l1BlobBaseFeeScalar": "0xa118b",
      "l1Fee": "0x6a11d9",
      "l1GasPrice": "0x32a86f",
      "l1GasUsed": "0x76d"
    },
    {
      "status": "0x1",
      "cumulativeGasUsed": "0x43d89c",
      "logs": [
        {
          "address": "0x6cf91b2000561c31b07560c6f2ada30d9f981454",
          "topics": [
            "0x603c893fe5a7abb065fd37be5d74b7570a708f31c5b02b409779f57f8ab59788",
            "0x88ef8906c27d3e6af98ad7a5cf53c31a771fadb410370749ce5bf0cdb279c3b6"
          ],
          "data": "0x000000000000000000000000000000000000000000000000000009184e72a000",
          "blockHash": "0x7eab76ba3d25e0411a131a01fad8753bce87fb246dec740a81a33227c0560507",
          "blockNumber": "0x19fc549",
          "transactionHash": "0x9575e7e8d0ce3812b6103ade286b76d96c5bdf7dcc16e5050af8d7a9749992e9",
          "transactionIndex": "0x17",
          "logIndex": "0x43",
          "removed": false
        }
      ],
      "logsBloom": "0x20000000000000000000008000000000000000000000000000000000200000000000000000000000000000000000000000000000000000000000000000000000000000000000000000000000000000000000000000000000200000010000000000000080000000000000000000010000000000000000000200000000000000000000000800000000000000000000000000000000000000000000000000000000000000000000000000000000000000000000000000000000000000000000000000000000000000000000000000000000000000000000000000000000000000000000000000000000000000000000000000000000000000000000000000000000",
      "type": "0x2",
      "transactionHash": "0x9575e7e8d0ce3812b6103ade286b76d96c5bdf7dcc16e5050af8d7a9749992e9",
      "transactionIndex": "0x17",
      "blockHash": "0x7eab76ba3d25e0411a131a01fad8753bce87fb246dec740a81a33227c0560507",
      "blockNumber": "0x19fc549",
      "gasUsed": "0xbb4f",
      "effectiveGasPrice": "0x81534a",
      "from": "0xa6b3d200cd34ca14d7579dac8b054bf50a62c37c",
      "to": "0x6cf91b2000561c31b07560c6f2ada30d9f981454",
      "contractAddress": null,
      "l1BaseFeeScalar": "0x44d",
      "l1BlobBaseFee": "0x1",
      "l1BlobBaseFeeScalar": "0xa118b",
      "l1Fee": "0x593d73",
      "l1GasPrice": "0x32a86f",
      "l1GasUsed": "0x640"
    },
    {
      "status": "0x1",
      "cumulativeGasUsed": "0x4493eb",
      "logs": [
        {
          "address": "0x6cf91b2000561c31b07560c6f2ada30d9f981454",
          "topics": [
            "0x603c893fe5a7abb065fd37be5d74b7570a708f31c5b02b409779f57f8ab59788",
            "0x924cafe3f4668225141f2f2252ca17f67b629c2ff1426ac8ff340549f1266789"
          ],
          "data": "0x000000000000000000000000000000000000000000000000000009184e72a000",
          "blockHash": "0x7eab76ba3d25e0411a131a01fad8753bce87fb246dec740a81a33227c0560507",
          "blockNumber": "0x19fc549",
          "transactionHash": "0xb59d2c13b4c82011324651d297c5ae0031054f50219ac4e39d983c522fd2efc0",
          "transactionIndex": "0x18",
          "logIndex": "0x44",
          "removed": false
        }
      ],
      "logsBloom": "0x00000000000000000000008000000000000000000000000000000000200000000000000000000000000000000000000000000000000000000000000000000000000000000000000000000000000000000000000000000000000000010000000000000080000000000000000000010000000000000000000200000000000000000000000000000000000000000000000000000000000000000000000000000000000000000000008000000000000000000000000000000000000000000000000000000000000000000000000000000000000000000000000000000020000000000000080000000000000000000000000000000000000000000000000000000000",
      "type": "0x2",
      "transactionHash": "0xb59d2c13b4c82011324651d297c5ae0031054f50219ac4e39d983c522fd2efc0",
      "transactionIndex": "0x18",
      "blockHash": "0x7eab76ba3d25e0411a131a01fad8753bce87fb246dec740a81a33227c0560507",
      "blockNumber": "0x19fc549",
      "gasUsed": "0xbb4f",
      "effectiveGasPrice": "0x81534a",
      "from": "0xa6b3d200cd34ca14d7579dac8b054bf50a62c37c",
      "to": "0x6cf91b2000561c31b07560c6f2ada30d9f981454",
      "contractAddress": null,
      "l1BaseFeeScalar": "0x44d",
      "l1BlobBaseFee": "0x1",
      "l1BlobBaseFeeScalar": "0xa118b",
      "l1Fee": "0x593d73",
      "l1GasPrice": "0x32a86f",
      "l1GasUsed": "0x640"
    },
    {
      "status": "0x1",
      "cumulativeGasUsed": "0x454f3a",
      "logs": [
        {
          "address": "0x6cf91b2000561c31b07560c6f2ada30d9f981454",
          "topics": [
            "0x603c893fe5a7abb065fd37be5d74b7570a708f31c5b02b409779f57f8ab59788",
            "0x870729ce323527c7d70de6e3b4d0cf8167c8b204a3f39d2c51d3c92ccebc3edc"
          ],
          "data": "0x000000000000000000000000000000000000000000000000000009184e72a000",
          "blockHash": "0x7eab76ba3d25e0411a131a01fad8753bce87fb246dec740a81a33227c0560507",
          "blockNumber": "0x19fc549",
          "transactionHash": "0xa81a9528411e2f1c5b974fd4692888861f82d50978bb195b4644ad70d6df8348",
          "transactionIndex": "0x19",
          "logIndex": "0x45",
          "removed": false
        }
      ],
      "logsBloom": "0x00000000000000000000008000000000000000000000000000000000200000000000000000000000000000000000000000000000000000000000000000000000000000000000000000000000000000000000000000000000000000010000000000000080000000000000000000010000000000000000000200000000000000000000000000000000000000000000000000000000000000000000000000000000000000000000000000000000000000000000000000000000000010400000000000000000000000000000000000000000000000000000002000000000000000000000000000000000000000000000000000000000000000000000000000000000",
      "type": "0x2",
      "transactionHash": "0xa81a9528411e2f1c5b974fd4692888861f82d50978bb195b4644ad70d6df8348",
      "transactionIndex": "0x19",
      "blockHash": "0x7eab76ba3d25e0411a131a01fad8753bce87fb246dec740a81a33227c0560507",
      "blockNumber": "0x19fc549",
      "gasUsed": "0xbb4f",
      "effectiveGasPrice": "0x81534a",
      "from": "0xa6b3d200cd34ca14d7579dac8b054bf50a62c37c",
      "to": "0x6cf91b2000561c31b07560c6f2ada30d9f981454",
      "contractAddress": null,
      "l1BaseFeeScalar": "0x44d",
      "l1BlobBaseFee": "0x1",
      "l1BlobBaseFeeScalar": "0xa118b",
      "l1Fee": "0x593d73",
      "l1GasPrice": "0x32a86f",
      "l1GasUsed": "0x640"
    },
    {
      "status": "0x1",
      "cumulativeGasUsed": "0x460a89",
      "logs": [
        {
          "address": "0x6cf91b2000561c31b07560c6f2ada30d9f981454",
          "topics": [
            "0x603c893fe5a7abb065fd37be5d74b7570a708f31c5b02b409779f57f8ab59788",
            "0x1887cd0d242fb25ce3889259bf747a4bc6ac3eb3fe083aa1d14c660f7a59c3e2"
          ],
          "data": "0x000000000000000000000000000000000000000000000000000009184e72a000",
          "blockHash": "0x7eab76ba3d25e0411a131a01fad8753bce87fb246dec740a81a33227c0560507",
          "blockNumber": "0x19fc549",
          "transactionHash": "0xfcdf40b8ccc0f2869f3dccc927fe28335aa39b89a30c38aa3852f21ea9dcacec",
          "transactionIndex": "0x1a",
          "logIndex": "0x46",
          "removed": false
        }
      ],
      "logsBloom": "0x00000000000000000000008000000000000000000000000000000000200000000000000000000000000000000000000004000000000000000000000000000000000000000000000000000000000000000000000000000000000000010000000000000080000000000000000000010000000000000000000200000000000000000000000000000000000000000000000000000000000000002000000000000000000000000000000000000000000000000000000000000000000000000000000000000000000000000000000000000000000000000000000000000000000000000000000000000000000000000000080000000000000000000000000000000000",
      "type": "0x2",
      "transactionHash": "0xfcdf40b8ccc0f2869f3dccc927fe28335aa39b89a30c38aa3852f21ea9dcacec",
      "transactionIndex": "0x1a",
      "blockHash": "0x7eab76ba3d25e0411a131a01fad8753bce87fb246dec740a81a33227c0560507",
      "blockNumber": "0x19fc549",
      "gasUsed": "0xbb4f",
      "effectiveGasPrice": "0x81534a",
      "from": "0xa6b3d200cd34ca14d7579dac8b054bf50a62c37c",
      "to": "0x6cf91b2000561c31b07560c6f2ada30d9f981454",
      "contractAddress": null,
      "l1BaseFeeScalar": "0x44d",
      "l1BlobBaseFee": "0x1",
      "l1BlobBaseFeeScalar": "0xa118b",
      "l1Fee": "0x593d73",
      "l1GasPrice": "0x32a86f",
      "l1GasUsed": "0x640"
    }
  ],
  "libraries": [],
  "pending": [],
  "returns": {},
  "timestamp": 1750264180,
  "chain": 84532,
  "commit": "51ec064"
}