{
  "transactions": [
    {
      "hash": "0xb55132940e35f775c7555e94d82f5ce76cd7b5444a841050248dc0eacd6c1c2b",
      "transactionType": "CREATE",
      "contractName": "RewardDistributor",
      "contractAddress": "0x7db6fd53472de90188b7f07084fd5d020a7056cd",
      "function": null,
      "arguments": null,
      "transaction": {
        "from": "0xa6b3d200cd34ca14d7579dac8b054bf50a62c37c",
        "gas": "0x1a4949",
        "value": "0x0",
        "input": "0x608080604052346071573315605e575f8054336001600160a01b0319821681178355916001600160a01b03909116907f8be0079c531659141344cd1fd0a4f28419497f9722a3daafe3b4186f6b6457e09080a361169790816100768239f35b631e4fbdf760e01b5f525f60045260245ffd5b5f80fdfe6080806040526004361015610012575f80fd5b5f905f3560e01c908162f96434146110715750806309f2c01914610fac5780630b36db1514610dde578063179aae8814610db85780632073de5c14610d3157806323be345c14610d0b5780632636e8a014610ae5578063274ee47514610a3d578063312e109c1461093a57806348f60dfd146108125780634e210544146107ec57806368b2c40c1461077857806369883b4e14610740578063715018a6146106e95780637790ddc6146105205780638209ec501461046b5780638da5cb5b146104455780638ff29cfe146104085780639002392e146103a057806395ccea671461036757806399fc65d414610309578063b79f12b2146102e2578063bb13c3cb146102bb578063d88ff1f414610205578063ec01da10146101db5763f2fde38b1461013b575f80fd5b346101d85760203660031901126101d8576001600160a01b0361015c6111a0565b610164611475565b1680156101ac576001600160a01b038254826001600160a01b03198216178455167f8be0079c531659141344cd1fd0a4f28419497f9722a3daafe3b4186f6b6457e08380a380f35b6024827f1e4fbdf700000000000000000000000000000000000000000000000000000000815280600452fd5b80fd5b50346101d85760203660031901126101d85760406020916004358152600483522054604051908152f35b50346101d857806003193601126101d85760405180602060025491828152018091600285527f405787fa12a823e0f2b7631cc41b3ba8828b3321ca811111fa75cd3aa3bb5ace90855b8181106102a55750505082610264910383611231565b604051928392602084019060208552518091526040840192915b81811061028c575050500390f35b825184528594506020938401939092019160010161027e565b825484526020909301926001928301920161024e565b50346101d857806003193601126101d85760206001600160a01b03600a5416604051908152f35b50346101d857806003193601126101d85760206001600160a01b0360065416604051908152f35b50346101d85760403660031901126101d8576103236111a0565b6024358015158103610363576001600160a01b0361036092610343611475565b1683526005602052604083209060ff801983541691151516179055565b80f35b8280fd5b50346101d85760403660031901126101d8576103606103846111a0565b61038c611475565b602435906001600160a01b033391166114b4565b50346101d85760403660031901126101d8576001600160a01b0360406103c461118a565b92600435815260036020522091165f52602052608060405f208054906001810154906003600282015491015491604051938452602084015260408301526060820152f35b50346101d85760203660031901126101d85760ff60406020926001600160a01b036104316111a0565b168152600584522054166040519015158152f35b50346101d857806003193601126101d8576001600160a01b036020915416604051908152f35b50346101d85760203660031901126101d8576001600160a01b0361048d6111a0565b610495611475565b1680156104dc576020817f1be038705a495dd627af47e6738a26c370e9ee5df6e53f67515bd987c64d0fdd926001600160a01b0319600a541617600a55604051908152a180f35b606460405162461bcd60e51b815260206004820152601a60248201527f496e76616c69642056434f5020746f6b656e20616464726573730000000000006044820152fd5b50346106695760203660031901126106695760043561053f3382611399565b805f52600360205260405f206001600160a01b0333165f52602052600160405f2001908154918261056e578380f35b5f9055805f52600160205260405f206002810161058c848254611287565b90558260ff600683015460081c16806106cb575b156106b157506001600160a01b03600a54161561066d57546001600160a01b0316803b15610669576040517f40c10f1900000000000000000000000000000000000000000000000000000000815233600482015260248101849052905f908290604490829084905af1801561065e57610649575b505b6040519182527ffec539b3c42d74cd492c3ecf7966bf014b327beef98e935cdc3ec5e54a6901c760203393a35f80808380f35b6106569193505f90611231565b5f915f610614565b6040513d5f823e3d90fd5b5f80fd5b606460405162461bcd60e51b815260206004820152601260248201527f56434f5020746f6b656e206e6f742073657400000000000000000000000000006044820152fd5b6106c6916001600160a01b03339154166114b4565b610616565b506001600160a01b038254166001600160a01b03600a5416146105a0565b34610669575f36600319011261066957610701611475565b5f6001600160a01b0381546001600160a01b031981168355167f8be0079c531659141344cd1fd0a4f28419497f9722a3daafe3b4186f6b6457e08280a3005b3461066957602036600319011261066957600435600254811015610669576107696020916111cc565b90549060031b1c604051908152f35b346106695760207facefc4a7d159e33f5c2d6facc53467d06090e50ccfa880ef241dc1d1a9200f6c6107a9366111b6565b6107b4939193611475565b835f526001825260405f206107c885611294565b6005820155600442910155835f526001825280600360405f200155604051908152a2005b34610669575f3660031901126106695760206001600160a01b0360085416604051908152f35b3461066957610820366111b6565b815f52600160205260405f2060068101549160ff8316156108f657600160209260ff7f603c893fe5a7abb065fd37be5d74b7570a708f31c5b02b409779f57f8ab597889560081c165f14610886570161087a828254611287565b90555b604051908152a2005b6108e36001600160a01b03825416604051907f23b872dd0000000000000000000000000000000000000000000000000000000087830152336024830152306044830152856064830152606482526108de608483611231565b61150b565b016108ef828254611287565b905561087d565b606460405162461bcd60e51b815260206004820152600f60248201527f506f6f6c206e6f742061637469766500000000000000000000000000000000006044820152fd5b34610669576040366003190112610669576109dd60043561095961118a565b90805f52600360205260405f206001600160a01b0383165f52602052602060405f20926040519261098984611215565b8454845260018501548385015260606003600287015496876040880152015494019384526040519586928392623e590d60e21b8452600484019092916001600160a01b036020916040840195845216910152565b0381305afa90811561065e575f91610a08575b60609350519060405192835260208301526040820152f35b90506020833d602011610a35575b81610a2360209383611231565b810103126106695760609251906109f0565b3d9150610a16565b3461066957608036600319011261066957610a566111a0565b610a5e61118a565b90604435906001600160a01b03821680920361066957606435926001600160a01b038416809403610669576001600160a01b038092610a9b611475565b166001600160a01b03196006541617600655166001600160a01b031960075416176007556001600160a01b031960085416176008556001600160a01b031960095416176009555f80f35b3461066957606036600319011261066957600435610b0161118a565b60443590610b0d611475565b825f5260016020526001600160a01b0360405f205416610cc7576001600160a01b03168015610c83576001600160a01b03600a5416811490604051610b51816111f8565b818152602081015f8152610bea600660408401935f8552606081018881526080820142815260a08301915f835260c08401976001895260e08501978b89528d5f5260016020526001600160a01b0360405f209651166001600160a01b03198754161786555160018601555160028501555160038401555160048301555160058201550192511515839060ff801983541691151516179055565b51815461ff00191690151560081b61ff00161790556002549168010000000000000000831015610c6f577f908210fc0149379fe25f26a14ba6965e58ae6f8b5e8bb5e1f4586b323fd79b6793610c48846001606096016002556111cc565b81549060031b9088821b915f19901b191617905560405192835260208301526040820152a2005b634e487b7160e01b5f52604160045260245ffd5b606460405162461bcd60e51b815260206004820152601460248201527f496e76616c69642072657761726420746f6b656e0000000000000000000000006044820152fd5b606460405162461bcd60e51b815260206004820152601360248201527f506f6f6c20616c726561647920657869737473000000000000000000000000006044820152fd5b34610669575f3660031901126106695760206001600160a01b0360095416604051908152f35b34610669576020366003190112610669576004355f52600160205261010060405f2060ff6001600160a01b0382541691600181015490600281015460038201546004830154916006600585015494015494604051978852602088015260408701526060860152608085015260a0840152818116151560c084015260081c16151560e0820152f35b34610669575f3660031901126106695760206001600160a01b0360075416604051908152f35b3461066957608036600319011261066957600435610dfa61118a565b90604435916064359081151580830361066957335f52600560205260ff60405f20541615610f6857610e2c8285611399565b835f52600360205260405f206001600160a01b0383165f5260205260405f20925f14610ebf576040916001600160a01b03918460027f9f0a7aaf8d18c024e8123bdcd157b0f6e0f42892a4ea14a2becc88a320a799229601610e8f898254611287565b9055865f526004602052845f20610ea7898254611287565b90555b600342910155835196875260208701521693a3005b6002830191825491868310610f24577f9f0a7aaf8d18c024e8123bdcd157b0f6e0f42892a4ea14a2becc88a320a7992294604094610f05896001600160a01b0396611253565b9055865f526004602052845f20610f1d898254611253565b9055610eaa565b606460405162461bcd60e51b815260206004820152601260248201527f496e73756666696369656e74207374616b6500000000000000000000000000006044820152fd5b606460405162461bcd60e51b815260206004820152600e60248201527f4e6f7420617574686f72697a65640000000000000000000000000000000000006044820152fd5b346106695760203660031901126106695760c0600435805f52600160205260405f2090604051610fdb816111f8565b6001600160a01b0383541692838252600181015492836020840152600282015490816040850152600660038401549384606087015260048101546080870152600581015460a087015201549360e060ff898301968181161515885260081c1615159101525f52600460205260405f20549251151593604051958652602086015260408501526060840152608083015260a0820152f35b34610669576040366003190112610669576111826020916004359061109461118a565b90825f526001855260e060ff600660405f206110af856111f8565b6001600160a01b038154168552600181015489860152600281015460408601526003810154606086015260048101546080860152600581015460a08601520154818116151560c085015260081c161515910152815f52600384526001600160a01b0360405f2091165f528352670de0b6b3a764000061117960405f206111736040519161113b83611215565b8054835261116960018201549689850197885260036002840154936040870194855201546060860152611294565b9051925190611253565b90611274565b04905190611287565b604051908152f35b602435906001600160a01b038216820361066957565b600435906001600160a01b038216820361066957565b6040906003190112610669576004359060243590565b6002548110156111e45760025f5260205f2001905f90565b634e487b7160e01b5f52603260045260245ffd5b610100810190811067ffffffffffffffff821117610c6f57604052565b6080810190811067ffffffffffffffff821117610c6f57604052565b90601f8019910116810190811067ffffffffffffffff821117610c6f57604052565b9190820391821161126057565b634e487b7160e01b5f52601160045260245ffd5b8181029291811591840414171561126057565b9190820180921161126057565b805f52600160205260405f20604051906112ad826111f8565b6001600160a01b0381541682526001810154602083015260028101546040830152600381015490606083019182526004810154926080810193845260e060ff600660058501549460a085019586520154818116151560c085015260081c161515910152835f52600460205260405f205415611391579061133361133b9251935142611253565b905190611274565b91670de0b6b3a7640000830292808404670de0b6b3a76400001490151715611260575f52600460205260405f2054801561137d5761137a920490611287565b90565b634e487b7160e01b5f52601260045260245ffd5b925050505190565b90815f52600160205260405f20906113b083611294565b91600581019283556004429101556001600160a01b0381166113d157505050565b602061142591845f526003825260405f206001600160a01b0382165f52825260405f20946040519384928392623e590d60e21b8452600484019092916001600160a01b036020916040840195845216910152565b0381305afa90811561065e575f91611443575b506001830155549055565b90506020813d60201161146d575b8161145e60209383611231565b8101031261066957515f611438565b3d9150611451565b6001600160a01b035f5416330361148857565b7f118cdaa7000000000000000000000000000000000000000000000000000000005f523360045260245ffd5b6040517fa9059cbb0000000000000000000000000000000000000000000000000000000060208201526001600160a01b03929092166024830152604480830193909352918152611509916108de606483611231565b565b5f6001600160a01b038192169260208151910182855af13d156115c9573d67ffffffffffffffff8111610c6f5761156491604051916115546020601f19601f8401160184611231565b82523d5f602084013e5b836115d5565b80519081151591826115a5575b505061157a5750565b7f5274afe7000000000000000000000000000000000000000000000000000000005f5260045260245ffd5b81925090602091810103126106695760200151801590811503610669575f80611571565b6115649060609061155e565b9061161257508051156115ea57805190602001fd5b7f1425ea42000000000000000000000000000000000000000000000000000000005f5260045ffd5b81511580611658575b611623575090565b6001600160a01b03907f9996b315000000000000000000000000000000000000000000000000000000005f521660045260245ffd5b50803b1561161b56fea2646970667358221220d1fcdd1bcf6e42d0710f1bf9b1504c4f9f4b952cedc3fe1df4b067681adea8f264736f6c634300081a0033",
        "nonce": "0x8d5",
        "chainId": "0x14a34"
      },
      "additionalContracts": [],
      "isFixedGasLimit": false
    },
    {
      "hash": "0x0d1cc92a1d33f2d2aa44e8190aa3cf1afdb4d2bce76c7a86a8c7ea12bcc32f8b",
      "transactionType": "CALL",
      "contractName": "RewardDistributor",
      "contractAddress": "0x7db6fd53472de90188b7f07084fd5d020a7056cd",
      "function": "setVCOPToken(address)",
      "arguments": [
        "0x97428EC2e8A311f296f7A27477E37d678efab250"
      ],
      "transaction": {
        "from": "0xa6b3d200cd34ca14d7579dac8b054bf50a62c37c",
        "to": "0x7db6fd53472de90188b7f07084fd5d020a7056cd",
        "gas": "0xff6f",
        "value": "0x0",
        "input": "0x8209ec5000000000000000000000000097428ec2e8a311f296f7a27477e37d678efab250",
        "nonce": "0x8d6",
        "chainId": "0x14a34"
      },
      "additionalContracts": [],
      "isFixedGasLimit": false
    },
    {
      "hash": "0x7bd33211cd95ef04ab95f6f46170c37cf570dcba361824a53025663cd5310d8d",
      "transactionType": "CALL",
      "contractName": null,
      "contractAddress": "0x97428ec2e8a311f296f7a27477e37d678efab250",
      "function": "setMinter(address,bool)",
      "arguments": [
        "0x7db6fD53472De90188b7F07084fd5d020a7056Cd",
        "true"
      ],
      "transaction": {
        "from": "0xa6b3d200cd34ca14d7579dac8b054bf50a62c37c",
        "to": "0x97428ec2e8a311f296f7a27477e37d678efab250",
        "gas": "0x10274",
        "value": "0x0",
        "input": "0xcf456ae70000000000000000000000007db6fd53472de90188b7f07084fd5d020a7056cd0000000000000000000000000000000000000000000000000000000000000001",
        "nonce": "0x8d7",
        "chainId": "0x14a34"
      },
      "additionalContracts": [],
      "isFixedGasLimit": false
    },
    {
      "hash": "0xb5d60159672e77404dcd9d1898e0c3d7d5bb8ff412344d7fc1058de2d01d7ff8",
      "transactionType": "CALL",
      "contractName": "RewardDistributor",
      "contractAddress": "0x7db6fd53472de90188b7f07084fd5d020a7056cd",
      "function": "setProtocolComponents(address,address,address,address)",
      "arguments": [
        "0x2B1BbE5b699c5f478FDA4AE85E735B897B6E9891",
        "0x5fCB379C5672670c71AC7C44795b2ed18b2D3b6C",
        "0x910C6eC03C80f573d319351c71a78882fE0de1d1",
        "0xeC6383e4f0beb66D1B10CE3F5E93b5Ed377D0d19"
      ],
      "transaction": {
        "from": "0xa6b3d200cd34ca14d7579dac8b054bf50a62c37c",
        "to": "0x7db6fd53472de90188b7f07084fd5d020a7056cd",
        "gas": "0x265f7",
        "value": "0x0",
        "input": "0x274ee4750000000000000000000000002b1bbe5b699c5f478fda4ae85e735b897b6e98910000000000000000000000005fcb379c5672670c71ac7c44795b2ed18b2d3b6c000000000000000000000000910c6ec03c80f573d319351c71a78882fe0de1d1000000000000000000000000ec6383e4f0beb66d1b10ce3f5e93b5ed377d0d19",
        "nonce": "0x8d8",
        "chainId": "0x14a34"
      },
      "additionalContracts": [],
      "isFixedGasLimit": false
    },
    {
      "hash": "0x84d8bf43ca1827fcb7285291c2fc4a019e5aa3a1c3d0642d7b982a0676d30363",
      "transactionType": "CALL",
      "contractName": "RewardDistributor",
      "contractAddress": "0x7db6fd53472de90188b7f07084fd5d020a7056cd",
      "function": "setAuthorizedUpdater(address,bool)",
      "arguments": [
        "0x5fCB379C5672670c71AC7C44795b2ed18b2D3b6C",
        "true"
      ],
      "transaction": {
        "from": "0xa6b3d200cd34ca14d7579dac8b054bf50a62c37c",
        "to": "0x7db6fd53472de90188b7f07084fd5d020a7056cd",
        "gas": "0xfbb6",
        "value": "0x0",
        "input": "0x99fc65d40000000000000000000000005fcb379c5672670c71ac7c44795b2ed18b2d3b6c0000000000000000000000000000000000000000000000000000000000000001",
        "nonce": "0x8d9",
        "chainId": "0x14a34"
      },
      "additionalContracts": [],
      "isFixedGasLimit": false
    },
    {
      "hash": "0xff3600c2f9752bac66ab895b824c5d45a83f8010ba0577007c9907bca0be014a",
      "transactionType": "CALL",
      "contractName": "RewardDistributor",
      "contractAddress": "0x7db6fd53472de90188b7f07084fd5d020a7056cd",
      "function": "setAuthorizedUpdater(address,bool)",
      "arguments": [
        "0x910C6eC03C80f573d319351c71a78882fE0de1d1",
        "true"
      ],
      "transaction": {
        "from": "0xa6b3d200cd34ca14d7579dac8b054bf50a62c37c",
        "to": "0x7db6fd53472de90188b7f07084fd5d020a7056cd",
        "gas": "0xfbb6",
        "value": "0x0",
        "input": "0x99fc65d4000000000000000000000000910c6ec03c80f573d319351c71a78882fe0de1d10000000000000000000000000000000000000000000000000000000000000001",
        "nonce": "0x8da",
        "chainId": "0x14a34"
      },
      "additionalContracts": [],
      "isFixedGasLimit": false
    },
    {
      "hash": "0x9de19e7abca4edd49652a1a5f52e1a7f23c4d4231571d226cefdf6c1e826562b",
      "transactionType": "CALL",
      "contractName": "RewardDistributor",
      "contractAddress": "0x7db6fd53472de90188b7f07084fd5d020a7056cd",
      "function": "setAuthorizedUpdater(address,bool)",
      "arguments": [
        "0x2B1BbE5b699c5f478FDA4AE85E735B897B6E9891",
        "true"
      ],
      "transaction": {
        "from": "0xa6b3d200cd34ca14d7579dac8b054bf50a62c37c",
        "to": "0x7db6fd53472de90188b7f07084fd5d020a7056cd",
        "gas": "0xfbb6",
        "value": "0x0",
        "input": "0x99fc65d40000000000000000000000002b1bbe5b699c5f478fda4ae85e735b897b6e98910000000000000000000000000000000000000000000000000000000000000001",
        "nonce": "0x8db",
        "chainId": "0x14a34"
      },
      "additionalContracts": [],
      "isFixedGasLimit": false
    },
    {
      "hash": "0xdff0872bb35274da95e708a16a9eccceb9f9bb33289d32102e53a6ea39686ade",
      "transactionType": "CALL",
      "contractName": "RewardDistributor",
      "contractAddress": "0x7db6fd53472de90188b7f07084fd5d020a7056cd",
      "function": "setAuthorizedUpdater(address,bool)",
      "arguments": [
        "0xeC6383e4f0beb66D1B10CE3F5E93b5Ed377D0d19",
        "true"
      ],
      "transaction": {
        "from": "0xa6b3d200cd34ca14d7579dac8b054bf50a62c37c",
        "to": "0x7db6fd53472de90188b7f07084fd5d020a7056cd",
        "gas": "0xfbb6",
        "value": "0x0",
        "input": "0x99fc65d4000000000000000000000000ec6383e4f0beb66d1b10ce3f5e93b5ed377d0d190000000000000000000000000000000000000000000000000000000000000001",
        "nonce": "0x8dc",
        "chainId": "0x14a34"
      },
      "additionalContracts": [],
      "isFixedGasLimit": false
    },
    {
      "hash": "0x26f54f8c83629de4c383c5e831d69727593ef0bcb4fd0f08e38978ac21fc610c",
      "transactionType": "CALL",
      "contractName": "RewardDistributor",
      "contractAddress": "0x7db6fd53472de90188b7f07084fd5d020a7056cd",
      "function": "createRewardPool(bytes32,address,uint256)",
      "arguments": [
        "0x88ef8906c27d3e6af98ad7a5cf53c31a771fadb410370749ce5bf0cdb279c3b6",
        "0x97428EC2e8A311f296f7A27477E37d678efab250",
        "1000000000000000"
      ],
      "transaction": {
        "from": "0xa6b3d200cd34ca14d7579dac8b054bf50a62c37c",
        "to": "0x7db6fd53472de90188b7f07084fd5d020a7056cd",
        "gas": "0x3c6ba",
        "value": "0x0",
        "input": "0x2636e8a088ef8906c27d3e6af98ad7a5cf53c31a771fadb410370749ce5bf0cdb279c3b600000000000000000000000097428ec2e8a311f296f7a27477e37d678efab25000000000000000000000000000000000000000000000000000038d7ea4c68000",
        "nonce": "0x8dd",
        "chainId": "0x14a34"
      },
      "additionalContracts": [],
      "isFixedGasLimit": false
    },
    {
      "hash": "0xa9bf5d050120729c489114b5d2654f8d966ad8292b8fbbe3ce5ef6cfb49aaba7",
      "transactionType": "CALL",
      "contractName": "RewardDistributor",
      "contractAddress": "0x7db6fd53472de90188b7f07084fd5d020a7056cd",
      "function": "createRewardPool(bytes32,address,uint256)",
      "arguments": [
        "0x924cafe3f4668225141f2f2252ca17f67b629c2ff1426ac8ff340549f1266789",
        "0x97428EC2e8A311f296f7A27477E37d678efab250",
        "1000000000000000"
      ],
      "transaction": {
        "from": "0xa6b3d200cd34ca14d7579dac8b054bf50a62c37c",
        "to": "0x7db6fd53472de90188b7f07084fd5d020a7056cd",
        "gas": "0x334c1",
        "value": "0x0",
        "input": "0x2636e8a0924cafe3f4668225141f2f2252ca17f67b629c2ff1426ac8ff340549f126678900000000000000000000000097428ec2e8a311f296f7a27477e37d678efab25000000000000000000000000000000000000000000000000000038d7ea4c68000",
        "nonce": "0x8de",
        "chainId": "0x14a34"
      },
      "additionalContracts": [],
      "isFixedGasLimit": false
    },
    {
      "hash": "0xabf890b576f3642c20749fa3848584b41f2985b7481beb538a9bf77eefacb494",
      "transactionType": "CALL",
      "contractName": "RewardDistributor",
      "contractAddress": "0x7db6fd53472de90188b7f07084fd5d020a7056cd",
      "function": "createRewardPool(bytes32,address,uint256)",
      "arguments": [
        "0x870729ce323527c7d70de6e3b4d0cf8167c8b204a3f39d2c51d3c92ccebc3edc",
        "0x97428EC2e8A311f296f7A27477E37d678efab250",
        "1000000000000000"
      ],
      "transaction": {
        "from": "0xa6b3d200cd34ca14d7579dac8b054bf50a62c37c",
        "to": "0x7db6fd53472de90188b7f07084fd5d020a7056cd",
        "gas": "0x334c1",
        "value": "0x0",
        "input": "0x2636e8a0870729ce323527c7d70de6e3b4d0cf8167c8b204a3f39d2c51d3c92ccebc3edc00000000000000000000000097428ec2e8a311f296f7a27477e37d678efab25000000000000000000000000000000000000000000000000000038d7ea4c68000",
        "nonce": "0x8df",
        "chainId": "0x14a34"
      },
      "additionalContracts": [],
      "isFixedGasLimit": false
    },
    {
      "hash": "0x79576e35660a3c028d6af1f4a5afdb493469aa8625be92853fdee509bde05d7a",
      "transactionType": "CALL",
      "contractName": "RewardDistributor",
      "contractAddress": "0x7db6fd53472de90188b7f07084fd5d020a7056cd",
      "function": "createRewardPool(bytes32,address,uint256)",
      "arguments": [
        "0x1887cd0d242fb25ce3889259bf747a4bc6ac3eb3fe083aa1d14c660f7a59c3e2",
        "0x97428EC2e8A311f296f7A27477E37d678efab250",
        "1000000000000000"
      ],
      "transaction": {
        "from": "0xa6b3d200cd34ca14d7579dac8b054bf50a62c37c",
        "to": "0x7db6fd53472de90188b7f07084fd5d020a7056cd",
        "gas": "0x334c1",
        "value": "0x0",
        "input": "0x2636e8a01887cd0d242fb25ce3889259bf747a4bc6ac3eb3fe083aa1d14c660f7a59c3e200000000000000000000000097428ec2e8a311f296f7a27477e37d678efab25000000000000000000000000000000000000000000000000000038d7ea4c68000",
        "nonce": "0x8e0",
        "chainId": "0x14a34"
      },
      "additionalContracts": [],
      "isFixedGasLimit": false
    },
    {
      "hash": "0x9e803e2d4978151760f28785f4a3c317763037db71608c60d398a7d82aecceac",
      "transactionType": "CALL",
      "contractName": "RewardDistributor",
      "contractAddress": "0x7db6fd53472de90188b7f07084fd5d020a7056cd",
      "function": "addRewards(bytes32,uint256)",
      "arguments": [
        "0x88ef8906c27d3e6af98ad7a5cf53c31a771fadb410370749ce5bf0cdb279c3b6",
        "10000000000000"
      ],
      "transaction": {
        "from": "0xa6b3d200cd34ca14d7579dac8b054bf50a62c37c",
        "to": "0x7db6fd53472de90188b7f07084fd5d020a7056cd",
        "gas": "0x111fe",
        "value": "0x0",
        "input": "0x48f60dfd88ef8906c27d3e6af98ad7a5cf53c31a771fadb410370749ce5bf0cdb279c3b6000000000000000000000000000000000000000000000000000009184e72a000",
        "nonce": "0x8e1",
        "chainId": "0x14a34"
      },
      "additionalContracts": [],
      "isFixedGasLimit": false
    },
    {
      "hash": "0x7ac91a3279b7bfb8f5fe607476878037c82b4d60596027ba6068acba6f34b737",
      "transactionType": "CALL",
      "contractName": "RewardDistributor",
      "contractAddress": "0x7db6fd53472de90188b7f07084fd5d020a7056cd",
      "function": "addRewards(bytes32,uint256)",
      "arguments": [
        "0x924cafe3f4668225141f2f2252ca17f67b629c2ff1426ac8ff340549f1266789",
        "10000000000000"
      ],
      "transaction": {
        "from": "0xa6b3d200cd34ca14d7579dac8b054bf50a62c37c",
        "to": "0x7db6fd53472de90188b7f07084fd5d020a7056cd",
        "gas": "0x111fe",
        "value": "0x0",
        "input": "0x48f60dfd924cafe3f4668225141f2f2252ca17f67b629c2ff1426ac8ff340549f1266789000000000000000000000000000000000000000000000000000009184e72a000",
        "nonce": "0x8e2",
        "chainId": "0x14a34"
      },
      "additionalContracts": [],
      "isFixedGasLimit": false
    },
    {
      "hash": "0xe7418257ecd8cb02f809d4c1b99b7799ff933f3548d0d70cf108036e797ef1e0",
      "transactionType": "CALL",
      "contractName": "RewardDistributor",
      "contractAddress": "0x7db6fd53472de90188b7f07084fd5d020a7056cd",
      "function": "addRewards(bytes32,uint256)",
      "arguments": [
        "0x870729ce323527c7d70de6e3b4d0cf8167c8b204a3f39d2c51d3c92ccebc3edc",
        "10000000000000"
      ],
      "transaction": {
        "from": "0xa6b3d200cd34ca14d7579dac8b054bf50a62c37c",
        "to": "0x7db6fd53472de90188b7f07084fd5d020a7056cd",
        "gas": "0x111fe",
        "value": "0x0",
        "input": "0x48f60dfd870729ce323527c7d70de6e3b4d0cf8167c8b204a3f39d2c51d3c92ccebc3edc000000000000000000000000000000000000000000000000000009184e72a000",
        "nonce": "0x8e3",
        "chainId": "0x14a34"
      },
      "additionalContracts": [],
      "isFixedGasLimit": false
    },
    {
      "hash": "0x010030d837db014b35471a02e2cf5186d68386758ab99de94604cad5606d1eb3",
      "transactionType": "CALL",
      "contractName": "RewardDistributor",
      "contractAddress": "0x7db6fd53472de90188b7f07084fd5d020a7056cd",
      "function": "addRewards(bytes32,uint256)",
      "arguments": [
        "0x1887cd0d242fb25ce3889259bf747a4bc6ac3eb3fe083aa1d14c660f7a59c3e2",
        "10000000000000"
      ],
      "transaction": {
        "from": "0xa6b3d200cd34ca14d7579dac8b054bf50a62c37c",
        "to": "0x7db6fd53472de90188b7f07084fd5d020a7056cd",
        "gas": "0x111fe",
        "value": "0x0",
        "input": "0x48f60dfd1887cd0d242fb25ce3889259bf747a4bc6ac3eb3fe083aa1d14c660f7a59c3e2000000000000000000000000000000000000000000000000000009184e72a000",
        "nonce": "0x8e4",
        "chainId": "0x14a34"
      },
      "additionalContracts": [],
      "isFixedGasLimit": false
    }
  ],
  "receipts": [
    {
      "status": "0x1",
      "cumulativeGasUsed": "0x4a4c04",
      "logs": [
        {
          "address": "0x7db6fd53472de90188b7f07084fd5d020a7056cd",
          "topics": [
            "0x8be0079c531659141344cd1fd0a4f28419497f9722a3daafe3b4186f6b6457e0",
            "0x0000000000000000000000000000000000000000000000000000000000000000",
            "0x000000000000000000000000a6b3d200cd34ca14d7579dac8b054bf50a62c37c"
          ],
          "data": "0x",
          "blockHash": "0x4c8f5b655e1cae7bd2c58c8f516063016e609edfb51e5d0e4f471ceead9c4a05",
          "blockNumber": "0x19d4b1b",
          "blockTimestamp": "0x684df516",
          "transactionHash": "0xb55132940e35f775c7555e94d82f5ce76cd7b5444a841050248dc0eacd6c1c2b",
          "transactionIndex": "0xe",
          "logIndex": "0x73",
          "removed": false
        }
      ],
      "logsBloom": "0x00000000000000000000000400000000000000000000000002800000000000000000000000000002000000000000000000000000000000000000000000000000000200000000000000000000000000000001000000000000000000000000000000000000020000000000000000000800000000000000000000000000000000400000000000000000000000000000000000000000000000000000000000000000000000000000000000000000000000000000000000000000000000000000000000000040000000000000000000000000000000000000000000000000000020000000020000000000000000000000000000000000000000000000000000000000",
      "type": "0x2",
      "transactionHash": "0xb55132940e35f775c7555e94d82f5ce76cd7b5444a841050248dc0eacd6c1c2b",
      "transactionIndex": "0xe",
      "blockHash": "0x4c8f5b655e1cae7bd2c58c8f516063016e609edfb51e5d0e4f471ceead9c4a05",
      "blockNumber": "0x19d4b1b",
      "gasUsed": "0x143860",
      "effectiveGasPrice": "0x1870c",
      "from": "0xa6b3d200cd34ca14d7579dac8b054bf50a62c37c",
      "to": null,
      "contractAddress": "0x7db6fd53472de90188b7f07084fd5d020a7056cd",
      "l1BaseFeeScalar": "0x44d",
      "l1BlobBaseFee": "0x1",
      "l1BlobBaseFeeScalar": "0xa118b",
      "l1Fee": "0x324072a",
      "l1GasPrice": "0xd97a0",
      "l1GasUsed": "0xd1dc"
    },
    {
      "status": "0x1",
      "cumulativeGasUsed": "0x4b04f3",
      "logs": [
        {
          "address": "0x7db6fd53472de90188b7f07084fd5d020a7056cd",
          "topics": [
            "0x1be038705a495dd627af47e6738a26c370e9ee5df6e53f67515bd987c64d0fdd"
          ],
          "data": "0x00000000000000000000000097428ec2e8a311f296f7a27477e37d678efab250",
          "blockHash": "0x4c8f5b655e1cae7bd2c58c8f516063016e609edfb51e5d0e4f471ceead9c4a05",
          "blockNumber": "0x19d4b1b",
          "blockTimestamp": "0x684df516",
          "transactionHash": "0x0d1cc92a1d33f2d2aa44e8190aa3cf1afdb4d2bce76c7a86a8c7ea12bcc32f8b",
          "transactionIndex": "0xf",
          "logIndex": "0x74",
          "removed": false
        }
      ],
      "logsBloom": "0x00000000000000000000000000000200000000000000000000000000000000000000000000000002000000000000000000000000000000000000000000000000000200000000000000000000000000000000000000000000000000000000000000000000000000000000000000000000000000000000000000000000000000000000000000000000000000000000000000000000000000000000000000040000000000000000000000000000000000000000000000000800000000000000000000000000000000000000000000000000000000000000000000000000000000000000020000000000000000000000000000000000000000000000000000000000",
      "type": "0x2",
      "transactionHash": "0x0d1cc92a1d33f2d2aa44e8190aa3cf1afdb4d2bce76c7a86a8c7ea12bcc32f8b",
      "transactionIndex": "0xf",
      "blockHash": "0x4c8f5b655e1cae7bd2c58c8f516063016e609edfb51e5d0e4f471ceead9c4a05",
      "blockNumber": "0x19d4b1b",
      "gasUsed": "0xb8ef",
      "effectiveGasPrice": "0x1870c",
      "from": "0xa6b3d200cd34ca14d7579dac8b054bf50a62c37c",
      "to": "0x7db6fd53472de90188b7f07084fd5d020a7056cd",
      "contractAddress": null,
      "l1BaseFeeScalar": "0x44d",
      "l1BlobBaseFee": "0x1",
      "l1BlobBaseFeeScalar": "0xa118b",
      "l1Fee": "0x17f1f7",
      "l1GasPrice": "0xd97a0",
      "l1GasUsed": "0x640"
    },
    {
      "status": "0x1",
      "cumulativeGasUsed": "0x4bc012",
      "logs": [
        {
          "address": "0x97428ec2e8a311f296f7a27477e37d678efab250",
          "topics": [
            "0xb21afb9ce9be0a676f8f317ff0ca072fb89a4f8ce2d1b6fe80f8755c14f1cb19"
          ],
          "data": "0x0000000000000000000000007db6fd53472de90188b7f07084fd5d020a7056cd0000000000000000000000000000000000000000000000000000000000000001",
          "blockHash": "0x4c8f5b655e1cae7bd2c58c8f516063016e609edfb51e5d0e4f471ceead9c4a05",
          "blockNumber": "0x19d4b1b",
          "blockTimestamp": "0x684df516",
          "transactionHash": "0x7bd33211cd95ef04ab95f6f46170c37cf570dcba361824a53025663cd5310d8d",
          "transactionIndex": "0x10",
          "logIndex": "0x75",
          "removed": false
        }
      ],
      "logsBloom": "0x00000000000000000000000000000000000000000000000000000000000000000000000000000000000000000000000000000000080000040000000000000080000000000000000000000000000000000000000000000000000000000000000000000000000000000000000000000000000000000000000000000000000000000000000000000000000000000002000000000000000000000000200000000000000000000000000000000000000000000000000000000000000000000000000000000000000000000000000000000000000000800000000000000000000000000000000000000000000000000000000000000000000000000000000000000000",
      "type": "0x2",
      "transactionHash": "0x7bd33211cd95ef04ab95f6f46170c37cf570dcba361824a53025663cd5310d8d",
      "transactionIndex": "0x10",
      "blockHash": "0x4c8f5b655e1cae7bd2c58c8f516063016e609edfb51e5d0e4f471ceead9c4a05",
      "blockNumber": "0x19d4b1b",
      "gasUsed": "0xbb1f",
      "effectiveGasPrice": "0x1870c",
      "from": "0xa6b3d200cd34ca14d7579dac8b054bf50a62c37c",
      "to": "0x97428ec2e8a311f296f7a27477e37d678efab250",
      "contractAddress": null,
      "l1BaseFeeScalar": "0x44d",
      "l1BlobBaseFee": "0x1",
      "l1BlobBaseFeeScalar": "0xa118b",
      "l1Fee": "0x17f1f7",
      "l1GasPrice": "0xd97a0",
      "l1GasUsed": "0x640"
    },
    {
      "status": "0x1",
      "cumulativeGasUsed": "0x4d7c92",
      "logs": [],
      "logsBloom": "0x00000000000000000000000000000000000000000000000000000000000000000000000000000000000000000000000000000000000000000000000000000000000000000000000000000000000000000000000000000000000000000000000000000000000000000000000000000000000000000000000000000000000000000000000000000000000000000000000000000000000000000000000000000000000000000000000000000000000000000000000000000000000000000000000000000000000000000000000000000000000000000000000000000000000000000000000000000000000000000000000000000000000000000000000000000000",
      "type": "0x2",
      "transactionHash": "0xb5d60159672e77404dcd9d1898e0c3d7d5bb8ff412344d7fc1058de2d01d7ff8",
      "transactionIndex": "0x11",
      "blockHash": "0x4c8f5b655e1cae7bd2c58c8f516063016e609edfb51e5d0e4f471ceead9c4a05",
      "blockNumber": "0x19d4b1b",
      "gasUsed": "0x1bc80",
      "effectiveGasPrice": "0x1870c",
      "from": "0xa6b3d200cd34ca14d7579dac8b054bf50a62c37c",
      "to": "0x7db6fd53472de90188b7f07084fd5d020a7056cd",
      "contractAddress": null,
      "l1BaseFeeScalar": "0x44d",
      "l1BlobBaseFee": "0x1",
      "l1BlobBaseFeeScalar": "0xa118b",
      "l1Fee": "0x22ab99",
      "l1GasPrice": "0xd97a0",
      "l1GasUsed": "0x90c"
    },
    {
      "status": "0x1",
      "cumulativeGasUsed": "0x4e32cf",
      "logs": [],
      "logsBloom": "0x00000000000000000000000000000000000000000000000000000000000000000000000000000000000000000000000000000000000000000000000000000000000000000000000000000000000000000000000000000000000000000000000000000000000000000000000000000000000000000000000000000000000000000000000000000000000000000000000000000000000000000000000000000000000000000000000000000000000000000000000000000000000000000000000000000000000000000000000000000000000000000000000000000000000000000000000000000000000000000000000000000000000000000000000000000000",
      "type": "0x2",
      "transactionHash": "0x84d8bf43ca1827fcb7285291c2fc4a019e5aa3a1c3d0642d7b982a0676d30363",
      "transactionIndex": "0x12",
      "blockHash": "0x4c8f5b655e1cae7bd2c58c8f516063016e609edfb51e5d0e4f471ceead9c4a05",
      "blockNumber": "0x19d4b1b",
      "gasUsed": "0xb63d",
      "effectiveGasPrice": "0x1870c",
      "from": "0xa6b3d200cd34ca14d7579dac8b054bf50a62c37c",
      "to": "0x7db6fd53472de90188b7f07084fd5d020a7056cd",
      "contractAddress": null,
      "l1BaseFeeScalar": "0x44d",
      "l1BlobBaseFee": "0x1",
      "l1BlobBaseFeeScalar": "0xa118b",
      "l1Fee": "0x17f1f7",
      "l1GasPrice": "0xd97a0",
      "l1GasUsed": "0x640"
    },
    {
      "status": "0x1",
      "cumulativeGasUsed": "0x4ee90c",
      "logs": [],
      "logsBloom": "0x00000000000000000000000000000000000000000000000000000000000000000000000000000000000000000000000000000000000000000000000000000000000000000000000000000000000000000000000000000000000000000000000000000000000000000000000000000000000000000000000000000000000000000000000000000000000000000000000000000000000000000000000000000000000000000000000000000000000000000000000000000000000000000000000000000000000000000000000000000000000000000000000000000000000000000000000000000000000000000000000000000000000000000000000000000000",
      "type": "0x2",
      "transactionHash": "0xff3600c2f9752bac66ab895b824c5d45a83f8010ba0577007c9907bca0be014a",
      "transactionIndex": "0x13",
      "blockHash": "0x4c8f5b655e1cae7bd2c58c8f516063016e609edfb51e5d0e4f471ceead9c4a05",
      "blockNumber": "0x19d4b1b",
      "gasUsed": "0xb63d",
      "effectiveGasPrice": "0x1870c",
      "from": "0xa6b3d200cd34ca14d7579dac8b054bf50a62c37c",
      "to": "0x7db6fd53472de90188b7f07084fd5d020a7056cd",
      "contractAddress": null,
      "l1BaseFeeScalar": "0x44d",
      "l1BlobBaseFee": "0x1",
      "l1BlobBaseFeeScalar": "0xa118b",
      "l1Fee": "0x17f1f7",
      "l1GasPrice": "0xd97a0",
      "l1GasUsed": "0x640"
    },
    {
      "status": "0x1",
      "cumulativeGasUsed": "0x4f9f49",
      "logs": [],
      "logsBloom": "0x00000000000000000000000000000000000000000000000000000000000000000000000000000000000000000000000000000000000000000000000000000000000000000000000000000000000000000000000000000000000000000000000000000000000000000000000000000000000000000000000000000000000000000000000000000000000000000000000000000000000000000000000000000000000000000000000000000000000000000000000000000000000000000000000000000000000000000000000000000000000000000000000000000000000000000000000000000000000000000000000000000000000000000000000000000000",
      "type": "0x2",
      "transactionHash": "0x9de19e7abca4edd49652a1a5f52e1a7f23c4d4231571d226cefdf6c1e826562b",
      "transactionIndex": "0x14",
      "blockHash": "0x4c8f5b655e1cae7bd2c58c8f516063016e609edfb51e5d0e4f471ceead9c4a05",
      "blockNumber": "0x19d4b1b",
      "gasUsed": "0xb63d",
      "effectiveGasPrice": "0x1870c",
      "from": "0xa6b3d200cd34ca14d7579dac8b054bf50a62c37c",
      "to": "0x7db6fd53472de90188b7f07084fd5d020a7056cd",
      "contractAddress": null,
      "l1BaseFeeScalar": "0x44d",
      "l1BlobBaseFee": "0x1",
      "l1BlobBaseFeeScalar": "0xa118b",
      "l1Fee": "0x17f1f7",
      "l1GasPrice": "0xd97a0",
      "l1GasUsed": "0x640"
    },
    {
      "status": "0x1",
      "cumulativeGasUsed": "0x505586",
      "logs": [],
      "logsBloom": "0x00000000000000000000000000000000000000000000000000000000000000000000000000000000000000000000000000000000000000000000000000000000000000000000000000000000000000000000000000000000000000000000000000000000000000000000000000000000000000000000000000000000000000000000000000000000000000000000000000000000000000000000000000000000000000000000000000000000000000000000000000000000000000000000000000000000000000000000000000000000000000000000000000000000000000000000000000000000000000000000000000000000000000000000000000000000",
      "type": "0x2",
      "transactionHash": "0xdff0872bb35274da95e708a16a9eccceb9f9bb33289d32102e53a6ea39686ade",
      "transactionIndex": "0x15",
      "blockHash": "0x7b3a074354bdede21645cd4c07b40542a31093a55d8b0652d01563dfe6a1a307",
      "blockNumber": "0x19d4b1b",
      "gasUsed": "0xb63d",
      "effectiveGasPrice": "0x186d6",
      "from": "0xa6b3d200cd34ca14d7579dac8b054bf50a62c37c",
      "to": "0x7db6fd53472de90188b7f07084fd5d020a7056cd",
      "contractAddress": null,
      "l1BaseFeeScalar": "0x44d",
      "l1BlobBaseFee": "0x1",
      "l1BlobBaseFeeScalar": "0xa118b",
      "l1Fee": "0x17f1f7",
      "l1GasPrice": "0xd97a0",
      "l1GasUsed": "0x640"
    },
    {
      "status": "0x1",
      "cumulativeGasUsed": "0x52ea89",
      "logs": [
        {
          "address": "0x7db6fd53472de90188b7f07084fd5d020a7056cd",
          "topics": [
            "0x908210fc0149379fe25f26a14ba6965e58ae6f8b5e8bb5e1f4586b323fd79b67",
            "0x88ef8906c27d3e6af98ad7a5cf53c31a771fadb410370749ce5bf0cdb279c3b6"
          ],
          "data": "0x00000000000000000000000097428ec2e8a311f296f7a27477e37d678efab25000000000000000000000000000000000000000000000000000038d7ea4c680000000000000000000000000000000000000000000000000000000000000000001",
          "blockHash": "0xcc0dea8880b112aa6ce34ad3a1662394659028c5a799ffede55873c0e5d9927b",
          "blockNumber": "0x19d4b1b",
          "blockTimestamp": "0x684df516",
          "transactionHash": "0x26f54f8c83629de4c383c5e831d69727593ef0bcb4fd0f08e38978ac21fc610c",
          "transactionIndex": "0x16",
          "logIndex": "0x76",
          "removed": false
        }
      ],
      "logsBloom": "0x20000000000000000000000000000000000000000000000000000000000010000000000000000002000000000000000000000000000000000000000000000000000200000000000000000000000000000000000000000000200000000000000000000000000000000000000000000000000000000000000000000000000000000000000800000000000000000000000000000000000000000000000000000000000000000000000000000000000000000000000000000000000000000000000200000000000000000000000000000000000000000000000000000000000000000000020000000000400000000000000000000000000000000000000000000000",
      "type": "0x2",
      "transactionHash": "0x26f54f8c83629de4c383c5e831d69727593ef0bcb4fd0f08e38978ac21fc610c",
      "transactionIndex": "0x16",
      "blockHash": "0xcc0dea8880b112aa6ce34ad3a1662394659028c5a799ffede55873c0e5d9927b",
      "blockNumber": "0x19d4b1b",
      "gasUsed": "0x29503",
      "effectiveGasPrice": "0x1870c",
      "from": "0xa6b3d200cd34ca14d7579dac8b054bf50a62c37c",
      "to": "0x7db6fd53472de90188b7f07084fd5d020a7056cd",
      "contractAddress": null,
      "l1BaseFeeScalar": "0x44d",
      "l1BlobBaseFee": "0x1",
      "l1BlobBaseFeeScalar": "0xa118b",
      "l1Fee": "0x1ca949",
      "l1GasPrice": "0xd97a0",
      "l1GasUsed": "0x77b"
    },
    {
      "status": "0x1",
      "cumulativeGasUsed": "0x553cc0",
      "logs": [
        {
          "address": "0x7db6fd53472de90188b7f07084fd5d020a7056cd",
          "topics": [
            "0x908210fc0149379fe25f26a14ba6965e58ae6f8b5e8bb5e1f4586b323fd79b67",
            "0x924cafe3f4668225141f2f2252ca17f67b629c2ff1426ac8ff340549f1266789"
          ],
          "data": "0x00000000000000000000000097428ec2e8a311f296f7a27477e37d678efab25000000000000000000000000000000000000000000000000000038d7ea4c680000000000000000000000000000000000000000000000000000000000000000001",
          "blockHash": "0xcc0dea8880b112aa6ce34ad3a1662394659028c5a799ffede55873c0e5d9927b",
          "blockNumber": "0x19d4b1b",
          "blockTimestamp": "0x684df516",
          "transactionHash": "0xa9bf5d050120729c489114b5d2654f8d966ad8292b8fbbe3ce5ef6cfb49aaba7",
          "transactionIndex": "0x17",
          "logIndex": "0x77",
          "removed": false
        }
      ],
      "logsBloom": "0x000000000000000000000000000000000000000000000000000000000000100000000000000000020000000000000000000000000000000000000000000000000002000000000000000000000000000000000000000000000000000000000000000000000000000000000000000000000000000000000000000000000000000000000000000000000000000000000000000000000000000000000000000000000000000000000080000000000000000000000000000000000000000000000002000000000000000000000000000000000000000000000000000000200000000000000a0000000000400000000000000000000000000000000000000000000000",
      "type": "0x2",
      "transactionHash": "0xa9bf5d050120729c489114b5d2654f8d966ad8292b8fbbe3ce5ef6cfb49aaba7",
      "transactionIndex": "0x17",
      "blockHash": "0xcc0dea8880b112aa6ce34ad3a1662394659028c5a799ffede55873c0e5d9927b",
      "blockNumber": "0x19d4b1b",
      "gasUsed": "0x25237",
      "effectiveGasPrice": "0x1870c",
      "from": "0xa6b3d200cd34ca14d7579dac8b054bf50a62c37c",
      "to": "0x7db6fd53472de90188b7f07084fd5d020a7056cd",
      "contractAddress": null,
      "l1BaseFeeScalar": "0x44d",
      "l1BlobBaseFee": "0x1",
      "l1BlobBaseFeeScalar": "0xa118b",
      "l1Fee": "0x1ca949",
      "l1GasPrice": "0xd97a0",
      "l1GasUsed": "0x77b"
    },
    {
      "status": "0x1",
      "cumulativeGasUsed": "0x274df2",
      "logs": [
        {
          "address": "0x7db6fd53472de90188b7f07084fd5d020a7056cd",
          "topics": [
            "0x908210fc0149379fe25f26a14ba6965e58ae6f8b5e8bb5e1f4586b323fd79b67",
            "0x870729ce323527c7d70de6e3b4d0cf8167c8b204a3f39d2c51d3c92ccebc3edc"
          ],
          "data": "0x00000000000000000000000097428ec2e8a311f296f7a27477e37d678efab25000000000000000000000000000000000000000000000000000038d7ea4c680000000000000000000000000000000000000000000000000000000000000000001",
          "blockHash": "0x9cdf8d9ea58a8716b081142b7b5f40cb577728eabfd3ea508603fb00e826975b",
          "blockNumber": "0x19d4b1c",
          "transactionHash": "0xabf890b576f3642c20749fa3848584b41f2985b7481beb538a9bf77eefacb494",
          "transactionIndex": "0xd",
          "logIndex": "0x35",
          "removed": false
        }
      ],
      "logsBloom": "0x00000000000000000000000000000000000000000000000000000000000010000000000000000002000000000000000000000000000000000000000000000000000200000000000000000000000000000000000000000000000000000000000000000000000000000000000000000000000000000000000000000000000000000000000000000000000000000000000000000000000000000000000000000000000000000000000000000000000000000000000000000000000010400000000200000000000000000000000000000000000000000000002000000000000000000000020000000000400000000000000000000000000000000000000000000000",
      "type": "0x2",
      "transactionHash": "0xabf890b576f3642c20749fa3848584b41f2985b7481beb538a9bf77eefacb494",
      "transactionIndex": "0xd",
      "blockHash": "0x9cdf8d9ea58a8716b081142b7b5f40cb577728eabfd3ea508603fb00e826975b",
      "blockNumber": "0x19d4b1c",
      "gasUsed": "0x25237",
      "effectiveGasPrice": "0x186d6",
      "from": "0xa6b3d200cd34ca14d7579dac8b054bf50a62c37c",
      "to": "0x7db6fd53472de90188b7f07084fd5d020a7056cd",
      "contractAddress": null,
      "l1BaseFeeScalar": "0x44d",
      "l1BlobBaseFee": "0x1",
      "l1BlobBaseFeeScalar": "0xa118b",
      "l1Fee": "0x1ca949",
      "l1GasPrice": "0xd97a0",
      "l1GasUsed": "0x77b"
    },
    {
      "status": "0x1",
      "cumulativeGasUsed": "0x29a029",
      "logs": [
        {
          "address": "0x7db6fd53472de90188b7f07084fd5d020a7056cd",
          "topics": [
            "0x908210fc0149379fe25f26a14ba6965e58ae6f8b5e8bb5e1f4586b323fd79b67",
            "0x1887cd0d242fb25ce3889259bf747a4bc6ac3eb3fe083aa1d14c660f7a59c3e2"
          ],
          "data": "0x00000000000000000000000097428ec2e8a311f296f7a27477e37d678efab25000000000000000000000000000000000000000000000000000038d7ea4c680000000000000000000000000000000000000000000000000000000000000000001",
          "blockHash": "0xcb0b470f25d5a2ab8291e8a6c432cbb3ef6803e0b04897bcbfe8fec77cfe4497",
          "blockNumber": "0x19d4b1c",
          "blockTimestamp": "0x684df518",
          "transactionHash": "0x79576e35660a3c028d6af1f4a5afdb493469aa8625be92853fdee509bde05d7a",
          "transactionIndex": "0xe",
          "logIndex": "0x36",
          "removed": false
        }
      ],
      "logsBloom": "0x00000000000000000000000000000000000000000000000000000000000010000000000000000002000000000000000004000000000000000000000000000000000200000000000000000000000000000000000000000000000000000000000000000000000000000000000000000000000000000000000000000000000000000000000000000000000000000000000000000000000000002000000000000000000000000000000000000000000000000000000000000000000000000000000200000000000000000000000000000000000000000000000000000000000000000000020000000000400000000000080000000000000000000000000000000000",
      "type": "0x2",
      "transactionHash": "0x79576e35660a3c028d6af1f4a5afdb493469aa8625be92853fdee509bde05d7a",
      "transactionIndex": "0xe",
      "blockHash": "0xcb0b470f25d5a2ab8291e8a6c432cbb3ef6803e0b04897bcbfe8fec77cfe4497",
      "blockNumber": "0x19d4b1c",
      "gasUsed": "0x25237",
      "effectiveGasPrice": "0x1870c",
      "from": "0xa6b3d200cd34ca14d7579dac8b054bf50a62c37c",
      "to": "0x7db6fd53472de90188b7f07084fd5d020a7056cd",
      "contractAddress": null,
      "l1BaseFeeScalar": "0x44d",
      "l1BlobBaseFee": "0x1",
      "l1BlobBaseFeeScalar": "0xa118b",
      "l1Fee": "0x1ca949",
      "l1GasPrice": "0xd97a0",
      "l1GasUsed": "0x77b"
    },
    {
      "status": "0x1",
      "cumulativeGasUsed": "0x2a5b82",
      "logs": [
        {
          "address": "0x7db6fd53472de90188b7f07084fd5d020a7056cd",
          "topics": [
            "0x603c893fe5a7abb065fd37be5d74b7570a708f31c5b02b409779f57f8ab59788",
            "0x88ef8906c27d3e6af98ad7a5cf53c31a771fadb410370749ce5bf0cdb279c3b6"
          ],
          "data": "0x000000000000000000000000000000000000000000000000000009184e72a000",
          "blockHash": "0x9cdf8d9ea58a8716b081142b7b5f40cb577728eabfd3ea508603fb00e826975b",
          "blockNumber": "0x19d4b1c",
          "transactionHash": "0x9e803e2d4978151760f28785f4a3c317763037db71608c60d398a7d82aecceac",
          "transactionIndex": "0xf",
          "logIndex": "0x37",
          "removed": false
        }
      ],
      "logsBloom": "0x20000000000000000000000000000000000000000000000000000000200000000000000000000002000000000000000000000000000000000000000000000000000200000000000000000000000000000000000000000000200000000000000000000080000000000000000000010000000000000000000000000000000000000000000800000000000000000000000000000000000000000000000000000000000000000000000000000000000000000000000000000000000000000000000000000000000000000000000000000000000000000000000000000000000000000000020000000000000000000000000000000000000000000000000000000000",
      "type": "0x2",
      "transactionHash": "0x9e803e2d4978151760f28785f4a3c317763037db71608c60d398a7d82aecceac",
      "transactionIndex": "0xf",
      "blockHash": "0x9cdf8d9ea58a8716b081142b7b5f40cb577728eabfd3ea508603fb00e826975b",
      "blockNumber": "0x19d4b1c",
      "gasUsed": "0xbb59",
      "effectiveGasPrice": "0x186d6",
      "from": "0xa6b3d200cd34ca14d7579dac8b054bf50a62c37c",
      "to": "0x7db6fd53472de90188b7f07084fd5d020a7056cd",
      "contractAddress": null,
      "l1BaseFeeScalar": "0x44d",
      "l1BlobBaseFee": "0x1",
      "l1BlobBaseFeeScalar": "0xa118b",
      "l1Fee": "0x17f1f7",
      "l1GasPrice": "0xd97a0",
      "l1GasUsed": "0x640"
    },
    {
      "status": "0x1",
      "cumulativeGasUsed": "0x2b16db",
      "logs": [
        {
          "address": "0x7db6fd53472de90188b7f07084fd5d020a7056cd",
          "topics": [
            "0x603c893fe5a7abb065fd37be5d74b7570a708f31c5b02b409779f57f8ab59788",
            "0x924cafe3f4668225141f2f2252ca17f67b629c2ff1426ac8ff340549f1266789"
          ],
          "data": "0x000000000000000000000000000000000000000000000000000009184e72a000",
          "blockHash": "0x9cdf8d9ea58a8716b081142b7b5f40cb577728eabfd3ea508603fb00e826975b",
          "blockNumber": "0x19d4b1c",
          "transactionHash": "0x7ac91a3279b7bfb8f5fe607476878037c82b4d60596027ba6068acba6f34b737",
          "transactionIndex": "0x10",
          "logIndex": "0x38",
          "removed": false
        }
      ],
      "logsBloom": "0x000000000000000000000000000000000000000000000000000000002000000000000000000000020000000000000000000000000000000000000000000000000002000000000000000000000000000000000000000000000000000000000000000000800000000000000000000100000000000000000000000000000000000000000000000000000000000000000000000000000000000000000000000000000000000000000080000000000000000000000000000000000000000000000000000000000000000000000000000000000000000000000000000000200000000000000a0000000000000000000000000000000000000000000000000000000000",
      "type": "0x2",
      "transactionHash": "0x7ac91a3279b7bfb8f5fe607476878037c82b4d60596027ba6068acba6f34b737",
      "transactionIndex": "0x10",
      "blockHash": "0x9cdf8d9ea58a8716b081142b7b5f40cb577728eabfd3ea508603fb00e826975b",
      "blockNumber": "0x19d4b1c",
      "gasUsed": "0xbb59",
      "effectiveGasPrice": "0x186d6",
      "from": "0xa6b3d200cd34ca14d7579dac8b054bf50a62c37c",
      "to": "0x7db6fd53472de90188b7f07084fd5d020a7056cd",
      "contractAddress": null,
      "l1BaseFeeScalar": "0x44d",
      "l1BlobBaseFee": "0x1",
      "l1BlobBaseFeeScalar": "0xa118b",
      "l1Fee": "0x17f1f7",
      "l1GasPrice": "0xd97a0",
      "l1GasUsed": "0x640"
    },
    {
      "status": "0x1",
      "cumulativeGasUsed": "0x2bd234",
      "logs": [
        {
          "address": "0x7db6fd53472de90188b7f07084fd5d020a7056cd",
          "topics": [
            "0x603c893fe5a7abb065fd37be5d74b7570a708f31c5b02b409779f57f8ab59788",
            "0x870729ce323527c7d70de6e3b4d0cf8167c8b204a3f39d2c51d3c92ccebc3edc"
          ],
          "data": "0x000000000000000000000000000000000000000000000000000009184e72a000",
          "blockHash": "0xcb0b470f25d5a2ab8291e8a6c432cbb3ef6803e0b04897bcbfe8fec77cfe4497",
          "blockNumber": "0x19d4b1c",
          "blockTimestamp": "0x684df518",
          "transactionHash": "0xe7418257ecd8cb02f809d4c1b99b7799ff933f3548d0d70cf108036e797ef1e0",
          "transactionIndex": "0x11",
          "logIndex": "0x39",
          "removed": false
        }
      ],
      "logsBloom": "0x00000000000000000000000000000000000000000000000000000000200000000000000000000002000000000000000000000000000000000000000000000000000200000000000000000000000000000000000000000000000000000000000000000080000000000000000000010000000000000000000000000000000000000000000000000000000000000000000000000000000000000000000000000000000000000000000000000000000000000000000000000000000010400000000000000000000000000000000000000000000000000000002000000000000000000000020000000000000000000000000000000000000000000000000000000000",
      "type": "0x2",
      "transactionHash": "0xe7418257ecd8cb02f809d4c1b99b7799ff933f3548d0d70cf108036e797ef1e0",
      "transactionIndex": "0x11",
      "blockHash": "0xcb0b470f25d5a2ab8291e8a6c432cbb3ef6803e0b04897bcbfe8fec77cfe4497",
      "blockNumber": "0x19d4b1c",
      "gasUsed": "0xbb59",
      "effectiveGasPrice": "0x1870c",
      "from": "0xa6b3d200cd34ca14d7579dac8b054bf50a62c37c",
      "to": "0x7db6fd53472de90188b7f07084fd5d020a7056cd",
      "contractAddress": null,
      "l1BaseFeeScalar": "0x44d",
      "l1BlobBaseFee": "0x1",
      "l1BlobBaseFeeScalar": "0xa118b",
      "l1Fee": "0x17f1f7",
      "l1GasPrice": "0xd97a0",
      "l1GasUsed": "0x640"
    },
    {
      "status": "0x1",
      "cumulativeGasUsed": "0x2c8d8d",
      "logs": [
        {
          "address": "0x7db6fd53472de90188b7f07084fd5d020a7056cd",
          "topics": [
            "0x603c893fe5a7abb065fd37be5d74b7570a708f31c5b02b409779f57f8ab59788",
            "0x1887cd0d242fb25ce3889259bf747a4bc6ac3eb3fe083aa1d14c660f7a59c3e2"
          ],
          "data": "0x000000000000000000000000000000000000000000000000000009184e72a000",
          "blockHash": "0xcb0b470f25d5a2ab8291e8a6c432cbb3ef6803e0b04897bcbfe8fec77cfe4497",
          "blockNumber": "0x19d4b1c",
          "blockTimestamp": "0x684df518",
          "transactionHash": "0x010030d837db014b35471a02e2cf5186d68386758ab99de94604cad5606d1eb3",
          "transactionIndex": "0x12",
          "logIndex": "0x3a",
          "removed": false
        }
      ],
      "logsBloom": "0x00000000000000000000000000000000000000000000000000000000200000000000000000000002000000000000000004000000000000000000000000000000000200000000000000000000000000000000000000000000000000000000000000000080000000000000000000010000000000000000000000000000000000000000000000000000000000000000000000000000000000002000000000000000000000000000000000000000000000000000000000000000000000000000000000000000000000000000000000000000000000000000000000000000000000000000020000000000000000000000080000000000000000000000000000000000",
      "type": "0x2",
      "transactionHash": "0x010030d837db014b35471a02e2cf5186d68386758ab99de94604cad5606d1eb3",
      "transactionIndex": "0x12",
      "blockHash": "0xcb0b470f25d5a2ab8291e8a6c432cbb3ef6803e0b04897bcbfe8fec77cfe4497",
      "blockNumber": "0x19d4b1c",
      "gasUsed": "0xbb59",
      "effectiveGasPrice": "0x1870c",
      "from": "0xa6b3d200cd34ca14d7579dac8b054bf50a62c37c",
      "to": "0x7db6fd53472de90188b7f07084fd5d020a7056cd",
      "contractAddress": null,
      "l1BaseFeeScalar": "0x44d",
      "l1BlobBaseFee": "0x1",
      "l1BlobBaseFeeScalar": "0xa118b",
      "l1Fee": "0x17f1f7",
      "l1GasPrice": "0xd97a0",
      "l1GasUsed": "0x640"
    }
  ],
  "libraries": [],
  "pending": [],
  "returns": {},
  "timestamp": 1749939481,
  "chain": 84532,
  "commit": "bbff0ba"
}