{
  "transactions": [
    {
      "hash": "0x76f3d164440ce88d044d65244c3d28eaf0614affa04679c2a171c65ae8471bff",
      "transactionType": "CREATE",
      "contractName": "RewardDistributor",
      "contractAddress": "0x9e1eca4c808a6f2872fe0882058adfb94b9997d6",
      "function": null,
      "arguments": null,
      "transaction": {
        "from": "0xa6b3d200cd34ca14d7579dac8b054bf50a62c37c",
        "gas": "0x178d55",
        "value": "0x0",
        "input": "0x608080604052346071573315605e575f8054336001600160a01b0319821681178355916001600160a01b03909116907f8be0079c531659141344cd1fd0a4f28419497f9722a3daafe3b4186f6b6457e09080a361141790816100768239f35b631e4fbdf760e01b5f525f60045260245ffd5b5f80fdfe6080806040526004361015610012575f80fd5b5f3560e01c908162f9643414610e0c5750806309f2c01914610d555780630b36db1514610b87578063179aae8814610b615780632073de5c14610ae857806323be345c14610ac25780632636e8a0146108b5578063274ee4751461080d578063312e109c146106ff57806348f60dfd146105f95780634e210544146105d357806368b2c40c1461055f57806369883b4e14610527578063715018a6146104d05780637790ddc6146104225780638da5cb5b146103fd5780638ff29cfe146103c05780639002392e1461035957806395ccea671461032157806399fc65d4146102c9578063b79f12b2146102a3578063d88ff1f4146101ed578063ec01da10146101c35763f2fde38b14610123575f80fd5b346101bf5760203660031901126101bf576001600160a01b03610144610f2e565b61014c6111f5565b168015610193576001600160a01b035f54826001600160a01b03198216175f55167f8be0079c531659141344cd1fd0a4f28419497f9722a3daafe3b4186f6b6457e05f80a3005b7f1e4fbdf7000000000000000000000000000000000000000000000000000000005f525f60045260245ffd5b5f80fd5b346101bf5760203660031901126101bf576004355f526004602052602060405f2054604051908152f35b346101bf575f3660031901126101bf576040518060206002549283815201809260025f527f405787fa12a823e0f2b7631cc41b3ba8828b3321ca811111fa75cd3aa3bb5ace905f5b81811061028d575050508161024b910382610fbe565b604051918291602083019060208452518091526040830191905f5b818110610274575050500390f35b8251845285945060209384019390920191600101610266565b8254845260209093019260019283019201610235565b346101bf575f3660031901126101bf5760206001600160a01b0360065416604051908152f35b346101bf5760403660031901126101bf576102e2610f2e565b60243580151581036101bf576001600160a01b0361031f926103026111f5565b165f52600560205260405f209060ff801983541691151516179055565b005b346101bf5760403660031901126101bf5761031f61033d610f2e565b6103456111f5565b602435906001600160a01b03339116611234565b346101bf5760403660031901126101bf57610372610f18565b6004355f5260036020526001600160a01b0360405f2091165f52602052608060405f208054906001810154906003600282015491015491604051938452602084015260408301526060820152f35b346101bf5760203660031901126101bf576001600160a01b036103e1610f2e565b165f526005602052602060ff60405f2054166040519015158152f35b346101bf575f3660031901126101bf5760206001600160a01b035f5416604051908152f35b346101bf5760203660031901126101bf576004356104403382611119565b805f52600360205260405f206001600160a01b0333165f52602052600160405f2001908154918261046d57005b5f9055805f5260016020526104a28260405f206002810161048f838254611014565b90556001600160a01b0333915416611234565b6040519182527ffec539b3c42d74cd492c3ecf7966bf014b327beef98e935cdc3ec5e54a6901c760203393a3005b346101bf575f3660031901126101bf576104e86111f5565b5f6001600160a01b0381546001600160a01b031981168355167f8be0079c531659141344cd1fd0a4f28419497f9722a3daafe3b4186f6b6457e08280a3005b346101bf5760203660031901126101bf576004356002548110156101bf57610550602091610f5a565b90549060031b1c604051908152f35b346101bf5760207facefc4a7d159e33f5c2d6facc53467d06090e50ccfa880ef241dc1d1a9200f6c61059036610f44565b61059b9391936111f5565b835f526001825260405f206105af85611021565b6005820155600442910155835f526001825280600360405f200155604051908152a2005b346101bf575f3660031901126101bf5760206001600160a01b0360085416604051908152f35b346101bf5761060736610f44565b815f52600160205260405f2060ff600682015416156106bb577f603c893fe5a7abb065fd37be5d74b7570a708f31c5b02b409779f57f8ab59788916001826106a46001600160a01b036020955416604051907f23b872dd00000000000000000000000000000000000000000000000000000000878301523360248301523060448301528560648301526064825261069f608483610fbe565b61128b565b016106b0828254611014565b9055604051908152a2005b606460405162461bcd60e51b815260206004820152600f60248201527f506f6f6c206e6f742061637469766500000000000000000000000000000000006044820152fd5b346101bf5760403660031901126101bf576107a260043561071e610f18565b90805f52600360205260405f206001600160a01b0383165f52602052602060405f20926040519261074e84610fa2565b8454845260018501548385015260606003600287015496876040880152015494019384526040519586928392623e590d60e21b8452600484019092916001600160a01b036020916040840195845216910152565b0381305afa908115610802575f916107cd575b60609350519060405192835260208301526040820152f35b90506020833d6020116107fa575b816107e860209383610fbe565b810103126101bf5760609251906107b5565b3d91506107db565b6040513d5f823e3d90fd5b346101bf5760803660031901126101bf57610826610f2e565b61082e610f18565b90604435906001600160a01b0382168092036101bf57606435926001600160a01b0384168094036101bf576001600160a01b03809261086b6111f5565b166001600160a01b03196006541617600655166001600160a01b031960075416176007556001600160a01b031960085416176008556001600160a01b031960095416176009555f80f35b346101bf5760603660031901126101bf576004356108d1610f18565b6044356108dc6111f5565b825f5260016020526001600160a01b0360405f205416610a7e576001600160a01b0382168015610a3a576040516109a29161091682610f86565b81526006602082015f8152604083015f815260608401868152608085019042825260a08601925f845260c0870194600186528b5f5260016020526001600160a01b0360405f209851166001600160a01b031989541617885551600188015551600287015551600386015551600485015551600584015551151591019060ff801983541691151516179055565b6002549168010000000000000000831015610a26576109e88360017f1b8c3bf52594d3e5de8d89e5e71716abb92ae11fc8c2ba8097ac21c223524bcb9501600255610f5a565b81549060031b9086821b915f19901b1916179055610a2160405192839283602090939291936001600160a01b0360408201951681520152565b0390a2005b634e487b7160e01b5f52604160045260245ffd5b606460405162461bcd60e51b815260206004820152601460248201527f496e76616c69642072657761726420746f6b656e0000000000000000000000006044820152fd5b606460405162461bcd60e51b815260206004820152601360248201527f506f6f6c20616c726561647920657869737473000000000000000000000000006044820152fd5b346101bf575f3660031901126101bf5760206001600160a01b0360095416604051908152f35b346101bf5760203660031901126101bf576004355f52600160205260e060405f206001600160a01b03815416906001810154906002810154600382015460048301549160ff600660058601549501541694604051968752602087015260408601526060850152608084015260a0830152151560c0820152f35b346101bf575f3660031901126101bf5760206001600160a01b0360075416604051908152f35b346101bf5760803660031901126101bf57600435610ba3610f18565b9060443591606435908115158083036101bf57335f52600560205260ff60405f20541615610d1157610bd58285611119565b835f52600360205260405f206001600160a01b0383165f5260205260405f20925f14610c68576040916001600160a01b03918460027f9f0a7aaf8d18c024e8123bdcd157b0f6e0f42892a4ea14a2becc88a320a799229601610c38898254611014565b9055865f526004602052845f20610c50898254611014565b90555b600342910155835196875260208701521693a3005b6002830191825491868310610ccd577f9f0a7aaf8d18c024e8123bdcd157b0f6e0f42892a4ea14a2becc88a320a7992294604094610cae896001600160a01b0396610fe0565b9055865f526004602052845f20610cc6898254610fe0565b9055610c53565b606460405162461bcd60e51b815260206004820152601260248201527f496e73756666696369656e74207374616b6500000000000000000000000000006044820152fd5b606460405162461bcd60e51b815260206004820152600e60248201527f4e6f7420617574686f72697a65640000000000000000000000000000000000006044820152fd5b346101bf5760203660031901126101bf5760c0600435805f52600160205260405f2090604051610d8481610f86565b6001600160a01b03835416928382526001810154928360208401526002820154908160408501528660ff600660038601549586606089015260048101546080890152600581015460a0890152015416940193151584525f52600460205260405f20549251151593604051958652602086015260408501526060840152608083015260a0820152f35b346101bf5760403660031901126101bf57610f1060209160043590610e2f610f18565b90825f526001855260c060ff600660405f20610e4a85610f86565b6001600160a01b038154168552600181015489860152600281015460408601526003810154606086015260048101546080860152600581015460a08601520154161515910152815f52600384526001600160a01b0360405f2091165f528352670de0b6b3a7640000610f0760405f20610f0160405191610ec983610fa2565b80548352610ef760018201549689850197885260036002840154936040870194855201546060860152611021565b9051925190610fe0565b90611001565b04905190611014565b604051908152f35b602435906001600160a01b03821682036101bf57565b600435906001600160a01b03821682036101bf57565b60409060031901126101bf576004359060243590565b600254811015610f725760025f5260205f2001905f90565b634e487b7160e01b5f52603260045260245ffd5b60e0810190811067ffffffffffffffff821117610a2657604052565b6080810190811067ffffffffffffffff821117610a2657604052565b90601f8019910116810190811067ffffffffffffffff821117610a2657604052565b91908203918211610fed57565b634e487b7160e01b5f52601160045260245ffd5b81810292918115918404141715610fed57565b91908201809211610fed57565b805f52600160205260405f206040519061103a82610f86565b6001600160a01b0381541682526001810154602083015260028101546040830152600381015490606083019182526004810154926080810193845260c060ff600660058501549460a085019586520154161515910152835f52600460205260405f20541561111157906110b36110bb9251935142610fe0565b905190611001565b91670de0b6b3a7640000830292808404670de0b6b3a76400001490151715610fed575f52600460205260405f205480156110fd576110fa920490611014565b90565b634e487b7160e01b5f52601260045260245ffd5b925050505190565b90815f52600160205260405f209061113083611021565b91600581019283556004429101556001600160a01b03811661115157505050565b60206111a591845f526003825260405f206001600160a01b0382165f52825260405f20946040519384928392623e590d60e21b8452600484019092916001600160a01b036020916040840195845216910152565b0381305afa908115610802575f916111c3575b506001830155549055565b90506020813d6020116111ed575b816111de60209383610fbe565b810103126101bf57515f6111b8565b3d91506111d1565b6001600160a01b035f5416330361120857565b7f118cdaa7000000000000000000000000000000000000000000000000000000005f523360045260245ffd5b6040517fa9059cbb0000000000000000000000000000000000000000000000000000000060208201526001600160a01b039290921660248301526044808301939093529181526112899161069f606483610fbe565b565b5f6001600160a01b038192169260208151910182855af13d15611349573d67ffffffffffffffff8111610a26576112e491604051916112d46020601f19601f8401160184610fbe565b82523d5f602084013e5b83611355565b8051908115159182611325575b50506112fa5750565b7f5274afe7000000000000000000000000000000000000000000000000000000005f5260045260245ffd5b81925090602091810103126101bf57602001518015908115036101bf575f806112f1565b6112e4906060906112de565b90611392575080511561136a57805190602001fd5b7f1425ea42000000000000000000000000000000000000000000000000000000005f5260045ffd5b815115806113d8575b6113a3575090565b6001600160a01b03907f9996b315000000000000000000000000000000000000000000000000000000005f521660045260245ffd5b50803b1561139b56fea2646970667358221220d4859dc9221cbfa25bc5db731b8bc7bad090127b24c4f75b6a6c0b91fdeae77e64736f6c634300081a0033",
        "nonce": "0x829",
        "chainId": "0x14a34"
      },
      "additionalContracts": [],
      "isFixedGasLimit": false
    },
    {
      "hash": "0x7b4c796bcd3754150e1a6cb4902834fab024934f05fdd64e6400c5e1017cac95",
      "transactionType": "CALL",
      "contractName": "RewardDistributor",
      "contractAddress": "0x9e1eca4c808a6f2872fe0882058adfb94b9997d6",
      "function": "setProtocolComponents(address,address,address,address)",
      "arguments": [
        "0xcf9A2974e1bd85f8fEB5cAef46eE70c4e834E73A",
        "0x6B988810B36Ef0A9a99E7f4369Ee1a8F009d2aD0",
        "0x0a76F1098927f937a0ecfeCFEB7DC0E8C1450d6D",
        "0x976a64821261a4ffdc734Ca0fe99236A7F36bBC2"
      ],
      "transaction": {
        "from": "0xa6b3d200cd34ca14d7579dac8b054bf50a62c37c",
        "to": "0x9e1eca4c808a6f2872fe0882058adfb94b9997d6",
        "gas": "0x265de",
        "value": "0x0",
        "input": "0x274ee475000000000000000000000000cf9a2974e1bd85f8feb5caef46ee70c4e834e73a0000000000000000000000006b988810b36ef0a9a99e7f4369ee1a8f009d2ad00000000000000000000000000a76f1098927f937a0ecfecfeb7dc0e8c1450d6d000000000000000000000000976a64821261a4ffdc734ca0fe99236a7f36bbc2",
        "nonce": "0x82a",
        "chainId": "0x14a34"
      },
      "additionalContracts": [],
      "isFixedGasLimit": false
    },
    {
      "hash": "0x94bd8bc984a7772475664210bc084c4e4e0d1136becd1dccb543855fcf95a394",
      "transactionType": "CALL",
      "contractName": "RewardDistributor",
      "contractAddress": "0x9e1eca4c808a6f2872fe0882058adfb94b9997d6",
      "function": "setAuthorizedUpdater(address,bool)",
      "arguments": [
        "0x6B988810B36Ef0A9a99E7f4369Ee1a8F009d2aD0",
        "true"
      ],
      "transaction": {
        "from": "0xa6b3d200cd34ca14d7579dac8b054bf50a62c37c",
        "to": "0x9e1eca4c808a6f2872fe0882058adfb94b9997d6",
        "gas": "0xfb76",
        "value": "0x0",
        "input": "0x99fc65d40000000000000000000000006b988810b36ef0a9a99e7f4369ee1a8f009d2ad00000000000000000000000000000000000000000000000000000000000000001",
        "nonce": "0x82b",
        "chainId": "0x14a34"
      },
      "additionalContracts": [],
      "isFixedGasLimit": false
    },
    {
      "hash": "0x9dd596696f735c2fefb3e928c2877b10953299a1c4b31759ed3b2b6350e7a624",
      "transactionType": "CALL",
      "contractName": "RewardDistributor",
      "contractAddress": "0x9e1eca4c808a6f2872fe0882058adfb94b9997d6",
      "function": "setAuthorizedUpdater(address,bool)",
      "arguments": [
        "0x0a76F1098927f937a0ecfeCFEB7DC0E8C1450d6D",
        "true"
      ],
      "transaction": {
        "from": "0xa6b3d200cd34ca14d7579dac8b054bf50a62c37c",
        "to": "0x9e1eca4c808a6f2872fe0882058adfb94b9997d6",
        "gas": "0x10a53",
        "value": "0x0",
        "input": "0x99fc65d40000000000000000000000000a76f1098927f937a0ecfecfeb7dc0e8c1450d6d0000000000000000000000000000000000000000000000000000000000000001",
        "nonce": "0x82c",
        "chainId": "0x14a34"
      },
      "additionalContracts": [],
      "isFixedGasLimit": false
    },
    {
      "hash": "0xa45b66d292ec977e5d873eea8be6d2b6676cc66c908532660d74c28851403c97",
      "transactionType": "CALL",
      "contractName": "RewardDistributor",
      "contractAddress": "0x9e1eca4c808a6f2872fe0882058adfb94b9997d6",
      "function": "setAuthorizedUpdater(address,bool)",
      "arguments": [
        "0xcf9A2974e1bd85f8fEB5cAef46eE70c4e834E73A",
        "true"
      ],
      "transaction": {
        "from": "0xa6b3d200cd34ca14d7579dac8b054bf50a62c37c",
        "to": "0x9e1eca4c808a6f2872fe0882058adfb94b9997d6",
        "gas": "0x10a53",
        "value": "0x0",
        "input": "0x99fc65d4000000000000000000000000cf9a2974e1bd85f8feb5caef46ee70c4e834e73a0000000000000000000000000000000000000000000000000000000000000001",
        "nonce": "0x82d",
        "chainId": "0x14a34"
      },
      "additionalContracts": [],
      "isFixedGasLimit": false
    },
    {
      "hash": "0xe4a37f2c0b957bcb68674199e6f67aec9cf2b0b515b3266c8ab256cbe5487859",
      "transactionType": "CALL",
      "contractName": "RewardDistributor",
      "contractAddress": "0x9e1eca4c808a6f2872fe0882058adfb94b9997d6",
      "function": "setAuthorizedUpdater(address,bool)",
      "arguments": [
        "0x976a64821261a4ffdc734Ca0fe99236A7F36bBC2",
        "true"
      ],
      "transaction": {
        "from": "0xa6b3d200cd34ca14d7579dac8b054bf50a62c37c",
        "to": "0x9e1eca4c808a6f2872fe0882058adfb94b9997d6",
        "gas": "0x10a53",
        "value": "0x0",
        "input": "0x99fc65d4000000000000000000000000976a64821261a4ffdc734ca0fe99236a7f36bbc20000000000000000000000000000000000000000000000000000000000000001",
        "nonce": "0x82e",
        "chainId": "0x14a34"
      },
      "additionalContracts": [],
      "isFixedGasLimit": false
    },
    {
      "hash": "0xffa699e095aaddc371895171d541fe2e5b8cf08101efdf6cdc5af179b620704f",
      "transactionType": "CALL",
      "contractName": "RewardDistributor",
      "contractAddress": "0x9e1eca4c808a6f2872fe0882058adfb94b9997d6",
      "function": "createRewardPool(bytes32,address,uint256)",
      "arguments": [
        "0x88ef8906c27d3e6af98ad7a5cf53c31a771fadb410370749ce5bf0cdb279c3b6",
        "0x7a40195E0A74704c5c51F61AfE9674074e0B27F4",
        "1000000000000000"
      ],
      "transaction": {
        "from": "0xa6b3d200cd34ca14d7579dac8b054bf50a62c37c",
        "to": "0x9e1eca4c808a6f2872fe0882058adfb94b9997d6",
        "gas": "0x382ec",
        "value": "0x0",
        "input": "0x2636e8a088ef8906c27d3e6af98ad7a5cf53c31a771fadb410370749ce5bf0cdb279c3b60000000000000000000000007a40195e0a74704c5c51f61afe9674074e0b27f400000000000000000000000000000000000000000000000000038d7ea4c68000",
        "nonce": "0x82f",
        "chainId": "0x14a34"
      },
      "additionalContracts": [],
      "isFixedGasLimit": false
    },
    {
      "hash": "0xbd5c6ff9338d36435997e959f30a9873dbf62b022c3d1c52876f58af5ccbe146",
      "transactionType": "CALL",
      "contractName": "RewardDistributor",
      "contractAddress": "0x9e1eca4c808a6f2872fe0882058adfb94b9997d6",
      "function": "createRewardPool(bytes32,address,uint256)",
      "arguments": [
        "0x924cafe3f4668225141f2f2252ca17f67b629c2ff1426ac8ff340549f1266789",
        "0x7a40195E0A74704c5c51F61AfE9674074e0B27F4",
        "500000000000000"
      ],
      "transaction": {
        "from": "0xa6b3d200cd34ca14d7579dac8b054bf50a62c37c",
        "to": "0x9e1eca4c808a6f2872fe0882058adfb94b9997d6",
        "gas": "0x3561d",
        "value": "0x0",
        "input": "0x2636e8a0924cafe3f4668225141f2f2252ca17f67b629c2ff1426ac8ff340549f12667890000000000000000000000007a40195e0a74704c5c51f61afe9674074e0b27f40000000000000000000000000000000000000000000000000001c6bf52634000",
        "nonce": "0x830",
        "chainId": "0x14a34"
      },
      "additionalContracts": [],
      "isFixedGasLimit": false
    },
    {
      "hash": "0xb4461dfada7dfdc93218f52ef456809d2c37a2d43f0e4f9ee82f2b3a4b4403cc",
      "transactionType": "CALL",
      "contractName": "RewardDistributor",
      "contractAddress": "0x9e1eca4c808a6f2872fe0882058adfb94b9997d6",
      "function": "createRewardPool(bytes32,address,uint256)",
      "arguments": [
        "0xecfdf68dd313ee04cb77f5658c9ed69bbf41473da762b20d1b421a21de98fbb4",
        "0x7a40195E0A74704c5c51F61AfE9674074e0B27F4",
        "2000000000000000"
      ],
      "transaction": {
        "from": "0xa6b3d200cd34ca14d7579dac8b054bf50a62c37c",
        "to": "0x9e1eca4c808a6f2872fe0882058adfb94b9997d6",
        "gas": "0x32699",
        "value": "0x0",
        "input": "0x2636e8a0ecfdf68dd313ee04cb77f5658c9ed69bbf41473da762b20d1b421a21de98fbb40000000000000000000000007a40195e0a74704c5c51f61afe9674074e0b27f400000000000000000000000000000000000000000000000000071afd498d0000",
        "nonce": "0x831",
        "chainId": "0x14a34"
      },
      "additionalContracts": [],
      "isFixedGasLimit": false
    },
    {
      "hash": "0x616c080b0cefe70bfa07a0e2eea178f3ab3fa2f2818f053c3d663463e40785f3",
      "transactionType": "CALL",
      "contractName": "RewardDistributor",
      "contractAddress": "0x9e1eca4c808a6f2872fe0882058adfb94b9997d6",
      "function": "createRewardPool(bytes32,address,uint256)",
      "arguments": [
        "0xe4cd8d210913bba3eedc531a84655dcd6fbb70f4d34730cf37a5e57a98b7d93b",
        "0x7a40195E0A74704c5c51F61AfE9674074e0B27F4",
        "1500000000000000"
      ],
      "transaction": {
        "from": "0xa6b3d200cd34ca14d7579dac8b054bf50a62c37c",
        "to": "0x9e1eca4c808a6f2872fe0882058adfb94b9997d6",
        "gas": "0x3561d",
        "value": "0x0",
        "input": "0x2636e8a0e4cd8d210913bba3eedc531a84655dcd6fbb70f4d34730cf37a5e57a98b7d93b0000000000000000000000007a40195e0a74704c5c51f61afe9674074e0b27f40000000000000000000000000000000000000000000000000005543df729c000",
        "nonce": "0x832",
        "chainId": "0x14a34"
      },
      "additionalContracts": [],
      "isFixedGasLimit": false
    },
    {
      "hash": "0x374beb8c6fabb41ccf1d1effbbe68c81d974acc347d589fc4281b11a6d4238d2",
      "transactionType": "CALL",
      "contractName": "RewardDistributor",
      "contractAddress": "0x9e1eca4c808a6f2872fe0882058adfb94b9997d6",
      "function": "createRewardPool(bytes32,address,uint256)",
      "arguments": [
        "0x1314db6eea4458bbd4ff96565b0b2561ba3db9780cbdbded7e2df4230b8aa460",
        "0x7a40195E0A74704c5c51F61AfE9674074e0B27F4",
        "1000000000000000"
      ],
      "transaction": {
        "from": "0xa6b3d200cd34ca14d7579dac8b054bf50a62c37c",
        "to": "0x9e1eca4c808a6f2872fe0882058adfb94b9997d6",
        "gas": "0x3561d",
        "value": "0x0",
        "input": "0x2636e8a01314db6eea4458bbd4ff96565b0b2561ba3db9780cbdbded7e2df4230b8aa4600000000000000000000000007a40195e0a74704c5c51f61afe9674074e0b27f400000000000000000000000000000000000000000000000000038d7ea4c68000",
        "nonce": "0x833",
        "chainId": "0x14a34"
      },
      "additionalContracts": [],
      "isFixedGasLimit": false
    },
    {
      "hash": "0x4e1ced4b5a3f85dd224b25cb920b6b15766cac10396cbe8612e65ad3ddb135ef",
      "transactionType": "CALL",
      "contractName": "RewardDistributor",
      "contractAddress": "0x9e1eca4c808a6f2872fe0882058adfb94b9997d6",
      "function": "createRewardPool(bytes32,address,uint256)",
      "arguments": [
        "0x1887cd0d242fb25ce3889259bf747a4bc6ac3eb3fe083aa1d14c660f7a59c3e2",
        "0x7a40195E0A74704c5c51F61AfE9674074e0B27F4",
        "500000000000000"
      ],
      "transaction": {
        "from": "0xa6b3d200cd34ca14d7579dac8b054bf50a62c37c",
        "to": "0x9e1eca4c808a6f2872fe0882058adfb94b9997d6",
        "gas": "0x3561d",
        "value": "0x0",
        "input": "0x2636e8a01887cd0d242fb25ce3889259bf747a4bc6ac3eb3fe083aa1d14c660f7a59c3e20000000000000000000000007a40195e0a74704c5c51f61afe9674074e0b27f40000000000000000000000000000000000000000000000000001c6bf52634000",
        "nonce": "0x834",
        "chainId": "0x14a34"
      },
      "additionalContracts": [],
      "isFixedGasLimit": false
    },
    {
      "hash": "0x3bf44ad7fec33bb11620fb56851cb994762879c2e33539f26b2a13695238d65b",
      "transactionType": "CALL",
      "contractName": null,
      "contractAddress": "0x6b988810b36ef0a9a99e7f4369ee1a8f009d2ad0",
      "function": "setRewardDistributor(address)",
      "arguments": [
        "0x9E1ecA4c808a6f2872Fe0882058ADFB94B9997D6"
      ],
      "transaction": {
        "from": "0xa6b3d200cd34ca14d7579dac8b054bf50a62c37c",
        "to": "0x6b988810b36ef0a9a99e7f4369ee1a8f009d2ad0",
        "gas": "0xfac8",
        "value": "0x0",
        "input": "0xa1809b950000000000000000000000009e1eca4c808a6f2872fe0882058adfb94b9997d6",
        "nonce": "0x835",
        "chainId": "0x14a34"
      },
      "additionalContracts": [],
      "isFixedGasLimit": false
    },
    {
      "hash": "0x43b97201bae603a9fd8eb7967f1db0b32210fff6ae44d6f0b764bdc2bc045234",
      "transactionType": "CALL",
      "contractName": null,
      "contractAddress": "0x0a76f1098927f937a0ecfecfeb7dc0e8c1450d6d",
      "function": "setRewardDistributor(address)",
      "arguments": [
        "0x9E1ecA4c808a6f2872Fe0882058ADFB94B9997D6"
      ],
      "transaction": {
        "from": "0xa6b3d200cd34ca14d7579dac8b054bf50a62c37c",
        "to": "0x0a76f1098927f937a0ecfecfeb7dc0e8c1450d6d",
        "gas": "0x1092c",
        "value": "0x0",
        "input": "0xa1809b950000000000000000000000009e1eca4c808a6f2872fe0882058adfb94b9997d6",
        "nonce": "0x836",
        "chainId": "0x14a34"
      },
      "additionalContracts": [],
      "isFixedGasLimit": false
    },
    {
      "hash": "0x7398939bccfac4a9c8192fdb113b57fed8f9bbf56be0a732c3ff52ec5d78ebc8",
      "transactionType": "CALL",
      "contractName": null,
      "contractAddress": "0xcf9a2974e1bd85f8feb5caef46ee70c4e834e73a",
      "function": "setRewardDistributor(address)",
      "arguments": [
        "0x9E1ecA4c808a6f2872Fe0882058ADFB94B9997D6"
      ],
      "transaction": {
        "from": "0xa6b3d200cd34ca14d7579dac8b054bf50a62c37c",
        "to": "0xcf9a2974e1bd85f8feb5caef46ee70c4e834e73a",
        "gas": "0x1093b",
        "value": "0x0",
        "input": "0xa1809b950000000000000000000000009e1eca4c808a6f2872fe0882058adfb94b9997d6",
        "nonce": "0x837",
        "chainId": "0x14a34"
      },
      "additionalContracts": [],
      "isFixedGasLimit": false
    },
    {
      "hash": "0x6cafeb591c4af57513f70607822a8f3f32c5f42f51f824102b81c999b9fd17d4",
      "transactionType": "CALL",
      "contractName": null,
      "contractAddress": "0x976a64821261a4ffdc734ca0fe99236a7f36bbc2",
      "function": "setRewardDistributor(address)",
      "arguments": [
        "0x9E1ecA4c808a6f2872Fe0882058ADFB94B9997D6"
      ],
      "transaction": {
        "from": "0xa6b3d200cd34ca14d7579dac8b054bf50a62c37c",
        "to": "0x976a64821261a4ffdc734ca0fe99236a7f36bbc2",
        "gas": "0xfadc",
        "value": "0x0",
        "input": "0xa1809b950000000000000000000000009e1eca4c808a6f2872fe0882058adfb94b9997d6",
        "nonce": "0x838",
        "chainId": "0x14a34"
      },
      "additionalContracts": [],
      "isFixedGasLimit": false
    },
    {
      "hash": "0x3c0ecaa091da77ec08626eb19d5c09bbbc70e5c425139ec6cfe216477c06b318",
      "transactionType": "CALL",
      "contractName": null,
      "contractAddress": "0x7a40195e0a74704c5c51f61afe9674074e0b27f4",
      "function": "mint(address,uint256)",
      "arguments": [
        "0xA6B3D200cD34ca14d7579DAc8B054bf50a62c37c",
        "6000000000000"
      ],
      "transaction": {
        "from": "0xa6b3d200cd34ca14d7579dac8b054bf50a62c37c",
        "to": "0x7a40195e0a74704c5c51f61afe9674074e0b27f4",
        "gas": "0x191c9",
        "value": "0x0",
        "input": "0x40c10f19000000000000000000000000a6b3d200cd34ca14d7579dac8b054bf50a62c37c00000000000000000000000000000000000000000000000000000574fbde6000",
        "nonce": "0x839",
        "chainId": "0x14a34"
      },
      "additionalContracts": [],
      "isFixedGasLimit": false
    },
    {
      "hash": "0x34c57db18ff1d87ad898409a29ccb3787fefa59d594f4078dd731c98a0963679",
      "transactionType": "CALL",
      "contractName": null,
      "contractAddress": "0x7a40195e0a74704c5c51f61afe9674074e0b27f4",
      "function": "approve(address,uint256)",
      "arguments": [
        "0x9E1ecA4c808a6f2872Fe0882058ADFB94B9997D6",
        "6000000000000"
      ],
      "transaction": {
        "from": "0xa6b3d200cd34ca14d7579dac8b054bf50a62c37c",
        "to": "0x7a40195e0a74704c5c51f61afe9674074e0b27f4",
        "gas": "0xf802",
        "value": "0x0",
        "input": "0x095ea7b30000000000000000000000009e1eca4c808a6f2872fe0882058adfb94b9997d600000000000000000000000000000000000000000000000000000574fbde6000",
        "nonce": "0x83a",
        "chainId": "0x14a34"
      },
      "additionalContracts": [],
      "isFixedGasLimit": false
    },
    {
      "hash": "0x814451e0ea9d7d5038a3ec1215026c4d37361d33f9fe99f77ec1be6ef7ad5b03",
      "transactionType": "CALL",
      "contractName": "RewardDistributor",
      "contractAddress": "0x9e1eca4c808a6f2872fe0882058adfb94b9997d6",
      "function": "addRewards(bytes32,uint256)",
      "arguments": [
        "0x88ef8906c27d3e6af98ad7a5cf53c31a771fadb410370749ce5bf0cdb279c3b6",
        "1000000000000"
      ],
      "transaction": {
        "from": "0xa6b3d200cd34ca14d7579dac8b054bf50a62c37c",
        "to": "0x9e1eca4c808a6f2872fe0882058adfb94b9997d6",
        "gas": "0x1dcfb",
        "value": "0x0",
        "input": "0x48f60dfd88ef8906c27d3e6af98ad7a5cf53c31a771fadb410370749ce5bf0cdb279c3b6000000000000000000000000000000000000000000000000000000e8d4a51000",
        "nonce": "0x83b",
        "chainId": "0x14a34"
      },
      "additionalContracts": [],
      "isFixedGasLimit": false
    },
    {
      "hash": "0x525c0b69c27aac546974d26fba4d5643627ea19bd8c30a6224b9cf49014385ca",
      "transactionType": "CALL",
      "contractName": "RewardDistributor",
      "contractAddress": "0x9e1eca4c808a6f2872fe0882058adfb94b9997d6",
      "function": "addRewards(bytes32,uint256)",
      "arguments": [
        "0x924cafe3f4668225141f2f2252ca17f67b629c2ff1426ac8ff340549f1266789",
        "1000000000000"
      ],
      "transaction": {
        "from": "0xa6b3d200cd34ca14d7579dac8b054bf50a62c37c",
        "to": "0x9e1eca4c808a6f2872fe0882058adfb94b9997d6",
        "gas": "0x180b8",
        "value": "0x0",
        "input": "0x48f60dfd924cafe3f4668225141f2f2252ca17f67b629c2ff1426ac8ff340549f1266789000000000000000000000000000000000000000000000000000000e8d4a51000",
        "nonce": "0x83c",
        "chainId": "0x14a34"
      },
      "additionalContracts": [],
      "isFixedGasLimit": false
    },
    {
      "hash": "0x93970ef3212272931845bb7a52254fdf23c9f5ff9aa0d4aa3ee0f21cc2512d8a",
      "transactionType": "CALL",
      "contractName": "RewardDistributor",
      "contractAddress": "0x9e1eca4c808a6f2872fe0882058adfb94b9997d6",
      "function": "addRewards(bytes32,uint256)",
      "arguments": [
        "0xecfdf68dd313ee04cb77f5658c9ed69bbf41473da762b20d1b421a21de98fbb4",
        "1000000000000"
      ],
      "transaction": {
        "from": "0xa6b3d200cd34ca14d7579dac8b054bf50a62c37c",
        "to": "0x9e1eca4c808a6f2872fe0882058adfb94b9997d6",
        "gas": "0x180b8",
        "value": "0x0",
        "input": "0x48f60dfdecfdf68dd313ee04cb77f5658c9ed69bbf41473da762b20d1b421a21de98fbb4000000000000000000000000000000000000000000000000000000e8d4a51000",
        "nonce": "0x83d",
        "chainId": "0x14a34"
      },
      "additionalContracts": [],
      "isFixedGasLimit": false
    },
    {
      "hash": "0x5be9edb72c47712985966257330ef112ad717279e44f2f3897408e370dc62f60",
      "transactionType": "CALL",
      "contractName": "RewardDistributor",
      "contractAddress": "0x9e1eca4c808a6f2872fe0882058adfb94b9997d6",
      "function": "addRewards(bytes32,uint256)",
      "arguments": [
        "0xe4cd8d210913bba3eedc531a84655dcd6fbb70f4d34730cf37a5e57a98b7d93b",
        "1000000000000"
      ],
      "transaction": {
        "from": "0xa6b3d200cd34ca14d7579dac8b054bf50a62c37c",
        "to": "0x9e1eca4c808a6f2872fe0882058adfb94b9997d6",
        "gas": "0x180b8",
        "value": "0x0",
        "input": "0x48f60dfde4cd8d210913bba3eedc531a84655dcd6fbb70f4d34730cf37a5e57a98b7d93b000000000000000000000000000000000000000000000000000000e8d4a51000",
        "nonce": "0x83e",
        "chainId": "0x14a34"
      },
      "additionalContracts": [],
      "isFixedGasLimit": false
    },
    {
      "hash": "0xf4f0a0ec5abdc3fe8b5d71634b258f0d472618d15a6a53669235d45f960c17a8",
      "transactionType": "CALL",
      "contractName": "RewardDistributor",
      "contractAddress": "0x9e1eca4c808a6f2872fe0882058adfb94b9997d6",
      "function": "addRewards(bytes32,uint256)",
      "arguments": [
        "0x1314db6eea4458bbd4ff96565b0b2561ba3db9780cbdbded7e2df4230b8aa460",
        "1000000000000"
      ],
      "transaction": {
        "from": "0xa6b3d200cd34ca14d7579dac8b054bf50a62c37c",
        "to": "0x9e1eca4c808a6f2872fe0882058adfb94b9997d6",
        "gas": "0x180b8",
        "value": "0x0",
        "input": "0x48f60dfd1314db6eea4458bbd4ff96565b0b2561ba3db9780cbdbded7e2df4230b8aa460000000000000000000000000000000000000000000000000000000e8d4a51000",
        "nonce": "0x83f",
        "chainId": "0x14a34"
      },
      "additionalContracts": [],
      "isFixedGasLimit": false
    },
    {
      "hash": "0x2cad5cea5fb260a8253274289fccb450a6c43cbe8ff5217c329e326682b79b17",
      "transactionType": "CALL",
      "contractName": "RewardDistributor",
      "contractAddress": "0x9e1eca4c808a6f2872fe0882058adfb94b9997d6",
      "function": "addRewards(bytes32,uint256)",
      "arguments": [
        "0x1887cd0d242fb25ce3889259bf747a4bc6ac3eb3fe083aa1d14c660f7a59c3e2",
        "1000000000000"
      ],
      "transaction": {
        "from": "0xa6b3d200cd34ca14d7579dac8b054bf50a62c37c",
        "to": "0x9e1eca4c808a6f2872fe0882058adfb94b9997d6",
        "gas": "0x14cec",
        "value": "0x0",
        "input": "0x48f60dfd1887cd0d242fb25ce3889259bf747a4bc6ac3eb3fe083aa1d14c660f7a59c3e2000000000000000000000000000000000000000000000000000000e8d4a51000",
        "nonce": "0x840",
        "chainId": "0x14a34"
      },
      "additionalContracts": [],
      "isFixedGasLimit": false
    }
  ],
  "receipts": [
    {
      "status": "0x1",
      "cumulativeGasUsed": "0x437e5e",
      "logs": [
        {
          "address": "0x9e1eca4c808a6f2872fe0882058adfb94b9997d6",
          "topics": [
            "0x8be0079c531659141344cd1fd0a4f28419497f9722a3daafe3b4186f6b6457e0",
            "0x0000000000000000000000000000000000000000000000000000000000000000",
            "0x000000000000000000000000a6b3d200cd34ca14d7579dac8b054bf50a62c37c"
          ],
          "data": "0x",
          "blockHash": "0xa18fcec0a6c48218968a4efedbb59d46f1b0990c3402afe4212661d3a017c7da",
          "blockNumber": "0x19d44b5",
          "transactionHash": "0x76f3d164440ce88d044d65244c3d28eaf0614affa04679c2a171c65ae8471bff",
          "transactionIndex": "0x10",
          "logIndex": "0x59",
          "removed": false
        }
      ],
      "logsBloom": "0x00000000000000000000000400000000000000000000000002800000000000000000000000000000000000000000000000000000000000000002000000000000000000000000000000000000000000000001000000000000000000000000000000000000020000000000000000000800000000000000000000000000000000400000000000000000000000000000000000000000000000000000000000000000000000000000001000000000000000000000000000000000000000000000000000000040000000000000000000000000000000000000000000000000000020000000000000000000000000000000000000000000000002000000000000000000",
      "type": "0x2",
      "transactionHash": "0x76f3d164440ce88d044d65244c3d28eaf0614affa04679c2a171c65ae8471bff",
      "transactionIndex": "0x10",
      "blockHash": "0xa18fcec0a6c48218968a4efedbb59d46f1b0990c3402afe4212661d3a017c7da",
      "blockNumber": "0x19d44b5",
      "gasUsed": "0x121df3",
      "effectiveGasPrice": "0x386",
      "from": "0xa6b3d200cd34ca14d7579dac8b054bf50a62c37c",
      "to": null,
      "contractAddress": "0x9e1eca4c808a6f2872fe0882058adfb94b9997d6",
      "l1BaseFeeScalar": "0x44d",
      "l1BlobBaseFee": "0x1",
      "l1BlobBaseFeeScalar": "0xa118b",
      "l1Fee": "0x1e24e04",
      "l1GasPrice": "0x92251",
      "l1GasUsed": "0xbb54"
    },
    {
      "status": "0x1",
      "cumulativeGasUsed": "0x453acd",
      "logs": [],
      "logsBloom": "0x00000000000000000000000000000000000000000000000000000000000000000000000000000000000000000000000000000000000000000000000000000000000000000000000000000000000000000000000000000000000000000000000000000000000000000000000000000000000000000000000000000000000000000000000000000000000000000000000000000000000000000000000000000000000000000000000000000000000000000000000000000000000000000000000000000000000000000000000000000000000000000000000000000000000000000000000000000000000000000000000000000000000000000000000000000000",
      "type": "0x2",
      "transactionHash": "0x7b4c796bcd3754150e1a6cb4902834fab024934f05fdd64e6400c5e1017cac95",
      "transactionIndex": "0x11",
      "blockHash": "0xa18fcec0a6c48218968a4efedbb59d46f1b0990c3402afe4212661d3a017c7da",
      "blockNumber": "0x19d44b5",
      "gasUsed": "0x1bc6f",
      "effectiveGasPrice": "0x386",
      "from": "0xa6b3d200cd34ca14d7579dac8b054bf50a62c37c",
      "to": "0x9e1eca4c808a6f2872fe0882058adfb94b9997d6",
      "contractAddress": null,
      "l1BaseFeeScalar": "0x44d",
      "l1BlobBaseFee": "0x1",
      "l1BlobBaseFeeScalar": "0xa118b",
      "l1Fee": "0x16e52b",
      "l1GasPrice": "0x92251",
      "l1GasUsed": "0x8e4"
    },
    {
      "status": "0x1",
      "cumulativeGasUsed": "0x45f0dc",
      "logs": [],
      "logsBloom": "0x00000000000000000000000000000000000000000000000000000000000000000000000000000000000000000000000000000000000000000000000000000000000000000000000000000000000000000000000000000000000000000000000000000000000000000000000000000000000000000000000000000000000000000000000000000000000000000000000000000000000000000000000000000000000000000000000000000000000000000000000000000000000000000000000000000000000000000000000000000000000000000000000000000000000000000000000000000000000000000000000000000000000000000000000000000000",
      "type": "0x2",
      "transactionHash": "0x94bd8bc984a7772475664210bc084c4e4e0d1136becd1dccb543855fcf95a394",
      "transactionIndex": "0x12",
      "blockHash": "0xa18fcec0a6c48218968a4efedbb59d46f1b0990c3402afe4212661d3a017c7da",
      "blockNumber": "0x19d44b5",
      "gasUsed": "0xb60f",
      "effectiveGasPrice": "0x386",
      "from": "0xa6b3d200cd34ca14d7579dac8b054bf50a62c37c",
      "to": "0x9e1eca4c808a6f2872fe0882058adfb94b9997d6",
      "contractAddress": null,
      "l1BaseFeeScalar": "0x44d",
      "l1BlobBaseFee": "0x1",
      "l1BlobBaseFeeScalar": "0xa118b",
      "l1Fee": "0x10176f",
      "l1GasPrice": "0x92251",
      "l1GasUsed": "0x640"
    },
    {
      "status": "0x1",
      "cumulativeGasUsed": "0x46a6f7",
      "logs": [],
      "logsBloom": "0x00000000000000000000000000000000000000000000000000000000000000000000000000000000000000000000000000000000000000000000000000000000000000000000000000000000000000000000000000000000000000000000000000000000000000000000000000000000000000000000000000000000000000000000000000000000000000000000000000000000000000000000000000000000000000000000000000000000000000000000000000000000000000000000000000000000000000000000000000000000000000000000000000000000000000000000000000000000000000000000000000000000000000000000000000000000",
      "type": "0x2",
      "transactionHash": "0x9dd596696f735c2fefb3e928c2877b10953299a1c4b31759ed3b2b6350e7a624",
      "transactionIndex": "0x13",
      "blockHash": "0xa18fcec0a6c48218968a4efedbb59d46f1b0990c3402afe4212661d3a017c7da",
      "blockNumber": "0x19d44b5",
      "gasUsed": "0xb61b",
      "effectiveGasPrice": "0x386",
      "from": "0xa6b3d200cd34ca14d7579dac8b054bf50a62c37c",
      "to": "0x9e1eca4c808a6f2872fe0882058adfb94b9997d6",
      "contractAddress": null,
      "l1BaseFeeScalar": "0x44d",
      "l1BlobBaseFee": "0x1",
      "l1BlobBaseFeeScalar": "0xa118b",
      "l1Fee": "0x10176f",
      "l1GasPrice": "0x92251",
      "l1GasUsed": "0x640"
    },
    {
      "status": "0x1",
      "cumulativeGasUsed": "0x475d12",
      "logs": [],
      "logsBloom": "0x00000000000000000000000000000000000000000000000000000000000000000000000000000000000000000000000000000000000000000000000000000000000000000000000000000000000000000000000000000000000000000000000000000000000000000000000000000000000000000000000000000000000000000000000000000000000000000000000000000000000000000000000000000000000000000000000000000000000000000000000000000000000000000000000000000000000000000000000000000000000000000000000000000000000000000000000000000000000000000000000000000000000000000000000000000000",
      "type": "0x2",
      "transactionHash": "0xa45b66d292ec977e5d873eea8be6d2b6676cc66c908532660d74c28851403c97",
      "transactionIndex": "0x14",
      "blockHash": "0xa18fcec0a6c48218968a4efedbb59d46f1b0990c3402afe4212661d3a017c7da",
      "blockNumber": "0x19d44b5",
      "gasUsed": "0xb61b",
      "effectiveGasPrice": "0x386",
      "from": "0xa6b3d200cd34ca14d7579dac8b054bf50a62c37c",
      "to": "0x9e1eca4c808a6f2872fe0882058adfb94b9997d6",
      "contractAddress": null,
      "l1BaseFeeScalar": "0x44d",
      "l1BlobBaseFee": "0x1",
      "l1BlobBaseFeeScalar": "0xa118b",
      "l1Fee": "0x10176f",
      "l1GasPrice": "0x92251",
      "l1GasUsed": "0x640"
    },
    {
      "status": "0x1",
      "cumulativeGasUsed": "0x48132d",
      "logs": [],
      "logsBloom": "0x00000000000000000000000000000000000000000000000000000000000000000000000000000000000000000000000000000000000000000000000000000000000000000000000000000000000000000000000000000000000000000000000000000000000000000000000000000000000000000000000000000000000000000000000000000000000000000000000000000000000000000000000000000000000000000000000000000000000000000000000000000000000000000000000000000000000000000000000000000000000000000000000000000000000000000000000000000000000000000000000000000000000000000000000000000000",
      "type": "0x2",
      "transactionHash": "0xe4a37f2c0b957bcb68674199e6f67aec9cf2b0b515b3266c8ab256cbe5487859",
      "transactionIndex": "0x15",
      "blockHash": "0xa18fcec0a6c48218968a4efedbb59d46f1b0990c3402afe4212661d3a017c7da",
      "blockNumber": "0x19d44b5",
      "gasUsed": "0xb61b",
      "effectiveGasPrice": "0x386",
      "from": "0xa6b3d200cd34ca14d7579dac8b054bf50a62c37c",
      "to": "0x9e1eca4c808a6f2872fe0882058adfb94b9997d6",
      "contractAddress": null,
      "l1BaseFeeScalar": "0x44d",
      "l1BlobBaseFee": "0x1",
      "l1BlobBaseFeeScalar": "0xa118b",
      "l1Fee": "0x10176f",
      "l1GasPrice": "0x92251",
      "l1GasUsed": "0x640"
    },
    {
      "status": "0x1",
      "cumulativeGasUsed": "0x4a9dfc",
      "logs": [
        {
          "address": "0x9e1eca4c808a6f2872fe0882058adfb94b9997d6",
          "topics": [
            "0x1b8c3bf52594d3e5de8d89e5e71716abb92ae11fc8c2ba8097ac21c223524bcb",
            "0x88ef8906c27d3e6af98ad7a5cf53c31a771fadb410370749ce5bf0cdb279c3b6"
          ],
          "data": "0x0000000000000000000000007a40195e0a74704c5c51f61afe9674074e0b27f400000000000000000000000000000000000000000000000000038d7ea4c68000",
          "blockHash": "0xa18fcec0a6c48218968a4efedbb59d46f1b0990c3402afe4212661d3a017c7da",
          "blockNumber": "0x19d44b5",
          "transactionHash": "0xffa699e095aaddc371895171d541fe2e5b8cf08101efdf6cdc5af179b620704f",
          "transactionIndex": "0x16",
          "logIndex": "0x5a",
          "removed": false
        }
      ],
      "logsBloom": "0x20000000000000000000000000000000000000000000000000000000000000000000000000000000000000000000000000000000000000000002000000000000000000000000000000000000000000000000000000000000200000000000000000000000000000000000000000000000000000000040000000000000000000000000000800000000000000000000000000000000000000000000000000000000000000000000001000000000000000000000000000000000000400000000000000000000000000000000000000000000000000100000000000000000000000000000000000000000000000000000000000000000000002000000000000000000",
      "type": "0x2",
      "transactionHash": "0xffa699e095aaddc371895171d541fe2e5b8cf08101efdf6cdc5af179b620704f",
      "transactionIndex": "0x16",
      "blockHash": "0xa18fcec0a6c48218968a4efedbb59d46f1b0990c3402afe4212661d3a017c7da",
      "blockNumber": "0x19d44b5",
      "gasUsed": "0x28acf",
      "effectiveGasPrice": "0x386",
      "from": "0xa6b3d200cd34ca14d7579dac8b054bf50a62c37c",
      "to": "0x9e1eca4c808a6f2872fe0882058adfb94b9997d6",
      "contractAddress": null,
      "l1BaseFeeScalar": "0x44d",
      "l1BlobBaseFee": "0x1",
      "l1BlobBaseFeeScalar": "0xa118b",
      "l1Fee": "0x12fddb",
      "l1GasPrice": "0x92251",
      "l1GasUsed": "0x760"
    },
    {
      "status": "0x1",
      "cumulativeGasUsed": "0x4ce5ff",
      "logs": [
        {
          "address": "0x9e1eca4c808a6f2872fe0882058adfb94b9997d6",
          "topics": [
            "0x1b8c3bf52594d3e5de8d89e5e71716abb92ae11fc8c2ba8097ac21c223524bcb",
            "0x924cafe3f4668225141f2f2252ca17f67b629c2ff1426ac8ff340549f1266789"
          ],
          "data": "0x0000000000000000000000007a40195e0a74704c5c51f61afe9674074e0b27f40000000000000000000000000000000000000000000000000001c6bf52634000",
          "blockHash": "0xa18fcec0a6c48218968a4efedbb59d46f1b0990c3402afe4212661d3a017c7da",
          "blockNumber": "0x19d44b5",
          "transactionHash": "0xbd5c6ff9338d36435997e959f30a9873dbf62b022c3d1c52876f58af5ccbe146",
          "transactionIndex": "0x17",
          "logIndex": "0x5b",
          "removed": false
        }
      ],
      "logsBloom": "0x00000000000000000000000000000000000000000000000000000000000000000000000000000000000000000000000000000000000000000002000000000000000000000000000000000000000000000000000000000000000000000000000000000000000000000000000000000000000000000040000000000000000000000000000000000000000000000000000000000000000000000000000000000000000000000000009000000000000000000000000000000000000400000000000000000000000000000000000000000000000000100000000000000020000000000000080000000000000000000000000000000000000002000000000000000000",
      "type": "0x2",
      "transactionHash": "0xbd5c6ff9338d36435997e959f30a9873dbf62b022c3d1c52876f58af5ccbe146",
      "transactionIndex": "0x17",
      "blockHash": "0xa18fcec0a6c48218968a4efedbb59d46f1b0990c3402afe4212661d3a017c7da",
      "blockNumber": "0x19d44b5",
      "gasUsed": "0x24803",
      "effectiveGasPrice": "0x386",
      "from": "0xa6b3d200cd34ca14d7579dac8b054bf50a62c37c",
      "to": "0x9e1eca4c808a6f2872fe0882058adfb94b9997d6",
      "contractAddress": null,
      "l1BaseFeeScalar": "0x44d",
      "l1BlobBaseFee": "0x1",
      "l1BlobBaseFeeScalar": "0xa118b",
      "l1Fee": "0x12fddb",
      "l1GasPrice": "0x92251",
      "l1GasUsed": "0x760"
    },
    {
      "status": "0x1",
      "cumulativeGasUsed": "0x4f2df6",
      "logs": [
        {
          "address": "0x9e1eca4c808a6f2872fe0882058adfb94b9997d6",
          "topics": [
            "0x1b8c3bf52594d3e5de8d89e5e71716abb92ae11fc8c2ba8097ac21c223524bcb",
            "0xecfdf68dd313ee04cb77f5658c9ed69bbf41473da762b20d1b421a21de98fbb4"
          ],
          "data": "0x0000000000000000000000007a40195e0a74704c5c51f61afe9674074e0b27f400000000000000000000000000000000000000000000000000071afd498d0000",
          "blockHash": "0xa18fcec0a6c48218968a4efedbb59d46f1b0990c3402afe4212661d3a017c7da",
          "blockNumber": "0x19d44b5",
          "transactionHash": "0xb4461dfada7dfdc93218f52ef456809d2c37a2d43f0e4f9ee82f2b3a4b4403cc",
          "transactionIndex": "0x18",
          "logIndex": "0x5c",
          "removed": false
        }
      ],
      "logsBloom": "0x00000000000000000000000000000000000000000000000000000000000000000000000100000000000000000000000000000000000000000002000000000000000000000000000000000000000000000000000000000000000000000000000000000000000000000000000000000000000000000040000000000000000000000000000000000000000000000000000000000000000040000000000000000000000000000000001000000000000000000000000000000000000400000000000000000000000000000000000000000000000000108000000000000000000000000000000000000000000000000000000000000000000002000000000000000000",
      "type": "0x2",
      "transactionHash": "0xb4461dfada7dfdc93218f52ef456809d2c37a2d43f0e4f9ee82f2b3a4b4403cc",
      "transactionIndex": "0x18",
      "blockHash": "0xa18fcec0a6c48218968a4efedbb59d46f1b0990c3402afe4212661d3a017c7da",
      "blockNumber": "0x19d44b5",
      "gasUsed": "0x247f7",
      "effectiveGasPrice": "0x386",
      "from": "0xa6b3d200cd34ca14d7579dac8b054bf50a62c37c",
      "to": "0x9e1eca4c808a6f2872fe0882058adfb94b9997d6",
      "contractAddress": null,
      "l1BaseFeeScalar": "0x44d",
      "l1BlobBaseFee": "0x1",
      "l1BlobBaseFeeScalar": "0xa118b",
      "l1Fee": "0x12fddb",
      "l1GasPrice": "0x92251",
      "l1GasUsed": "0x760"
    },
    {
      "status": "0x1",
      "cumulativeGasUsed": "0x5175f9",
      "logs": [
        {
          "address": "0x9e1eca4c808a6f2872fe0882058adfb94b9997d6",
          "topics": [
            "0x1b8c3bf52594d3e5de8d89e5e71716abb92ae11fc8c2ba8097ac21c223524bcb",
            "0xe4cd8d210913bba3eedc531a84655dcd6fbb70f4d34730cf37a5e57a98b7d93b"
          ],
          "data": "0x0000000000000000000000007a40195e0a74704c5c51f61afe9674074e0b27f40000000000000000000000000000000000000000000000000005543df729c000",
          "blockHash": "0xa18fcec0a6c48218968a4efedbb59d46f1b0990c3402afe4212661d3a017c7da",
          "blockNumber": "0x19d44b5",
          "transactionHash": "0x616c080b0cefe70bfa07a0e2eea178f3ab3fa2f2818f053c3d663463e40785f3",
          "transactionIndex": "0x19",
          "logIndex": "0x5d",
          "removed": false
        }
      ],
      "logsBloom": "0x00000000000000000000000000000000000000000000000000000000000000000002000000000000000000000000000000000000000000000002000000000000000000000000000000000000000000000000000000000000000000000000000000000000000000000000000000000000000000000040000000000000000000000000000000000000000000000000000000000000000000000000000000000000000000000000041800000000000000000000000000000000000400000000000000000000000000000000000000000000000000100000000000000000000000000000000000000000000000000000000000000000000002000000000000000000",
      "type": "0x2",
      "transactionHash": "0x616c080b0cefe70bfa07a0e2eea178f3ab3fa2f2818f053c3d663463e40785f3",
      "transactionIndex": "0x19",
      "blockHash": "0xa18fcec0a6c48218968a4efedbb59d46f1b0990c3402afe4212661d3a017c7da",
      "blockNumber": "0x19d44b5",
      "gasUsed": "0x24803",
      "effectiveGasPrice": "0x386",
      "from": "0xa6b3d200cd34ca14d7579dac8b054bf50a62c37c",
      "to": "0x9e1eca4c808a6f2872fe0882058adfb94b9997d6",
      "contractAddress": null,
      "l1BaseFeeScalar": "0x44d",
      "l1BlobBaseFee": "0x1",
      "l1BlobBaseFeeScalar": "0xa118b",
      "l1Fee": "0x12fddb",
      "l1GasPrice": "0x92251",
      "l1GasUsed": "0x760"
    },
    {
      "status": "0x1",
      "cumulativeGasUsed": "0x53bdfc",
      "logs": [
        {
          "address": "0x9e1eca4c808a6f2872fe0882058adfb94b9997d6",
          "topics": [
            "0x1b8c3bf52594d3e5de8d89e5e71716abb92ae11fc8c2ba8097ac21c223524bcb",
            "0x1314db6eea4458bbd4ff96565b0b2561ba3db9780cbdbded7e2df4230b8aa460"
          ],
          "data": "0x0000000000000000000000007a40195e0a74704c5c51f61afe9674074e0b27f400000000000000000000000000000000000000000000000000038d7ea4c68000",
          "blockHash": "0xa18fcec0a6c48218968a4efedbb59d46f1b0990c3402afe4212661d3a017c7da",
          "blockNumber": "0x19d44b5",
          "transactionHash": "0x374beb8c6fabb41ccf1d1effbbe68c81d974acc347d589fc4281b11a6d4238d2",
          "transactionIndex": "0x1a",
          "logIndex": "0x5e",
          "removed": false
        }
      ],
      "logsBloom": "0x00000000000000000000000000000000000000000000000000000000000000000000000000000000000000000000000000000000000000000002000000000000000000000000000000000000000000000000000000000000000000000000000000000000000000000040000000000000000000000040000000000000000000000000000000000000000000000000000000000000000000000000000000000000000000000000001000000000000080000000000000000000000400000000000000000000000000000000000000000000000000100000000000000000000000000000000000000000000000000000000000000000040002000000000000000000",
      "type": "0x2",
      "transactionHash": "0x374beb8c6fabb41ccf1d1effbbe68c81d974acc347d589fc4281b11a6d4238d2",
      "transactionIndex": "0x1a",
      "blockHash": "0xa18fcec0a6c48218968a4efedbb59d46f1b0990c3402afe4212661d3a017c7da",
      "blockNumber": "0x19d44b5",
      "gasUsed": "0x24803",
      "effectiveGasPrice": "0x386",
      "from": "0xa6b3d200cd34ca14d7579dac8b054bf50a62c37c",
      "to": "0x9e1eca4c808a6f2872fe0882058adfb94b9997d6",
      "contractAddress": null,
      "l1BaseFeeScalar": "0x44d",
      "l1BlobBaseFee": "0x1",
      "l1BlobBaseFeeScalar": "0xa118b",
      "l1Fee": "0x12fddb",
      "l1GasPrice": "0x92251",
      "l1GasUsed": "0x760"
    },
    {
      "status": "0x1",
      "cumulativeGasUsed": "0x5605ff",
      "logs": [
        {
          "address": "0x9e1eca4c808a6f2872fe0882058adfb94b9997d6",
          "topics": [
            "0x1b8c3bf52594d3e5de8d89e5e71716abb92ae11fc8c2ba8097ac21c223524bcb",
            "0x1887cd0d242fb25ce3889259bf747a4bc6ac3eb3fe083aa1d14c660f7a59c3e2"
          ],
          "data": "0x0000000000000000000000007a40195e0a74704c5c51f61afe9674074e0b27f40000000000000000000000000000000000000000000000000001c6bf52634000",
          "blockHash": "0xa18fcec0a6c48218968a4efedbb59d46f1b0990c3402afe4212661d3a017c7da",
          "blockNumber": "0x19d44b5",
          "transactionHash": "0x4e1ced4b5a3f85dd224b25cb920b6b15766cac10396cbe8612e65ad3ddb135ef",
          "transactionIndex": "0x1b",
          "logIndex": "0x5f",
          "removed": false
        }
      ],
      "logsBloom": "0x00000000000000000000000000000000000000000000000000000000000000000000000000000000000000000000000004000000000000000002000000000000000000000000000000000000000000000000000000000000000000000000000000000000000000000000000000000000000000000040000000000000000000000000000000000000000000000000000000000000000000002000000000000000000000000000001000000000000000000000000000000000000400000000000000000000000000000000000000000000000000100000000000000000000000000000000000000000000000000000080000000000000002000000000000000000",
      "type": "0x2",
      "transactionHash": "0x4e1ced4b5a3f85dd224b25cb920b6b15766cac10396cbe8612e65ad3ddb135ef",
      "transactionIndex": "0x1b",
      "blockHash": "0xa18fcec0a6c48218968a4efedbb59d46f1b0990c3402afe4212661d3a017c7da",
      "blockNumber": "0x19d44b5",
      "gasUsed": "0x24803",
      "effectiveGasPrice": "0x386",
      "from": "0xa6b3d200cd34ca14d7579dac8b054bf50a62c37c",
      "to": "0x9e1eca4c808a6f2872fe0882058adfb94b9997d6",
      "contractAddress": null,
      "l1BaseFeeScalar": "0x44d",
      "l1BlobBaseFee": "0x1",
      "l1BlobBaseFeeScalar": "0xa118b",
      "l1Fee": "0x12fddb",
      "l1GasPrice": "0x92251",
      "l1GasUsed": "0x760"
    },
    {
      "status": "0x1",
      "cumulativeGasUsed": "0x56bb8f",
      "logs": [],
      "logsBloom": "0x00000000000000000000000000000000000000000000000000000000000000000000000000000000000000000000000000000000000000000000000000000000000000000000000000000000000000000000000000000000000000000000000000000000000000000000000000000000000000000000000000000000000000000000000000000000000000000000000000000000000000000000000000000000000000000000000000000000000000000000000000000000000000000000000000000000000000000000000000000000000000000000000000000000000000000000000000000000000000000000000000000000000000000000000000000000",
      "type": "0x2",
      "transactionHash": "0x3bf44ad7fec33bb11620fb56851cb994762879c2e33539f26b2a13695238d65b",
      "transactionIndex": "0x1c",
      "blockHash": "0xa18fcec0a6c48218968a4efedbb59d46f1b0990c3402afe4212661d3a017c7da",
      "blockNumber": "0x19d44b5",
      "gasUsed": "0xb590",
      "effectiveGasPrice": "0x386",
      "from": "0xa6b3d200cd34ca14d7579dac8b054bf50a62c37c",
      "to": "0x6b988810b36ef0a9a99e7f4369ee1a8f009d2ad0",
      "contractAddress": null,
      "l1BaseFeeScalar": "0x44d",
      "l1BlobBaseFee": "0x1",
      "l1BlobBaseFeeScalar": "0xa118b",
      "l1Fee": "0x10176f",
      "l1GasPrice": "0x92251",
      "l1GasUsed": "0x640"
    },
    {
      "status": "0x1",
      "cumulativeGasUsed": "0x5770e0",
      "logs": [],
      "logsBloom": "0x00000000000000000000000000000000000000000000000000000000000000000000000000000000000000000000000000000000000000000000000000000000000000000000000000000000000000000000000000000000000000000000000000000000000000000000000000000000000000000000000000000000000000000000000000000000000000000000000000000000000000000000000000000000000000000000000000000000000000000000000000000000000000000000000000000000000000000000000000000000000000000000000000000000000000000000000000000000000000000000000000000000000000000000000000000000",
      "type": "0x2",
      "transactionHash": "0x43b97201bae603a9fd8eb7967f1db0b32210fff6ae44d6f0b764bdc2bc045234",
      "transactionIndex": "0x1d",
      "blockHash": "0xa18fcec0a6c48218968a4efedbb59d46f1b0990c3402afe4212661d3a017c7da",
      "blockNumber": "0x19d44b5",
      "gasUsed": "0xb551",
      "effectiveGasPrice": "0x386",
      "from": "0xa6b3d200cd34ca14d7579dac8b054bf50a62c37c",
      "to": "0x0a76f1098927f937a0ecfecfeb7dc0e8c1450d6d",
      "contractAddress": null,
      "l1BaseFeeScalar": "0x44d",
      "l1BlobBaseFee": "0x1",
      "l1BlobBaseFeeScalar": "0xa118b",
      "l1Fee": "0x10176f",
      "l1GasPrice": "0x92251",
      "l1GasUsed": "0x640"
    },
    {
      "status": "0x1",
      "cumulativeGasUsed": "0x58263b",
      "logs": [],
      "logsBloom": "0x00000000000000000000000000000000000000000000000000000000000000000000000000000000000000000000000000000000000000000000000000000000000000000000000000000000000000000000000000000000000000000000000000000000000000000000000000000000000000000000000000000000000000000000000000000000000000000000000000000000000000000000000000000000000000000000000000000000000000000000000000000000000000000000000000000000000000000000000000000000000000000000000000000000000000000000000000000000000000000000000000000000000000000000000000000000",
      "type": "0x2",
      "transactionHash": "0x7398939bccfac4a9c8192fdb113b57fed8f9bbf56be0a732c3ff52ec5d78ebc8",
      "transactionIndex": "0x1e",
      "blockHash": "0xa18fcec0a6c48218968a4efedbb59d46f1b0990c3402afe4212661d3a017c7da",
      "blockNumber": "0x19d44b5",
      "gasUsed": "0xb55b",
      "effectiveGasPrice": "0x386",
      "from": "0xa6b3d200cd34ca14d7579dac8b054bf50a62c37c",
      "to": "0xcf9a2974e1bd85f8feb5caef46ee70c4e834e73a",
      "contractAddress": null,
      "l1BaseFeeScalar": "0x44d",
      "l1BlobBaseFee": "0x1",
      "l1BlobBaseFeeScalar": "0xa118b",
      "l1Fee": "0x10176f",
      "l1GasPrice": "0x92251",
      "l1GasUsed": "0x640"
    },
    {
      "status": "0x1",
      "cumulativeGasUsed": "0x58dbda",
      "logs": [],
      "logsBloom": "0x00000000000000000000000000000000000000000000000000000000000000000000000000000000000000000000000000000000000000000000000000000000000000000000000000000000000000000000000000000000000000000000000000000000000000000000000000000000000000000000000000000000000000000000000000000000000000000000000000000000000000000000000000000000000000000000000000000000000000000000000000000000000000000000000000000000000000000000000000000000000000000000000000000000000000000000000000000000000000000000000000000000000000000000000000000000",
      "type": "0x2",
      "transactionHash": "0x6cafeb591c4af57513f70607822a8f3f32c5f42f51f824102b81c999b9fd17d4",
      "transactionIndex": "0x1f",
      "blockHash": "0xa18fcec0a6c48218968a4efedbb59d46f1b0990c3402afe4212661d3a017c7da",
      "blockNumber": "0x19d44b5",
      "gasUsed": "0xb59f",
      "effectiveGasPrice": "0x386",
      "from": "0xa6b3d200cd34ca14d7579dac8b054bf50a62c37c",
      "to": "0x976a64821261a4ffdc734ca0fe99236a7f36bbc2",
      "contractAddress": null,
      "l1BaseFeeScalar": "0x44d",
      "l1BlobBaseFee": "0x1",
      "l1BlobBaseFeeScalar": "0xa118b",
      "l1Fee": "0x10176f",
      "l1GasPrice": "0x92251",
      "l1GasUsed": "0x640"
    },
    {
      "status": "0x1",
      "cumulativeGasUsed": "0x59ee94",
      "logs": [
        {
          "address": "0x7a40195e0a74704c5c51f61afe9674074e0b27f4",
          "topics": [
            "0xddf252ad1be2c89b69c2b068fc378daa952ba7f163c4a11628f55a4df523b3ef",
            "0x0000000000000000000000000000000000000000000000000000000000000000",
            "0x000000000000000000000000a6b3d200cd34ca14d7579dac8b054bf50a62c37c"
          ],
          "data": "0x00000000000000000000000000000000000000000000000000000574fbde6000",
          "blockHash": "0xa18fcec0a6c48218968a4efedbb59d46f1b0990c3402afe4212661d3a017c7da",
          "blockNumber": "0x19d44b5",
          "transactionHash": "0x3c0ecaa091da77ec08626eb19d5c09bbbc70e5c425139ec6cfe216477c06b318",
          "transactionIndex": "0x20",
          "logIndex": "0x60",
          "removed": false
        }
      ],
      "logsBloom": "0x00000000000000000000000400000000000000000000000002000000000001000000000000000000000000000000000000000000000000000000000000000000000000000000000000000008000000000000000000000000000080000000000000000000020000000000000000000800000000000000000000000010000000000000000000000000000000000000000000000000000000000000000000000000000000000000000000000000000000000000000000000000000000000000000000000042000000080000000000000000000000000000000000000000000020000000000000000000000000000000000000000000000000000000000000000000",
      "type": "0x2",
      "transactionHash": "0x3c0ecaa091da77ec08626eb19d5c09bbbc70e5c425139ec6cfe216477c06b318",
      "transactionIndex": "0x20",
      "blockHash": "0xa18fcec0a6c48218968a4efedbb59d46f1b0990c3402afe4212661d3a017c7da",
      "blockNumber": "0x19d44b5",
      "gasUsed": "0x112ba",
      "effectiveGasPrice": "0x386",
      "from": "0xa6b3d200cd34ca14d7579dac8b054bf50a62c37c",
      "to": "0x7a40195e0a74704c5c51f61afe9674074e0b27f4",
      "contractAddress": null,
      "l1BaseFeeScalar": "0x44d",
      "l1BlobBaseFee": "0x1",
      "l1BlobBaseFeeScalar": "0xa118b",
      "l1Fee": "0x10176f",
      "l1GasPrice": "0x92251",
      "l1GasUsed": "0x640"
    },
    {
      "status": "0x1",
      "cumulativeGasUsed": "0x5aa223",
      "logs": [
        {
          "address": "0x7a40195e0a74704c5c51f61afe9674074e0b27f4",
          "topics": [
            "0x8c5be1e5ebec7d5bd14f71427d1e84f3dd0314c0f7b2291e5b200ac8c7c3b925",
            "0x000000000000000000000000a6b3d200cd34ca14d7579dac8b054bf50a62c37c",
            "0x0000000000000000000000009e1eca4c808a6f2872fe0882058adfb94b9997d6"
          ],
          "data": "0x00000000000000000000000000000000000000000000000000000574fbde6000",
          "blockHash": "0xa18fcec0a6c48218968a4efedbb59d46f1b0990c3402afe4212661d3a017c7da",
          "blockNumber": "0x19d44b5",
          "transactionHash": "0x34c57db18ff1d87ad898409a29ccb3787fefa59d594f4078dd731c98a0963679",
          "transactionIndex": "0x21",
          "logIndex": "0x61",
          "removed": false
        }
      ],
      "logsBloom": "0x00000000000000000000000400000000000000000000000002000000000001000000000000000000000000000000000000000000000000000000000000200000000000000000000040000000000000000000000000000000000080000000000000000000000000000000000000000000000000008000000000000000000000000000000000000000000000000000000000000000000000000000000000000000020000000000000000010000000000000000000000000000000000000000000000000040000000080000000000000000000000000000000000000000000000000010000000000000000000000000000000000000000000000000000000000000",
      "type": "0x2",
      "transactionHash": "0x34c57db18ff1d87ad898409a29ccb3787fefa59d594f4078dd731c98a0963679",
      "transactionIndex": "0x21",
      "blockHash": "0xa18fcec0a6c48218968a4efedbb59d46f1b0990c3402afe4212661d3a017c7da",
      "blockNumber": "0x19d44b5",
      "gasUsed": "0xb38f",
      "effectiveGasPrice": "0x386",
      "from": "0xa6b3d200cd34ca14d7579dac8b054bf50a62c37c",
      "to": "0x7a40195e0a74704c5c51f61afe9674074e0b27f4",
      "contractAddress": null,
      "l1BaseFeeScalar": "0x44d",
      "l1BlobBaseFee": "0x1",
      "l1BlobBaseFeeScalar": "0xa118b",
      "l1Fee": "0x10176f",
      "l1GasPrice": "0x92251",
      "l1GasUsed": "0x640"
    },
    {
      "status": "0x1",
      "cumulativeGasUsed": "0x5bfb77",
      "logs": [
        {
          "address": "0x7a40195e0a74704c5c51f61afe9674074e0b27f4",
          "topics": [
            "0xddf252ad1be2c89b69c2b068fc378daa952ba7f163c4a11628f55a4df523b3ef",
            "0x000000000000000000000000a6b3d200cd34ca14d7579dac8b054bf50a62c37c",
            "0x0000000000000000000000009e1eca4c808a6f2872fe0882058adfb94b9997d6"
          ],
          "data": "0x000000000000000000000000000000000000000000000000000000e8d4a51000",
          "blockHash": "0xa18fcec0a6c48218968a4efedbb59d46f1b0990c3402afe4212661d3a017c7da",
          "blockNumber": "0x19d44b5",
          "transactionHash": "0x814451e0ea9d7d5038a3ec1215026c4d37361d33f9fe99f77ec1be6ef7ad5b03",
          "transactionIndex": "0x22",
          "logIndex": "0x62",
          "removed": false
        },
        {
          "address": "0x9e1eca4c808a6f2872fe0882058adfb94b9997d6",
          "topics": [
            "0x603c893fe5a7abb065fd37be5d74b7570a708f31c5b02b409779f57f8ab59788",
            "0x88ef8906c27d3e6af98ad7a5cf53c31a771fadb410370749ce5bf0cdb279c3b6"
          ],
          "data": "0x000000000000000000000000000000000000000000000000000000e8d4a51000",
          "blockHash": "0xa18fcec0a6c48218968a4efedbb59d46f1b0990c3402afe4212661d3a017c7da",
          "blockNumber": "0x19d44b5",
          "transactionHash": "0x814451e0ea9d7d5038a3ec1215026c4d37361d33f9fe99f77ec1be6ef7ad5b03",
          "transactionIndex": "0x22",
          "logIndex": "0x63",
          "removed": false
        }
      ],
      "logsBloom": "0x20000000000000000000000400000000000000000000000002000000200001000000000000000000000000000000000000000000000000000002000000000000000000000000000040000008000000000000000000000000200080000000000000000080000000000000000000010000000000008000000000000010000000000000000800000000000000000000000000000000000000000000000000000000000000000000001000010000000000000000000000000000000000000000000000000042000000080000000000000000000000000000000000000000000000000000000000000000000000000000000000000000000002000000000000000000",
      "type": "0x2",
      "transactionHash": "0x814451e0ea9d7d5038a3ec1215026c4d37361d33f9fe99f77ec1be6ef7ad5b03",
      "transactionIndex": "0x22",
      "blockHash": "0xa18fcec0a6c48218968a4efedbb59d46f1b0990c3402afe4212661d3a017c7da",
      "blockNumber": "0x19d44b5",
      "gasUsed": "0x15954",
      "effectiveGasPrice": "0x386",
      "from": "0xa6b3d200cd34ca14d7579dac8b054bf50a62c37c",
      "to": "0x9e1eca4c808a6f2872fe0882058adfb94b9997d6",
      "contractAddress": null,
      "l1BaseFeeScalar": "0x44d",
      "l1BlobBaseFee": "0x1",
      "l1BlobBaseFeeScalar": "0xa118b",
      "l1Fee": "0x10176f",
      "l1GasPrice": "0x92251",
      "l1GasUsed": "0x640"
    },
    {
      "status": "0x1",
      "cumulativeGasUsed": "0x5d11ff",
      "logs": [
        {
          "address": "0x7a40195e0a74704c5c51f61afe9674074e0b27f4",
          "topics": [
            "0xddf252ad1be2c89b69c2b068fc378daa952ba7f163c4a11628f55a4df523b3ef",
            "0x000000000000000000000000a6b3d200cd34ca14d7579dac8b054bf50a62c37c",
            "0x0000000000000000000000009e1eca4c808a6f2872fe0882058adfb94b9997d6"
          ],
          "data": "0x000000000000000000000000000000000000000000000000000000e8d4a51000",
          "blockHash": "0xa18fcec0a6c48218968a4efedbb59d46f1b0990c3402afe4212661d3a017c7da",
          "blockNumber": "0x19d44b5",
          "transactionHash": "0x525c0b69c27aac546974d26fba4d5643627ea19bd8c30a6224b9cf49014385ca",
          "transactionIndex": "0x23",
          "logIndex": "0x64",
          "removed": false
        },
        {
          "address": "0x9e1eca4c808a6f2872fe0882058adfb94b9997d6",
          "topics": [
            "0x603c893fe5a7abb065fd37be5d74b7570a708f31c5b02b409779f57f8ab59788",
            "0x924cafe3f4668225141f2f2252ca17f67b629c2ff1426ac8ff340549f1266789"
          ],
          "data": "0x000000000000000000000000000000000000000000000000000000e8d4a51000",
          "blockHash": "0xa18fcec0a6c48218968a4efedbb59d46f1b0990c3402afe4212661d3a017c7da",
          "blockNumber": "0x19d44b5",
          "transactionHash": "0x525c0b69c27aac546974d26fba4d5643627ea19bd8c30a6224b9cf49014385ca",
          "transactionIndex": "0x23",
          "logIndex": "0x65",
          "removed": false
        }
      ],
      "logsBloom": "0x00000000000000000000000400000000000000000000000002000000200001000000000000000000000000000000000000000000000000000002000000000000000000000000000040000008000000000000000000000000000080000000000000000080000000000000000000010000000000008000000000000010000000000000000000000000000000000000000000000000000000000000000000000000000000000000009000010000000000000000000000000000000000000000000000000042000000080000000000000000000000000000000000000020000000000000080000000000000000000000000000000000000002000000000000000000",
      "type": "0x2",
      "transactionHash": "0x525c0b69c27aac546974d26fba4d5643627ea19bd8c30a6224b9cf49014385ca",
      "transactionIndex": "0x23",
      "blockHash": "0xa18fcec0a6c48218968a4efedbb59d46f1b0990c3402afe4212661d3a017c7da",
      "blockNumber": "0x19d44b5",
      "gasUsed": "0x11688",
      "effectiveGasPrice": "0x386",
      "from": "0xa6b3d200cd34ca14d7579dac8b054bf50a62c37c",
      "to": "0x9e1eca4c808a6f2872fe0882058adfb94b9997d6",
      "contractAddress": null,
      "l1BaseFeeScalar": "0x44d",
      "l1BlobBaseFee": "0x1",
      "l1BlobBaseFeeScalar": "0xa118b",
      "l1Fee": "0x10176f",
      "l1GasPrice": "0x92251",
      "l1GasUsed": "0x640"
    },
    {
      "status": "0x1",
      "cumulativeGasUsed": "0x5e2887",
      "logs": [
        {
          "address": "0x7a40195e0a74704c5c51f61afe9674074e0b27f4",
          "topics": [
            "0xddf252ad1be2c89b69c2b068fc378daa952ba7f163c4a11628f55a4df523b3ef",
            "0x000000000000000000000000a6b3d200cd34ca14d7579dac8b054bf50a62c37c",
            "0x0000000000000000000000009e1eca4c808a6f2872fe0882058adfb94b9997d6"
          ],
          "data": "0x000000000000000000000000000000000000000000000000000000e8d4a51000",
          "blockHash": "0xa18fcec0a6c48218968a4efedbb59d46f1b0990c3402afe4212661d3a017c7da",
          "blockNumber": "0x19d44b5",
          "transactionHash": "0x93970ef3212272931845bb7a52254fdf23c9f5ff9aa0d4aa3ee0f21cc2512d8a",
          "transactionIndex": "0x24",
          "logIndex": "0x66",
          "removed": false
        },
        {
          "address": "0x9e1eca4c808a6f2872fe0882058adfb94b9997d6",
          "topics": [
            "0x603c893fe5a7abb065fd37be5d74b7570a708f31c5b02b409779f57f8ab59788",
            "0xecfdf68dd313ee04cb77f5658c9ed69bbf41473da762b20d1b421a21de98fbb4"
          ],
          "data": "0x000000000000000000000000000000000000000000000000000000e8d4a51000",
          "blockHash": "0xa18fcec0a6c48218968a4efedbb59d46f1b0990c3402afe4212661d3a017c7da",
          "blockNumber": "0x19d44b5",
          "transactionHash": "0x93970ef3212272931845bb7a52254fdf23c9f5ff9aa0d4aa3ee0f21cc2512d8a",
          "transactionIndex": "0x24",
          "logIndex": "0x67",
          "removed": false
        }
      ],
      "logsBloom": "0x00000000000000000000000400000000000000000000000002000000200001000000000100000000000000000000000000000000000000000002000000000000000000000000000040000008000000000000000000000000000080000000000000000080000000000000000000010000000000008000000000000010000000000000000000000000000000000000000000000000000040000000000000000000000000000000001000010000000000000000000000000000000000000000000000000042000000080000000000000000000000008000000000000000000000000000000000000000000000000000000000000000000002000000000000000000",
      "type": "0x2",
      "transactionHash": "0x93970ef3212272931845bb7a52254fdf23c9f5ff9aa0d4aa3ee0f21cc2512d8a",
      "transactionIndex": "0x24",
      "blockHash": "0xa18fcec0a6c48218968a4efedbb59d46f1b0990c3402afe4212661d3a017c7da",
      "blockNumber": "0x19d44b5",
      "gasUsed": "0x11688",
      "effectiveGasPrice": "0x386",
      "from": "0xa6b3d200cd34ca14d7579dac8b054bf50a62c37c",
      "to": "0x9e1eca4c808a6f2872fe0882058adfb94b9997d6",
      "contractAddress": null,
      "l1BaseFeeScalar": "0x44d",
      "l1BlobBaseFee": "0x1",
      "l1BlobBaseFeeScalar": "0xa118b",
      "l1Fee": "0x10176f",
      "l1GasPrice": "0x92251",
      "l1GasUsed": "0x640"
    },
    {
      "status": "0x1",
      "cumulativeGasUsed": "0x5f3f0f",
      "logs": [
        {
          "address": "0x7a40195e0a74704c5c51f61afe9674074e0b27f4",
          "topics": [
            "0xddf252ad1be2c89b69c2b068fc378daa952ba7f163c4a11628f55a4df523b3ef",
            "0x000000000000000000000000a6b3d200cd34ca14d7579dac8b054bf50a62c37c",
            "0x0000000000000000000000009e1eca4c808a6f2872fe0882058adfb94b9997d6"
          ],
          "data": "0x000000000000000000000000000000000000000000000000000000e8d4a51000",
          "blockHash": "0xa18fcec0a6c48218968a4efedbb59d46f1b0990c3402afe4212661d3a017c7da",
          "blockNumber": "0x19d44b5",
          "transactionHash": "0x5be9edb72c47712985966257330ef112ad717279e44f2f3897408e370dc62f60",
          "transactionIndex": "0x25",
          "logIndex": "0x68",
          "removed": false
        },
        {
          "address": "0x9e1eca4c808a6f2872fe0882058adfb94b9997d6",
          "topics": [
            "0x603c893fe5a7abb065fd37be5d74b7570a708f31c5b02b409779f57f8ab59788",
            "0xe4cd8d210913bba3eedc531a84655dcd6fbb70f4d34730cf37a5e57a98b7d93b"
          ],
          "data": "0x000000000000000000000000000000000000000000000000000000e8d4a51000",
          "blockHash": "0xa18fcec0a6c48218968a4efedbb59d46f1b0990c3402afe4212661d3a017c7da",
          "blockNumber": "0x19d44b5",
          "transactionHash": "0x5be9edb72c47712985966257330ef112ad717279e44f2f3897408e370dc62f60",
          "transactionIndex": "0x25",
          "logIndex": "0x69",
          "removed": false
        }
      ],
      "logsBloom": "0x00000000000000000000000400000000000000000000000002000000200001000002000000000000000000000000000000000000000000000002000000000000000000000000000040000008000000000000000000000000000080000000000000000080000000000000000000010000000000008000000000000010000000000000000000000000000000000000000000000000000000000000000000000000000000000000041800010000000000000000000000000000000000000000000000000042000000080000000000000000000000000000000000000000000000000000000000000000000000000000000000000000000002000000000000000000",
      "type": "0x2",
      "transactionHash": "0x5be9edb72c47712985966257330ef112ad717279e44f2f3897408e370dc62f60",
      "transactionIndex": "0x25",
      "blockHash": "0xa18fcec0a6c48218968a4efedbb59d46f1b0990c3402afe4212661d3a017c7da",
      "blockNumber": "0x19d44b5",
      "gasUsed": "0x11688",
      "effectiveGasPrice": "0x386",
      "from": "0xa6b3d200cd34ca14d7579dac8b054bf50a62c37c",
      "to": "0x9e1eca4c808a6f2872fe0882058adfb94b9997d6",
      "contractAddress": null,
      "l1BaseFeeScalar": "0x44d",
      "l1BlobBaseFee": "0x1",
      "l1BlobBaseFeeScalar": "0xa118b",
      "l1Fee": "0x10176f",
      "l1GasPrice": "0x92251",
      "l1GasUsed": "0x640"
    },
    {
      "status": "0x1",
      "cumulativeGasUsed": "0x605597",
      "logs": [
        {
          "address": "0x7a40195e0a74704c5c51f61afe9674074e0b27f4",
          "topics": [
            "0xddf252ad1be2c89b69c2b068fc378daa952ba7f163c4a11628f55a4df523b3ef",
            "0x000000000000000000000000a6b3d200cd34ca14d7579dac8b054bf50a62c37c",
            "0x0000000000000000000000009e1eca4c808a6f2872fe0882058adfb94b9997d6"
          ],
          "data": "0x000000000000000000000000000000000000000000000000000000e8d4a51000",
          "blockHash": "0xa18fcec0a6c48218968a4efedbb59d46f1b0990c3402afe4212661d3a017c7da",
          "blockNumber": "0x19d44b5",
          "transactionHash": "0xf4f0a0ec5abdc3fe8b5d71634b258f0d472618d15a6a53669235d45f960c17a8",
          "transactionIndex": "0x26",
          "logIndex": "0x6a",
          "removed": false
        },
        {
          "address": "0x9e1eca4c808a6f2872fe0882058adfb94b9997d6",
          "topics": [
            "0x603c893fe5a7abb065fd37be5d74b7570a708f31c5b02b409779f57f8ab59788",
            "0x1314db6eea4458bbd4ff96565b0b2561ba3db9780cbdbded7e2df4230b8aa460"
          ],
          "data": "0x000000000000000000000000000000000000000000000000000000e8d4a51000",
          "blockHash": "0xa18fcec0a6c48218968a4efedbb59d46f1b0990c3402afe4212661d3a017c7da",
          "blockNumber": "0x19d44b5",
          "transactionHash": "0xf4f0a0ec5abdc3fe8b5d71634b258f0d472618d15a6a53669235d45f960c17a8",
          "transactionIndex": "0x26",
          "logIndex": "0x6b",
          "removed": false
        }
      ],
      "logsBloom": "0x00000000000000000000000400000000000000000000000002000000200001000000000000000000000000000000000000000000000000000002000000000000000000000000000040000008000000000000000000000000000080000000000000000080000000000040000000010000000000008000000000000010000000000000000000000000000000000000000000000000000000000000000000000000000000000000001000010000000080000000000000000000000000000000000000000042000000080000000000000000000000000000000000000000000000000000000000000000000000000000000000000000040002000000000000000000",
      "type": "0x2",
      "transactionHash": "0xf4f0a0ec5abdc3fe8b5d71634b258f0d472618d15a6a53669235d45f960c17a8",
      "transactionIndex": "0x26",
      "blockHash": "0xa18fcec0a6c48218968a4efedbb59d46f1b0990c3402afe4212661d3a017c7da",
      "blockNumber": "0x19d44b5",
      "gasUsed": "0x11688",
      "effectiveGasPrice": "0x386",
      "from": "0xa6b3d200cd34ca14d7579dac8b054bf50a62c37c",
      "to": "0x9e1eca4c808a6f2872fe0882058adfb94b9997d6",
      "contractAddress": null,
      "l1BaseFeeScalar": "0x44d",
      "l1BlobBaseFee": "0x1",
      "l1BlobBaseFeeScalar": "0xa118b",
      "l1Fee": "0x10176f",
      "l1GasPrice": "0x92251",
      "l1GasUsed": "0x640"
    },
    {
      "status": "0x1",
      "cumulativeGasUsed": "0x61469f",
      "logs": [
        {
          "address": "0x7a40195e0a74704c5c51f61afe9674074e0b27f4",
          "topics": [
            "0xddf252ad1be2c89b69c2b068fc378daa952ba7f163c4a11628f55a4df523b3ef",
            "0x000000000000000000000000a6b3d200cd34ca14d7579dac8b054bf50a62c37c",
            "0x0000000000000000000000009e1eca4c808a6f2872fe0882058adfb94b9997d6"
          ],
          "data": "0x000000000000000000000000000000000000000000000000000000e8d4a51000",
          "blockHash": "0xa18fcec0a6c48218968a4efedbb59d46f1b0990c3402afe4212661d3a017c7da",
          "blockNumber": "0x19d44b5",
          "transactionHash": "0x2cad5cea5fb260a8253274289fccb450a6c43cbe8ff5217c329e326682b79b17",
          "transactionIndex": "0x27",
          "logIndex": "0x6c",
          "removed": false
        },
        {
          "address": "0x9e1eca4c808a6f2872fe0882058adfb94b9997d6",
          "topics": [
            "0x603c893fe5a7abb065fd37be5d74b7570a708f31c5b02b409779f57f8ab59788",
            "0x1887cd0d242fb25ce3889259bf747a4bc6ac3eb3fe083aa1d14c660f7a59c3e2"
          ],
          "data": "0x000000000000000000000000000000000000000000000000000000e8d4a51000",
          "blockHash": "0xa18fcec0a6c48218968a4efedbb59d46f1b0990c3402afe4212661d3a017c7da",
          "blockNumber": "0x19d44b5",
          "transactionHash": "0x2cad5cea5fb260a8253274289fccb450a6c43cbe8ff5217c329e326682b79b17",
          "transactionIndex": "0x27",
          "logIndex": "0x6d",
          "removed": false
        }
      ],
      "logsBloom": "0x00000000000000000000000400000000000000000000000002000000200001000000000000000000000000000000000004000000000000000002000000000000000000000000000040000008000000000000000000000000000080000000000000000080000000000000000000010000000000008000000000000010000000000000000000000000000000000000000000000000000000002000000000000000000000000000001000010000000000000000000000000000000000000000000000000042000000080000000000000000000000000000000000000000000000000000000000000000000000000000080000000000000002000000000000000000",
      "type": "0x2",
      "transactionHash": "0x2cad5cea5fb260a8253274289fccb450a6c43cbe8ff5217c329e326682b79b17",
      "transactionIndex": "0x27",
      "blockHash": "0xa18fcec0a6c48218968a4efedbb59d46f1b0990c3402afe4212661d3a017c7da",
      "blockNumber": "0x19d44b5",
      "gasUsed": "0xf108",
      "effectiveGasPrice": "0x386",
      "from": "0xa6b3d200cd34ca14d7579dac8b054bf50a62c37c",
      "to": "0x9e1eca4c808a6f2872fe0882058adfb94b9997d6",
      "contractAddress": null,
      "l1BaseFeeScalar": "0x44d",
      "l1BlobBaseFee": "0x1",
      "l1BlobBaseFeeScalar": "0xa118b",
      "l1Fee": "0x10176f",
      "l1GasPrice": "0x92251",
      "l1GasUsed": "0x640"
    }
  ],
  "libraries": [],
  "pending": [],
  "returns": {},
  "timestamp": 1749936203,
  "chain": 84532,
  "commit": "bbff0ba"
}