{
  "transactions": [
    {
      "hash": "0x851f70ca02f5a90c83a3ec5542ddf693a5a5cedec8cc0635c3422cc08d66f4dd",
      "transactionType": "CALL",
      "contractName": null,
      "contractAddress": "0xdfd075c5eca0b01196d0440b3e67ca207924fc4b",
      "function": "approve(address,uint256)",
      "arguments": [
        "0xFcEFB29436323ABc3dE96B210E93Fe954080fB89",
        "2400000783"
      ],
      "transaction": {
        "from": "0xa6b3d200cd34ca14d7579dac8b054bf50a62c37c",
        "to": "0xdfd075c5eca0b01196d0440b3e67ca207924fc4b",
        "gas": "0xf7d3",
        "value": "0x0",
        "input": "0x095ea7b3000000000000000000000000fcefb29436323abc3de96b210e93fe954080fb89000000000000000000000000000000000000000000000000000000008f0d1b0f",
        "nonce": "0xdbd",
        "chainId": "0x14a34"
      },
      "additionalContracts": [],
      "isFixedGasLimit": false
    },
    {
      "hash": "0x0ae5b49540ae0504243cccec8fb1774d3ef1c382117cb7592df5b02a3dd7d344",
      "transactionType": "CALL",
      "contractName": null,
      "contractAddress": "0xfcefb29436323abc3de96b210e93fe954080fb89",
      "function": "updateInterest(uint256)",
      "arguments": [
        "1"
      ],
      "transaction": {
        "from": "0xa6b3d200cd34ca14d7579dac8b054bf50a62c37c",
        "to": "0xfcefb29436323abc3de96b210e93fe954080fb89",
        "gas": "0x1489c",
        "value": "0x0",
        "input": "0xfb092bba0000000000000000000000000000000000000000000000000000000000000001",
        "nonce": "0xdbe",
        "chainId": "0x14a34"
      },
      "additionalContracts": [],
      "isFixedGasLimit": false
    }
  ],
  "receipts": [
    {
      "status": "0x1",
      "cumulativeGasUsed": "0x57d538",
      "logs": [
        {
          "address": "0xdfd075c5eca0b01196d0440b3e67ca207924fc4b",
          "topics": [
            "0x8c5be1e5ebec7d5bd14f71427d1e84f3dd0314c0f7b2291e5b200ac8c7c3b925",
            "0x000000000000000000000000a6b3d200cd34ca14d7579dac8b054bf50a62c37c",
            "0x000000000000000000000000fcefb29436323abc3de96b210e93fe954080fb89"
          ],
          "data": "0x000000000000000000000000000000000000000000000000000000008f0d1b0f",
          "blockHash": "0x091e821697401fe374c88d280fa5fc8dc34cab5805faddbdcecada693c4fbab3",
          "blockNumber": "0x19ec227",
          "transactionHash": "0x851f70ca02f5a90c83a3ec5542ddf693a5a5cedec8cc0635c3422cc08d66f4dd",
          "transactionIndex": "0x16",
          "logIndex": "0x7f",
          "removed": false
        }
      ],
      "logsBloom": "0x00000000000000000000000400000080000000000800000002001000000000000000000000000000000000000000000000000000000000000000000000200000000000000000000000000000000000000000000000000000000000000000000000000000000000000000000000000000000000000000000000000000000000000000000000000000000000000000000000000000000000000000000000000000020000000000000000000000000000000000000000000000000000000000000000008040000000000000000000000000000000000000000000000000000000020010000000000000000000000000000000000000000000000800000000000000",
      "type": "0x2",
      "transactionHash": "0x851f70ca02f5a90c83a3ec5542ddf693a5a5cedec8cc0635c3422cc08d66f4dd",
      "transactionIndex": "0x16",
      "blockHash": "0x091e821697401fe374c88d280fa5fc8dc34cab5805faddbdcecada693c4fbab3",
      "blockNumber": "0x19ec227",
      "gasUsed": "0xb36d",
      "effectiveGasPrice": "0x341e8",
      "from": "0xa6b3d200cd34ca14d7579dac8b054bf50a62c37c",
      "to": "0xdfd075c5eca0b01196d0440b3e67ca207924fc4b",
      "contractAddress": null,
      "l1BaseFeeScalar": "0x44d",
      "l1BlobBaseFee": "0x1",
      "l1BlobBaseFeeScalar": "0xa118b",
      "l1Fee": "0x1449a3",
      "l1GasPrice": "0xb841b",
      "l1GasUsed": "0x640"
    },
    {
      "status": "0x1",
      "cumulativeGasUsed": "0x58b5e9",
      "logs": [
        {
          "address": "0xfcefb29436323abc3de96b210e93fe954080fb89",
          "topics": [
            "0x46ba83b1bb5d30bf76865a9c4d50e868ef6092e32e9dbca33926fe6d81c1a129",
            "0x0000000000000000000000000000000000000000000000000000000000000001"
          ],
          "data": "0x0000000000000000000000000000000000000000000000000000000000000335",
          "blockHash": "0x091e821697401fe374c88d280fa5fc8dc34cab5805faddbdcecada693c4fbab3",
          "blockNumber": "0x19ec227",
          "transactionHash": "0x0ae5b49540ae0504243cccec8fb1774d3ef1c382117cb7592df5b02a3dd7d344",
          "transactionIndex": "0x17",
          "logIndex": "0x80",
          "removed": false
        }
      ],
      "logsBloom": "0x00000000000000000000000000000000000000000000000000000000000002000000000000000000000000000000000000040000000000000000000000040000000000000000000000000000000000000000000000240000000000000000000000000000000000000000000000000000000000000000000000000100000000000000000000000000000000000000000000000000000000000000000000000000000000000000000000000000000000000000000000000000000000000000000000000000000000000000000000000000000008000000000000000000000040000000000000000000000000000000000000000000100000000000000000000000",
      "type": "0x2",
      "transactionHash": "0x0ae5b49540ae0504243cccec8fb1774d3ef1c382117cb7592df5b02a3dd7d344",
      "transactionIndex": "0x17",
      "blockHash": "0x091e821697401fe374c88d280fa5fc8dc34cab5805faddbdcecada693c4fbab3",
      "blockNumber": "0x19ec227",
      "gasUsed": "0xe0b1",
      "effectiveGasPrice": "0x341e8",
      "from": "0xa6b3d200cd34ca14d7579dac8b054bf50a62c37c",
      "to": "0xfcefb29436323abc3de96b210e93fe954080fb89",
      "contractAddress": null,
      "l1BaseFeeScalar": "0x44d",
      "l1BlobBaseFee": "0x1",
      "l1BlobBaseFeeScalar": "0xa118b",
      "l1Fee": "0x1449a3",
      "l1GasPrice": "0xb841b",
      "l1GasUsed": "0x640"
    }
  ],
  "libraries": [],
  "pending": [],
  "returns": {},
  "timestamp": 1750131502,
  "chain": 84532,
  "commit": "e3173ca"
}