{
  "transactions": [
    {
      "hash": "0xd57a1b02310177a45ff24129425ab919f78977f9641517641d67d5fac3bd0ba6",
      "transactionType": "CALL",
      "contractName": null,
      "contractAddress": "0x009a513d97e55c77060c303f74ee66a991bd3f08",
      "function": "approve(address,uint256)",
      "arguments": [
        "0xe2AA5803F1baD51f092650De840Ea79547F26b7d",
        "2000000659"
      ],
      "transaction": {
        "from": "0xa6b3d200cd34ca14d7579dac8b054bf50a62c37c",
        "to": "0x009a513d97e55c77060c303f74ee66a991bd3f08",
        "gas": "0xa4b8",
        "value": "0x0",
        "input": "0x095ea7b3000000000000000000000000e2aa5803f1bad51f092650de840ea79547f26b7d0000000000000000000000000000000000000000000000000000000077359693",
        "nonce": "0xd6f",
        "chainId": "0x14a34"
      },
      "additionalContracts": [],
      "isFixedGasLimit": false
    },
    {
      "hash": "0x5bb2dc7ce979e19c146901735e9d4e7a2a8b85bd09898dfe6a6de03805d738a5",
      "transactionType": "CALL",
      "contractName": null,
      "contractAddress": "0xe2aa5803f1bad51f092650de840ea79547f26b7d",
      "function": "updateInterest(uint256)",
      "arguments": [
        "3"
      ],
      "transaction": {
        "from": "0xa6b3d200cd34ca14d7579dac8b054bf50a62c37c",
        "to": "0xe2aa5803f1bad51f092650de840ea79547f26b7d",
        "gas": "0x1489c",
        "value": "0x0",
        "input": "0xfb092bba0000000000000000000000000000000000000000000000000000000000000003",
        "nonce": "0xd70",
        "chainId": "0x14a34"
      },
      "additionalContracts": [],
      "isFixedGasLimit": false
    }
  ],
  "receipts": [
    {
      "status": "0x1",
      "cumulativeGasUsed": "0x7856c1",
      "logs": [
        {
          "address": "0x009a513d97e55c77060c303f74ee66a991bd3f08",
          "topics": [
            "0x8c5be1e5ebec7d5bd14f71427d1e84f3dd0314c0f7b2291e5b200ac8c7c3b925",
            "0x000000000000000000000000a6b3d200cd34ca14d7579dac8b054bf50a62c37c",
            "0x000000000000000000000000e2aa5803f1bad51f092650de840ea79547f26b7d"
          ],
          "data": "0x0000000000000000000000000000000000000000000000000000000077359693",
          "blockHash": "0xbb66a1522ba99637b7e04bf7a51bce3e2295c95affab0914946bcd92d7028717",
          "blockNumber": "0x19ec006",
          "transactionHash": "0xd57a1b02310177a45ff24129425ab919f78977f9641517641d67d5fac3bd0ba6",
          "transactionIndex": "0x1e",
          "logIndex": "0xd0",
          "removed": false
        }
      ],
      "logsBloom": "0x00000000000000000000000400000000000000080000000002000000000000000000000000000000000000000000000000000000000000000000000000200000000000000000000000000000000000000000000000000000000000000000000000000000000000000000000000000000000000000000000000000000000000000000004000000000000000000200000000000000000000000000000000000000020000000000040000000000000000000000000000000000000000000000000000000040000000000000000000000000002000000000000020000000000000000010000000000000000000000000000000000000000000000000000000000000",
      "type": "0x2",
      "transactionHash": "0xd57a1b02310177a45ff24129425ab919f78977f9641517641d67d5fac3bd0ba6",
      "transactionIndex": "0x1e",
      "blockHash": "0xbb66a1522ba99637b7e04bf7a51bce3e2295c95affab0914946bcd92d7028717",
      "blockNumber": "0x19ec006",
      "gasUsed": "0x70a1",
      "effectiveGasPrice": "0x4f965",
      "from": "0xa6b3d200cd34ca14d7579dac8b054bf50a62c37c",
      "to": "0x009a513d97e55c77060c303f74ee66a991bd3f08",
      "contractAddress": null,
      "l1BaseFeeScalar": "0x44d",
      "l1BlobBaseFee": "0x1",
      "l1BlobBaseFeeScalar": "0xa118b",
      "l1Fee": "0x16e701",
      "l1GasPrice": "0xd0015",
      "l1GasUsed": "0x640"
    },
    {
      "status": "0x1",
      "cumulativeGasUsed": "0x793772",
      "logs": [
        {
          "address": "0xe2aa5803f1bad51f092650de840ea79547f26b7d",
          "topics": [
            "0x46ba83b1bb5d30bf76865a9c4d50e868ef6092e32e9dbca33926fe6d81c1a129",
            "0x0000000000000000000000000000000000000000000000000000000000000003"
          ],
          "data": "0x00000000000000000000000000000000000000000000000000000000000002f9",
          "blockHash": "0xbb66a1522ba99637b7e04bf7a51bce3e2295c95affab0914946bcd92d7028717",
          "blockNumber": "0x19ec006",
          "transactionHash": "0x5bb2dc7ce979e19c146901735e9d4e7a2a8b85bd09898dfe6a6de03805d738a5",
          "transactionIndex": "0x1f",
          "logIndex": "0xd1",
          "removed": false
        }
      ],
      "logsBloom": "0x00000000000000000000000000000000000000000000000000000000000000000000000000000000000000000000000000040000020000000000000000000000000000000000000000000000000002000000000000200000000000000000000000000000000000000000000000000000000000000000000000000100000000000000000000000000000000000000000000000000000000000002000000000000000000000000000000000000002000000000000000800000000000000000400000000000000000000000000000000000000000000000000000000000000000000000000000000000000000000000000000000000000000000000000000000000",
      "type": "0x2",
      "transactionHash": "0x5bb2dc7ce979e19c146901735e9d4e7a2a8b85bd09898dfe6a6de03805d738a5",
      "transactionIndex": "0x1f",
      "blockHash": "0xbb66a1522ba99637b7e04bf7a51bce3e2295c95affab0914946bcd92d7028717",
      "blockNumber": "0x19ec006",
      "gasUsed": "0xe0b1",
      "effectiveGasPrice": "0x4f965",
      "from": "0xa6b3d200cd34ca14d7579dac8b054bf50a62c37c",
      "to": "0xe2aa5803f1bad51f092650de840ea79547f26b7d",
      "contractAddress": null,
      "l1BaseFeeScalar": "0x44d",
      "l1BlobBaseFee": "0x1",
      "l1BlobBaseFeeScalar": "0xa118b",
      "l1Fee": "0x16e701",
      "l1GasPrice": "0xd0015",
      "l1GasUsed": "0x640"
    }
  ],
  "libraries": [],
  "pending": [],
  "returns": {},
  "timestamp": 1750130414,
  "chain": 84532,
  "commit": "e3173ca"
}