{
  "transactions": [
    {
      "hash": "0x22b856d16e38329c03e1544f6daf125e32d2b8a1b61c8c8e541559e0c9ce683c",
      "transactionType": "CALL",
      "contractName": "MockETH",
      "contractAddress": "0x87bb55de00f7d2791dbf3461a110d99bb47cf62f",
      "function": "mint(address,uint256)",
      "arguments": [
        "0xA6B3D200cD34ca14d7579DAc8B054bf50a62c37c",
        "100000000000000000000"
      ],
      "transaction": {
        "from": "0xa6b3d200cd34ca14d7579dac8b054bf50a62c37c",
        "to": "0x87bb55de00f7d2791dbf3461a110d99bb47cf62f",
        "gas": "0xc1a6",
        "value": "0x0",
        "input": "0x40c10f19000000000000000000000000a6b3d200cd34ca14d7579dac8b054bf50a62c37c0000000000000000000000000000000000000000000000056bc75e2d63100000",
        "nonce": "0xbbb",
        "chainId": "0x14a34"
      },
      "additionalContracts": [],
      "isFixedGasLimit": false
    },
    {
      "hash": "0xff500d11d4fb4cec8ee64dc2a7b825c7cd96d1605a95ccdbc6e9bd45504d2e35",
      "transactionType": "CALL",
      "contractName": null,
      "contractAddress": "0xcbec2caa97a660434aa5420d667b3f1e60e2c17b",
      "function": "mint(address,uint256)",
      "arguments": [
        "0xA6B3D200cD34ca14d7579DAc8B054bf50a62c37c",
        "1000000000000"
      ],
      "transaction": {
        "from": "0xa6b3d200cd34ca14d7579dac8b054bf50a62c37c",
        "to": "0xcbec2caa97a660434aa5420d667b3f1e60e2c17b",
        "gas": "0xb6b2",
        "value": "0x0",
        "input": "0x40c10f19000000000000000000000000a6b3d200cd34ca14d7579dac8b054bf50a62c37c000000000000000000000000000000000000000000000000000000e8d4a51000",
        "nonce": "0xbbc",
        "chainId": "0x14a34"
      },
      "additionalContracts": [],
      "isFixedGasLimit": false
    },
    {
      "hash": "0x16d6e5060b6fe986e704c78191a9c2e9ca336604d8190c373e365f86bb6337f8",
      "transactionType": "CALL",
      "contractName": "MockETH",
      "contractAddress": "0x87bb55de00f7d2791dbf3461a110d99bb47cf62f",
      "function": "approve(address,uint256)",
      "arguments": [
        "0xbD2329ad3cCcc4932B847014572F429bc8B4b2f5",
        "5000000000000000000"
      ],
      "transaction": {
        "from": "0xa6b3d200cd34ca14d7579dac8b054bf50a62c37c",
        "to": "0x87bb55de00f7d2791dbf3461a110d99bb47cf62f",
        "gas": "0xf7f5",
        "value": "0x0",
        "input": "0x095ea7b3000000000000000000000000bd2329ad3cccc4932b847014572f429bc8b4b2f50000000000000000000000000000000000000000000000004563918244f40000",
        "nonce": "0xbbd",
        "chainId": "0x14a34"
      },
      "additionalContracts": [],
      "isFixedGasLimit": false
    },
    {
      "hash": "0xddcb0ad4863eebcb14b2e54dd7b6affbda4ecb03ae8f5f6217df1ddee023f4b4",
      "transactionType": "CALL",
      "contractName": null,
      "contractAddress": "0xbd2329ad3cccc4932b847014572f429bc8b4b2f5",
      "function": "createRiskyPosition(address,address,address,uint256,uint256,address)",
      "arguments": [
        "0xF8724317315B1BA8ac1a0f30Ac407e9fCf20442B",
        "0x87bb55de00f7D2791dbF3461A110D99bB47cF62F",
        "0xcbeC2cAa97A660434aA5420d667b3f1e60E2C17B",
        "5000000000000000000",
        "12000000000",
        "0xA6B3D200cD34ca14d7579DAc8B054bf50a62c37c"
      ],
      "transaction": {
        "from": "0xa6b3d200cd34ca14d7579dac8b054bf50a62c37c",
        "to": "0xbd2329ad3cccc4932b847014572f429bc8b4b2f5",
        "gas": "0xbc5f4",
        "value": "0x0",
        "input": "0x1d9563a9000000000000000000000000f8724317315b1ba8ac1a0f30ac407e9fcf20442b00000000000000000000000087bb55de00f7d2791dbf3461a110d99bb47cf62f000000000000000000000000cbec2caa97a660434aa5420d667b3f1e60e2c17b0000000000000000000000000000000000000000000000004563918244f4000000000000000000000000000000000000000000000000000000000002cb417800000000000000000000000000a6b3d200cd34ca14d7579dac8b054bf50a62c37c",
        "nonce": "0xbbe",
        "chainId": "0x14a34"
      },
      "additionalContracts": [],
      "isFixedGasLimit": false
    },
    {
      "hash": "0x8c688d2629473e9c5b49fa13cc3e690a493ab273933faedf4c7f47916af8a000",
      "transactionType": "CALL",
      "contractName": null,
      "contractAddress": "0xbd2329ad3cccc4932b847014572f429bc8b4b2f5",
      "function": "accrueInterest(address,uint256)",
      "arguments": [
        "0xF8724317315B1BA8ac1a0f30Ac407e9fCf20442B",
        "1"
      ],
      "transaction": {
        "from": "0xa6b3d200cd34ca14d7579dac8b054bf50a62c37c",
        "to": "0xbd2329ad3cccc4932b847014572f429bc8b4b2f5",
        "gas": "0xa297",
        "value": "0x0",
        "input": "0x7c9d1cce000000000000000000000000f8724317315b1ba8ac1a0f30ac407e9fcf20442b0000000000000000000000000000000000000000000000000000000000000001",
        "nonce": "0xbbf",
        "chainId": "0x14a34"
      },
      "additionalContracts": [],
      "isFixedGasLimit": false
    }
  ],
  "receipts": [
    {
      "status": "0x1",
      "cumulativeGasUsed": "0x4eb9d0",
      "logs": [
        {
          "address": "0x87bb55de00f7d2791dbf3461a110d99bb47cf62f",
          "topics": [
            "0xddf252ad1be2c89b69c2b068fc378daa952ba7f163c4a11628f55a4df523b3ef",
            "0x0000000000000000000000000000000000000000000000000000000000000000",
            "0x000000000000000000000000a6b3d200cd34ca14d7579dac8b054bf50a62c37c"
          ],
          "data": "0x0000000000000000000000000000000000000000000000056bc75e2d63100000",
          "blockHash": "0xfc6625a223edd78f3ef0e0990b151b4b7df4035fcfa65c9f1b40e59b3a623567",
          "blockNumber": "0x19ea518",
          "transactionHash": "0x22b856d16e38329c03e1544f6daf125e32d2b8a1b61c8c8e541559e0c9ce683c",
          "transactionIndex": "0x14",
          "logIndex": "0xa8",
          "removed": false
        }
      ],
      "logsBloom": "0x00000000000200000000000400000000000000000000000002000000000000000000000000000000000000000000000000000000000000000000000000000000000000000000000000000008000000000000000000000000000000000000000000000000020000000000000000000800000000000000000000000010000000000000000000000000000000000000080000000000000000000000000000000000000000000000000000000000000000000000000000000000000000000000000000000042000000000000000000000000000000000000000000000000000020000000000001000000000000000000000000000000000000000000000000000000",
      "type": "0x2",
      "transactionHash": "0x22b856d16e38329c03e1544f6daf125e32d2b8a1b61c8c8e541559e0c9ce683c",
      "transactionIndex": "0x14",
      "blockHash": "0xfc6625a223edd78f3ef0e0990b151b4b7df4035fcfa65c9f1b40e59b3a623567",
      "blockNumber": "0x19ea518",
      "gasUsed": "0x8469",
      "effectiveGasPrice": "0x1c234",
      "from": "0xa6b3d200cd34ca14d7579dac8b054bf50a62c37c",
      "to": "0x87bb55de00f7d2791dbf3461a110d99bb47cf62f",
      "contractAddress": null,
      "l1BaseFeeScalar": "0x44d",
      "l1BlobBaseFee": "0x1",
      "l1BlobBaseFeeScalar": "0xa118b",
      "l1Fee": "0x14891",
      "l1GasPrice": "0xba5f",
      "l1GasUsed": "0x640"
    },
    {
      "status": "0x1",
      "cumulativeGasUsed": "0x3fbf9",
      "logs": [
        {
          "address": "0xcbec2caa97a660434aa5420d667b3f1e60e2c17b",
          "topics": [
            "0xddf252ad1be2c89b69c2b068fc378daa952ba7f163c4a11628f55a4df523b3ef",
            "0x0000000000000000000000000000000000000000000000000000000000000000",
            "0x000000000000000000000000a6b3d200cd34ca14d7579dac8b054bf50a62c37c"
          ],
          "data": "0x000000000000000000000000000000000000000000000000000000e8d4a51000",
          "blockHash": "0x24a89a1e71c30454928baf64a8848220b2f4591e02da8c3ed8c53bb3614b6505",
          "blockNumber": "0x19ea519",
          "transactionHash": "0xff500d11d4fb4cec8ee64dc2a7b825c7cd96d1605a95ccdbc6e9bd45504d2e35",
          "transactionIndex": "0x3",
          "logIndex": "0x3",
          "removed": false
        }
      ],
      "logsBloom": "0x00000000008000000000000400000000000000000000000002000000000000000000000000000000000000000000000000000000000000000000000000000000000000000000000000000008000400000000000000000000000000000000000000000000020000000000000000000800000000000000000000000010000000000000000000000000000000000000000000000000000000000000000000000000000000000000000000000000000000000000000000000000000000000000000000000042000000000000000000000000000000000000000000000000000020000000000400000000000000000000000000000000000000000000000000000000",
      "type": "0x2",
      "transactionHash": "0xff500d11d4fb4cec8ee64dc2a7b825c7cd96d1605a95ccdbc6e9bd45504d2e35",
      "transactionIndex": "0x3",
      "blockHash": "0x24a89a1e71c30454928baf64a8848220b2f4591e02da8c3ed8c53bb3614b6505",
      "blockNumber": "0x19ea519",
      "gasUsed": "0x8445",
      "effectiveGasPrice": "0x1c234",
      "from": "0xa6b3d200cd34ca14d7579dac8b054bf50a62c37c",
      "to": "0xcbec2caa97a660434aa5420d667b3f1e60e2c17b",
      "contractAddress": null,
      "l1BaseFeeScalar": "0x44d",
      "l1BlobBaseFee": "0x1",
      "l1BlobBaseFeeScalar": "0xa118b",
      "l1Fee": "0x14891",
      "l1GasPrice": "0xba5f",
      "l1GasUsed": "0x640"
    },
    {
      "status": "0x1",
      "cumulativeGasUsed": "0x4af7e",
      "logs": [
        {
          "address": "0x87bb55de00f7d2791dbf3461a110d99bb47cf62f",
          "topics": [
            "0x8c5be1e5ebec7d5bd14f71427d1e84f3dd0314c0f7b2291e5b200ac8c7c3b925",
            "0x000000000000000000000000a6b3d200cd34ca14d7579dac8b054bf50a62c37c",
            "0x000000000000000000000000bd2329ad3cccc4932b847014572f429bc8b4b2f5"
          ],
          "data": "0x0000000000000000000000000000000000000000000000004563918244f40000",
          "blockHash": "0x24a89a1e71c30454928baf64a8848220b2f4591e02da8c3ed8c53bb3614b6505",
          "blockNumber": "0x19ea519",
          "transactionHash": "0x16d6e5060b6fe986e704c78191a9c2e9ca336604d8190c373e365f86bb6337f8",
          "transactionIndex": "0x4",
          "logIndex": "0x4",
          "removed": false
        }
      ],
      "logsBloom": "0x00000000000200000000000400000000000000000000000002000000000000000000000000000000000000000000000000000000000000000000000000200000000000000000000000000000000000000000000000000000000000000000000000000000000000000000000000000000400000000000000000000000000000000000000000000000000000000000080000000000000000000000000000000000020000000000000000000000000000000000000000000000000000000000004000000040000000000000000000000000400000000000000000000000000000000010000001000000000000000000000000000000000000000000000000000000",
      "type": "0x2",
      "transactionHash": "0x16d6e5060b6fe986e704c78191a9c2e9ca336604d8190c373e365f86bb6337f8",
      "transactionIndex": "0x4",
      "blockHash": "0x24a89a1e71c30454928baf64a8848220b2f4591e02da8c3ed8c53bb3614b6505",
      "blockNumber": "0x19ea519",
      "gasUsed": "0xb385",
      "effectiveGasPrice": "0x1c234",
      "from": "0xa6b3d200cd34ca14d7579dac8b054bf50a62c37c",
      "to": "0x87bb55de00f7d2791dbf3461a110d99bb47cf62f",
      "contractAddress": null,
      "l1BaseFeeScalar": "0x44d",
      "l1BlobBaseFee": "0x1",
      "l1BlobBaseFeeScalar": "0xa118b",
      "l1Fee": "0x14891",
      "l1GasPrice": "0xba5f",
      "l1GasUsed": "0x640"
    },
    {
      "status": "0x1",
      "cumulativeGasUsed": "0xd358b",
      "logs": [
        {
          "address": "0x87bb55de00f7d2791dbf3461a110d99bb47cf62f",
          "topics": [
            "0xddf252ad1be2c89b69c2b068fc378daa952ba7f163c4a11628f55a4df523b3ef",
            "0x000000000000000000000000a6b3d200cd34ca14d7579dac8b054bf50a62c37c",
            "0x000000000000000000000000bd2329ad3cccc4932b847014572f429bc8b4b2f5"
          ],
          "data": "0x0000000000000000000000000000000000000000000000004563918244f40000",
          "blockHash": "0x24a89a1e71c30454928baf64a8848220b2f4591e02da8c3ed8c53bb3614b6505",
          "blockNumber": "0x19ea519",
          "transactionHash": "0xddcb0ad4863eebcb14b2e54dd7b6affbda4ecb03ae8f5f6217df1ddee023f4b4",
          "transactionIndex": "0x5",
          "logIndex": "0x5",
          "removed": false
        },
        {
          "address": "0x87bb55de00f7d2791dbf3461a110d99bb47cf62f",
          "topics": [
            "0x8c5be1e5ebec7d5bd14f71427d1e84f3dd0314c0f7b2291e5b200ac8c7c3b925",
            "0x000000000000000000000000bd2329ad3cccc4932b847014572f429bc8b4b2f5",
            "0x000000000000000000000000f8724317315b1ba8ac1a0f30ac407e9fcf20442b"
          ],
          "data": "0x0000000000000000000000000000000000000000000000004563918244f40000",
          "blockHash": "0x24a89a1e71c30454928baf64a8848220b2f4591e02da8c3ed8c53bb3614b6505",
          "blockNumber": "0x19ea519",
          "transactionHash": "0xddcb0ad4863eebcb14b2e54dd7b6affbda4ecb03ae8f5f6217df1ddee023f4b4",
          "transactionIndex": "0x5",
          "logIndex": "0x6",
          "removed": false
        },
        {
          "address": "0x87bb55de00f7d2791dbf3461a110d99bb47cf62f",
          "topics": [
            "0xddf252ad1be2c89b69c2b068fc378daa952ba7f163c4a11628f55a4df523b3ef",
            "0x000000000000000000000000bd2329ad3cccc4932b847014572f429bc8b4b2f5",
            "0x000000000000000000000000f8724317315b1ba8ac1a0f30ac407e9fcf20442b"
          ],
          "data": "0x0000000000000000000000000000000000000000000000004563918244f40000",
          "blockHash": "0x24a89a1e71c30454928baf64a8848220b2f4591e02da8c3ed8c53bb3614b6505",
          "blockNumber": "0x19ea519",
          "transactionHash": "0xddcb0ad4863eebcb14b2e54dd7b6affbda4ecb03ae8f5f6217df1ddee023f4b4",
          "transactionIndex": "0x5",
          "logIndex": "0x7",
          "removed": false
        },
        {
          "address": "0xcbec2caa97a660434aa5420d667b3f1e60e2c17b",
          "topics": [
            "0xddf252ad1be2c89b69c2b068fc378daa952ba7f163c4a11628f55a4df523b3ef",
            "0x000000000000000000000000c25d6a1e7878e32acab67080bf5a3973e061caec",
            "0x000000000000000000000000bd2329ad3cccc4932b847014572f429bc8b4b2f5"
          ],
          "data": "0x00000000000000000000000000000000000000000000000000000002cb417800",
          "blockHash": "0x24a89a1e71c30454928baf64a8848220b2f4591e02da8c3ed8c53bb3614b6505",
          "blockNumber": "0x19ea519",
          "transactionHash": "0xddcb0ad4863eebcb14b2e54dd7b6affbda4ecb03ae8f5f6217df1ddee023f4b4",
          "transactionIndex": "0x5",
          "logIndex": "0x8",
          "removed": false
        },
        {
          "address": "0xc25d6a1e7878e32acab67080bf5a3973e061caec",
          "topics": [
            "0x385feb58578c31f205b503905da1dec4c110dcdaac4a0dc43be298cae636307f",
            "0x000000000000000000000000cbec2caa97a660434aa5420d667b3f1e60e2c17b"
          ],
          "data": "0x000000000000000000000000000000000000000000000000000000000000bb80",
          "blockHash": "0x24a89a1e71c30454928baf64a8848220b2f4591e02da8c3ed8c53bb3614b6505",
          "blockNumber": "0x19ea519",
          "transactionHash": "0xddcb0ad4863eebcb14b2e54dd7b6affbda4ecb03ae8f5f6217df1ddee023f4b4",
          "transactionIndex": "0x5",
          "logIndex": "0x9",
          "removed": false
        },
        {
          "address": "0xc25d6a1e7878e32acab67080bf5a3973e061caec",
          "topics": [
            "0xb088e70ab7e367eb8a026f0cf73edc838746f0f9761c510260ff489070d7b3c8",
            "0x000000000000000000000000cbec2caa97a660434aa5420d667b3f1e60e2c17b",
            "0x000000000000000000000000bd2329ad3cccc4932b847014572f429bc8b4b2f5"
          ],
          "data": "0x00000000000000000000000000000000000000000000000000000002cb417800",
          "blockHash": "0x24a89a1e71c30454928baf64a8848220b2f4591e02da8c3ed8c53bb3614b6505",
          "blockNumber": "0x19ea519",
          "transactionHash": "0xddcb0ad4863eebcb14b2e54dd7b6affbda4ecb03ae8f5f6217df1ddee023f4b4",
          "transactionIndex": "0x5",
          "logIndex": "0xa",
          "removed": false
        },
        {
          "address": "0x934250c921597af3827777a9faaded879ca82126",
          "topics": [
            "0x9f0a7aaf8d18c024e8123bdcd157b0f6e0f42892a4ea14a2becc88a320a79922",
            "0x924cafe3f4668225141f2f2252ca17f67b629c2ff1426ac8ff340549f1266789",
            "0x000000000000000000000000bd2329ad3cccc4932b847014572f429bc8b4b2f5"
          ],
          "data": "0x0000000000000000000000000000000000000000000000004563918244f400000000000000000000000000000000000000000000000000000000000000000001",
          "blockHash": "0x24a89a1e71c30454928baf64a8848220b2f4591e02da8c3ed8c53bb3614b6505",
          "blockNumber": "0x19ea519",
          "transactionHash": "0xddcb0ad4863eebcb14b2e54dd7b6affbda4ecb03ae8f5f6217df1ddee023f4b4",
          "transactionIndex": "0x5",
          "logIndex": "0xb",
          "removed": false
        },
        {
          "address": "0xf8724317315b1ba8ac1a0f30ac407e9fcf20442b",
          "topics": [
            "0xcb5aa1675878bc9c8edd5d4265b7e06610564c809ed69560d24f5f284dd8c44b",
            "0x000000000000000000000000bd2329ad3cccc4932b847014572f429bc8b4b2f5"
          ],
          "data": "0x0000000000000000000000000000000000000000000000004563918244f40000924cafe3f4668225141f2f2252ca17f67b629c2ff1426ac8ff340549f1266789",
          "blockHash": "0x24a89a1e71c30454928baf64a8848220b2f4591e02da8c3ed8c53bb3614b6505",
          "blockNumber": "0x19ea519",
          "transactionHash": "0xddcb0ad4863eebcb14b2e54dd7b6affbda4ecb03ae8f5f6217df1ddee023f4b4",
          "transactionIndex": "0x5",
          "logIndex": "0xc",
          "removed": false
        },
        {
          "address": "0xf8724317315b1ba8ac1a0f30ac407e9fcf20442b",
          "topics": [
            "0x3c173f34da0900ded1a250c99de3d58cb900ce2841d93b11d877afee8b077a48",
            "0x0000000000000000000000000000000000000000000000000000000000000001",
            "0x000000000000000000000000bd2329ad3cccc4932b847014572f429bc8b4b2f5"
          ],
          "data": "0x00000000000000000000000087bb55de00f7d2791dbf3461a110d99bb47cf62f000000000000000000000000cbec2caa97a660434aa5420d667b3f1e60e2c17b0000000000000000000000000000000000000000000000004563918244f4000000000000000000000000000000000000000000000000000000000002cb417800",
          "blockHash": "0x24a89a1e71c30454928baf64a8848220b2f4591e02da8c3ed8c53bb3614b6505",
          "blockNumber": "0x19ea519",
          "transactionHash": "0xddcb0ad4863eebcb14b2e54dd7b6affbda4ecb03ae8f5f6217df1ddee023f4b4",
          "transactionIndex": "0x5",
          "logIndex": "0xd",
          "removed": false
        },
        {
          "address": "0xcbec2caa97a660434aa5420d667b3f1e60e2c17b",
          "topics": [
            "0xddf252ad1be2c89b69c2b068fc378daa952ba7f163c4a11628f55a4df523b3ef",
            "0x000000000000000000000000bd2329ad3cccc4932b847014572f429bc8b4b2f5",
            "0x000000000000000000000000a6b3d200cd34ca14d7579dac8b054bf50a62c37c"
          ],
          "data": "0x00000000000000000000000000000000000000000000000000000002cb417800",
          "blockHash": "0x24a89a1e71c30454928baf64a8848220b2f4591e02da8c3ed8c53bb3614b6505",
          "blockNumber": "0x19ea519",
          "transactionHash": "0xddcb0ad4863eebcb14b2e54dd7b6affbda4ecb03ae8f5f6217df1ddee023f4b4",
          "transactionIndex": "0x5",
          "logIndex": "0xe",
          "removed": false
        },
        {
          "address": "0xbd2329ad3cccc4932b847014572f429bc8b4b2f5",
          "topics": [
            "0xf091b3222b8b47f0620d74674778cbab45440b1507aed82531cf4027e4db8f00",
            "0x000000000000000000000000f8724317315b1ba8ac1a0f30ac407e9fcf20442b",
            "0x0000000000000000000000000000000000000000000000000000000000000001"
          ],
          "data": "0x000000000000000000000000a6b3d200cd34ca14d7579dac8b054bf50a62c37c",
          "blockHash": "0x24a89a1e71c30454928baf64a8848220b2f4591e02da8c3ed8c53bb3614b6505",
          "blockNumber": "0x19ea519",
          "transactionHash": "0xddcb0ad4863eebcb14b2e54dd7b6affbda4ecb03ae8f5f6217df1ddee023f4b4",
          "transactionIndex": "0x5",
          "logIndex": "0xf",
          "removed": false
        }
      ],
      "logsBloom": "0x00000000008200000000000400000008010000000000000202000000080000000000000002000000000000000010000000002000000010000000000000240000000000000000000000010008000400008000000000041000000010000000000000000008300100000080000000041200400000000c000000000080300000000000000080000000000000000000000c0000040000000000040000000010000000020000000040008000000000000000000000008000000000000000000080004000000042000000000000000000000000400000400000000004000020010040000010082401000000000000000000000002800000000000000000000000200000",
      "type": "0x2",
      "transactionHash": "0xddcb0ad4863eebcb14b2e54dd7b6affbda4ecb03ae8f5f6217df1ddee023f4b4",
      "transactionIndex": "0x5",
      "blockHash": "0x24a89a1e71c30454928baf64a8848220b2f4591e02da8c3ed8c53bb3614b6505",
      "blockNumber": "0x19ea519",
      "gasUsed": "0x8860d",
      "effectiveGasPrice": "0x1c234",
      "from": "0xa6b3d200cd34ca14d7579dac8b054bf50a62c37c",
      "to": "0xbd2329ad3cccc4932b847014572f429bc8b4b2f5",
      "contractAddress": null,
      "l1BaseFeeScalar": "0x44d",
      "l1BlobBaseFee": "0x1",
      "l1BlobBaseFeeScalar": "0xa118b",
      "l1Fee": "0x21af3",
      "l1GasPrice": "0xba5f",
      "l1GasUsed": "0xa40"
    },
    {
      "status": "0x1",
      "cumulativeGasUsed": "0xdab42",
      "logs": [],
      "logsBloom": "0x00000000000000000000000000000000000000000000000000000000000000000000000000000000000000000000000000000000000000000000000000000000000000000000000000000000000000000000000000000000000000000000000000000000000000000000000000000000000000000000000000000000000000000000000000000000000000000000000000000000000000000000000000000000000000000000000000000000000000000000000000000000000000000000000000000000000000000000000000000000000000000000000000000000000000000000000000000000000000000000000000000000000000000000000000000000",
      "type": "0x2",
      "transactionHash": "0x8c688d2629473e9c5b49fa13cc3e690a493ab273933faedf4c7f47916af8a000",
      "transactionIndex": "0x6",
      "blockHash": "0x24a89a1e71c30454928baf64a8848220b2f4591e02da8c3ed8c53bb3614b6505",
      "blockNumber": "0x19ea519",
      "gasUsed": "0x75b7",
      "effectiveGasPrice": "0x1c234",
      "from": "0xa6b3d200cd34ca14d7579dac8b054bf50a62c37c",
      "to": "0xbd2329ad3cccc4932b847014572f429bc8b4b2f5",
      "contractAddress": null,
      "l1BaseFeeScalar": "0x44d",
      "l1BlobBaseFee": "0x1",
      "l1BlobBaseFeeScalar": "0xa118b",
      "l1Fee": "0x14891",
      "l1GasPrice": "0xba5f",
      "l1GasUsed": "0x640"
    }
  ],
  "libraries": [],
  "pending": [],
  "returns": {},
  "timestamp": 1750116627,
  "chain": 84532,
  "commit": "e3173ca"
}