{
  "transactions": [
    {
      "hash": "0x438241026eaa8f75298ce24a337febd7a06b087837cefc6765be3ade191963a6",
      "transactionType": "CALL",
      "contractName": null,
      "contractAddress": "0x388f7d72fd879725e40d893fc1b5455036c7fd19",
      "function": "approve(address,uint256)",
      "arguments": [
        "0xe2AA5803F1baD51f092650De840Ea79547F26b7d",
        "115792089237316195423570985008687907853269984665640564039457584007913129639935"
      ],
      "transaction": {
        "from": "0xa6b3d200cd34ca14d7579dac8b054bf50a62c37c",
        "to": "0x388f7d72fd879725e40d893fc1b5455036c7fd19",
        "gas": "0x96a4",
        "value": "0x0",
        "input": "0x095ea7b3000000000000000000000000e2aa5803f1bad51f092650de840ea79547f26b7dffffffffffffffffffffffffffffffffffffffffffffffffffffffffffffffff",
        "nonce": "0xd6c",
        "chainId": "0x14a34"
      },
      "additionalContracts": [],
      "isFixedGasLimit": false
    },
    {
      "hash": "0x5942df0955b71b295f638848f5fc4b6f557e73e3dc6a50c41fba6de29f80cea9",
      "transactionType": "CALL",
      "contractName": null,
      "contractAddress": "0x009a513d97e55c77060c303f74ee66a991bd3f08",
      "function": "approve(address,uint256)",
      "arguments": [
        "0xe2AA5803F1baD51f092650De840Ea79547F26b7d",
        "115792089237316195423570985008687907853269984665640564039457584007913129639935"
      ],
      "transaction": {
        "from": "0xa6b3d200cd34ca14d7579dac8b054bf50a62c37c",
        "to": "0x009a513d97e55c77060c303f74ee66a991bd3f08",
        "gas": "0x96a4",
        "value": "0x0",
        "input": "0x095ea7b3000000000000000000000000e2aa5803f1bad51f092650de840ea79547f26b7dffffffffffffffffffffffffffffffffffffffffffffffffffffffffffffffff",
        "nonce": "0xd6d",
        "chainId": "0x14a34"
      },
      "additionalContracts": [],
      "isFixedGasLimit": false
    },
    {
      "hash": "0x7ae96dc6f69409aa2c7a312b8bc758d6a9c9d4a0d0b3c1c21ee67d8b0b0050be",
      "transactionType": "CALL",
      "contractName": null,
      "contractAddress": "0xe2aa5803f1bad51f092650de840ea79547f26b7d",
      "function": "createLoan((address,address,uint256,uint256,uint256,uint256,uint256))",
      "arguments": [
        "(0x388F7D72FD879725E40d893Fc1b5455036C7fd19, 0x009A513d97e55C77060C303f74eE66a991Bd3f08, 920000000000000000, 2000000000, 950000, 200000, 0)"
      ],
      "transaction": {
        "from": "0xa6b3d200cd34ca14d7579dac8b054bf50a62c37c",
        "to": "0xe2aa5803f1bad51f092650de840ea79547f26b7d",
        "gas": "0xafdd0",
        "value": "0x0",
        "input": "0xe37ccfec000000000000000000000000388f7d72fd879725e40d893fc1b5455036c7fd19000000000000000000000000009a513d97e55c77060c303f74ee66a991bd3f080000000000000000000000000000000000000000000000000cc47f20295c0000000000000000000000000000000000000000000000000000000000007735940000000000000000000000000000000000000000000000000000000000000e7ef00000000000000000000000000000000000000000000000000000000000030d400000000000000000000000000000000000000000000000000000000000000000",
        "nonce": "0xd6e",
        "chainId": "0x14a34"
      },
      "additionalContracts": [],
      "isFixedGasLimit": false
    }
  ],
  "receipts": [
    {
      "status": "0x1",
      "cumulativeGasUsed": "0x4445ef",
      "logs": [
        {
          "address": "0x388f7d72fd879725e40d893fc1b5455036c7fd19",
          "topics": [
            "0x8c5be1e5ebec7d5bd14f71427d1e84f3dd0314c0f7b2291e5b200ac8c7c3b925",
            "0x000000000000000000000000a6b3d200cd34ca14d7579dac8b054bf50a62c37c",
            "0x000000000000000000000000e2aa5803f1bad51f092650de840ea79547f26b7d"
          ],
          "data": "0xffffffffffffffffffffffffffffffffffffffffffffffffffffffffffffffff",
          "blockHash": "0x2c015ec9d24db1e32f29e78770e908235f14cb2a00d46641baad10f14fd5effb",
          "blockNumber": "0x19ebfe8",
          "transactionHash": "0x438241026eaa8f75298ce24a337febd7a06b087837cefc6765be3ade191963a6",
          "transactionIndex": "0x10",
          "logIndex": "0x9f",
          "removed": false
        }
      ],
      "logsBloom": "0x00000000000000000000000400000000000000080000000002000000000000000000000000000000000000000000000000000000000000000000000000200000000000000000000000000000000000000000000000000000000000000000000000000000000000000000000000000000000000000000000000000000000000000000000000000000002000000000000000000000000000000000000002000000020000000000040000000000000000000000000000000000000000000000000000000040000000000000000000000000002400000000000000000000000000000010000000000000000000000000000000000000000000000000000000000000",
      "type": "0x2",
      "transactionHash": "0x438241026eaa8f75298ce24a337febd7a06b087837cefc6765be3ade191963a6",
      "transactionIndex": "0x10",
      "blockHash": "0x2c015ec9d24db1e32f29e78770e908235f14cb2a00d46641baad10f14fd5effb",
      "blockNumber": "0x19ebfe8",
      "gasUsed": "0x6701",
      "effectiveGasPrice": "0x4a084",
      "from": "0xa6b3d200cd34ca14d7579dac8b054bf50a62c37c",
      "to": "0x388f7d72fd879725e40d893fc1b5455036c7fd19",
      "contractAddress": null,
      "l1BaseFeeScalar": "0x44d",
      "l1BlobBaseFee": "0x1",
      "l1BlobBaseFeeScalar": "0xa118b",
      "l1Fee": "0x160445",
      "l1GasPrice": "0xc7f5f",
      "l1GasUsed": "0x640"
    },
    {
      "status": "0x1",
      "cumulativeGasUsed": "0x44acf0",
      "logs": [
        {
          "address": "0x009a513d97e55c77060c303f74ee66a991bd3f08",
          "topics": [
            "0x8c5be1e5ebec7d5bd14f71427d1e84f3dd0314c0f7b2291e5b200ac8c7c3b925",
            "0x000000000000000000000000a6b3d200cd34ca14d7579dac8b054bf50a62c37c",
            "0x000000000000000000000000e2aa5803f1bad51f092650de840ea79547f26b7d"
          ],
          "data": "0xffffffffffffffffffffffffffffffffffffffffffffffffffffffffffffffff",
          "blockHash": "0x2c015ec9d24db1e32f29e78770e908235f14cb2a00d46641baad10f14fd5effb",
          "blockNumber": "0x19ebfe8",
          "transactionHash": "0x5942df0955b71b295f638848f5fc4b6f557e73e3dc6a50c41fba6de29f80cea9",
          "transactionIndex": "0x11",
          "logIndex": "0xa0",
          "removed": false
        }
      ],
      "logsBloom": "0x00000000000000000000000400000000000000080000000002000000000000000000000000000000000000000000000000000000000000000000000000200000000000000000000000000000000000000000000000000000000000000000000000000000000000000000000000000000000000000000000000000000000000000000004000000000000000000200000000000000000000000000000000000000020000000000040000000000000000000000000000000000000000000000000000000040000000000000000000000000002000000000000020000000000000000010000000000000000000000000000000000000000000000000000000000000",
      "type": "0x2",
      "transactionHash": "0x5942df0955b71b295f638848f5fc4b6f557e73e3dc6a50c41fba6de29f80cea9",
      "transactionIndex": "0x11",
      "blockHash": "0x2c015ec9d24db1e32f29e78770e908235f14cb2a00d46641baad10f14fd5effb",
      "blockNumber": "0x19ebfe8",
      "gasUsed": "0x6701",
      "effectiveGasPrice": "0x4a084",
      "from": "0xa6b3d200cd34ca14d7579dac8b054bf50a62c37c",
      "to": "0x009a513d97e55c77060c303f74ee66a991bd3f08",
      "contractAddress": null,
      "l1BaseFeeScalar": "0x44d",
      "l1BlobBaseFee": "0x1",
      "l1BlobBaseFeeScalar": "0xa118b",
      "l1Fee": "0x160445",
      "l1GasPrice": "0xc7f5f",
      "l1GasUsed": "0x640"
    },
    {
      "status": "0x1",
      "cumulativeGasUsed": "0x4c30ea",
      "logs": [
        {
          "address": "0x388f7d72fd879725e40d893fc1b5455036c7fd19",
          "topics": [
            "0xddf252ad1be2c89b69c2b068fc378daa952ba7f163c4a11628f55a4df523b3ef",
            "0x000000000000000000000000a6b3d200cd34ca14d7579dac8b054bf50a62c37c",
            "0x000000000000000000000000e2aa5803f1bad51f092650de840ea79547f26b7d"
          ],
          "data": "0x0000000000000000000000000000000000000000000000000cc47f20295c0000",
          "blockHash": "0x2c015ec9d24db1e32f29e78770e908235f14cb2a00d46641baad10f14fd5effb",
          "blockNumber": "0x19ebfe8",
          "transactionHash": "0x7ae96dc6f69409aa2c7a312b8bc758d6a9c9d4a0d0b3c1c21ee67d8b0b0050be",
          "transactionIndex": "0x12",
          "logIndex": "0xa1",
          "removed": false
        },
        {
          "address": "0xfe9cc4dc386606b00dcb057f4f3425a0cbd8bd3f",
          "topics": [
            "0x5e804d42ae3b860f881d11cb44a4bb1f2f0d5b3d081f5539a32d6f97b629d978",
            "0x000000000000000000000000009a513d97e55c77060c303f74ee66a991bd3f08"
          ],
          "data": "0x0000000000000000000000000000000000000000000000000000000000000d63",
          "blockHash": "0x2c015ec9d24db1e32f29e78770e908235f14cb2a00d46641baad10f14fd5effb",
          "blockNumber": "0x19ebfe8",
          "transactionHash": "0x7ae96dc6f69409aa2c7a312b8bc758d6a9c9d4a0d0b3c1c21ee67d8b0b0050be",
          "transactionIndex": "0x12",
          "logIndex": "0xa2",
          "removed": false
        },
        {
          "address": "0x009a513d97e55c77060c303f74ee66a991bd3f08",
          "topics": [
            "0xddf252ad1be2c89b69c2b068fc378daa952ba7f163c4a11628f55a4df523b3ef",
            "0x000000000000000000000000fe9cc4dc386606b00dcb057f4f3425a0cbd8bd3f",
            "0x000000000000000000000000a6b3d200cd34ca14d7579dac8b054bf50a62c37c"
          ],
          "data": "0x0000000000000000000000000000000000000000000000000000000077359400",
          "blockHash": "0x2c015ec9d24db1e32f29e78770e908235f14cb2a00d46641baad10f14fd5effb",
          "blockNumber": "0x19ebfe8",
          "transactionHash": "0x7ae96dc6f69409aa2c7a312b8bc758d6a9c9d4a0d0b3c1c21ee67d8b0b0050be",
          "transactionIndex": "0x12",
          "logIndex": "0xa3",
          "removed": false
        },
        {
          "address": "0xfe9cc4dc386606b00dcb057f4f3425a0cbd8bd3f",
          "topics": [
            "0x385feb58578c31f205b503905da1dec4c110dcdaac4a0dc43be298cae636307f",
            "0x000000000000000000000000009a513d97e55c77060c303f74ee66a991bd3f08"
          ],
          "data": "0x0000000000000000000000000000000000000000000000000000000000005dc0",
          "blockHash": "0x2c015ec9d24db1e32f29e78770e908235f14cb2a00d46641baad10f14fd5effb",
          "blockNumber": "0x19ebfe8",
          "transactionHash": "0x7ae96dc6f69409aa2c7a312b8bc758d6a9c9d4a0d0b3c1c21ee67d8b0b0050be",
          "transactionIndex": "0x12",
          "logIndex": "0xa4",
          "removed": false
        },
        {
          "address": "0xfe9cc4dc386606b00dcb057f4f3425a0cbd8bd3f",
          "topics": [
            "0xb088e70ab7e367eb8a026f0cf73edc838746f0f9761c510260ff489070d7b3c8",
            "0x000000000000000000000000009a513d97e55c77060c303f74ee66a991bd3f08",
            "0x000000000000000000000000a6b3d200cd34ca14d7579dac8b054bf50a62c37c"
          ],
          "data": "0x0000000000000000000000000000000000000000000000000000000077359400",
          "blockHash": "0x2c015ec9d24db1e32f29e78770e908235f14cb2a00d46641baad10f14fd5effb",
          "blockNumber": "0x19ebfe8",
          "transactionHash": "0x7ae96dc6f69409aa2c7a312b8bc758d6a9c9d4a0d0b3c1c21ee67d8b0b0050be",
          "transactionIndex": "0x12",
          "logIndex": "0xa5",
          "removed": false
        },
        {
          "address": "0x6323cb90555ba52ae0b37450935c56d511390787",
          "topics": [
            "0x9f0a7aaf8d18c024e8123bdcd157b0f6e0f42892a4ea14a2becc88a320a79922",
            "0x924cafe3f4668225141f2f2252ca17f67b629c2ff1426ac8ff340549f1266789",
            "0x000000000000000000000000a6b3d200cd34ca14d7579dac8b054bf50a62c37c"
          ],
          "data": "0x0000000000000000000000000000000000000000000000000cc47f20295c00000000000000000000000000000000000000000000000000000000000000000001",
          "blockHash": "0x2c015ec9d24db1e32f29e78770e908235f14cb2a00d46641baad10f14fd5effb",
          "blockNumber": "0x19ebfe8",
          "transactionHash": "0x7ae96dc6f69409aa2c7a312b8bc758d6a9c9d4a0d0b3c1c21ee67d8b0b0050be",
          "transactionIndex": "0x12",
          "logIndex": "0xa6",
          "removed": false
        },
        {
          "address": "0xe2aa5803f1bad51f092650de840ea79547f26b7d",
          "topics": [
            "0xcb5aa1675878bc9c8edd5d4265b7e06610564c809ed69560d24f5f284dd8c44b",
            "0x000000000000000000000000a6b3d200cd34ca14d7579dac8b054bf50a62c37c"
          ],
          "data": "0x0000000000000000000000000000000000000000000000000cc47f20295c0000924cafe3f4668225141f2f2252ca17f67b629c2ff1426ac8ff340549f1266789",
          "blockHash": "0x2c015ec9d24db1e32f29e78770e908235f14cb2a00d46641baad10f14fd5effb",
          "blockNumber": "0x19ebfe8",
          "transactionHash": "0x7ae96dc6f69409aa2c7a312b8bc758d6a9c9d4a0d0b3c1c21ee67d8b0b0050be",
          "transactionIndex": "0x12",
          "logIndex": "0xa7",
          "removed": false
        },
        {
          "address": "0xe2aa5803f1bad51f092650de840ea79547f26b7d",
          "topics": [
            "0x3c173f34da0900ded1a250c99de3d58cb900ce2841d93b11d877afee8b077a48",
            "0x0000000000000000000000000000000000000000000000000000000000000003",
            "0x000000000000000000000000a6b3d200cd34ca14d7579dac8b054bf50a62c37c"
          ],
          "data": "0x000000000000000000000000388f7d72fd879725e40d893fc1b5455036c7fd19000000000000000000000000009a513d97e55c77060c303f74ee66a991bd3f080000000000000000000000000000000000000000000000000cc47f20295c00000000000000000000000000000000000000000000000000000000000077359400",
          "blockHash": "0x2c015ec9d24db1e32f29e78770e908235f14cb2a00d46641baad10f14fd5effb",
          "blockNumber": "0x19ebfe8",
          "transactionHash": "0x7ae96dc6f69409aa2c7a312b8bc758d6a9c9d4a0d0b3c1c21ee67d8b0b0050be",
          "transactionIndex": "0x12",
          "logIndex": "0xa8",
          "removed": false
        }
      ],
      "logsBloom": "0x0000040000000000000000040000000001000018000000020200000000000008000000000200000000000020000000000000200002001000000000000000000000000400000004000000000800000200000000000000000000001000000000010000000010010000000000000000000000000000048040000040001000000000000000c000000000002000000202000000000000000000000002000002000000000000000040048000000000002000000000000000800000000000000010400000000042000000000000000000000000002400400000000024000120010000000000080000000000000000000000000000800010000200000000000000000000",
      "type": "0x2",
      "transactionHash": "0x7ae96dc6f69409aa2c7a312b8bc758d6a9c9d4a0d0b3c1c21ee67d8b0b0050be",
      "transactionIndex": "0x12",
      "blockHash": "0x2c015ec9d24db1e32f29e78770e908235f14cb2a00d46641baad10f14fd5effb",
      "blockNumber": "0x19ebfe8",
      "gasUsed": "0x783fa",
      "effectiveGasPrice": "0x4a084",
      "from": "0xa6b3d200cd34ca14d7579dac8b054bf50a62c37c",
      "to": "0xe2aa5803f1bad51f092650de840ea79547f26b7d",
      "contractAddress": null,
      "l1BaseFeeScalar": "0x44d",
      "l1BlobBaseFee": "0x1",
      "l1BlobBaseFeeScalar": "0xa118b",
      "l1Fee": "0x1f2430",
      "l1GasPrice": "0xc7f5f",
      "l1GasUsed": "0x8d7"
    }
  ],
  "libraries": [],
  "pending": [],
  "returns": {},
  "timestamp": 1750130353,
  "chain": 84532,
  "commit": "e3173ca"
}