{
  "transactions": [
    {
      "hash": "0x25dfa564e7ca14c3f01c10c4389c872d2791d54377c14ea1d93c3571567388b8",
      "transactionType": "CALL",
      "contractName": null,
      "contractAddress": "0xf27d7dc43eb841da532e637ef0a875c035001d5a",
      "function": "setAssetHandler(uint8,address)",
      "arguments": [
        "0",
        "0x2Bd6dAbf3d3AAe92f85A15B7437121fF65fCdBB9"
      ],
      "transaction": {
        "from": "0xa6b3d200cd34ca14d7579dac8b054bf50a62c37c",
        "to": "0xf27d7dc43eb841da532e637ef0a875c035001d5a",
        "gas": "0x10aae",
        "value": "0x0",
        "input": "0x97c5f07e00000000000000000000000000000000000000000000000000000000000000000000000000000000000000002bd6dabf3d3aae92f85a15b7437121ff65fcdbb9",
        "nonce": "0xce8",
        "chainId": "0x14a34"
      },
      "additionalContracts": [],
      "isFixedGasLimit": false
    },
    {
      "hash": "0x8026067b8bf213fd923b8afd0765dee0ff9bdeb354a93c591b1edd8723e9a885",
      "transactionType": "CALL",
      "contractName": null,
      "contractAddress": "0xf27d7dc43eb841da532e637ef0a875c035001d5a",
      "function": "setAssetHandler(uint8,address)",
      "arguments": [
        "1",
        "0x8102F85BB5d1b400D35277b9fF44177D24f06E86"
      ],
      "transaction": {
        "from": "0xa6b3d200cd34ca14d7579dac8b054bf50a62c37c",
        "to": "0xf27d7dc43eb841da532e637ef0a875c035001d5a",
        "gas": "0x10aae",
        "value": "0x0",
        "input": "0x97c5f07e00000000000000000000000000000000000000000000000000000000000000010000000000000000000000008102f85bb5d1b400d35277b9ff44177d24f06e86",
        "nonce": "0xce9",
        "chainId": "0x14a34"
      },
      "additionalContracts": [],
      "isFixedGasLimit": false
    },
    {
      "hash": "0xcd0ebeda543cf28656f2c8b23ca49abeb53b4f48504438e428fca8dc4a529875",
      "transactionType": "CALL",
      "contractName": null,
      "contractAddress": "0xf27d7dc43eb841da532e637ef0a875c035001d5a",
      "function": "setAssetHandler(uint8,address)",
      "arguments": [
        "2",
        "0x111444Fd9B2E748308057aB8983DdDa8C262cEeC"
      ],
      "transaction": {
        "from": "0xa6b3d200cd34ca14d7579dac8b054bf50a62c37c",
        "to": "0xf27d7dc43eb841da532e637ef0a875c035001d5a",
        "gas": "0xfbee",
        "value": "0x0",
        "input": "0x97c5f07e0000000000000000000000000000000000000000000000000000000000000002000000000000000000000000111444fd9b2e748308057ab8983ddda8c262ceec",
        "nonce": "0xcea",
        "chainId": "0x14a34"
      },
      "additionalContracts": [],
      "isFixedGasLimit": false
    }
  ],
  "receipts": [
    {
      "status": "0x1",
      "cumulativeGasUsed": "0x6c4fe6",
      "logs": [],
      "logsBloom": "0x00000000000000000000000000000000000000000000000000000000000000000000000000000000000000000000000000000000000000000000000000000000000000000000000000000000000000000000000000000000000000000000000000000000000000000000000000000000000000000000000000000000000000000000000000000000000000000000000000000000000000000000000000000000000000000000000000000000000000000000000000000000000000000000000000000000000000000000000000000000000000000000000000000000000000000000000000000000000000000000000000000000000000000000000000000000",
      "type": "0x2",
      "transactionHash": "0x25dfa564e7ca14c3f01c10c4389c872d2791d54377c14ea1d93c3571567388b8",
      "transactionIndex": "0x1d",
      "blockHash": "0xf639cd7889a076cad703765c0b128eb94f4ae95a4025b159d0bd11c019127747",
      "blockNumber": "0x19eba0c",
      "gasUsed": "0xb659",
      "effectiveGasPrice": "0x4e17f",
      "from": "0xa6b3d200cd34ca14d7579dac8b054bf50a62c37c",
      "to": "0xf27d7dc43eb841da532e637ef0a875c035001d5a",
      "contractAddress": null,
      "l1BaseFeeScalar": "0x44d",
      "l1BlobBaseFee": "0x1",
      "l1BlobBaseFeeScalar": "0xa118b",
      "l1Fee": "0x5ad7",
      "l1GasPrice": "0x336c",
      "l1GasUsed": "0x640"
    },
    {
      "status": "0x1",
      "cumulativeGasUsed": "0x6d063f",
      "logs": [],
      "logsBloom": "0x00000000000000000000000000000000000000000000000000000000000000000000000000000000000000000000000000000000000000000000000000000000000000000000000000000000000000000000000000000000000000000000000000000000000000000000000000000000000000000000000000000000000000000000000000000000000000000000000000000000000000000000000000000000000000000000000000000000000000000000000000000000000000000000000000000000000000000000000000000000000000000000000000000000000000000000000000000000000000000000000000000000000000000000000000000000",
      "type": "0x2",
      "transactionHash": "0x8026067b8bf213fd923b8afd0765dee0ff9bdeb354a93c591b1edd8723e9a885",
      "transactionIndex": "0x1e",
      "blockHash": "0xf639cd7889a076cad703765c0b128eb94f4ae95a4025b159d0bd11c019127747",
      "blockNumber": "0x19eba0c",
      "gasUsed": "0xb659",
      "effectiveGasPrice": "0x4e17f",
      "from": "0xa6b3d200cd34ca14d7579dac8b054bf50a62c37c",
      "to": "0xf27d7dc43eb841da532e637ef0a875c035001d5a",
      "contractAddress": null,
      "l1BaseFeeScalar": "0x44d",
      "l1BlobBaseFee": "0x1",
      "l1BlobBaseFeeScalar": "0xa118b",
      "l1Fee": "0x5ad7",
      "l1GasPrice": "0x336c",
      "l1GasUsed": "0x640"
    },
    {
      "status": "0x1",
      "cumulativeGasUsed": "0x6dbca4",
      "logs": [],
      "logsBloom": "0x00000000000000000000000000000000000000000000000000000000000000000000000000000000000000000000000000000000000000000000000000000000000000000000000000000000000000000000000000000000000000000000000000000000000000000000000000000000000000000000000000000000000000000000000000000000000000000000000000000000000000000000000000000000000000000000000000000000000000000000000000000000000000000000000000000000000000000000000000000000000000000000000000000000000000000000000000000000000000000000000000000000000000000000000000000000",
      "type": "0x2",
      "transactionHash": "0xcd0ebeda543cf28656f2c8b23ca49abeb53b4f48504438e428fca8dc4a529875",
      "transactionIndex": "0x1f",
      "blockHash": "0xf639cd7889a076cad703765c0b128eb94f4ae95a4025b159d0bd11c019127747",
      "blockNumber": "0x19eba0c",
      "gasUsed": "0xb665",
      "effectiveGasPrice": "0x4e17f",
      "from": "0xa6b3d200cd34ca14d7579dac8b054bf50a62c37c",
      "to": "0xf27d7dc43eb841da532e637ef0a875c035001d5a",
      "contractAddress": null,
      "l1BaseFeeScalar": "0x44d",
      "l1BlobBaseFee": "0x1",
      "l1BlobBaseFeeScalar": "0xa118b",
      "l1Fee": "0x5ad7",
      "l1GasPrice": "0x336c",
      "l1GasUsed": "0x640"
    }
  ],
  "libraries": [],
  "pending": [],
  "returns": {},
  "timestamp": 1750127355,
  "chain": 84532,
  "commit": "e3173ca"
}