{
  "transactions": [
    {
      "hash": "0x6487f27f3dbec52f27ce405f02870d1cec29d72aecc330259608e13ac68ffd14",
      "transactionType": "CALL",
      "contractName": "MockETH",
      "contractAddress": "0x87bb55de00f7d2791dbf3461a110d99bb47cf62f",
      "function": "approve(address,uint256)",
      "arguments": [
        "0xbD2329ad3cCcc4932B847014572F429bc8B4b2f5",
        "115792089237316195423570985008687907853269984665640564039457584007913129639935"
      ],
      "transaction": {
        "from": "0xa6b3d200cd34ca14d7579dac8b054bf50a62c37c",
        "to": "0x87bb55de00f7d2791dbf3461a110d99bb47cf62f",
        "gas": "0x96a4",
        "value": "0x0",
        "input": "0x095ea7b3000000000000000000000000bd2329ad3cccc4932b847014572f429bc8b4b2f5ffffffffffffffffffffffffffffffffffffffffffffffffffffffffffffffff",
        "nonce": "0xc4e",
        "chainId": "0x14a34"
      },
      "additionalContracts": [],
      "isFixedGasLimit": false
    },
    {
      "hash": "0x6e8977d9a35b0e9d28e3e05985b1c2dfc3011affafe1f57929c23093bf34812a",
      "transactionType": "CALL",
      "contractName": null,
      "contractAddress": "0xcbec2caa97a660434aa5420d667b3f1e60e2c17b",
      "function": "approve(address,uint256)",
      "arguments": [
        "0xbD2329ad3cCcc4932B847014572F429bc8B4b2f5",
        "115792089237316195423570985008687907853269984665640564039457584007913129639935"
      ],
      "transaction": {
        "from": "0xa6b3d200cd34ca14d7579dac8b054bf50a62c37c",
        "to": "0xcbec2caa97a660434aa5420d667b3f1e60e2c17b",
        "gas": "0x96a4",
        "value": "0x0",
        "input": "0x095ea7b3000000000000000000000000bd2329ad3cccc4932b847014572f429bc8b4b2f5ffffffffffffffffffffffffffffffffffffffffffffffffffffffffffffffff",
        "nonce": "0xc4f",
        "chainId": "0x14a34"
      },
      "additionalContracts": [],
      "isFixedGasLimit": false
    },
    {
      "hash": "0x10f0f000ca7576fc13707840b073be0489c99cae424104b215f432ca193bb924",
      "transactionType": "CALL",
      "contractName": "MockWBTC",
      "contractAddress": "0x4cd911b122e27e5ef684e3553b8187525725a399",
      "function": "approve(address,uint256)",
      "arguments": [
        "0xbD2329ad3cCcc4932B847014572F429bc8B4b2f5",
        "115792089237316195423570985008687907853269984665640564039457584007913129639935"
      ],
      "transaction": {
        "from": "0xa6b3d200cd34ca14d7579dac8b054bf50a62c37c",
        "to": "0x4cd911b122e27e5ef684e3553b8187525725a399",
        "gas": "0x96a4",
        "value": "0x0",
        "input": "0x095ea7b3000000000000000000000000bd2329ad3cccc4932b847014572f429bc8b4b2f5ffffffffffffffffffffffffffffffffffffffffffffffffffffffffffffffff",
        "nonce": "0xc50",
        "chainId": "0x14a34"
      },
      "additionalContracts": [],
      "isFixedGasLimit": false
    },
    {
      "hash": "0x9124067ab33b33e0722ff4f0c0252a4c549aa8c1bdb884f6c88afa9f194be1cd",
      "transactionType": "CALL",
      "contractName": null,
      "contractAddress": "0xbd2329ad3cccc4932b847014572f429bc8b4b2f5",
      "function": "createRiskyPosition(address,address,address,uint256,uint256,address)",
      "arguments": [
        "0xF8724317315B1BA8ac1a0f30Ac407e9fCf20442B",
        "0x87bb55de00f7D2791dbF3461A110D99bB47cF62F",
        "0xcbeC2cAa97A660434aA5420d667b3f1e60E2C17B",
        "1000000000000000000",
        "2425000000",
        "0xA6B3D200cD34ca14d7579DAc8B054bf50a62c37c"
      ],
      "transaction": {
        "from": "0xa6b3d200cd34ca14d7579dac8b054bf50a62c37c",
        "to": "0xbd2329ad3cccc4932b847014572f429bc8b4b2f5",
        "gas": "0x9b205",
        "value": "0x0",
        "input": "0x1d9563a9000000000000000000000000f8724317315b1ba8ac1a0f30ac407e9fcf20442b00000000000000000000000087bb55de00f7d2791dbf3461a110d99bb47cf62f000000000000000000000000cbec2caa97a660434aa5420d667b3f1e60e2c17b0000000000000000000000000000000000000000000000000de0b6b3a764000000000000000000000000000000000000000000000000000000000000908a9040000000000000000000000000a6b3d200cd34ca14d7579dac8b054bf50a62c37c",
        "nonce": "0xc51",
        "chainId": "0x14a34"
      },
      "additionalContracts": [],
      "isFixedGasLimit": false
    },
    {
      "hash": "0xcb764f3f93b33f6815e69090871b7d7491662b7f960f24ddeb1fed318aea7282",
      "transactionType": "CALL",
      "contractName": null,
      "contractAddress": "0xbd2329ad3cccc4932b847014572f429bc8b4b2f5",
      "function": "accrueInterest(address,uint256)",
      "arguments": [
        "0xF8724317315B1BA8ac1a0f30Ac407e9fCf20442B",
        "7"
      ],
      "transaction": {
        "from": "0xa6b3d200cd34ca14d7579dac8b054bf50a62c37c",
        "to": "0xbd2329ad3cccc4932b847014572f429bc8b4b2f5",
        "gas": "0xa297",
        "value": "0x0",
        "input": "0x7c9d1cce000000000000000000000000f8724317315b1ba8ac1a0f30ac407e9fcf20442b0000000000000000000000000000000000000000000000000000000000000007",
        "nonce": "0xc52",
        "chainId": "0x14a34"
      },
      "additionalContracts": [],
      "isFixedGasLimit": false
    }
  ],
  "receipts": [
    {
      "status": "0x1",
      "cumulativeGasUsed": "0x27a5e5",
      "logs": [
        {
          "address": "0x87bb55de00f7d2791dbf3461a110d99bb47cf62f",
          "topics": [
            "0x8c5be1e5ebec7d5bd14f71427d1e84f3dd0314c0f7b2291e5b200ac8c7c3b925",
            "0x000000000000000000000000a6b3d200cd34ca14d7579dac8b054bf50a62c37c",
            "0x000000000000000000000000bd2329ad3cccc4932b847014572f429bc8b4b2f5"
          ],
          "data": "0xffffffffffffffffffffffffffffffffffffffffffffffffffffffffffffffff",
          "blockHash": "0x06600923dca2a168a49acababcc93cf48e5dd938c95af0f8b7bd8424ffcd5ed2",
          "blockNumber": "0x19eb5f5",
          "transactionHash": "0x6487f27f3dbec52f27ce405f02870d1cec29d72aecc330259608e13ac68ffd14",
          "transactionIndex": "0x9",
          "logIndex": "0x51",
          "removed": false
        }
      ],
      "logsBloom": "0x00000000000200000000000400000000000000000000000002000000000000000000000000000000000000000000000000000000000000000000000000200000000000000000000000000000000000000000000000000000000000000000000000000000000000000000000000000000400000000000000000000000000000000000000000000000000000000000080000000000000000000000000000000000020000000000000000000000000000000000000000000000000000000000004000000040000000000000000000000000400000000000000000000000000000000010000001000000000000000000000000000000000000000000000000000000",
      "type": "0x2",
      "transactionHash": "0x6487f27f3dbec52f27ce405f02870d1cec29d72aecc330259608e13ac68ffd14",
      "transactionIndex": "0x9",
      "blockHash": "0x06600923dca2a168a49acababcc93cf48e5dd938c95af0f8b7bd8424ffcd5ed2",
      "blockNumber": "0x19eb5f5",
      "gasUsed": "0x6701",
      "effectiveGasPrice": "0x43c0a",
      "from": "0xa6b3d200cd34ca14d7579dac8b054bf50a62c37c",
      "to": "0x87bb55de00f7d2791dbf3461a110d99bb47cf62f",
      "contractAddress": null,
      "l1BaseFeeScalar": "0x44d",
      "l1BlobBaseFee": "0x1",
      "l1BlobBaseFeeScalar": "0xa118b",
      "l1Fee": "0x18fd6",
      "l1GasPrice": "0xe2d4",
      "l1GasUsed": "0x640"
    },
    {
      "status": "0x1",
      "cumulativeGasUsed": "0x280ce6",
      "logs": [
        {
          "address": "0xcbec2caa97a660434aa5420d667b3f1e60e2c17b",
          "topics": [
            "0x8c5be1e5ebec7d5bd14f71427d1e84f3dd0314c0f7b2291e5b200ac8c7c3b925",
            "0x000000000000000000000000a6b3d200cd34ca14d7579dac8b054bf50a62c37c",
            "0x000000000000000000000000bd2329ad3cccc4932b847014572f429bc8b4b2f5"
          ],
          "data": "0xffffffffffffffffffffffffffffffffffffffffffffffffffffffffffffffff",
          "blockHash": "0x06600923dca2a168a49acababcc93cf48e5dd938c95af0f8b7bd8424ffcd5ed2",
          "blockNumber": "0x19eb5f5",
          "transactionHash": "0x6e8977d9a35b0e9d28e3e05985b1c2dfc3011affafe1f57929c23093bf34812a",
          "transactionIndex": "0xa",
          "logIndex": "0x52",
          "removed": false
        }
      ],
      "logsBloom": "0x00000000008000000000000400000000000000000000000002000000000000000000000000000000000000000000000000000000000000000000000000200000000000000000000000000000000400000000000000000000000000000000000000000000000000000000000000000000400000000000000000000000000000000000000000000000000000000000000000000000000000000000000000000000020000000000000000000000000000000000000000000000000000000000004000000040000000000000000000000000400000000000000000000000000000000010000400000000000000000000000000000000000000000000000000000000",
      "type": "0x2",
      "transactionHash": "0x6e8977d9a35b0e9d28e3e05985b1c2dfc3011affafe1f57929c23093bf34812a",
      "transactionIndex": "0xa",
      "blockHash": "0x06600923dca2a168a49acababcc93cf48e5dd938c95af0f8b7bd8424ffcd5ed2",
      "blockNumber": "0x19eb5f5",
      "gasUsed": "0x6701",
      "effectiveGasPrice": "0x43c0a",
      "from": "0xa6b3d200cd34ca14d7579dac8b054bf50a62c37c",
      "to": "0xcbec2caa97a660434aa5420d667b3f1e60e2c17b",
      "contractAddress": null,
      "l1BaseFeeScalar": "0x44d",
      "l1BlobBaseFee": "0x1",
      "l1BlobBaseFeeScalar": "0xa118b",
      "l1Fee": "0x18fd6",
      "l1GasPrice": "0xe2d4",
      "l1GasUsed": "0x640"
    },
    {
      "status": "0x1",
      "cumulativeGasUsed": "0x2873e7",
      "logs": [
        {
          "address": "0x4cd911b122e27e5ef684e3553b8187525725a399",
          "topics": [
            "0x8c5be1e5ebec7d5bd14f71427d1e84f3dd0314c0f7b2291e5b200ac8c7c3b925",
            "0x000000000000000000000000a6b3d200cd34ca14d7579dac8b054bf50a62c37c",
            "0x000000000000000000000000bd2329ad3cccc4932b847014572f429bc8b4b2f5"
          ],
          "data": "0xffffffffffffffffffffffffffffffffffffffffffffffffffffffffffffffff",
          "blockHash": "0x06600923dca2a168a49acababcc93cf48e5dd938c95af0f8b7bd8424ffcd5ed2",
          "blockNumber": "0x19eb5f5",
          "transactionHash": "0x10f0f000ca7576fc13707840b073be0489c99cae424104b215f432ca193bb924",
          "transactionIndex": "0xb",
          "logIndex": "0x53",
          "removed": false
        }
      ],
      "logsBloom": "0x00000000000000000000000400000000000000000000000002000000000000000000000000000000000000000000000000000000000000000000000000200000000000000001000000000000000000000000000000000000000000000000000000000000000000000000000000000000400000000000000000000000000000000000000000000000000000000000000000000000000000000000000000000000020000000000000000000000000000000000000000000000000000200000004000000040000000008000000000000000400000000000000000000000000000000010000000000000000000000000000000000000000000000000000000000000",
      "type": "0x2",
      "transactionHash": "0x10f0f000ca7576fc13707840b073be0489c99cae424104b215f432ca193bb924",
      "transactionIndex": "0xb",
      "blockHash": "0x06600923dca2a168a49acababcc93cf48e5dd938c95af0f8b7bd8424ffcd5ed2",
      "blockNumber": "0x19eb5f5",
      "gasUsed": "0x6701",
      "effectiveGasPrice": "0x43c0a",
      "from": "0xa6b3d200cd34ca14d7579dac8b054bf50a62c37c",
      "to": "0x4cd911b122e27e5ef684e3553b8187525725a399",
      "contractAddress": null,
      "l1BaseFeeScalar": "0x44d",
      "l1BlobBaseFee": "0x1",
      "l1BlobBaseFeeScalar": "0xa118b",
      "l1Fee": "0x18fd6",
      "l1GasPrice": "0xe2d4",
      "l1GasUsed": "0x640"
    },
    {
      "status": "0x1",
      "cumulativeGasUsed": "0x2f78d7",
      "logs": [
        {
          "address": "0x87bb55de00f7d2791dbf3461a110d99bb47cf62f",
          "topics": [
            "0xddf252ad1be2c89b69c2b068fc378daa952ba7f163c4a11628f55a4df523b3ef",
            "0x000000000000000000000000a6b3d200cd34ca14d7579dac8b054bf50a62c37c",
            "0x000000000000000000000000bd2329ad3cccc4932b847014572f429bc8b4b2f5"
          ],
          "data": "0x0000000000000000000000000000000000000000000000000de0b6b3a7640000",
          "blockHash": "0x06600923dca2a168a49acababcc93cf48e5dd938c95af0f8b7bd8424ffcd5ed2",
          "blockNumber": "0x19eb5f5",
          "transactionHash": "0x9124067ab33b33e0722ff4f0c0252a4c549aa8c1bdb884f6c88afa9f194be1cd",
          "transactionIndex": "0xc",
          "logIndex": "0x54",
          "removed": false
        },
        {
          "address": "0x87bb55de00f7d2791dbf3461a110d99bb47cf62f",
          "topics": [
            "0x8c5be1e5ebec7d5bd14f71427d1e84f3dd0314c0f7b2291e5b200ac8c7c3b925",
            "0x000000000000000000000000bd2329ad3cccc4932b847014572f429bc8b4b2f5",
            "0x000000000000000000000000f8724317315b1ba8ac1a0f30ac407e9fcf20442b"
          ],
          "data": "0x0000000000000000000000000000000000000000000000000de0b6b3a7640000",
          "blockHash": "0x06600923dca2a168a49acababcc93cf48e5dd938c95af0f8b7bd8424ffcd5ed2",
          "blockNumber": "0x19eb5f5",
          "transactionHash": "0x9124067ab33b33e0722ff4f0c0252a4c549aa8c1bdb884f6c88afa9f194be1cd",
          "transactionIndex": "0xc",
          "logIndex": "0x55",
          "removed": false
        },
        {
          "address": "0x87bb55de00f7d2791dbf3461a110d99bb47cf62f",
          "topics": [
            "0xddf252ad1be2c89b69c2b068fc378daa952ba7f163c4a11628f55a4df523b3ef",
            "0x000000000000000000000000bd2329ad3cccc4932b847014572f429bc8b4b2f5",
            "0x000000000000000000000000f8724317315b1ba8ac1a0f30ac407e9fcf20442b"
          ],
          "data": "0x0000000000000000000000000000000000000000000000000de0b6b3a7640000",
          "blockHash": "0x06600923dca2a168a49acababcc93cf48e5dd938c95af0f8b7bd8424ffcd5ed2",
          "blockNumber": "0x19eb5f5",
          "transactionHash": "0x9124067ab33b33e0722ff4f0c0252a4c549aa8c1bdb884f6c88afa9f194be1cd",
          "transactionIndex": "0xc",
          "logIndex": "0x56",
          "removed": false
        },
        {
          "address": "0xc25d6a1e7878e32acab67080bf5a3973e061caec",
          "topics": [
            "0x5e804d42ae3b860f881d11cb44a4bb1f2f0d5b3d081f5539a32d6f97b629d978",
            "0x000000000000000000000000cbec2caa97a660434aa5420d667b3f1e60e2c17b"
          ],
          "data": "0x00000000000000000000000000000000000000000000000000000000000006e8",
          "blockHash": "0x06600923dca2a168a49acababcc93cf48e5dd938c95af0f8b7bd8424ffcd5ed2",
          "blockNumber": "0x19eb5f5",
          "transactionHash": "0x9124067ab33b33e0722ff4f0c0252a4c549aa8c1bdb884f6c88afa9f194be1cd",
          "transactionIndex": "0xc",
          "logIndex": "0x57",
          "removed": false
        },
        {
          "address": "0xcbec2caa97a660434aa5420d667b3f1e60e2c17b",
          "topics": [
            "0xddf252ad1be2c89b69c2b068fc378daa952ba7f163c4a11628f55a4df523b3ef",
            "0x000000000000000000000000c25d6a1e7878e32acab67080bf5a3973e061caec",
            "0x000000000000000000000000bd2329ad3cccc4932b847014572f429bc8b4b2f5"
          ],
          "data": "0x00000000000000000000000000000000000000000000000000000000908a9040",
          "blockHash": "0x06600923dca2a168a49acababcc93cf48e5dd938c95af0f8b7bd8424ffcd5ed2",
          "blockNumber": "0x19eb5f5",
          "transactionHash": "0x9124067ab33b33e0722ff4f0c0252a4c549aa8c1bdb884f6c88afa9f194be1cd",
          "transactionIndex": "0xc",
          "logIndex": "0x58",
          "removed": false
        },
        {
          "address": "0xc25d6a1e7878e32acab67080bf5a3973e061caec",
          "topics": [
            "0x385feb58578c31f205b503905da1dec4c110dcdaac4a0dc43be298cae636307f",
            "0x000000000000000000000000cbec2caa97a660434aa5420d667b3f1e60e2c17b"
          ],
          "data": "0x000000000000000000000000000000000000000000000000000000000001ab44",
          "blockHash": "0x06600923dca2a168a49acababcc93cf48e5dd938c95af0f8b7bd8424ffcd5ed2",
          "blockNumber": "0x19eb5f5",
          "transactionHash": "0x9124067ab33b33e0722ff4f0c0252a4c549aa8c1bdb884f6c88afa9f194be1cd",
          "transactionIndex": "0xc",
          "logIndex": "0x59",
          "removed": false
        },
        {
          "address": "0xc25d6a1e7878e32acab67080bf5a3973e061caec",
          "topics": [
            "0xb088e70ab7e367eb8a026f0cf73edc838746f0f9761c510260ff489070d7b3c8",
            "0x000000000000000000000000cbec2caa97a660434aa5420d667b3f1e60e2c17b",
            "0x000000000000000000000000bd2329ad3cccc4932b847014572f429bc8b4b2f5"
          ],
          "data": "0x00000000000000000000000000000000000000000000000000000000908a9040",
          "blockHash": "0x06600923dca2a168a49acababcc93cf48e5dd938c95af0f8b7bd8424ffcd5ed2",
          "blockNumber": "0x19eb5f5",
          "transactionHash": "0x9124067ab33b33e0722ff4f0c0252a4c549aa8c1bdb884f6c88afa9f194be1cd",
          "transactionIndex": "0xc",
          "logIndex": "0x5a",
          "removed": false
        },
        {
          "address": "0x934250c921597af3827777a9faaded879ca82126",
          "topics": [
            "0x9f0a7aaf8d18c024e8123bdcd157b0f6e0f42892a4ea14a2becc88a320a79922",
            "0x924cafe3f4668225141f2f2252ca17f67b629c2ff1426ac8ff340549f1266789",
            "0x000000000000000000000000bd2329ad3cccc4932b847014572f429bc8b4b2f5"
          ],
          "data": "0x0000000000000000000000000000000000000000000000000de0b6b3a76400000000000000000000000000000000000000000000000000000000000000000001",
          "blockHash": "0x06600923dca2a168a49acababcc93cf48e5dd938c95af0f8b7bd8424ffcd5ed2",
          "blockNumber": "0x19eb5f5",
          "transactionHash": "0x9124067ab33b33e0722ff4f0c0252a4c549aa8c1bdb884f6c88afa9f194be1cd",
          "transactionIndex": "0xc",
          "logIndex": "0x5b",
          "removed": false
        },
        {
          "address": "0xf8724317315b1ba8ac1a0f30ac407e9fcf20442b",
          "topics": [
            "0xcb5aa1675878bc9c8edd5d4265b7e06610564c809ed69560d24f5f284dd8c44b",
            "0x000000000000000000000000bd2329ad3cccc4932b847014572f429bc8b4b2f5"
          ],
          "data": "0x0000000000000000000000000000000000000000000000000de0b6b3a7640000924cafe3f4668225141f2f2252ca17f67b629c2ff1426ac8ff340549f1266789",
          "blockHash": "0x06600923dca2a168a49acababcc93cf48e5dd938c95af0f8b7bd8424ffcd5ed2",
          "blockNumber": "0x19eb5f5",
          "transactionHash": "0x9124067ab33b33e0722ff4f0c0252a4c549aa8c1bdb884f6c88afa9f194be1cd",
          "transactionIndex": "0xc",
          "logIndex": "0x5c",
          "removed": false
        },
        {
          "address": "0xf8724317315b1ba8ac1a0f30ac407e9fcf20442b",
          "topics": [
            "0x3c173f34da0900ded1a250c99de3d58cb900ce2841d93b11d877afee8b077a48",
            "0x0000000000000000000000000000000000000000000000000000000000000007",
            "0x000000000000000000000000bd2329ad3cccc4932b847014572f429bc8b4b2f5"
          ],
          "data": "0x00000000000000000000000087bb55de00f7d2791dbf3461a110d99bb47cf62f000000000000000000000000cbec2caa97a660434aa5420d667b3f1e60e2c17b0000000000000000000000000000000000000000000000000de0b6b3a764000000000000000000000000000000000000000000000000000000000000908a9040",
          "blockHash": "0x06600923dca2a168a49acababcc93cf48e5dd938c95af0f8b7bd8424ffcd5ed2",
          "blockNumber": "0x19eb5f5",
          "transactionHash": "0x9124067ab33b33e0722ff4f0c0252a4c549aa8c1bdb884f6c88afa9f194be1cd",
          "transactionIndex": "0xc",
          "logIndex": "0x5d",
          "removed": false
        },
        {
          "address": "0xcbec2caa97a660434aa5420d667b3f1e60e2c17b",
          "topics": [
            "0xddf252ad1be2c89b69c2b068fc378daa952ba7f163c4a11628f55a4df523b3ef",
            "0x000000000000000000000000bd2329ad3cccc4932b847014572f429bc8b4b2f5",
            "0x000000000000000000000000a6b3d200cd34ca14d7579dac8b054bf50a62c37c"
          ],
          "data": "0x00000000000000000000000000000000000000000000000000000000908a9040",
          "blockHash": "0x06600923dca2a168a49acababcc93cf48e5dd938c95af0f8b7bd8424ffcd5ed2",
          "blockNumber": "0x19eb5f5",
          "transactionHash": "0x9124067ab33b33e0722ff4f0c0252a4c549aa8c1bdb884f6c88afa9f194be1cd",
          "transactionIndex": "0xc",
          "logIndex": "0x5e",
          "removed": false
        },
        {
          "address": "0xbd2329ad3cccc4932b847014572f429bc8b4b2f5",
          "topics": [
            "0xf091b3222b8b47f0620d74674778cbab45440b1507aed82531cf4027e4db8f00",
            "0x000000000000000000000000f8724317315b1ba8ac1a0f30ac407e9fcf20442b",
            "0x0000000000000000000000000000000000000000000000000000000000000007"
          ],
          "data": "0x000000000000000000000000a6b3d200cd34ca14d7579dac8b054bf50a62c37c",
          "blockHash": "0x06600923dca2a168a49acababcc93cf48e5dd938c95af0f8b7bd8424ffcd5ed2",
          "blockNumber": "0x19eb5f5",
          "transactionHash": "0x9124067ab33b33e0722ff4f0c0252a4c549aa8c1bdb884f6c88afa9f194be1cd",
          "transactionIndex": "0xc",
          "logIndex": "0x5f",
          "removed": false
        }
      ],
      "logsBloom": "0x00000000008200000000000400000008010000000000000202000000080000000000000002000000000000000010000000003000000010000000000000200000000020000000000000010008000400008000000000001000000010000000000000000008300100000080000000041200400000000c000000004080300000000000000080000000000000000000020c0000040000000000040000000010000000020000000040008000000000000000000000008000000000000000000090004000000042000000000000000000000000400000400000000004000120010000000010082401000000000000000000000002800000000000000000000000200000",
      "type": "0x2",
      "transactionHash": "0x9124067ab33b33e0722ff4f0c0252a4c549aa8c1bdb884f6c88afa9f194be1cd",
      "transactionIndex": "0xc",
      "blockHash": "0x06600923dca2a168a49acababcc93cf48e5dd938c95af0f8b7bd8424ffcd5ed2",
      "blockNumber": "0x19eb5f5",
      "gasUsed": "0x704f0",
      "effectiveGasPrice": "0x43c0a",
      "from": "0xa6b3d200cd34ca14d7579dac8b054bf50a62c37c",
      "to": "0xbd2329ad3cccc4932b847014572f429bc8b4b2f5",
      "contractAddress": null,
      "l1BaseFeeScalar": "0x44d",
      "l1BlobBaseFee": "0x1",
      "l1BlobBaseFeeScalar": "0xa118b",
      "l1Fee": "0x28fda",
      "l1GasPrice": "0xe2d4",
      "l1GasUsed": "0xa40"
    },
    {
      "status": "0x1",
      "cumulativeGasUsed": "0x2fee8e",
      "logs": [],
      "logsBloom": "0x00000000000000000000000000000000000000000000000000000000000000000000000000000000000000000000000000000000000000000000000000000000000000000000000000000000000000000000000000000000000000000000000000000000000000000000000000000000000000000000000000000000000000000000000000000000000000000000000000000000000000000000000000000000000000000000000000000000000000000000000000000000000000000000000000000000000000000000000000000000000000000000000000000000000000000000000000000000000000000000000000000000000000000000000000000000",
      "type": "0x2",
      "transactionHash": "0xcb764f3f93b33f6815e69090871b7d7491662b7f960f24ddeb1fed318aea7282",
      "transactionIndex": "0xd",
      "blockHash": "0x06600923dca2a168a49acababcc93cf48e5dd938c95af0f8b7bd8424ffcd5ed2",
      "blockNumber": "0x19eb5f5",
      "gasUsed": "0x75b7",
      "effectiveGasPrice": "0x43c0a",
      "from": "0xa6b3d200cd34ca14d7579dac8b054bf50a62c37c",
      "to": "0xbd2329ad3cccc4932b847014572f429bc8b4b2f5",
      "contractAddress": null,
      "l1BaseFeeScalar": "0x44d",
      "l1BlobBaseFee": "0x1",
      "l1BlobBaseFeeScalar": "0xa118b",
      "l1Fee": "0x18fd6",
      "l1GasPrice": "0xe2d4",
      "l1GasUsed": "0x640"
    }
  ],
  "libraries": [],
  "pending": [],
  "returns": {},
  "timestamp": 1750125258,
  "chain": 84532,
  "commit": "e3173ca"
}