{
  "transactions": [
    {
      "hash": "0x29d8ed26261128466cc7a82eeeea6e9dda074b2baa034faf89f10052d07763c1",
      "transactionType": "CALL",
      "contractName": null,
      "contractAddress": "0xca09d6c5f9f5646a20b5ef71986eed5f8a86add0",
      "function": "approve(address,uint256)",
      "arguments": [
        "0xbD2329ad3cCcc4932B847014572F429bc8B4b2f5",
        "115792089237316195423570985008687907853269984665640564039457584007913129639935"
      ],
      "transaction": {
        "from": "0xa6b3d200cd34ca14d7579dac8b054bf50a62c37c",
        "to": "0xca09d6c5f9f5646a20b5ef71986eed5f8a86add0",
        "gas": "0xf9a4",
        "value": "0x0",
        "input": "0x095ea7b3000000000000000000000000bd2329ad3cccc4932b847014572f429bc8b4b2f5ffffffffffffffffffffffffffffffffffffffffffffffffffffffffffffffff",
        "nonce": "0xcdf",
        "chainId": "0x14a34"
      },
      "additionalContracts": [],
      "isFixedGasLimit": false
    },
    {
      "hash": "0x727bea64b080c2d12c34838523f7be06eb205ac26b93270805cbf5a6e55fa533",
      "transactionType": "CALL",
      "contractName": null,
      "contractAddress": "0xadc9649ef0468d6c73b56dc96ff6bb527b8251a0",
      "function": "approve(address,uint256)",
      "arguments": [
        "0xbD2329ad3cCcc4932B847014572F429bc8B4b2f5",
        "115792089237316195423570985008687907853269984665640564039457584007913129639935"
      ],
      "transaction": {
        "from": "0xa6b3d200cd34ca14d7579dac8b054bf50a62c37c",
        "to": "0xadc9649ef0468d6c73b56dc96ff6bb527b8251a0",
        "gas": "0xf9a4",
        "value": "0x0",
        "input": "0x095ea7b3000000000000000000000000bd2329ad3cccc4932b847014572f429bc8b4b2f5ffffffffffffffffffffffffffffffffffffffffffffffffffffffffffffffff",
        "nonce": "0xce0",
        "chainId": "0x14a34"
      },
      "additionalContracts": [],
      "isFixedGasLimit": false
    },
    {
      "hash": "0x3ef76667aeccb97192f7425f510df8e96ef16756863dba2fbdeab221e148e61b",
      "transactionType": "CALL",
      "contractName": null,
      "contractAddress": "0x6c2aaf9cfb130d516401ee769074f02fae6acb91",
      "function": "approve(address,uint256)",
      "arguments": [
        "0xbD2329ad3cCcc4932B847014572F429bc8B4b2f5",
        "115792089237316195423570985008687907853269984665640564039457584007913129639935"
      ],
      "transaction": {
        "from": "0xa6b3d200cd34ca14d7579dac8b054bf50a62c37c",
        "to": "0x6c2aaf9cfb130d516401ee769074f02fae6acb91",
        "gas": "0xf9a4",
        "value": "0x0",
        "input": "0x095ea7b3000000000000000000000000bd2329ad3cccc4932b847014572f429bc8b4b2f5ffffffffffffffffffffffffffffffffffffffffffffffffffffffffffffffff",
        "nonce": "0xce1",
        "chainId": "0x14a34"
      },
      "additionalContracts": [],
      "isFixedGasLimit": false
    },
    {
      "hash": "0x15ab9258c223760653a12d93afb5a055c27d54f4e05fd23a3c2412f3f676de57",
      "transactionType": "CALL",
      "contractName": null,
      "contractAddress": "0xbd2329ad3cccc4932b847014572f429bc8b4b2f5",
      "function": "createRiskyPosition(address,address,address,uint256,uint256,address)",
      "arguments": [
        "0x2295bd9f3e8F8Df4Cc8B95A25B2dF40C01469eef",
        "0xca09D6c5f9f5646A20b5EF71986EED5f8A86add0",
        "0xAdc9649EF0468d6C73B56Dc96fF6bb527B8251A0",
        "1000000000000000000",
        "2425000000",
        "0xA6B3D200cD34ca14d7579DAc8B054bf50a62c37c"
      ],
      "transaction": {
        "from": "0xa6b3d200cd34ca14d7579dac8b054bf50a62c37c",
        "to": "0xbd2329ad3cccc4932b847014572f429bc8b4b2f5",
        "gas": "0xc7033",
        "value": "0x0",
        "input": "0x1d9563a90000000000000000000000002295bd9f3e8f8df4cc8b95a25b2df40c01469eef000000000000000000000000ca09d6c5f9f5646a20b5ef71986eed5f8a86add0000000000000000000000000adc9649ef0468d6c73b56dc96ff6bb527b8251a00000000000000000000000000000000000000000000000000de0b6b3a764000000000000000000000000000000000000000000000000000000000000908a9040000000000000000000000000a6b3d200cd34ca14d7579dac8b054bf50a62c37c",
        "nonce": "0xce2",
        "chainId": "0x14a34"
      },
      "additionalContracts": [],
      "isFixedGasLimit": false
    },
    {
      "hash": "0x965a999811eb8856c8a5329d7080ba113f34f03a253e1b27dd3d056ac98b92c6",
      "transactionType": "CALL",
      "contractName": null,
      "contractAddress": "0xbd2329ad3cccc4932b847014572f429bc8b4b2f5",
      "function": "accrueInterest(address,uint256)",
      "arguments": [
        "0x2295bd9f3e8F8Df4Cc8B95A25B2dF40C01469eef",
        "1"
      ],
      "transaction": {
        "from": "0xa6b3d200cd34ca14d7579dac8b054bf50a62c37c",
        "to": "0xbd2329ad3cccc4932b847014572f429bc8b4b2f5",
        "gas": "0xa297",
        "value": "0x0",
        "input": "0x7c9d1cce0000000000000000000000002295bd9f3e8f8df4cc8b95a25b2df40c01469eef0000000000000000000000000000000000000000000000000000000000000001",
        "nonce": "0xce3",
        "chainId": "0x14a34"
      },
      "additionalContracts": [],
      "isFixedGasLimit": false
    }
  ],
  "receipts": [
    {
      "status": "0x1",
      "cumulativeGasUsed": "0x114f16",
      "logs": [
        {
          "address": "0xca09d6c5f9f5646a20b5ef71986eed5f8a86add0",
          "topics": [
            "0x8c5be1e5ebec7d5bd14f71427d1e84f3dd0314c0f7b2291e5b200ac8c7c3b925",
            "0x000000000000000000000000a6b3d200cd34ca14d7579dac8b054bf50a62c37c",
            "0x000000000000000000000000bd2329ad3cccc4932b847014572f429bc8b4b2f5"
          ],
          "data": "0xffffffffffffffffffffffffffffffffffffffffffffffffffffffffffffffff",
          "blockHash": "0x8d9fd64777b28853a86218781a2bb775fc84d450370013ff5c2d383d4157cf25",
          "blockNumber": "0x19eb8fb",
          "transactionHash": "0x29d8ed26261128466cc7a82eeeea6e9dda074b2baa034faf89f10052d07763c1",
          "transactionIndex": "0x5",
          "logIndex": "0x12",
          "removed": false
        }
      ],
      "logsBloom": "0x00000000000000000000000400000000000000000000000002000000000000000000000000000000000000000000000000000000000008000000000000200000000000000000000000000000000000000000000000800000000000000000000000000000000000000000000000000000400000000000000000000000000000000000000000000000000000000000000000000000000000000000000000000000020000000000000000000000000000000000000000000000000000000000004000000040000000000000000000000000400000000000000000000000000000000010000000000000000000000000000000000000000000000000000000008000",
      "type": "0x2",
      "transactionHash": "0x29d8ed26261128466cc7a82eeeea6e9dda074b2baa034faf89f10052d07763c1",
      "transactionIndex": "0x5",
      "blockHash": "0x8d9fd64777b28853a86218781a2bb775fc84d450370013ff5c2d383d4157cf25",
      "blockNumber": "0x19eb8fb",
      "gasUsed": "0xb4bd",
      "effectiveGasPrice": "0x572d6",
      "from": "0xa6b3d200cd34ca14d7579dac8b054bf50a62c37c",
      "to": "0xca09d6c5f9f5646a20b5ef71986eed5f8a86add0",
      "contractAddress": null,
      "l1BaseFeeScalar": "0x44d",
      "l1BlobBaseFee": "0x1",
      "l1BlobBaseFeeScalar": "0xa118b",
      "l1Fee": "0x4493",
      "l1GasPrice": "0x26c8",
      "l1GasUsed": "0x640"
    },
    {
      "status": "0x1",
      "cumulativeGasUsed": "0x1203d3",
      "logs": [
        {
          "address": "0xadc9649ef0468d6c73b56dc96ff6bb527b8251a0",
          "topics": [
            "0x8c5be1e5ebec7d5bd14f71427d1e84f3dd0314c0f7b2291e5b200ac8c7c3b925",
            "0x000000000000000000000000a6b3d200cd34ca14d7579dac8b054bf50a62c37c",
            "0x000000000000000000000000bd2329ad3cccc4932b847014572f429bc8b4b2f5"
          ],
          "data": "0xffffffffffffffffffffffffffffffffffffffffffffffffffffffffffffffff",
          "blockHash": "0x8d9fd64777b28853a86218781a2bb775fc84d450370013ff5c2d383d4157cf25",
          "blockNumber": "0x19eb8fb",
          "transactionHash": "0x727bea64b080c2d12c34838523f7be06eb205ac26b93270805cbf5a6e55fa533",
          "transactionIndex": "0x6",
          "logIndex": "0x13",
          "removed": false
        }
      ],
      "logsBloom": "0x00000000000000000000000400000000000000000000000002000000000000000000000000000000000000000000000000000000000000000000000000200000000000000000000000000000000000000000008000000000000000000000000000000000000000000000000000000000400000000000000000002000000000000000000000000000000000000000000000000000000000000000000000000000020000000000000000000000000000000000000000000000000000000000004000000040000000000000000000000000400000000000000000000000000000000010000000000000000000000000000004000000000000000000000000000000",
      "type": "0x2",
      "transactionHash": "0x727bea64b080c2d12c34838523f7be06eb205ac26b93270805cbf5a6e55fa533",
      "transactionIndex": "0x6",
      "blockHash": "0x8d9fd64777b28853a86218781a2bb775fc84d450370013ff5c2d383d4157cf25",
      "blockNumber": "0x19eb8fb",
      "gasUsed": "0xb4bd",
      "effectiveGasPrice": "0x572d6",
      "from": "0xa6b3d200cd34ca14d7579dac8b054bf50a62c37c",
      "to": "0xadc9649ef0468d6c73b56dc96ff6bb527b8251a0",
      "contractAddress": null,
      "l1BaseFeeScalar": "0x44d",
      "l1BlobBaseFee": "0x1",
      "l1BlobBaseFeeScalar": "0xa118b",
      "l1Fee": "0x4493",
      "l1GasPrice": "0x26c8",
      "l1GasUsed": "0x640"
    },
    {
      "status": "0x1",
      "cumulativeGasUsed": "0x12b890",
      "logs": [
        {
          "address": "0x6c2aaf9cfb130d516401ee769074f02fae6acb91",
          "topics": [
            "0x8c5be1e5ebec7d5bd14f71427d1e84f3dd0314c0f7b2291e5b200ac8c7c3b925",
            "0x000000000000000000000000a6b3d200cd34ca14d7579dac8b054bf50a62c37c",
            "0x000000000000000000000000bd2329ad3cccc4932b847014572f429bc8b4b2f5"
          ],
          "data": "0xffffffffffffffffffffffffffffffffffffffffffffffffffffffffffffffff",
          "blockHash": "0x8d9fd64777b28853a86218781a2bb775fc84d450370013ff5c2d383d4157cf25",
          "blockNumber": "0x19eb8fb",
          "transactionHash": "0x3ef76667aeccb97192f7425f510df8e96ef16756863dba2fbdeab221e148e61b",
          "transactionIndex": "0x7",
          "logIndex": "0x14",
          "removed": false
        }
      ],
      "logsBloom": "0x00200000000000000000000400000000000000000000000002000000000000000000000000000000000000000000000000000000000000000000000000200000000000000000000000000000000000000000000000000000000001000000000000000000000000000000000000000000400000000000000000000000000000000000000000000000000000000000000000000000000000000000000000000000020000000000000000000000000000000000000000000000000000000000004000000040000000000000000000000000400000000000000000000000000000000010000000000000000000000000000000000000000000000000000004000000",
      "type": "0x2",
      "transactionHash": "0x3ef76667aeccb97192f7425f510df8e96ef16756863dba2fbdeab221e148e61b",
      "transactionIndex": "0x7",
      "blockHash": "0x8d9fd64777b28853a86218781a2bb775fc84d450370013ff5c2d383d4157cf25",
      "blockNumber": "0x19eb8fb",
      "gasUsed": "0xb4bd",
      "effectiveGasPrice": "0x572d6",
      "from": "0xa6b3d200cd34ca14d7579dac8b054bf50a62c37c",
      "to": "0x6c2aaf9cfb130d516401ee769074f02fae6acb91",
      "contractAddress": null,
      "l1BaseFeeScalar": "0x44d",
      "l1BlobBaseFee": "0x1",
      "l1BlobBaseFeeScalar": "0xa118b",
      "l1Fee": "0x4493",
      "l1GasPrice": "0x26c8",
      "l1GasUsed": "0x640"
    },
    {
      "status": "0x1",
      "cumulativeGasUsed": "0x1bb9df",
      "logs": [
        {
          "address": "0xca09d6c5f9f5646a20b5ef71986eed5f8a86add0",
          "topics": [
            "0xddf252ad1be2c89b69c2b068fc378daa952ba7f163c4a11628f55a4df523b3ef",
            "0x000000000000000000000000a6b3d200cd34ca14d7579dac8b054bf50a62c37c",
            "0x000000000000000000000000bd2329ad3cccc4932b847014572f429bc8b4b2f5"
          ],
          "data": "0x0000000000000000000000000000000000000000000000000de0b6b3a7640000",
          "blockHash": "0x8d9fd64777b28853a86218781a2bb775fc84d450370013ff5c2d383d4157cf25",
          "blockNumber": "0x19eb8fb",
          "transactionHash": "0x15ab9258c223760653a12d93afb5a055c27d54f4e05fd23a3c2412f3f676de57",
          "transactionIndex": "0x8",
          "logIndex": "0x15",
          "removed": false
        },
        {
          "address": "0xca09d6c5f9f5646a20b5ef71986eed5f8a86add0",
          "topics": [
            "0x8c5be1e5ebec7d5bd14f71427d1e84f3dd0314c0f7b2291e5b200ac8c7c3b925",
            "0x000000000000000000000000bd2329ad3cccc4932b847014572f429bc8b4b2f5",
            "0x0000000000000000000000002295bd9f3e8f8df4cc8b95a25b2df40c01469eef"
          ],
          "data": "0x0000000000000000000000000000000000000000000000000de0b6b3a7640000",
          "blockHash": "0x8d9fd64777b28853a86218781a2bb775fc84d450370013ff5c2d383d4157cf25",
          "blockNumber": "0x19eb8fb",
          "transactionHash": "0x15ab9258c223760653a12d93afb5a055c27d54f4e05fd23a3c2412f3f676de57",
          "transactionIndex": "0x8",
          "logIndex": "0x16",
          "removed": false
        },
        {
          "address": "0xca09d6c5f9f5646a20b5ef71986eed5f8a86add0",
          "topics": [
            "0xddf252ad1be2c89b69c2b068fc378daa952ba7f163c4a11628f55a4df523b3ef",
            "0x000000000000000000000000bd2329ad3cccc4932b847014572f429bc8b4b2f5",
            "0x0000000000000000000000002295bd9f3e8f8df4cc8b95a25b2df40c01469eef"
          ],
          "data": "0x0000000000000000000000000000000000000000000000000de0b6b3a7640000",
          "blockHash": "0x8d9fd64777b28853a86218781a2bb775fc84d450370013ff5c2d383d4157cf25",
          "blockNumber": "0x19eb8fb",
          "transactionHash": "0x15ab9258c223760653a12d93afb5a055c27d54f4e05fd23a3c2412f3f676de57",
          "transactionIndex": "0x8",
          "logIndex": "0x17",
          "removed": false
        },
        {
          "address": "0xadc9649ef0468d6c73b56dc96ff6bb527b8251a0",
          "topics": [
            "0xddf252ad1be2c89b69c2b068fc378daa952ba7f163c4a11628f55a4df523b3ef",
            "0x0000000000000000000000008102f85bb5d1b400d35277b9ff44177d24f06e86",
            "0x000000000000000000000000bd2329ad3cccc4932b847014572f429bc8b4b2f5"
          ],
          "data": "0x00000000000000000000000000000000000000000000000000000000908a9040",
          "blockHash": "0x8d9fd64777b28853a86218781a2bb775fc84d450370013ff5c2d383d4157cf25",
          "blockNumber": "0x19eb8fb",
          "transactionHash": "0x15ab9258c223760653a12d93afb5a055c27d54f4e05fd23a3c2412f3f676de57",
          "transactionIndex": "0x8",
          "logIndex": "0x18",
          "removed": false
        },
        {
          "address": "0x8102f85bb5d1b400d35277b9ff44177d24f06e86",
          "topics": [
            "0x385feb58578c31f205b503905da1dec4c110dcdaac4a0dc43be298cae636307f",
            "0x000000000000000000000000adc9649ef0468d6c73b56dc96ff6bb527b8251a0"
          ],
          "data": "0x00000000000000000000000000000000000000000000000000000000000025e4",
          "blockHash": "0x8d9fd64777b28853a86218781a2bb775fc84d450370013ff5c2d383d4157cf25",
          "blockNumber": "0x19eb8fb",
          "transactionHash": "0x15ab9258c223760653a12d93afb5a055c27d54f4e05fd23a3c2412f3f676de57",
          "transactionIndex": "0x8",
          "logIndex": "0x19",
          "removed": false
        },
        {
          "address": "0x8102f85bb5d1b400d35277b9ff44177d24f06e86",
          "topics": [
            "0xb088e70ab7e367eb8a026f0cf73edc838746f0f9761c510260ff489070d7b3c8",
            "0x000000000000000000000000adc9649ef0468d6c73b56dc96ff6bb527b8251a0",
            "0x000000000000000000000000bd2329ad3cccc4932b847014572f429bc8b4b2f5"
          ],
          "data": "0x00000000000000000000000000000000000000000000000000000000908a9040",
          "blockHash": "0x8d9fd64777b28853a86218781a2bb775fc84d450370013ff5c2d383d4157cf25",
          "blockNumber": "0x19eb8fb",
          "transactionHash": "0x15ab9258c223760653a12d93afb5a055c27d54f4e05fd23a3c2412f3f676de57",
          "transactionIndex": "0x8",
          "logIndex": "0x1a",
          "removed": false
        },
        {
          "address": "0x23697d51f078d6a53172049a49d57396a422eefc",
          "topics": [
            "0x9f0a7aaf8d18c024e8123bdcd157b0f6e0f42892a4ea14a2becc88a320a79922",
            "0x924cafe3f4668225141f2f2252ca17f67b629c2ff1426ac8ff340549f1266789",
            "0x000000000000000000000000bd2329ad3cccc4932b847014572f429bc8b4b2f5"
          ],
          "data": "0x0000000000000000000000000000000000000000000000000de0b6b3a76400000000000000000000000000000000000000000000000000000000000000000001",
          "blockHash": "0x8d9fd64777b28853a86218781a2bb775fc84d450370013ff5c2d383d4157cf25",
          "blockNumber": "0x19eb8fb",
          "transactionHash": "0x15ab9258c223760653a12d93afb5a055c27d54f4e05fd23a3c2412f3f676de57",
          "transactionIndex": "0x8",
          "logIndex": "0x1b",
          "removed": false
        },
        {
          "address": "0x2295bd9f3e8f8df4cc8b95a25b2df40c01469eef",
          "topics": [
            "0xcb5aa1675878bc9c8edd5d4265b7e06610564c809ed69560d24f5f284dd8c44b",
            "0x000000000000000000000000bd2329ad3cccc4932b847014572f429bc8b4b2f5"
          ],
          "data": "0x0000000000000000000000000000000000000000000000000de0b6b3a7640000924cafe3f4668225141f2f2252ca17f67b629c2ff1426ac8ff340549f1266789",
          "blockHash": "0x8d9fd64777b28853a86218781a2bb775fc84d450370013ff5c2d383d4157cf25",
          "blockNumber": "0x19eb8fb",
          "transactionHash": "0x15ab9258c223760653a12d93afb5a055c27d54f4e05fd23a3c2412f3f676de57",
          "transactionIndex": "0x8",
          "logIndex": "0x1c",
          "removed": false
        },
        {
          "address": "0x2295bd9f3e8f8df4cc8b95a25b2df40c01469eef",
          "topics": [
            "0x3c173f34da0900ded1a250c99de3d58cb900ce2841d93b11d877afee8b077a48",
            "0x0000000000000000000000000000000000000000000000000000000000000001",
            "0x000000000000000000000000bd2329ad3cccc4932b847014572f429bc8b4b2f5"
          ],
          "data": "0x000000000000000000000000ca09d6c5f9f5646a20b5ef71986eed5f8a86add0000000000000000000000000adc9649ef0468d6c73b56dc96ff6bb527b8251a00000000000000000000000000000000000000000000000000de0b6b3a764000000000000000000000000000000000000000000000000000000000000908a9040",
          "blockHash": "0x8d9fd64777b28853a86218781a2bb775fc84d450370013ff5c2d383d4157cf25",
          "blockNumber": "0x19eb8fb",
          "transactionHash": "0x15ab9258c223760653a12d93afb5a055c27d54f4e05fd23a3c2412f3f676de57",
          "transactionIndex": "0x8",
          "logIndex": "0x1d",
          "removed": false
        },
        {
          "address": "0xadc9649ef0468d6c73b56dc96ff6bb527b8251a0",
          "topics": [
            "0xddf252ad1be2c89b69c2b068fc378daa952ba7f163c4a11628f55a4df523b3ef",
            "0x000000000000000000000000bd2329ad3cccc4932b847014572f429bc8b4b2f5",
            "0x000000000000000000000000a6b3d200cd34ca14d7579dac8b054bf50a62c37c"
          ],
          "data": "0x00000000000000000000000000000000000000000000000000000000908a9040",
          "blockHash": "0x8d9fd64777b28853a86218781a2bb775fc84d450370013ff5c2d383d4157cf25",
          "blockNumber": "0x19eb8fb",
          "transactionHash": "0x15ab9258c223760653a12d93afb5a055c27d54f4e05fd23a3c2412f3f676de57",
          "transactionIndex": "0x8",
          "logIndex": "0x1e",
          "removed": false
        },
        {
          "address": "0xbd2329ad3cccc4932b847014572f429bc8b4b2f5",
          "topics": [
            "0xf091b3222b8b47f0620d74674778cbab45440b1507aed82531cf4027e4db8f00",
            "0x0000000000000000000000002295bd9f3e8f8df4cc8b95a25b2df40c01469eef",
            "0x0000000000000000000000000000000000000000000000000000000000000001"
          ],
          "data": "0x000000000000000000000000a6b3d200cd34ca14d7579dac8b054bf50a62c37c",
          "blockHash": "0x8d9fd64777b28853a86218781a2bb775fc84d450370013ff5c2d383d4157cf25",
          "blockNumber": "0x19eb8fb",
          "transactionHash": "0x15ab9258c223760653a12d93afb5a055c27d54f4e05fd23a3c2412f3f676de57",
          "transactionIndex": "0x8",
          "logIndex": "0x1f",
          "removed": false
        }
      ],
      "logsBloom": "0x0001000000000000000000040000000001000000000000020200000000000000000000000200000000000000000000000000208000001800000000000024000000000000000000000004000800000004000000a000840000000014000000000000000008100100400000000000000000400010000c0000800000203000000000000000800000080000000000000000000000000000000000000000001000000002000000004000c0000000000000000000000200000000000000000000800040000000420000000001000000000000004000004000000000040000200100c0100010082000000000000000000000000004802000000000000000800000008000",
      "type": "0x2",
      "transactionHash": "0x15ab9258c223760653a12d93afb5a055c27d54f4e05fd23a3c2412f3f676de57",
      "transactionIndex": "0x8",
      "blockHash": "0x8d9fd64777b28853a86218781a2bb775fc84d450370013ff5c2d383d4157cf25",
      "blockNumber": "0x19eb8fb",
      "gasUsed": "0x9014f",
      "effectiveGasPrice": "0x572d6",
      "from": "0xa6b3d200cd34ca14d7579dac8b054bf50a62c37c",
      "to": "0xbd2329ad3cccc4932b847014572f429bc8b4b2f5",
      "contractAddress": null,
      "l1BaseFeeScalar": "0x44d",
      "l1BlobBaseFee": "0x1",
      "l1BlobBaseFeeScalar": "0xa118b",
      "l1Fee": "0x707b",
      "l1GasPrice": "0x26c8",
      "l1GasUsed": "0xa40"
    },
    {
      "status": "0x1",
      "cumulativeGasUsed": "0x1c2f96",
      "logs": [],
      "logsBloom": "0x00000000000000000000000000000000000000000000000000000000000000000000000000000000000000000000000000000000000000000000000000000000000000000000000000000000000000000000000000000000000000000000000000000000000000000000000000000000000000000000000000000000000000000000000000000000000000000000000000000000000000000000000000000000000000000000000000000000000000000000000000000000000000000000000000000000000000000000000000000000000000000000000000000000000000000000000000000000000000000000000000000000000000000000000000000000",
      "type": "0x2",
      "transactionHash": "0x965a999811eb8856c8a5329d7080ba113f34f03a253e1b27dd3d056ac98b92c6",
      "transactionIndex": "0x9",
      "blockHash": "0x8d9fd64777b28853a86218781a2bb775fc84d450370013ff5c2d383d4157cf25",
      "blockNumber": "0x19eb8fb",
      "gasUsed": "0x75b7",
      "effectiveGasPrice": "0x572d6",
      "from": "0xa6b3d200cd34ca14d7579dac8b054bf50a62c37c",
      "to": "0xbd2329ad3cccc4932b847014572f429bc8b4b2f5",
      "contractAddress": null,
      "l1BaseFeeScalar": "0x44d",
      "l1BlobBaseFee": "0x1",
      "l1BlobBaseFeeScalar": "0xa118b",
      "l1Fee": "0x4493",
      "l1GasPrice": "0x26c8",
      "l1GasUsed": "0x640"
    }
  ],
  "libraries": [],
  "pending": [],
  "returns": {},
  "timestamp": 1750126807,
  "chain": 84532,
  "commit": "e3173ca"
}