{
  "transactions": [
    {
      "hash": "0x7471108dad28e33308ccb420111a467fb11de538e2f82921f216fa5b8fb48ed7",
      "transactionType": "CALL",
      "contractName": "MockETH",
      "contractAddress": "0x87bb55de00f7d2791dbf3461a110d99bb47cf62f",
      "function": "approve(address,uint256)",
      "arguments": [
        "0xbD2329ad3cCcc4932B847014572F429bc8B4b2f5",
        "115792089237316195423570985008687907853269984665640564039457584007913129639935"
      ],
      "transaction": {
        "from": "0xa6b3d200cd34ca14d7579dac8b054bf50a62c37c",
        "to": "0x87bb55de00f7d2791dbf3461a110d99bb47cf62f",
        "gas": "0x96a4",
        "value": "0x0",
        "input": "0x095ea7b3000000000000000000000000bd2329ad3cccc4932b847014572f429bc8b4b2f5ffffffffffffffffffffffffffffffffffffffffffffffffffffffffffffffff",
        "nonce": "0xc46",
        "chainId": "0x14a34"
      },
      "additionalContracts": [],
      "isFixedGasLimit": false
    },
    {
      "hash": "0x69429f4f1bb0fb16f93d01fe02545ff5c263db67e21a6cbe437f9800ea86c192",
      "transactionType": "CALL",
      "contractName": null,
      "contractAddress": "0xcbec2caa97a660434aa5420d667b3f1e60e2c17b",
      "function": "approve(address,uint256)",
      "arguments": [
        "0xbD2329ad3cCcc4932B847014572F429bc8B4b2f5",
        "115792089237316195423570985008687907853269984665640564039457584007913129639935"
      ],
      "transaction": {
        "from": "0xa6b3d200cd34ca14d7579dac8b054bf50a62c37c",
        "to": "0xcbec2caa97a660434aa5420d667b3f1e60e2c17b",
        "gas": "0x96a4",
        "value": "0x0",
        "input": "0x095ea7b3000000000000000000000000bd2329ad3cccc4932b847014572f429bc8b4b2f5ffffffffffffffffffffffffffffffffffffffffffffffffffffffffffffffff",
        "nonce": "0xc47",
        "chainId": "0x14a34"
      },
      "additionalContracts": [],
      "isFixedGasLimit": false
    },
    {
      "hash": "0x8654f13fac2ddec8047bc42254a152bf7f4e019a8fd1e5e98c716df7b7e7305f",
      "transactionType": "CALL",
      "contractName": "MockWBTC",
      "contractAddress": "0x4cd911b122e27e5ef684e3553b8187525725a399",
      "function": "approve(address,uint256)",
      "arguments": [
        "0xbD2329ad3cCcc4932B847014572F429bc8B4b2f5",
        "115792089237316195423570985008687907853269984665640564039457584007913129639935"
      ],
      "transaction": {
        "from": "0xa6b3d200cd34ca14d7579dac8b054bf50a62c37c",
        "to": "0x4cd911b122e27e5ef684e3553b8187525725a399",
        "gas": "0x96a4",
        "value": "0x0",
        "input": "0x095ea7b3000000000000000000000000bd2329ad3cccc4932b847014572f429bc8b4b2f5ffffffffffffffffffffffffffffffffffffffffffffffffffffffffffffffff",
        "nonce": "0xc48",
        "chainId": "0x14a34"
      },
      "additionalContracts": [],
      "isFixedGasLimit": false
    },
    {
      "hash": "0x21f9d3d5f78a3f26c1902f7e6b8b6d35d94f10ab4fb283811a3ec7f02808e906",
      "transactionType": "CALL",
      "contractName": null,
      "contractAddress": "0xbd2329ad3cccc4932b847014572f429bc8b4b2f5",
      "function": "createRiskyPosition(address,address,address,uint256,uint256,address)",
      "arguments": [
        "0xF8724317315B1BA8ac1a0f30Ac407e9fCf20442B",
        "0x87bb55de00f7D2791dbF3461A110D99bB47cF62F",
        "0xcbeC2cAa97A660434aA5420d667b3f1e60E2C17B",
        "1000000000000000000",
        "2425000000",
        "0xA6B3D200cD34ca14d7579DAc8B054bf50a62c37c"
      ],
      "transaction": {
        "from": "0xa6b3d200cd34ca14d7579dac8b054bf50a62c37c",
        "to": "0xbd2329ad3cccc4932b847014572f429bc8b4b2f5",
        "gas": "0x9b205",
        "value": "0x0",
        "input": "0x1d9563a9000000000000000000000000f8724317315b1ba8ac1a0f30ac407e9fcf20442b00000000000000000000000087bb55de00f7d2791dbf3461a110d99bb47cf62f000000000000000000000000cbec2caa97a660434aa5420d667b3f1e60e2c17b0000000000000000000000000000000000000000000000000de0b6b3a764000000000000000000000000000000000000000000000000000000000000908a9040000000000000000000000000a6b3d200cd34ca14d7579dac8b054bf50a62c37c",
        "nonce": "0xc49",
        "chainId": "0x14a34"
      },
      "additionalContracts": [],
      "isFixedGasLimit": false
    },
    {
      "hash": "0xf2e894d566044e4d966c1e4f2703c1ab1e6372a99d40534a165e2150a75f0c5d",
      "transactionType": "CALL",
      "contractName": null,
      "contractAddress": "0xbd2329ad3cccc4932b847014572f429bc8b4b2f5",
      "function": "accrueInterest(address,uint256)",
      "arguments": [
        "0xF8724317315B1BA8ac1a0f30Ac407e9fCf20442B",
        "6"
      ],
      "transaction": {
        "from": "0xa6b3d200cd34ca14d7579dac8b054bf50a62c37c",
        "to": "0xbd2329ad3cccc4932b847014572f429bc8b4b2f5",
        "gas": "0xa297",
        "value": "0x0",
        "input": "0x7c9d1cce000000000000000000000000f8724317315b1ba8ac1a0f30ac407e9fcf20442b0000000000000000000000000000000000000000000000000000000000000006",
        "nonce": "0xc4a",
        "chainId": "0x14a34"
      },
      "additionalContracts": [],
      "isFixedGasLimit": false
    }
  ],
  "receipts": [
    {
      "status": "0x1",
      "cumulativeGasUsed": "0x1a6500",
      "logs": [
        {
          "address": "0x87bb55de00f7d2791dbf3461a110d99bb47cf62f",
          "topics": [
            "0x8c5be1e5ebec7d5bd14f71427d1e84f3dd0314c0f7b2291e5b200ac8c7c3b925",
            "0x000000000000000000000000a6b3d200cd34ca14d7579dac8b054bf50a62c37c",
            "0x000000000000000000000000bd2329ad3cccc4932b847014572f429bc8b4b2f5"
          ],
          "data": "0xffffffffffffffffffffffffffffffffffffffffffffffffffffffffffffffff",
          "blockHash": "0xcb129a3ebf2f180e288b625697236d98d8d35d8b60195a46fdeaa31335f48f3a",
          "blockNumber": "0x19eb5e5",
          "transactionHash": "0x7471108dad28e33308ccb420111a467fb11de538e2f82921f216fa5b8fb48ed7",
          "transactionIndex": "0x6",
          "logIndex": "0x35",
          "removed": false
        }
      ],
      "logsBloom": "0x00000000000200000000000400000000000000000000000002000000000000000000000000000000000000000000000000000000000000000000000000200000000000000000000000000000000000000000000000000000000000000000000000000000000000000000000000000000400000000000000000000000000000000000000000000000000000000000080000000000000000000000000000000000020000000000000000000000000000000000000000000000000000000000004000000040000000000000000000000000400000000000000000000000000000000010000001000000000000000000000000000000000000000000000000000000",
      "type": "0x2",
      "transactionHash": "0x7471108dad28e33308ccb420111a467fb11de538e2f82921f216fa5b8fb48ed7",
      "transactionIndex": "0x6",
      "blockHash": "0xcb129a3ebf2f180e288b625697236d98d8d35d8b60195a46fdeaa31335f48f3a",
      "blockNumber": "0x19eb5e5",
      "gasUsed": "0x6701",
      "effectiveGasPrice": "0x45d8e",
      "from": "0xa6b3d200cd34ca14d7579dac8b054bf50a62c37c",
      "to": "0x87bb55de00f7d2791dbf3461a110d99bb47cf62f",
      "contractAddress": null,
      "l1BaseFeeScalar": "0x44d",
      "l1BlobBaseFee": "0x1",
      "l1BlobBaseFeeScalar": "0xa118b",
      "l1Fee": "0x19466",
      "l1GasPrice": "0xe56b",
      "l1GasUsed": "0x640"
    },
    {
      "status": "0x1",
      "cumulativeGasUsed": "0x1acc01",
      "logs": [
        {
          "address": "0xcbec2caa97a660434aa5420d667b3f1e60e2c17b",
          "topics": [
            "0x8c5be1e5ebec7d5bd14f71427d1e84f3dd0314c0f7b2291e5b200ac8c7c3b925",
            "0x000000000000000000000000a6b3d200cd34ca14d7579dac8b054bf50a62c37c",
            "0x000000000000000000000000bd2329ad3cccc4932b847014572f429bc8b4b2f5"
          ],
          "data": "0xffffffffffffffffffffffffffffffffffffffffffffffffffffffffffffffff",
          "blockHash": "0xcb129a3ebf2f180e288b625697236d98d8d35d8b60195a46fdeaa31335f48f3a",
          "blockNumber": "0x19eb5e5",
          "transactionHash": "0x69429f4f1bb0fb16f93d01fe02545ff5c263db67e21a6cbe437f9800ea86c192",
          "transactionIndex": "0x7",
          "logIndex": "0x36",
          "removed": false
        }
      ],
      "logsBloom": "0x00000000008000000000000400000000000000000000000002000000000000000000000000000000000000000000000000000000000000000000000000200000000000000000000000000000000400000000000000000000000000000000000000000000000000000000000000000000400000000000000000000000000000000000000000000000000000000000000000000000000000000000000000000000020000000000000000000000000000000000000000000000000000000000004000000040000000000000000000000000400000000000000000000000000000000010000400000000000000000000000000000000000000000000000000000000",
      "type": "0x2",
      "transactionHash": "0x69429f4f1bb0fb16f93d01fe02545ff5c263db67e21a6cbe437f9800ea86c192",
      "transactionIndex": "0x7",
      "blockHash": "0xcb129a3ebf2f180e288b625697236d98d8d35d8b60195a46fdeaa31335f48f3a",
      "blockNumber": "0x19eb5e5",
      "gasUsed": "0x6701",
      "effectiveGasPrice": "0x45d8e",
      "from": "0xa6b3d200cd34ca14d7579dac8b054bf50a62c37c",
      "to": "0xcbec2caa97a660434aa5420d667b3f1e60e2c17b",
      "contractAddress": null,
      "l1BaseFeeScalar": "0x44d",
      "l1BlobBaseFee": "0x1",
      "l1BlobBaseFeeScalar": "0xa118b",
      "l1Fee": "0x19466",
      "l1GasPrice": "0xe56b",
      "l1GasUsed": "0x640"
    },
    {
      "status": "0x1",
      "cumulativeGasUsed": "0x1b3302",
      "logs": [
        {
          "address": "0x4cd911b122e27e5ef684e3553b8187525725a399",
          "topics": [
            "0x8c5be1e5ebec7d5bd14f71427d1e84f3dd0314c0f7b2291e5b200ac8c7c3b925",
            "0x000000000000000000000000a6b3d200cd34ca14d7579dac8b054bf50a62c37c",
            "0x000000000000000000000000bd2329ad3cccc4932b847014572f429bc8b4b2f5"
          ],
          "data": "0xffffffffffffffffffffffffffffffffffffffffffffffffffffffffffffffff",
          "blockHash": "0xcb129a3ebf2f180e288b625697236d98d8d35d8b60195a46fdeaa31335f48f3a",
          "blockNumber": "0x19eb5e5",
          "transactionHash": "0x8654f13fac2ddec8047bc42254a152bf7f4e019a8fd1e5e98c716df7b7e7305f",
          "transactionIndex": "0x8",
          "logIndex": "0x37",
          "removed": false
        }
      ],
      "logsBloom": "0x00000000000000000000000400000000000000000000000002000000000000000000000000000000000000000000000000000000000000000000000000200000000000000001000000000000000000000000000000000000000000000000000000000000000000000000000000000000400000000000000000000000000000000000000000000000000000000000000000000000000000000000000000000000020000000000000000000000000000000000000000000000000000200000004000000040000000008000000000000000400000000000000000000000000000000010000000000000000000000000000000000000000000000000000000000000",
      "type": "0x2",
      "transactionHash": "0x8654f13fac2ddec8047bc42254a152bf7f4e019a8fd1e5e98c716df7b7e7305f",
      "transactionIndex": "0x8",
      "blockHash": "0xcb129a3ebf2f180e288b625697236d98d8d35d8b60195a46fdeaa31335f48f3a",
      "blockNumber": "0x19eb5e5",
      "gasUsed": "0x6701",
      "effectiveGasPrice": "0x45d8e",
      "from": "0xa6b3d200cd34ca14d7579dac8b054bf50a62c37c",
      "to": "0x4cd911b122e27e5ef684e3553b8187525725a399",
      "contractAddress": null,
      "l1BaseFeeScalar": "0x44d",
      "l1BlobBaseFee": "0x1",
      "l1BlobBaseFeeScalar": "0xa118b",
      "l1Fee": "0x19466",
      "l1GasPrice": "0xe56b",
      "l1GasUsed": "0x640"
    },
    {
      "status": "0x1",
      "cumulativeGasUsed": "0x2237f2",
      "logs": [
        {
          "address": "0x87bb55de00f7d2791dbf3461a110d99bb47cf62f",
          "topics": [
            "0xddf252ad1be2c89b69c2b068fc378daa952ba7f163c4a11628f55a4df523b3ef",
            "0x000000000000000000000000a6b3d200cd34ca14d7579dac8b054bf50a62c37c",
            "0x000000000000000000000000bd2329ad3cccc4932b847014572f429bc8b4b2f5"
          ],
          "data": "0x0000000000000000000000000000000000000000000000000de0b6b3a7640000",
          "blockHash": "0xcb129a3ebf2f180e288b625697236d98d8d35d8b60195a46fdeaa31335f48f3a",
          "blockNumber": "0x19eb5e5",
          "transactionHash": "0x21f9d3d5f78a3f26c1902f7e6b8b6d35d94f10ab4fb283811a3ec7f02808e906",
          "transactionIndex": "0x9",
          "logIndex": "0x38",
          "removed": false
        },
        {
          "address": "0x87bb55de00f7d2791dbf3461a110d99bb47cf62f",
          "topics": [
            "0x8c5be1e5ebec7d5bd14f71427d1e84f3dd0314c0f7b2291e5b200ac8c7c3b925",
            "0x000000000000000000000000bd2329ad3cccc4932b847014572f429bc8b4b2f5",
            "0x000000000000000000000000f8724317315b1ba8ac1a0f30ac407e9fcf20442b"
          ],
          "data": "0x0000000000000000000000000000000000000000000000000de0b6b3a7640000",
          "blockHash": "0xcb129a3ebf2f180e288b625697236d98d8d35d8b60195a46fdeaa31335f48f3a",
          "blockNumber": "0x19eb5e5",
          "transactionHash": "0x21f9d3d5f78a3f26c1902f7e6b8b6d35d94f10ab4fb283811a3ec7f02808e906",
          "transactionIndex": "0x9",
          "logIndex": "0x39",
          "removed": false
        },
        {
          "address": "0x87bb55de00f7d2791dbf3461a110d99bb47cf62f",
          "topics": [
            "0xddf252ad1be2c89b69c2b068fc378daa952ba7f163c4a11628f55a4df523b3ef",
            "0x000000000000000000000000bd2329ad3cccc4932b847014572f429bc8b4b2f5",
            "0x000000000000000000000000f8724317315b1ba8ac1a0f30ac407e9fcf20442b"
          ],
          "data": "0x0000000000000000000000000000000000000000000000000de0b6b3a7640000",
          "blockHash": "0xcb129a3ebf2f180e288b625697236d98d8d35d8b60195a46fdeaa31335f48f3a",
          "blockNumber": "0x19eb5e5",
          "transactionHash": "0x21f9d3d5f78a3f26c1902f7e6b8b6d35d94f10ab4fb283811a3ec7f02808e906",
          "transactionIndex": "0x9",
          "logIndex": "0x3a",
          "removed": false
        },
        {
          "address": "0xc25d6a1e7878e32acab67080bf5a3973e061caec",
          "topics": [
            "0x5e804d42ae3b860f881d11cb44a4bb1f2f0d5b3d081f5539a32d6f97b629d978",
            "0x000000000000000000000000cbec2caa97a660434aa5420d667b3f1e60e2c17b"
          ],
          "data": "0x000000000000000000000000000000000000000000000000000000000004003b",
          "blockHash": "0xcb129a3ebf2f180e288b625697236d98d8d35d8b60195a46fdeaa31335f48f3a",
          "blockNumber": "0x19eb5e5",
          "transactionHash": "0x21f9d3d5f78a3f26c1902f7e6b8b6d35d94f10ab4fb283811a3ec7f02808e906",
          "transactionIndex": "0x9",
          "logIndex": "0x3b",
          "removed": false
        },
        {
          "address": "0xcbec2caa97a660434aa5420d667b3f1e60e2c17b",
          "topics": [
            "0xddf252ad1be2c89b69c2b068fc378daa952ba7f163c4a11628f55a4df523b3ef",
            "0x000000000000000000000000c25d6a1e7878e32acab67080bf5a3973e061caec",
            "0x000000000000000000000000bd2329ad3cccc4932b847014572f429bc8b4b2f5"
          ],
          "data": "0x00000000000000000000000000000000000000000000000000000000908a9040",
          "blockHash": "0xcb129a3ebf2f180e288b625697236d98d8d35d8b60195a46fdeaa31335f48f3a",
          "blockNumber": "0x19eb5e5",
          "transactionHash": "0x21f9d3d5f78a3f26c1902f7e6b8b6d35d94f10ab4fb283811a3ec7f02808e906",
          "transactionIndex": "0x9",
          "logIndex": "0x3c",
          "removed": false
        },
        {
          "address": "0xc25d6a1e7878e32acab67080bf5a3973e061caec",
          "topics": [
            "0x385feb58578c31f205b503905da1dec4c110dcdaac4a0dc43be298cae636307f",
            "0x000000000000000000000000cbec2caa97a660434aa5420d667b3f1e60e2c17b"
          ],
          "data": "0x0000000000000000000000000000000000000000000000000000000000018560",
          "blockHash": "0xcb129a3ebf2f180e288b625697236d98d8d35d8b60195a46fdeaa31335f48f3a",
          "blockNumber": "0x19eb5e5",
          "transactionHash": "0x21f9d3d5f78a3f26c1902f7e6b8b6d35d94f10ab4fb283811a3ec7f02808e906",
          "transactionIndex": "0x9",
          "logIndex": "0x3d",
          "removed": false
        },
        {
          "address": "0xc25d6a1e7878e32acab67080bf5a3973e061caec",
          "topics": [
            "0xb088e70ab7e367eb8a026f0cf73edc838746f0f9761c510260ff489070d7b3c8",
            "0x000000000000000000000000cbec2caa97a660434aa5420d667b3f1e60e2c17b",
            "0x000000000000000000000000bd2329ad3cccc4932b847014572f429bc8b4b2f5"
          ],
          "data": "0x00000000000000000000000000000000000000000000000000000000908a9040",
          "blockHash": "0xcb129a3ebf2f180e288b625697236d98d8d35d8b60195a46fdeaa31335f48f3a",
          "blockNumber": "0x19eb5e5",
          "transactionHash": "0x21f9d3d5f78a3f26c1902f7e6b8b6d35d94f10ab4fb283811a3ec7f02808e906",
          "transactionIndex": "0x9",
          "logIndex": "0x3e",
          "removed": false
        },
        {
          "address": "0x934250c921597af3827777a9faaded879ca82126",
          "topics": [
            "0x9f0a7aaf8d18c024e8123bdcd157b0f6e0f42892a4ea14a2becc88a320a79922",
            "0x924cafe3f4668225141f2f2252ca17f67b629c2ff1426ac8ff340549f1266789",
            "0x000000000000000000000000bd2329ad3cccc4932b847014572f429bc8b4b2f5"
          ],
          "data": "0x0000000000000000000000000000000000000000000000000de0b6b3a76400000000000000000000000000000000000000000000000000000000000000000001",
          "blockHash": "0xcb129a3ebf2f180e288b625697236d98d8d35d8b60195a46fdeaa31335f48f3a",
          "blockNumber": "0x19eb5e5",
          "transactionHash": "0x21f9d3d5f78a3f26c1902f7e6b8b6d35d94f10ab4fb283811a3ec7f02808e906",
          "transactionIndex": "0x9",
          "logIndex": "0x3f",
          "removed": false
        },
        {
          "address": "0xf8724317315b1ba8ac1a0f30ac407e9fcf20442b",
          "topics": [
            "0xcb5aa1675878bc9c8edd5d4265b7e06610564c809ed69560d24f5f284dd8c44b",
            "0x000000000000000000000000bd2329ad3cccc4932b847014572f429bc8b4b2f5"
          ],
          "data": "0x0000000000000000000000000000000000000000000000000de0b6b3a7640000924cafe3f4668225141f2f2252ca17f67b629c2ff1426ac8ff340549f1266789",
          "blockHash": "0xcb129a3ebf2f180e288b625697236d98d8d35d8b60195a46fdeaa31335f48f3a",
          "blockNumber": "0x19eb5e5",
          "transactionHash": "0x21f9d3d5f78a3f26c1902f7e6b8b6d35d94f10ab4fb283811a3ec7f02808e906",
          "transactionIndex": "0x9",
          "logIndex": "0x40",
          "removed": false
        },
        {
          "address": "0xf8724317315b1ba8ac1a0f30ac407e9fcf20442b",
          "topics": [
            "0x3c173f34da0900ded1a250c99de3d58cb900ce2841d93b11d877afee8b077a48",
            "0x0000000000000000000000000000000000000000000000000000000000000006",
            "0x000000000000000000000000bd2329ad3cccc4932b847014572f429bc8b4b2f5"
          ],
          "data": "0x00000000000000000000000087bb55de00f7d2791dbf3461a110d99bb47cf62f000000000000000000000000cbec2caa97a660434aa5420d667b3f1e60e2c17b0000000000000000000000000000000000000000000000000de0b6b3a764000000000000000000000000000000000000000000000000000000000000908a9040",
          "blockHash": "0xcb129a3ebf2f180e288b625697236d98d8d35d8b60195a46fdeaa31335f48f3a",
          "blockNumber": "0x19eb5e5",
          "transactionHash": "0x21f9d3d5f78a3f26c1902f7e6b8b6d35d94f10ab4fb283811a3ec7f02808e906",
          "transactionIndex": "0x9",
          "logIndex": "0x41",
          "removed": false
        },
        {
          "address": "0xcbec2caa97a660434aa5420d667b3f1e60e2c17b",
          "topics": [
            "0xddf252ad1be2c89b69c2b068fc378daa952ba7f163c4a11628f55a4df523b3ef",
            "0x000000000000000000000000bd2329ad3cccc4932b847014572f429bc8b4b2f5",
            "0x000000000000000000000000a6b3d200cd34ca14d7579dac8b054bf50a62c37c"
          ],
          "data": "0x00000000000000000000000000000000000000000000000000000000908a9040",
          "blockHash": "0xcb129a3ebf2f180e288b625697236d98d8d35d8b60195a46fdeaa31335f48f3a",
          "blockNumber": "0x19eb5e5",
          "transactionHash": "0x21f9d3d5f78a3f26c1902f7e6b8b6d35d94f10ab4fb283811a3ec7f02808e906",
          "transactionIndex": "0x9",
          "logIndex": "0x42",
          "removed": false
        },
        {
          "address": "0xbd2329ad3cccc4932b847014572f429bc8b4b2f5",
          "topics": [
            "0xf091b3222b8b47f0620d74674778cbab45440b1507aed82531cf4027e4db8f00",
            "0x000000000000000000000000f8724317315b1ba8ac1a0f30ac407e9fcf20442b",
            "0x0000000000000000000000000000000000000000000000000000000000000006"
          ],
          "data": "0x000000000000000000000000a6b3d200cd34ca14d7579dac8b054bf50a62c37c",
          "blockHash": "0xcb129a3ebf2f180e288b625697236d98d8d35d8b60195a46fdeaa31335f48f3a",
          "blockNumber": "0x19eb5e5",
          "transactionHash": "0x21f9d3d5f78a3f26c1902f7e6b8b6d35d94f10ab4fb283811a3ec7f02808e906",
          "transactionIndex": "0x9",
          "logIndex": "0x43",
          "removed": false
        }
      ],
      "logsBloom": "0x00000000008200000000000400000008010000000000000202000000080000000000000002000000000000000010000000002000000410000000000000200000000000000000000000010008000400008000000000001000000010000000000000000008300100000080000000041200400000000c000000004080300000000000000084000000000000000000020c0000040000000000040000000010000000020000000040008000000000000000000000008000000000000000080090004000000042000000000000000000000000400000400000000004000020010000000010082401000000000000000000000002800000000000000000000000200000",
      "type": "0x2",
      "transactionHash": "0x21f9d3d5f78a3f26c1902f7e6b8b6d35d94f10ab4fb283811a3ec7f02808e906",
      "transactionIndex": "0x9",
      "blockHash": "0xcb129a3ebf2f180e288b625697236d98d8d35d8b60195a46fdeaa31335f48f3a",
      "blockNumber": "0x19eb5e5",
      "gasUsed": "0x704f0",
      "effectiveGasPrice": "0x45d8e",
      "from": "0xa6b3d200cd34ca14d7579dac8b054bf50a62c37c",
      "to": "0xbd2329ad3cccc4932b847014572f429bc8b4b2f5",
      "contractAddress": null,
      "l1BaseFeeScalar": "0x44d",
      "l1BlobBaseFee": "0x1",
      "l1BlobBaseFeeScalar": "0xa118b",
      "l1Fee": "0x29756",
      "l1GasPrice": "0xe56b",
      "l1GasUsed": "0xa40"
    },
    {
      "status": "0x1",
      "cumulativeGasUsed": "0x22ada9",
      "logs": [],
      "logsBloom": "0x00000000000000000000000000000000000000000000000000000000000000000000000000000000000000000000000000000000000000000000000000000000000000000000000000000000000000000000000000000000000000000000000000000000000000000000000000000000000000000000000000000000000000000000000000000000000000000000000000000000000000000000000000000000000000000000000000000000000000000000000000000000000000000000000000000000000000000000000000000000000000000000000000000000000000000000000000000000000000000000000000000000000000000000000000000000",
      "type": "0x2",
      "transactionHash": "0xf2e894d566044e4d966c1e4f2703c1ab1e6372a99d40534a165e2150a75f0c5d",
      "transactionIndex": "0xa",
      "blockHash": "0xcb129a3ebf2f180e288b625697236d98d8d35d8b60195a46fdeaa31335f48f3a",
      "blockNumber": "0x19eb5e5",
      "gasUsed": "0x75b7",
      "effectiveGasPrice": "0x45d8e",
      "from": "0xa6b3d200cd34ca14d7579dac8b054bf50a62c37c",
      "to": "0xbd2329ad3cccc4932b847014572f429bc8b4b2f5",
      "contractAddress": null,
      "l1BaseFeeScalar": "0x44d",
      "l1BlobBaseFee": "0x1",
      "l1BlobBaseFeeScalar": "0xa118b",
      "l1Fee": "0x19466",
      "l1GasPrice": "0xe56b",
      "l1GasUsed": "0x640"
    }
  ],
  "libraries": [],
  "pending": [],
  "returns": {},
  "timestamp": 1750125228,
  "chain": 84532,
  "commit": "e3173ca"
}