{
  "transactions": [
    {
      "hash": "0x729ab083c2c9e24cdf750812f02dc7b270397f4bb0f5725bd656c9b6fcb9c3cd",
      "transactionType": "CALL",
      "contractName": "MockETH",
      "contractAddress": "0x87bb55de00f7d2791dbf3461a110d99bb47cf62f",
      "function": "mint(address,uint256)",
      "arguments": [
        "0xA6B3D200cD34ca14d7579DAc8B054bf50a62c37c",
        "50000000000000000000"
      ],
      "transaction": {
        "from": "0xa6b3d200cd34ca14d7579dac8b054bf50a62c37c",
        "to": "0x87bb55de00f7d2791dbf3461a110d99bb47cf62f",
        "gas": "0xc1a6",
        "value": "0x0",
        "input": "0x40c10f19000000000000000000000000a6b3d200cd34ca14d7579dac8b054bf50a62c37c000000000000000000000000000000000000000000000002b5e3af16b1880000",
        "nonce": "0xbc0",
        "chainId": "0x14a34"
      },
      "additionalContracts": [],
      "isFixedGasLimit": false
    },
    {
      "hash": "0x5622294d6185659836630bf6d63505d9ae34c63fdf1d89efee709e4e2b9fd447",
      "transactionType": "CALL",
      "contractName": null,
      "contractAddress": "0xcbec2caa97a660434aa5420d667b3f1e60e2c17b",
      "function": "mint(address,uint256)",
      "arguments": [
        "0xA6B3D200cD34ca14d7579DAc8B054bf50a62c37c",
        "500000000000"
      ],
      "transaction": {
        "from": "0xa6b3d200cd34ca14d7579dac8b054bf50a62c37c",
        "to": "0xcbec2caa97a660434aa5420d667b3f1e60e2c17b",
        "gas": "0xb6b2",
        "value": "0x0",
        "input": "0x40c10f19000000000000000000000000a6b3d200cd34ca14d7579dac8b054bf50a62c37c000000000000000000000000000000000000000000000000000000746a528800",
        "nonce": "0xbc1",
        "chainId": "0x14a34"
      },
      "additionalContracts": [],
      "isFixedGasLimit": false
    },
    {
      "hash": "0x01aeed565f058f5790aebea0bd77c8d9c4e65445c8ca53422730ef1c583f112d",
      "transactionType": "CALL",
      "contractName": "MockETH",
      "contractAddress": "0x87bb55de00f7d2791dbf3461a110d99bb47cf62f",
      "function": "approve(address,uint256)",
      "arguments": [
        "0xbD2329ad3cCcc4932B847014572F429bc8B4b2f5",
        "1000000000000000000"
      ],
      "transaction": {
        "from": "0xa6b3d200cd34ca14d7579dac8b054bf50a62c37c",
        "to": "0x87bb55de00f7d2791dbf3461a110d99bb47cf62f",
        "gas": "0xf7f5",
        "value": "0x0",
        "input": "0x095ea7b3000000000000000000000000bd2329ad3cccc4932b847014572f429bc8b4b2f50000000000000000000000000000000000000000000000000de0b6b3a7640000",
        "nonce": "0xbc2",
        "chainId": "0x14a34"
      },
      "additionalContracts": [],
      "isFixedGasLimit": false
    },
    {
      "hash": "0x3a455dbe8ae8e592702ad0fd361a4c02a2c49b0ed9ead37f41bccb1d435da6ff",
      "transactionType": "CALL",
      "contractName": null,
      "contractAddress": "0xbd2329ad3cccc4932b847014572f429bc8b4b2f5",
      "function": "createRiskyPosition(address,address,address,uint256,uint256,address)",
      "arguments": [
        "0xF8724317315B1BA8ac1a0f30Ac407e9fCf20442B",
        "0x87bb55de00f7D2791dbF3461A110D99bB47cF62F",
        "0xcbeC2cAa97A660434aA5420d667b3f1e60E2C17B",
        "1000000000000000000",
        "2520000000",
        "0xA6B3D200cD34ca14d7579DAc8B054bf50a62c37c"
      ],
      "transaction": {
        "from": "0xa6b3d200cd34ca14d7579dac8b054bf50a62c37c",
        "to": "0xbd2329ad3cccc4932b847014572f429bc8b4b2f5",
        "gas": "0xb19ff",
        "value": "0x0",
        "input": "0x1d9563a9000000000000000000000000f8724317315b1ba8ac1a0f30ac407e9fcf20442b00000000000000000000000087bb55de00f7d2791dbf3461a110d99bb47cf62f000000000000000000000000cbec2caa97a660434aa5420d667b3f1e60e2c17b0000000000000000000000000000000000000000000000000de0b6b3a76400000000000000000000000000000000000000000000000000000000000096342600000000000000000000000000a6b3d200cd34ca14d7579dac8b054bf50a62c37c",
        "nonce": "0xbc3",
        "chainId": "0x14a34"
      },
      "additionalContracts": [],
      "isFixedGasLimit": false
    },
    {
      "hash": "0xe695cb61acebdfa15343b9672e9cf811d960e77525e578e03f4639dbd372a5d1",
      "transactionType": "CALL",
      "contractName": null,
      "contractAddress": "0xbd2329ad3cccc4932b847014572f429bc8b4b2f5",
      "function": "accrueInterest(address,uint256)",
      "arguments": [
        "0xF8724317315B1BA8ac1a0f30Ac407e9fCf20442B",
        "2"
      ],
      "transaction": {
        "from": "0xa6b3d200cd34ca14d7579dac8b054bf50a62c37c",
        "to": "0xbd2329ad3cccc4932b847014572f429bc8b4b2f5",
        "gas": "0xa297",
        "value": "0x0",
        "input": "0x7c9d1cce000000000000000000000000f8724317315b1ba8ac1a0f30ac407e9fcf20442b0000000000000000000000000000000000000000000000000000000000000002",
        "nonce": "0xbc4",
        "chainId": "0x14a34"
      },
      "additionalContracts": [],
      "isFixedGasLimit": false
    },
    {
      "hash": "0x4afec4ef1f241bdc9912794c6c30a8ee0a966ccffa225333a77ffb745d19d1c3",
      "transactionType": "CALL",
      "contractName": null,
      "contractAddress": "0xbd2329ad3cccc4932b847014572f429bc8b4b2f5",
      "function": "accrueInterest(address,uint256)",
      "arguments": [
        "0xF8724317315B1BA8ac1a0f30Ac407e9fCf20442B",
        "2"
      ],
      "transaction": {
        "from": "0xa6b3d200cd34ca14d7579dac8b054bf50a62c37c",
        "to": "0xbd2329ad3cccc4932b847014572f429bc8b4b2f5",
        "gas": "0xa297",
        "value": "0x0",
        "input": "0x7c9d1cce000000000000000000000000f8724317315b1ba8ac1a0f30ac407e9fcf20442b0000000000000000000000000000000000000000000000000000000000000002",
        "nonce": "0xbc5",
        "chainId": "0x14a34"
      },
      "additionalContracts": [],
      "isFixedGasLimit": false
    },
    {
      "hash": "0xc5c97b913e288e7c5d925e8ae5482694a0ee573fa9c86503321357d2b3abf17f",
      "transactionType": "CALL",
      "contractName": "MockETH",
      "contractAddress": "0x87bb55de00f7d2791dbf3461a110d99bb47cf62f",
      "function": "approve(address,uint256)",
      "arguments": [
        "0xbD2329ad3cCcc4932B847014572F429bc8B4b2f5",
        "1000000000000000000"
      ],
      "transaction": {
        "from": "0xa6b3d200cd34ca14d7579dac8b054bf50a62c37c",
        "to": "0x87bb55de00f7d2791dbf3461a110d99bb47cf62f",
        "gas": "0xf7f5",
        "value": "0x0",
        "input": "0x095ea7b3000000000000000000000000bd2329ad3cccc4932b847014572f429bc8b4b2f50000000000000000000000000000000000000000000000000de0b6b3a7640000",
        "nonce": "0xbc6",
        "chainId": "0x14a34"
      },
      "additionalContracts": [],
      "isFixedGasLimit": false
    },
    {
      "hash": "0x5b03b52f08946fecc1590730f8677f82efa68a4622475042623c089beb5ffe79",
      "transactionType": "CALL",
      "contractName": null,
      "contractAddress": "0xbd2329ad3cccc4932b847014572f429bc8b4b2f5",
      "function": "createRiskyPosition(address,address,address,uint256,uint256,address)",
      "arguments": [
        "0xF8724317315B1BA8ac1a0f30Ac407e9fCf20442B",
        "0x87bb55de00f7D2791dbF3461A110D99bB47cF62F",
        "0xcbeC2cAa97A660434aA5420d667b3f1e60E2C17B",
        "1000000000000000000",
        "2700000000",
        "0xA6B3D200cD34ca14d7579DAc8B054bf50a62c37c"
      ],
      "transaction": {
        "from": "0xa6b3d200cd34ca14d7579dac8b054bf50a62c37c",
        "to": "0xbd2329ad3cccc4932b847014572f429bc8b4b2f5",
        "gas": "0x9a155",
        "value": "0x0",
        "input": "0x1d9563a9000000000000000000000000f8724317315b1ba8ac1a0f30ac407e9fcf20442b00000000000000000000000087bb55de00f7d2791dbf3461a110d99bb47cf62f000000000000000000000000cbec2caa97a660434aa5420d667b3f1e60e2c17b0000000000000000000000000000000000000000000000000de0b6b3a764000000000000000000000000000000000000000000000000000000000000a0eebb00000000000000000000000000a6b3d200cd34ca14d7579dac8b054bf50a62c37c",
        "nonce": "0xbc7",
        "chainId": "0x14a34"
      },
      "additionalContracts": [],
      "isFixedGasLimit": false
    },
    {
      "hash": "0x819af8e1d3cb09b25d24021e72e72ca216bd603c2d7e98e5e74a071c52d10d20",
      "transactionType": "CALL",
      "contractName": null,
      "contractAddress": "0xbd2329ad3cccc4932b847014572f429bc8b4b2f5",
      "function": "accrueInterest(address,uint256)",
      "arguments": [
        "0xF8724317315B1BA8ac1a0f30Ac407e9fCf20442B",
        "3"
      ],
      "transaction": {
        "from": "0xa6b3d200cd34ca14d7579dac8b054bf50a62c37c",
        "to": "0xbd2329ad3cccc4932b847014572f429bc8b4b2f5",
        "gas": "0xa297",
        "value": "0x0",
        "input": "0x7c9d1cce000000000000000000000000f8724317315b1ba8ac1a0f30ac407e9fcf20442b0000000000000000000000000000000000000000000000000000000000000003",
        "nonce": "0xbc8",
        "chainId": "0x14a34"
      },
      "additionalContracts": [],
      "isFixedGasLimit": false
    },
    {
      "hash": "0xb20793c646ed9b42405be9d11e939630c7a1327011179c4f922d4b905dedd6f7",
      "transactionType": "CALL",
      "contractName": null,
      "contractAddress": "0xbd2329ad3cccc4932b847014572f429bc8b4b2f5",
      "function": "accrueInterest(address,uint256)",
      "arguments": [
        "0xF8724317315B1BA8ac1a0f30Ac407e9fCf20442B",
        "3"
      ],
      "transaction": {
        "from": "0xa6b3d200cd34ca14d7579dac8b054bf50a62c37c",
        "to": "0xbd2329ad3cccc4932b847014572f429bc8b4b2f5",
        "gas": "0xa297",
        "value": "0x0",
        "input": "0x7c9d1cce000000000000000000000000f8724317315b1ba8ac1a0f30ac407e9fcf20442b0000000000000000000000000000000000000000000000000000000000000003",
        "nonce": "0xbc9",
        "chainId": "0x14a34"
      },
      "additionalContracts": [],
      "isFixedGasLimit": false
    },
    {
      "hash": "0x3eb83ad0d33769ce9f48c5da035731a439cc6b2f74494e6fec91da8aad74c5c2",
      "transactionType": "CALL",
      "contractName": "MockETH",
      "contractAddress": "0x87bb55de00f7d2791dbf3461a110d99bb47cf62f",
      "function": "approve(address,uint256)",
      "arguments": [
        "0xbD2329ad3cCcc4932B847014572F429bc8B4b2f5",
        "1000000000000000000"
      ],
      "transaction": {
        "from": "0xa6b3d200cd34ca14d7579dac8b054bf50a62c37c",
        "to": "0x87bb55de00f7d2791dbf3461a110d99bb47cf62f",
        "gas": "0xf7f5",
        "value": "0x0",
        "input": "0x095ea7b3000000000000000000000000bd2329ad3cccc4932b847014572f429bc8b4b2f50000000000000000000000000000000000000000000000000de0b6b3a7640000",
        "nonce": "0xbca",
        "chainId": "0x14a34"
      },
      "additionalContracts": [],
      "isFixedGasLimit": false
    },
    {
      "hash": "0x11cf807488a746c520af4190a3a38dff07638b24da66918c27bd25965d63f736",
      "transactionType": "CALL",
      "contractName": null,
      "contractAddress": "0xbd2329ad3cccc4932b847014572f429bc8b4b2f5",
      "function": "createRiskyPosition(address,address,address,uint256,uint256,address)",
      "arguments": [
        "0xF8724317315B1BA8ac1a0f30Ac407e9fCf20442B",
        "0x87bb55de00f7D2791dbF3461A110D99bB47cF62F",
        "0xcbeC2cAa97A660434aA5420d667b3f1e60E2C17B",
        "1000000000000000000",
        "2850000000",
        "0xA6B3D200cD34ca14d7579DAc8B054bf50a62c37c"
      ],
      "transaction": {
        "from": "0xa6b3d200cd34ca14d7579dac8b054bf50a62c37c",
        "to": "0xbd2329ad3cccc4932b847014572f429bc8b4b2f5",
        "gas": "0x9186e",
        "value": "0x0",
        "input": "0x1d9563a9000000000000000000000000f8724317315b1ba8ac1a0f30ac407e9fcf20442b00000000000000000000000087bb55de00f7d2791dbf3461a110d99bb47cf62f000000000000000000000000cbec2caa97a660434aa5420d667b3f1e60e2c17b0000000000000000000000000000000000000000000000000de0b6b3a764000000000000000000000000000000000000000000000000000000000000a9df8c80000000000000000000000000a6b3d200cd34ca14d7579dac8b054bf50a62c37c",
        "nonce": "0xbcb",
        "chainId": "0x14a34"
      },
      "additionalContracts": [],
      "isFixedGasLimit": false
    },
    {
      "hash": "0x7fd2247dce13937c4cde432dcdcdaeb5e5a0e06bdd7729a39b3fa6c8b4414f69",
      "transactionType": "CALL",
      "contractName": null,
      "contractAddress": "0xbd2329ad3cccc4932b847014572f429bc8b4b2f5",
      "function": "accrueInterest(address,uint256)",
      "arguments": [
        "0xF8724317315B1BA8ac1a0f30Ac407e9fCf20442B",
        "4"
      ],
      "transaction": {
        "from": "0xa6b3d200cd34ca14d7579dac8b054bf50a62c37c",
        "to": "0xbd2329ad3cccc4932b847014572f429bc8b4b2f5",
        "gas": "0xa297",
        "value": "0x0",
        "input": "0x7c9d1cce000000000000000000000000f8724317315b1ba8ac1a0f30ac407e9fcf20442b0000000000000000000000000000000000000000000000000000000000000004",
        "nonce": "0xbcc",
        "chainId": "0x14a34"
      },
      "additionalContracts": [],
      "isFixedGasLimit": false
    },
    {
      "hash": "0xf79974a470e882204f39c43ed7cd5d9a9439c93226b356635586eb05ed1aefad",
      "transactionType": "CALL",
      "contractName": null,
      "contractAddress": "0xbd2329ad3cccc4932b847014572f429bc8b4b2f5",
      "function": "accrueInterest(address,uint256)",
      "arguments": [
        "0xF8724317315B1BA8ac1a0f30Ac407e9fCf20442B",
        "4"
      ],
      "transaction": {
        "from": "0xa6b3d200cd34ca14d7579dac8b054bf50a62c37c",
        "to": "0xbd2329ad3cccc4932b847014572f429bc8b4b2f5",
        "gas": "0xa297",
        "value": "0x0",
        "input": "0x7c9d1cce000000000000000000000000f8724317315b1ba8ac1a0f30ac407e9fcf20442b0000000000000000000000000000000000000000000000000000000000000004",
        "nonce": "0xbcd",
        "chainId": "0x14a34"
      },
      "additionalContracts": [],
      "isFixedGasLimit": false
    }
  ],
  "receipts": [
    {
      "status": "0x1",
      "cumulativeGasUsed": "0x25d611",
      "logs": [
        {
          "address": "0x87bb55de00f7d2791dbf3461a110d99bb47cf62f",
          "topics": [
            "0xddf252ad1be2c89b69c2b068fc378daa952ba7f163c4a11628f55a4df523b3ef",
            "0x0000000000000000000000000000000000000000000000000000000000000000",
            "0x000000000000000000000000a6b3d200cd34ca14d7579dac8b054bf50a62c37c"
          ],
          "data": "0x000000000000000000000000000000000000000000000002b5e3af16b1880000",
          "blockHash": "0x186fd54917ff831c3a4e233b62c48197f7d5659a74ebb3ace0199bc13fe3b548",
          "blockNumber": "0x19ea552",
          "transactionHash": "0x729ab083c2c9e24cdf750812f02dc7b270397f4bb0f5725bd656c9b6fcb9c3cd",
          "transactionIndex": "0xe",
          "logIndex": "0x23",
          "removed": false
        }
      ],
      "logsBloom": "0x00000000000200000000000400000000000000000000000002000000000000000000000000000000000000000000000000000000000000000000000000000000000000000000000000000008000000000000000000000000000000000000000000000000020000000000000000000800000000000000000000000010000000000000000000000000000000000000080000000000000000000000000000000000000000000000000000000000000000000000000000000000000000000000000000000042000000000000000000000000000000000000000000000000000020000000000001000000000000000000000000000000000000000000000000000000",
      "type": "0x2",
      "transactionHash": "0x729ab083c2c9e24cdf750812f02dc7b270397f4bb0f5725bd656c9b6fcb9c3cd",
      "transactionIndex": "0xe",
      "blockHash": "0x186fd54917ff831c3a4e233b62c48197f7d5659a74ebb3ace0199bc13fe3b548",
      "blockNumber": "0x19ea552",
      "gasUsed": "0x8469",
      "effectiveGasPrice": "0x1d022",
      "from": "0xa6b3d200cd34ca14d7579dac8b054bf50a62c37c",
      "to": "0x87bb55de00f7d2791dbf3461a110d99bb47cf62f",
      "contractAddress": null,
      "l1BaseFeeScalar": "0x44d",
      "l1BlobBaseFee": "0x1",
      "l1BlobBaseFeeScalar": "0xa118b",
      "l1Fee": "0x1023e",
      "l1GasPrice": "0x9273",
      "l1GasUsed": "0x640"
    },
    {
      "status": "0x1",
      "cumulativeGasUsed": "0x265a56",
      "logs": [
        {
          "address": "0xcbec2caa97a660434aa5420d667b3f1e60e2c17b",
          "topics": [
            "0xddf252ad1be2c89b69c2b068fc378daa952ba7f163c4a11628f55a4df523b3ef",
            "0x0000000000000000000000000000000000000000000000000000000000000000",
            "0x000000000000000000000000a6b3d200cd34ca14d7579dac8b054bf50a62c37c"
          ],
          "data": "0x000000000000000000000000000000000000000000000000000000746a528800",
          "blockHash": "0x186fd54917ff831c3a4e233b62c48197f7d5659a74ebb3ace0199bc13fe3b548",
          "blockNumber": "0x19ea552",
          "transactionHash": "0x5622294d6185659836630bf6d63505d9ae34c63fdf1d89efee709e4e2b9fd447",
          "transactionIndex": "0xf",
          "logIndex": "0x24",
          "removed": false
        }
      ],
      "logsBloom": "0x00000000008000000000000400000000000000000000000002000000000000000000000000000000000000000000000000000000000000000000000000000000000000000000000000000008000400000000000000000000000000000000000000000000020000000000000000000800000000000000000000000010000000000000000000000000000000000000000000000000000000000000000000000000000000000000000000000000000000000000000000000000000000000000000000000042000000000000000000000000000000000000000000000000000020000000000400000000000000000000000000000000000000000000000000000000",
      "type": "0x2",
      "transactionHash": "0x5622294d6185659836630bf6d63505d9ae34c63fdf1d89efee709e4e2b9fd447",
      "transactionIndex": "0xf",
      "blockHash": "0x186fd54917ff831c3a4e233b62c48197f7d5659a74ebb3ace0199bc13fe3b548",
      "blockNumber": "0x19ea552",
      "gasUsed": "0x8445",
      "effectiveGasPrice": "0x1d022",
      "from": "0xa6b3d200cd34ca14d7579dac8b054bf50a62c37c",
      "to": "0xcbec2caa97a660434aa5420d667b3f1e60e2c17b",
      "contractAddress": null,
      "l1BaseFeeScalar": "0x44d",
      "l1BlobBaseFee": "0x1",
      "l1BlobBaseFeeScalar": "0xa118b",
      "l1Fee": "0x1023e",
      "l1GasPrice": "0x9273",
      "l1GasUsed": "0x640"
    },
    {
      "status": "0x1",
      "cumulativeGasUsed": "0x270ddb",
      "logs": [
        {
          "address": "0x87bb55de00f7d2791dbf3461a110d99bb47cf62f",
          "topics": [
            "0x8c5be1e5ebec7d5bd14f71427d1e84f3dd0314c0f7b2291e5b200ac8c7c3b925",
            "0x000000000000000000000000a6b3d200cd34ca14d7579dac8b054bf50a62c37c",
            "0x000000000000000000000000bd2329ad3cccc4932b847014572f429bc8b4b2f5"
          ],
          "data": "0x0000000000000000000000000000000000000000000000000de0b6b3a7640000",
          "blockHash": "0x186fd54917ff831c3a4e233b62c48197f7d5659a74ebb3ace0199bc13fe3b548",
          "blockNumber": "0x19ea552",
          "transactionHash": "0x01aeed565f058f5790aebea0bd77c8d9c4e65445c8ca53422730ef1c583f112d",
          "transactionIndex": "0x10",
          "logIndex": "0x25",
          "removed": false
        }
      ],
      "logsBloom": "0x00000000000200000000000400000000000000000000000002000000000000000000000000000000000000000000000000000000000000000000000000200000000000000000000000000000000000000000000000000000000000000000000000000000000000000000000000000000400000000000000000000000000000000000000000000000000000000000080000000000000000000000000000000000020000000000000000000000000000000000000000000000000000000000004000000040000000000000000000000000400000000000000000000000000000000010000001000000000000000000000000000000000000000000000000000000",
      "type": "0x2",
      "transactionHash": "0x01aeed565f058f5790aebea0bd77c8d9c4e65445c8ca53422730ef1c583f112d",
      "transactionIndex": "0x10",
      "blockHash": "0x186fd54917ff831c3a4e233b62c48197f7d5659a74ebb3ace0199bc13fe3b548",
      "blockNumber": "0x19ea552",
      "gasUsed": "0xb385",
      "effectiveGasPrice": "0x1d022",
      "from": "0xa6b3d200cd34ca14d7579dac8b054bf50a62c37c",
      "to": "0x87bb55de00f7d2791dbf3461a110d99bb47cf62f",
      "contractAddress": null,
      "l1BaseFeeScalar": "0x44d",
      "l1BlobBaseFee": "0x1",
      "l1BlobBaseFeeScalar": "0xa118b",
      "l1Fee": "0x1023e",
      "l1GasPrice": "0x9273",
      "l1GasUsed": "0x640"
    },
    {
      "status": "0x1",
      "cumulativeGasUsed": "0x2f176a",
      "logs": [
        {
          "address": "0x87bb55de00f7d2791dbf3461a110d99bb47cf62f",
          "topics": [
            "0xddf252ad1be2c89b69c2b068fc378daa952ba7f163c4a11628f55a4df523b3ef",
            "0x000000000000000000000000a6b3d200cd34ca14d7579dac8b054bf50a62c37c",
            "0x000000000000000000000000bd2329ad3cccc4932b847014572f429bc8b4b2f5"
          ],
          "data": "0x0000000000000000000000000000000000000000000000000de0b6b3a7640000",
          "blockHash": "0x186fd54917ff831c3a4e233b62c48197f7d5659a74ebb3ace0199bc13fe3b548",
          "blockNumber": "0x19ea552",
          "transactionHash": "0x3a455dbe8ae8e592702ad0fd361a4c02a2c49b0ed9ead37f41bccb1d435da6ff",
          "transactionIndex": "0x11",
          "logIndex": "0x26",
          "removed": false
        },
        {
          "address": "0x87bb55de00f7d2791dbf3461a110d99bb47cf62f",
          "topics": [
            "0x8c5be1e5ebec7d5bd14f71427d1e84f3dd0314c0f7b2291e5b200ac8c7c3b925",
            "0x000000000000000000000000bd2329ad3cccc4932b847014572f429bc8b4b2f5",
            "0x000000000000000000000000f8724317315b1ba8ac1a0f30ac407e9fcf20442b"
          ],
          "data": "0x0000000000000000000000000000000000000000000000000de0b6b3a7640000",
          "blockHash": "0x186fd54917ff831c3a4e233b62c48197f7d5659a74ebb3ace0199bc13fe3b548",
          "blockNumber": "0x19ea552",
          "transactionHash": "0x3a455dbe8ae8e592702ad0fd361a4c02a2c49b0ed9ead37f41bccb1d435da6ff",
          "transactionIndex": "0x11",
          "logIndex": "0x27",
          "removed": false
        },
        {
          "address": "0x87bb55de00f7d2791dbf3461a110d99bb47cf62f",
          "topics": [
            "0xddf252ad1be2c89b69c2b068fc378daa952ba7f163c4a11628f55a4df523b3ef",
            "0x000000000000000000000000bd2329ad3cccc4932b847014572f429bc8b4b2f5",
            "0x000000000000000000000000f8724317315b1ba8ac1a0f30ac407e9fcf20442b"
          ],
          "data": "0x0000000000000000000000000000000000000000000000000de0b6b3a7640000",
          "blockHash": "0x186fd54917ff831c3a4e233b62c48197f7d5659a74ebb3ace0199bc13fe3b548",
          "blockNumber": "0x19ea552",
          "transactionHash": "0x3a455dbe8ae8e592702ad0fd361a4c02a2c49b0ed9ead37f41bccb1d435da6ff",
          "transactionIndex": "0x11",
          "logIndex": "0x28",
          "removed": false
        },
        {
          "address": "0xc25d6a1e7878e32acab67080bf5a3973e061caec",
          "topics": [
            "0x5e804d42ae3b860f881d11cb44a4bb1f2f0d5b3d081f5539a32d6f97b629d978",
            "0x000000000000000000000000cbec2caa97a660434aa5420d667b3f1e60e2c17b"
          ],
          "data": "0x0000000000000000000000000000000000000000000000000000000000000a19",
          "blockHash": "0x186fd54917ff831c3a4e233b62c48197f7d5659a74ebb3ace0199bc13fe3b548",
          "blockNumber": "0x19ea552",
          "transactionHash": "0x3a455dbe8ae8e592702ad0fd361a4c02a2c49b0ed9ead37f41bccb1d435da6ff",
          "transactionIndex": "0x11",
          "logIndex": "0x29",
          "removed": false
        },
        {
          "address": "0xcbec2caa97a660434aa5420d667b3f1e60e2c17b",
          "topics": [
            "0xddf252ad1be2c89b69c2b068fc378daa952ba7f163c4a11628f55a4df523b3ef",
            "0x000000000000000000000000c25d6a1e7878e32acab67080bf5a3973e061caec",
            "0x000000000000000000000000bd2329ad3cccc4932b847014572f429bc8b4b2f5"
          ],
          "data": "0x0000000000000000000000000000000000000000000000000000000096342600",
          "blockHash": "0x186fd54917ff831c3a4e233b62c48197f7d5659a74ebb3ace0199bc13fe3b548",
          "blockNumber": "0x19ea552",
          "transactionHash": "0x3a455dbe8ae8e592702ad0fd361a4c02a2c49b0ed9ead37f41bccb1d435da6ff",
          "transactionIndex": "0x11",
          "logIndex": "0x2a",
          "removed": false
        },
        {
          "address": "0xc25d6a1e7878e32acab67080bf5a3973e061caec",
          "topics": [
            "0x385feb58578c31f205b503905da1dec4c110dcdaac4a0dc43be298cae636307f",
            "0x000000000000000000000000cbec2caa97a660434aa5420d667b3f1e60e2c17b"
          ],
          "data": "0x000000000000000000000000000000000000000000000000000000000000e2e0",
          "blockHash": "0x186fd54917ff831c3a4e233b62c48197f7d5659a74ebb3ace0199bc13fe3b548",
          "blockNumber": "0x19ea552",
          "transactionHash": "0x3a455dbe8ae8e592702ad0fd361a4c02a2c49b0ed9ead37f41bccb1d435da6ff",
          "transactionIndex": "0x11",
          "logIndex": "0x2b",
          "removed": false
        },
        {
          "address": "0xc25d6a1e7878e32acab67080bf5a3973e061caec",
          "topics": [
            "0xb088e70ab7e367eb8a026f0cf73edc838746f0f9761c510260ff489070d7b3c8",
            "0x000000000000000000000000cbec2caa97a660434aa5420d667b3f1e60e2c17b",
            "0x000000000000000000000000bd2329ad3cccc4932b847014572f429bc8b4b2f5"
          ],
          "data": "0x0000000000000000000000000000000000000000000000000000000096342600",
          "blockHash": "0x186fd54917ff831c3a4e233b62c48197f7d5659a74ebb3ace0199bc13fe3b548",
          "blockNumber": "0x19ea552",
          "transactionHash": "0x3a455dbe8ae8e592702ad0fd361a4c02a2c49b0ed9ead37f41bccb1d435da6ff",
          "transactionIndex": "0x11",
          "logIndex": "0x2c",
          "removed": false
        },
        {
          "address": "0x934250c921597af3827777a9faaded879ca82126",
          "topics": [
            "0x9f0a7aaf8d18c024e8123bdcd157b0f6e0f42892a4ea14a2becc88a320a79922",
            "0x924cafe3f4668225141f2f2252ca17f67b629c2ff1426ac8ff340549f1266789",
            "0x000000000000000000000000bd2329ad3cccc4932b847014572f429bc8b4b2f5"
          ],
          "data": "0x0000000000000000000000000000000000000000000000000de0b6b3a76400000000000000000000000000000000000000000000000000000000000000000001",
          "blockHash": "0x186fd54917ff831c3a4e233b62c48197f7d5659a74ebb3ace0199bc13fe3b548",
          "blockNumber": "0x19ea552",
          "transactionHash": "0x3a455dbe8ae8e592702ad0fd361a4c02a2c49b0ed9ead37f41bccb1d435da6ff",
          "transactionIndex": "0x11",
          "logIndex": "0x2d",
          "removed": false
        },
        {
          "address": "0xf8724317315b1ba8ac1a0f30ac407e9fcf20442b",
          "topics": [
            "0xcb5aa1675878bc9c8edd5d4265b7e06610564c809ed69560d24f5f284dd8c44b",
            "0x000000000000000000000000bd2329ad3cccc4932b847014572f429bc8b4b2f5"
          ],
          "data": "0x0000000000000000000000000000000000000000000000000de0b6b3a7640000924cafe3f4668225141f2f2252ca17f67b629c2ff1426ac8ff340549f1266789",
          "blockHash": "0x186fd54917ff831c3a4e233b62c48197f7d5659a74ebb3ace0199bc13fe3b548",
          "blockNumber": "0x19ea552",
          "transactionHash": "0x3a455dbe8ae8e592702ad0fd361a4c02a2c49b0ed9ead37f41bccb1d435da6ff",
          "transactionIndex": "0x11",
          "logIndex": "0x2e",
          "removed": false
        },
        {
          "address": "0xf8724317315b1ba8ac1a0f30ac407e9fcf20442b",
          "topics": [
            "0x3c173f34da0900ded1a250c99de3d58cb900ce2841d93b11d877afee8b077a48",
            "0x0000000000000000000000000000000000000000000000000000000000000002",
            "0x000000000000000000000000bd2329ad3cccc4932b847014572f429bc8b4b2f5"
          ],
          "data": "0x00000000000000000000000087bb55de00f7d2791dbf3461a110d99bb47cf62f000000000000000000000000cbec2caa97a660434aa5420d667b3f1e60e2c17b0000000000000000000000000000000000000000000000000de0b6b3a76400000000000000000000000000000000000000000000000000000000000096342600",
          "blockHash": "0x186fd54917ff831c3a4e233b62c48197f7d5659a74ebb3ace0199bc13fe3b548",
          "blockNumber": "0x19ea552",
          "transactionHash": "0x3a455dbe8ae8e592702ad0fd361a4c02a2c49b0ed9ead37f41bccb1d435da6ff",
          "transactionIndex": "0x11",
          "logIndex": "0x2f",
          "removed": false
        },
        {
          "address": "0xcbec2caa97a660434aa5420d667b3f1e60e2c17b",
          "topics": [
            "0xddf252ad1be2c89b69c2b068fc378daa952ba7f163c4a11628f55a4df523b3ef",
            "0x000000000000000000000000bd2329ad3cccc4932b847014572f429bc8b4b2f5",
            "0x000000000000000000000000a6b3d200cd34ca14d7579dac8b054bf50a62c37c"
          ],
          "data": "0x0000000000000000000000000000000000000000000000000000000096342600",
          "blockHash": "0x186fd54917ff831c3a4e233b62c48197f7d5659a74ebb3ace0199bc13fe3b548",
          "blockNumber": "0x19ea552",
          "transactionHash": "0x3a455dbe8ae8e592702ad0fd361a4c02a2c49b0ed9ead37f41bccb1d435da6ff",
          "transactionIndex": "0x11",
          "logIndex": "0x30",
          "removed": false
        },
        {
          "address": "0xbd2329ad3cccc4932b847014572f429bc8b4b2f5",
          "topics": [
            "0xf091b3222b8b47f0620d74674778cbab45440b1507aed82531cf4027e4db8f00",
            "0x000000000000000000000000f8724317315b1ba8ac1a0f30ac407e9fcf20442b",
            "0x0000000000000000000000000000000000000000000000000000000000000002"
          ],
          "data": "0x000000000000000000000000a6b3d200cd34ca14d7579dac8b054bf50a62c37c",
          "blockHash": "0x186fd54917ff831c3a4e233b62c48197f7d5659a74ebb3ace0199bc13fe3b548",
          "blockNumber": "0x19ea552",
          "transactionHash": "0x3a455dbe8ae8e592702ad0fd361a4c02a2c49b0ed9ead37f41bccb1d435da6ff",
          "transactionIndex": "0x11",
          "logIndex": "0x31",
          "removed": false
        }
      ],
      "logsBloom": "0x04000000008200000000000400000008010000000000000202000000080000000000000002000000000000000010000000002000000010000000000000200000000000000000000000010008000400008000000000001000000010000000000000000008300100000080000000041200400000000c000000004080300000000000000080000000000000000000020c0000040000000000040000000010000000020000000040008000000100000000000000008000000000000000000090004000000042000000000000000000000000400000400000000004000020010000000010082401000000000000000000000002800000008000000000000000200000",
      "type": "0x2",
      "transactionHash": "0x3a455dbe8ae8e592702ad0fd361a4c02a2c49b0ed9ead37f41bccb1d435da6ff",
      "transactionIndex": "0x11",
      "blockHash": "0x186fd54917ff831c3a4e233b62c48197f7d5659a74ebb3ace0199bc13fe3b548",
      "blockNumber": "0x19ea552",
      "gasUsed": "0x8098f",
      "effectiveGasPrice": "0x1d022",
      "from": "0xa6b3d200cd34ca14d7579dac8b054bf50a62c37c",
      "to": "0xbd2329ad3cccc4932b847014572f429bc8b4b2f5",
      "contractAddress": null,
      "l1BaseFeeScalar": "0x44d",
      "l1BlobBaseFee": "0x1",
      "l1BlobBaseFeeScalar": "0xa118b",
      "l1Fee": "0x1a56f",
      "l1GasPrice": "0x9273",
      "l1GasUsed": "0xa33"
    },
    {
      "status": "0x1",
      "cumulativeGasUsed": "0x2f8d21",
      "logs": [],
      "logsBloom": "0x00000000000000000000000000000000000000000000000000000000000000000000000000000000000000000000000000000000000000000000000000000000000000000000000000000000000000000000000000000000000000000000000000000000000000000000000000000000000000000000000000000000000000000000000000000000000000000000000000000000000000000000000000000000000000000000000000000000000000000000000000000000000000000000000000000000000000000000000000000000000000000000000000000000000000000000000000000000000000000000000000000000000000000000000000000000",
      "type": "0x2",
      "transactionHash": "0xe695cb61acebdfa15343b9672e9cf811d960e77525e578e03f4639dbd372a5d1",
      "transactionIndex": "0x12",
      "blockHash": "0x186fd54917ff831c3a4e233b62c48197f7d5659a74ebb3ace0199bc13fe3b548",
      "blockNumber": "0x19ea552",
      "gasUsed": "0x75b7",
      "effectiveGasPrice": "0x1d022",
      "from": "0xa6b3d200cd34ca14d7579dac8b054bf50a62c37c",
      "to": "0xbd2329ad3cccc4932b847014572f429bc8b4b2f5",
      "contractAddress": null,
      "l1BaseFeeScalar": "0x44d",
      "l1BlobBaseFee": "0x1",
      "l1BlobBaseFeeScalar": "0xa118b",
      "l1Fee": "0x1023e",
      "l1GasPrice": "0x9273",
      "l1GasUsed": "0x640"
    },
    {
      "status": "0x1",
      "cumulativeGasUsed": "0x3002d8",
      "logs": [],
      "logsBloom": "0x00000000000000000000000000000000000000000000000000000000000000000000000000000000000000000000000000000000000000000000000000000000000000000000000000000000000000000000000000000000000000000000000000000000000000000000000000000000000000000000000000000000000000000000000000000000000000000000000000000000000000000000000000000000000000000000000000000000000000000000000000000000000000000000000000000000000000000000000000000000000000000000000000000000000000000000000000000000000000000000000000000000000000000000000000000000",
      "type": "0x2",
      "transactionHash": "0x4afec4ef1f241bdc9912794c6c30a8ee0a966ccffa225333a77ffb745d19d1c3",
      "transactionIndex": "0x13",
      "blockHash": "0x186fd54917ff831c3a4e233b62c48197f7d5659a74ebb3ace0199bc13fe3b548",
      "blockNumber": "0x19ea552",
      "gasUsed": "0x75b7",
      "effectiveGasPrice": "0x1d022",
      "from": "0xa6b3d200cd34ca14d7579dac8b054bf50a62c37c",
      "to": "0xbd2329ad3cccc4932b847014572f429bc8b4b2f5",
      "contractAddress": null,
      "l1BaseFeeScalar": "0x44d",
      "l1BlobBaseFee": "0x1",
      "l1BlobBaseFeeScalar": "0xa118b",
      "l1Fee": "0x1023e",
      "l1GasPrice": "0x9273",
      "l1GasUsed": "0x640"
    },
    {
      "status": "0x1",
      "cumulativeGasUsed": "0x30b65d",
      "logs": [
        {
          "address": "0x87bb55de00f7d2791dbf3461a110d99bb47cf62f",
          "topics": [
            "0x8c5be1e5ebec7d5bd14f71427d1e84f3dd0314c0f7b2291e5b200ac8c7c3b925",
            "0x000000000000000000000000a6b3d200cd34ca14d7579dac8b054bf50a62c37c",
            "0x000000000000000000000000bd2329ad3cccc4932b847014572f429bc8b4b2f5"
          ],
          "data": "0x0000000000000000000000000000000000000000000000000de0b6b3a7640000",
          "blockHash": "0x186fd54917ff831c3a4e233b62c48197f7d5659a74ebb3ace0199bc13fe3b548",
          "blockNumber": "0x19ea552",
          "transactionHash": "0xc5c97b913e288e7c5d925e8ae5482694a0ee573fa9c86503321357d2b3abf17f",
          "transactionIndex": "0x14",
          "logIndex": "0x32",
          "removed": false
        }
      ],
      "logsBloom": "0x00000000000200000000000400000000000000000000000002000000000000000000000000000000000000000000000000000000000000000000000000200000000000000000000000000000000000000000000000000000000000000000000000000000000000000000000000000000400000000000000000000000000000000000000000000000000000000000080000000000000000000000000000000000020000000000000000000000000000000000000000000000000000000000004000000040000000000000000000000000400000000000000000000000000000000010000001000000000000000000000000000000000000000000000000000000",
      "type": "0x2",
      "transactionHash": "0xc5c97b913e288e7c5d925e8ae5482694a0ee573fa9c86503321357d2b3abf17f",
      "transactionIndex": "0x14",
      "blockHash": "0x186fd54917ff831c3a4e233b62c48197f7d5659a74ebb3ace0199bc13fe3b548",
      "blockNumber": "0x19ea552",
      "gasUsed": "0xb385",
      "effectiveGasPrice": "0x1d022",
      "from": "0xa6b3d200cd34ca14d7579dac8b054bf50a62c37c",
      "to": "0x87bb55de00f7d2791dbf3461a110d99bb47cf62f",
      "contractAddress": null,
      "l1BaseFeeScalar": "0x44d",
      "l1BlobBaseFee": "0x1",
      "l1BlobBaseFeeScalar": "0xa118b",
      "l1Fee": "0x1023e",
      "l1GasPrice": "0x9273",
      "l1GasUsed": "0x640"
    },
    {
      "status": "0x1",
      "cumulativeGasUsed": "0x374c10",
      "logs": [
        {
          "address": "0x87bb55de00f7d2791dbf3461a110d99bb47cf62f",
          "topics": [
            "0xddf252ad1be2c89b69c2b068fc378daa952ba7f163c4a11628f55a4df523b3ef",
            "0x000000000000000000000000a6b3d200cd34ca14d7579dac8b054bf50a62c37c",
            "0x000000000000000000000000bd2329ad3cccc4932b847014572f429bc8b4b2f5"
          ],
          "data": "0x0000000000000000000000000000000000000000000000000de0b6b3a7640000",
          "blockHash": "0x186fd54917ff831c3a4e233b62c48197f7d5659a74ebb3ace0199bc13fe3b548",
          "blockNumber": "0x19ea552",
          "transactionHash": "0x5b03b52f08946fecc1590730f8677f82efa68a4622475042623c089beb5ffe79",
          "transactionIndex": "0x15",
          "logIndex": "0x33",
          "removed": false
        },
        {
          "address": "0x87bb55de00f7d2791dbf3461a110d99bb47cf62f",
          "topics": [
            "0x8c5be1e5ebec7d5bd14f71427d1e84f3dd0314c0f7b2291e5b200ac8c7c3b925",
            "0x000000000000000000000000bd2329ad3cccc4932b847014572f429bc8b4b2f5",
            "0x000000000000000000000000f8724317315b1ba8ac1a0f30ac407e9fcf20442b"
          ],
          "data": "0x0000000000000000000000000000000000000000000000000de0b6b3a7640000",
          "blockHash": "0x186fd54917ff831c3a4e233b62c48197f7d5659a74ebb3ace0199bc13fe3b548",
          "blockNumber": "0x19ea552",
          "transactionHash": "0x5b03b52f08946fecc1590730f8677f82efa68a4622475042623c089beb5ffe79",
          "transactionIndex": "0x15",
          "logIndex": "0x34",
          "removed": false
        },
        {
          "address": "0x87bb55de00f7d2791dbf3461a110d99bb47cf62f",
          "topics": [
            "0xddf252ad1be2c89b69c2b068fc378daa952ba7f163c4a11628f55a4df523b3ef",
            "0x000000000000000000000000bd2329ad3cccc4932b847014572f429bc8b4b2f5",
            "0x000000000000000000000000f8724317315b1ba8ac1a0f30ac407e9fcf20442b"
          ],
          "data": "0x0000000000000000000000000000000000000000000000000de0b6b3a7640000",
          "blockHash": "0x186fd54917ff831c3a4e233b62c48197f7d5659a74ebb3ace0199bc13fe3b548",
          "blockNumber": "0x19ea552",
          "transactionHash": "0x5b03b52f08946fecc1590730f8677f82efa68a4622475042623c089beb5ffe79",
          "transactionIndex": "0x15",
          "logIndex": "0x35",
          "removed": false
        },
        {
          "address": "0xcbec2caa97a660434aa5420d667b3f1e60e2c17b",
          "topics": [
            "0xddf252ad1be2c89b69c2b068fc378daa952ba7f163c4a11628f55a4df523b3ef",
            "0x000000000000000000000000c25d6a1e7878e32acab67080bf5a3973e061caec",
            "0x000000000000000000000000bd2329ad3cccc4932b847014572f429bc8b4b2f5"
          ],
          "data": "0x00000000000000000000000000000000000000000000000000000000a0eebb00",
          "blockHash": "0x186fd54917ff831c3a4e233b62c48197f7d5659a74ebb3ace0199bc13fe3b548",
          "blockNumber": "0x19ea552",
          "transactionHash": "0x5b03b52f08946fecc1590730f8677f82efa68a4622475042623c089beb5ffe79",
          "transactionIndex": "0x15",
          "logIndex": "0x36",
          "removed": false
        },
        {
          "address": "0xc25d6a1e7878e32acab67080bf5a3973e061caec",
          "topics": [
            "0x385feb58578c31f205b503905da1dec4c110dcdaac4a0dc43be298cae636307f",
            "0x000000000000000000000000cbec2caa97a660434aa5420d667b3f1e60e2c17b"
          ],
          "data": "0x0000000000000000000000000000000000000000000000000000000000010d10",
          "blockHash": "0x186fd54917ff831c3a4e233b62c48197f7d5659a74ebb3ace0199bc13fe3b548",
          "blockNumber": "0x19ea552",
          "transactionHash": "0x5b03b52f08946fecc1590730f8677f82efa68a4622475042623c089beb5ffe79",
          "transactionIndex": "0x15",
          "logIndex": "0x37",
          "removed": false
        },
        {
          "address": "0xc25d6a1e7878e32acab67080bf5a3973e061caec",
          "topics": [
            "0xb088e70ab7e367eb8a026f0cf73edc838746f0f9761c510260ff489070d7b3c8",
            "0x000000000000000000000000cbec2caa97a660434aa5420d667b3f1e60e2c17b",
            "0x000000000000000000000000bd2329ad3cccc4932b847014572f429bc8b4b2f5"
          ],
          "data": "0x00000000000000000000000000000000000000000000000000000000a0eebb00",
          "blockHash": "0x186fd54917ff831c3a4e233b62c48197f7d5659a74ebb3ace0199bc13fe3b548",
          "blockNumber": "0x19ea552",
          "transactionHash": "0x5b03b52f08946fecc1590730f8677f82efa68a4622475042623c089beb5ffe79",
          "transactionIndex": "0x15",
          "logIndex": "0x38",
          "removed": false
        },
        {
          "address": "0x934250c921597af3827777a9faaded879ca82126",
          "topics": [
            "0x9f0a7aaf8d18c024e8123bdcd157b0f6e0f42892a4ea14a2becc88a320a79922",
            "0x924cafe3f4668225141f2f2252ca17f67b629c2ff1426ac8ff340549f1266789",
            "0x000000000000000000000000bd2329ad3cccc4932b847014572f429bc8b4b2f5"
          ],
          "data": "0x0000000000000000000000000000000000000000000000000de0b6b3a76400000000000000000000000000000000000000000000000000000000000000000001",
          "blockHash": "0x186fd54917ff831c3a4e233b62c48197f7d5659a74ebb3ace0199bc13fe3b548",
          "blockNumber": "0x19ea552",
          "transactionHash": "0x5b03b52f08946fecc1590730f8677f82efa68a4622475042623c089beb5ffe79",
          "transactionIndex": "0x15",
          "logIndex": "0x39",
          "removed": false
        },
        {
          "address": "0xf8724317315b1ba8ac1a0f30ac407e9fcf20442b",
          "topics": [
            "0xcb5aa1675878bc9c8edd5d4265b7e06610564c809ed69560d24f5f284dd8c44b",
            "0x000000000000000000000000bd2329ad3cccc4932b847014572f429bc8b4b2f5"
          ],
          "data": "0x0000000000000000000000000000000000000000000000000de0b6b3a7640000924cafe3f4668225141f2f2252ca17f67b629c2ff1426ac8ff340549f1266789",
          "blockHash": "0x186fd54917ff831c3a4e233b62c48197f7d5659a74ebb3ace0199bc13fe3b548",
          "blockNumber": "0x19ea552",
          "transactionHash": "0x5b03b52f08946fecc1590730f8677f82efa68a4622475042623c089beb5ffe79",
          "transactionIndex": "0x15",
          "logIndex": "0x3a",
          "removed": false
        },
        {
          "address": "0xf8724317315b1ba8ac1a0f30ac407e9fcf20442b",
          "topics": [
            "0x3c173f34da0900ded1a250c99de3d58cb900ce2841d93b11d877afee8b077a48",
            "0x0000000000000000000000000000000000000000000000000000000000000003",
            "0x000000000000000000000000bd2329ad3cccc4932b847014572f429bc8b4b2f5"
          ],
          "data": "0x00000000000000000000000087bb55de00f7d2791dbf3461a110d99bb47cf62f000000000000000000000000cbec2caa97a660434aa5420d667b3f1e60e2c17b0000000000000000000000000000000000000000000000000de0b6b3a764000000000000000000000000000000000000000000000000000000000000a0eebb00",
          "blockHash": "0x186fd54917ff831c3a4e233b62c48197f7d5659a74ebb3ace0199bc13fe3b548",
          "blockNumber": "0x19ea552",
          "transactionHash": "0x5b03b52f08946fecc1590730f8677f82efa68a4622475042623c089beb5ffe79",
          "transactionIndex": "0x15",
          "logIndex": "0x3b",
          "removed": false
        },
        {
          "address": "0xcbec2caa97a660434aa5420d667b3f1e60e2c17b",
          "topics": [
            "0xddf252ad1be2c89b69c2b068fc378daa952ba7f163c4a11628f55a4df523b3ef",
            "0x000000000000000000000000bd2329ad3cccc4932b847014572f429bc8b4b2f5",
            "0x000000000000000000000000a6b3d200cd34ca14d7579dac8b054bf50a62c37c"
          ],
          "data": "0x00000000000000000000000000000000000000000000000000000000a0eebb00",
          "blockHash": "0x186fd54917ff831c3a4e233b62c48197f7d5659a74ebb3ace0199bc13fe3b548",
          "blockNumber": "0x19ea552",
          "transactionHash": "0x5b03b52f08946fecc1590730f8677f82efa68a4622475042623c089beb5ffe79",
          "transactionIndex": "0x15",
          "logIndex": "0x3c",
          "removed": false
        },
        {
          "address": "0xbd2329ad3cccc4932b847014572f429bc8b4b2f5",
          "topics": [
            "0xf091b3222b8b47f0620d74674778cbab45440b1507aed82531cf4027e4db8f00",
            "0x000000000000000000000000f8724317315b1ba8ac1a0f30ac407e9fcf20442b",
            "0x0000000000000000000000000000000000000000000000000000000000000003"
          ],
          "data": "0x000000000000000000000000a6b3d200cd34ca14d7579dac8b054bf50a62c37c",
          "blockHash": "0x186fd54917ff831c3a4e233b62c48197f7d5659a74ebb3ace0199bc13fe3b548",
          "blockNumber": "0x19ea552",
          "transactionHash": "0x5b03b52f08946fecc1590730f8677f82efa68a4622475042623c089beb5ffe79",
          "transactionIndex": "0x15",
          "logIndex": "0x3d",
          "removed": false
        }
      ],
      "logsBloom": "0x00000000008200000000000400000008010000000000000202000000080000000000000002000000000000000010000000002000020010000000000000200000000000000000000000010008000400008000000000001000000010000000000000000008300100000080000000041200400000000c000000000080300000000000000080000000000000000000000c0000040000000000040000000010000000020000000040008000000000000000000000008000800000000000000080404000000042000000000000000000000000400000400000000004000020010000000010082401000000000000000000000002800000000000000000000000200000",
      "type": "0x2",
      "transactionHash": "0x5b03b52f08946fecc1590730f8677f82efa68a4622475042623c089beb5ffe79",
      "transactionIndex": "0x15",
      "blockHash": "0x186fd54917ff831c3a4e233b62c48197f7d5659a74ebb3ace0199bc13fe3b548",
      "blockNumber": "0x19ea552",
      "gasUsed": "0x695b3",
      "effectiveGasPrice": "0x1d022",
      "from": "0xa6b3d200cd34ca14d7579dac8b054bf50a62c37c",
      "to": "0xbd2329ad3cccc4932b847014572f429bc8b4b2f5",
      "contractAddress": null,
      "l1BaseFeeScalar": "0x44d",
      "l1BlobBaseFee": "0x1",
      "l1BlobBaseFeeScalar": "0xa118b",
      "l1Fee": "0x1a56f",
      "l1GasPrice": "0x9273",
      "l1GasUsed": "0xa33"
    },
    {
      "status": "0x1",
      "cumulativeGasUsed": "0x37c1c7",
      "logs": [],
      "logsBloom": "0x00000000000000000000000000000000000000000000000000000000000000000000000000000000000000000000000000000000000000000000000000000000000000000000000000000000000000000000000000000000000000000000000000000000000000000000000000000000000000000000000000000000000000000000000000000000000000000000000000000000000000000000000000000000000000000000000000000000000000000000000000000000000000000000000000000000000000000000000000000000000000000000000000000000000000000000000000000000000000000000000000000000000000000000000000000000",
      "type": "0x2",
      "transactionHash": "0x819af8e1d3cb09b25d24021e72e72ca216bd603c2d7e98e5e74a071c52d10d20",
      "transactionIndex": "0x16",
      "blockHash": "0x186fd54917ff831c3a4e233b62c48197f7d5659a74ebb3ace0199bc13fe3b548",
      "blockNumber": "0x19ea552",
      "gasUsed": "0x75b7",
      "effectiveGasPrice": "0x1d022",
      "from": "0xa6b3d200cd34ca14d7579dac8b054bf50a62c37c",
      "to": "0xbd2329ad3cccc4932b847014572f429bc8b4b2f5",
      "contractAddress": null,
      "l1BaseFeeScalar": "0x44d",
      "l1BlobBaseFee": "0x1",
      "l1BlobBaseFeeScalar": "0xa118b",
      "l1Fee": "0x1023e",
      "l1GasPrice": "0x9273",
      "l1GasUsed": "0x640"
    },
    {
      "status": "0x1",
      "cumulativeGasUsed": "0x38377e",
      "logs": [],
      "logsBloom": "0x00000000000000000000000000000000000000000000000000000000000000000000000000000000000000000000000000000000000000000000000000000000000000000000000000000000000000000000000000000000000000000000000000000000000000000000000000000000000000000000000000000000000000000000000000000000000000000000000000000000000000000000000000000000000000000000000000000000000000000000000000000000000000000000000000000000000000000000000000000000000000000000000000000000000000000000000000000000000000000000000000000000000000000000000000000000",
      "type": "0x2",
      "transactionHash": "0xb20793c646ed9b42405be9d11e939630c7a1327011179c4f922d4b905dedd6f7",
      "transactionIndex": "0x17",
      "blockHash": "0x186fd54917ff831c3a4e233b62c48197f7d5659a74ebb3ace0199bc13fe3b548",
      "blockNumber": "0x19ea552",
      "gasUsed": "0x75b7",
      "effectiveGasPrice": "0x1d022",
      "from": "0xa6b3d200cd34ca14d7579dac8b054bf50a62c37c",
      "to": "0xbd2329ad3cccc4932b847014572f429bc8b4b2f5",
      "contractAddress": null,
      "l1BaseFeeScalar": "0x44d",
      "l1BlobBaseFee": "0x1",
      "l1BlobBaseFeeScalar": "0xa118b",
      "l1Fee": "0x1023e",
      "l1GasPrice": "0x9273",
      "l1GasUsed": "0x640"
    },
    {
      "status": "0x1",
      "cumulativeGasUsed": "0x38eb03",
      "logs": [
        {
          "address": "0x87bb55de00f7d2791dbf3461a110d99bb47cf62f",
          "topics": [
            "0x8c5be1e5ebec7d5bd14f71427d1e84f3dd0314c0f7b2291e5b200ac8c7c3b925",
            "0x000000000000000000000000a6b3d200cd34ca14d7579dac8b054bf50a62c37c",
            "0x000000000000000000000000bd2329ad3cccc4932b847014572f429bc8b4b2f5"
          ],
          "data": "0x0000000000000000000000000000000000000000000000000de0b6b3a7640000",
          "blockHash": "0x186fd54917ff831c3a4e233b62c48197f7d5659a74ebb3ace0199bc13fe3b548",
          "blockNumber": "0x19ea552",
          "transactionHash": "0x3eb83ad0d33769ce9f48c5da035731a439cc6b2f74494e6fec91da8aad74c5c2",
          "transactionIndex": "0x18",
          "logIndex": "0x3e",
          "removed": false
        }
      ],
      "logsBloom": "0x00000000000200000000000400000000000000000000000002000000000000000000000000000000000000000000000000000000000000000000000000200000000000000000000000000000000000000000000000000000000000000000000000000000000000000000000000000000400000000000000000000000000000000000000000000000000000000000080000000000000000000000000000000000020000000000000000000000000000000000000000000000000000000000004000000040000000000000000000000000400000000000000000000000000000000010000001000000000000000000000000000000000000000000000000000000",
      "type": "0x2",
      "transactionHash": "0x3eb83ad0d33769ce9f48c5da035731a439cc6b2f74494e6fec91da8aad74c5c2",
      "transactionIndex": "0x18",
      "blockHash": "0x186fd54917ff831c3a4e233b62c48197f7d5659a74ebb3ace0199bc13fe3b548",
      "blockNumber": "0x19ea552",
      "gasUsed": "0xb385",
      "effectiveGasPrice": "0x1d022",
      "from": "0xa6b3d200cd34ca14d7579dac8b054bf50a62c37c",
      "to": "0x87bb55de00f7d2791dbf3461a110d99bb47cf62f",
      "contractAddress": null,
      "l1BaseFeeScalar": "0x44d",
      "l1BlobBaseFee": "0x1",
      "l1BlobBaseFeeScalar": "0xa118b",
      "l1Fee": "0x1023e",
      "l1GasPrice": "0x9273",
      "l1GasUsed": "0x640"
    },
    {
      "status": "0x1",
      "cumulativeGasUsed": "0x3f80c2",
      "logs": [
        {
          "address": "0x87bb55de00f7d2791dbf3461a110d99bb47cf62f",
          "topics": [
            "0xddf252ad1be2c89b69c2b068fc378daa952ba7f163c4a11628f55a4df523b3ef",
            "0x000000000000000000000000a6b3d200cd34ca14d7579dac8b054bf50a62c37c",
            "0x000000000000000000000000bd2329ad3cccc4932b847014572f429bc8b4b2f5"
          ],
          "data": "0x0000000000000000000000000000000000000000000000000de0b6b3a7640000",
          "blockHash": "0x186fd54917ff831c3a4e233b62c48197f7d5659a74ebb3ace0199bc13fe3b548",
          "blockNumber": "0x19ea552",
          "transactionHash": "0x11cf807488a746c520af4190a3a38dff07638b24da66918c27bd25965d63f736",
          "transactionIndex": "0x19",
          "logIndex": "0x3f",
          "removed": false
        },
        {
          "address": "0x87bb55de00f7d2791dbf3461a110d99bb47cf62f",
          "topics": [
            "0x8c5be1e5ebec7d5bd14f71427d1e84f3dd0314c0f7b2291e5b200ac8c7c3b925",
            "0x000000000000000000000000bd2329ad3cccc4932b847014572f429bc8b4b2f5",
            "0x000000000000000000000000f8724317315b1ba8ac1a0f30ac407e9fcf20442b"
          ],
          "data": "0x0000000000000000000000000000000000000000000000000de0b6b3a7640000",
          "blockHash": "0x186fd54917ff831c3a4e233b62c48197f7d5659a74ebb3ace0199bc13fe3b548",
          "blockNumber": "0x19ea552",
          "transactionHash": "0x11cf807488a746c520af4190a3a38dff07638b24da66918c27bd25965d63f736",
          "transactionIndex": "0x19",
          "logIndex": "0x40",
          "removed": false
        },
        {
          "address": "0x87bb55de00f7d2791dbf3461a110d99bb47cf62f",
          "topics": [
            "0xddf252ad1be2c89b69c2b068fc378daa952ba7f163c4a11628f55a4df523b3ef",
            "0x000000000000000000000000bd2329ad3cccc4932b847014572f429bc8b4b2f5",
            "0x000000000000000000000000f8724317315b1ba8ac1a0f30ac407e9fcf20442b"
          ],
          "data": "0x0000000000000000000000000000000000000000000000000de0b6b3a7640000",
          "blockHash": "0x186fd54917ff831c3a4e233b62c48197f7d5659a74ebb3ace0199bc13fe3b548",
          "blockNumber": "0x19ea552",
          "transactionHash": "0x11cf807488a746c520af4190a3a38dff07638b24da66918c27bd25965d63f736",
          "transactionIndex": "0x19",
          "logIndex": "0x41",
          "removed": false
        },
        {
          "address": "0xcbec2caa97a660434aa5420d667b3f1e60e2c17b",
          "topics": [
            "0xddf252ad1be2c89b69c2b068fc378daa952ba7f163c4a11628f55a4df523b3ef",
            "0x000000000000000000000000c25d6a1e7878e32acab67080bf5a3973e061caec",
            "0x000000000000000000000000bd2329ad3cccc4932b847014572f429bc8b4b2f5"
          ],
          "data": "0x00000000000000000000000000000000000000000000000000000000a9df8c80",
          "blockHash": "0x186fd54917ff831c3a4e233b62c48197f7d5659a74ebb3ace0199bc13fe3b548",
          "blockNumber": "0x19ea552",
          "transactionHash": "0x11cf807488a746c520af4190a3a38dff07638b24da66918c27bd25965d63f736",
          "transactionIndex": "0x19",
          "logIndex": "0x42",
          "removed": false
        },
        {
          "address": "0xc25d6a1e7878e32acab67080bf5a3973e061caec",
          "topics": [
            "0x385feb58578c31f205b503905da1dec4c110dcdaac4a0dc43be298cae636307f",
            "0x000000000000000000000000cbec2caa97a660434aa5420d667b3f1e60e2c17b"
          ],
          "data": "0x0000000000000000000000000000000000000000000000000000000000013998",
          "blockHash": "0x186fd54917ff831c3a4e233b62c48197f7d5659a74ebb3ace0199bc13fe3b548",
          "blockNumber": "0x19ea552",
          "transactionHash": "0x11cf807488a746c520af4190a3a38dff07638b24da66918c27bd25965d63f736",
          "transactionIndex": "0x19",
          "logIndex": "0x43",
          "removed": false
        },
        {
          "address": "0xc25d6a1e7878e32acab67080bf5a3973e061caec",
          "topics": [
            "0xb088e70ab7e367eb8a026f0cf73edc838746f0f9761c510260ff489070d7b3c8",
            "0x000000000000000000000000cbec2caa97a660434aa5420d667b3f1e60e2c17b",
            "0x000000000000000000000000bd2329ad3cccc4932b847014572f429bc8b4b2f5"
          ],
          "data": "0x00000000000000000000000000000000000000000000000000000000a9df8c80",
          "blockHash": "0x186fd54917ff831c3a4e233b62c48197f7d5659a74ebb3ace0199bc13fe3b548",
          "blockNumber": "0x19ea552",
          "transactionHash": "0x11cf807488a746c520af4190a3a38dff07638b24da66918c27bd25965d63f736",
          "transactionIndex": "0x19",
          "logIndex": "0x44",
          "removed": false
        },
        {
          "address": "0x934250c921597af3827777a9faaded879ca82126",
          "topics": [
            "0x9f0a7aaf8d18c024e8123bdcd157b0f6e0f42892a4ea14a2becc88a320a79922",
            "0x924cafe3f4668225141f2f2252ca17f67b629c2ff1426ac8ff340549f1266789",
            "0x000000000000000000000000bd2329ad3cccc4932b847014572f429bc8b4b2f5"
          ],
          "data": "0x0000000000000000000000000000000000000000000000000de0b6b3a76400000000000000000000000000000000000000000000000000000000000000000001",
          "blockHash": "0x186fd54917ff831c3a4e233b62c48197f7d5659a74ebb3ace0199bc13fe3b548",
          "blockNumber": "0x19ea552",
          "transactionHash": "0x11cf807488a746c520af4190a3a38dff07638b24da66918c27bd25965d63f736",
          "transactionIndex": "0x19",
          "logIndex": "0x45",
          "removed": false
        },
        {
          "address": "0xf8724317315b1ba8ac1a0f30ac407e9fcf20442b",
          "topics": [
            "0xcb5aa1675878bc9c8edd5d4265b7e06610564c809ed69560d24f5f284dd8c44b",
            "0x000000000000000000000000bd2329ad3cccc4932b847014572f429bc8b4b2f5"
          ],
          "data": "0x0000000000000000000000000000000000000000000000000de0b6b3a7640000924cafe3f4668225141f2f2252ca17f67b629c2ff1426ac8ff340549f1266789",
          "blockHash": "0x186fd54917ff831c3a4e233b62c48197f7d5659a74ebb3ace0199bc13fe3b548",
          "blockNumber": "0x19ea552",
          "transactionHash": "0x11cf807488a746c520af4190a3a38dff07638b24da66918c27bd25965d63f736",
          "transactionIndex": "0x19",
          "logIndex": "0x46",
          "removed": false
        },
        {
          "address": "0xf8724317315b1ba8ac1a0f30ac407e9fcf20442b",
          "topics": [
            "0x3c173f34da0900ded1a250c99de3d58cb900ce2841d93b11d877afee8b077a48",
            "0x0000000000000000000000000000000000000000000000000000000000000004",
            "0x000000000000000000000000bd2329ad3cccc4932b847014572f429bc8b4b2f5"
          ],
          "data": "0x00000000000000000000000087bb55de00f7d2791dbf3461a110d99bb47cf62f000000000000000000000000cbec2caa97a660434aa5420d667b3f1e60e2c17b0000000000000000000000000000000000000000000000000de0b6b3a764000000000000000000000000000000000000000000000000000000000000a9df8c80",
          "blockHash": "0x186fd54917ff831c3a4e233b62c48197f7d5659a74ebb3ace0199bc13fe3b548",
          "blockNumber": "0x19ea552",
          "transactionHash": "0x11cf807488a746c520af4190a3a38dff07638b24da66918c27bd25965d63f736",
          "transactionIndex": "0x19",
          "logIndex": "0x47",
          "removed": false
        },
        {
          "address": "0xcbec2caa97a660434aa5420d667b3f1e60e2c17b",
          "topics": [
            "0xddf252ad1be2c89b69c2b068fc378daa952ba7f163c4a11628f55a4df523b3ef",
            "0x000000000000000000000000bd2329ad3cccc4932b847014572f429bc8b4b2f5",
            "0x000000000000000000000000a6b3d200cd34ca14d7579dac8b054bf50a62c37c"
          ],
          "data": "0x00000000000000000000000000000000000000000000000000000000a9df8c80",
          "blockHash": "0x186fd54917ff831c3a4e233b62c48197f7d5659a74ebb3ace0199bc13fe3b548",
          "blockNumber": "0x19ea552",
          "transactionHash": "0x11cf807488a746c520af4190a3a38dff07638b24da66918c27bd25965d63f736",
          "transactionIndex": "0x19",
          "logIndex": "0x48",
          "removed": false
        },
        {
          "address": "0xbd2329ad3cccc4932b847014572f429bc8b4b2f5",
          "topics": [
            "0xf091b3222b8b47f0620d74674778cbab45440b1507aed82531cf4027e4db8f00",
            "0x000000000000000000000000f8724317315b1ba8ac1a0f30ac407e9fcf20442b",
            "0x0000000000000000000000000000000000000000000000000000000000000004"
          ],
          "data": "0x000000000000000000000000a6b3d200cd34ca14d7579dac8b054bf50a62c37c",
          "blockHash": "0x186fd54917ff831c3a4e233b62c48197f7d5659a74ebb3ace0199bc13fe3b548",
          "blockNumber": "0x19ea552",
          "transactionHash": "0x11cf807488a746c520af4190a3a38dff07638b24da66918c27bd25965d63f736",
          "transactionIndex": "0x19",
          "logIndex": "0x49",
          "removed": false
        }
      ],
      "logsBloom": "0x00000000008200000000000400000008010000000000000202000000080000000000000002000000000000000010000000002000000010000000000000200000000000000000000000010008000400008000000000001000000010000000000008000008300100000080000000041200400000000c000000000080300000000000000080000000000000000000000c0000040000000000040000000010000000020000000040008000000000000000000000008000000000002000000080004000000042000000000000000000000000400000408000000004000020010000000010082401000000000000000000000002800000000000000000000000200000",
      "type": "0x2",
      "transactionHash": "0x11cf807488a746c520af4190a3a38dff07638b24da66918c27bd25965d63f736",
      "transactionIndex": "0x19",
      "blockHash": "0x186fd54917ff831c3a4e233b62c48197f7d5659a74ebb3ace0199bc13fe3b548",
      "blockNumber": "0x19ea552",
      "gasUsed": "0x695bf",
      "effectiveGasPrice": "0x1d022",
      "from": "0xa6b3d200cd34ca14d7579dac8b054bf50a62c37c",
      "to": "0xbd2329ad3cccc4932b847014572f429bc8b4b2f5",
      "contractAddress": null,
      "l1BaseFeeScalar": "0x44d",
      "l1BlobBaseFee": "0x1",
      "l1BlobBaseFeeScalar": "0xa118b",
      "l1Fee": "0x1a798",
      "l1GasPrice": "0x9273",
      "l1GasUsed": "0xa40"
    },
    {
      "status": "0x1",
      "cumulativeGasUsed": "0x3ff679",
      "logs": [],
      "logsBloom": "0x00000000000000000000000000000000000000000000000000000000000000000000000000000000000000000000000000000000000000000000000000000000000000000000000000000000000000000000000000000000000000000000000000000000000000000000000000000000000000000000000000000000000000000000000000000000000000000000000000000000000000000000000000000000000000000000000000000000000000000000000000000000000000000000000000000000000000000000000000000000000000000000000000000000000000000000000000000000000000000000000000000000000000000000000000000000",
      "type": "0x2",
      "transactionHash": "0x7fd2247dce13937c4cde432dcdcdaeb5e5a0e06bdd7729a39b3fa6c8b4414f69",
      "transactionIndex": "0x1a",
      "blockHash": "0x186fd54917ff831c3a4e233b62c48197f7d5659a74ebb3ace0199bc13fe3b548",
      "blockNumber": "0x19ea552",
      "gasUsed": "0x75b7",
      "effectiveGasPrice": "0x1d022",
      "from": "0xa6b3d200cd34ca14d7579dac8b054bf50a62c37c",
      "to": "0xbd2329ad3cccc4932b847014572f429bc8b4b2f5",
      "contractAddress": null,
      "l1BaseFeeScalar": "0x44d",
      "l1BlobBaseFee": "0x1",
      "l1BlobBaseFeeScalar": "0xa118b",
      "l1Fee": "0x1023e",
      "l1GasPrice": "0x9273",
      "l1GasUsed": "0x640"
    },
    {
      "status": "0x1",
      "cumulativeGasUsed": "0x406c30",
      "logs": [],
      "logsBloom": "0x00000000000000000000000000000000000000000000000000000000000000000000000000000000000000000000000000000000000000000000000000000000000000000000000000000000000000000000000000000000000000000000000000000000000000000000000000000000000000000000000000000000000000000000000000000000000000000000000000000000000000000000000000000000000000000000000000000000000000000000000000000000000000000000000000000000000000000000000000000000000000000000000000000000000000000000000000000000000000000000000000000000000000000000000000000000",
      "type": "0x2",
      "transactionHash": "0xf79974a470e882204f39c43ed7cd5d9a9439c93226b356635586eb05ed1aefad",
      "transactionIndex": "0x1b",
      "blockHash": "0x186fd54917ff831c3a4e233b62c48197f7d5659a74ebb3ace0199bc13fe3b548",
      "blockNumber": "0x19ea552",
      "gasUsed": "0x75b7",
      "effectiveGasPrice": "0x1d022",
      "from": "0xa6b3d200cd34ca14d7579dac8b054bf50a62c37c",
      "to": "0xbd2329ad3cccc4932b847014572f429bc8b4b2f5",
      "contractAddress": null,
      "l1BaseFeeScalar": "0x44d",
      "l1BlobBaseFee": "0x1",
      "l1BlobBaseFeeScalar": "0xa118b",
      "l1Fee": "0x1023e",
      "l1GasPrice": "0x9273",
      "l1GasUsed": "0x640"
    }
  ],
  "libraries": [],
  "pending": [],
  "returns": {},
  "timestamp": 1750116741,
  "chain": 84532,
  "commit": "e3173ca"
}