{
  "transactions": [
    {
      "hash": "0x77ecb60b0546bedcec934e5c96cf033c04c25fd109bea74bdd0ff00fd020a0c5",
      "transactionType": "CALL",
      "contractName": null,
      "contractAddress": "0x6e8a9d1f275bec9785b64e62a0824429fc887b0b",
      "function": "setMockTokens(address,address,address)",
      "arguments": [
        "0x8Ee35AAC750bb6F043dbe3bf3d81efD92743E51E",
        "0x11DB2385B78d54Fc362c3B793F95E13544a570e1",
        "0x67BC322f1CcBd15683E6954be04ca28EaB23683F"
      ],
      "transaction": {
        "from": "0xa6b3d200cd34ca14d7579dac8b054bf50a62c37c",
        "to": "0x6e8a9d1f275bec9785b64e62a0824429fc887b0b",
        "gas": "0x3b27d",
        "value": "0x0",
        "input": "0x6392b99c0000000000000000000000008ee35aac750bb6f043dbe3bf3d81efd92743e51e00000000000000000000000011db2385b78d54fc362c3b793f95e13544a570e100000000000000000000000067bc322f1ccbd15683e6954be04ca28eab23683f",
        "nonce": "0x12f9",
        "chainId": "0x14a34"
      },
      "additionalContracts": [],
      "isFixedGasLimit": false
    },
    {
      "hash": "0x17b1373300ace00e5b4c5ef50908497cbe158df06dfa555af8deb5c49bce1907",
      "transactionType": "CALL",
      "contractName": null,
      "contractAddress": "0x6e8a9d1f275bec9785b64e62a0824429fc887b0b",
      "function": "setChainlinkEnabled(bool)",
      "arguments": [
        "true"
      ],
      "transaction": {
        "from": "0xa6b3d200cd34ca14d7579dac8b054bf50a62c37c",
        "to": "0x6e8a9d1f275bec9785b64e62a0824429fc887b0b",
        "gas": "0xab64",
        "value": "0x0",
        "input": "0x058f3bc80000000000000000000000000000000000000000000000000000000000000001",
        "nonce": "0x12fa",
        "chainId": "0x14a34"
      },
      "additionalContracts": [],
      "isFixedGasLimit": false
    }
  ],
  "receipts": [
    {
      "status": "0x1",
      "cumulativeGasUsed": "0x862535",
      "logs": [
        {
          "address": "0x6e8a9d1f275bec9785b64e62a0824429fc887b0b",
          "topics": [
            "0xa4a204fa26714a90a8cea4be2a38ce6d1bf79dcebc5d05bc7d24d0e18bf09cb2",
            "0x0000000000000000000000008ee35aac750bb6f043dbe3bf3d81efd92743e51e",
            "0x00000000000000000000000067bc322f1ccbd15683e6954be04ca28eab23683f"
          ],
          "data": "0x000000000000000000000000000000000000000000000000000000009502f9000000000000000000000000000000000000000000000000000000000000000002",
          "blockHash": "0x4a63ba692aac2e84d93e24ac80ebce902660b538ac6bf82565c574fc77bb92f8",
          "blockNumber": "0x19ffc55",
          "transactionHash": "0x77ecb60b0546bedcec934e5c96cf033c04c25fd109bea74bdd0ff00fd020a0c5",
          "transactionIndex": "0x22",
          "logIndex": "0xa5",
          "removed": false
        },
        {
          "address": "0x6e8a9d1f275bec9785b64e62a0824429fc887b0b",
          "topics": [
            "0xa4a204fa26714a90a8cea4be2a38ce6d1bf79dcebc5d05bc7d24d0e18bf09cb2",
            "0x00000000000000000000000011db2385b78d54fc362c3b793f95e13544a570e1",
            "0x00000000000000000000000067bc322f1ccbd15683e6954be04ca28eab23683f"
          ],
          "data": "0x000000000000000000000000000000000000000000000000000000161e70f6000000000000000000000000000000000000000000000000000000000000000002",
          "blockHash": "0x4a63ba692aac2e84d93e24ac80ebce902660b538ac6bf82565c574fc77bb92f8",
          "blockNumber": "0x19ffc55",
          "transactionHash": "0x77ecb60b0546bedcec934e5c96cf033c04c25fd109bea74bdd0ff00fd020a0c5",
          "transactionIndex": "0x22",
          "logIndex": "0xa6",
          "removed": false
        },
        {
          "address": "0x6e8a9d1f275bec9785b64e62a0824429fc887b0b",
          "topics": [
            "0xa4a204fa26714a90a8cea4be2a38ce6d1bf79dcebc5d05bc7d24d0e18bf09cb2",
            "0x00000000000000000000000067bc322f1ccbd15683e6954be04ca28eab23683f",
            "0x00000000000000000000000067bc322f1ccbd15683e6954be04ca28eab23683f"
          ],
          "data": "0x00000000000000000000000000000000000000000000000000000000000f42400000000000000000000000000000000000000000000000000000000000000002",
          "blockHash": "0x4a63ba692aac2e84d93e24ac80ebce902660b538ac6bf82565c574fc77bb92f8",
          "blockNumber": "0x19ffc55",
          "transactionHash": "0x77ecb60b0546bedcec934e5c96cf033c04c25fd109bea74bdd0ff00fd020a0c5",
          "transactionIndex": "0x22",
          "logIndex": "0xa7",
          "removed": false
        },
        {
          "address": "0x6e8a9d1f275bec9785b64e62a0824429fc887b0b",
          "topics": [
            "0xa4a204fa26714a90a8cea4be2a38ce6d1bf79dcebc5d05bc7d24d0e18bf09cb2",
            "0x00000000000000000000000067bc322f1ccbd15683e6954be04ca28eab23683f",
            "0x0000000000000000000000008ee35aac750bb6f043dbe3bf3d81efd92743e51e"
          ],
          "data": "0x00000000000000000000000000000000000000000000000000000000000001900000000000000000000000000000000000000000000000000000000000000002",
          "blockHash": "0x4a63ba692aac2e84d93e24ac80ebce902660b538ac6bf82565c574fc77bb92f8",
          "blockNumber": "0x19ffc55",
          "transactionHash": "0x77ecb60b0546bedcec934e5c96cf033c04c25fd109bea74bdd0ff00fd020a0c5",
          "transactionIndex": "0x22",
          "logIndex": "0xa8",
          "removed": false
        },
        {
          "address": "0x6e8a9d1f275bec9785b64e62a0824429fc887b0b",
          "topics": [
            "0xa4a204fa26714a90a8cea4be2a38ce6d1bf79dcebc5d05bc7d24d0e18bf09cb2",
            "0x00000000000000000000000067bc322f1ccbd15683e6954be04ca28eab23683f",
            "0x00000000000000000000000011db2385b78d54fc362c3b793f95e13544a570e1"
          ],
          "data": "0x00000000000000000000000000000000000000000000000000000000000000160000000000000000000000000000000000000000000000000000000000000002",
          "blockHash": "0x4a63ba692aac2e84d93e24ac80ebce902660b538ac6bf82565c574fc77bb92f8",
          "blockNumber": "0x19ffc55",
          "transactionHash": "0x77ecb60b0546bedcec934e5c96cf033c04c25fd109bea74bdd0ff00fd020a0c5",
          "transactionIndex": "0x22",
          "logIndex": "0xa9",
          "removed": false
        },
        {
          "address": "0x6e8a9d1f275bec9785b64e62a0824429fc887b0b",
          "topics": [
            "0xa4a204fa26714a90a8cea4be2a38ce6d1bf79dcebc5d05bc7d24d0e18bf09cb2",
            "0x0000000000000000000000008ee35aac750bb6f043dbe3bf3d81efd92743e51e",
            "0x00000000000000000000000011db2385b78d54fc362c3b793f95e13544a570e1"
          ],
          "data": "0x000000000000000000000000000000000000000000000000000000000000d9040000000000000000000000000000000000000000000000000000000000000002",
          "blockHash": "0x4a63ba692aac2e84d93e24ac80ebce902660b538ac6bf82565c574fc77bb92f8",
          "blockNumber": "0x19ffc55",
          "transactionHash": "0x77ecb60b0546bedcec934e5c96cf033c04c25fd109bea74bdd0ff00fd020a0c5",
          "transactionIndex": "0x22",
          "logIndex": "0xaa",
          "removed": false
        },
        {
          "address": "0x6e8a9d1f275bec9785b64e62a0824429fc887b0b",
          "topics": [
            "0xa4a204fa26714a90a8cea4be2a38ce6d1bf79dcebc5d05bc7d24d0e18bf09cb2",
            "0x00000000000000000000000011db2385b78d54fc362c3b793f95e13544a570e1",
            "0x0000000000000000000000008ee35aac750bb6f043dbe3bf3d81efd92743e51e"
          ],
          "data": "0x000000000000000000000000000000000000000000000000000000000112a8800000000000000000000000000000000000000000000000000000000000000002",
          "blockHash": "0x4a63ba692aac2e84d93e24ac80ebce902660b538ac6bf82565c574fc77bb92f8",
          "blockNumber": "0x19ffc55",
          "transactionHash": "0x77ecb60b0546bedcec934e5c96cf033c04c25fd109bea74bdd0ff00fd020a0c5",
          "transactionIndex": "0x22",
          "logIndex": "0xab",
          "removed": false
        }
      ],
      "logsBloom": "0x00400000000000000000000000000000000000000004000000000000000000000000000000000000000000000020000000000000000000000020000000000000000000000000000000000400000000000000001000000080000000000000000000000000000000000000000000000000000000000000000000000000000000000000000000000000000080000000000000001000000000000000000000000000000000000000000000000000000000800000000000000000000000000000400000000000000000000400001000000000000000000000000000000000000000000800000000000000000000000000400000000000000000000000000000000000",
      "type": "0x2",
      "transactionHash": "0x77ecb60b0546bedcec934e5c96cf033c04c25fd109bea74bdd0ff00fd020a0c5",
      "transactionIndex": "0x22",
      "blockHash": "0x4a63ba692aac2e84d93e24ac80ebce902660b538ac6bf82565c574fc77bb92f8",
      "blockNumber": "0x19ffc55",
      "gasUsed": "0x2ad3f",
      "effectiveGasPrice": "0x1b652",
      "from": "0xa6b3d200cd34ca14d7579dac8b054bf50a62c37c",
      "to": "0x6e8a9d1f275bec9785b64e62a0824429fc887b0b",
      "contractAddress": null,
      "l1BaseFeeScalar": "0x44d",
      "l1BlobBaseFee": "0x1",
      "l1BlobBaseFeeScalar": "0xa118b",
      "l1Fee": "0xc4",
      "l1GasPrice": "0x35",
      "l1GasUsed": "0x7b0"
    },
    {
      "status": "0x1",
      "cumulativeGasUsed": "0x869a66",
      "logs": [
        {
          "address": "0x6e8a9d1f275bec9785b64e62a0824429fc887b0b",
          "topics": [
            "0x51896a423f4772bc4f6298b69c1f10c8330af973be38b7cacc105b5fc4ba035d"
          ],
          "data": "0x0000000000000000000000000000000000000000000000000000000000000001",
          "blockHash": "0x4a63ba692aac2e84d93e24ac80ebce902660b538ac6bf82565c574fc77bb92f8",
          "blockNumber": "0x19ffc55",
          "transactionHash": "0x17b1373300ace00e5b4c5ef50908497cbe158df06dfa555af8deb5c49bce1907",
          "transactionIndex": "0x23",
          "logIndex": "0xac",
          "removed": false
        }
      ],
      "logsBloom": "0x00400000000000000000000000000000000000000004000000000000000000000000000000000000000000000000000000000000000000000000000000000000000000000000000000000000000000000000000000000080000000000000000000000000000200000000000000000000000000000000000000000000000000000000000000000000000080000000200000000000000000000000000000000000000000000000000000000000000000000000000000000000000000000000000000000000000000000000000000000000000000000000000000000000000000000000000000000000000000000000000000000000000000000000000000000000",
      "type": "0x2",
      "transactionHash": "0x17b1373300ace00e5b4c5ef50908497cbe158df06dfa555af8deb5c49bce1907",
      "transactionIndex": "0x23",
      "blockHash": "0x4a63ba692aac2e84d93e24ac80ebce902660b538ac6bf82565c574fc77bb92f8",
      "blockNumber": "0x19ffc55",
      "gasUsed": "0x7531",
      "effectiveGasPrice": "0x1b652",
      "from": "0xa6b3d200cd34ca14d7579dac8b054bf50a62c37c",
      "to": "0x6e8a9d1f275bec9785b64e62a0824429fc887b0b",
      "contractAddress": null,
      "l1BaseFeeScalar": "0x44d",
      "l1BlobBaseFee": "0x1",
      "l1BlobBaseFeeScalar": "0xa118b",
      "l1Fee": "0x9f",
      "l1GasPrice": "0x35",
      "l1GasUsed": "0x640"
    }
  ],
  "libraries": [],
  "pending": [],
  "returns": {},
  "timestamp": 1750292363,
  "chain": 84532,
  "commit": "51ec064"
}