{
  "transactions": [
    {
      "hash": "0xd449dc43bf3e634958fa6d66d80acecc84b74edcc119000d6c0cc3b0b46f234d",
      "transactionType": "CALL",
      "contractName": null,
      "contractAddress": "0x3bac75b32cd049fa0fd7eeb3ef40b8d10d47a24b",
      "function": "setMockTokens(address,address,address)",
      "arguments": [
        "0x1b2fcAD8A02F574457EcAcB6DfF53A24177F4eA4",
        "0xBe4f1e8e5F5fC13ee092AACABce0260FC883a363",
        "0xCc3199f5C52A778478e38a918Bc30e0050DF386C"
      ],
      "transaction": {
        "from": "0xa6b3d200cd34ca14d7579dac8b054bf50a62c37c",
        "to": "0x3bac75b32cd049fa0fd7eeb3ef40b8d10d47a24b",
        "gas": "0x3ea1a",
        "value": "0x0",
        "input": "0x6392b99c0000000000000000000000001b2fcad8a02f574457ecacb6dff53a24177f4ea4000000000000000000000000be4f1e8e5f5fc13ee092aacabce0260fc883a363000000000000000000000000cc3199f5c52a778478e38a918bc30e0050df386c",
        "nonce": "0xdfa",
        "chainId": "0x14a34"
      },
      "additionalContracts": [],
      "isFixedGasLimit": false
    },
    {
      "hash": "0x32bd06f0abdf2c0fa41d4a8f82fdf9d4345f8cb1fa42b423a7945809def5b913",
      "transactionType": "CALL",
      "contractName": null,
      "contractAddress": "0x3bac75b32cd049fa0fd7eeb3ef40b8d10d47a24b",
      "function": "setChainlinkEnabled(bool)",
      "arguments": [
        "true"
      ],
      "transaction": {
        "from": "0xa6b3d200cd34ca14d7579dac8b054bf50a62c37c",
        "to": "0x3bac75b32cd049fa0fd7eeb3ef40b8d10d47a24b",
        "gas": "0xab64",
        "value": "0x0",
        "input": "0x058f3bc80000000000000000000000000000000000000000000000000000000000000001",
        "nonce": "0xdfb",
        "chainId": "0x14a34"
      },
      "additionalContracts": [],
      "isFixedGasLimit": false
    }
  ],
  "receipts": [
    {
      "status": "0x1",
      "cumulativeGasUsed": "0xa724e7",
      "logs": [
        {
          "address": "0x3bac75b32cd049fa0fd7eeb3ef40b8d10d47a24b",
          "topics": [
            "0xa4a204fa26714a90a8cea4be2a38ce6d1bf79dcebc5d05bc7d24d0e18bf09cb2",
            "0x0000000000000000000000001b2fcad8a02f574457ecacb6dff53a24177f4ea4",
            "0x000000000000000000000000cc3199f5c52a778478e38a918bc30e0050df386c"
          ],
          "data": "0x000000000000000000000000000000000000000000000000000000009502f9000000000000000000000000000000000000000000000000000000000000000002",
          "blockHash": "0x42616da64ec6bde7dbb455a406874b50f94ba27a5a4184c50d0ff7bfa240ae0b",
          "blockNumber": "0x19ec5e2",
          "transactionHash": "0xd449dc43bf3e634958fa6d66d80acecc84b74edcc119000d6c0cc3b0b46f234d",
          "transactionIndex": "0x1c",
          "logIndex": "0x183",
          "removed": false
        },
        {
          "address": "0x3bac75b32cd049fa0fd7eeb3ef40b8d10d47a24b",
          "topics": [
            "0xa4a204fa26714a90a8cea4be2a38ce6d1bf79dcebc5d05bc7d24d0e18bf09cb2",
            "0x000000000000000000000000be4f1e8e5f5fc13ee092aacabce0260fc883a363",
            "0x000000000000000000000000cc3199f5c52a778478e38a918bc30e0050df386c"
          ],
          "data": "0x000000000000000000000000000000000000000000000000000000161e70f6000000000000000000000000000000000000000000000000000000000000000002",
          "blockHash": "0x42616da64ec6bde7dbb455a406874b50f94ba27a5a4184c50d0ff7bfa240ae0b",
          "blockNumber": "0x19ec5e2",
          "transactionHash": "0xd449dc43bf3e634958fa6d66d80acecc84b74edcc119000d6c0cc3b0b46f234d",
          "transactionIndex": "0x1c",
          "logIndex": "0x184",
          "removed": false
        },
        {
          "address": "0x3bac75b32cd049fa0fd7eeb3ef40b8d10d47a24b",
          "topics": [
            "0xa4a204fa26714a90a8cea4be2a38ce6d1bf79dcebc5d05bc7d24d0e18bf09cb2",
            "0x000000000000000000000000cc3199f5c52a778478e38a918bc30e0050df386c",
            "0x000000000000000000000000cc3199f5c52a778478e38a918bc30e0050df386c"
          ],
          "data": "0x00000000000000000000000000000000000000000000000000000000000f42400000000000000000000000000000000000000000000000000000000000000002",
          "blockHash": "0x42616da64ec6bde7dbb455a406874b50f94ba27a5a4184c50d0ff7bfa240ae0b",
          "blockNumber": "0x19ec5e2",
          "transactionHash": "0xd449dc43bf3e634958fa6d66d80acecc84b74edcc119000d6c0cc3b0b46f234d",
          "transactionIndex": "0x1c",
          "logIndex": "0x185",
          "removed": false
        },
        {
          "address": "0x3bac75b32cd049fa0fd7eeb3ef40b8d10d47a24b",
          "topics": [
            "0xa4a204fa26714a90a8cea4be2a38ce6d1bf79dcebc5d05bc7d24d0e18bf09cb2",
            "0x000000000000000000000000cc3199f5c52a778478e38a918bc30e0050df386c",
            "0x0000000000000000000000001b2fcad8a02f574457ecacb6dff53a24177f4ea4"
          ],
          "data": "0x00000000000000000000000000000000000000000000000000000000000001900000000000000000000000000000000000000000000000000000000000000002",
          "blockHash": "0x42616da64ec6bde7dbb455a406874b50f94ba27a5a4184c50d0ff7bfa240ae0b",
          "blockNumber": "0x19ec5e2",
          "transactionHash": "0xd449dc43bf3e634958fa6d66d80acecc84b74edcc119000d6c0cc3b0b46f234d",
          "transactionIndex": "0x1c",
          "logIndex": "0x186",
          "removed": false
        },
        {
          "address": "0x3bac75b32cd049fa0fd7eeb3ef40b8d10d47a24b",
          "topics": [
            "0xa4a204fa26714a90a8cea4be2a38ce6d1bf79dcebc5d05bc7d24d0e18bf09cb2",
            "0x000000000000000000000000cc3199f5c52a778478e38a918bc30e0050df386c",
            "0x000000000000000000000000be4f1e8e5f5fc13ee092aacabce0260fc883a363"
          ],
          "data": "0x00000000000000000000000000000000000000000000000000000000000000160000000000000000000000000000000000000000000000000000000000000002",
          "blockHash": "0x42616da64ec6bde7dbb455a406874b50f94ba27a5a4184c50d0ff7bfa240ae0b",
          "blockNumber": "0x19ec5e2",
          "transactionHash": "0xd449dc43bf3e634958fa6d66d80acecc84b74edcc119000d6c0cc3b0b46f234d",
          "transactionIndex": "0x1c",
          "logIndex": "0x187",
          "removed": false
        },
        {
          "address": "0x3bac75b32cd049fa0fd7eeb3ef40b8d10d47a24b",
          "topics": [
            "0xa4a204fa26714a90a8cea4be2a38ce6d1bf79dcebc5d05bc7d24d0e18bf09cb2",
            "0x0000000000000000000000001b2fcad8a02f574457ecacb6dff53a24177f4ea4",
            "0x000000000000000000000000be4f1e8e5f5fc13ee092aacabce0260fc883a363"
          ],
          "data": "0x000000000000000000000000000000000000000000000000000000000000d9040000000000000000000000000000000000000000000000000000000000000002",
          "blockHash": "0x42616da64ec6bde7dbb455a406874b50f94ba27a5a4184c50d0ff7bfa240ae0b",
          "blockNumber": "0x19ec5e2",
          "transactionHash": "0xd449dc43bf3e634958fa6d66d80acecc84b74edcc119000d6c0cc3b0b46f234d",
          "transactionIndex": "0x1c",
          "logIndex": "0x188",
          "removed": false
        },
        {
          "address": "0x3bac75b32cd049fa0fd7eeb3ef40b8d10d47a24b",
          "topics": [
            "0xa4a204fa26714a90a8cea4be2a38ce6d1bf79dcebc5d05bc7d24d0e18bf09cb2",
            "0x000000000000000000000000be4f1e8e5f5fc13ee092aacabce0260fc883a363",
            "0x0000000000000000000000001b2fcad8a02f574457ecacb6dff53a24177f4ea4"
          ],
          "data": "0x000000000000000000000000000000000000000000000000000000000112a8800000000000000000000000000000000000000000000000000000000000000002",
          "blockHash": "0x42616da64ec6bde7dbb455a406874b50f94ba27a5a4184c50d0ff7bfa240ae0b",
          "blockNumber": "0x19ec5e2",
          "transactionHash": "0xd449dc43bf3e634958fa6d66d80acecc84b74edcc119000d6c0cc3b0b46f234d",
          "transactionIndex": "0x1c",
          "logIndex": "0x189",
          "removed": false
        }
      ],
      "logsBloom": "0x00000000000000000000000000000000000000000000000000000000000000000000000100000400000020000000000000000000000000000020000000000000000000400000000000000400000000000000000000000000000000000000000000000000000000000000000000000000000000000000000000000000000000000000000000000000000800000040000000000000000000000000200000000000000000000000000000000000000000000000000000000000000000000104000000000000000000000400000000000000000000000000000040000000000000000000000002000000000000000000000000400000000000000000000000000000",
      "type": "0x2",
      "transactionHash": "0xd449dc43bf3e634958fa6d66d80acecc84b74edcc119000d6c0cc3b0b46f234d",
      "transactionIndex": "0x1c",
      "blockHash": "0x42616da64ec6bde7dbb455a406874b50f94ba27a5a4184c50d0ff7bfa240ae0b",
      "blockNumber": "0x19ec5e2",
      "gasUsed": "0x2ad33",
      "effectiveGasPrice": "0xab6a8",
      "from": "0xa6b3d200cd34ca14d7579dac8b054bf50a62c37c",
      "to": "0x3bac75b32cd049fa0fd7eeb3ef40b8d10d47a24b",
      "contractAddress": null,
      "l1BaseFeeScalar": "0x44d",
      "l1BlobBaseFee": "0x1",
      "l1BlobBaseFeeScalar": "0xa118b",
      "l1Fee": "0x395550",
      "l1GasPrice": "0x1a7367",
      "l1GasUsed": "0x7b0"
    },
    {
      "status": "0x1",
      "cumulativeGasUsed": "0xa79a18",
      "logs": [
        {
          "address": "0x3bac75b32cd049fa0fd7eeb3ef40b8d10d47a24b",
          "topics": [
            "0x51896a423f4772bc4f6298b69c1f10c8330af973be38b7cacc105b5fc4ba035d"
          ],
          "data": "0x0000000000000000000000000000000000000000000000000000000000000001",
          "blockHash": "0x42616da64ec6bde7dbb455a406874b50f94ba27a5a4184c50d0ff7bfa240ae0b",
          "blockNumber": "0x19ec5e2",
          "transactionHash": "0x32bd06f0abdf2c0fa41d4a8f82fdf9d4345f8cb1fa42b423a7945809def5b913",
          "transactionIndex": "0x1d",
          "logIndex": "0x18a",
          "removed": false
        }
      ],
      "logsBloom": "0x00000000000000000000000000000000000000000000000000000000000000000000000000000000000000000000000000000000000000000000000000000000000000400000000000000000000000000000000000000000000000000000000000000000000200000000000000000000000000000000000000000000000000000000000000000000000080000000200000000000000000000000000000000000000000000000000000000000000000000000000000000000000000000000000000000000000000000000000000000000000000000000000040000000000000000000000000000000000000000000000000400000000000000000000000000000",
      "type": "0x2",
      "transactionHash": "0x32bd06f0abdf2c0fa41d4a8f82fdf9d4345f8cb1fa42b423a7945809def5b913",
      "transactionIndex": "0x1d",
      "blockHash": "0x42616da64ec6bde7dbb455a406874b50f94ba27a5a4184c50d0ff7bfa240ae0b",
      "blockNumber": "0x19ec5e2",
      "gasUsed": "0x7531",
      "effectiveGasPrice": "0xab6a8",
      "from": "0xa6b3d200cd34ca14d7579dac8b054bf50a62c37c",
      "to": "0x3bac75b32cd049fa0fd7eeb3ef40b8d10d47a24b",
      "contractAddress": null,
      "l1BaseFeeScalar": "0x44d",
      "l1BlobBaseFee": "0x1",
      "l1BlobBaseFeeScalar": "0xa118b",
      "l1Fee": "0x2e98c2",
      "l1GasPrice": "0x1a7367",
      "l1GasUsed": "0x640"
    }
  ],
  "libraries": [],
  "pending": [],
  "returns": {},
  "timestamp": 1750133413,
  "chain": 84532,
  "commit": "e3173ca"
}