{
  "transactions": [
    {
      "hash": "0x5afa08b83069c924bf7e3da93bc84352fe24c3f5d84174c999e48bf94769e4f2",
      "transactionType": "CALL",
      "contractName": null,
      "contractAddress": "0xd12925a84a3fe684cdba703b28390784a57695c6",
      "function": "setMockTokens(address,address,address)",
      "arguments": [
        "0x388F7D72FD879725E40d893Fc1b5455036C7fd19",
        "0x45aCd67cF453dB927965D59f21c6bb4972797B5A",
        "0x009A513d97e55C77060C303f74eE66a991Bd3f08"
      ],
      "transaction": {
        "from": "0xa6b3d200cd34ca14d7579dac8b054bf50a62c37c",
        "to": "0xd12925a84a3fe684cdba703b28390784a57695c6",
        "gas": "0x3ea1a",
        "value": "0x0",
        "input": "0x6392b99c000000000000000000000000388f7d72fd879725e40d893fc1b5455036c7fd1900000000000000000000000045acd67cf453db927965d59f21c6bb4972797b5a000000000000000000000000009a513d97e55c77060c303f74ee66a991bd3f08",
        "nonce": "0xd73",
        "chainId": "0x14a34"
      },
      "additionalContracts": [],
      "isFixedGasLimit": false
    },
    {
      "hash": "0x015edd995a25d9e7925887c88ddaa9a6e3cc8c32a2b3606e72cda91d25030e0f",
      "transactionType": "CALL",
      "contractName": null,
      "contractAddress": "0xd12925a84a3fe684cdba703b28390784a57695c6",
      "function": "setChainlinkEnabled(bool)",
      "arguments": [
        "true"
      ],
      "transaction": {
        "from": "0xa6b3d200cd34ca14d7579dac8b054bf50a62c37c",
        "to": "0xd12925a84a3fe684cdba703b28390784a57695c6",
        "gas": "0xab64",
        "value": "0x0",
        "input": "0x058f3bc80000000000000000000000000000000000000000000000000000000000000001",
        "nonce": "0xd74",
        "chainId": "0x14a34"
      },
      "additionalContracts": [],
      "isFixedGasLimit": false
    }
  ],
  "receipts": [
    {
      "status": "0x1",
      "cumulativeGasUsed": "0x67911",
      "logs": [
        {
          "address": "0xd12925a84a3fe684cdba703b28390784a57695c6",
          "topics": [
            "0xa4a204fa26714a90a8cea4be2a38ce6d1bf79dcebc5d05bc7d24d0e18bf09cb2",
            "0x000000000000000000000000388f7d72fd879725e40d893fc1b5455036c7fd19",
            "0x000000000000000000000000009a513d97e55c77060c303f74ee66a991bd3f08"
          ],
          "data": "0x000000000000000000000000000000000000000000000000000000009502f9000000000000000000000000000000000000000000000000000000000000000002",
          "blockHash": "0x5e0497fc922892864ad628c25355296e3d2cbd4e7492d2b5310d7a29092ccee2",
          "blockNumber": "0x19ec051",
          "transactionHash": "0x5afa08b83069c924bf7e3da93bc84352fe24c3f5d84174c999e48bf94769e4f2",
          "transactionIndex": "0x4",
          "logIndex": "0x4",
          "removed": false
        },
        {
          "address": "0xd12925a84a3fe684cdba703b28390784a57695c6",
          "topics": [
            "0xa4a204fa26714a90a8cea4be2a38ce6d1bf79dcebc5d05bc7d24d0e18bf09cb2",
            "0x00000000000000000000000045acd67cf453db927965d59f21c6bb4972797b5a",
            "0x000000000000000000000000009a513d97e55c77060c303f74ee66a991bd3f08"
          ],
          "data": "0x000000000000000000000000000000000000000000000000000000161e70f6000000000000000000000000000000000000000000000000000000000000000002",
          "blockHash": "0x5e0497fc922892864ad628c25355296e3d2cbd4e7492d2b5310d7a29092ccee2",
          "blockNumber": "0x19ec051",
          "transactionHash": "0x5afa08b83069c924bf7e3da93bc84352fe24c3f5d84174c999e48bf94769e4f2",
          "transactionIndex": "0x4",
          "logIndex": "0x5",
          "removed": false
        },
        {
          "address": "0xd12925a84a3fe684cdba703b28390784a57695c6",
          "topics": [
            "0xa4a204fa26714a90a8cea4be2a38ce6d1bf79dcebc5d05bc7d24d0e18bf09cb2",
            "0x000000000000000000000000009a513d97e55c77060c303f74ee66a991bd3f08",
            "0x000000000000000000000000009a513d97e55c77060c303f74ee66a991bd3f08"
          ],
          "data": "0x00000000000000000000000000000000000000000000000000000000000f42400000000000000000000000000000000000000000000000000000000000000002",
          "blockHash": "0x5e0497fc922892864ad628c25355296e3d2cbd4e7492d2b5310d7a29092ccee2",
          "blockNumber": "0x19ec051",
          "transactionHash": "0x5afa08b83069c924bf7e3da93bc84352fe24c3f5d84174c999e48bf94769e4f2",
          "transactionIndex": "0x4",
          "logIndex": "0x6",
          "removed": false
        },
        {
          "address": "0xd12925a84a3fe684cdba703b28390784a57695c6",
          "topics": [
            "0xa4a204fa26714a90a8cea4be2a38ce6d1bf79dcebc5d05bc7d24d0e18bf09cb2",
            "0x000000000000000000000000009a513d97e55c77060c303f74ee66a991bd3f08",
            "0x000000000000000000000000388f7d72fd879725e40d893fc1b5455036c7fd19"
          ],
          "data": "0x00000000000000000000000000000000000000000000000000000000000001900000000000000000000000000000000000000000000000000000000000000002",
          "blockHash": "0x5e0497fc922892864ad628c25355296e3d2cbd4e7492d2b5310d7a29092ccee2",
          "blockNumber": "0x19ec051",
          "transactionHash": "0x5afa08b83069c924bf7e3da93bc84352fe24c3f5d84174c999e48bf94769e4f2",
          "transactionIndex": "0x4",
          "logIndex": "0x7",
          "removed": false
        },
        {
          "address": "0xd12925a84a3fe684cdba703b28390784a57695c6",
          "topics": [
            "0xa4a204fa26714a90a8cea4be2a38ce6d1bf79dcebc5d05bc7d24d0e18bf09cb2",
            "0x000000000000000000000000009a513d97e55c77060c303f74ee66a991bd3f08",
            "0x00000000000000000000000045acd67cf453db927965d59f21c6bb4972797b5a"
          ],
          "data": "0x00000000000000000000000000000000000000000000000000000000000000160000000000000000000000000000000000000000000000000000000000000002",
          "blockHash": "0x5e0497fc922892864ad628c25355296e3d2cbd4e7492d2b5310d7a29092ccee2",
          "blockNumber": "0x19ec051",
          "transactionHash": "0x5afa08b83069c924bf7e3da93bc84352fe24c3f5d84174c999e48bf94769e4f2",
          "transactionIndex": "0x4",
          "logIndex": "0x8",
          "removed": false
        },
        {
          "address": "0xd12925a84a3fe684cdba703b28390784a57695c6",
          "topics": [
            "0xa4a204fa26714a90a8cea4be2a38ce6d1bf79dcebc5d05bc7d24d0e18bf09cb2",
            "0x000000000000000000000000388f7d72fd879725e40d893fc1b5455036c7fd19",
            "0x00000000000000000000000045acd67cf453db927965d59f21c6bb4972797b5a"
          ],
          "data": "0x000000000000000000000000000000000000000000000000000000000000d9040000000000000000000000000000000000000000000000000000000000000002",
          "blockHash": "0x5e0497fc922892864ad628c25355296e3d2cbd4e7492d2b5310d7a29092ccee2",
          "blockNumber": "0x19ec051",
          "transactionHash": "0x5afa08b83069c924bf7e3da93bc84352fe24c3f5d84174c999e48bf94769e4f2",
          "transactionIndex": "0x4",
          "logIndex": "0x9",
          "removed": false
        },
        {
          "address": "0xd12925a84a3fe684cdba703b28390784a57695c6",
          "topics": [
            "0xa4a204fa26714a90a8cea4be2a38ce6d1bf79dcebc5d05bc7d24d0e18bf09cb2",
            "0x00000000000000000000000045acd67cf453db927965d59f21c6bb4972797b5a",
            "0x000000000000000000000000388f7d72fd879725e40d893fc1b5455036c7fd19"
          ],
          "data": "0x000000000000000000000000000000000000000000000000000000000112a8800000000000000000000000000000000000000000000000000000000000000002",
          "blockHash": "0x5e0497fc922892864ad628c25355296e3d2cbd4e7492d2b5310d7a29092ccee2",
          "blockNumber": "0x19ec051",
          "transactionHash": "0x5afa08b83069c924bf7e3da93bc84352fe24c3f5d84174c999e48bf94769e4f2",
          "transactionIndex": "0x4",
          "logIndex": "0xa",
          "removed": false
        }
      ],
      "logsBloom": "0x00000400000000000000004000000000000000000000000000000000000000000000000000000000000000000000000000000000000000000020000000081000000000000000000000002400000000000000000000000000000000000000000100000000000000000000000000000000000000000000000000000000000000000000000000010000002000000000000000000000000000000000000000000000000000008000000000000000000000000000000000000000000000000000000000000000000000000400000000000000000000010000000000000000000000000000000000008000000000000000000000000000000200000000000000000000",
      "type": "0x2",
      "transactionHash": "0x5afa08b83069c924bf7e3da93bc84352fe24c3f5d84174c999e48bf94769e4f2",
      "transactionIndex": "0x4",
      "blockHash": "0x5e0497fc922892864ad628c25355296e3d2cbd4e7492d2b5310d7a29092ccee2",
      "blockNumber": "0x19ec051",
      "gasUsed": "0x2ad33",
      "effectiveGasPrice": "0x4d5a4",
      "from": "0xa6b3d200cd34ca14d7579dac8b054bf50a62c37c",
      "to": "0xd12925a84a3fe684cdba703b28390784a57695c6",
      "contractAddress": null,
      "l1BaseFeeScalar": "0x44d",
      "l1BlobBaseFee": "0x1",
      "l1BlobBaseFeeScalar": "0xa118b",
      "l1Fee": "0x162021",
      "l1GasPrice": "0xa46f4",
      "l1GasUsed": "0x7a3"
    },
    {
      "status": "0x1",
      "cumulativeGasUsed": "0x6ee42",
      "logs": [
        {
          "address": "0xd12925a84a3fe684cdba703b28390784a57695c6",
          "topics": [
            "0x51896a423f4772bc4f6298b69c1f10c8330af973be38b7cacc105b5fc4ba035d"
          ],
          "data": "0x0000000000000000000000000000000000000000000000000000000000000001",
          "blockHash": "0x5e0497fc922892864ad628c25355296e3d2cbd4e7492d2b5310d7a29092ccee2",
          "blockNumber": "0x19ec051",
          "transactionHash": "0x015edd995a25d9e7925887c88ddaa9a6e3cc8c32a2b3606e72cda91d25030e0f",
          "transactionIndex": "0x5",
          "logIndex": "0xb",
          "removed": false
        }
      ],
      "logsBloom": "0x00000000000000000000000000000000000000000000000000000000000000000000000000000000000000000000000000000000000000000000000000001000000000000000000000002000000000000000000000000000000000000000000000000000000200000000000000000000000000000000000000000000000000000000000000000000000080000000200000000000000000000000000000000000000000000000000000000000000000000000000000000000000000000000000000000000000000000000000000000000000000000000000000000000000000000000000000008000000000000000000000000000000000000000000000000000",
      "type": "0x2",
      "transactionHash": "0x015edd995a25d9e7925887c88ddaa9a6e3cc8c32a2b3606e72cda91d25030e0f",
      "transactionIndex": "0x5",
      "blockHash": "0x5e0497fc922892864ad628c25355296e3d2cbd4e7492d2b5310d7a29092ccee2",
      "blockNumber": "0x19ec051",
      "gasUsed": "0x7531",
      "effectiveGasPrice": "0x4d5a4",
      "from": "0xa6b3d200cd34ca14d7579dac8b054bf50a62c37c",
      "to": "0xd12925a84a3fe684cdba703b28390784a57695c6",
      "contractAddress": null,
      "l1BaseFeeScalar": "0x44d",
      "l1BlobBaseFee": "0x1",
      "l1BlobBaseFeeScalar": "0xa118b",
      "l1Fee": "0x121af1",
      "l1GasPrice": "0xa46f4",
      "l1GasUsed": "0x640"
    }
  ],
  "libraries": [],
  "pending": [],
  "returns": {},
  "timestamp": 1750130564,
  "chain": 84532,
  "commit": "e3173ca"
}