{
  "transactions": [
    {
      "hash": "0x17cc9baf03e76aa1aa24acd5a1ebb1d7baf0d28f7539e86b1620ff4ddd37f6b3",
      "transactionType": "CALL",
      "contractName": null,
      "contractAddress": "0x72049d4a31b2a9a2c14fc55d1d5ddbe0de2bafe3",
      "function": "setMockTokens(address,address,address)",
      "arguments": [
        "0x18fCce7f06e2b097965a237F01b5429aE2d3aE90",
        "0x22afe5312F73A34c07f6dddC5D09A12EF69715cB",
        "0x8Ed59502aAd09B7Cf33dB96d4EefA06921157dB3"
      ],
      "transaction": {
        "from": "0xa6b3d200cd34ca14d7579dac8b054bf50a62c37c",
        "to": "0x72049d4a31b2a9a2c14fc55d1d5ddbe0de2bafe3",
        "gas": "0x3e87e",
        "value": "0x0",
        "input": "0x6392b99c00000000000000000000000018fcce7f06e2b097965a237f01b5429ae2d3ae9000000000000000000000000022afe5312f73a34c07f6dddc5d09a12ef69715cb0000000000000000000000008ed59502aad09b7cf33db96d4eefa06921157db3",
        "nonce": "0xb2d",
        "chainId": "0x14a34"
      },
      "additionalContracts": [],
      "isFixedGasLimit": false
    },
    {
      "hash": "0xf24fb43c4458a5b5c70d5c90e5d5db6db09e128331b8238b4e43641b6062c341",
      "transactionType": "CALL",
      "contractName": null,
      "contractAddress": "0x72049d4a31b2a9a2c14fc55d1d5ddbe0de2bafe3",
      "function": "setChainlinkEnabled(bool)",
      "arguments": [
        "true"
      ],
      "transaction": {
        "from": "0xa6b3d200cd34ca14d7579dac8b054bf50a62c37c",
        "to": "0x72049d4a31b2a9a2c14fc55d1d5ddbe0de2bafe3",
        "gas": "0xab4e",
        "value": "0x0",
        "input": "0x058f3bc80000000000000000000000000000000000000000000000000000000000000001",
        "nonce": "0xb2e",
        "chainId": "0x14a34"
      },
      "additionalContracts": [],
      "isFixedGasLimit": false
    }
  ],
  "receipts": [
    {
      "status": "0x1",
      "cumulativeGasUsed": "0x4274ff",
      "logs": [
        {
          "address": "0x72049d4a31b2a9a2c14fc55d1d5ddbe0de2bafe3",
          "topics": [
            "0xa4a204fa26714a90a8cea4be2a38ce6d1bf79dcebc5d05bc7d24d0e18bf09cb2",
            "0x00000000000000000000000018fcce7f06e2b097965a237f01b5429ae2d3ae90",
            "0x0000000000000000000000008ed59502aad09b7cf33db96d4eefa06921157db3"
          ],
          "data": "0x000000000000000000000000000000000000000000000000000000009502f9000000000000000000000000000000000000000000000000000000000000000002",
          "blockHash": "0xd6651b5bdca4943cd1f29dc4d02e8f4a01e3e213ac1f1fc985607c7789514af7",
          "blockNumber": "0x19e9742",
          "transactionHash": "0x17cc9baf03e76aa1aa24acd5a1ebb1d7baf0d28f7539e86b1620ff4ddd37f6b3",
          "transactionIndex": "0x10",
          "logIndex": "0x65",
          "removed": false
        },
        {
          "address": "0x72049d4a31b2a9a2c14fc55d1d5ddbe0de2bafe3",
          "topics": [
            "0xa4a204fa26714a90a8cea4be2a38ce6d1bf79dcebc5d05bc7d24d0e18bf09cb2",
            "0x00000000000000000000000022afe5312f73a34c07f6dddc5d09a12ef69715cb",
            "0x0000000000000000000000008ed59502aad09b7cf33db96d4eefa06921157db3"
          ],
          "data": "0x000000000000000000000000000000000000000000000000000000161e70f6000000000000000000000000000000000000000000000000000000000000000002",
          "blockHash": "0xd6651b5bdca4943cd1f29dc4d02e8f4a01e3e213ac1f1fc985607c7789514af7",
          "blockNumber": "0x19e9742",
          "transactionHash": "0x17cc9baf03e76aa1aa24acd5a1ebb1d7baf0d28f7539e86b1620ff4ddd37f6b3",
          "transactionIndex": "0x10",
          "logIndex": "0x66",
          "removed": false
        },
        {
          "address": "0x72049d4a31b2a9a2c14fc55d1d5ddbe0de2bafe3",
          "topics": [
            "0xa4a204fa26714a90a8cea4be2a38ce6d1bf79dcebc5d05bc7d24d0e18bf09cb2",
            "0x0000000000000000000000008ed59502aad09b7cf33db96d4eefa06921157db3",
            "0x0000000000000000000000008ed59502aad09b7cf33db96d4eefa06921157db3"
          ],
          "data": "0x00000000000000000000000000000000000000000000000000000000000f42400000000000000000000000000000000000000000000000000000000000000002",
          "blockHash": "0xd6651b5bdca4943cd1f29dc4d02e8f4a01e3e213ac1f1fc985607c7789514af7",
          "blockNumber": "0x19e9742",
          "transactionHash": "0x17cc9baf03e76aa1aa24acd5a1ebb1d7baf0d28f7539e86b1620ff4ddd37f6b3",
          "transactionIndex": "0x10",
          "logIndex": "0x67",
          "removed": false
        },
        {
          "address": "0x72049d4a31b2a9a2c14fc55d1d5ddbe0de2bafe3",
          "topics": [
            "0xa4a204fa26714a90a8cea4be2a38ce6d1bf79dcebc5d05bc7d24d0e18bf09cb2",
            "0x0000000000000000000000008ed59502aad09b7cf33db96d4eefa06921157db3",
            "0x00000000000000000000000018fcce7f06e2b097965a237f01b5429ae2d3ae90"
          ],
          "data": "0x00000000000000000000000000000000000000000000000000000000000001900000000000000000000000000000000000000000000000000000000000000002",
          "blockHash": "0xd6651b5bdca4943cd1f29dc4d02e8f4a01e3e213ac1f1fc985607c7789514af7",
          "blockNumber": "0x19e9742",
          "transactionHash": "0x17cc9baf03e76aa1aa24acd5a1ebb1d7baf0d28f7539e86b1620ff4ddd37f6b3",
          "transactionIndex": "0x10",
          "logIndex": "0x68",
          "removed": false
        },
        {
          "address": "0x72049d4a31b2a9a2c14fc55d1d5ddbe0de2bafe3",
          "topics": [
            "0xa4a204fa26714a90a8cea4be2a38ce6d1bf79dcebc5d05bc7d24d0e18bf09cb2",
            "0x0000000000000000000000008ed59502aad09b7cf33db96d4eefa06921157db3",
            "0x00000000000000000000000022afe5312f73a34c07f6dddc5d09a12ef69715cb"
          ],
          "data": "0x00000000000000000000000000000000000000000000000000000000000000160000000000000000000000000000000000000000000000000000000000000002",
          "blockHash": "0xd6651b5bdca4943cd1f29dc4d02e8f4a01e3e213ac1f1fc985607c7789514af7",
          "blockNumber": "0x19e9742",
          "transactionHash": "0x17cc9baf03e76aa1aa24acd5a1ebb1d7baf0d28f7539e86b1620ff4ddd37f6b3",
          "transactionIndex": "0x10",
          "logIndex": "0x69",
          "removed": false
        },
        {
          "address": "0x72049d4a31b2a9a2c14fc55d1d5ddbe0de2bafe3",
          "topics": [
            "0xa4a204fa26714a90a8cea4be2a38ce6d1bf79dcebc5d05bc7d24d0e18bf09cb2",
            "0x00000000000000000000000018fcce7f06e2b097965a237f01b5429ae2d3ae90",
            "0x00000000000000000000000022afe5312f73a34c07f6dddc5d09a12ef69715cb"
          ],
          "data": "0x000000000000000000000000000000000000000000000000000000000000d9040000000000000000000000000000000000000000000000000000000000000002",
          "blockHash": "0xd6651b5bdca4943cd1f29dc4d02e8f4a01e3e213ac1f1fc985607c7789514af7",
          "blockNumber": "0x19e9742",
          "transactionHash": "0x17cc9baf03e76aa1aa24acd5a1ebb1d7baf0d28f7539e86b1620ff4ddd37f6b3",
          "transactionIndex": "0x10",
          "logIndex": "0x6a",
          "removed": false
        },
        {
          "address": "0x72049d4a31b2a9a2c14fc55d1d5ddbe0de2bafe3",
          "topics": [
            "0xa4a204fa26714a90a8cea4be2a38ce6d1bf79dcebc5d05bc7d24d0e18bf09cb2",
            "0x00000000000000000000000022afe5312f73a34c07f6dddc5d09a12ef69715cb",
            "0x00000000000000000000000018fcce7f06e2b097965a237f01b5429ae2d3ae90"
          ],
          "data": "0x000000000000000000000000000000000000000000000000000000000112a8800000000000000000000000000000000000000000000000000000000000000002",
          "blockHash": "0xd6651b5bdca4943cd1f29dc4d02e8f4a01e3e213ac1f1fc985607c7789514af7",
          "blockNumber": "0x19e9742",
          "transactionHash": "0x17cc9baf03e76aa1aa24acd5a1ebb1d7baf0d28f7539e86b1620ff4ddd37f6b3",
          "transactionIndex": "0x10",
          "logIndex": "0x6b",
          "removed": false
        }
      ],
      "logsBloom": "0x00000000000000000000000000000000000000040000000000000000000000000000000000000000000000000000000000000000000000000020000000000000020000000000000000000400000000000000000000000000000000000000000000000010200000000000000000000000000000000000000000000000000000000000000000000000000000000000000000000000000000040000000000000000040000000000000000000000014100000000000000000000000000000000000000000000000000000400000000000000000000400004000000000000000000000000000000000000000000002000000000000000000000000000000000000000",
      "type": "0x2",
      "transactionHash": "0x17cc9baf03e76aa1aa24acd5a1ebb1d7baf0d28f7539e86b1620ff4ddd37f6b3",
      "transactionIndex": "0x10",
      "blockHash": "0xd6651b5bdca4943cd1f29dc4d02e8f4a01e3e213ac1f1fc985607c7789514af7",
      "blockNumber": "0x19e9742",
      "gasUsed": "0x2ac19",
      "effectiveGasPrice": "0x16e62",
      "from": "0xa6b3d200cd34ca14d7579dac8b054bf50a62c37c",
      "to": "0x72049d4a31b2a9a2c14fc55d1d5ddbe0de2bafe3",
      "contractAddress": null,
      "l1BaseFeeScalar": "0x44d",
      "l1BlobBaseFee": "0x1",
      "l1BlobBaseFeeScalar": "0xa118b",
      "l1Fee": "0x77eb0",
      "l1GasPrice": "0x37510",
      "l1GasUsed": "0x7b0"
    },
    {
      "status": "0x1",
      "cumulativeGasUsed": "0x42ea21",
      "logs": [
        {
          "address": "0x72049d4a31b2a9a2c14fc55d1d5ddbe0de2bafe3",
          "topics": [
            "0x51896a423f4772bc4f6298b69c1f10c8330af973be38b7cacc105b5fc4ba035d"
          ],
          "data": "0x0000000000000000000000000000000000000000000000000000000000000001",
          "blockHash": "0xd6651b5bdca4943cd1f29dc4d02e8f4a01e3e213ac1f1fc985607c7789514af7",
          "blockNumber": "0x19e9742",
          "transactionHash": "0xf24fb43c4458a5b5c70d5c90e5d5db6db09e128331b8238b4e43641b6062c341",
          "transactionIndex": "0x11",
          "logIndex": "0x6c",
          "removed": false
        }
      ],
      "logsBloom": "0x00000000000000000000000000000000000000040000000000000000000000000000000000000000000000000000000000000000000000000000000000000000000000000000000000000000000000000000000000000000000000000000000000000000000200000000000000000000000000000000000000000000000000000000000000000000000080000000200000000000000000000000000000000000000000000000000000000000010000000000000000000000000000000000000000000000000000000000000000000000000000000004000000000000000000000000000000000000000000000000000000000000000000000000000000000000",
      "type": "0x2",
      "transactionHash": "0xf24fb43c4458a5b5c70d5c90e5d5db6db09e128331b8238b4e43641b6062c341",
      "transactionIndex": "0x11",
      "blockHash": "0xd6651b5bdca4943cd1f29dc4d02e8f4a01e3e213ac1f1fc985607c7789514af7",
      "blockNumber": "0x19e9742",
      "gasUsed": "0x7522",
      "effectiveGasPrice": "0x16e62",
      "from": "0xa6b3d200cd34ca14d7579dac8b054bf50a62c37c",
      "to": "0x72049d4a31b2a9a2c14fc55d1d5ddbe0de2bafe3",
      "contractAddress": null,
      "l1BaseFeeScalar": "0x44d",
      "l1BlobBaseFee": "0x1",
      "l1BlobBaseFeeScalar": "0xa118b",
      "l1Fee": "0x61762",
      "l1GasPrice": "0x37510",
      "l1GasUsed": "0x640"
    }
  ],
  "libraries": [],
  "pending": [],
  "returns": {},
  "timestamp": 1750109541,
  "chain": 84532,
  "commit": "22b5654"
}