{
  "transactions": [
    {
      "hash": "0xfc322f28a475856596e8a8c59a0281e18f74d5b82917779377c356bf3f976921",
      "transactionType": "CALL",
      "contractName": null,
      "contractAddress": "0x377100b614bfb71ca489b2f0f1b2c82ea8f88081",
      "function": "setMockTokens(address,address,address)",
      "arguments": [
        "0xff40519308154839EF5772CccE6012ccDEf5b32a",
        "0x8Cf155855FeFAbA11770277baEf627977ea04751",
        "0xabA8AFd2C637c27d09A893fe048A74f94D74108B"
      ],
      "transaction": {
        "from": "0xa6b3d200cd34ca14d7579dac8b054bf50a62c37c",
        "to": "0x377100b614bfb71ca489b2f0f1b2c82ea8f88081",
        "gas": "0x3b27d",
        "value": "0x0",
        "input": "0x6392b99c000000000000000000000000ff40519308154839ef5772ccce6012ccdef5b32a0000000000000000000000008cf155855fefaba11770277baef627977ea04751000000000000000000000000aba8afd2c637c27d09a893fe048a74f94d74108b",
        "nonce": "0x15b6",
        "chainId": "0x14a34"
      },
      "additionalContracts": [],
      "isFixedGasLimit": false
    },
    {
      "hash": "0x1539219009e02215fa9be21275e5f5e98f0aae599b5e7f59ae30c578758e6c57",
      "transactionType": "CALL",
      "contractName": null,
      "contractAddress": "0x377100b614bfb71ca489b2f0f1b2c82ea8f88081",
      "function": "setChainlinkEnabled(bool)",
      "arguments": [
        "true"
      ],
      "transaction": {
        "from": "0xa6b3d200cd34ca14d7579dac8b054bf50a62c37c",
        "to": "0x377100b614bfb71ca489b2f0f1b2c82ea8f88081",
        "gas": "0xab64",
        "value": "0x0",
        "input": "0x058f3bc80000000000000000000000000000000000000000000000000000000000000001",
        "nonce": "0x15b7",
        "chainId": "0x14a34"
      },
      "additionalContracts": [],
      "isFixedGasLimit": false
    }
  ],
  "receipts": [
    {
      "status": "0x1",
      "cumulativeGasUsed": "0xdcec0",
      "logs": [
        {
          "address": "0x377100b614bfb71ca489b2f0f1b2c82ea8f88081",
          "topics": [
            "0xa4a204fa26714a90a8cea4be2a38ce6d1bf79dcebc5d05bc7d24d0e18bf09cb2",
            "0x000000000000000000000000ff40519308154839ef5772ccce6012ccdef5b32a",
            "0x000000000000000000000000aba8afd2c637c27d09a893fe048a74f94d74108b"
          ],
          "data": "0x000000000000000000000000000000000000000000000000000000009502f9000000000000000000000000000000000000000000000000000000000000000002",
          "blockHash": "0xc31e29838d4a3529389dcacc8a7c8976414682bab234fb9716c1282b4a25c49e",
          "blockNumber": "0x1a06d7c",
          "transactionHash": "0xfc322f28a475856596e8a8c59a0281e18f74d5b82917779377c356bf3f976921",
          "transactionIndex": "0x2",
          "logIndex": "0x28",
          "removed": false
        },
        {
          "address": "0x377100b614bfb71ca489b2f0f1b2c82ea8f88081",
          "topics": [
            "0xa4a204fa26714a90a8cea4be2a38ce6d1bf79dcebc5d05bc7d24d0e18bf09cb2",
            "0x0000000000000000000000008cf155855fefaba11770277baef627977ea04751",
            "0x000000000000000000000000aba8afd2c637c27d09a893fe048a74f94d74108b"
          ],
          "data": "0x000000000000000000000000000000000000000000000000000000161e70f6000000000000000000000000000000000000000000000000000000000000000002",
          "blockHash": "0xc31e29838d4a3529389dcacc8a7c8976414682bab234fb9716c1282b4a25c49e",
          "blockNumber": "0x1a06d7c",
          "transactionHash": "0xfc322f28a475856596e8a8c59a0281e18f74d5b82917779377c356bf3f976921",
          "transactionIndex": "0x2",
          "logIndex": "0x29",
          "removed": false
        },
        {
          "address": "0x377100b614bfb71ca489b2f0f1b2c82ea8f88081",
          "topics": [
            "0xa4a204fa26714a90a8cea4be2a38ce6d1bf79dcebc5d05bc7d24d0e18bf09cb2",
            "0x000000000000000000000000aba8afd2c637c27d09a893fe048a74f94d74108b",
            "0x000000000000000000000000aba8afd2c637c27d09a893fe048a74f94d74108b"
          ],
          "data": "0x00000000000000000000000000000000000000000000000000000000000f42400000000000000000000000000000000000000000000000000000000000000002",
          "blockHash": "0xc31e29838d4a3529389dcacc8a7c8976414682bab234fb9716c1282b4a25c49e",
          "blockNumber": "0x1a06d7c",
          "transactionHash": "0xfc322f28a475856596e8a8c59a0281e18f74d5b82917779377c356bf3f976921",
          "transactionIndex": "0x2",
          "logIndex": "0x2a",
          "removed": false
        },
        {
          "address": "0x377100b614bfb71ca489b2f0f1b2c82ea8f88081",
          "topics": [
            "0xa4a204fa26714a90a8cea4be2a38ce6d1bf79dcebc5d05bc7d24d0e18bf09cb2",
            "0x000000000000000000000000aba8afd2c637c27d09a893fe048a74f94d74108b",
            "0x000000000000000000000000ff40519308154839ef5772ccce6012ccdef5b32a"
          ],
          "data": "0x00000000000000000000000000000000000000000000000000000000000001900000000000000000000000000000000000000000000000000000000000000002",
          "blockHash": "0xc31e29838d4a3529389dcacc8a7c8976414682bab234fb9716c1282b4a25c49e",
          "blockNumber": "0x1a06d7c",
          "transactionHash": "0xfc322f28a475856596e8a8c59a0281e18f74d5b82917779377c356bf3f976921",
          "transactionIndex": "0x2",
          "logIndex": "0x2b",
          "removed": false
        },
        {
          "address": "0x377100b614bfb71ca489b2f0f1b2c82ea8f88081",
          "topics": [
            "0xa4a204fa26714a90a8cea4be2a38ce6d1bf79dcebc5d05bc7d24d0e18bf09cb2",
            "0x000000000000000000000000aba8afd2c637c27d09a893fe048a74f94d74108b",
            "0x0000000000000000000000008cf155855fefaba11770277baef627977ea04751"
          ],
          "data": "0x00000000000000000000000000000000000000000000000000000000000000160000000000000000000000000000000000000000000000000000000000000002",
          "blockHash": "0xc31e29838d4a3529389dcacc8a7c8976414682bab234fb9716c1282b4a25c49e",
          "blockNumber": "0x1a06d7c",
          "transactionHash": "0xfc322f28a475856596e8a8c59a0281e18f74d5b82917779377c356bf3f976921",
          "transactionIndex": "0x2",
          "logIndex": "0x2c",
          "removed": false
        },
        {
          "address": "0x377100b614bfb71ca489b2f0f1b2c82ea8f88081",
          "topics": [
            "0xa4a204fa26714a90a8cea4be2a38ce6d1bf79dcebc5d05bc7d24d0e18bf09cb2",
            "0x000000000000000000000000ff40519308154839ef5772ccce6012ccdef5b32a",
            "0x0000000000000000000000008cf155855fefaba11770277baef627977ea04751"
          ],
          "data": "0x000000000000000000000000000000000000000000000000000000000000d9040000000000000000000000000000000000000000000000000000000000000002",
          "blockHash": "0xc31e29838d4a3529389dcacc8a7c8976414682bab234fb9716c1282b4a25c49e",
          "blockNumber": "0x1a06d7c",
          "transactionHash": "0xfc322f28a475856596e8a8c59a0281e18f74d5b82917779377c356bf3f976921",
          "transactionIndex": "0x2",
          "logIndex": "0x2d",
          "removed": false
        },
        {
          "address": "0x377100b614bfb71ca489b2f0f1b2c82ea8f88081",
          "topics": [
            "0xa4a204fa26714a90a8cea4be2a38ce6d1bf79dcebc5d05bc7d24d0e18bf09cb2",
            "0x0000000000000000000000008cf155855fefaba11770277baef627977ea04751",
            "0x000000000000000000000000ff40519308154839ef5772ccce6012ccdef5b32a"
          ],
          "data": "0x000000000000000000000000000000000000000000000000000000000112a8800000000000000000000000000000000000000000000000000000000000000002",
          "blockHash": "0xc31e29838d4a3529389dcacc8a7c8976414682bab234fb9716c1282b4a25c49e",
          "blockNumber": "0x1a06d7c",
          "transactionHash": "0xfc322f28a475856596e8a8c59a0281e18f74d5b82917779377c356bf3f976921",
          "transactionIndex": "0x2",
          "logIndex": "0x2e",
          "removed": false
        }
      ],
      "logsBloom": "0x00000000000000002000000000000000000000000000000000000000002000000000000000000000000000000020000000000000004000000020000002000000000100008000000000000400000000000000000000000000000000000000000000000000000000000000000000000000000000000000000000000000000000000000000000080800000000000000000000000000000000000000000000000000000000000000000000000000000000000000000000000000000000000000000000000000000000000400004000000000000000000000000000000000000000000000000000000200000008000000000000000000000000000000000000000000",
      "type": "0x0",
      "transactionHash": "0xfc322f28a475856596e8a8c59a0281e18f74d5b82917779377c356bf3f976921",
      "transactionIndex": "0x2",
      "blockHash": "0xc31e29838d4a3529389dcacc8a7c8976414682bab234fb9716c1282b4a25c49e",
      "blockNumber": "0x1a06d7c",
      "gasUsed": "0x2ad3f",
      "effectiveGasPrice": "0xf42bd",
      "from": "0xa6b3d200cd34ca14d7579dac8b054bf50a62c37c",
      "to": "0x377100b614bfb71ca489b2f0f1b2c82ea8f88081",
      "contractAddress": null,
      "l1BaseFeeScalar": "0x44d",
      "l1BlobBaseFee": "0x1",
      "l1BlobBaseFeeScalar": "0xa118b",
      "l1Fee": "0x170",
      "l1GasPrice": "0x8d",
      "l1GasUsed": "0x752"
    },
    {
      "status": "0x1",
      "cumulativeGasUsed": "0x761ad",
      "logs": [
        {
          "address": "0x377100b614bfb71ca489b2f0f1b2c82ea8f88081",
          "topics": [
            "0x51896a423f4772bc4f6298b69c1f10c8330af973be38b7cacc105b5fc4ba035d"
          ],
          "data": "0x0000000000000000000000000000000000000000000000000000000000000001",
          "blockHash": "0xe1b405dcc8e40a8d78ca130a45a3422c34fa09395a7de57a231aabcc17ffdec8",
          "blockNumber": "0x1a06d7e",
          "transactionHash": "0x1539219009e02215fa9be21275e5f5e98f0aae599b5e7f59ae30c578758e6c57",
          "transactionIndex": "0x4",
          "logIndex": "0xf",
          "removed": false
        }
      ],
      "logsBloom": "0x00000000000000000000000000000000000000000000000000000000002000000000000000000000000000000020000000000000000000000000000000000000000000000000000000000000000000000000000000000000000000000000000000000000000200000000000000000000000000000000000000000000000000000000000000000000000080000000200000000000000000000000000000000000000000000000000000000000000000000000000000000000000000000000000000000000000000000000000000000000000000000000000000000000000000000000000000000200000000000000000000000000000000000000000000000000",
      "type": "0x0",
      "transactionHash": "0x1539219009e02215fa9be21275e5f5e98f0aae599b5e7f59ae30c578758e6c57",
      "transactionIndex": "0x4",
      "blockHash": "0xe1b405dcc8e40a8d78ca130a45a3422c34fa09395a7de57a231aabcc17ffdec8",
      "blockNumber": "0x1a06d7e",
      "gasUsed": "0x7531",
      "effectiveGasPrice": "0xf42bd",
      "from": "0xa6b3d200cd34ca14d7579dac8b054bf50a62c37c",
      "to": "0x377100b614bfb71ca489b2f0f1b2c82ea8f88081",
      "contractAddress": null,
      "l1BaseFeeScalar": "0x44d",
      "l1BlobBaseFee": "0x1",
      "l1BlobBaseFeeScalar": "0xa118b",
      "l1Fee": "0x13a",
      "l1GasPrice": "0x8d",
      "l1GasUsed": "0x640"
    }
  ],
  "libraries": [],
  "pending": [],
  "returns": {},
  "timestamp": 1750350301,
  "chain": 84532,
  "commit": "4ffb982"
}