{
  "transactions": [
    {
      "hash": "0xc5425b2c2ba26f78099c09887e5bac5293b8b991b086fc42ed29afce4ea180cf",
      "transactionType": "CALL",
      "contractName": null,
      "contractAddress": "0x2da53f86929eca8e4c26791c2ac69a0845454c3e",
      "function": "setMockTokens(address,address,address)",
      "arguments": [
        "0x17451f655eBe1c118ba1A3d0c235aaE45Eea2Ff1",
        "0x1f1872Ed8f9b37F05f6B9274ca9eF48d76d0a11D",
        "0x94e8F1Bfc0DF5353121350c90D48CBE9818fA545"
      ],
      "transaction": {
        "from": "0xa6b3d200cd34ca14d7579dac8b054bf50a62c37c",
        "to": "0x2da53f86929eca8e4c26791c2ac69a0845454c3e",
        "gas": "0x3b27d",
        "value": "0x0",
        "input": "0x6392b99c00000000000000000000000017451f655ebe1c118ba1a3d0c235aae45eea2ff10000000000000000000000001f1872ed8f9b37f05f6b9274ca9ef48d76d0a11d00000000000000000000000094e8f1bfc0df5353121350c90d48cbe9818fa545",
        "nonce": "0xc8c",
        "chainId": "0x14a34"
      },
      "additionalContracts": [],
      "isFixedGasLimit": false
    },
    {
      "hash": "0x95d19fdb9fdf2bbd82dd80f8ff8e1c4e9105f7fe2dc549b4c43d2893d3beedef",
      "transactionType": "CALL",
      "contractName": null,
      "contractAddress": "0x2da53f86929eca8e4c26791c2ac69a0845454c3e",
      "function": "setChainlinkEnabled(bool)",
      "arguments": [
        "true"
      ],
      "transaction": {
        "from": "0xa6b3d200cd34ca14d7579dac8b054bf50a62c37c",
        "to": "0x2da53f86929eca8e4c26791c2ac69a0845454c3e",
        "gas": "0xab64",
        "value": "0x0",
        "input": "0x058f3bc80000000000000000000000000000000000000000000000000000000000000001",
        "nonce": "0xc8d",
        "chainId": "0x14a34"
      },
      "additionalContracts": [],
      "isFixedGasLimit": false
    }
  ],
  "receipts": [
    {
      "status": "0x1",
      "cumulativeGasUsed": "0x2e1dd1",
      "logs": [
        {
          "address": "0x2da53f86929eca8e4c26791c2ac69a0845454c3e",
          "topics": [
            "0xa4a204fa26714a90a8cea4be2a38ce6d1bf79dcebc5d05bc7d24d0e18bf09cb2",
            "0x00000000000000000000000017451f655ebe1c118ba1a3d0c235aae45eea2ff1",
            "0x00000000000000000000000094e8f1bfc0df5353121350c90d48cbe9818fa545"
          ],
          "data": "0x000000000000000000000000000000000000000000000000000000009502f9000000000000000000000000000000000000000000000000000000000000000002",
          "blockHash": "0x76815f88e9f476a4245b234052f19a23772b02b07c72c1916876e42eff0f9e89",
          "blockNumber": "0x19eb78b",
          "transactionHash": "0xc5425b2c2ba26f78099c09887e5bac5293b8b991b086fc42ed29afce4ea180cf",
          "transactionIndex": "0xe",
          "logIndex": "0x6b",
          "removed": false
        },
        {
          "address": "0x2da53f86929eca8e4c26791c2ac69a0845454c3e",
          "topics": [
            "0xa4a204fa26714a90a8cea4be2a38ce6d1bf79dcebc5d05bc7d24d0e18bf09cb2",
            "0x0000000000000000000000001f1872ed8f9b37f05f6b9274ca9ef48d76d0a11d",
            "0x00000000000000000000000094e8f1bfc0df5353121350c90d48cbe9818fa545"
          ],
          "data": "0x000000000000000000000000000000000000000000000000000000161e70f6000000000000000000000000000000000000000000000000000000000000000002",
          "blockHash": "0x76815f88e9f476a4245b234052f19a23772b02b07c72c1916876e42eff0f9e89",
          "blockNumber": "0x19eb78b",
          "transactionHash": "0xc5425b2c2ba26f78099c09887e5bac5293b8b991b086fc42ed29afce4ea180cf",
          "transactionIndex": "0xe",
          "logIndex": "0x6c",
          "removed": false
        },
        {
          "address": "0x2da53f86929eca8e4c26791c2ac69a0845454c3e",
          "topics": [
            "0xa4a204fa26714a90a8cea4be2a38ce6d1bf79dcebc5d05bc7d24d0e18bf09cb2",
            "0x00000000000000000000000094e8f1bfc0df5353121350c90d48cbe9818fa545",
            "0x00000000000000000000000094e8f1bfc0df5353121350c90d48cbe9818fa545"
          ],
          "data": "0x00000000000000000000000000000000000000000000000000000000000f42400000000000000000000000000000000000000000000000000000000000000002",
          "blockHash": "0x76815f88e9f476a4245b234052f19a23772b02b07c72c1916876e42eff0f9e89",
          "blockNumber": "0x19eb78b",
          "transactionHash": "0xc5425b2c2ba26f78099c09887e5bac5293b8b991b086fc42ed29afce4ea180cf",
          "transactionIndex": "0xe",
          "logIndex": "0x6d",
          "removed": false
        },
        {
          "address": "0x2da53f86929eca8e4c26791c2ac69a0845454c3e",
          "topics": [
            "0xa4a204fa26714a90a8cea4be2a38ce6d1bf79dcebc5d05bc7d24d0e18bf09cb2",
            "0x00000000000000000000000094e8f1bfc0df5353121350c90d48cbe9818fa545",
            "0x00000000000000000000000017451f655ebe1c118ba1a3d0c235aae45eea2ff1"
          ],
          "data": "0x00000000000000000000000000000000000000000000000000000000000001900000000000000000000000000000000000000000000000000000000000000002",
          "blockHash": "0x76815f88e9f476a4245b234052f19a23772b02b07c72c1916876e42eff0f9e89",
          "blockNumber": "0x19eb78b",
          "transactionHash": "0xc5425b2c2ba26f78099c09887e5bac5293b8b991b086fc42ed29afce4ea180cf",
          "transactionIndex": "0xe",
          "logIndex": "0x6e",
          "removed": false
        },
        {
          "address": "0x2da53f86929eca8e4c26791c2ac69a0845454c3e",
          "topics": [
            "0xa4a204fa26714a90a8cea4be2a38ce6d1bf79dcebc5d05bc7d24d0e18bf09cb2",
            "0x00000000000000000000000094e8f1bfc0df5353121350c90d48cbe9818fa545",
            "0x0000000000000000000000001f1872ed8f9b37f05f6b9274ca9ef48d76d0a11d"
          ],
          "data": "0x00000000000000000000000000000000000000000000000000000000000000160000000000000000000000000000000000000000000000000000000000000002",
          "blockHash": "0x76815f88e9f476a4245b234052f19a23772b02b07c72c1916876e42eff0f9e89",
          "blockNumber": "0x19eb78b",
          "transactionHash": "0xc5425b2c2ba26f78099c09887e5bac5293b8b991b086fc42ed29afce4ea180cf",
          "transactionIndex": "0xe",
          "logIndex": "0x6f",
          "removed": false
        },
        {
          "address": "0x2da53f86929eca8e4c26791c2ac69a0845454c3e",
          "topics": [
            "0xa4a204fa26714a90a8cea4be2a38ce6d1bf79dcebc5d05bc7d24d0e18bf09cb2",
            "0x00000000000000000000000017451f655ebe1c118ba1a3d0c235aae45eea2ff1",
            "0x0000000000000000000000001f1872ed8f9b37f05f6b9274ca9ef48d76d0a11d"
          ],
          "data": "0x000000000000000000000000000000000000000000000000000000000000d9040000000000000000000000000000000000000000000000000000000000000002",
          "blockHash": "0x76815f88e9f476a4245b234052f19a23772b02b07c72c1916876e42eff0f9e89",
          "blockNumber": "0x19eb78b",
          "transactionHash": "0xc5425b2c2ba26f78099c09887e5bac5293b8b991b086fc42ed29afce4ea180cf",
          "transactionIndex": "0xe",
          "logIndex": "0x70",
          "removed": false
        },
        {
          "address": "0x2da53f86929eca8e4c26791c2ac69a0845454c3e",
          "topics": [
            "0xa4a204fa26714a90a8cea4be2a38ce6d1bf79dcebc5d05bc7d24d0e18bf09cb2",
            "0x0000000000000000000000001f1872ed8f9b37f05f6b9274ca9ef48d76d0a11d",
            "0x00000000000000000000000017451f655ebe1c118ba1a3d0c235aae45eea2ff1"
          ],
          "data": "0x000000000000000000000000000000000000000000000000000000000112a8800000000000000000000000000000000000000000000000000000000000000002",
          "blockHash": "0x76815f88e9f476a4245b234052f19a23772b02b07c72c1916876e42eff0f9e89",
          "blockNumber": "0x19eb78b",
          "transactionHash": "0xc5425b2c2ba26f78099c09887e5bac5293b8b991b086fc42ed29afce4ea180cf",
          "transactionIndex": "0xe",
          "logIndex": "0x71",
          "removed": false
        }
      ],
      "logsBloom": "0x00000000000000010000000000000000000000000000000080000020000000000002000000000000000000000000000000000000000000000820000000000000000000000000000000000400000000000000000000000000000000000000000000000000000000000000000000000000000000000000000000000000000000000000000000000000000000000000000000000000000000000000000000000000000000000000800000000000000000000000000400000000000000000000000000000000400080000400000000120000000000000000000000000000000000000000000800000000000000000000000000000000000000000000000000000000",
      "type": "0x2",
      "transactionHash": "0xc5425b2c2ba26f78099c09887e5bac5293b8b991b086fc42ed29afce4ea180cf",
      "transactionIndex": "0xe",
      "blockHash": "0x76815f88e9f476a4245b234052f19a23772b02b07c72c1916876e42eff0f9e89",
      "blockNumber": "0x19eb78b",
      "gasUsed": "0x2ad3f",
      "effectiveGasPrice": "0x4c4d5",
      "from": "0xa6b3d200cd34ca14d7579dac8b054bf50a62c37c",
      "to": "0x2da53f86929eca8e4c26791c2ac69a0845454c3e",
      "contractAddress": null,
      "l1BaseFeeScalar": "0x44d",
      "l1BlobBaseFee": "0x1",
      "l1BlobBaseFeeScalar": "0xa118b",
      "l1Fee": "0xdf73",
      "l1GasPrice": "0x66f2",
      "l1GasUsed": "0x7b0"
    },
    {
      "status": "0x1",
      "cumulativeGasUsed": "0x2e9302",
      "logs": [
        {
          "address": "0x2da53f86929eca8e4c26791c2ac69a0845454c3e",
          "topics": [
            "0x51896a423f4772bc4f6298b69c1f10c8330af973be38b7cacc105b5fc4ba035d"
          ],
          "data": "0x0000000000000000000000000000000000000000000000000000000000000001",
          "blockHash": "0x76815f88e9f476a4245b234052f19a23772b02b07c72c1916876e42eff0f9e89",
          "blockNumber": "0x19eb78b",
          "transactionHash": "0x95d19fdb9fdf2bbd82dd80f8ff8e1c4e9105f7fe2dc549b4c43d2893d3beedef",
          "transactionIndex": "0xf",
          "logIndex": "0x72",
          "removed": false
        }
      ],
      "logsBloom": "0x00000000000000000000000000000000000000000000000080000000000000000000000000000000000000000000000000000000000000000800000000000000000000000000000000000000000000000000000000000000000000000000000000000000000200000000000000000000000000000000000000000000000000000000000000000000000080000000200000000000000000000000000000000000000000000000000000000000000000000000000000000000000000000000000000000000000000000000000000020000000000000000000000000000000000000000000000000000000000000000000000000000000000000000000000000000",
      "type": "0x2",
      "transactionHash": "0x95d19fdb9fdf2bbd82dd80f8ff8e1c4e9105f7fe2dc549b4c43d2893d3beedef",
      "transactionIndex": "0xf",
      "blockHash": "0x76815f88e9f476a4245b234052f19a23772b02b07c72c1916876e42eff0f9e89",
      "blockNumber": "0x19eb78b",
      "gasUsed": "0x7531",
      "effectiveGasPrice": "0x4c4d5",
      "from": "0xa6b3d200cd34ca14d7579dac8b054bf50a62c37c",
      "to": "0x2da53f86929eca8e4c26791c2ac69a0845454c3e",
      "contractAddress": null,
      "l1BaseFeeScalar": "0x44d",
      "l1BlobBaseFee": "0x1",
      "l1BlobBaseFeeScalar": "0xa118b",
      "l1Fee": "0xb59b",
      "l1GasPrice": "0x66f2",
      "l1GasUsed": "0x640"
    }
  ],
  "libraries": [],
  "pending": [],
  "returns": {},
  "timestamp": 1750126071,
  "chain": 84532,
  "commit": "e3173ca"
}