{
  "transactions": [
    {
      "hash": "0x2418c95eb6f746549032d1c0de324ffa948923daad47bc2bb1d8fb9b549ed50e",
      "transactionType": "CALL",
      "contractName": null,
      "contractAddress": "0xc5d50445539b0dae389698ddc7fec66f89beb48e",
      "function": "setMockTokens(address,address,address)",
      "arguments": [
        "0x7577d75868B55A4F71c50a19da3279dADd5B8EBa",
        "0xf514B7b3b56113C8F7ad00aA51ddeDe660CC72A0",
        "0x2AB39e8693CAc3d93FCe40877fbDAB3610C2376C"
      ],
      "transaction": {
        "from": "0xa6b3d200cd34ca14d7579dac8b054bf50a62c37c",
        "to": "0xc5d50445539b0dae389698ddc7fec66f89beb48e",
        "gas": "0x15ca80",
        "value": "0x0",
        "input": "0x6392b99c0000000000000000000000007577d75868b55a4f71c50a19da3279dadd5b8eba000000000000000000000000f514b7b3b56113c8f7ad00aa51ddede660cc72a00000000000000000000000002ab39e8693cac3d93fce40877fbdab3610c2376c",
        "nonce": "0xafa",
        "chainId": "0x14a34"
      },
      "additionalContracts": [],
      "isFixedGasLimit": false
    },
    {
      "hash": "0x42eb34b55725c5a7fc49d594764062b726cb335b056054bad702089e6eaa8dfc",
      "transactionType": "CALL",
      "contractName": null,
      "contractAddress": "0xc5d50445539b0dae389698ddc7fec66f89beb48e",
      "function": "setChainlinkEnabled(bool)",
      "arguments": [
        "true"
      ],
      "transaction": {
        "from": "0xa6b3d200cd34ca14d7579dac8b054bf50a62c37c",
        "to": "0xc5d50445539b0dae389698ddc7fec66f89beb48e",
        "gas": "0xab4e",
        "value": "0x0",
        "input": "0x058f3bc80000000000000000000000000000000000000000000000000000000000000001",
        "nonce": "0xafb",
        "chainId": "0x14a34"
      },
      "additionalContracts": [],
      "isFixedGasLimit": false
    }
  ],
  "receipts": [
    {
      "status": "0x1",
      "cumulativeGasUsed": "0x4c552f",
      "logs": [
        {
          "address": "0xc5d50445539b0dae389698ddc7fec66f89beb48e",
          "topics": [
            "0xa4a204fa26714a90a8cea4be2a38ce6d1bf79dcebc5d05bc7d24d0e18bf09cb2",
            "0x0000000000000000000000007577d75868b55a4f71c50a19da3279dadd5b8eba",
            "0x0000000000000000000000002ab39e8693cac3d93fce40877fbdab3610c2376c"
          ],
          "data": "0x000000000000000000000000000000000000000000000000000000009502f9000000000000000000000000000000000000000000000000000000000000000002",
          "blockHash": "0x58891661fd79ca82a7fbf2fa627603c048b826183eec1e44358463d0e0d67596",
          "blockNumber": "0x19e9634",
          "transactionHash": "0x2418c95eb6f746549032d1c0de324ffa948923daad47bc2bb1d8fb9b549ed50e",
          "transactionIndex": "0xf",
          "logIndex": "0x80",
          "removed": false
        },
        {
          "address": "0xc5d50445539b0dae389698ddc7fec66f89beb48e",
          "topics": [
            "0xa4a204fa26714a90a8cea4be2a38ce6d1bf79dcebc5d05bc7d24d0e18bf09cb2",
            "0x000000000000000000000000f514b7b3b56113c8f7ad00aa51ddede660cc72a0",
            "0x0000000000000000000000002ab39e8693cac3d93fce40877fbdab3610c2376c"
          ],
          "data": "0x000000000000000000000000000000000000000000000000000000161e70f6000000000000000000000000000000000000000000000000000000000000000002",
          "blockHash": "0x58891661fd79ca82a7fbf2fa627603c048b826183eec1e44358463d0e0d67596",
          "blockNumber": "0x19e9634",
          "transactionHash": "0x2418c95eb6f746549032d1c0de324ffa948923daad47bc2bb1d8fb9b549ed50e",
          "transactionIndex": "0xf",
          "logIndex": "0x81",
          "removed": false
        },
        {
          "address": "0xc5d50445539b0dae389698ddc7fec66f89beb48e",
          "topics": [
            "0xa4a204fa26714a90a8cea4be2a38ce6d1bf79dcebc5d05bc7d24d0e18bf09cb2",
            "0x0000000000000000000000002ab39e8693cac3d93fce40877fbdab3610c2376c",
            "0x0000000000000000000000002ab39e8693cac3d93fce40877fbdab3610c2376c"
          ],
          "data": "0x00000000000000000000000000000000000000000000000000000000000f42400000000000000000000000000000000000000000000000000000000000000002",
          "blockHash": "0x58891661fd79ca82a7fbf2fa627603c048b826183eec1e44358463d0e0d67596",
          "blockNumber": "0x19e9634",
          "transactionHash": "0x2418c95eb6f746549032d1c0de324ffa948923daad47bc2bb1d8fb9b549ed50e",
          "transactionIndex": "0xf",
          "logIndex": "0x82",
          "removed": false
        },
        {
          "address": "0xc5d50445539b0dae389698ddc7fec66f89beb48e",
          "topics": [
            "0xa4a204fa26714a90a8cea4be2a38ce6d1bf79dcebc5d05bc7d24d0e18bf09cb2",
            "0x0000000000000000000000002ab39e8693cac3d93fce40877fbdab3610c2376c",
            "0x0000000000000000000000007577d75868b55a4f71c50a19da3279dadd5b8eba"
          ],
          "data": "0x00000000000000000000000000000000000000000000000000000000000001900000000000000000000000000000000000000000000000000000000000000002",
          "blockHash": "0x58891661fd79ca82a7fbf2fa627603c048b826183eec1e44358463d0e0d67596",
          "blockNumber": "0x19e9634",
          "transactionHash": "0x2418c95eb6f746549032d1c0de324ffa948923daad47bc2bb1d8fb9b549ed50e",
          "transactionIndex": "0xf",
          "logIndex": "0x83",
          "removed": false
        },
        {
          "address": "0xc5d50445539b0dae389698ddc7fec66f89beb48e",
          "topics": [
            "0xa4a204fa26714a90a8cea4be2a38ce6d1bf79dcebc5d05bc7d24d0e18bf09cb2",
            "0x0000000000000000000000002ab39e8693cac3d93fce40877fbdab3610c2376c",
            "0x000000000000000000000000f514b7b3b56113c8f7ad00aa51ddede660cc72a0"
          ],
          "data": "0x00000000000000000000000000000000000000000000000000000000000000160000000000000000000000000000000000000000000000000000000000000002",
          "blockHash": "0x58891661fd79ca82a7fbf2fa627603c048b826183eec1e44358463d0e0d67596",
          "blockNumber": "0x19e9634",
          "transactionHash": "0x2418c95eb6f746549032d1c0de324ffa948923daad47bc2bb1d8fb9b549ed50e",
          "transactionIndex": "0xf",
          "logIndex": "0x84",
          "removed": false
        },
        {
          "address": "0xc5d50445539b0dae389698ddc7fec66f89beb48e",
          "topics": [
            "0xa4a204fa26714a90a8cea4be2a38ce6d1bf79dcebc5d05bc7d24d0e18bf09cb2",
            "0x0000000000000000000000007577d75868b55a4f71c50a19da3279dadd5b8eba",
            "0x000000000000000000000000f514b7b3b56113c8f7ad00aa51ddede660cc72a0"
          ],
          "data": "0x000000000000000000000000000000000000000000000000000000000000d9040000000000000000000000000000000000000000000000000000000000000002",
          "blockHash": "0x58891661fd79ca82a7fbf2fa627603c048b826183eec1e44358463d0e0d67596",
          "blockNumber": "0x19e9634",
          "transactionHash": "0x2418c95eb6f746549032d1c0de324ffa948923daad47bc2bb1d8fb9b549ed50e",
          "transactionIndex": "0xf",
          "logIndex": "0x85",
          "removed": false
        },
        {
          "address": "0xc5d50445539b0dae389698ddc7fec66f89beb48e",
          "topics": [
            "0xa4a204fa26714a90a8cea4be2a38ce6d1bf79dcebc5d05bc7d24d0e18bf09cb2",
            "0x000000000000000000000000f514b7b3b56113c8f7ad00aa51ddede660cc72a0",
            "0x0000000000000000000000007577d75868b55a4f71c50a19da3279dadd5b8eba"
          ],
          "data": "0x000000000000000000000000000000000000000000000000000000000112a8800000000000000000000000000000000000000000000000000000000000000002",
          "blockHash": "0x58891661fd79ca82a7fbf2fa627603c048b826183eec1e44358463d0e0d67596",
          "blockNumber": "0x19e9634",
          "transactionHash": "0x2418c95eb6f746549032d1c0de324ffa948923daad47bc2bb1d8fb9b549ed50e",
          "transactionIndex": "0xf",
          "logIndex": "0x86",
          "removed": false
        }
      ],
      "logsBloom": "0x00000000400000000004000000000000000000000000000000000000000000000048000000800000000000000000000000000000000000000020020000000000000000000000000000000400000000000000000000000000000000000000000000000000000000000000000000000000000000000000000000000000000000000000000000000002008000000000000000000000000000000000000000000000800000000400000000000000000000000000000000000000000000000000000000000000000000000400000000001000000000000000000000000000000000000000000000000000000004000000000000000000000000000000000000000000",
      "type": "0x2",
      "transactionHash": "0x2418c95eb6f746549032d1c0de324ffa948923daad47bc2bb1d8fb9b549ed50e",
      "transactionIndex": "0xf",
      "blockHash": "0x58891661fd79ca82a7fbf2fa627603c048b826183eec1e44358463d0e0d67596",
      "blockNumber": "0x19e9634",
      "gasUsed": "0xfc6bd",
      "effectiveGasPrice": "0x62e6",
      "from": "0xa6b3d200cd34ca14d7579dac8b054bf50a62c37c",
      "to": "0xc5d50445539b0dae389698ddc7fec66f89beb48e",
      "contractAddress": null,
      "l1BaseFeeScalar": "0x44d",
      "l1BlobBaseFee": "0x1",
      "l1BlobBaseFeeScalar": "0xa118b",
      "l1Fee": "0x6821a",
      "l1GasPrice": "0x30b20",
      "l1GasUsed": "0x795"
    },
    {
      "status": "0x1",
      "cumulativeGasUsed": "0x4cca51",
      "logs": [
        {
          "address": "0xc5d50445539b0dae389698ddc7fec66f89beb48e",
          "topics": [
            "0x51896a423f4772bc4f6298b69c1f10c8330af973be38b7cacc105b5fc4ba035d"
          ],
          "data": "0x0000000000000000000000000000000000000000000000000000000000000001",
          "blockHash": "0x58891661fd79ca82a7fbf2fa627603c048b826183eec1e44358463d0e0d67596",
          "blockNumber": "0x19e9634",
          "transactionHash": "0x42eb34b55725c5a7fc49d594764062b726cb335b056054bad702089e6eaa8dfc",
          "transactionIndex": "0x10",
          "logIndex": "0x87",
          "removed": false
        }
      ],
      "logsBloom": "0x00000000000000000000000000000000000000000000000000000000000000000040000000800000000000000000000000000000000000000000000000000000000000000000000000000000000000000000000000000000000000000000000000000000000200000000000000000000000000000000000000000000000000000000000000000002000080000000200000000000000000000000000000000000000000000000000000000000000000000000000000000000000000000000000000000000000000000000000000000000000000000000000000000000000000000000000000000000000000000000000000000000000000000000000000000000",
      "type": "0x2",
      "transactionHash": "0x42eb34b55725c5a7fc49d594764062b726cb335b056054bad702089e6eaa8dfc",
      "transactionIndex": "0x10",
      "blockHash": "0x58891661fd79ca82a7fbf2fa627603c048b826183eec1e44358463d0e0d67596",
      "blockNumber": "0x19e9634",
      "gasUsed": "0x7522",
      "effectiveGasPrice": "0x62e6",
      "from": "0xa6b3d200cd34ca14d7579dac8b054bf50a62c37c",
      "to": "0xc5d50445539b0dae389698ddc7fec66f89beb48e",
      "contractAddress": null,
      "l1BaseFeeScalar": "0x44d",
      "l1BlobBaseFee": "0x1",
      "l1BlobBaseFeeScalar": "0xa118b",
      "l1Fee": "0x55cc3",
      "l1GasPrice": "0x30b20",
      "l1GasUsed": "0x640"
    }
  ],
  "libraries": [],
  "pending": [],
  "returns": {},
  "timestamp": 1750109001,
  "chain": 84532,
  "commit": "22b5654"
}