{
  "transactions": [
    {
      "hash": "0xcab2c6f15f3bb6056afdbc828d6c4a85389a9e37f4ebe68a05ff3da955323f21",
      "transactionType": "CALL",
      "contractName": null,
      "contractAddress": "0x70778a46054c5fd32795706d92ede96134f7fceb",
      "function": "setMockTokens(address,address,address)",
      "arguments": [
        "0x08787e134008d98F144d6B0ebf73961827D1B44d",
        "0x7f41b196839B4c001d638850A4573A1A8e820c4f",
        "0xE12a783F7ceE6A9031d4f767AC91D5Df31a0EAF1"
      ],
      "transaction": {
        "from": "0xa6b3d200cd34ca14d7579dac8b054bf50a62c37c",
        "to": "0x70778a46054c5fd32795706d92ede96134f7fceb",
        "gas": "0x3ea1a",
        "value": "0x0",
        "input": "0x6392b99c00000000000000000000000008787e134008d98f144d6b0ebf73961827d1b44d0000000000000000000000007f41b196839b4c001d638850a4573a1a8e820c4f000000000000000000000000e12a783f7cee6a9031d4f767ac91d5df31a0eaf1",
        "nonce": "0xe8b",
        "chainId": "0x14a34"
      },
      "additionalContracts": [],
      "isFixedGasLimit": false
    },
    {
      "hash": "0x9c1fc1662aa9d4041d11580f63dfc26fa6549f258075d328ccaba40fbe03c1c9",
      "transactionType": "CALL",
      "contractName": null,
      "contractAddress": "0x70778a46054c5fd32795706d92ede96134f7fceb",
      "function": "setChainlinkEnabled(bool)",
      "arguments": [
        "true"
      ],
      "transaction": {
        "from": "0xa6b3d200cd34ca14d7579dac8b054bf50a62c37c",
        "to": "0x70778a46054c5fd32795706d92ede96134f7fceb",
        "gas": "0xab64",
        "value": "0x0",
        "input": "0x058f3bc80000000000000000000000000000000000000000000000000000000000000001",
        "nonce": "0xe8c",
        "chainId": "0x14a34"
      },
      "additionalContracts": [],
      "isFixedGasLimit": false
    }
  ],
  "receipts": [
    {
      "status": "0x1",
      "cumulativeGasUsed": "0x830c48",
      "logs": [
        {
          "address": "0x70778a46054c5fd32795706d92ede96134f7fceb",
          "topics": [
            "0xa4a204fa26714a90a8cea4be2a38ce6d1bf79dcebc5d05bc7d24d0e18bf09cb2",
            "0x00000000000000000000000008787e134008d98f144d6b0ebf73961827d1b44d",
            "0x000000000000000000000000e12a783f7cee6a9031d4f767ac91d5df31a0eaf1"
          ],
          "data": "0x000000000000000000000000000000000000000000000000000000009502f9000000000000000000000000000000000000000000000000000000000000000002",
          "blockHash": "0x2d6b328bed33d8094466f292c5c945c7c7c7e0a5792213e989b790781a03c030",
          "blockNumber": "0x19f6d5c",
          "transactionHash": "0xcab2c6f15f3bb6056afdbc828d6c4a85389a9e37f4ebe68a05ff3da955323f21",
          "transactionIndex": "0x15",
          "logIndex": "0x9a",
          "removed": false
        },
        {
          "address": "0x70778a46054c5fd32795706d92ede96134f7fceb",
          "topics": [
            "0xa4a204fa26714a90a8cea4be2a38ce6d1bf79dcebc5d05bc7d24d0e18bf09cb2",
            "0x0000000000000000000000007f41b196839b4c001d638850a4573a1a8e820c4f",
            "0x000000000000000000000000e12a783f7cee6a9031d4f767ac91d5df31a0eaf1"
          ],
          "data": "0x000000000000000000000000000000000000000000000000000000161e70f6000000000000000000000000000000000000000000000000000000000000000002",
          "blockHash": "0x2d6b328bed33d8094466f292c5c945c7c7c7e0a5792213e989b790781a03c030",
          "blockNumber": "0x19f6d5c",
          "transactionHash": "0xcab2c6f15f3bb6056afdbc828d6c4a85389a9e37f4ebe68a05ff3da955323f21",
          "transactionIndex": "0x15",
          "logIndex": "0x9b",
          "removed": false
        },
        {
          "address": "0x70778a46054c5fd32795706d92ede96134f7fceb",
          "topics": [
            "0xa4a204fa26714a90a8cea4be2a38ce6d1bf79dcebc5d05bc7d24d0e18bf09cb2",
            "0x000000000000000000000000e12a783f7cee6a9031d4f767ac91d5df31a0eaf1",
            "0x000000000000000000000000e12a783f7cee6a9031d4f767ac91d5df31a0eaf1"
          ],
          "data": "0x00000000000000000000000000000000000000000000000000000000000f42400000000000000000000000000000000000000000000000000000000000000002",
          "blockHash": "0x2d6b328bed33d8094466f292c5c945c7c7c7e0a5792213e989b790781a03c030",
          "blockNumber": "0x19f6d5c",
          "transactionHash": "0xcab2c6f15f3bb6056afdbc828d6c4a85389a9e37f4ebe68a05ff3da955323f21",
          "transactionIndex": "0x15",
          "logIndex": "0x9c",
          "removed": false
        },
        {
          "address": "0x70778a46054c5fd32795706d92ede96134f7fceb",
          "topics": [
            "0xa4a204fa26714a90a8cea4be2a38ce6d1bf79dcebc5d05bc7d24d0e18bf09cb2",
            "0x000000000000000000000000e12a783f7cee6a9031d4f767ac91d5df31a0eaf1",
            "0x00000000000000000000000008787e134008d98f144d6b0ebf73961827d1b44d"
          ],
          "data": "0x00000000000000000000000000000000000000000000000000000000000001900000000000000000000000000000000000000000000000000000000000000002",
          "blockHash": "0x2d6b328bed33d8094466f292c5c945c7c7c7e0a5792213e989b790781a03c030",
          "blockNumber": "0x19f6d5c",
          "transactionHash": "0xcab2c6f15f3bb6056afdbc828d6c4a85389a9e37f4ebe68a05ff3da955323f21",
          "transactionIndex": "0x15",
          "logIndex": "0x9d",
          "removed": false
        },
        {
          "address": "0x70778a46054c5fd32795706d92ede96134f7fceb",
          "topics": [
            "0xa4a204fa26714a90a8cea4be2a38ce6d1bf79dcebc5d05bc7d24d0e18bf09cb2",
            "0x000000000000000000000000e12a783f7cee6a9031d4f767ac91d5df31a0eaf1",
            "0x0000000000000000000000007f41b196839b4c001d638850a4573a1a8e820c4f"
          ],
          "data": "0x00000000000000000000000000000000000000000000000000000000000000160000000000000000000000000000000000000000000000000000000000000002",
          "blockHash": "0x2d6b328bed33d8094466f292c5c945c7c7c7e0a5792213e989b790781a03c030",
          "blockNumber": "0x19f6d5c",
          "transactionHash": "0xcab2c6f15f3bb6056afdbc828d6c4a85389a9e37f4ebe68a05ff3da955323f21",
          "transactionIndex": "0x15",
          "logIndex": "0x9e",
          "removed": false
        },
        {
          "address": "0x70778a46054c5fd32795706d92ede96134f7fceb",
          "topics": [
            "0xa4a204fa26714a90a8cea4be2a38ce6d1bf79dcebc5d05bc7d24d0e18bf09cb2",
            "0x00000000000000000000000008787e134008d98f144d6b0ebf73961827d1b44d",
            "0x0000000000000000000000007f41b196839b4c001d638850a4573a1a8e820c4f"
          ],
          "data": "0x000000000000000000000000000000000000000000000000000000000000d9040000000000000000000000000000000000000000000000000000000000000002",
          "blockHash": "0x2d6b328bed33d8094466f292c5c945c7c7c7e0a5792213e989b790781a03c030",
          "blockNumber": "0x19f6d5c",
          "transactionHash": "0xcab2c6f15f3bb6056afdbc828d6c4a85389a9e37f4ebe68a05ff3da955323f21",
          "transactionIndex": "0x15",
          "logIndex": "0x9f",
          "removed": false
        },
        {
          "address": "0x70778a46054c5fd32795706d92ede96134f7fceb",
          "topics": [
            "0xa4a204fa26714a90a8cea4be2a38ce6d1bf79dcebc5d05bc7d24d0e18bf09cb2",
            "0x0000000000000000000000007f41b196839b4c001d638850a4573a1a8e820c4f",
            "0x00000000000000000000000008787e134008d98f144d6b0ebf73961827d1b44d"
          ],
          "data": "0x000000000000000000000000000000000000000000000000000000000112a8800000000000000000000000000000000000000000000000000000000000000002",
          "blockHash": "0x2d6b328bed33d8094466f292c5c945c7c7c7e0a5792213e989b790781a03c030",
          "blockNumber": "0x19f6d5c",
          "transactionHash": "0xcab2c6f15f3bb6056afdbc828d6c4a85389a9e37f4ebe68a05ff3da955323f21",
          "transactionIndex": "0x15",
          "logIndex": "0xa0",
          "removed": false
        }
      ],
      "logsBloom": "0x00000000000000000000000000000000000000000000000000000000000000000000000000000000000000000000000000000000000000000020000000000000000000000000000000000400000000000000000004000000000000000000000000000800000000002000000008000000000000000000000000000000000000000000000000000000000000000000000000004000000000000020000000000000000010000000000000000000000000000000000000000008000000080000000000000000000000000400000000001000000000000000000000000800000400000000000000000000000000000000000000000000000000000000000000000000",
      "type": "0x2",
      "transactionHash": "0xcab2c6f15f3bb6056afdbc828d6c4a85389a9e37f4ebe68a05ff3da955323f21",
      "transactionIndex": "0x15",
      "blockHash": "0x2d6b328bed33d8094466f292c5c945c7c7c7e0a5792213e989b790781a03c030",
      "blockNumber": "0x19f6d5c",
      "gasUsed": "0x2ad33",
      "effectiveGasPrice": "0x3d2ad",
      "from": "0xa6b3d200cd34ca14d7579dac8b054bf50a62c37c",
      "to": "0x70778a46054c5fd32795706d92ede96134f7fceb",
      "contractAddress": null,
      "l1BaseFeeScalar": "0x44d",
      "l1BlobBaseFee": "0x1",
      "l1BlobBaseFeeScalar": "0xa118b",
      "l1Fee": "0x5f479",
      "l1GasPrice": "0x2bf30",
      "l1GasUsed": "0x7b0"
    },
    {
      "status": "0x1",
      "cumulativeGasUsed": "0x838179",
      "logs": [
        {
          "address": "0x70778a46054c5fd32795706d92ede96134f7fceb",
          "topics": [
            "0x51896a423f4772bc4f6298b69c1f10c8330af973be38b7cacc105b5fc4ba035d"
          ],
          "data": "0x0000000000000000000000000000000000000000000000000000000000000001",
          "blockHash": "0x2d6b328bed33d8094466f292c5c945c7c7c7e0a5792213e989b790781a03c030",
          "blockNumber": "0x19f6d5c",
          "transactionHash": "0x9c1fc1662aa9d4041d11580f63dfc26fa6549f258075d328ccaba40fbe03c1c9",
          "transactionIndex": "0x16",
          "logIndex": "0xa1",
          "removed": false
        }
      ],
      "logsBloom": "0x00000000000000000000000000000000000000000000000000000000000000000000000000000000000000000000000000000000000000000000000000000000000000000000000000000000000000000000000000000000000000000000000000000000000200000000000000000000000000000000000000000000000000000000000000000000000080000000200000000000000000000020000000000000000000000000000000000000000000000000000000000008000000000000000000000000000000000000000000000000000000000000000000000800000000000000000000000000000000000000000000000000000000000000000000000000",
      "type": "0x2",
      "transactionHash": "0x9c1fc1662aa9d4041d11580f63dfc26fa6549f258075d328ccaba40fbe03c1c9",
      "transactionIndex": "0x16",
      "blockHash": "0x2d6b328bed33d8094466f292c5c945c7c7c7e0a5792213e989b790781a03c030",
      "blockNumber": "0x19f6d5c",
      "gasUsed": "0x7531",
      "effectiveGasPrice": "0x3d2ad",
      "from": "0xa6b3d200cd34ca14d7579dac8b054bf50a62c37c",
      "to": "0x70778a46054c5fd32795706d92ede96134f7fceb",
      "contractAddress": null,
      "l1BaseFeeScalar": "0x44d",
      "l1BlobBaseFee": "0x1",
      "l1BlobBaseFeeScalar": "0xa118b",
      "l1Fee": "0x4d6fe",
      "l1GasPrice": "0x2bf30",
      "l1GasUsed": "0x640"
    }
  ],
  "libraries": [],
  "pending": [],
  "returns": {},
  "timestamp": 1750219161,
  "chain": 84532,
  "commit": "4fea70f"
}