{
  "transactions": [
    {
      "hash": "0x666b9beb48d1b63691b77a8716b59bb5856ed2cea3d351feb844d3afe3894790",
      "transactionType": "CALL",
      "contractName": null,
      "contractAddress": "0xfc68a9b57995c54e6be68aed23682a666a5d986e",
      "function": "setMockTokens(address,address,address)",
      "arguments": [
        "0xeEC4E451A4273A6b2480d3410D7b347ff8f0cbf5",
        "0x689d78aD02F49d03087D990c94e6313681dc79D7",
        "0x16618AFA2B80D33163811f0C6716AC7DC39529aC"
      ],
      "transaction": {
        "from": "0xa6b3d200cd34ca14d7579dac8b054bf50a62c37c",
        "to": "0xfc68a9b57995c54e6be68aed23682a666a5d986e",
        "gas": "0x3b27d",
        "value": "0x0",
        "input": "0x6392b99c000000000000000000000000eec4e451a4273a6b2480d3410d7b347ff8f0cbf5000000000000000000000000689d78ad02f49d03087d990c94e6313681dc79d700000000000000000000000016618afa2b80d33163811f0c6716ac7dc39529ac",
        "nonce": "0xf32",
        "chainId": "0x14a34"
      },
      "additionalContracts": [],
      "isFixedGasLimit": false
    },
    {
      "hash": "0xab72fd54d090fe8bebe80811c8593ef6f60dc454a1e1c7435060648e535c1181",
      "transactionType": "CALL",
      "contractName": null,
      "contractAddress": "0xfc68a9b57995c54e6be68aed23682a666a5d986e",
      "function": "setChainlinkEnabled(bool)",
      "arguments": [
        "true"
      ],
      "transaction": {
        "from": "0xa6b3d200cd34ca14d7579dac8b054bf50a62c37c",
        "to": "0xfc68a9b57995c54e6be68aed23682a666a5d986e",
        "gas": "0xab64",
        "value": "0x0",
        "input": "0x058f3bc80000000000000000000000000000000000000000000000000000000000000001",
        "nonce": "0xf33",
        "chainId": "0x14a34"
      },
      "additionalContracts": [],
      "isFixedGasLimit": false
    }
  ],
  "receipts": [
    {
      "status": "0x1",
      "cumulativeGasUsed": "0x15959e",
      "logs": [
        {
          "address": "0xfc68a9b57995c54e6be68aed23682a666a5d986e",
          "topics": [
            "0xa4a204fa26714a90a8cea4be2a38ce6d1bf79dcebc5d05bc7d24d0e18bf09cb2",
            "0x000000000000000000000000eec4e451a4273a6b2480d3410d7b347ff8f0cbf5",
            "0x00000000000000000000000016618afa2b80d33163811f0c6716ac7dc39529ac"
          ],
          "data": "0x000000000000000000000000000000000000000000000000000000009502f9000000000000000000000000000000000000000000000000000000000000000002",
          "blockHash": "0x27f1cb87321f645001da307304e9fd9e522b9e5637b0c5016d11bf08ca2fc97b",
          "blockNumber": "0x19fc554",
          "transactionHash": "0x666b9beb48d1b63691b77a8716b59bb5856ed2cea3d351feb844d3afe3894790",
          "transactionIndex": "0xd",
          "logIndex": "0x1d",
          "removed": false
        },
        {
          "address": "0xfc68a9b57995c54e6be68aed23682a666a5d986e",
          "topics": [
            "0xa4a204fa26714a90a8cea4be2a38ce6d1bf79dcebc5d05bc7d24d0e18bf09cb2",
            "0x000000000000000000000000689d78ad02f49d03087d990c94e6313681dc79d7",
            "0x00000000000000000000000016618afa2b80d33163811f0c6716ac7dc39529ac"
          ],
          "data": "0x000000000000000000000000000000000000000000000000000000161e70f6000000000000000000000000000000000000000000000000000000000000000002",
          "blockHash": "0x27f1cb87321f645001da307304e9fd9e522b9e5637b0c5016d11bf08ca2fc97b",
          "blockNumber": "0x19fc554",
          "transactionHash": "0x666b9beb48d1b63691b77a8716b59bb5856ed2cea3d351feb844d3afe3894790",
          "transactionIndex": "0xd",
          "logIndex": "0x1e",
          "removed": false
        },
        {
          "address": "0xfc68a9b57995c54e6be68aed23682a666a5d986e",
          "topics": [
            "0xa4a204fa26714a90a8cea4be2a38ce6d1bf79dcebc5d05bc7d24d0e18bf09cb2",
            "0x00000000000000000000000016618afa2b80d33163811f0c6716ac7dc39529ac",
            "0x00000000000000000000000016618afa2b80d33163811f0c6716ac7dc39529ac"
          ],
          "data": "0x00000000000000000000000000000000000000000000000000000000000f42400000000000000000000000000000000000000000000000000000000000000002",
          "blockHash": "0x27f1cb87321f645001da307304e9fd9e522b9e5637b0c5016d11bf08ca2fc97b",
          "blockNumber": "0x19fc554",
          "transactionHash": "0x666b9beb48d1b63691b77a8716b59bb5856ed2cea3d351feb844d3afe3894790",
          "transactionIndex": "0xd",
          "logIndex": "0x1f",
          "removed": false
        },
        {
          "address": "0xfc68a9b57995c54e6be68aed23682a666a5d986e",
          "topics": [
            "0xa4a204fa26714a90a8cea4be2a38ce6d1bf79dcebc5d05bc7d24d0e18bf09cb2",
            "0x00000000000000000000000016618afa2b80d33163811f0c6716ac7dc39529ac",
            "0x000000000000000000000000eec4e451a4273a6b2480d3410d7b347ff8f0cbf5"
          ],
          "data": "0x00000000000000000000000000000000000000000000000000000000000001900000000000000000000000000000000000000000000000000000000000000002",
          "blockHash": "0x27f1cb87321f645001da307304e9fd9e522b9e5637b0c5016d11bf08ca2fc97b",
          "blockNumber": "0x19fc554",
          "transactionHash": "0x666b9beb48d1b63691b77a8716b59bb5856ed2cea3d351feb844d3afe3894790",
          "transactionIndex": "0xd",
          "logIndex": "0x20",
          "removed": false
        },
        {
          "address": "0xfc68a9b57995c54e6be68aed23682a666a5d986e",
          "topics": [
            "0xa4a204fa26714a90a8cea4be2a38ce6d1bf79dcebc5d05bc7d24d0e18bf09cb2",
            "0x00000000000000000000000016618afa2b80d33163811f0c6716ac7dc39529ac",
            "0x000000000000000000000000689d78ad02f49d03087d990c94e6313681dc79d7"
          ],
          "data": "0x00000000000000000000000000000000000000000000000000000000000000160000000000000000000000000000000000000000000000000000000000000002",
          "blockHash": "0x27f1cb87321f645001da307304e9fd9e522b9e5637b0c5016d11bf08ca2fc97b",
          "blockNumber": "0x19fc554",
          "transactionHash": "0x666b9beb48d1b63691b77a8716b59bb5856ed2cea3d351feb844d3afe3894790",
          "transactionIndex": "0xd",
          "logIndex": "0x21",
          "removed": false
        },
        {
          "address": "0xfc68a9b57995c54e6be68aed23682a666a5d986e",
          "topics": [
            "0xa4a204fa26714a90a8cea4be2a38ce6d1bf79dcebc5d05bc7d24d0e18bf09cb2",
            "0x000000000000000000000000eec4e451a4273a6b2480d3410d7b347ff8f0cbf5",
            "0x000000000000000000000000689d78ad02f49d03087d990c94e6313681dc79d7"
          ],
          "data": "0x000000000000000000000000000000000000000000000000000000000000d9040000000000000000000000000000000000000000000000000000000000000002",
          "blockHash": "0x27f1cb87321f645001da307304e9fd9e522b9e5637b0c5016d11bf08ca2fc97b",
          "blockNumber": "0x19fc554",
          "transactionHash": "0x666b9beb48d1b63691b77a8716b59bb5856ed2cea3d351feb844d3afe3894790",
          "transactionIndex": "0xd",
          "logIndex": "0x22",
          "removed": false
        },
        {
          "address": "0xfc68a9b57995c54e6be68aed23682a666a5d986e",
          "topics": [
            "0xa4a204fa26714a90a8cea4be2a38ce6d1bf79dcebc5d05bc7d24d0e18bf09cb2",
            "0x000000000000000000000000689d78ad02f49d03087d990c94e6313681dc79d7",
            "0x000000000000000000000000eec4e451a4273a6b2480d3410d7b347ff8f0cbf5"
          ],
          "data": "0x000000000000000000000000000000000000000000000000000000000112a8800000000000000000000000000000000000000000000000000000000000000002",
          "blockHash": "0x27f1cb87321f645001da307304e9fd9e522b9e5637b0c5016d11bf08ca2fc97b",
          "blockNumber": "0x19fc554",
          "transactionHash": "0x666b9beb48d1b63691b77a8716b59bb5856ed2cea3d351feb844d3afe3894790",
          "transactionIndex": "0xd",
          "logIndex": "0x23",
          "removed": false
        }
      ],
      "logsBloom": "0x00000000000000000000000002000000000000000000000000000000000000000000000080000000000000000008000000000000000000000020000000000008000000000000000000000400000000000000000000000000000000000000000000000000000000000000000000000000000000000000100000000000000000000000000000000000000000000000000000002000000000000001000000000000000000000000000000000000000000000003000000000000000000000000000000000000000000000400040000000000000000000000000000000000000000000000010000000000000000000000000000000000004000000000000000000000",
      "type": "0x2",
      "transactionHash": "0x666b9beb48d1b63691b77a8716b59bb5856ed2cea3d351feb844d3afe3894790",
      "transactionIndex": "0xd",
      "blockHash": "0x27f1cb87321f645001da307304e9fd9e522b9e5637b0c5016d11bf08ca2fc97b",
      "blockNumber": "0x19fc554",
      "gasUsed": "0x2ad3f",
      "effectiveGasPrice": "0x787ec9",
      "from": "0xa6b3d200cd34ca14d7579dac8b054bf50a62c37c",
      "to": "0xfc68a9b57995c54e6be68aed23682a666a5d986e",
      "contractAddress": null,
      "l1BaseFeeScalar": "0x44d",
      "l1BlobBaseFee": "0x1",
      "l1BlobBaseFeeScalar": "0xa118b",
      "l1Fee": "0x66faa7",
      "l1GasPrice": "0x2f8292",
      "l1GasUsed": "0x7b0"
    },
    {
      "status": "0x1",
      "cumulativeGasUsed": "0x160acf",
      "logs": [
        {
          "address": "0xfc68a9b57995c54e6be68aed23682a666a5d986e",
          "topics": [
            "0x51896a423f4772bc4f6298b69c1f10c8330af973be38b7cacc105b5fc4ba035d"
          ],
          "data": "0x0000000000000000000000000000000000000000000000000000000000000001",
          "blockHash": "0x27f1cb87321f645001da307304e9fd9e522b9e5637b0c5016d11bf08ca2fc97b",
          "blockNumber": "0x19fc554",
          "transactionHash": "0xab72fd54d090fe8bebe80811c8593ef6f60dc454a1e1c7435060648e535c1181",
          "transactionIndex": "0xe",
          "logIndex": "0x24",
          "removed": false
        }
      ],
      "logsBloom": "0x00000000000000000000000002000000000000000000000000000000000000000000000000000000000000000000000000000000000000000000000000000000000000000000000000000000000000000000000000000000000000000000000000000000000200000000000000000000000000000000000000000000000000000000000000000000000080000000200000002000000000000000000000000000000000000000000000000000000000000000000000000000000000000000000000000000000000000000000000000000000000000000000000000000000000000000010000000000000000000000000000000000000000000000000000000000",
      "type": "0x2",
      "transactionHash": "0xab72fd54d090fe8bebe80811c8593ef6f60dc454a1e1c7435060648e535c1181",
      "transactionIndex": "0xe",
      "blockHash": "0x27f1cb87321f645001da307304e9fd9e522b9e5637b0c5016d11bf08ca2fc97b",
      "blockNumber": "0x19fc554",
      "gasUsed": "0x7531",
      "effectiveGasPrice": "0x787ec9",
      "from": "0xa6b3d200cd34ca14d7579dac8b054bf50a62c37c",
      "to": "0xfc68a9b57995c54e6be68aed23682a666a5d986e",
      "contractAddress": null,
      "l1BaseFeeScalar": "0x44d",
      "l1BlobBaseFee": "0x1",
      "l1BlobBaseFeeScalar": "0xa118b",
      "l1Fee": "0x53b1d7",
      "l1GasPrice": "0x2f8292",
      "l1GasUsed": "0x640"
    }
  ],
  "libraries": [],
  "pending": [],
  "returns": {},
  "timestamp": 1750264202,
  "chain": 84532,
  "commit": "51ec064"
}