{
  "transactions": [
    {
      "hash": "0xeb9d23fb1532e5d7ba40a4046d04c027364d7aee6ed611b10c7ef28f37361a56",
      "transactionType": "CALL",
      "contractName": null,
      "contractAddress": "0xae2d0e1eb373b1f58c2292c4ea1a943a24e98cf4",
      "function": "setMockTokens(address,address,address)",
      "arguments": [
        "0xa666d4Ca761423f2A0898487A9795892e4db8220",
        "0x4E24acaf524cFE2908C30b4D0E4D10263AbaD44E",
        "0xC0bFe06AF089F24aE7ae52b6dBed8B9bb86ABCda"
      ],
      "transaction": {
        "from": "0xa6b3d200cd34ca14d7579dac8b054bf50a62c37c",
        "to": "0xae2d0e1eb373b1f58c2292c4ea1a943a24e98cf4",
        "gas": "0x3e87e",
        "value": "0x0",
        "input": "0x6392b99c000000000000000000000000a666d4ca761423f2a0898487a9795892e4db82200000000000000000000000004e24acaf524cfe2908c30b4d0e4d10263abad44e000000000000000000000000c0bfe06af089f24ae7ae52b6dbed8b9bb86abcda",
        "nonce": "0xc2a",
        "chainId": "0x14a34"
      },
      "additionalContracts": [],
      "isFixedGasLimit": false
    },
    {
      "hash": "0xcae498fc5d15c9525982cdb1f32545bc460773cfde3db357c6df964a7b1b4d39",
      "transactionType": "CALL",
      "contractName": null,
      "contractAddress": "0xae2d0e1eb373b1f58c2292c4ea1a943a24e98cf4",
      "function": "setChainlinkEnabled(bool)",
      "arguments": [
        "true"
      ],
      "transaction": {
        "from": "0xa6b3d200cd34ca14d7579dac8b054bf50a62c37c",
        "to": "0xae2d0e1eb373b1f58c2292c4ea1a943a24e98cf4",
        "gas": "0xab4e",
        "value": "0x0",
        "input": "0x058f3bc80000000000000000000000000000000000000000000000000000000000000001",
        "nonce": "0xc2b",
        "chainId": "0x14a34"
      },
      "additionalContracts": [],
      "isFixedGasLimit": false
    }
  ],
  "receipts": [
    {
      "status": "0x1",
      "cumulativeGasUsed": "0x6b84dc",
      "logs": [
        {
          "address": "0xae2d0e1eb373b1f58c2292c4ea1a943a24e98cf4",
          "topics": [
            "0xa4a204fa26714a90a8cea4be2a38ce6d1bf79dcebc5d05bc7d24d0e18bf09cb2",
            "0x000000000000000000000000a666d4ca761423f2a0898487a9795892e4db8220",
            "0x000000000000000000000000c0bfe06af089f24ae7ae52b6dbed8b9bb86abcda"
          ],
          "data": "0x000000000000000000000000000000000000000000000000000000009502f9000000000000000000000000000000000000000000000000000000000000000002",
          "blockHash": "0x0d3e4ac6f5362410ebe570453e95e7909d13caeefbf586ad1fc0b8a5d374e389",
          "blockNumber": "0x19eb401",
          "transactionHash": "0xeb9d23fb1532e5d7ba40a4046d04c027364d7aee6ed611b10c7ef28f37361a56",
          "transactionIndex": "0xb",
          "logIndex": "0x85",
          "removed": false
        },
        {
          "address": "0xae2d0e1eb373b1f58c2292c4ea1a943a24e98cf4",
          "topics": [
            "0xa4a204fa26714a90a8cea4be2a38ce6d1bf79dcebc5d05bc7d24d0e18bf09cb2",
            "0x0000000000000000000000004e24acaf524cfe2908c30b4d0e4d10263abad44e",
            "0x000000000000000000000000c0bfe06af089f24ae7ae52b6dbed8b9bb86abcda"
          ],
          "data": "0x000000000000000000000000000000000000000000000000000000161e70f6000000000000000000000000000000000000000000000000000000000000000002",
          "blockHash": "0x0d3e4ac6f5362410ebe570453e95e7909d13caeefbf586ad1fc0b8a5d374e389",
          "blockNumber": "0x19eb401",
          "transactionHash": "0xeb9d23fb1532e5d7ba40a4046d04c027364d7aee6ed611b10c7ef28f37361a56",
          "transactionIndex": "0xb",
          "logIndex": "0x86",
          "removed": false
        },
        {
          "address": "0xae2d0e1eb373b1f58c2292c4ea1a943a24e98cf4",
          "topics": [
            "0xa4a204fa26714a90a8cea4be2a38ce6d1bf79dcebc5d05bc7d24d0e18bf09cb2",
            "0x000000000000000000000000c0bfe06af089f24ae7ae52b6dbed8b9bb86abcda",
            "0x000000000000000000000000c0bfe06af089f24ae7ae52b6dbed8b9bb86abcda"
          ],
          "data": "0x00000000000000000000000000000000000000000000000000000000000f42400000000000000000000000000000000000000000000000000000000000000002",
          "blockHash": "0x0d3e4ac6f5362410ebe570453e95e7909d13caeefbf586ad1fc0b8a5d374e389",
          "blockNumber": "0x19eb401",
          "transactionHash": "0xeb9d23fb1532e5d7ba40a4046d04c027364d7aee6ed611b10c7ef28f37361a56",
          "transactionIndex": "0xb",
          "logIndex": "0x87",
          "removed": false
        },
        {
          "address": "0xae2d0e1eb373b1f58c2292c4ea1a943a24e98cf4",
          "topics": [
            "0xa4a204fa26714a90a8cea4be2a38ce6d1bf79dcebc5d05bc7d24d0e18bf09cb2",
            "0x000000000000000000000000c0bfe06af089f24ae7ae52b6dbed8b9bb86abcda",
            "0x000000000000000000000000a666d4ca761423f2a0898487a9795892e4db8220"
          ],
          "data": "0x00000000000000000000000000000000000000000000000000000000000001900000000000000000000000000000000000000000000000000000000000000002",
          "blockHash": "0x0d3e4ac6f5362410ebe570453e95e7909d13caeefbf586ad1fc0b8a5d374e389",
          "blockNumber": "0x19eb401",
          "transactionHash": "0xeb9d23fb1532e5d7ba40a4046d04c027364d7aee6ed611b10c7ef28f37361a56",
          "transactionIndex": "0xb",
          "logIndex": "0x88",
          "removed": false
        },
        {
          "address": "0xae2d0e1eb373b1f58c2292c4ea1a943a24e98cf4",
          "topics": [
            "0xa4a204fa26714a90a8cea4be2a38ce6d1bf79dcebc5d05bc7d24d0e18bf09cb2",
            "0x000000000000000000000000c0bfe06af089f24ae7ae52b6dbed8b9bb86abcda",
            "0x0000000000000000000000004e24acaf524cfe2908c30b4d0e4d10263abad44e"
          ],
          "data": "0x00000000000000000000000000000000000000000000000000000000000000160000000000000000000000000000000000000000000000000000000000000002",
          "blockHash": "0x0d3e4ac6f5362410ebe570453e95e7909d13caeefbf586ad1fc0b8a5d374e389",
          "blockNumber": "0x19eb401",
          "transactionHash": "0xeb9d23fb1532e5d7ba40a4046d04c027364d7aee6ed611b10c7ef28f37361a56",
          "transactionIndex": "0xb",
          "logIndex": "0x89",
          "removed": false
        },
        {
          "address": "0xae2d0e1eb373b1f58c2292c4ea1a943a24e98cf4",
          "topics": [
            "0xa4a204fa26714a90a8cea4be2a38ce6d1bf79dcebc5d05bc7d24d0e18bf09cb2",
            "0x000000000000000000000000a666d4ca761423f2a0898487a9795892e4db8220",
            "0x0000000000000000000000004e24acaf524cfe2908c30b4d0e4d10263abad44e"
          ],
          "data": "0x000000000000000000000000000000000000000000000000000000000000d9040000000000000000000000000000000000000000000000000000000000000002",
          "blockHash": "0x0d3e4ac6f5362410ebe570453e95e7909d13caeefbf586ad1fc0b8a5d374e389",
          "blockNumber": "0x19eb401",
          "transactionHash": "0xeb9d23fb1532e5d7ba40a4046d04c027364d7aee6ed611b10c7ef28f37361a56",
          "transactionIndex": "0xb",
          "logIndex": "0x8a",
          "removed": false
        },
        {
          "address": "0xae2d0e1eb373b1f58c2292c4ea1a943a24e98cf4",
          "topics": [
            "0xa4a204fa26714a90a8cea4be2a38ce6d1bf79dcebc5d05bc7d24d0e18bf09cb2",
            "0x0000000000000000000000004e24acaf524cfe2908c30b4d0e4d10263abad44e",
            "0x000000000000000000000000a666d4ca761423f2a0898487a9795892e4db8220"
          ],
          "data": "0x000000000000000000000000000000000000000000000000000000000112a8800000000000000000000000000000000000000000000000000000000000000002",
          "blockHash": "0x0d3e4ac6f5362410ebe570453e95e7909d13caeefbf586ad1fc0b8a5d374e389",
          "blockNumber": "0x19eb401",
          "transactionHash": "0xeb9d23fb1532e5d7ba40a4046d04c027364d7aee6ed611b10c7ef28f37361a56",
          "transactionIndex": "0xb",
          "logIndex": "0x8b",
          "removed": false
        }
      ],
      "logsBloom": "0x00000000000000000000002000000000000000000000000000000000000000000000000000000000000000000000080000000000000000000020000000000000000000000000000000000401000000000000000000000000000000000001000000000000000000000000000000000000000000000000000000000000000000000000000000000000000000000000500000000000000000000000000000000000000000000000002000000004000000000000000000000000000000000000000000000000000000000400000000000000000000000000000000000040000000000000000001000000000000008000000000000400000000000000000000000000",
      "type": "0x2",
      "transactionHash": "0xeb9d23fb1532e5d7ba40a4046d04c027364d7aee6ed611b10c7ef28f37361a56",
      "transactionIndex": "0xb",
      "blockHash": "0x0d3e4ac6f5362410ebe570453e95e7909d13caeefbf586ad1fc0b8a5d374e389",
      "blockNumber": "0x19eb401",
      "gasUsed": "0x2ac19",
      "effectiveGasPrice": "0x393d0",
      "from": "0xa6b3d200cd34ca14d7579dac8b054bf50a62c37c",
      "to": "0xae2d0e1eb373b1f58c2292c4ea1a943a24e98cf4",
      "contractAddress": null,
      "l1BaseFeeScalar": "0x44d",
      "l1BlobBaseFee": "0x1",
      "l1BlobBaseFeeScalar": "0xa118b",
      "l1Fee": "0x2567e",
      "l1GasPrice": "0x113fa",
      "l1GasUsed": "0x7b0"
    },
    {
      "status": "0x1",
      "cumulativeGasUsed": "0x6bf9fe",
      "logs": [
        {
          "address": "0xae2d0e1eb373b1f58c2292c4ea1a943a24e98cf4",
          "topics": [
            "0x51896a423f4772bc4f6298b69c1f10c8330af973be38b7cacc105b5fc4ba035d"
          ],
          "data": "0x0000000000000000000000000000000000000000000000000000000000000001",
          "blockHash": "0x0d3e4ac6f5362410ebe570453e95e7909d13caeefbf586ad1fc0b8a5d374e389",
          "blockNumber": "0x19eb401",
          "transactionHash": "0xcae498fc5d15c9525982cdb1f32545bc460773cfde3db357c6df964a7b1b4d39",
          "transactionIndex": "0xc",
          "logIndex": "0x8c",
          "removed": false
        }
      ],
      "logsBloom": "0x00000000000000000000000000000000000000000000000000000000000000000000000000000000000000000000000000000000000000000000000000000000000000000000000000000000000000000000000000000000000000000000000000000000000200000000000000000000000000000000000000000000000000000000000000000000000080000000600000000000000000000000000000000000000000000000002000000000000000000000000000000000000000000000000000000000000000000000000000000000000000000000000000000040000000000000000000000000000000000000000000000000000000000000000000000000",
      "type": "0x2",
      "transactionHash": "0xcae498fc5d15c9525982cdb1f32545bc460773cfde3db357c6df964a7b1b4d39",
      "transactionIndex": "0xc",
      "blockHash": "0x0d3e4ac6f5362410ebe570453e95e7909d13caeefbf586ad1fc0b8a5d374e389",
      "blockNumber": "0x19eb401",
      "gasUsed": "0x7522",
      "effectiveGasPrice": "0x393d0",
      "from": "0xa6b3d200cd34ca14d7579dac8b054bf50a62c37c",
      "to": "0xae2d0e1eb373b1f58c2292c4ea1a943a24e98cf4",
      "contractAddress": null,
      "l1BaseFeeScalar": "0x44d",
      "l1BlobBaseFee": "0x1",
      "l1BlobBaseFeeScalar": "0xa118b",
      "l1Fee": "0x1e66b",
      "l1GasPrice": "0x113fa",
      "l1GasUsed": "0x640"
    }
  ],
  "libraries": [],
  "pending": [],
  "returns": {},
  "timestamp": 1750124260,
  "chain": 84532,
  "commit": "e3173ca"
}