{
  "transactions": [
    {
      "hash": "0x1132b8893b01e6cf24f2922e1011a54052a5a79377d3c858134b87f8b03b8c73",
      "transactionType": "CALL",
      "contractName": null,
      "contractAddress": "0x2f585ac53eea9b37f62da8279e010ba49980190f",
      "function": "setMockTokens(address,address,address)",
      "arguments": [
        "0xca09D6c5f9f5646A20b5EF71986EED5f8A86add0",
        "0x6C2AAf9cFb130d516401Ee769074F02fae6ACb91",
        "0xAdc9649EF0468d6C73B56Dc96fF6bb527B8251A0"
      ],
      "transaction": {
        "from": "0xa6b3d200cd34ca14d7579dac8b054bf50a62c37c",
        "to": "0x2f585ac53eea9b37f62da8279e010ba49980190f",
        "gas": "0x3b27d",
        "value": "0x0",
        "input": "0x6392b99c000000000000000000000000ca09d6c5f9f5646a20b5ef71986eed5f8a86add00000000000000000000000006c2aaf9cfb130d516401ee769074f02fae6acb91000000000000000000000000adc9649ef0468d6c73b56dc96ff6bb527b8251a0",
        "nonce": "0xcc1",
        "chainId": "0x14a34"
      },
      "additionalContracts": [],
      "isFixedGasLimit": false
    },
    {
      "hash": "0xb45d719c9ab2bc8758106399db75d5f8ee11f02843030a69bb8c88d1f5cec48c",
      "transactionType": "CALL",
      "contractName": null,
      "contractAddress": "0x2f585ac53eea9b37f62da8279e010ba49980190f",
      "function": "setChainlinkEnabled(bool)",
      "arguments": [
        "true"
      ],
      "transaction": {
        "from": "0xa6b3d200cd34ca14d7579dac8b054bf50a62c37c",
        "to": "0x2f585ac53eea9b37f62da8279e010ba49980190f",
        "gas": "0xab64",
        "value": "0x0",
        "input": "0x058f3bc80000000000000000000000000000000000000000000000000000000000000001",
        "nonce": "0xcc2",
        "chainId": "0x14a34"
      },
      "additionalContracts": [],
      "isFixedGasLimit": false
    }
  ],
  "receipts": [
    {
      "status": "0x1",
      "cumulativeGasUsed": "0x3aa8e0",
      "logs": [
        {
          "address": "0x2f585ac53eea9b37f62da8279e010ba49980190f",
          "topics": [
            "0xa4a204fa26714a90a8cea4be2a38ce6d1bf79dcebc5d05bc7d24d0e18bf09cb2",
            "0x000000000000000000000000ca09d6c5f9f5646a20b5ef71986eed5f8a86add0",
            "0x000000000000000000000000adc9649ef0468d6c73b56dc96ff6bb527b8251a0"
          ],
          "data": "0x000000000000000000000000000000000000000000000000000000009502f9000000000000000000000000000000000000000000000000000000000000000002",
          "blockHash": "0xd28a8d4185b87800efff1a3b755b2b38bbe1ae8b8f0d0bba6eb42e17ff14c6f5",
          "blockNumber": "0x19eb7b3",
          "transactionHash": "0x1132b8893b01e6cf24f2922e1011a54052a5a79377d3c858134b87f8b03b8c73",
          "transactionIndex": "0xe",
          "logIndex": "0xbc",
          "removed": false
        },
        {
          "address": "0x2f585ac53eea9b37f62da8279e010ba49980190f",
          "topics": [
            "0xa4a204fa26714a90a8cea4be2a38ce6d1bf79dcebc5d05bc7d24d0e18bf09cb2",
            "0x0000000000000000000000006c2aaf9cfb130d516401ee769074f02fae6acb91",
            "0x000000000000000000000000adc9649ef0468d6c73b56dc96ff6bb527b8251a0"
          ],
          "data": "0x000000000000000000000000000000000000000000000000000000161e70f6000000000000000000000000000000000000000000000000000000000000000002",
          "blockHash": "0xd28a8d4185b87800efff1a3b755b2b38bbe1ae8b8f0d0bba6eb42e17ff14c6f5",
          "blockNumber": "0x19eb7b3",
          "transactionHash": "0x1132b8893b01e6cf24f2922e1011a54052a5a79377d3c858134b87f8b03b8c73",
          "transactionIndex": "0xe",
          "logIndex": "0xbd",
          "removed": false
        },
        {
          "address": "0x2f585ac53eea9b37f62da8279e010ba49980190f",
          "topics": [
            "0xa4a204fa26714a90a8cea4be2a38ce6d1bf79dcebc5d05bc7d24d0e18bf09cb2",
            "0x000000000000000000000000adc9649ef0468d6c73b56dc96ff6bb527b8251a0",
            "0x000000000000000000000000adc9649ef0468d6c73b56dc96ff6bb527b8251a0"
          ],
          "data": "0x00000000000000000000000000000000000000000000000000000000000f42400000000000000000000000000000000000000000000000000000000000000002",
          "blockHash": "0xd28a8d4185b87800efff1a3b755b2b38bbe1ae8b8f0d0bba6eb42e17ff14c6f5",
          "blockNumber": "0x19eb7b3",
          "transactionHash": "0x1132b8893b01e6cf24f2922e1011a54052a5a79377d3c858134b87f8b03b8c73",
          "transactionIndex": "0xe",
          "logIndex": "0xbe",
          "removed": false
        },
        {
          "address": "0x2f585ac53eea9b37f62da8279e010ba49980190f",
          "topics": [
            "0xa4a204fa26714a90a8cea4be2a38ce6d1bf79dcebc5d05bc7d24d0e18bf09cb2",
            "0x000000000000000000000000adc9649ef0468d6c73b56dc96ff6bb527b8251a0",
            "0x000000000000000000000000ca09d6c5f9f5646a20b5ef71986eed5f8a86add0"
          ],
          "data": "0x00000000000000000000000000000000000000000000000000000000000001900000000000000000000000000000000000000000000000000000000000000002",
          "blockHash": "0xd28a8d4185b87800efff1a3b755b2b38bbe1ae8b8f0d0bba6eb42e17ff14c6f5",
          "blockNumber": "0x19eb7b3",
          "transactionHash": "0x1132b8893b01e6cf24f2922e1011a54052a5a79377d3c858134b87f8b03b8c73",
          "transactionIndex": "0xe",
          "logIndex": "0xbf",
          "removed": false
        },
        {
          "address": "0x2f585ac53eea9b37f62da8279e010ba49980190f",
          "topics": [
            "0xa4a204fa26714a90a8cea4be2a38ce6d1bf79dcebc5d05bc7d24d0e18bf09cb2",
            "0x000000000000000000000000adc9649ef0468d6c73b56dc96ff6bb527b8251a0",
            "0x0000000000000000000000006c2aaf9cfb130d516401ee769074f02fae6acb91"
          ],
          "data": "0x00000000000000000000000000000000000000000000000000000000000000160000000000000000000000000000000000000000000000000000000000000002",
          "blockHash": "0xd28a8d4185b87800efff1a3b755b2b38bbe1ae8b8f0d0bba6eb42e17ff14c6f5",
          "blockNumber": "0x19eb7b3",
          "transactionHash": "0x1132b8893b01e6cf24f2922e1011a54052a5a79377d3c858134b87f8b03b8c73",
          "transactionIndex": "0xe",
          "logIndex": "0xc0",
          "removed": false
        },
        {
          "address": "0x2f585ac53eea9b37f62da8279e010ba49980190f",
          "topics": [
            "0xa4a204fa26714a90a8cea4be2a38ce6d1bf79dcebc5d05bc7d24d0e18bf09cb2",
            "0x000000000000000000000000ca09d6c5f9f5646a20b5ef71986eed5f8a86add0",
            "0x0000000000000000000000006c2aaf9cfb130d516401ee769074f02fae6acb91"
          ],
          "data": "0x000000000000000000000000000000000000000000000000000000000000d9040000000000000000000000000000000000000000000000000000000000000002",
          "blockHash": "0xd28a8d4185b87800efff1a3b755b2b38bbe1ae8b8f0d0bba6eb42e17ff14c6f5",
          "blockNumber": "0x19eb7b3",
          "transactionHash": "0x1132b8893b01e6cf24f2922e1011a54052a5a79377d3c858134b87f8b03b8c73",
          "transactionIndex": "0xe",
          "logIndex": "0xc1",
          "removed": false
        },
        {
          "address": "0x2f585ac53eea9b37f62da8279e010ba49980190f",
          "topics": [
            "0xa4a204fa26714a90a8cea4be2a38ce6d1bf79dcebc5d05bc7d24d0e18bf09cb2",
            "0x0000000000000000000000006c2aaf9cfb130d516401ee769074f02fae6acb91",
            "0x000000000000000000000000ca09d6c5f9f5646a20b5ef71986eed5f8a86add0"
          ],
          "data": "0x000000000000000000000000000000000000000000000000000000000112a8800000000000000000000000000000000000000000000000000000000000000002",
          "blockHash": "0xd28a8d4185b87800efff1a3b755b2b38bbe1ae8b8f0d0bba6eb42e17ff14c6f5",
          "blockNumber": "0x19eb7b3",
          "transactionHash": "0x1132b8893b01e6cf24f2922e1011a54052a5a79377d3c858134b87f8b03b8c73",
          "transactionIndex": "0xe",
          "logIndex": "0xc2",
          "removed": false
        }
      ],
      "logsBloom": "0x00000000000000000000000000000000000000000000000000000000000000001000000000000000000000000000000000000000000000000020000000000000001000000000000000000400000000000000000000000000000000000000000000000000000000000000010000000000000010000000000000100000000000000000008041000000000000000000000000000000000000000000000000000000000000000000004000000000000000000000000000000000000000000000000000000000000000000400000000000000000000100000000000000000000080000000000800000000000000000000000000000000000000000000000000000000",
      "type": "0x2",
      "transactionHash": "0x1132b8893b01e6cf24f2922e1011a54052a5a79377d3c858134b87f8b03b8c73",
      "transactionIndex": "0xe",
      "blockHash": "0xd28a8d4185b87800efff1a3b755b2b38bbe1ae8b8f0d0bba6eb42e17ff14c6f5",
      "blockNumber": "0x19eb7b3",
      "gasUsed": "0x2ad3f",
      "effectiveGasPrice": "0x50cd9",
      "from": "0xa6b3d200cd34ca14d7579dac8b054bf50a62c37c",
      "to": "0x2f585ac53eea9b37f62da8279e010ba49980190f",
      "contractAddress": null,
      "l1BaseFeeScalar": "0x44d",
      "l1BlobBaseFee": "0x1",
      "l1BlobBaseFeeScalar": "0xa118b",
      "l1Fee": "0xc9fe",
      "l1GasPrice": "0x5d0c",
      "l1GasUsed": "0x7b0"
    },
    {
      "status": "0x1",
      "cumulativeGasUsed": "0x3b1e11",
      "logs": [
        {
          "address": "0x2f585ac53eea9b37f62da8279e010ba49980190f",
          "topics": [
            "0x51896a423f4772bc4f6298b69c1f10c8330af973be38b7cacc105b5fc4ba035d"
          ],
          "data": "0x0000000000000000000000000000000000000000000000000000000000000001",
          "blockHash": "0xd28a8d4185b87800efff1a3b755b2b38bbe1ae8b8f0d0bba6eb42e17ff14c6f5",
          "blockNumber": "0x19eb7b3",
          "transactionHash": "0xb45d719c9ab2bc8758106399db75d5f8ee11f02843030a69bb8c88d1f5cec48c",
          "transactionIndex": "0xf",
          "logIndex": "0xc3",
          "removed": false
        }
      ],
      "logsBloom": "0x00000000000000000000000000000000000000000000000000000000000000001000000000000000000000000000000000000000000000000000000000000000000000000000000000000000000000000000000000000000000000000000000000000000000200000000000000000000000000000000000000000000000000000000000041000000000080000000200000000000000000000000000000000000000000000000000000000000000000000000000000000000000000000000000000000000000000000000000000000000000000000000000000000000000000000000000000000000000000000000000000000000000000000000000000000000",
      "type": "0x2",
      "transactionHash": "0xb45d719c9ab2bc8758106399db75d5f8ee11f02843030a69bb8c88d1f5cec48c",
      "transactionIndex": "0xf",
      "blockHash": "0xd28a8d4185b87800efff1a3b755b2b38bbe1ae8b8f0d0bba6eb42e17ff14c6f5",
      "blockNumber": "0x19eb7b3",
      "gasUsed": "0x7531",
      "effectiveGasPrice": "0x50cd9",
      "from": "0xa6b3d200cd34ca14d7579dac8b054bf50a62c37c",
      "to": "0x2f585ac53eea9b37f62da8279e010ba49980190f",
      "contractAddress": null,
      "l1BaseFeeScalar": "0x44d",
      "l1BlobBaseFee": "0x1",
      "l1BlobBaseFeeScalar": "0xa118b",
      "l1Fee": "0xa42b",
      "l1GasPrice": "0x5d0c",
      "l1GasUsed": "0x640"
    }
  ],
  "libraries": [],
  "pending": [],
  "returns": {},
  "timestamp": 1750126150,
  "chain": 84532,
  "commit": "e3173ca"
}