{
  "transactions": [
    {
      "hash": "0xe465ec22e991ff492699650b0cbb16ced73edb4d74bbcf39eaf236562bec549d",
      "transactionType": "CALL",
      "contractName": null,
      "contractAddress": "0x6f5bcbae1ff20cfadfa85f1fed2e6e83ffa167f7",
      "function": "setMockTokens(address,address,address)",
      "arguments": [
        "0xB755Bdfb8A9dcA01114aDc2Bac0FA9C2427e78a6",
        "0x34C32920FE30b2a6528dA74AedBcd874305dADC9",
        "0xbcBf29FD3f7686126019EC7e40fB15759afc50DE"
      ],
      "transaction": {
        "from": "0xa6b3d200cd34ca14d7579dac8b054bf50a62c37c",
        "to": "0x6f5bcbae1ff20cfadfa85f1fed2e6e83ffa167f7",
        "gas": "0x3b27d",
        "value": "0x0",
        "input": "0x6392b99c000000000000000000000000b755bdfb8a9dca01114adc2bac0fa9c2427e78a600000000000000000000000034c32920fe30b2a6528da74aedbcd874305dadc9000000000000000000000000bcbf29fd3f7686126019ec7e40fb15759afc50de",
        "nonce": "0x155a",
        "chainId": "0x14a34"
      },
      "additionalContracts": [],
      "isFixedGasLimit": false
    },
    {
      "hash": "0x9fdb1d569b4e211fb32b061343026a0cf108341767e3ecb0f203af15e32cb0b2",
      "transactionType": "CALL",
      "contractName": null,
      "contractAddress": "0x6f5bcbae1ff20cfadfa85f1fed2e6e83ffa167f7",
      "function": "setChainlinkEnabled(bool)",
      "arguments": [
        "true"
      ],
      "transaction": {
        "from": "0xa6b3d200cd34ca14d7579dac8b054bf50a62c37c",
        "to": "0x6f5bcbae1ff20cfadfa85f1fed2e6e83ffa167f7",
        "gas": "0xab64",
        "value": "0x0",
        "input": "0x058f3bc80000000000000000000000000000000000000000000000000000000000000001",
        "nonce": "0x155b",
        "chainId": "0x14a34"
      },
      "additionalContracts": [],
      "isFixedGasLimit": false
    }
  ],
  "receipts": [
    {
      "status": "0x1",
      "cumulativeGasUsed": "0x3e28fa",
      "logs": [
        {
          "address": "0x6f5bcbae1ff20cfadfa85f1fed2e6e83ffa167f7",
          "topics": [
            "0xa4a204fa26714a90a8cea4be2a38ce6d1bf79dcebc5d05bc7d24d0e18bf09cb2",
            "0x000000000000000000000000b755bdfb8a9dca01114adc2bac0fa9c2427e78a6",
            "0x000000000000000000000000bcbf29fd3f7686126019ec7e40fb15759afc50de"
          ],
          "data": "0x000000000000000000000000000000000000000000000000000000009502f9000000000000000000000000000000000000000000000000000000000000000002",
          "blockHash": "0x1fdb9be88230b0a7fd62c7a80b65df65f39088ceea1241b76e8adeef3b344f8f",
          "blockNumber": "0x1a01d19",
          "transactionHash": "0xe465ec22e991ff492699650b0cbb16ced73edb4d74bbcf39eaf236562bec549d",
          "transactionIndex": "0xb",
          "logIndex": "0x37",
          "removed": false
        },
        {
          "address": "0x6f5bcbae1ff20cfadfa85f1fed2e6e83ffa167f7",
          "topics": [
            "0xa4a204fa26714a90a8cea4be2a38ce6d1bf79dcebc5d05bc7d24d0e18bf09cb2",
            "0x00000000000000000000000034c32920fe30b2a6528da74aedbcd874305dadc9",
            "0x000000000000000000000000bcbf29fd3f7686126019ec7e40fb15759afc50de"
          ],
          "data": "0x000000000000000000000000000000000000000000000000000000161e70f6000000000000000000000000000000000000000000000000000000000000000002",
          "blockHash": "0x1fdb9be88230b0a7fd62c7a80b65df65f39088ceea1241b76e8adeef3b344f8f",
          "blockNumber": "0x1a01d19",
          "transactionHash": "0xe465ec22e991ff492699650b0cbb16ced73edb4d74bbcf39eaf236562bec549d",
          "transactionIndex": "0xb",
          "logIndex": "0x38",
          "removed": false
        },
        {
          "address": "0x6f5bcbae1ff20cfadfa85f1fed2e6e83ffa167f7",
          "topics": [
            "0xa4a204fa26714a90a8cea4be2a38ce6d1bf79dcebc5d05bc7d24d0e18bf09cb2",
            "0x000000000000000000000000bcbf29fd3f7686126019ec7e40fb15759afc50de",
            "0x000000000000000000000000bcbf29fd3f7686126019ec7e40fb15759afc50de"
          ],
          "data": "0x00000000000000000000000000000000000000000000000000000000000f42400000000000000000000000000000000000000000000000000000000000000002",
          "blockHash": "0x1fdb9be88230b0a7fd62c7a80b65df65f39088ceea1241b76e8adeef3b344f8f",
          "blockNumber": "0x1a01d19",
          "transactionHash": "0xe465ec22e991ff492699650b0cbb16ced73edb4d74bbcf39eaf236562bec549d",
          "transactionIndex": "0xb",
          "logIndex": "0x39",
          "removed": false
        },
        {
          "address": "0x6f5bcbae1ff20cfadfa85f1fed2e6e83ffa167f7",
          "topics": [
            "0xa4a204fa26714a90a8cea4be2a38ce6d1bf79dcebc5d05bc7d24d0e18bf09cb2",
            "0x000000000000000000000000bcbf29fd3f7686126019ec7e40fb15759afc50de",
            "0x000000000000000000000000b755bdfb8a9dca01114adc2bac0fa9c2427e78a6"
          ],
          "data": "0x00000000000000000000000000000000000000000000000000000000000001900000000000000000000000000000000000000000000000000000000000000002",
          "blockHash": "0x1fdb9be88230b0a7fd62c7a80b65df65f39088ceea1241b76e8adeef3b344f8f",
          "blockNumber": "0x1a01d19",
          "transactionHash": "0xe465ec22e991ff492699650b0cbb16ced73edb4d74bbcf39eaf236562bec549d",
          "transactionIndex": "0xb",
          "logIndex": "0x3a",
          "removed": false
        },
        {
          "address": "0x6f5bcbae1ff20cfadfa85f1fed2e6e83ffa167f7",
          "topics": [
            "0xa4a204fa26714a90a8cea4be2a38ce6d1bf79dcebc5d05bc7d24d0e18bf09cb2",
            "0x000000000000000000000000bcbf29fd3f7686126019ec7e40fb15759afc50de",
            "0x00000000000000000000000034c32920fe30b2a6528da74aedbcd874305dadc9"
          ],
          "data": "0x00000000000000000000000000000000000000000000000000000000000000160000000000000000000000000000000000000000000000000000000000000002",
          "blockHash": "0x1fdb9be88230b0a7fd62c7a80b65df65f39088ceea1241b76e8adeef3b344f8f",
          "blockNumber": "0x1a01d19",
          "transactionHash": "0xe465ec22e991ff492699650b0cbb16ced73edb4d74bbcf39eaf236562bec549d",
          "transactionIndex": "0xb",
          "logIndex": "0x3b",
          "removed": false
        },
        {
          "address": "0x6f5bcbae1ff20cfadfa85f1fed2e6e83ffa167f7",
          "topics": [
            "0xa4a204fa26714a90a8cea4be2a38ce6d1bf79dcebc5d05bc7d24d0e18bf09cb2",
            "0x000000000000000000000000b755bdfb8a9dca01114adc2bac0fa9c2427e78a6",
            "0x00000000000000000000000034c32920fe30b2a6528da74aedbcd874305dadc9"
          ],
          "data": "0x000000000000000000000000000000000000000000000000000000000000d9040000000000000000000000000000000000000000000000000000000000000002",
          "blockHash": "0x1fdb9be88230b0a7fd62c7a80b65df65f39088ceea1241b76e8adeef3b344f8f",
          "blockNumber": "0x1a01d19",
          "transactionHash": "0xe465ec22e991ff492699650b0cbb16ced73edb4d74bbcf39eaf236562bec549d",
          "transactionIndex": "0xb",
          "logIndex": "0x3c",
          "removed": false
        },
        {
          "address": "0x6f5bcbae1ff20cfadfa85f1fed2e6e83ffa167f7",
          "topics": [
            "0xa4a204fa26714a90a8cea4be2a38ce6d1bf79dcebc5d05bc7d24d0e18bf09cb2",
            "0x00000000000000000000000034c32920fe30b2a6528da74aedbcd874305dadc9",
            "0x000000000000000000000000b755bdfb8a9dca01114adc2bac0fa9c2427e78a6"
          ],
          "data": "0x000000000000000000000000000000000000000000000000000000000112a8800000000000000000000000000000000000000000000000000000000000000002",
          "blockHash": "0x1fdb9be88230b0a7fd62c7a80b65df65f39088ceea1241b76e8adeef3b344f8f",
          "blockNumber": "0x1a01d19",
          "transactionHash": "0xe465ec22e991ff492699650b0cbb16ced73edb4d74bbcf39eaf236562bec549d",
          "transactionIndex": "0xb",
          "logIndex": "0x3d",
          "removed": false
        }
      ],
      "logsBloom": "0x00000000000000000000000000000000000000000000000000000000000000000000000000000000000000000000000000000000000000000020000000000020000000000000000000000400000000000000000000000000000000000000000000000000000000000000000000000000400000000000000000000000000000000000000000000000000000000000000000002000000000000000080000000000000000000000000000000000000000000800000000000001000000000000000000000020000000000400000000001000000800000000000000000104000000000000000000000000000000000000000000000000000040000000000000000000",
      "type": "0x0",
      "transactionHash": "0xe465ec22e991ff492699650b0cbb16ced73edb4d74bbcf39eaf236562bec549d",
      "transactionIndex": "0xb",
      "blockHash": "0x1fdb9be88230b0a7fd62c7a80b65df65f39088ceea1241b76e8adeef3b344f8f",
      "blockNumber": "0x1a01d19",
      "gasUsed": "0x2ad3f",
      "effectiveGasPrice": "0xf428c",
      "from": "0xa6b3d200cd34ca14d7579dac8b054bf50a62c37c",
      "to": "0x6f5bcbae1ff20cfadfa85f1fed2e6e83ffa167f7",
      "contractAddress": null,
      "l1BaseFeeScalar": "0x44d",
      "l1BlobBaseFee": "0x1",
      "l1BlobBaseFeeScalar": "0xa118b",
      "l1Fee": "0x7df3",
      "l1GasPrice": "0x3cde",
      "l1GasUsed": "0x752"
    },
    {
      "status": "0x1",
      "cumulativeGasUsed": "0xc81d2f",
      "logs": [
        {
          "address": "0x6f5bcbae1ff20cfadfa85f1fed2e6e83ffa167f7",
          "topics": [
            "0x51896a423f4772bc4f6298b69c1f10c8330af973be38b7cacc105b5fc4ba035d"
          ],
          "data": "0x0000000000000000000000000000000000000000000000000000000000000001",
          "blockHash": "0x8a6177113b4f29b249d85db083d18e1510a3a3b7beb8fa4d2c39bf4b4840c569",
          "blockNumber": "0x1a01d1a",
          "transactionHash": "0x9fdb1d569b4e211fb32b061343026a0cf108341767e3ecb0f203af15e32cb0b2",
          "transactionIndex": "0x2b",
          "logIndex": "0x1ad",
          "removed": false
        }
      ],
      "logsBloom": "0x00000000000000000000000000000000000000000000000000000000000000000000000000000000000000000000000000000000000000000000000000000000000000000000000000000000000000000000000000000000000000000000000000000000000200000000000000000000400000000000000000000000000000000000000000000000000080000000200000000000000000000000000000000000000000000000000000000000000000000800000000000001000000000000000000000000000000000000000000000000000000000000000000000000000000000000000000000000000000000000000000000000000000000000000000000000",
      "type": "0x0",
      "transactionHash": "0x9fdb1d569b4e211fb32b061343026a0cf108341767e3ecb0f203af15e32cb0b2",
      "transactionIndex": "0x2b",
      "blockHash": "0x8a6177113b4f29b249d85db083d18e1510a3a3b7beb8fa4d2c39bf4b4840c569",
      "blockNumber": "0x1a01d1a",
      "gasUsed": "0x7531",
      "effectiveGasPrice": "0xf428c",
      "from": "0xa6b3d200cd34ca14d7579dac8b054bf50a62c37c",
      "to": "0x6f5bcbae1ff20cfadfa85f1fed2e6e83ffa167f7",
      "contractAddress": null,
      "l1BaseFeeScalar": "0x44d",
      "l1BlobBaseFee": "0x1",
      "l1BlobBaseFeeScalar": "0xa118b",
      "l1Fee": "0x6b7b",
      "l1GasPrice": "0x3cde",
      "l1GasUsed": "0x640"
    }
  ],
  "libraries": [],
  "pending": [],
  "returns": {},
  "timestamp": 1750309141,
  "chain": 84532,
  "commit": "b2138f5"
}