{
  "transactions": [
    {
      "hash": "0xf71c473cc8a9992a74c20482a203741a00eda12d80ac4ff94128757b8b50d47d",
      "transactionType": "CALL",
      "contractName": null,
      "contractAddress": "0xc1dce9c9c7344478dc98edea2e18019d51e06d69",
      "function": "setMockTokens(address,address,address)",
      "arguments": [
        "0x87bb55de00f7D2791dbF3461A110D99bB47cF62F",
        "0x4Cd911B122e27e5EF684e3553B8187525725a399",
        "0xcbeC2cAa97A660434aA5420d667b3f1e60E2C17B"
      ],
      "transaction": {
        "from": "0xa6b3d200cd34ca14d7579dac8b054bf50a62c37c",
        "to": "0xc1dce9c9c7344478dc98edea2e18019d51e06d69",
        "gas": "0x3b0d7",
        "value": "0x0",
        "input": "0x6392b99c00000000000000000000000087bb55de00f7d2791dbf3461a110d99bb47cf62f0000000000000000000000004cd911b122e27e5ef684e3553b8187525725a399000000000000000000000000cbec2caa97a660434aa5420d667b3f1e60e2c17b",
        "nonce": "0xba5",
        "chainId": "0x14a34"
      },
      "additionalContracts": [],
      "isFixedGasLimit": false
    },
    {
      "hash": "0x9b61dc20e1fa63e8c0e0b8041d13ff82a6b320960c0a3e891979ece1e3bb7a13",
      "transactionType": "CALL",
      "contractName": null,
      "contractAddress": "0xc1dce9c9c7344478dc98edea2e18019d51e06d69",
      "function": "setChainlinkEnabled(bool)",
      "arguments": [
        "true"
      ],
      "transaction": {
        "from": "0xa6b3d200cd34ca14d7579dac8b054bf50a62c37c",
        "to": "0xc1dce9c9c7344478dc98edea2e18019d51e06d69",
        "gas": "0xab4e",
        "value": "0x0",
        "input": "0x058f3bc80000000000000000000000000000000000000000000000000000000000000001",
        "nonce": "0xba6",
        "chainId": "0x14a34"
      },
      "additionalContracts": [],
      "isFixedGasLimit": false
    }
  ],
  "receipts": [
    {
      "status": "0x1",
      "cumulativeGasUsed": "0x3a87a8",
      "logs": [
        {
          "address": "0xc1dce9c9c7344478dc98edea2e18019d51e06d69",
          "topics": [
            "0xa4a204fa26714a90a8cea4be2a38ce6d1bf79dcebc5d05bc7d24d0e18bf09cb2",
            "0x00000000000000000000000087bb55de00f7d2791dbf3461a110d99bb47cf62f",
            "0x000000000000000000000000cbec2caa97a660434aa5420d667b3f1e60e2c17b"
          ],
          "data": "0x000000000000000000000000000000000000000000000000000000009502f9000000000000000000000000000000000000000000000000000000000000000002",
          "blockHash": "0x2021dcd9c9156efbd522586ef6ac6827f882d3dd4014a511866e879801f71b7d",
          "blockNumber": "0x19e99d9",
          "transactionHash": "0xf71c473cc8a9992a74c20482a203741a00eda12d80ac4ff94128757b8b50d47d",
          "transactionIndex": "0xf",
          "logIndex": "0x82",
          "removed": false
        },
        {
          "address": "0xc1dce9c9c7344478dc98edea2e18019d51e06d69",
          "topics": [
            "0xa4a204fa26714a90a8cea4be2a38ce6d1bf79dcebc5d05bc7d24d0e18bf09cb2",
            "0x0000000000000000000000004cd911b122e27e5ef684e3553b8187525725a399",
            "0x000000000000000000000000cbec2caa97a660434aa5420d667b3f1e60e2c17b"
          ],
          "data": "0x000000000000000000000000000000000000000000000000000000161e70f6000000000000000000000000000000000000000000000000000000000000000002",
          "blockHash": "0x2021dcd9c9156efbd522586ef6ac6827f882d3dd4014a511866e879801f71b7d",
          "blockNumber": "0x19e99d9",
          "transactionHash": "0xf71c473cc8a9992a74c20482a203741a00eda12d80ac4ff94128757b8b50d47d",
          "transactionIndex": "0xf",
          "logIndex": "0x83",
          "removed": false
        },
        {
          "address": "0xc1dce9c9c7344478dc98edea2e18019d51e06d69",
          "topics": [
            "0xa4a204fa26714a90a8cea4be2a38ce6d1bf79dcebc5d05bc7d24d0e18bf09cb2",
            "0x000000000000000000000000cbec2caa97a660434aa5420d667b3f1e60e2c17b",
            "0x000000000000000000000000cbec2caa97a660434aa5420d667b3f1e60e2c17b"
          ],
          "data": "0x00000000000000000000000000000000000000000000000000000000000f42400000000000000000000000000000000000000000000000000000000000000002",
          "blockHash": "0x2021dcd9c9156efbd522586ef6ac6827f882d3dd4014a511866e879801f71b7d",
          "blockNumber": "0x19e99d9",
          "transactionHash": "0xf71c473cc8a9992a74c20482a203741a00eda12d80ac4ff94128757b8b50d47d",
          "transactionIndex": "0xf",
          "logIndex": "0x84",
          "removed": false
        },
        {
          "address": "0xc1dce9c9c7344478dc98edea2e18019d51e06d69",
          "topics": [
            "0xa4a204fa26714a90a8cea4be2a38ce6d1bf79dcebc5d05bc7d24d0e18bf09cb2",
            "0x000000000000000000000000cbec2caa97a660434aa5420d667b3f1e60e2c17b",
            "0x00000000000000000000000087bb55de00f7d2791dbf3461a110d99bb47cf62f"
          ],
          "data": "0x00000000000000000000000000000000000000000000000000000000000001900000000000000000000000000000000000000000000000000000000000000002",
          "blockHash": "0x2021dcd9c9156efbd522586ef6ac6827f882d3dd4014a511866e879801f71b7d",
          "blockNumber": "0x19e99d9",
          "transactionHash": "0xf71c473cc8a9992a74c20482a203741a00eda12d80ac4ff94128757b8b50d47d",
          "transactionIndex": "0xf",
          "logIndex": "0x85",
          "removed": false
        },
        {
          "address": "0xc1dce9c9c7344478dc98edea2e18019d51e06d69",
          "topics": [
            "0xa4a204fa26714a90a8cea4be2a38ce6d1bf79dcebc5d05bc7d24d0e18bf09cb2",
            "0x000000000000000000000000cbec2caa97a660434aa5420d667b3f1e60e2c17b",
            "0x0000000000000000000000004cd911b122e27e5ef684e3553b8187525725a399"
          ],
          "data": "0x00000000000000000000000000000000000000000000000000000000000000160000000000000000000000000000000000000000000000000000000000000002",
          "blockHash": "0x2021dcd9c9156efbd522586ef6ac6827f882d3dd4014a511866e879801f71b7d",
          "blockNumber": "0x19e99d9",
          "transactionHash": "0xf71c473cc8a9992a74c20482a203741a00eda12d80ac4ff94128757b8b50d47d",
          "transactionIndex": "0xf",
          "logIndex": "0x86",
          "removed": false
        },
        {
          "address": "0xc1dce9c9c7344478dc98edea2e18019d51e06d69",
          "topics": [
            "0xa4a204fa26714a90a8cea4be2a38ce6d1bf79dcebc5d05bc7d24d0e18bf09cb2",
            "0x00000000000000000000000087bb55de00f7d2791dbf3461a110d99bb47cf62f",
            "0x0000000000000000000000004cd911b122e27e5ef684e3553b8187525725a399"
          ],
          "data": "0x000000000000000000000000000000000000000000000000000000000000d9040000000000000000000000000000000000000000000000000000000000000002",
          "blockHash": "0x2021dcd9c9156efbd522586ef6ac6827f882d3dd4014a511866e879801f71b7d",
          "blockNumber": "0x19e99d9",
          "transactionHash": "0xf71c473cc8a9992a74c20482a203741a00eda12d80ac4ff94128757b8b50d47d",
          "transactionIndex": "0xf",
          "logIndex": "0x87",
          "removed": false
        },
        {
          "address": "0xc1dce9c9c7344478dc98edea2e18019d51e06d69",
          "topics": [
            "0xa4a204fa26714a90a8cea4be2a38ce6d1bf79dcebc5d05bc7d24d0e18bf09cb2",
            "0x0000000000000000000000004cd911b122e27e5ef684e3553b8187525725a399",
            "0x00000000000000000000000087bb55de00f7d2791dbf3461a110d99bb47cf62f"
          ],
          "data": "0x000000000000000000000000000000000000000000000000000000000112a8800000000000000000000000000000000000000000000000000000000000000002",
          "blockHash": "0x2021dcd9c9156efbd522586ef6ac6827f882d3dd4014a511866e879801f71b7d",
          "blockNumber": "0x19e99d9",
          "transactionHash": "0xf71c473cc8a9992a74c20482a203741a00eda12d80ac4ff94128757b8b50d47d",
          "transactionIndex": "0xf",
          "logIndex": "0x88",
          "removed": false
        }
      ],
      "logsBloom": "0x00000000000000000000000000000000000000000000000000000000000000000000000000000000000000000000000000000000000000000020000000000000000000000000000000000400000000000000000000001000000000000000000000000000000000000000000000800000000010000000000000000000000000000000000000000000200000000000000200000000000002040000000000000000000000000000000000000000080000000000000000000000010000000000000000000000000000000400000000000000000000000000000000000000000000000080000000000000000000000000000002080000000000000000000000000000",
      "type": "0x2",
      "transactionHash": "0xf71c473cc8a9992a74c20482a203741a00eda12d80ac4ff94128757b8b50d47d",
      "transactionIndex": "0xf",
      "blockHash": "0x2021dcd9c9156efbd522586ef6ac6827f882d3dd4014a511866e879801f71b7d",
      "blockNumber": "0x19e99d9",
      "gasUsed": "0x2ac0d",
      "effectiveGasPrice": "0x31b2b",
      "from": "0xa6b3d200cd34ca14d7579dac8b054bf50a62c37c",
      "to": "0xc1dce9c9c7344478dc98edea2e18019d51e06d69",
      "contractAddress": null,
      "l1BaseFeeScalar": "0x44d",
      "l1BlobBaseFee": "0x1",
      "l1BlobBaseFeeScalar": "0xa118b",
      "l1Fee": "0x665bb",
      "l1GasPrice": "0x2f371",
      "l1GasUsed": "0x7b0"
    },
    {
      "status": "0x1",
      "cumulativeGasUsed": "0x3afcca",
      "logs": [
        {
          "address": "0xc1dce9c9c7344478dc98edea2e18019d51e06d69",
          "topics": [
            "0x51896a423f4772bc4f6298b69c1f10c8330af973be38b7cacc105b5fc4ba035d"
          ],
          "data": "0x0000000000000000000000000000000000000000000000000000000000000001",
          "blockHash": "0x2021dcd9c9156efbd522586ef6ac6827f882d3dd4014a511866e879801f71b7d",
          "blockNumber": "0x19e99d9",
          "transactionHash": "0x9b61dc20e1fa63e8c0e0b8041d13ff82a6b320960c0a3e891979ece1e3bb7a13",
          "transactionIndex": "0x10",
          "logIndex": "0x89",
          "removed": false
        }
      ],
      "logsBloom": "0x00000000000000000000000000000000000000000000000000000000000000000000000000000000000000000000000000000000000000000000000000000000000000000000000000000000000000000000000000000000000000000000000000000000000200000000000000000000000000000000000000000000000000000000000000000000000080000000200200000000000002000000000000000000000000000000000000000000000000000000000000000000000000000000000000000000000000000000000000000000000000000000000000000000000000000080000000000000000000000000000000000000000000000000000000000000",
      "type": "0x2",
      "transactionHash": "0x9b61dc20e1fa63e8c0e0b8041d13ff82a6b320960c0a3e891979ece1e3bb7a13",
      "transactionIndex": "0x10",
      "blockHash": "0x2021dcd9c9156efbd522586ef6ac6827f882d3dd4014a511866e879801f71b7d",
      "blockNumber": "0x19e99d9",
      "gasUsed": "0x7522",
      "effectiveGasPrice": "0x31b2b",
      "from": "0xa6b3d200cd34ca14d7579dac8b054bf50a62c37c",
      "to": "0xc1dce9c9c7344478dc98edea2e18019d51e06d69",
      "contractAddress": null,
      "l1BaseFeeScalar": "0x44d",
      "l1BlobBaseFee": "0x1",
      "l1BlobBaseFeeScalar": "0xa118b",
      "l1Fee": "0x5330b",
      "l1GasPrice": "0x2f371",
      "l1GasUsed": "0x640"
    }
  ],
  "libraries": [],
  "pending": [],
  "returns": {},
  "timestamp": 1750110866,
  "chain": 84532,
  "commit": "22b5654"
}