{
  "transactions": [
    {
      "hash": "0xacbc1d2a6fd7eb18dce71a75a564ef2dd537636956d5556b038f765967da3ff9",
      "transactionType": "CALL",
      "contractName": null,
      "contractAddress": "0x4309df863930db7ded5f964b444597e47103a5f9",
      "function": "setMockTokens(address,address,address)",
      "arguments": [
        "0x80aC5Fb8E4b5D5448754377ef17E9699f789a3C7",
        "0xA157F9266335e219Cb4c7E96879F99EA3e4201b1",
        "0xdfd075c5ECa0b01196d0440b3E67cA207924Fc4B"
      ],
      "transaction": {
        "from": "0xa6b3d200cd34ca14d7579dac8b054bf50a62c37c",
        "to": "0x4309df863930db7ded5f964b444597e47103a5f9",
        "gas": "0x3b27d",
        "value": "0x0",
        "input": "0x6392b99c00000000000000000000000080ac5fb8e4b5d5448754377ef17e9699f789a3c7000000000000000000000000a157f9266335e219cb4c7e96879f99ea3e4201b1000000000000000000000000dfd075c5eca0b01196d0440b3e67ca207924fc4b",
        "nonce": "0xdb0",
        "chainId": "0x14a34"
      },
      "additionalContracts": [],
      "isFixedGasLimit": false
    },
    {
      "hash": "0x3c0068ff708b160e5dcfff60fd5fd7aa21e9e76f2793f1d44bdd67871a27ee30",
      "transactionType": "CALL",
      "contractName": null,
      "contractAddress": "0x4309df863930db7ded5f964b444597e47103a5f9",
      "function": "setChainlinkEnabled(bool)",
      "arguments": [
        "true"
      ],
      "transaction": {
        "from": "0xa6b3d200cd34ca14d7579dac8b054bf50a62c37c",
        "to": "0x4309df863930db7ded5f964b444597e47103a5f9",
        "gas": "0xab64",
        "value": "0x0",
        "input": "0x058f3bc80000000000000000000000000000000000000000000000000000000000000001",
        "nonce": "0xdb1",
        "chainId": "0x14a34"
      },
      "additionalContracts": [],
      "isFixedGasLimit": false
    }
  ],
  "receipts": [
    {
      "status": "0x1",
      "cumulativeGasUsed": "0x7c7ede",
      "logs": [
        {
          "address": "0x4309df863930db7ded5f964b444597e47103a5f9",
          "topics": [
            "0xa4a204fa26714a90a8cea4be2a38ce6d1bf79dcebc5d05bc7d24d0e18bf09cb2",
            "0x00000000000000000000000080ac5fb8e4b5d5448754377ef17e9699f789a3c7",
            "0x000000000000000000000000dfd075c5eca0b01196d0440b3e67ca207924fc4b"
          ],
          "data": "0x000000000000000000000000000000000000000000000000000000009502f9000000000000000000000000000000000000000000000000000000000000000002",
          "blockHash": "0x62ef4eb15652e330afc199eb4211c2e03adf4239800f7d758c2bc93dd82d058e",
          "blockNumber": "0x19ec172",
          "transactionHash": "0xacbc1d2a6fd7eb18dce71a75a564ef2dd537636956d5556b038f765967da3ff9",
          "transactionIndex": "0x27",
          "logIndex": "0x120",
          "removed": false
        },
        {
          "address": "0x4309df863930db7ded5f964b444597e47103a5f9",
          "topics": [
            "0xa4a204fa26714a90a8cea4be2a38ce6d1bf79dcebc5d05bc7d24d0e18bf09cb2",
            "0x000000000000000000000000a157f9266335e219cb4c7e96879f99ea3e4201b1",
            "0x000000000000000000000000dfd075c5eca0b01196d0440b3e67ca207924fc4b"
          ],
          "data": "0x000000000000000000000000000000000000000000000000000000161e70f6000000000000000000000000000000000000000000000000000000000000000002",
          "blockHash": "0x62ef4eb15652e330afc199eb4211c2e03adf4239800f7d758c2bc93dd82d058e",
          "blockNumber": "0x19ec172",
          "transactionHash": "0xacbc1d2a6fd7eb18dce71a75a564ef2dd537636956d5556b038f765967da3ff9",
          "transactionIndex": "0x27",
          "logIndex": "0x121",
          "removed": false
        },
        {
          "address": "0x4309df863930db7ded5f964b444597e47103a5f9",
          "topics": [
            "0xa4a204fa26714a90a8cea4be2a38ce6d1bf79dcebc5d05bc7d24d0e18bf09cb2",
            "0x000000000000000000000000dfd075c5eca0b01196d0440b3e67ca207924fc4b",
            "0x000000000000000000000000dfd075c5eca0b01196d0440b3e67ca207924fc4b"
          ],
          "data": "0x00000000000000000000000000000000000000000000000000000000000f42400000000000000000000000000000000000000000000000000000000000000002",
          "blockHash": "0x62ef4eb15652e330afc199eb4211c2e03adf4239800f7d758c2bc93dd82d058e",
          "blockNumber": "0x19ec172",
          "transactionHash": "0xacbc1d2a6fd7eb18dce71a75a564ef2dd537636956d5556b038f765967da3ff9",
          "transactionIndex": "0x27",
          "logIndex": "0x122",
          "removed": false
        },
        {
          "address": "0x4309df863930db7ded5f964b444597e47103a5f9",
          "topics": [
            "0xa4a204fa26714a90a8cea4be2a38ce6d1bf79dcebc5d05bc7d24d0e18bf09cb2",
            "0x000000000000000000000000dfd075c5eca0b01196d0440b3e67ca207924fc4b",
            "0x00000000000000000000000080ac5fb8e4b5d5448754377ef17e9699f789a3c7"
          ],
          "data": "0x00000000000000000000000000000000000000000000000000000000000001900000000000000000000000000000000000000000000000000000000000000002",
          "blockHash": "0x62ef4eb15652e330afc199eb4211c2e03adf4239800f7d758c2bc93dd82d058e",
          "blockNumber": "0x19ec172",
          "transactionHash": "0xacbc1d2a6fd7eb18dce71a75a564ef2dd537636956d5556b038f765967da3ff9",
          "transactionIndex": "0x27",
          "logIndex": "0x123",
          "removed": false
        },
        {
          "address": "0x4309df863930db7ded5f964b444597e47103a5f9",
          "topics": [
            "0xa4a204fa26714a90a8cea4be2a38ce6d1bf79dcebc5d05bc7d24d0e18bf09cb2",
            "0x000000000000000000000000dfd075c5eca0b01196d0440b3e67ca207924fc4b",
            "0x000000000000000000000000a157f9266335e219cb4c7e96879f99ea3e4201b1"
          ],
          "data": "0x00000000000000000000000000000000000000000000000000000000000000160000000000000000000000000000000000000000000000000000000000000002",
          "blockHash": "0x62ef4eb15652e330afc199eb4211c2e03adf4239800f7d758c2bc93dd82d058e",
          "blockNumber": "0x19ec172",
          "transactionHash": "0xacbc1d2a6fd7eb18dce71a75a564ef2dd537636956d5556b038f765967da3ff9",
          "transactionIndex": "0x27",
          "logIndex": "0x124",
          "removed": false
        },
        {
          "address": "0x4309df863930db7ded5f964b444597e47103a5f9",
          "topics": [
            "0xa4a204fa26714a90a8cea4be2a38ce6d1bf79dcebc5d05bc7d24d0e18bf09cb2",
            "0x00000000000000000000000080ac5fb8e4b5d5448754377ef17e9699f789a3c7",
            "0x000000000000000000000000a157f9266335e219cb4c7e96879f99ea3e4201b1"
          ],
          "data": "0x000000000000000000000000000000000000000000000000000000000000d9040000000000000000000000000000000000000000000000000000000000000002",
          "blockHash": "0x62ef4eb15652e330afc199eb4211c2e03adf4239800f7d758c2bc93dd82d058e",
          "blockNumber": "0x19ec172",
          "transactionHash": "0xacbc1d2a6fd7eb18dce71a75a564ef2dd537636956d5556b038f765967da3ff9",
          "transactionIndex": "0x27",
          "logIndex": "0x125",
          "removed": false
        },
        {
          "address": "0x4309df863930db7ded5f964b444597e47103a5f9",
          "topics": [
            "0xa4a204fa26714a90a8cea4be2a38ce6d1bf79dcebc5d05bc7d24d0e18bf09cb2",
            "0x000000000000000000000000a157f9266335e219cb4c7e96879f99ea3e4201b1",
            "0x00000000000000000000000080ac5fb8e4b5d5448754377ef17e9699f789a3c7"
          ],
          "data": "0x000000000000000000000000000000000000000000000000000000000112a8800000000000000000000000000000000000000000000000000000000000000002",
          "blockHash": "0x62ef4eb15652e330afc199eb4211c2e03adf4239800f7d758c2bc93dd82d058e",
          "blockNumber": "0x19ec172",
          "transactionHash": "0xacbc1d2a6fd7eb18dce71a75a564ef2dd537636956d5556b038f765967da3ff9",
          "transactionIndex": "0x27",
          "logIndex": "0x126",
          "removed": false
        }
      ],
      "logsBloom": "0x00000000400000000000000000000000000000000000000000000000000000000000000000000400000020000000000000000000000044000020000000200000000100000000000000000400000000000000000000000000000000000000000000000000008000000000000000000000000000000000000000000000000000000000000000000000000000000000000000000000000000060000000000200000000000000000000000001000000000000000000000000000000000000000000000000000000000000400000000000000000000000000000000000000000000000000000000000000000000000000000000000000000000000000000000000000",
      "type": "0x2",
      "transactionHash": "0xacbc1d2a6fd7eb18dce71a75a564ef2dd537636956d5556b038f765967da3ff9",
      "transactionIndex": "0x27",
      "blockHash": "0x62ef4eb15652e330afc199eb4211c2e03adf4239800f7d758c2bc93dd82d058e",
      "blockNumber": "0x19ec172",
      "gasUsed": "0x2ad3f",
      "effectiveGasPrice": "0x4ce60",
      "from": "0xa6b3d200cd34ca14d7579dac8b054bf50a62c37c",
      "to": "0x4309df863930db7ded5f964b444597e47103a5f9",
      "contractAddress": null,
      "l1BaseFeeScalar": "0x44d",
      "l1BlobBaseFee": "0x1",
      "l1BlobBaseFeeScalar": "0xa118b",
      "l1Fee": "0x2079a4",
      "l1GasPrice": "0xefb73",
      "l1GasUsed": "0x7b0"
    },
    {
      "status": "0x1",
      "cumulativeGasUsed": "0x7cf40f",
      "logs": [
        {
          "address": "0x4309df863930db7ded5f964b444597e47103a5f9",
          "topics": [
            "0x51896a423f4772bc4f6298b69c1f10c8330af973be38b7cacc105b5fc4ba035d"
          ],
          "data": "0x0000000000000000000000000000000000000000000000000000000000000001",
          "blockHash": "0x62ef4eb15652e330afc199eb4211c2e03adf4239800f7d758c2bc93dd82d058e",
          "blockNumber": "0x19ec172",
          "transactionHash": "0x3c0068ff708b160e5dcfff60fd5fd7aa21e9e76f2793f1d44bdd67871a27ee30",
          "transactionIndex": "0x28",
          "logIndex": "0x127",
          "removed": false
        }
      ],
      "logsBloom": "0x00000000000000000000000000000000000000000000000000000000000000000000000000000000000020000000000000000000000000000000000000200000000000000000000000000000000000000000000000000000000000000000000000000000000200000000000000000000000000000000000000000000000000000000000000000000000080000000200000000000000000020000000000000000000000000000000000000000000000000000000000000000000000000000000000000000000000000000000000000000000000000000000000000000000000000000000000000000000000000000000000000000000000000000000000000000",
      "type": "0x2",
      "transactionHash": "0x3c0068ff708b160e5dcfff60fd5fd7aa21e9e76f2793f1d44bdd67871a27ee30",
      "transactionIndex": "0x28",
      "blockHash": "0x62ef4eb15652e330afc199eb4211c2e03adf4239800f7d758c2bc93dd82d058e",
      "blockNumber": "0x19ec172",
      "gasUsed": "0x7531",
      "effectiveGasPrice": "0x4ce60",
      "from": "0xa6b3d200cd34ca14d7579dac8b054bf50a62c37c",
      "to": "0x4309df863930db7ded5f964b444597e47103a5f9",
      "contractAddress": null,
      "l1BaseFeeScalar": "0x44d",
      "l1BlobBaseFee": "0x1",
      "l1BlobBaseFeeScalar": "0xa118b",
      "l1Fee": "0x1a64c8",
      "l1GasPrice": "0xefb73",
      "l1GasUsed": "0x640"
    }
  ],
  "libraries": [],
  "pending": [],
  "returns": {},
  "timestamp": 1750131141,
  "chain": 84532,
  "commit": "e3173ca"
}