{
  "transactions": [
    {
      "hash": "0x5fe706bc47a9fb61a2c6a1fa5124252528a214e6cab61557ac0bccb25ffb6339",
      "transactionType": "CALL",
      "contractName": null,
      "contractAddress": "0x856e780cf7f4d47b24142e280ba30b399dc6daaa",
      "function": "setMockTokens(address,address,address)",
      "arguments": [
        "0x1488FC77c4df06b5D3628e61aE482D0f21a85d88",
        "0xF638898f61604fcba74B3c8812dE412ed86B7d3d",
        "0x6AC157633e53bb59C5eE2eFB26Ea4cAaA160a381"
      ],
      "transaction": {
        "from": "0xa6b3d200cd34ca14d7579dac8b054bf50a62c37c",
        "to": "0x856e780cf7f4d47b24142e280ba30b399dc6daaa",
        "gas": "0x3e87e",
        "value": "0x0",
        "input": "0x6392b99c0000000000000000000000001488fc77c4df06b5d3628e61ae482d0f21a85d88000000000000000000000000f638898f61604fcba74b3c8812de412ed86b7d3d0000000000000000000000006ac157633e53bb59c5ee2efb26ea4caaa160a381",
        "nonce": "0xb67",
        "chainId": "0x14a34"
      },
      "additionalContracts": [],
      "isFixedGasLimit": false
    },
    {
      "hash": "0x385e2bbbd14a76ac3cc30c44f7aafa507a84d55e92ef876b32bbef77b1d0cfde",
      "transactionType": "CALL",
      "contractName": null,
      "contractAddress": "0x856e780cf7f4d47b24142e280ba30b399dc6daaa",
      "function": "setChainlinkEnabled(bool)",
      "arguments": [
        "true"
      ],
      "transaction": {
        "from": "0xa6b3d200cd34ca14d7579dac8b054bf50a62c37c",
        "to": "0x856e780cf7f4d47b24142e280ba30b399dc6daaa",
        "gas": "0xab4e",
        "value": "0x0",
        "input": "0x058f3bc80000000000000000000000000000000000000000000000000000000000000001",
        "nonce": "0xb68",
        "chainId": "0x14a34"
      },
      "additionalContracts": [],
      "isFixedGasLimit": false
    }
  ],
  "receipts": [
    {
      "status": "0x1",
      "cumulativeGasUsed": "0x7ec3d8",
      "logs": [
        {
          "address": "0x856e780cf7f4d47b24142e280ba30b399dc6daaa",
          "topics": [
            "0xa4a204fa26714a90a8cea4be2a38ce6d1bf79dcebc5d05bc7d24d0e18bf09cb2",
            "0x0000000000000000000000001488fc77c4df06b5d3628e61ae482d0f21a85d88",
            "0x0000000000000000000000006ac157633e53bb59c5ee2efb26ea4caaa160a381"
          ],
          "data": "0x000000000000000000000000000000000000000000000000000000009502f9000000000000000000000000000000000000000000000000000000000000000002",
          "blockHash": "0x9d6ebc142cf1df1d584ec62e7f47023084af29f3770ca2d7129c64429c86bdf1",
          "blockNumber": "0x19e97ac",
          "transactionHash": "0x5fe706bc47a9fb61a2c6a1fa5124252528a214e6cab61557ac0bccb25ffb6339",
          "transactionIndex": "0x10",
          "logIndex": "0x62",
          "removed": false
        },
        {
          "address": "0x856e780cf7f4d47b24142e280ba30b399dc6daaa",
          "topics": [
            "0xa4a204fa26714a90a8cea4be2a38ce6d1bf79dcebc5d05bc7d24d0e18bf09cb2",
            "0x000000000000000000000000f638898f61604fcba74b3c8812de412ed86b7d3d",
            "0x0000000000000000000000006ac157633e53bb59c5ee2efb26ea4caaa160a381"
          ],
          "data": "0x000000000000000000000000000000000000000000000000000000161e70f6000000000000000000000000000000000000000000000000000000000000000002",
          "blockHash": "0x9d6ebc142cf1df1d584ec62e7f47023084af29f3770ca2d7129c64429c86bdf1",
          "blockNumber": "0x19e97ac",
          "transactionHash": "0x5fe706bc47a9fb61a2c6a1fa5124252528a214e6cab61557ac0bccb25ffb6339",
          "transactionIndex": "0x10",
          "logIndex": "0x63",
          "removed": false
        },
        {
          "address": "0x856e780cf7f4d47b24142e280ba30b399dc6daaa",
          "topics": [
            "0xa4a204fa26714a90a8cea4be2a38ce6d1bf79dcebc5d05bc7d24d0e18bf09cb2",
            "0x0000000000000000000000006ac157633e53bb59c5ee2efb26ea4caaa160a381",
            "0x0000000000000000000000006ac157633e53bb59c5ee2efb26ea4caaa160a381"
          ],
          "data": "0x00000000000000000000000000000000000000000000000000000000000f42400000000000000000000000000000000000000000000000000000000000000002",
          "blockHash": "0x9d6ebc142cf1df1d584ec62e7f47023084af29f3770ca2d7129c64429c86bdf1",
          "blockNumber": "0x19e97ac",
          "transactionHash": "0x5fe706bc47a9fb61a2c6a1fa5124252528a214e6cab61557ac0bccb25ffb6339",
          "transactionIndex": "0x10",
          "logIndex": "0x64",
          "removed": false
        },
        {
          "address": "0x856e780cf7f4d47b24142e280ba30b399dc6daaa",
          "topics": [
            "0xa4a204fa26714a90a8cea4be2a38ce6d1bf79dcebc5d05bc7d24d0e18bf09cb2",
            "0x0000000000000000000000006ac157633e53bb59c5ee2efb26ea4caaa160a381",
            "0x0000000000000000000000001488fc77c4df06b5d3628e61ae482d0f21a85d88"
          ],
          "data": "0x00000000000000000000000000000000000000000000000000000000000001900000000000000000000000000000000000000000000000000000000000000002",
          "blockHash": "0x9d6ebc142cf1df1d584ec62e7f47023084af29f3770ca2d7129c64429c86bdf1",
          "blockNumber": "0x19e97ac",
          "transactionHash": "0x5fe706bc47a9fb61a2c6a1fa5124252528a214e6cab61557ac0bccb25ffb6339",
          "transactionIndex": "0x10",
          "logIndex": "0x65",
          "removed": false
        },
        {
          "address": "0x856e780cf7f4d47b24142e280ba30b399dc6daaa",
          "topics": [
            "0xa4a204fa26714a90a8cea4be2a38ce6d1bf79dcebc5d05bc7d24d0e18bf09cb2",
            "0x0000000000000000000000006ac157633e53bb59c5ee2efb26ea4caaa160a381",
            "0x000000000000000000000000f638898f61604fcba74b3c8812de412ed86b7d3d"
          ],
          "data": "0x00000000000000000000000000000000000000000000000000000000000000160000000000000000000000000000000000000000000000000000000000000002",
          "blockHash": "0x9d6ebc142cf1df1d584ec62e7f47023084af29f3770ca2d7129c64429c86bdf1",
          "blockNumber": "0x19e97ac",
          "transactionHash": "0x5fe706bc47a9fb61a2c6a1fa5124252528a214e6cab61557ac0bccb25ffb6339",
          "transactionIndex": "0x10",
          "logIndex": "0x66",
          "removed": false
        },
        {
          "address": "0x856e780cf7f4d47b24142e280ba30b399dc6daaa",
          "topics": [
            "0xa4a204fa26714a90a8cea4be2a38ce6d1bf79dcebc5d05bc7d24d0e18bf09cb2",
            "0x0000000000000000000000001488fc77c4df06b5d3628e61ae482d0f21a85d88",
            "0x000000000000000000000000f638898f61604fcba74b3c8812de412ed86b7d3d"
          ],
          "data": "0x000000000000000000000000000000000000000000000000000000000000d9040000000000000000000000000000000000000000000000000000000000000002",
          "blockHash": "0x9d6ebc142cf1df1d584ec62e7f47023084af29f3770ca2d7129c64429c86bdf1",
          "blockNumber": "0x19e97ac",
          "transactionHash": "0x5fe706bc47a9fb61a2c6a1fa5124252528a214e6cab61557ac0bccb25ffb6339",
          "transactionIndex": "0x10",
          "logIndex": "0x67",
          "removed": false
        },
        {
          "address": "0x856e780cf7f4d47b24142e280ba30b399dc6daaa",
          "topics": [
            "0xa4a204fa26714a90a8cea4be2a38ce6d1bf79dcebc5d05bc7d24d0e18bf09cb2",
            "0x000000000000000000000000f638898f61604fcba74b3c8812de412ed86b7d3d",
            "0x0000000000000000000000001488fc77c4df06b5d3628e61ae482d0f21a85d88"
          ],
          "data": "0x000000000000000000000000000000000000000000000000000000000112a8800000000000000000000000000000000000000000000000000000000000000002",
          "blockHash": "0x9d6ebc142cf1df1d584ec62e7f47023084af29f3770ca2d7129c64429c86bdf1",
          "blockNumber": "0x19e97ac",
          "transactionHash": "0x5fe706bc47a9fb61a2c6a1fa5124252528a214e6cab61557ac0bccb25ffb6339",
          "transactionIndex": "0x10",
          "logIndex": "0x68",
          "removed": false
        }
      ],
      "logsBloom": "0x00000000000000000000000000000000000000000000002000000000000000000000000000100000000000000000000000000000000000000020000000000000000020000000000000000401000000000000000000000000000000000000000000000000000000000000000000000000000000000020008000000000000000000000000000000040000000000000000000000000000000000000000000000000000000000000000000000000000000000000000000000000000000000000000000000400000000000400000000000000800000000000000100000000000000000000000000000000000000000008000000200000000000000000000000000000",
      "type": "0x2",
      "transactionHash": "0x5fe706bc47a9fb61a2c6a1fa5124252528a214e6cab61557ac0bccb25ffb6339",
      "transactionIndex": "0x10",
      "blockHash": "0x9d6ebc142cf1df1d584ec62e7f47023084af29f3770ca2d7129c64429c86bdf1",
      "blockNumber": "0x19e97ac",
      "gasUsed": "0x2ac19",
      "effectiveGasPrice": "0x1ae9f",
      "from": "0xa6b3d200cd34ca14d7579dac8b054bf50a62c37c",
      "to": "0x856e780cf7f4d47b24142e280ba30b399dc6daaa",
      "contractAddress": null,
      "l1BaseFeeScalar": "0x44d",
      "l1BlobBaseFee": "0x1",
      "l1BlobBaseFeeScalar": "0xa118b",
      "l1Fee": "0x44e76",
      "l1GasPrice": "0x1fff8",
      "l1GasUsed": "0x7a3"
    },
    {
      "status": "0x1",
      "cumulativeGasUsed": "0x7f38fa",
      "logs": [
        {
          "address": "0x856e780cf7f4d47b24142e280ba30b399dc6daaa",
          "topics": [
            "0x51896a423f4772bc4f6298b69c1f10c8330af973be38b7cacc105b5fc4ba035d"
          ],
          "data": "0x0000000000000000000000000000000000000000000000000000000000000001",
          "blockHash": "0x9d6ebc142cf1df1d584ec62e7f47023084af29f3770ca2d7129c64429c86bdf1",
          "blockNumber": "0x19e97ac",
          "transactionHash": "0x385e2bbbd14a76ac3cc30c44f7aafa507a84d55e92ef876b32bbef77b1d0cfde",
          "transactionIndex": "0x11",
          "logIndex": "0x69",
          "removed": false
        }
      ],
      "logsBloom": "0x00000000000000000000000000000000000000000000000000000000000000000000000000100000000000000000000000000000000000000000000000000000000000000000000000000001000000000000000000000000000000000000000000000000000200000000000000000000000000000000000000000000000000000000000000000000000080000000200000000000000000000000000000000000000000000000000000000000000000000000000000000000000000000000000000000400000000000000000000000000000000000000000000000000000000000000000000000000000000000000000000000000000000000000000000000000",
      "type": "0x2",
      "transactionHash": "0x385e2bbbd14a76ac3cc30c44f7aafa507a84d55e92ef876b32bbef77b1d0cfde",
      "transactionIndex": "0x11",
      "blockHash": "0x9d6ebc142cf1df1d584ec62e7f47023084af29f3770ca2d7129c64429c86bdf1",
      "blockNumber": "0x19e97ac",
      "gasUsed": "0x7522",
      "effectiveGasPrice": "0x1ae9f",
      "from": "0xa6b3d200cd34ca14d7579dac8b054bf50a62c37c",
      "to": "0x856e780cf7f4d47b24142e280ba30b399dc6daaa",
      "contractAddress": null,
      "l1BaseFeeScalar": "0x44d",
      "l1BlobBaseFee": "0x1",
      "l1BlobBaseFeeScalar": "0xa118b",
      "l1Fee": "0x38624",
      "l1GasPrice": "0x1fff8",
      "l1GasUsed": "0x640"
    }
  ],
  "libraries": [],
  "pending": [],
  "returns": {},
  "timestamp": 1750109753,
  "chain": 84532,
  "commit": "22b5654"
}