{
  "transactions": [
    {
      "hash": "0x87fb0cf20e3d54b8f8ee0acb33c0460f2833c122396acf07bd7f949dc6053697",
      "transactionType": "CALL",
      "contractName": null,
      "contractAddress": "0x6c060e06d10c62d50e3c51470676cd370d6dde57",
      "function": "setMockTokens(address,address,address)",
      "arguments": [
        "0x1258c1887C17893ba4b1018DC9066C3E3Af87F86",
        "0xd3DBfCe47c87F3163AA20D904b4D0eD365b1D912",
        "0x2A0460cfD81cd057FCB2acc395181dBB1eF5779C"
      ],
      "transaction": {
        "from": "0xa6b3d200cd34ca14d7579dac8b054bf50a62c37c",
        "to": "0x6c060e06d10c62d50e3c51470676cd370d6dde57",
        "gas": "0x3b27d",
        "value": "0x0",
        "input": "0x6392b99c0000000000000000000000001258c1887c17893ba4b1018dc9066c3e3af87f86000000000000000000000000d3dbfce47c87f3163aa20d904b4d0ed365b1d9120000000000000000000000002a0460cfd81cd057fcb2acc395181dbb1ef5779c",
        "nonce": "0x13c3",
        "chainId": "0x14a34"
      },
      "additionalContracts": [],
      "isFixedGasLimit": false
    },
    {
      "hash": "0x1de833c9f850352aac4877161e6f5c4fff44a0ce4399eae7a28419e280beff21",
      "transactionType": "CALL",
      "contractName": null,
      "contractAddress": "0x6c060e06d10c62d50e3c51470676cd370d6dde57",
      "function": "setChainlinkEnabled(bool)",
      "arguments": [
        "true"
      ],
      "transaction": {
        "from": "0xa6b3d200cd34ca14d7579dac8b054bf50a62c37c",
        "to": "0x6c060e06d10c62d50e3c51470676cd370d6dde57",
        "gas": "0xab64",
        "value": "0x0",
        "input": "0x058f3bc80000000000000000000000000000000000000000000000000000000000000001",
        "nonce": "0x13c4",
        "chainId": "0x14a34"
      },
      "additionalContracts": [],
      "isFixedGasLimit": false
    }
  ],
  "receipts": [
    {
      "status": "0x1",
      "cumulativeGasUsed": "0x8d65d",
      "logs": [
        {
          "address": "0x6c060e06d10c62d50e3c51470676cd370d6dde57",
          "topics": [
            "0xa4a204fa26714a90a8cea4be2a38ce6d1bf79dcebc5d05bc7d24d0e18bf09cb2",
            "0x0000000000000000000000001258c1887c17893ba4b1018dc9066c3e3af87f86",
            "0x0000000000000000000000002a0460cfd81cd057fcb2acc395181dbb1ef5779c"
          ],
          "data": "0x000000000000000000000000000000000000000000000000000000009502f9000000000000000000000000000000000000000000000000000000000000000002",
          "blockHash": "0xb69acc9cb092496987545643aa83955f61611cc3cbf32d86967515ee12c53928",
          "blockNumber": "0x1a0005e",
          "transactionHash": "0x87fb0cf20e3d54b8f8ee0acb33c0460f2833c122396acf07bd7f949dc6053697",
          "transactionIndex": "0x2",
          "logIndex": "0xb",
          "removed": false
        },
        {
          "address": "0x6c060e06d10c62d50e3c51470676cd370d6dde57",
          "topics": [
            "0xa4a204fa26714a90a8cea4be2a38ce6d1bf79dcebc5d05bc7d24d0e18bf09cb2",
            "0x000000000000000000000000d3dbfce47c87f3163aa20d904b4d0ed365b1d912",
            "0x0000000000000000000000002a0460cfd81cd057fcb2acc395181dbb1ef5779c"
          ],
          "data": "0x000000000000000000000000000000000000000000000000000000161e70f6000000000000000000000000000000000000000000000000000000000000000002",
          "blockHash": "0xb69acc9cb092496987545643aa83955f61611cc3cbf32d86967515ee12c53928",
          "blockNumber": "0x1a0005e",
          "transactionHash": "0x87fb0cf20e3d54b8f8ee0acb33c0460f2833c122396acf07bd7f949dc6053697",
          "transactionIndex": "0x2",
          "logIndex": "0xc",
          "removed": false
        },
        {
          "address": "0x6c060e06d10c62d50e3c51470676cd370d6dde57",
          "topics": [
            "0xa4a204fa26714a90a8cea4be2a38ce6d1bf79dcebc5d05bc7d24d0e18bf09cb2",
            "0x0000000000000000000000002a0460cfd81cd057fcb2acc395181dbb1ef5779c",
            "0x0000000000000000000000002a0460cfd81cd057fcb2acc395181dbb1ef5779c"
          ],
          "data": "0x00000000000000000000000000000000000000000000000000000000000f42400000000000000000000000000000000000000000000000000000000000000002",
          "blockHash": "0xb69acc9cb092496987545643aa83955f61611cc3cbf32d86967515ee12c53928",
          "blockNumber": "0x1a0005e",
          "transactionHash": "0x87fb0cf20e3d54b8f8ee0acb33c0460f2833c122396acf07bd7f949dc6053697",
          "transactionIndex": "0x2",
          "logIndex": "0xd",
          "removed": false
        },
        {
          "address": "0x6c060e06d10c62d50e3c51470676cd370d6dde57",
          "topics": [
            "0xa4a204fa26714a90a8cea4be2a38ce6d1bf79dcebc5d05bc7d24d0e18bf09cb2",
            "0x0000000000000000000000002a0460cfd81cd057fcb2acc395181dbb1ef5779c",
            "0x0000000000000000000000001258c1887c17893ba4b1018dc9066c3e3af87f86"
          ],
          "data": "0x00000000000000000000000000000000000000000000000000000000000001900000000000000000000000000000000000000000000000000000000000000002",
          "blockHash": "0xb69acc9cb092496987545643aa83955f61611cc3cbf32d86967515ee12c53928",
          "blockNumber": "0x1a0005e",
          "transactionHash": "0x87fb0cf20e3d54b8f8ee0acb33c0460f2833c122396acf07bd7f949dc6053697",
          "transactionIndex": "0x2",
          "logIndex": "0xe",
          "removed": false
        },
        {
          "address": "0x6c060e06d10c62d50e3c51470676cd370d6dde57",
          "topics": [
            "0xa4a204fa26714a90a8cea4be2a38ce6d1bf79dcebc5d05bc7d24d0e18bf09cb2",
            "0x0000000000000000000000002a0460cfd81cd057fcb2acc395181dbb1ef5779c",
            "0x000000000000000000000000d3dbfce47c87f3163aa20d904b4d0ed365b1d912"
          ],
          "data": "0x00000000000000000000000000000000000000000000000000000000000000160000000000000000000000000000000000000000000000000000000000000002",
          "blockHash": "0xb69acc9cb092496987545643aa83955f61611cc3cbf32d86967515ee12c53928",
          "blockNumber": "0x1a0005e",
          "transactionHash": "0x87fb0cf20e3d54b8f8ee0acb33c0460f2833c122396acf07bd7f949dc6053697",
          "transactionIndex": "0x2",
          "logIndex": "0xf",
          "removed": false
        },
        {
          "address": "0x6c060e06d10c62d50e3c51470676cd370d6dde57",
          "topics": [
            "0xa4a204fa26714a90a8cea4be2a38ce6d1bf79dcebc5d05bc7d24d0e18bf09cb2",
            "0x0000000000000000000000001258c1887c17893ba4b1018dc9066c3e3af87f86",
            "0x000000000000000000000000d3dbfce47c87f3163aa20d904b4d0ed365b1d912"
          ],
          "data": "0x000000000000000000000000000000000000000000000000000000000000d9040000000000000000000000000000000000000000000000000000000000000002",
          "blockHash": "0xb69acc9cb092496987545643aa83955f61611cc3cbf32d86967515ee12c53928",
          "blockNumber": "0x1a0005e",
          "transactionHash": "0x87fb0cf20e3d54b8f8ee0acb33c0460f2833c122396acf07bd7f949dc6053697",
          "transactionIndex": "0x2",
          "logIndex": "0x10",
          "removed": false
        },
        {
          "address": "0x6c060e06d10c62d50e3c51470676cd370d6dde57",
          "topics": [
            "0xa4a204fa26714a90a8cea4be2a38ce6d1bf79dcebc5d05bc7d24d0e18bf09cb2",
            "0x000000000000000000000000d3dbfce47c87f3163aa20d904b4d0ed365b1d912",
            "0x0000000000000000000000001258c1887c17893ba4b1018dc9066c3e3af87f86"
          ],
          "data": "0x000000000000000000000000000000000000000000000000000000000112a8800000000000000000000000000000000000000000000000000000000000000002",
          "blockHash": "0xb69acc9cb092496987545643aa83955f61611cc3cbf32d86967515ee12c53928",
          "blockNumber": "0x1a0005e",
          "transactionHash": "0x87fb0cf20e3d54b8f8ee0acb33c0460f2833c122396acf07bd7f949dc6053697",
          "transactionIndex": "0x2",
          "logIndex": "0x11",
          "removed": false
        }
      ],
      "logsBloom": "0x00000000000000001000000000000000000000000000000000000000000000000000000000000000000000000000000000000000000000000020000000000000000000000000000000000400000000000000000000000000000000000000000000000000000000000000000000000000000000000000000000002000000000000000000000000000000020000000000000000000000000000004004001000000000000000000000000000000000000040000000000000000000000008000000000000000020000000400000000000000000000000000000000000000000000800000000000000000200000000000000000000000000000010000000000000000",
      "type": "0x0",
      "transactionHash": "0x87fb0cf20e3d54b8f8ee0acb33c0460f2833c122396acf07bd7f949dc6053697",
      "transactionIndex": "0x2",
      "blockHash": "0xb69acc9cb092496987545643aa83955f61611cc3cbf32d86967515ee12c53928",
      "blockNumber": "0x1a0005e",
      "gasUsed": "0x2ad3f",
      "effectiveGasPrice": "0xf4290",
      "from": "0xa6b3d200cd34ca14d7579dac8b054bf50a62c37c",
      "to": "0x6c060e06d10c62d50e3c51470676cd370d6dde57",
      "contractAddress": null,
      "l1BaseFeeScalar": "0x44d",
      "l1BlobBaseFee": "0x1",
      "l1BlobBaseFeeScalar": "0xa118b",
      "l1Fee": "0x5db8",
      "l1GasPrice": "0x2d41",
      "l1GasUsed": "0x752"
    },
    {
      "status": "0x1",
      "cumulativeGasUsed": "0xc3b26",
      "logs": [
        {
          "address": "0x6c060e06d10c62d50e3c51470676cd370d6dde57",
          "topics": [
            "0x51896a423f4772bc4f6298b69c1f10c8330af973be38b7cacc105b5fc4ba035d"
          ],
          "data": "0x0000000000000000000000000000000000000000000000000000000000000001",
          "blockHash": "0x0d395729638aa42396d9339fd425bdf5654e5b263344829fc8481e66040d0ae7",
          "blockNumber": "0x1a00060",
          "transactionHash": "0x1de833c9f850352aac4877161e6f5c4fff44a0ce4399eae7a28419e280beff21",
          "transactionIndex": "0x5",
          "logIndex": "0x13",
          "removed": false
        }
      ],
      "logsBloom": "0x00000000000000000000000000000000000000000000000000000000000000000000000000000000000000000000000000000000000000000000000000000000000000000000000000000000000000000000000000000000000000000000000000000000000200000000000000000000000000000000000000000000000000000000000000000000000080000000200000000000000000000000004000000000000000000000000000000000000000040000000000000000000000008000000000000000000000000000000000000000000000000000000000000000000000000000000000000000000000000000000000000000000000000000000000000000",
      "type": "0x0",
      "transactionHash": "0x1de833c9f850352aac4877161e6f5c4fff44a0ce4399eae7a28419e280beff21",
      "transactionIndex": "0x5",
      "blockHash": "0x0d395729638aa42396d9339fd425bdf5654e5b263344829fc8481e66040d0ae7",
      "blockNumber": "0x1a00060",
      "gasUsed": "0x7531",
      "effectiveGasPrice": "0xf4290",
      "from": "0xa6b3d200cd34ca14d7579dac8b054bf50a62c37c",
      "to": "0x6c060e06d10c62d50e3c51470676cd370d6dde57",
      "contractAddress": null,
      "l1BaseFeeScalar": "0x44d",
      "l1BlobBaseFee": "0x1",
      "l1BlobBaseFeeScalar": "0xa118b",
      "l1Fee": "0x4ffa",
      "l1GasPrice": "0x2d41",
      "l1GasUsed": "0x640"
    }
  ],
  "libraries": [],
  "pending": [],
  "returns": {},
  "timestamp": 1750294433,
  "chain": 84532,
  "commit": "16e600a"
}