{
  "transactions": [
    {
      "hash": "0x41ac31ebd1a1fe60c26acbcbff95bfd9d8a7aedc9fb3b09cb178eaad0d29dd57",
      "transactionType": "CALL",
      "contractName": "VCOPCollateralManager",
      "contractAddress": "0x8f17e2128a4f917ec4147c15fc90badd79e7f090",
      "function": "createPosition(address,uint256,uint256)",
      "arguments": [
        "0x5405e3a584014c8659BA10591c1b7D55cB1cFc0d",
        "1000000000",
        "2240000000000"
      ],
      "transaction": {
        "from": "0xa6b3d200cd34ca14d7579dac8b054bf50a62c37c",
        "to": "0x8f17e2128a4f917ec4147c15fc90badd79e7f090",
        "gas": "0x37ebd",
        "value": "0x0",
        "input": "0x75a08cce0000000000000000000000005405e3a584014c8659ba10591c1b7d55cb1cfc0d000000000000000000000000000000000000000000000000000000003b9aca00000000000000000000000000000000000000000000000000000002098a678000",
        "nonce": "0xc3c",
        "chainId": "0x14a34"
      },
      "additionalContracts": [],
      "isFixedGasLimit": false
    },
    {
      "hash": "0x69a020f5f287bd1c3351163eba2f59cffaa309160d028dc5c206ad2a31c46926",
      "transactionType": "CALL",
      "contractName": "VCOPCollateralManager",
      "contractAddress": "0x8f17e2128a4f917ec4147c15fc90badd79e7f090",
      "function": "addCollateral(uint256,uint256)",
      "arguments": [
        "30",
        "500000000"
      ],
      "transaction": {
        "from": "0xa6b3d200cd34ca14d7579dac8b054bf50a62c37c",
        "to": "0x8f17e2128a4f917ec4147c15fc90badd79e7f090",
        "gas": "0x119f3",
        "value": "0x0",
        "input": "0xa8f35adf000000000000000000000000000000000000000000000000000000000000001e000000000000000000000000000000000000000000000000000000001dcd6500",
        "nonce": "0xc3d",
        "chainId": "0x14a34"
      },
      "additionalContracts": [],
      "isFixedGasLimit": false
    },
    {
      "hash": "0x05242937819c3f6e782ccee8aa7db09615577337edab17b7d34319aff5c9e78b",
      "transactionType": "CALL",
      "contractName": "VCOPCollateralManager",
      "contractAddress": "0x8f17e2128a4f917ec4147c15fc90badd79e7f090",
      "function": "withdrawCollateral(uint256,uint256)",
      "arguments": [
        "30",
        "125000000"
      ],
      "transaction": {
        "from": "0xa6b3d200cd34ca14d7579dac8b054bf50a62c37c",
        "to": "0x8f17e2128a4f917ec4147c15fc90badd79e7f090",
        "gas": "0x1863a",
        "value": "0x0",
        "input": "0x767a7b05000000000000000000000000000000000000000000000000000000000000001e0000000000000000000000000000000000000000000000000000000007735940",
        "nonce": "0xc3e",
        "chainId": "0x14a34"
      },
      "additionalContracts": [],
      "isFixedGasLimit": false
    },
    {
      "hash": "0x47ebbb96ac79d6ccfb1ceaa883568da2b1bf64c5de775d949c03ae8ca62ca346",
      "transactionType": "CALL",
      "contractName": "VCOPCollateralized",
      "contractAddress": "0x3d384beb1ba0197e6a87668e1d68267164c8b776",
      "function": "approve(address,uint256)",
      "arguments": [
        "0x8f17E2128a4F917ec4147c15FC90bADd79E7F090",
        "672000000000"
      ],
      "transaction": {
        "from": "0xa6b3d200cd34ca14d7579dac8b054bf50a62c37c",
        "to": "0x3d384beb1ba0197e6a87668e1d68267164c8b776",
        "gas": "0x9baf",
        "value": "0x0",
        "input": "0x095ea7b30000000000000000000000008f17e2128a4f917ec4147c15fc90badd79e7f0900000000000000000000000000000000000000000000000000000009c76524000",
        "nonce": "0xc3f",
        "chainId": "0x14a34"
      },
      "additionalContracts": [],
      "isFixedGasLimit": false
    },
    {
      "hash": "0x5383628dc682ace30f843d854ebea4f02a3843446a471d94972482e5d64309d9",
      "transactionType": "CALL",
      "contractName": "VCOPCollateralManager",
      "contractAddress": "0x8f17e2128a4f917ec4147c15fc90badd79e7f090",
      "function": "repayDebt(uint256,uint256)",
      "arguments": [
        "30",
        "672000000000"
      ],
      "transaction": {
        "from": "0xa6b3d200cd34ca14d7579dac8b054bf50a62c37c",
        "to": "0x8f17e2128a4f917ec4147c15fc90badd79e7f090",
        "gas": "0x18a4b",
        "value": "0x0",
        "input": "0x015cb0a5000000000000000000000000000000000000000000000000000000000000001e0000000000000000000000000000000000000000000000000000009c76524000",
        "nonce": "0xc40",
        "chainId": "0x14a34"
      },
      "additionalContracts": [],
      "isFixedGasLimit": false
    },
    {
      "hash": "0xa6782a2fa8fe49da92e52ebe7d0cc80bfda47e9ac23529b627d6912669dead57",
      "transactionType": "CALL",
      "contractName": "VCOPCollateralized",
      "contractAddress": "0x3d384beb1ba0197e6a87668e1d68267164c8b776",
      "function": "approve(address,uint256)",
      "arguments": [
        "0x8f17E2128a4F917ec4147c15FC90bADd79E7F090",
        "1568000000000"
      ],
      "transaction": {
        "from": "0xa6b3d200cd34ca14d7579dac8b054bf50a62c37c",
        "to": "0x3d384beb1ba0197e6a87668e1d68267164c8b776",
        "gas": "0xa4e9",
        "value": "0x0",
        "input": "0x095ea7b30000000000000000000000008f17e2128a4f917ec4147c15fc90badd79e7f0900000000000000000000000000000000000000000000000000000016d14154000",
        "nonce": "0xc41",
        "chainId": "0x14a34"
      },
      "additionalContracts": [],
      "isFixedGasLimit": false
    },
    {
      "hash": "0x63ecf903a7bec6052eb4b40c0b5cd062ce92839ffa59a189babad56156088e9f",
      "transactionType": "CALL",
      "contractName": "VCOPCollateralManager",
      "contractAddress": "0x8f17e2128a4f917ec4147c15fc90badd79e7f090",
      "function": "repayDebt(uint256,uint256)",
      "arguments": [
        "30",
        "1568000000000"
      ],
      "transaction": {
        "from": "0xa6b3d200cd34ca14d7579dac8b054bf50a62c37c",
        "to": "0x8f17e2128a4f917ec4147c15fc90badd79e7f090",
        "gas": "0x1e0c1",
        "value": "0x0",
        "input": "0x015cb0a5000000000000000000000000000000000000000000000000000000000000001e0000000000000000000000000000000000000000000000000000016d14154000",
        "nonce": "0xc42",
        "chainId": "0x14a34"
      },
      "additionalContracts": [],
      "isFixedGasLimit": false
    }
  ],
  "receipts": [
    {
      "status": "0x1",
      "cumulativeGasUsed": "0x1bdb22",
      "logs": [
        {
          "address": "0x5405e3a584014c8659ba10591c1b7d55cb1cfc0d",
          "topics": [
            "0xddf252ad1be2c89b69c2b068fc378daa952ba7f163c4a11628f55a4df523b3ef",
            "0x000000000000000000000000a6b3d200cd34ca14d7579dac8b054bf50a62c37c",
            "0x0000000000000000000000008f17e2128a4f917ec4147c15fc90badd79e7f090"
          ],
          "data": "0x000000000000000000000000000000000000000000000000000000003b9aca00",
          "blockHash": "0xf432e9aebfa4b598bfab4ad8152ebba1f502e8f95c9d36eb4695579f0d50f0b8",
          "blockNumber": "0x19eb465",
          "transactionHash": "0x41ac31ebd1a1fe60c26acbcbff95bfd9d8a7aedc9fb3b09cb178eaad0d29dd57",
          "transactionIndex": "0x8",
          "logIndex": "0x2b",
          "removed": false
        },
        {
          "address": "0x3d384beb1ba0197e6a87668e1d68267164c8b776",
          "topics": [
            "0xddf252ad1be2c89b69c2b068fc378daa952ba7f163c4a11628f55a4df523b3ef",
            "0x0000000000000000000000000000000000000000000000000000000000000000",
            "0x000000000000000000000000a6b3d200cd34ca14d7579dac8b054bf50a62c37c"
          ],
          "data": "0x0000000000000000000000000000000000000000000000000000020904e3d000",
          "blockHash": "0xf432e9aebfa4b598bfab4ad8152ebba1f502e8f95c9d36eb4695579f0d50f0b8",
          "blockNumber": "0x19eb465",
          "transactionHash": "0x41ac31ebd1a1fe60c26acbcbff95bfd9d8a7aedc9fb3b09cb178eaad0d29dd57",
          "transactionIndex": "0x8",
          "logIndex": "0x2c",
          "removed": false
        },
        {
          "address": "0x3d384beb1ba0197e6a87668e1d68267164c8b776",
          "topics": [
            "0xddf252ad1be2c89b69c2b068fc378daa952ba7f163c4a11628f55a4df523b3ef",
            "0x0000000000000000000000000000000000000000000000000000000000000000",
            "0x000000000000000000000000a6b3d200cd34ca14d7579dac8b054bf50a62c37c"
          ],
          "data": "0x000000000000000000000000000000000000000000000000000000008583b000",
          "blockHash": "0xf432e9aebfa4b598bfab4ad8152ebba1f502e8f95c9d36eb4695579f0d50f0b8",
          "blockNumber": "0x19eb465",
          "transactionHash": "0x41ac31ebd1a1fe60c26acbcbff95bfd9d8a7aedc9fb3b09cb178eaad0d29dd57",
          "transactionIndex": "0x8",
          "logIndex": "0x2d",
          "removed": false
        },
        {
          "address": "0x8f17e2128a4f917ec4147c15fc90badd79e7f090",
          "topics": [
            "0xafda9316e64488bba379a6614bcee4516ef1793ee3844298c937b46b2cae5829"
          ],
          "data": "0x000000000000000000000000a6b3d200cd34ca14d7579dac8b054bf50a62c37c000000000000000000000000000000000000000000000000000000000000001e0000000000000000000000005405e3a584014c8659ba10591c1b7d55cb1cfc0d000000000000000000000000000000000000000000000000000000003b9aca00000000000000000000000000000000000000000000000000000002098a678000",
          "blockHash": "0xf432e9aebfa4b598bfab4ad8152ebba1f502e8f95c9d36eb4695579f0d50f0b8",
          "blockNumber": "0x19eb465",
          "transactionHash": "0x41ac31ebd1a1fe60c26acbcbff95bfd9d8a7aedc9fb3b09cb178eaad0d29dd57",
          "transactionIndex": "0x8",
          "logIndex": "0x2e",
          "removed": false
        },
        {
          "address": "0x8f17e2128a4f917ec4147c15fc90badd79e7f090",
          "topics": [
            "0xb8d0a675deb3f0103b7b5bfee7759ee667ec4a083833f9674ae14b688cb10551"
          ],
          "data": "0x000000000000000000000000a6b3d200cd34ca14d7579dac8b054bf50a62c37c0000000000000000000000000000000000000000000000000000020904e3d000",
          "blockHash": "0xf432e9aebfa4b598bfab4ad8152ebba1f502e8f95c9d36eb4695579f0d50f0b8",
          "blockNumber": "0x19eb465",
          "transactionHash": "0x41ac31ebd1a1fe60c26acbcbff95bfd9d8a7aedc9fb3b09cb178eaad0d29dd57",
          "transactionIndex": "0x8",
          "logIndex": "0x2f",
          "removed": false
        }
      ],
      "logsBloom": "0x00000000002000000000000404000000008000000000000002000000000000000000080000000000000000000000000000000000000000000000000000000020000000000000000000000008000000000000000000000000000000000400000000800000020000200000000000000800000000002000000000000010000000000000000000200000000000020000000000000000000000000000000000400000000000000000000000000000000008000000000000000000000000000000000000000042000000000000000000000000000000020000000000000000000020100001000000000400000000000000000000000000000000000000800000000000",
      "type": "0x2",
      "transactionHash": "0x41ac31ebd1a1fe60c26acbcbff95bfd9d8a7aedc9fb3b09cb178eaad0d29dd57",
      "transactionIndex": "0x8",
      "blockHash": "0xf432e9aebfa4b598bfab4ad8152ebba1f502e8f95c9d36eb4695579f0d50f0b8",
      "blockNumber": "0x19eb465",
      "gasUsed": "0x287c7",
      "effectiveGasPrice": "0x3aee4",
      "from": "0xa6b3d200cd34ca14d7579dac8b054bf50a62c37c",
      "to": "0x8f17e2128a4f917ec4147c15fc90badd79e7f090",
      "contractAddress": null,
      "l1BaseFeeScalar": "0x44d",
      "l1BlobBaseFee": "0x1",
      "l1BlobBaseFeeScalar": "0xa118b",
      "l1Fee": "0x1a53d",
      "l1GasPrice": "0xeefa",
      "l1GasUsed": "0x640"
    },
    {
      "status": "0x1",
      "cumulativeGasUsed": "0x1c9bec",
      "logs": [
        {
          "address": "0x5405e3a584014c8659ba10591c1b7d55cb1cfc0d",
          "topics": [
            "0xddf252ad1be2c89b69c2b068fc378daa952ba7f163c4a11628f55a4df523b3ef",
            "0x000000000000000000000000a6b3d200cd34ca14d7579dac8b054bf50a62c37c",
            "0x0000000000000000000000008f17e2128a4f917ec4147c15fc90badd79e7f090"
          ],
          "data": "0x000000000000000000000000000000000000000000000000000000001dcd6500",
          "blockHash": "0xf432e9aebfa4b598bfab4ad8152ebba1f502e8f95c9d36eb4695579f0d50f0b8",
          "blockNumber": "0x19eb465",
          "transactionHash": "0x69a020f5f287bd1c3351163eba2f59cffaa309160d028dc5c206ad2a31c46926",
          "transactionIndex": "0x9",
          "logIndex": "0x30",
          "removed": false
        },
        {
          "address": "0x8f17e2128a4f917ec4147c15fc90badd79e7f090",
          "topics": [
            "0xf4d587c98d234ca4d147061e6b5167e7f41ee17f11562a9f0b49570abece859e"
          ],
          "data": "0x000000000000000000000000a6b3d200cd34ca14d7579dac8b054bf50a62c37c000000000000000000000000000000000000000000000000000000000000001e000000000000000000000000000000000000000000000000000000001dcd6500",
          "blockHash": "0xf432e9aebfa4b598bfab4ad8152ebba1f502e8f95c9d36eb4695579f0d50f0b8",
          "blockNumber": "0x19eb465",
          "transactionHash": "0x69a020f5f287bd1c3351163eba2f59cffaa309160d028dc5c206ad2a31c46926",
          "transactionIndex": "0x9",
          "logIndex": "0x31",
          "removed": false
        }
      ],
      "logsBloom": "0x00000000002020000000000404000000000000000000000002000000000000000000080000000000000000000000000000000000000000000000000000000020000000000000000000000008000000000000000000000000000000000400000000000000000000000000000000000000000000000000000000000010000000000000080000000000000000000000000400000000000000000000000000000000000000000000000000000000000008000000000000000000000000000000000000000042000000000000000000000000000000000000000000000000000000000001000000000400000000000000000000000000000000000000800000000000",
      "type": "0x2",
      "transactionHash": "0x69a020f5f287bd1c3351163eba2f59cffaa309160d028dc5c206ad2a31c46926",
      "transactionIndex": "0x9",
      "blockHash": "0xf432e9aebfa4b598bfab4ad8152ebba1f502e8f95c9d36eb4695579f0d50f0b8",
      "blockNumber": "0x19eb465",
      "gasUsed": "0xc0ca",
      "effectiveGasPrice": "0x3aee4",
      "from": "0xa6b3d200cd34ca14d7579dac8b054bf50a62c37c",
      "to": "0x8f17e2128a4f917ec4147c15fc90badd79e7f090",
      "contractAddress": null,
      "l1BaseFeeScalar": "0x44d",
      "l1BlobBaseFee": "0x1",
      "l1BlobBaseFeeScalar": "0xa118b",
      "l1Fee": "0x1a53d",
      "l1GasPrice": "0xeefa",
      "l1GasUsed": "0x640"
    },
    {
      "status": "0x1",
      "cumulativeGasUsed": "0x1db671",
      "logs": [
        {
          "address": "0x5405e3a584014c8659ba10591c1b7d55cb1cfc0d",
          "topics": [
            "0xddf252ad1be2c89b69c2b068fc378daa952ba7f163c4a11628f55a4df523b3ef",
            "0x0000000000000000000000008f17e2128a4f917ec4147c15fc90badd79e7f090",
            "0x000000000000000000000000a6b3d200cd34ca14d7579dac8b054bf50a62c37c"
          ],
          "data": "0x0000000000000000000000000000000000000000000000000000000007735940",
          "blockHash": "0xf432e9aebfa4b598bfab4ad8152ebba1f502e8f95c9d36eb4695579f0d50f0b8",
          "blockNumber": "0x19eb465",
          "transactionHash": "0x05242937819c3f6e782ccee8aa7db09615577337edab17b7d34319aff5c9e78b",
          "transactionIndex": "0xa",
          "logIndex": "0x32",
          "removed": false
        },
        {
          "address": "0x8f17e2128a4f917ec4147c15fc90badd79e7f090",
          "topics": [
            "0xdaed309a628faec6cab72194019e2a1a34e890ca9bf9be99788992dd54692819"
          ],
          "data": "0x000000000000000000000000a6b3d200cd34ca14d7579dac8b054bf50a62c37c000000000000000000000000000000000000000000000000000000000000001e0000000000000000000000000000000000000000000000000000000007735940",
          "blockHash": "0xf432e9aebfa4b598bfab4ad8152ebba1f502e8f95c9d36eb4695579f0d50f0b8",
          "blockNumber": "0x19eb465",
          "transactionHash": "0x05242937819c3f6e782ccee8aa7db09615577337edab17b7d34319aff5c9e78b",
          "transactionIndex": "0xa",
          "logIndex": "0x33",
          "removed": false
        }
      ],
      "logsBloom": "0x00000000002000000000000404000000000000000000000002000000000000000000080080000000000000000000000000000000000000000002000000000020000000000000000000000008000000000000000000000000000000000400000000000000000000000000000000000000000000000000000000000010000000000000000000000000000000000000000000000000000000000000000000000000000000000000000000000000000008000000000000000000000000000000000000000042000000000000000000000000000000000000000000000000000000000001000000000400000000000000000000000000000020000000800000000000",
      "type": "0x2",
      "transactionHash": "0x05242937819c3f6e782ccee8aa7db09615577337edab17b7d34319aff5c9e78b",
      "transactionIndex": "0xa",
      "blockHash": "0xf432e9aebfa4b598bfab4ad8152ebba1f502e8f95c9d36eb4695579f0d50f0b8",
      "blockNumber": "0x19eb465",
      "gasUsed": "0x11a85",
      "effectiveGasPrice": "0x3aee4",
      "from": "0xa6b3d200cd34ca14d7579dac8b054bf50a62c37c",
      "to": "0x8f17e2128a4f917ec4147c15fc90badd79e7f090",
      "contractAddress": null,
      "l1BaseFeeScalar": "0x44d",
      "l1BlobBaseFee": "0x1",
      "l1BlobBaseFeeScalar": "0xa118b",
      "l1Fee": "0x1a53d",
      "l1GasPrice": "0xeefa",
      "l1GasUsed": "0x640"
    },
    {
      "status": "0x1",
      "cumulativeGasUsed": "0x1e2728",
      "logs": [
        {
          "address": "0x3d384beb1ba0197e6a87668e1d68267164c8b776",
          "topics": [
            "0x8c5be1e5ebec7d5bd14f71427d1e84f3dd0314c0f7b2291e5b200ac8c7c3b925",
            "0x000000000000000000000000a6b3d200cd34ca14d7579dac8b054bf50a62c37c",
            "0x0000000000000000000000008f17e2128a4f917ec4147c15fc90badd79e7f090"
          ],
          "data": "0x0000000000000000000000000000000000000000000000000000009c76524000",
          "blockHash": "0xf432e9aebfa4b598bfab4ad8152ebba1f502e8f95c9d36eb4695579f0d50f0b8",
          "blockNumber": "0x19eb465",
          "transactionHash": "0x47ebbb96ac79d6ccfb1ceaa883568da2b1bf64c5de775d949c03ae8ca62ca346",
          "transactionIndex": "0xb",
          "logIndex": "0x34",
          "removed": false
        }
      ],
      "logsBloom": "0x00000000000000000000000404000000008000000000000002000000000000000000000000000000000000000000000000000000000000000000000000200000000000000000000000000000000000000000000000000000000000000000000000000000000000000000000000000000000000002000000000000000000000000000000000000000000000020000000000000000000000000000000000000000020000000000000000000000000008000000000000000000000000000000000000000040000000000000000000000000000000000000000000000000000000000010000000000000000000000000000000000000000000000000800000000000",
      "type": "0x2",
      "transactionHash": "0x47ebbb96ac79d6ccfb1ceaa883568da2b1bf64c5de775d949c03ae8ca62ca346",
      "transactionIndex": "0xb",
      "blockHash": "0xf432e9aebfa4b598bfab4ad8152ebba1f502e8f95c9d36eb4695579f0d50f0b8",
      "blockNumber": "0x19eb465",
      "gasUsed": "0x70b7",
      "effectiveGasPrice": "0x3aee4",
      "from": "0xa6b3d200cd34ca14d7579dac8b054bf50a62c37c",
      "to": "0x3d384beb1ba0197e6a87668e1d68267164c8b776",
      "contractAddress": null,
      "l1BaseFeeScalar": "0x44d",
      "l1BlobBaseFee": "0x1",
      "l1BlobBaseFeeScalar": "0xa118b",
      "l1Fee": "0x1a53d",
      "l1GasPrice": "0xeefa",
      "l1GasUsed": "0x640"
    },
    {
      "status": "0x1",
      "cumulativeGasUsed": "0x1f449f",
      "logs": [
        {
          "address": "0x3d384beb1ba0197e6a87668e1d68267164c8b776",
          "topics": [
            "0xddf252ad1be2c89b69c2b068fc378daa952ba7f163c4a11628f55a4df523b3ef",
            "0x000000000000000000000000a6b3d200cd34ca14d7579dac8b054bf50a62c37c",
            "0x0000000000000000000000000000000000000000000000000000000000000000"
          ],
          "data": "0x0000000000000000000000000000000000000000000000000000009c76524000",
          "blockHash": "0xf432e9aebfa4b598bfab4ad8152ebba1f502e8f95c9d36eb4695579f0d50f0b8",
          "blockNumber": "0x19eb465",
          "transactionHash": "0x5383628dc682ace30f843d854ebea4f02a3843446a471d94972482e5d64309d9",
          "transactionIndex": "0xc",
          "logIndex": "0x35",
          "removed": false
        },
        {
          "address": "0x3d384beb1ba0197e6a87668e1d68267164c8b776",
          "topics": [
            "0xddf252ad1be2c89b69c2b068fc378daa952ba7f163c4a11628f55a4df523b3ef",
            "0x0000000000000000000000000000000000000000000000000000000000000000",
            "0x000000000000000000000000a6b3d200cd34ca14d7579dac8b054bf50a62c37c"
          ],
          "data": "0x00000000000000000000000000000000000000000000000000000000280de800",
          "blockHash": "0xf432e9aebfa4b598bfab4ad8152ebba1f502e8f95c9d36eb4695579f0d50f0b8",
          "blockNumber": "0x19eb465",
          "transactionHash": "0x5383628dc682ace30f843d854ebea4f02a3843446a471d94972482e5d64309d9",
          "transactionIndex": "0xc",
          "logIndex": "0x36",
          "removed": false
        },
        {
          "address": "0x8f17e2128a4f917ec4147c15fc90badd79e7f090",
          "topics": [
            "0x73d7115a3106da3e0d40e7f29f2941645b2b6f2fd75328fa464692cf0e42a39f"
          ],
          "data": "0x000000000000000000000000a6b3d200cd34ca14d7579dac8b054bf50a62c37c0000000000000000000000000000000000000000000000000000009c76524000",
          "blockHash": "0xf432e9aebfa4b598bfab4ad8152ebba1f502e8f95c9d36eb4695579f0d50f0b8",
          "blockNumber": "0x19eb465",
          "transactionHash": "0x5383628dc682ace30f843d854ebea4f02a3843446a471d94972482e5d64309d9",
          "transactionIndex": "0xc",
          "logIndex": "0x37",
          "removed": false
        }
      ],
      "logsBloom": "0x00000000002000000000000400000000008000000000000002000000000000000000000000000000000000000000000000000000000000000000000000000000000000000000000000000008000000000000000000000000040000000400000000000000020000000000000000000800000000002000000000000010000000000000000000001000000000020000000000000000000000000000000000000000000000000000000000000000000000000000000000000000000000000000000000200042000000000000000000000000000000000000000000000000000020000000000000000400000000000000000000000000000000000000000000000000",
      "type": "0x2",
      "transactionHash": "0x5383628dc682ace30f843d854ebea4f02a3843446a471d94972482e5d64309d9",
      "transactionIndex": "0xc",
      "blockHash": "0xf432e9aebfa4b598bfab4ad8152ebba1f502e8f95c9d36eb4695579f0d50f0b8",
      "blockNumber": "0x19eb465",
      "gasUsed": "0x11d77",
      "effectiveGasPrice": "0x3aee4",
      "from": "0xa6b3d200cd34ca14d7579dac8b054bf50a62c37c",
      "to": "0x8f17e2128a4f917ec4147c15fc90badd79e7f090",
      "contractAddress": null,
      "l1BaseFeeScalar": "0x44d",
      "l1BlobBaseFee": "0x1",
      "l1BlobBaseFeeScalar": "0xa118b",
      "l1Fee": "0x1a53d",
      "l1GasPrice": "0xeefa",
      "l1GasUsed": "0x640"
    },
    {
      "status": "0x1",
      "cumulativeGasUsed": "0x1fb562",
      "logs": [
        {
          "address": "0x3d384beb1ba0197e6a87668e1d68267164c8b776",
          "topics": [
            "0x8c5be1e5ebec7d5bd14f71427d1e84f3dd0314c0f7b2291e5b200ac8c7c3b925",
            "0x000000000000000000000000a6b3d200cd34ca14d7579dac8b054bf50a62c37c",
            "0x0000000000000000000000008f17e2128a4f917ec4147c15fc90badd79e7f090"
          ],
          "data": "0x0000000000000000000000000000000000000000000000000000016d14154000",
          "blockHash": "0xf432e9aebfa4b598bfab4ad8152ebba1f502e8f95c9d36eb4695579f0d50f0b8",
          "blockNumber": "0x19eb465",
          "transactionHash": "0xa6782a2fa8fe49da92e52ebe7d0cc80bfda47e9ac23529b627d6912669dead57",
          "transactionIndex": "0xd",
          "logIndex": "0x38",
          "removed": false
        }
      ],
      "logsBloom": "0x00000000000000000000000404000000008000000000000002000000000000000000000000000000000000000000000000000000000000000000000000200000000000000000000000000000000000000000000000000000000000000000000000000000000000000000000000000000000000002000000000000000000000000000000000000000000000020000000000000000000000000000000000000000020000000000000000000000000008000000000000000000000000000000000000000040000000000000000000000000000000000000000000000000000000000010000000000000000000000000000000000000000000000000800000000000",
      "type": "0x2",
      "transactionHash": "0xa6782a2fa8fe49da92e52ebe7d0cc80bfda47e9ac23529b627d6912669dead57",
      "transactionIndex": "0xd",
      "blockHash": "0xf432e9aebfa4b598bfab4ad8152ebba1f502e8f95c9d36eb4695579f0d50f0b8",
      "blockNumber": "0x19eb465",
      "gasUsed": "0x70c3",
      "effectiveGasPrice": "0x3aee4",
      "from": "0xa6b3d200cd34ca14d7579dac8b054bf50a62c37c",
      "to": "0x3d384beb1ba0197e6a87668e1d68267164c8b776",
      "contractAddress": null,
      "l1BaseFeeScalar": "0x44d",
      "l1BlobBaseFee": "0x1",
      "l1BlobBaseFeeScalar": "0xa118b",
      "l1Fee": "0x1a53d",
      "l1GasPrice": "0xeefa",
      "l1GasUsed": "0x640"
    },
    {
      "status": "0x1",
      "cumulativeGasUsed": "0x20fe1b",
      "logs": [
        {
          "address": "0x3d384beb1ba0197e6a87668e1d68267164c8b776",
          "topics": [
            "0xddf252ad1be2c89b69c2b068fc378daa952ba7f163c4a11628f55a4df523b3ef",
            "0x000000000000000000000000a6b3d200cd34ca14d7579dac8b054bf50a62c37c",
            "0x0000000000000000000000000000000000000000000000000000000000000000"
          ],
          "data": "0x0000000000000000000000000000000000000000000000000000016d14154000",
          "blockHash": "0xf432e9aebfa4b598bfab4ad8152ebba1f502e8f95c9d36eb4695579f0d50f0b8",
          "blockNumber": "0x19eb465",
          "transactionHash": "0x63ecf903a7bec6052eb4b40c0b5cd062ce92839ffa59a189babad56156088e9f",
          "transactionIndex": "0xe",
          "logIndex": "0x39",
          "removed": false
        },
        {
          "address": "0x3d384beb1ba0197e6a87668e1d68267164c8b776",
          "topics": [
            "0xddf252ad1be2c89b69c2b068fc378daa952ba7f163c4a11628f55a4df523b3ef",
            "0x0000000000000000000000000000000000000000000000000000000000000000",
            "0x000000000000000000000000a6b3d200cd34ca14d7579dac8b054bf50a62c37c"
          ],
          "data": "0x000000000000000000000000000000000000000000000000000000005d75c800",
          "blockHash": "0xf432e9aebfa4b598bfab4ad8152ebba1f502e8f95c9d36eb4695579f0d50f0b8",
          "blockNumber": "0x19eb465",
          "transactionHash": "0x63ecf903a7bec6052eb4b40c0b5cd062ce92839ffa59a189babad56156088e9f",
          "transactionIndex": "0xe",
          "logIndex": "0x3a",
          "removed": false
        },
        {
          "address": "0x5405e3a584014c8659ba10591c1b7d55cb1cfc0d",
          "topics": [
            "0xddf252ad1be2c89b69c2b068fc378daa952ba7f163c4a11628f55a4df523b3ef",
            "0x0000000000000000000000008f17e2128a4f917ec4147c15fc90badd79e7f090",
            "0x000000000000000000000000a6b3d200cd34ca14d7579dac8b054bf50a62c37c"
          ],
          "data": "0x0000000000000000000000000000000000000000000000000000000051f4d5c0",
          "blockHash": "0xf432e9aebfa4b598bfab4ad8152ebba1f502e8f95c9d36eb4695579f0d50f0b8",
          "blockNumber": "0x19eb465",
          "transactionHash": "0x63ecf903a7bec6052eb4b40c0b5cd062ce92839ffa59a189babad56156088e9f",
          "transactionIndex": "0xe",
          "logIndex": "0x3b",
          "removed": false
        },
        {
          "address": "0x8f17e2128a4f917ec4147c15fc90badd79e7f090",
          "topics": [
            "0xdaed309a628faec6cab72194019e2a1a34e890ca9bf9be99788992dd54692819"
          ],
          "data": "0x000000000000000000000000a6b3d200cd34ca14d7579dac8b054bf50a62c37c000000000000000000000000000000000000000000000000000000000000001e0000000000000000000000000000000000000000000000000000000051f4d5c0",
          "blockHash": "0xf432e9aebfa4b598bfab4ad8152ebba1f502e8f95c9d36eb4695579f0d50f0b8",
          "blockNumber": "0x19eb465",
          "transactionHash": "0x63ecf903a7bec6052eb4b40c0b5cd062ce92839ffa59a189babad56156088e9f",
          "transactionIndex": "0xe",
          "logIndex": "0x3c",
          "removed": false
        },
        {
          "address": "0x8f17e2128a4f917ec4147c15fc90badd79e7f090",
          "topics": [
            "0x73d7115a3106da3e0d40e7f29f2941645b2b6f2fd75328fa464692cf0e42a39f"
          ],
          "data": "0x000000000000000000000000a6b3d200cd34ca14d7579dac8b054bf50a62c37c0000000000000000000000000000000000000000000000000000016d14154000",
          "blockHash": "0xf432e9aebfa4b598bfab4ad8152ebba1f502e8f95c9d36eb4695579f0d50f0b8",
          "blockNumber": "0x19eb465",
          "transactionHash": "0x63ecf903a7bec6052eb4b40c0b5cd062ce92839ffa59a189babad56156088e9f",
          "transactionIndex": "0xe",
          "logIndex": "0x3d",
          "removed": false
        }
      ],
      "logsBloom": "0x00000000002000000000000404000000008000000000000002000000000000000000080080000000000000000000000000000000000000000002000000000020000000000000000000000008000000000000000000000000040000000400000000000000020000000000000000000800000000002000000000000010000000000000000000001000000000020000000000000000000000000000000000000000000000000000000000000000000008000000000000000000000000000000000000200042000000000000000000000000000000000000000000000000000020000001000000000400000000000000000000000000000020000000800000000000",
      "type": "0x2",
      "transactionHash": "0x63ecf903a7bec6052eb4b40c0b5cd062ce92839ffa59a189babad56156088e9f",
      "transactionIndex": "0xe",
      "blockHash": "0xf432e9aebfa4b598bfab4ad8152ebba1f502e8f95c9d36eb4695579f0d50f0b8",
      "blockNumber": "0x19eb465",
      "gasUsed": "0x148b9",
      "effectiveGasPrice": "0x3aee4",
      "from": "0xa6b3d200cd34ca14d7579dac8b054bf50a62c37c",
      "to": "0x8f17e2128a4f917ec4147c15fc90badd79e7f090",
      "contractAddress": null,
      "l1BaseFeeScalar": "0x44d",
      "l1BlobBaseFee": "0x1",
      "l1BlobBaseFeeScalar": "0xa118b",
      "l1Fee": "0x1a53d",
      "l1GasPrice": "0xeefa",
      "l1GasUsed": "0x640"
    }
  ],
  "libraries": [],
  "pending": [],
  "returns": {},
  "timestamp": 1750124460,
  "chain": 84532,
  "commit": "e3173ca"
}