{
  "transactions": [
    {
      "hash": "0x02fd89871569760876360965e8f8c634a2e2eb70b2e01bea1d17103186cd4b76",
      "transactionType": "CALL",
      "contractName": "VCOPCollateralManager",
      "contractAddress": "0x8f17e2128a4f917ec4147c15fc90badd79e7f090",
      "function": "createPosition(address,uint256,uint256)",
      "arguments": [
        "0x5405e3a584014c8659BA10591c1b7D55cB1cFc0d",
        "1000000000",
        "2240000000000"
      ],
      "transaction": {
        "from": "0xa6b3d200cd34ca14d7579dac8b054bf50a62c37c",
        "to": "0x8f17e2128a4f917ec4147c15fc90badd79e7f090",
        "gas": "0x37ebd",
        "value": "0x0",
        "input": "0x75a08cce0000000000000000000000005405e3a584014c8659ba10591c1b7d55cb1cfc0d000000000000000000000000000000000000000000000000000000003b9aca00000000000000000000000000000000000000000000000000000002098a678000",
        "nonce": "0x802",
        "chainId": "0x14a34"
      },
      "additionalContracts": [],
      "isFixedGasLimit": false
    },
    {
      "hash": "0x7e3f88be8ff8abfb690d5b81d5fbe64bd8cbff454022dd7e4a056c862a8a0358",
      "transactionType": "CALL",
      "contractName": "VCOPCollateralManager",
      "contractAddress": "0x8f17e2128a4f917ec4147c15fc90badd79e7f090",
      "function": "addCollateral(uint256,uint256)",
      "arguments": [
        "28",
        "500000000"
      ],
      "transaction": {
        "from": "0xa6b3d200cd34ca14d7579dac8b054bf50a62c37c",
        "to": "0x8f17e2128a4f917ec4147c15fc90badd79e7f090",
        "gas": "0x119f3",
        "value": "0x0",
        "input": "0xa8f35adf000000000000000000000000000000000000000000000000000000000000001c000000000000000000000000000000000000000000000000000000001dcd6500",
        "nonce": "0x803",
        "chainId": "0x14a34"
      },
      "additionalContracts": [],
      "isFixedGasLimit": false
    },
    {
      "hash": "0xc31d886b2c532bf79c2b2d895001039dad4b760feebbc149ddad9dcc0389f034",
      "transactionType": "CALL",
      "contractName": "VCOPCollateralManager",
      "contractAddress": "0x8f17e2128a4f917ec4147c15fc90badd79e7f090",
      "function": "withdrawCollateral(uint256,uint256)",
      "arguments": [
        "28",
        "125000000"
      ],
      "transaction": {
        "from": "0xa6b3d200cd34ca14d7579dac8b054bf50a62c37c",
        "to": "0x8f17e2128a4f917ec4147c15fc90badd79e7f090",
        "gas": "0x1863a",
        "value": "0x0",
        "input": "0x767a7b05000000000000000000000000000000000000000000000000000000000000001c0000000000000000000000000000000000000000000000000000000007735940",
        "nonce": "0x804",
        "chainId": "0x14a34"
      },
      "additionalContracts": [],
      "isFixedGasLimit": false
    },
    {
      "hash": "0xb31aac7d71566bb3095e4d626953dd20e3b09ef7923733b4edd764f284ba9fbb",
      "transactionType": "CALL",
      "contractName": "VCOPCollateralized",
      "contractAddress": "0x3d384beb1ba0197e6a87668e1d68267164c8b776",
      "function": "approve(address,uint256)",
      "arguments": [
        "0x8f17E2128a4F917ec4147c15FC90bADd79E7F090",
        "672000000000"
      ],
      "transaction": {
        "from": "0xa6b3d200cd34ca14d7579dac8b054bf50a62c37c",
        "to": "0x3d384beb1ba0197e6a87668e1d68267164c8b776",
        "gas": "0x9baf",
        "value": "0x0",
        "input": "0x095ea7b30000000000000000000000008f17e2128a4f917ec4147c15fc90badd79e7f0900000000000000000000000000000000000000000000000000000009c76524000",
        "nonce": "0x805",
        "chainId": "0x14a34"
      },
      "additionalContracts": [],
      "isFixedGasLimit": false
    },
    {
      "hash": "0x791a990b1f38817ed001b8a53c8a36d50a98fffcffb960acf11649f6b81cdccc",
      "transactionType": "CALL",
      "contractName": "VCOPCollateralManager",
      "contractAddress": "0x8f17e2128a4f917ec4147c15fc90badd79e7f090",
      "function": "repayDebt(uint256,uint256)",
      "arguments": [
        "28",
        "672000000000"
      ],
      "transaction": {
        "from": "0xa6b3d200cd34ca14d7579dac8b054bf50a62c37c",
        "to": "0x8f17e2128a4f917ec4147c15fc90badd79e7f090",
        "gas": "0x18a4b",
        "value": "0x0",
        "input": "0x015cb0a5000000000000000000000000000000000000000000000000000000000000001c0000000000000000000000000000000000000000000000000000009c76524000",
        "nonce": "0x806",
        "chainId": "0x14a34"
      },
      "additionalContracts": [],
      "isFixedGasLimit": false
    },
    {
      "hash": "0x851df2ef698fbc1300edb67952a65ca252bf468f0295c8397ee9a8bb8971187f",
      "transactionType": "CALL",
      "contractName": "VCOPCollateralized",
      "contractAddress": "0x3d384beb1ba0197e6a87668e1d68267164c8b776",
      "function": "approve(address,uint256)",
      "arguments": [
        "0x8f17E2128a4F917ec4147c15FC90bADd79E7F090",
        "1568000000000"
      ],
      "transaction": {
        "from": "0xa6b3d200cd34ca14d7579dac8b054bf50a62c37c",
        "to": "0x3d384beb1ba0197e6a87668e1d68267164c8b776",
        "gas": "0xa4e9",
        "value": "0x0",
        "input": "0x095ea7b30000000000000000000000008f17e2128a4f917ec4147c15fc90badd79e7f0900000000000000000000000000000000000000000000000000000016d14154000",
        "nonce": "0x807",
        "chainId": "0x14a34"
      },
      "additionalContracts": [],
      "isFixedGasLimit": false
    },
    {
      "hash": "0xde7f8bf043255ea6876c25ccaea319e891c8682d2d2a3aad425e0a6abbc35b0b",
      "transactionType": "CALL",
      "contractName": "VCOPCollateralManager",
      "contractAddress": "0x8f17e2128a4f917ec4147c15fc90badd79e7f090",
      "function": "repayDebt(uint256,uint256)",
      "arguments": [
        "28",
        "1568000000000"
      ],
      "transaction": {
        "from": "0xa6b3d200cd34ca14d7579dac8b054bf50a62c37c",
        "to": "0x8f17e2128a4f917ec4147c15fc90badd79e7f090",
        "gas": "0x1e0c1",
        "value": "0x0",
        "input": "0x015cb0a5000000000000000000000000000000000000000000000000000000000000001c0000000000000000000000000000000000000000000000000000016d14154000",
        "nonce": "0x808",
        "chainId": "0x14a34"
      },
      "additionalContracts": [],
      "isFixedGasLimit": false
    }
  ],
  "receipts": [
    {
      "status": "0x1",
      "cumulativeGasUsed": "0x8a4134",
      "logs": [
        {
          "address": "0x3d384beb1ba0197e6a87668e1d68267164c8b776",
          "topics": [
            "0x8c5be1e5ebec7d5bd14f71427d1e84f3dd0314c0f7b2291e5b200ac8c7c3b925",
            "0x000000000000000000000000a6b3d200cd34ca14d7579dac8b054bf50a62c37c",
            "0x0000000000000000000000008f17e2128a4f917ec4147c15fc90badd79e7f090"
          ],
          "data": "0x0000000000000000000000000000000000000000000000000000009c76524000",
          "blockHash": "0x2b71381c8eba5b744c337f82e7a4d46b5ad6d488fc737862362dd28e87bd4c91",
          "blockNumber": "0x19d3e39",
          "blockTimestamp": "0x684ddb52",
          "transactionHash": "0xb31aac7d71566bb3095e4d626953dd20e3b09ef7923733b4edd764f284ba9fbb",
          "transactionIndex": "0x22",
          "logIndex": "0x149",
          "removed": false
        }
      ],
      "logsBloom": "0x00000000000000000000000404000000008000000000000002000000000000000000000000000000000000000000000000000000000000000000000000200000000000000000000000000000000000000000000000000000000000000000000000000000000000000000000000000000000000002000000000000000000000000000000000000000000000020000000000000000000000000000000000000000020000000000000000000000000008000000000000000000000000000000000000000040000000000000000000000000000000000000000000000000000000000010000000000000000000000000000000000000000000000000800000000000",
      "type": "0x2",
      "transactionHash": "0xb31aac7d71566bb3095e4d626953dd20e3b09ef7923733b4edd764f284ba9fbb",
      "transactionIndex": "0x22",
      "blockHash": "0x2b71381c8eba5b744c337f82e7a4d46b5ad6d488fc737862362dd28e87bd4c91",
      "blockNumber": "0x19d3e39",
      "gasUsed": "0x70b7",
      "effectiveGasPrice": "0x2ffd",
      "from": "0xa6b3d200cd34ca14d7579dac8b054bf50a62c37c",
      "to": "0x3d384beb1ba0197e6a87668e1d68267164c8b776",
      "contractAddress": null,
      "l1BaseFeeScalar": "0x44d",
      "l1BlobBaseFee": "0x1",
      "l1BlobBaseFeeScalar": "0xa118b",
      "l1Fee": "0x1fa9d7",
      "l1GasPrice": "0x11f943",
      "l1GasUsed": "0x640"
    },
    {
      "status": "0x1",
      "cumulativeGasUsed": "0x8bcf6e",
      "logs": [
        {
          "address": "0x3d384beb1ba0197e6a87668e1d68267164c8b776",
          "topics": [
            "0x8c5be1e5ebec7d5bd14f71427d1e84f3dd0314c0f7b2291e5b200ac8c7c3b925",
            "0x000000000000000000000000a6b3d200cd34ca14d7579dac8b054bf50a62c37c",
            "0x0000000000000000000000008f17e2128a4f917ec4147c15fc90badd79e7f090"
          ],
          "data": "0x0000000000000000000000000000000000000000000000000000016d14154000",
          "blockHash": "0x2b71381c8eba5b744c337f82e7a4d46b5ad6d488fc737862362dd28e87bd4c91",
          "blockNumber": "0x19d3e39",
          "blockTimestamp": "0x684ddb52",
          "transactionHash": "0x851df2ef698fbc1300edb67952a65ca252bf468f0295c8397ee9a8bb8971187f",
          "transactionIndex": "0x24",
          "logIndex": "0x14d",
          "removed": false
        }
      ],
      "logsBloom": "0x00000000000000000000000404000000008000000000000002000000000000000000000000000000000000000000000000000000000000000000000000200000000000000000000000000000000000000000000000000000000000000000000000000000000000000000000000000000000000002000000000000000000000000000000000000000000000020000000000000000000000000000000000000000020000000000000000000000000008000000000000000000000000000000000000000040000000000000000000000000000000000000000000000000000000000010000000000000000000000000000000000000000000000000800000000000",
      "type": "0x2",
      "transactionHash": "0x851df2ef698fbc1300edb67952a65ca252bf468f0295c8397ee9a8bb8971187f",
      "transactionIndex": "0x24",
      "blockHash": "0x2b71381c8eba5b744c337f82e7a4d46b5ad6d488fc737862362dd28e87bd4c91",
      "blockNumber": "0x19d3e39",
      "gasUsed": "0x70c3",
      "effectiveGasPrice": "0x2ffd",
      "from": "0xa6b3d200cd34ca14d7579dac8b054bf50a62c37c",
      "to": "0x3d384beb1ba0197e6a87668e1d68267164c8b776",
      "contractAddress": null,
      "l1BaseFeeScalar": "0x44d",
      "l1BlobBaseFee": "0x1",
      "l1BlobBaseFeeScalar": "0xa118b",
      "l1Fee": "0x1fa9d7",
      "l1GasPrice": "0x11f943",
      "l1GasUsed": "0x640"
    },
    {
      "status": "0x1",
      "cumulativeGasUsed": "0x9c97c6",
      "logs": [
        {
          "address": "0x5405e3a584014c8659ba10591c1b7d55cb1cfc0d",
          "topics": [
            "0xddf252ad1be2c89b69c2b068fc378daa952ba7f163c4a11628f55a4df523b3ef",
            "0x000000000000000000000000a6b3d200cd34ca14d7579dac8b054bf50a62c37c",
            "0x0000000000000000000000008f17e2128a4f917ec4147c15fc90badd79e7f090"
          ],
          "data": "0x000000000000000000000000000000000000000000000000000000003b9aca00",
          "blockHash": "0x8371197314c404cfbe4765d810e8a9829d016386fd6a3c4b5120b775e599d09e",
          "blockNumber": "0x19d3e39",
          "transactionHash": "0x02fd89871569760876360965e8f8c634a2e2eb70b2e01bea1d17103186cd4b76",
          "transactionIndex": "0x24",
          "logIndex": "0x177",
          "removed": false
        },
        {
          "address": "0x3d384beb1ba0197e6a87668e1d68267164c8b776",
          "topics": [
            "0xddf252ad1be2c89b69c2b068fc378daa952ba7f163c4a11628f55a4df523b3ef",
            "0x0000000000000000000000000000000000000000000000000000000000000000",
            "0x000000000000000000000000a6b3d200cd34ca14d7579dac8b054bf50a62c37c"
          ],
          "data": "0x0000000000000000000000000000000000000000000000000000020904e3d000",
          "blockHash": "0x8371197314c404cfbe4765d810e8a9829d016386fd6a3c4b5120b775e599d09e",
          "blockNumber": "0x19d3e39",
          "transactionHash": "0x02fd89871569760876360965e8f8c634a2e2eb70b2e01bea1d17103186cd4b76",
          "transactionIndex": "0x24",
          "logIndex": "0x178",
          "removed": false
        },
        {
          "address": "0x3d384beb1ba0197e6a87668e1d68267164c8b776",
          "topics": [
            "0xddf252ad1be2c89b69c2b068fc378daa952ba7f163c4a11628f55a4df523b3ef",
            "0x0000000000000000000000000000000000000000000000000000000000000000",
            "0x000000000000000000000000a6b3d200cd34ca14d7579dac8b054bf50a62c37c"
          ],
          "data": "0x000000000000000000000000000000000000000000000000000000008583b000",
          "blockHash": "0x8371197314c404cfbe4765d810e8a9829d016386fd6a3c4b5120b775e599d09e",
          "blockNumber": "0x19d3e39",
          "transactionHash": "0x02fd89871569760876360965e8f8c634a2e2eb70b2e01bea1d17103186cd4b76",
          "transactionIndex": "0x24",
          "logIndex": "0x179",
          "removed": false
        },
        {
          "address": "0x8f17e2128a4f917ec4147c15fc90badd79e7f090",
          "topics": [
            "0xafda9316e64488bba379a6614bcee4516ef1793ee3844298c937b46b2cae5829"
          ],
          "data": "0x000000000000000000000000a6b3d200cd34ca14d7579dac8b054bf50a62c37c000000000000000000000000000000000000000000000000000000000000001c0000000000000000000000005405e3a584014c8659ba10591c1b7d55cb1cfc0d000000000000000000000000000000000000000000000000000000003b9aca00000000000000000000000000000000000000000000000000000002098a678000",
          "blockHash": "0x8371197314c404cfbe4765d810e8a9829d016386fd6a3c4b5120b775e599d09e",
          "blockNumber": "0x19d3e39",
          "transactionHash": "0x02fd89871569760876360965e8f8c634a2e2eb70b2e01bea1d17103186cd4b76",
          "transactionIndex": "0x24",
          "logIndex": "0x17a",
          "removed": false
        },
        {
          "address": "0x8f17e2128a4f917ec4147c15fc90badd79e7f090",
          "topics": [
            "0xb8d0a675deb3f0103b7b5bfee7759ee667ec4a083833f9674ae14b688cb10551"
          ],
          "data": "0x000000000000000000000000a6b3d200cd34ca14d7579dac8b054bf50a62c37c0000000000000000000000000000000000000000000000000000020904e3d000",
          "blockHash": "0x8371197314c404cfbe4765d810e8a9829d016386fd6a3c4b5120b775e599d09e",
          "blockNumber": "0x19d3e39",
          "transactionHash": "0x02fd89871569760876360965e8f8c634a2e2eb70b2e01bea1d17103186cd4b76",
          "transactionIndex": "0x24",
          "logIndex": "0x17b",
          "removed": false
        }
      ],
      "logsBloom": "0x00000000002000000000000404000000008000000000000002000000000000000000080000000000000000000000000000000000000000000000000000000020000000000000000000000008000000000000000000000000000000000400000000800000020000200000000000000800000000002000000000000010000000000000000000200000000000020000000000000000000000000000000000400000000000000000000000000000000008000000000000000000000000000000000000000042000000000000000000000000000000020000000000000000000020100001000000000400000000000000000000000000000000000000800000000000",
      "type": "0x2",
      "transactionHash": "0x02fd89871569760876360965e8f8c634a2e2eb70b2e01bea1d17103186cd4b76",
      "transactionIndex": "0x24",
      "blockHash": "0x8371197314c404cfbe4765d810e8a9829d016386fd6a3c4b5120b775e599d09e",
      "blockNumber": "0x19d3e39",
      "gasUsed": "0x287c7",
      "effectiveGasPrice": "0x2fbb",
      "from": "0xa6b3d200cd34ca14d7579dac8b054bf50a62c37c",
      "to": "0x8f17e2128a4f917ec4147c15fc90badd79e7f090",
      "contractAddress": null,
      "l1BaseFeeScalar": "0x44d",
      "l1BlobBaseFee": "0x1",
      "l1BlobBaseFeeScalar": "0xa118b",
      "l1Fee": "0x1fa9d7",
      "l1GasPrice": "0x11f943",
      "l1GasUsed": "0x640"
    },
    {
      "status": "0x1",
      "cumulativeGasUsed": "0x8d1827",
      "logs": [
        {
          "address": "0x3d384beb1ba0197e6a87668e1d68267164c8b776",
          "topics": [
            "0xddf252ad1be2c89b69c2b068fc378daa952ba7f163c4a11628f55a4df523b3ef",
            "0x000000000000000000000000a6b3d200cd34ca14d7579dac8b054bf50a62c37c",
            "0x0000000000000000000000000000000000000000000000000000000000000000"
          ],
          "data": "0x0000000000000000000000000000000000000000000000000000016d14154000",
          "blockHash": "0x2b71381c8eba5b744c337f82e7a4d46b5ad6d488fc737862362dd28e87bd4c91",
          "blockNumber": "0x19d3e39",
          "blockTimestamp": "0x684ddb52",
          "transactionHash": "0xde7f8bf043255ea6876c25ccaea319e891c8682d2d2a3aad425e0a6abbc35b0b",
          "transactionIndex": "0x25",
          "logIndex": "0x14e",
          "removed": false
        },
        {
          "address": "0x3d384beb1ba0197e6a87668e1d68267164c8b776",
          "topics": [
            "0xddf252ad1be2c89b69c2b068fc378daa952ba7f163c4a11628f55a4df523b3ef",
            "0x0000000000000000000000000000000000000000000000000000000000000000",
            "0x000000000000000000000000a6b3d200cd34ca14d7579dac8b054bf50a62c37c"
          ],
          "data": "0x000000000000000000000000000000000000000000000000000000005d75c800",
          "blockHash": "0x2b71381c8eba5b744c337f82e7a4d46b5ad6d488fc737862362dd28e87bd4c91",
          "blockNumber": "0x19d3e39",
          "blockTimestamp": "0x684ddb52",
          "transactionHash": "0xde7f8bf043255ea6876c25ccaea319e891c8682d2d2a3aad425e0a6abbc35b0b",
          "transactionIndex": "0x25",
          "logIndex": "0x14f",
          "removed": false
        },
        {
          "address": "0x5405e3a584014c8659ba10591c1b7d55cb1cfc0d",
          "topics": [
            "0xddf252ad1be2c89b69c2b068fc378daa952ba7f163c4a11628f55a4df523b3ef",
            "0x0000000000000000000000008f17e2128a4f917ec4147c15fc90badd79e7f090",
            "0x000000000000000000000000a6b3d200cd34ca14d7579dac8b054bf50a62c37c"
          ],
          "data": "0x0000000000000000000000000000000000000000000000000000000051f4d5c0",
          "blockHash": "0x2b71381c8eba5b744c337f82e7a4d46b5ad6d488fc737862362dd28e87bd4c91",
          "blockNumber": "0x19d3e39",
          "blockTimestamp": "0x684ddb52",
          "transactionHash": "0xde7f8bf043255ea6876c25ccaea319e891c8682d2d2a3aad425e0a6abbc35b0b",
          "transactionIndex": "0x25",
          "logIndex": "0x150",
          "removed": false
        },
        {
          "address": "0x8f17e2128a4f917ec4147c15fc90badd79e7f090",
          "topics": [
            "0xdaed309a628faec6cab72194019e2a1a34e890ca9bf9be99788992dd54692819"
          ],
          "data": "0x000000000000000000000000a6b3d200cd34ca14d7579dac8b054bf50a62c37c000000000000000000000000000000000000000000000000000000000000001c0000000000000000000000000000000000000000000000000000000051f4d5c0",
          "blockHash": "0x2b71381c8eba5b744c337f82e7a4d46b5ad6d488fc737862362dd28e87bd4c91",
          "blockNumber": "0x19d3e39",
          "blockTimestamp": "0x684ddb52",
          "transactionHash": "0xde7f8bf043255ea6876c25ccaea319e891c8682d2d2a3aad425e0a6abbc35b0b",
          "transactionIndex": "0x25",
          "logIndex": "0x151",
          "removed": false
        },
        {
          "address": "0x8f17e2128a4f917ec4147c15fc90badd79e7f090",
          "topics": [
            "0x73d7115a3106da3e0d40e7f29f2941645b2b6f2fd75328fa464692cf0e42a39f"
          ],
          "data": "0x000000000000000000000000a6b3d200cd34ca14d7579dac8b054bf50a62c37c0000000000000000000000000000000000000000000000000000016d14154000",
          "blockHash": "0x2b71381c8eba5b744c337f82e7a4d46b5ad6d488fc737862362dd28e87bd4c91",
          "blockNumber": "0x19d3e39",
          "blockTimestamp": "0x684ddb52",
          "transactionHash": "0xde7f8bf043255ea6876c25ccaea319e891c8682d2d2a3aad425e0a6abbc35b0b",
          "transactionIndex": "0x25",
          "logIndex": "0x152",
          "removed": false
        }
      ],
      "logsBloom": "0x00000000002000000000000404000000008000000000000002000000000000000000080080000000000000000000000000000000000000000002000000000020000000000000000000000008000000000000000000000000040000000400000000000000020000000000000000000800000000002000000000000010000000000000000000001000000000020000000000000000000000000000000000000000000000000000000000000000000008000000000000000000000000000000000000200042000000000000000000000000000000000000000000000000000020000001000000000400000000000000000000000000000020000000800000000000",
      "type": "0x2",
      "transactionHash": "0xde7f8bf043255ea6876c25ccaea319e891c8682d2d2a3aad425e0a6abbc35b0b",
      "transactionIndex": "0x25",
      "blockHash": "0x2b71381c8eba5b744c337f82e7a4d46b5ad6d488fc737862362dd28e87bd4c91",
      "blockNumber": "0x19d3e39",
      "gasUsed": "0x148b9",
      "effectiveGasPrice": "0x2ffd",
      "from": "0xa6b3d200cd34ca14d7579dac8b054bf50a62c37c",
      "to": "0x8f17e2128a4f917ec4147c15fc90badd79e7f090",
      "contractAddress": null,
      "l1BaseFeeScalar": "0x44d",
      "l1BlobBaseFee": "0x1",
      "l1BlobBaseFeeScalar": "0xa118b",
      "l1Fee": "0x1fa9d7",
      "l1GasPrice": "0x11f943",
      "l1GasUsed": "0x640"
    },
    {
      "status": "0x1",
      "cumulativeGasUsed": "0x9d5890",
      "logs": [
        {
          "address": "0x5405e3a584014c8659ba10591c1b7d55cb1cfc0d",
          "topics": [
            "0xddf252ad1be2c89b69c2b068fc378daa952ba7f163c4a11628f55a4df523b3ef",
            "0x000000000000000000000000a6b3d200cd34ca14d7579dac8b054bf50a62c37c",
            "0x0000000000000000000000008f17e2128a4f917ec4147c15fc90badd79e7f090"
          ],
          "data": "0x000000000000000000000000000000000000000000000000000000001dcd6500",
          "blockHash": "0x8371197314c404cfbe4765d810e8a9829d016386fd6a3c4b5120b775e599d09e",
          "blockNumber": "0x19d3e39",
          "transactionHash": "0x7e3f88be8ff8abfb690d5b81d5fbe64bd8cbff454022dd7e4a056c862a8a0358",
          "transactionIndex": "0x25",
          "logIndex": "0x17c",
          "removed": false
        },
        {
          "address": "0x8f17e2128a4f917ec4147c15fc90badd79e7f090",
          "topics": [
            "0xf4d587c98d234ca4d147061e6b5167e7f41ee17f11562a9f0b49570abece859e"
          ],
          "data": "0x000000000000000000000000a6b3d200cd34ca14d7579dac8b054bf50a62c37c000000000000000000000000000000000000000000000000000000000000001c000000000000000000000000000000000000000000000000000000001dcd6500",
          "blockHash": "0x8371197314c404cfbe4765d810e8a9829d016386fd6a3c4b5120b775e599d09e",
          "blockNumber": "0x19d3e39",
          "transactionHash": "0x7e3f88be8ff8abfb690d5b81d5fbe64bd8cbff454022dd7e4a056c862a8a0358",
          "transactionIndex": "0x25",
          "logIndex": "0x17d",
          "removed": false
        }
      ],
      "logsBloom": "0x00000000002020000000000404000000000000000000000002000000000000000000080000000000000000000000000000000000000000000000000000000020000000000000000000000008000000000000000000000000000000000400000000000000000000000000000000000000000000000000000000000010000000000000080000000000000000000000000400000000000000000000000000000000000000000000000000000000000008000000000000000000000000000000000000000042000000000000000000000000000000000000000000000000000000000001000000000400000000000000000000000000000000000000800000000000",
      "type": "0x2",
      "transactionHash": "0x7e3f88be8ff8abfb690d5b81d5fbe64bd8cbff454022dd7e4a056c862a8a0358",
      "transactionIndex": "0x25",
      "blockHash": "0x8371197314c404cfbe4765d810e8a9829d016386fd6a3c4b5120b775e599d09e",
      "blockNumber": "0x19d3e39",
      "gasUsed": "0xc0ca",
      "effectiveGasPrice": "0x2fbb",
      "from": "0xa6b3d200cd34ca14d7579dac8b054bf50a62c37c",
      "to": "0x8f17e2128a4f917ec4147c15fc90badd79e7f090",
      "contractAddress": null,
      "l1BaseFeeScalar": "0x44d",
      "l1BlobBaseFee": "0x1",
      "l1BlobBaseFeeScalar": "0xa118b",
      "l1Fee": "0x1fa9d7",
      "l1GasPrice": "0x11f943",
      "l1GasUsed": "0x640"
    },
    {
      "status": "0x1",
      "cumulativeGasUsed": "0x9e7315",
      "logs": [
        {
          "address": "0x5405e3a584014c8659ba10591c1b7d55cb1cfc0d",
          "topics": [
            "0xddf252ad1be2c89b69c2b068fc378daa952ba7f163c4a11628f55a4df523b3ef",
            "0x0000000000000000000000008f17e2128a4f917ec4147c15fc90badd79e7f090",
            "0x000000000000000000000000a6b3d200cd34ca14d7579dac8b054bf50a62c37c"
          ],
          "data": "0x0000000000000000000000000000000000000000000000000000000007735940",
          "blockHash": "0x8371197314c404cfbe4765d810e8a9829d016386fd6a3c4b5120b775e599d09e",
          "blockNumber": "0x19d3e39",
          "transactionHash": "0xc31d886b2c532bf79c2b2d895001039dad4b760feebbc149ddad9dcc0389f034",
          "transactionIndex": "0x26",
          "logIndex": "0x17e",
          "removed": false
        },
        {
          "address": "0x8f17e2128a4f917ec4147c15fc90badd79e7f090",
          "topics": [
            "0xdaed309a628faec6cab72194019e2a1a34e890ca9bf9be99788992dd54692819"
          ],
          "data": "0x000000000000000000000000a6b3d200cd34ca14d7579dac8b054bf50a62c37c000000000000000000000000000000000000000000000000000000000000001c0000000000000000000000000000000000000000000000000000000007735940",
          "blockHash": "0x8371197314c404cfbe4765d810e8a9829d016386fd6a3c4b5120b775e599d09e",
          "blockNumber": "0x19d3e39",
          "transactionHash": "0xc31d886b2c532bf79c2b2d895001039dad4b760feebbc149ddad9dcc0389f034",
          "transactionIndex": "0x26",
          "logIndex": "0x17f",
          "removed": false
        }
      ],
      "logsBloom": "0x00000000002000000000000404000000000000000000000002000000000000000000080080000000000000000000000000000000000000000002000000000020000000000000000000000008000000000000000000000000000000000400000000000000000000000000000000000000000000000000000000000010000000000000000000000000000000000000000000000000000000000000000000000000000000000000000000000000000008000000000000000000000000000000000000000042000000000000000000000000000000000000000000000000000000000001000000000400000000000000000000000000000020000000800000000000",
      "type": "0x2",
      "transactionHash": "0xc31d886b2c532bf79c2b2d895001039dad4b760feebbc149ddad9dcc0389f034",
      "transactionIndex": "0x26",
      "blockHash": "0x8371197314c404cfbe4765d810e8a9829d016386fd6a3c4b5120b775e599d09e",
      "blockNumber": "0x19d3e39",
      "gasUsed": "0x11a85",
      "effectiveGasPrice": "0x2fbb",
      "from": "0xa6b3d200cd34ca14d7579dac8b054bf50a62c37c",
      "to": "0x8f17e2128a4f917ec4147c15fc90badd79e7f090",
      "contractAddress": null,
      "l1BaseFeeScalar": "0x44d",
      "l1BlobBaseFee": "0x1",
      "l1BlobBaseFeeScalar": "0xa118b",
      "l1Fee": "0x1fa9d7",
      "l1GasPrice": "0x11f943",
      "l1GasUsed": "0x640"
    },
    {
      "status": "0x1",
      "cumulativeGasUsed": "0xa00143",
      "logs": [
        {
          "address": "0x3d384beb1ba0197e6a87668e1d68267164c8b776",
          "topics": [
            "0xddf252ad1be2c89b69c2b068fc378daa952ba7f163c4a11628f55a4df523b3ef",
            "0x000000000000000000000000a6b3d200cd34ca14d7579dac8b054bf50a62c37c",
            "0x0000000000000000000000000000000000000000000000000000000000000000"
          ],
          "data": "0x0000000000000000000000000000000000000000000000000000009c76524000",
          "blockHash": "0x8371197314c404cfbe4765d810e8a9829d016386fd6a3c4b5120b775e599d09e",
          "blockNumber": "0x19d3e39",
          "transactionHash": "0x791a990b1f38817ed001b8a53c8a36d50a98fffcffb960acf11649f6b81cdccc",
          "transactionIndex": "0x28",
          "logIndex": "0x181",
          "removed": false
        },
        {
          "address": "0x3d384beb1ba0197e6a87668e1d68267164c8b776",
          "topics": [
            "0xddf252ad1be2c89b69c2b068fc378daa952ba7f163c4a11628f55a4df523b3ef",
            "0x0000000000000000000000000000000000000000000000000000000000000000",
            "0x000000000000000000000000a6b3d200cd34ca14d7579dac8b054bf50a62c37c"
          ],
          "data": "0x00000000000000000000000000000000000000000000000000000000280de800",
          "blockHash": "0x8371197314c404cfbe4765d810e8a9829d016386fd6a3c4b5120b775e599d09e",
          "blockNumber": "0x19d3e39",
          "transactionHash": "0x791a990b1f38817ed001b8a53c8a36d50a98fffcffb960acf11649f6b81cdccc",
          "transactionIndex": "0x28",
          "logIndex": "0x182",
          "removed": false
        },
        {
          "address": "0x8f17e2128a4f917ec4147c15fc90badd79e7f090",
          "topics": [
            "0x73d7115a3106da3e0d40e7f29f2941645b2b6f2fd75328fa464692cf0e42a39f"
          ],
          "data": "0x000000000000000000000000a6b3d200cd34ca14d7579dac8b054bf50a62c37c0000000000000000000000000000000000000000000000000000009c76524000",
          "blockHash": "0x8371197314c404cfbe4765d810e8a9829d016386fd6a3c4b5120b775e599d09e",
          "blockNumber": "0x19d3e39",
          "transactionHash": "0x791a990b1f38817ed001b8a53c8a36d50a98fffcffb960acf11649f6b81cdccc",
          "transactionIndex": "0x28",
          "logIndex": "0x183",
          "removed": false
        }
      ],
      "logsBloom": "0x00000000002000000000000400000000008000000000000002000000000000000000000000000000000000000000000000000000000000000000000000000000000000000000000000000008000000000000000000000000040000000400000000000000020000000000000000000800000000002000000000000010000000000000000000001000000000020000000000000000000000000000000000000000000000000000000000000000000000000000000000000000000000000000000000200042000000000000000000000000000000000000000000000000000020000000000000000400000000000000000000000000000000000000000000000000",
      "type": "0x2",
      "transactionHash": "0x791a990b1f38817ed001b8a53c8a36d50a98fffcffb960acf11649f6b81cdccc",
      "transactionIndex": "0x28",
      "blockHash": "0x8371197314c404cfbe4765d810e8a9829d016386fd6a3c4b5120b775e599d09e",
      "blockNumber": "0x19d3e39",
      "gasUsed": "0x11d77",
      "effectiveGasPrice": "0x2fbb",
      "from": "0xa6b3d200cd34ca14d7579dac8b054bf50a62c37c",
      "to": "0x8f17e2128a4f917ec4147c15fc90badd79e7f090",
      "contractAddress": null,
      "l1BaseFeeScalar": "0x44d",
      "l1BlobBaseFee": "0x1",
      "l1BlobBaseFeeScalar": "0xa118b",
      "l1Fee": "0x1fa9d7",
      "l1GasPrice": "0x11f943",
      "l1GasUsed": "0x640"
    }
  ],
  "libraries": [],
  "pending": [],
  "returns": {},
  "timestamp": 1749932883,
  "chain": 84532,
  "commit": "34f47c4"
}