{
  "transactions": [
    {
      "hash": "0x03962410e0dc3480e75f1b0ca62366463722efc3e68403467ae5c8c2dd0864c8",
      "transactionType": "CALL",
      "contractName": "VCOPCollateralManager",
      "contractAddress": "0x8f17e2128a4f917ec4147c15fc90badd79e7f090",
      "function": "createPosition(address,uint256,uint256)",
      "arguments": [
        "0x5405e3a584014c8659BA10591c1b7D55cB1cFc0d",
        "1000000000",
        "2240000000000"
      ],
      "transaction": {
        "from": "0xa6b3d200cd34ca14d7579dac8b054bf50a62c37c",
        "to": "0x8f17e2128a4f917ec4147c15fc90badd79e7f090",
        "gas": "0x37ebd",
        "value": "0x0",
        "input": "0x75a08cce0000000000000000000000005405e3a584014c8659ba10591c1b7d55cb1cfc0d000000000000000000000000000000000000000000000000000000003b9aca00000000000000000000000000000000000000000000000000000002098a678000",
        "nonce": "0x76d",
        "chainId": "0x14a34"
      },
      "additionalContracts": [],
      "isFixedGasLimit": false
    },
    {
      "hash": "0x0ddd6f9a118f08c2ebb06f3c821a7bc8811674ecef71e889296beebad1ab9bf8",
      "transactionType": "CALL",
      "contractName": "VCOPCollateralManager",
      "contractAddress": "0x8f17e2128a4f917ec4147c15fc90badd79e7f090",
      "function": "addCollateral(uint256,uint256)",
      "arguments": [
        "26",
        "500000000"
      ],
      "transaction": {
        "from": "0xa6b3d200cd34ca14d7579dac8b054bf50a62c37c",
        "to": "0x8f17e2128a4f917ec4147c15fc90badd79e7f090",
        "gas": "0x119f3",
        "value": "0x0",
        "input": "0xa8f35adf000000000000000000000000000000000000000000000000000000000000001a000000000000000000000000000000000000000000000000000000001dcd6500",
        "nonce": "0x76e",
        "chainId": "0x14a34"
      },
      "additionalContracts": [],
      "isFixedGasLimit": false
    },
    {
      "hash": "0xaf8196d25c2c8e5e5bfac5fa765f5824f5b68cad3d4223f63f0bd75b388f926d",
      "transactionType": "CALL",
      "contractName": "VCOPCollateralManager",
      "contractAddress": "0x8f17e2128a4f917ec4147c15fc90badd79e7f090",
      "function": "withdrawCollateral(uint256,uint256)",
      "arguments": [
        "26",
        "125000000"
      ],
      "transaction": {
        "from": "0xa6b3d200cd34ca14d7579dac8b054bf50a62c37c",
        "to": "0x8f17e2128a4f917ec4147c15fc90badd79e7f090",
        "gas": "0x1863a",
        "value": "0x0",
        "input": "0x767a7b05000000000000000000000000000000000000000000000000000000000000001a0000000000000000000000000000000000000000000000000000000007735940",
        "nonce": "0x76f",
        "chainId": "0x14a34"
      },
      "additionalContracts": [],
      "isFixedGasLimit": false
    },
    {
      "hash": "0x14c1c39e3fd918a4df4b484e7b5233f588f408ccd02a6e211bfc58bb32e5216e",
      "transactionType": "CALL",
      "contractName": "VCOPCollateralized",
      "contractAddress": "0x3d384beb1ba0197e6a87668e1d68267164c8b776",
      "function": "approve(address,uint256)",
      "arguments": [
        "0x8f17E2128a4F917ec4147c15FC90bADd79E7F090",
        "672000000000"
      ],
      "transaction": {
        "from": "0xa6b3d200cd34ca14d7579dac8b054bf50a62c37c",
        "to": "0x3d384beb1ba0197e6a87668e1d68267164c8b776",
        "gas": "0x9baf",
        "value": "0x0",
        "input": "0x095ea7b30000000000000000000000008f17e2128a4f917ec4147c15fc90badd79e7f0900000000000000000000000000000000000000000000000000000009c76524000",
        "nonce": "0x770",
        "chainId": "0x14a34"
      },
      "additionalContracts": [],
      "isFixedGasLimit": false
    },
    {
      "hash": "0x580a1d5ee866ff03079cd14def2a2eee93b1aada6824907a3af3633311fe6e96",
      "transactionType": "CALL",
      "contractName": "VCOPCollateralManager",
      "contractAddress": "0x8f17e2128a4f917ec4147c15fc90badd79e7f090",
      "function": "repayDebt(uint256,uint256)",
      "arguments": [
        "26",
        "672000000000"
      ],
      "transaction": {
        "from": "0xa6b3d200cd34ca14d7579dac8b054bf50a62c37c",
        "to": "0x8f17e2128a4f917ec4147c15fc90badd79e7f090",
        "gas": "0x18a4b",
        "value": "0x0",
        "input": "0x015cb0a5000000000000000000000000000000000000000000000000000000000000001a0000000000000000000000000000000000000000000000000000009c76524000",
        "nonce": "0x771",
        "chainId": "0x14a34"
      },
      "additionalContracts": [],
      "isFixedGasLimit": false
    },
    {
      "hash": "0x6677b78b11343acfc72a6ae83d32bac0cbbd28761b964aff1abf149ad0d01447",
      "transactionType": "CALL",
      "contractName": "VCOPCollateralized",
      "contractAddress": "0x3d384beb1ba0197e6a87668e1d68267164c8b776",
      "function": "approve(address,uint256)",
      "arguments": [
        "0x8f17E2128a4F917ec4147c15FC90bADd79E7F090",
        "1568000000000"
      ],
      "transaction": {
        "from": "0xa6b3d200cd34ca14d7579dac8b054bf50a62c37c",
        "to": "0x3d384beb1ba0197e6a87668e1d68267164c8b776",
        "gas": "0xa4e9",
        "value": "0x0",
        "input": "0x095ea7b30000000000000000000000008f17e2128a4f917ec4147c15fc90badd79e7f0900000000000000000000000000000000000000000000000000000016d14154000",
        "nonce": "0x772",
        "chainId": "0x14a34"
      },
      "additionalContracts": [],
      "isFixedGasLimit": false
    },
    {
      "hash": "0xeef8da262a2c9773c88bd0115211b76dde99222bdbdd73e55cd2da825dbb5bf8",
      "transactionType": "CALL",
      "contractName": "VCOPCollateralManager",
      "contractAddress": "0x8f17e2128a4f917ec4147c15fc90badd79e7f090",
      "function": "repayDebt(uint256,uint256)",
      "arguments": [
        "26",
        "1568000000000"
      ],
      "transaction": {
        "from": "0xa6b3d200cd34ca14d7579dac8b054bf50a62c37c",
        "to": "0x8f17e2128a4f917ec4147c15fc90badd79e7f090",
        "gas": "0x1e0c1",
        "value": "0x0",
        "input": "0x015cb0a5000000000000000000000000000000000000000000000000000000000000001a0000000000000000000000000000000000000000000000000000016d14154000",
        "nonce": "0x773",
        "chainId": "0x14a34"
      },
      "additionalContracts": [],
      "isFixedGasLimit": false
    }
  ],
  "receipts": [
    {
      "status": "0x1",
      "cumulativeGasUsed": "0x3bda37",
      "logs": [
        {
          "address": "0x5405e3a584014c8659ba10591c1b7d55cb1cfc0d",
          "topics": [
            "0xddf252ad1be2c89b69c2b068fc378daa952ba7f163c4a11628f55a4df523b3ef",
            "0x000000000000000000000000a6b3d200cd34ca14d7579dac8b054bf50a62c37c",
            "0x0000000000000000000000008f17e2128a4f917ec4147c15fc90badd79e7f090"
          ],
          "data": "0x000000000000000000000000000000000000000000000000000000003b9aca00",
          "blockHash": "0x3d43a07710a6481da08c89779989cd829045f5812a56d7372af6d131a254b172",
          "blockNumber": "0x1977cee",
          "transactionHash": "0x03962410e0dc3480e75f1b0ca62366463722efc3e68403467ae5c8c2dd0864c8",
          "transactionIndex": "0x13",
          "logIndex": "0x5a",
          "removed": false
        },
        {
          "address": "0x3d384beb1ba0197e6a87668e1d68267164c8b776",
          "topics": [
            "0xddf252ad1be2c89b69c2b068fc378daa952ba7f163c4a11628f55a4df523b3ef",
            "0x0000000000000000000000000000000000000000000000000000000000000000",
            "0x000000000000000000000000a6b3d200cd34ca14d7579dac8b054bf50a62c37c"
          ],
          "data": "0x0000000000000000000000000000000000000000000000000000020904e3d000",
          "blockHash": "0x3d43a07710a6481da08c89779989cd829045f5812a56d7372af6d131a254b172",
          "blockNumber": "0x1977cee",
          "transactionHash": "0x03962410e0dc3480e75f1b0ca62366463722efc3e68403467ae5c8c2dd0864c8",
          "transactionIndex": "0x13",
          "logIndex": "0x5b",
          "removed": false
        },
        {
          "address": "0x3d384beb1ba0197e6a87668e1d68267164c8b776",
          "topics": [
            "0xddf252ad1be2c89b69c2b068fc378daa952ba7f163c4a11628f55a4df523b3ef",
            "0x0000000000000000000000000000000000000000000000000000000000000000",
            "0x000000000000000000000000a6b3d200cd34ca14d7579dac8b054bf50a62c37c"
          ],
          "data": "0x000000000000000000000000000000000000000000000000000000008583b000",
          "blockHash": "0x3d43a07710a6481da08c89779989cd829045f5812a56d7372af6d131a254b172",
          "blockNumber": "0x1977cee",
          "transactionHash": "0x03962410e0dc3480e75f1b0ca62366463722efc3e68403467ae5c8c2dd0864c8",
          "transactionIndex": "0x13",
          "logIndex": "0x5c",
          "removed": false
        },
        {
          "address": "0x8f17e2128a4f917ec4147c15fc90badd79e7f090",
          "topics": [
            "0xafda9316e64488bba379a6614bcee4516ef1793ee3844298c937b46b2cae5829"
          ],
          "data": "0x000000000000000000000000a6b3d200cd34ca14d7579dac8b054bf50a62c37c000000000000000000000000000000000000000000000000000000000000001a0000000000000000000000005405e3a584014c8659ba10591c1b7d55cb1cfc0d000000000000000000000000000000000000000000000000000000003b9aca00000000000000000000000000000000000000000000000000000002098a678000",
          "blockHash": "0x3d43a07710a6481da08c89779989cd829045f5812a56d7372af6d131a254b172",
          "blockNumber": "0x1977cee",
          "transactionHash": "0x03962410e0dc3480e75f1b0ca62366463722efc3e68403467ae5c8c2dd0864c8",
          "transactionIndex": "0x13",
          "logIndex": "0x5d",
          "removed": false
        },
        {
          "address": "0x8f17e2128a4f917ec4147c15fc90badd79e7f090",
          "topics": [
            "0xb8d0a675deb3f0103b7b5bfee7759ee667ec4a083833f9674ae14b688cb10551"
          ],
          "data": "0x000000000000000000000000a6b3d200cd34ca14d7579dac8b054bf50a62c37c0000000000000000000000000000000000000000000000000000020904e3d000",
          "blockHash": "0x3d43a07710a6481da08c89779989cd829045f5812a56d7372af6d131a254b172",
          "blockNumber": "0x1977cee",
          "transactionHash": "0x03962410e0dc3480e75f1b0ca62366463722efc3e68403467ae5c8c2dd0864c8",
          "transactionIndex": "0x13",
          "logIndex": "0x5e",
          "removed": false
        }
      ],
      "logsBloom": "0x00000000002000000000000404000000008000000000000002000000000000000000080000000000000000000000000000000000000000000000000000000020000000000000000000000008000000000000000000000000000000000400000000800000020000200000000000000800000000002000000000000010000000000000000000200000000000020000000000000000000000000000000000400000000000000000000000000000000008000000000000000000000000000000000000000042000000000000000000000000000000020000000000000000000020100001000000000400000000000000000000000000000000000000800000000000",
      "type": "0x2",
      "transactionHash": "0x03962410e0dc3480e75f1b0ca62366463722efc3e68403467ae5c8c2dd0864c8",
      "transactionIndex": "0x13",
      "blockHash": "0x3d43a07710a6481da08c89779989cd829045f5812a56d7372af6d131a254b172",
      "blockNumber": "0x1977cee",
      "gasUsed": "0x287c7",
      "effectiveGasPrice": "0x186e4",
      "from": "0xa6b3d200cd34ca14d7579dac8b054bf50a62c37c",
      "to": "0x8f17e2128a4f917ec4147c15fc90badd79e7f090",
      "contractAddress": null,
      "l1BaseFeeScalar": "0x44d",
      "l1BlobBaseFee": "0x6",
      "l1BlobBaseFeeScalar": "0xa118b",
      "l1Fee": "0x1c7",
      "l1GasPrice": "0x22",
      "l1GasUsed": "0x640"
    },
    {
      "status": "0x1",
      "cumulativeGasUsed": "0x3c9b01",
      "logs": [
        {
          "address": "0x5405e3a584014c8659ba10591c1b7d55cb1cfc0d",
          "topics": [
            "0xddf252ad1be2c89b69c2b068fc378daa952ba7f163c4a11628f55a4df523b3ef",
            "0x000000000000000000000000a6b3d200cd34ca14d7579dac8b054bf50a62c37c",
            "0x0000000000000000000000008f17e2128a4f917ec4147c15fc90badd79e7f090"
          ],
          "data": "0x000000000000000000000000000000000000000000000000000000001dcd6500",
          "blockHash": "0x3d43a07710a6481da08c89779989cd829045f5812a56d7372af6d131a254b172",
          "blockNumber": "0x1977cee",
          "transactionHash": "0x0ddd6f9a118f08c2ebb06f3c821a7bc8811674ecef71e889296beebad1ab9bf8",
          "transactionIndex": "0x14",
          "logIndex": "0x5f",
          "removed": false
        },
        {
          "address": "0x8f17e2128a4f917ec4147c15fc90badd79e7f090",
          "topics": [
            "0xf4d587c98d234ca4d147061e6b5167e7f41ee17f11562a9f0b49570abece859e"
          ],
          "data": "0x000000000000000000000000a6b3d200cd34ca14d7579dac8b054bf50a62c37c000000000000000000000000000000000000000000000000000000000000001a000000000000000000000000000000000000000000000000000000001dcd6500",
          "blockHash": "0x3d43a07710a6481da08c89779989cd829045f5812a56d7372af6d131a254b172",
          "blockNumber": "0x1977cee",
          "transactionHash": "0x0ddd6f9a118f08c2ebb06f3c821a7bc8811674ecef71e889296beebad1ab9bf8",
          "transactionIndex": "0x14",
          "logIndex": "0x60",
          "removed": false
        }
      ],
      "logsBloom": "0x00000000002020000000000404000000000000000000000002000000000000000000080000000000000000000000000000000000000000000000000000000020000000000000000000000008000000000000000000000000000000000400000000000000000000000000000000000000000000000000000000000010000000000000080000000000000000000000000400000000000000000000000000000000000000000000000000000000000008000000000000000000000000000000000000000042000000000000000000000000000000000000000000000000000000000001000000000400000000000000000000000000000000000000800000000000",
      "type": "0x2",
      "transactionHash": "0x0ddd6f9a118f08c2ebb06f3c821a7bc8811674ecef71e889296beebad1ab9bf8",
      "transactionIndex": "0x14",
      "blockHash": "0x3d43a07710a6481da08c89779989cd829045f5812a56d7372af6d131a254b172",
      "blockNumber": "0x1977cee",
      "gasUsed": "0xc0ca",
      "effectiveGasPrice": "0x186e4",
      "from": "0xa6b3d200cd34ca14d7579dac8b054bf50a62c37c",
      "to": "0x8f17e2128a4f917ec4147c15fc90badd79e7f090",
      "contractAddress": null,
      "l1BaseFeeScalar": "0x44d",
      "l1BlobBaseFee": "0x6",
      "l1BlobBaseFeeScalar": "0xa118b",
      "l1Fee": "0x1c7",
      "l1GasPrice": "0x22",
      "l1GasUsed": "0x640"
    },
    {
      "status": "0x1",
      "cumulativeGasUsed": "0x3db586",
      "logs": [
        {
          "address": "0x5405e3a584014c8659ba10591c1b7d55cb1cfc0d",
          "topics": [
            "0xddf252ad1be2c89b69c2b068fc378daa952ba7f163c4a11628f55a4df523b3ef",
            "0x0000000000000000000000008f17e2128a4f917ec4147c15fc90badd79e7f090",
            "0x000000000000000000000000a6b3d200cd34ca14d7579dac8b054bf50a62c37c"
          ],
          "data": "0x0000000000000000000000000000000000000000000000000000000007735940",
          "blockHash": "0x3d43a07710a6481da08c89779989cd829045f5812a56d7372af6d131a254b172",
          "blockNumber": "0x1977cee",
          "transactionHash": "0xaf8196d25c2c8e5e5bfac5fa765f5824f5b68cad3d4223f63f0bd75b388f926d",
          "transactionIndex": "0x15",
          "logIndex": "0x61",
          "removed": false
        },
        {
          "address": "0x8f17e2128a4f917ec4147c15fc90badd79e7f090",
          "topics": [
            "0xdaed309a628faec6cab72194019e2a1a34e890ca9bf9be99788992dd54692819"
          ],
          "data": "0x000000000000000000000000a6b3d200cd34ca14d7579dac8b054bf50a62c37c000000000000000000000000000000000000000000000000000000000000001a0000000000000000000000000000000000000000000000000000000007735940",
          "blockHash": "0x3d43a07710a6481da08c89779989cd829045f5812a56d7372af6d131a254b172",
          "blockNumber": "0x1977cee",
          "transactionHash": "0xaf8196d25c2c8e5e5bfac5fa765f5824f5b68cad3d4223f63f0bd75b388f926d",
          "transactionIndex": "0x15",
          "logIndex": "0x62",
          "removed": false
        }
      ],
      "logsBloom": "0x00000000002000000000000404000000000000000000000002000000000000000000080080000000000000000000000000000000000000000002000000000020000000000000000000000008000000000000000000000000000000000400000000000000000000000000000000000000000000000000000000000010000000000000000000000000000000000000000000000000000000000000000000000000000000000000000000000000000008000000000000000000000000000000000000000042000000000000000000000000000000000000000000000000000000000001000000000400000000000000000000000000000020000000800000000000",
      "type": "0x2",
      "transactionHash": "0xaf8196d25c2c8e5e5bfac5fa765f5824f5b68cad3d4223f63f0bd75b388f926d",
      "transactionIndex": "0x15",
      "blockHash": "0x3d43a07710a6481da08c89779989cd829045f5812a56d7372af6d131a254b172",
      "blockNumber": "0x1977cee",
      "gasUsed": "0x11a85",
      "effectiveGasPrice": "0x186e4",
      "from": "0xa6b3d200cd34ca14d7579dac8b054bf50a62c37c",
      "to": "0x8f17e2128a4f917ec4147c15fc90badd79e7f090",
      "contractAddress": null,
      "l1BaseFeeScalar": "0x44d",
      "l1BlobBaseFee": "0x6",
      "l1BlobBaseFeeScalar": "0xa118b",
      "l1Fee": "0x1c7",
      "l1GasPrice": "0x22",
      "l1GasUsed": "0x640"
    },
    {
      "status": "0x1",
      "cumulativeGasUsed": "0x3e263d",
      "logs": [
        {
          "address": "0x3d384beb1ba0197e6a87668e1d68267164c8b776",
          "topics": [
            "0x8c5be1e5ebec7d5bd14f71427d1e84f3dd0314c0f7b2291e5b200ac8c7c3b925",
            "0x000000000000000000000000a6b3d200cd34ca14d7579dac8b054bf50a62c37c",
            "0x0000000000000000000000008f17e2128a4f917ec4147c15fc90badd79e7f090"
          ],
          "data": "0x0000000000000000000000000000000000000000000000000000009c76524000",
          "blockHash": "0x3d43a07710a6481da08c89779989cd829045f5812a56d7372af6d131a254b172",
          "blockNumber": "0x1977cee",
          "transactionHash": "0x14c1c39e3fd918a4df4b484e7b5233f588f408ccd02a6e211bfc58bb32e5216e",
          "transactionIndex": "0x16",
          "logIndex": "0x63",
          "removed": false
        }
      ],
      "logsBloom": "0x00000000000000000000000404000000008000000000000002000000000000000000000000000000000000000000000000000000000000000000000000200000000000000000000000000000000000000000000000000000000000000000000000000000000000000000000000000000000000002000000000000000000000000000000000000000000000020000000000000000000000000000000000000000020000000000000000000000000008000000000000000000000000000000000000000040000000000000000000000000000000000000000000000000000000000010000000000000000000000000000000000000000000000000800000000000",
      "type": "0x2",
      "transactionHash": "0x14c1c39e3fd918a4df4b484e7b5233f588f408ccd02a6e211bfc58bb32e5216e",
      "transactionIndex": "0x16",
      "blockHash": "0x3d43a07710a6481da08c89779989cd829045f5812a56d7372af6d131a254b172",
      "blockNumber": "0x1977cee",
      "gasUsed": "0x70b7",
      "effectiveGasPrice": "0x186e4",
      "from": "0xa6b3d200cd34ca14d7579dac8b054bf50a62c37c",
      "to": "0x3d384beb1ba0197e6a87668e1d68267164c8b776",
      "contractAddress": null,
      "l1BaseFeeScalar": "0x44d",
      "l1BlobBaseFee": "0x6",
      "l1BlobBaseFeeScalar": "0xa118b",
      "l1Fee": "0x1c7",
      "l1GasPrice": "0x22",
      "l1GasUsed": "0x640"
    },
    {
      "status": "0x1",
      "cumulativeGasUsed": "0x3f43b4",
      "logs": [
        {
          "address": "0x3d384beb1ba0197e6a87668e1d68267164c8b776",
          "topics": [
            "0xddf252ad1be2c89b69c2b068fc378daa952ba7f163c4a11628f55a4df523b3ef",
            "0x000000000000000000000000a6b3d200cd34ca14d7579dac8b054bf50a62c37c",
            "0x0000000000000000000000000000000000000000000000000000000000000000"
          ],
          "data": "0x0000000000000000000000000000000000000000000000000000009c76524000",
          "blockHash": "0x3d43a07710a6481da08c89779989cd829045f5812a56d7372af6d131a254b172",
          "blockNumber": "0x1977cee",
          "transactionHash": "0x580a1d5ee866ff03079cd14def2a2eee93b1aada6824907a3af3633311fe6e96",
          "transactionIndex": "0x17",
          "logIndex": "0x64",
          "removed": false
        },
        {
          "address": "0x3d384beb1ba0197e6a87668e1d68267164c8b776",
          "topics": [
            "0xddf252ad1be2c89b69c2b068fc378daa952ba7f163c4a11628f55a4df523b3ef",
            "0x0000000000000000000000000000000000000000000000000000000000000000",
            "0x000000000000000000000000a6b3d200cd34ca14d7579dac8b054bf50a62c37c"
          ],
          "data": "0x00000000000000000000000000000000000000000000000000000000280de800",
          "blockHash": "0x3d43a07710a6481da08c89779989cd829045f5812a56d7372af6d131a254b172",
          "blockNumber": "0x1977cee",
          "transactionHash": "0x580a1d5ee866ff03079cd14def2a2eee93b1aada6824907a3af3633311fe6e96",
          "transactionIndex": "0x17",
          "logIndex": "0x65",
          "removed": false
        },
        {
          "address": "0x8f17e2128a4f917ec4147c15fc90badd79e7f090",
          "topics": [
            "0x73d7115a3106da3e0d40e7f29f2941645b2b6f2fd75328fa464692cf0e42a39f"
          ],
          "data": "0x000000000000000000000000a6b3d200cd34ca14d7579dac8b054bf50a62c37c0000000000000000000000000000000000000000000000000000009c76524000",
          "blockHash": "0x3d43a07710a6481da08c89779989cd829045f5812a56d7372af6d131a254b172",
          "blockNumber": "0x1977cee",
          "transactionHash": "0x580a1d5ee866ff03079cd14def2a2eee93b1aada6824907a3af3633311fe6e96",
          "transactionIndex": "0x17",
          "logIndex": "0x66",
          "removed": false
        }
      ],
      "logsBloom": "0x00000000002000000000000400000000008000000000000002000000000000000000000000000000000000000000000000000000000000000000000000000000000000000000000000000008000000000000000000000000040000000400000000000000020000000000000000000800000000002000000000000010000000000000000000001000000000020000000000000000000000000000000000000000000000000000000000000000000000000000000000000000000000000000000000200042000000000000000000000000000000000000000000000000000020000000000000000400000000000000000000000000000000000000000000000000",
      "type": "0x2",
      "transactionHash": "0x580a1d5ee866ff03079cd14def2a2eee93b1aada6824907a3af3633311fe6e96",
      "transactionIndex": "0x17",
      "blockHash": "0x3d43a07710a6481da08c89779989cd829045f5812a56d7372af6d131a254b172",
      "blockNumber": "0x1977cee",
      "gasUsed": "0x11d77",
      "effectiveGasPrice": "0x186e4",
      "from": "0xa6b3d200cd34ca14d7579dac8b054bf50a62c37c",
      "to": "0x8f17e2128a4f917ec4147c15fc90badd79e7f090",
      "contractAddress": null,
      "l1BaseFeeScalar": "0x44d",
      "l1BlobBaseFee": "0x6",
      "l1BlobBaseFeeScalar": "0xa118b",
      "l1Fee": "0x1c7",
      "l1GasPrice": "0x22",
      "l1GasUsed": "0x640"
    },
    {
      "status": "0x1",
      "cumulativeGasUsed": "0x3fb477",
      "logs": [
        {
          "address": "0x3d384beb1ba0197e6a87668e1d68267164c8b776",
          "topics": [
            "0x8c5be1e5ebec7d5bd14f71427d1e84f3dd0314c0f7b2291e5b200ac8c7c3b925",
            "0x000000000000000000000000a6b3d200cd34ca14d7579dac8b054bf50a62c37c",
            "0x0000000000000000000000008f17e2128a4f917ec4147c15fc90badd79e7f090"
          ],
          "data": "0x0000000000000000000000000000000000000000000000000000016d14154000",
          "blockHash": "0x3d43a07710a6481da08c89779989cd829045f5812a56d7372af6d131a254b172",
          "blockNumber": "0x1977cee",
          "transactionHash": "0x6677b78b11343acfc72a6ae83d32bac0cbbd28761b964aff1abf149ad0d01447",
          "transactionIndex": "0x18",
          "logIndex": "0x67",
          "removed": false
        }
      ],
      "logsBloom": "0x00000000000000000000000404000000008000000000000002000000000000000000000000000000000000000000000000000000000000000000000000200000000000000000000000000000000000000000000000000000000000000000000000000000000000000000000000000000000000002000000000000000000000000000000000000000000000020000000000000000000000000000000000000000020000000000000000000000000008000000000000000000000000000000000000000040000000000000000000000000000000000000000000000000000000000010000000000000000000000000000000000000000000000000800000000000",
      "type": "0x2",
      "transactionHash": "0x6677b78b11343acfc72a6ae83d32bac0cbbd28761b964aff1abf149ad0d01447",
      "transactionIndex": "0x18",
      "blockHash": "0x3d43a07710a6481da08c89779989cd829045f5812a56d7372af6d131a254b172",
      "blockNumber": "0x1977cee",
      "gasUsed": "0x70c3",
      "effectiveGasPrice": "0x186e4",
      "from": "0xa6b3d200cd34ca14d7579dac8b054bf50a62c37c",
      "to": "0x3d384beb1ba0197e6a87668e1d68267164c8b776",
      "contractAddress": null,
      "l1BaseFeeScalar": "0x44d",
      "l1BlobBaseFee": "0x6",
      "l1BlobBaseFeeScalar": "0xa118b",
      "l1Fee": "0x1c7",
      "l1GasPrice": "0x22",
      "l1GasUsed": "0x640"
    },
    {
      "status": "0x1",
      "cumulativeGasUsed": "0x40fd30",
      "logs": [
        {
          "address": "0x3d384beb1ba0197e6a87668e1d68267164c8b776",
          "topics": [
            "0xddf252ad1be2c89b69c2b068fc378daa952ba7f163c4a11628f55a4df523b3ef",
            "0x000000000000000000000000a6b3d200cd34ca14d7579dac8b054bf50a62c37c",
            "0x0000000000000000000000000000000000000000000000000000000000000000"
          ],
          "data": "0x0000000000000000000000000000000000000000000000000000016d14154000",
          "blockHash": "0x3d43a07710a6481da08c89779989cd829045f5812a56d7372af6d131a254b172",
          "blockNumber": "0x1977cee",
          "transactionHash": "0xeef8da262a2c9773c88bd0115211b76dde99222bdbdd73e55cd2da825dbb5bf8",
          "transactionIndex": "0x19",
          "logIndex": "0x68",
          "removed": false
        },
        {
          "address": "0x3d384beb1ba0197e6a87668e1d68267164c8b776",
          "topics": [
            "0xddf252ad1be2c89b69c2b068fc378daa952ba7f163c4a11628f55a4df523b3ef",
            "0x0000000000000000000000000000000000000000000000000000000000000000",
            "0x000000000000000000000000a6b3d200cd34ca14d7579dac8b054bf50a62c37c"
          ],
          "data": "0x000000000000000000000000000000000000000000000000000000005d75c800",
          "blockHash": "0x3d43a07710a6481da08c89779989cd829045f5812a56d7372af6d131a254b172",
          "blockNumber": "0x1977cee",
          "transactionHash": "0xeef8da262a2c9773c88bd0115211b76dde99222bdbdd73e55cd2da825dbb5bf8",
          "transactionIndex": "0x19",
          "logIndex": "0x69",
          "removed": false
        },
        {
          "address": "0x5405e3a584014c8659ba10591c1b7d55cb1cfc0d",
          "topics": [
            "0xddf252ad1be2c89b69c2b068fc378daa952ba7f163c4a11628f55a4df523b3ef",
            "0x0000000000000000000000008f17e2128a4f917ec4147c15fc90badd79e7f090",
            "0x000000000000000000000000a6b3d200cd34ca14d7579dac8b054bf50a62c37c"
          ],
          "data": "0x0000000000000000000000000000000000000000000000000000000051f4d5c0",
          "blockHash": "0x3d43a07710a6481da08c89779989cd829045f5812a56d7372af6d131a254b172",
          "blockNumber": "0x1977cee",
          "transactionHash": "0xeef8da262a2c9773c88bd0115211b76dde99222bdbdd73e55cd2da825dbb5bf8",
          "transactionIndex": "0x19",
          "logIndex": "0x6a",
          "removed": false
        },
        {
          "address": "0x8f17e2128a4f917ec4147c15fc90badd79e7f090",
          "topics": [
            "0xdaed309a628faec6cab72194019e2a1a34e890ca9bf9be99788992dd54692819"
          ],
          "data": "0x000000000000000000000000a6b3d200cd34ca14d7579dac8b054bf50a62c37c000000000000000000000000000000000000000000000000000000000000001a0000000000000000000000000000000000000000000000000000000051f4d5c0",
          "blockHash": "0x3d43a07710a6481da08c89779989cd829045f5812a56d7372af6d131a254b172",
          "blockNumber": "0x1977cee",
          "transactionHash": "0xeef8da262a2c9773c88bd0115211b76dde99222bdbdd73e55cd2da825dbb5bf8",
          "transactionIndex": "0x19",
          "logIndex": "0x6b",
          "removed": false
        },
        {
          "address": "0x8f17e2128a4f917ec4147c15fc90badd79e7f090",
          "topics": [
            "0x73d7115a3106da3e0d40e7f29f2941645b2b6f2fd75328fa464692cf0e42a39f"
          ],
          "data": "0x000000000000000000000000a6b3d200cd34ca14d7579dac8b054bf50a62c37c0000000000000000000000000000000000000000000000000000016d14154000",
          "blockHash": "0x3d43a07710a6481da08c89779989cd829045f5812a56d7372af6d131a254b172",
          "blockNumber": "0x1977cee",
          "transactionHash": "0xeef8da262a2c9773c88bd0115211b76dde99222bdbdd73e55cd2da825dbb5bf8",
          "transactionIndex": "0x19",
          "logIndex": "0x6c",
          "removed": false
        }
      ],
      "logsBloom": "0x00000000002000000000000404000000008000000000000002000000000000000000080080000000000000000000000000000000000000000002000000000020000000000000000000000008000000000000000000000000040000000400000000000000020000000000000000000800000000002000000000000010000000000000000000001000000000020000000000000000000000000000000000000000000000000000000000000000000008000000000000000000000000000000000000200042000000000000000000000000000000000000000000000000000020000001000000000400000000000000000000000000000020000000800000000000",
      "type": "0x2",
      "transactionHash": "0xeef8da262a2c9773c88bd0115211b76dde99222bdbdd73e55cd2da825dbb5bf8",
      "transactionIndex": "0x19",
      "blockHash": "0x3d43a07710a6481da08c89779989cd829045f5812a56d7372af6d131a254b172",
      "blockNumber": "0x1977cee",
      "gasUsed": "0x148b9",
      "effectiveGasPrice": "0x186e4",
      "from": "0xa6b3d200cd34ca14d7579dac8b054bf50a62c37c",
      "to": "0x8f17e2128a4f917ec4147c15fc90badd79e7f090",
      "contractAddress": null,
      "l1BaseFeeScalar": "0x44d",
      "l1BlobBaseFee": "0x6",
      "l1BlobBaseFeeScalar": "0xa118b",
      "l1Fee": "0x1c7",
      "l1GasPrice": "0x22",
      "l1GasUsed": "0x640"
    }
  ],
  "libraries": [],
  "pending": [],
  "returns": {},
  "timestamp": 1749178557,
  "chain": 84532,
  "commit": "2f11b3c"
}