{
  "transactions": [
    {
      "hash": "0xd2531d0ccdea0dcdda8c92ae6dd69d04f98f972d74aeda0188b0e98671901d6a",
      "transactionType": "CALL",
      "contractName": null,
      "contractAddress": "0x2da53f86929eca8e4c26791c2ac69a0845454c3e",
      "function": "updatePrice(address,address,uint256)",
      "arguments": [
        "0xede942F2e5bA8A49fe0A339AA68DC8E279a00831",
        "0x94e8F1Bfc0DF5353121350c90D48CBE9818fA545",
        "244"
      ],
      "transaction": {
        "from": "0xa6b3d200cd34ca14d7579dac8b054bf50a62c37c",
        "to": "0x2da53f86929eca8e4c26791c2ac69a0845454c3e",
        "gas": "0x377b2",
        "value": "0x0",
        "input": "0x8fbb2a90000000000000000000000000ede942f2e5ba8a49fe0a339aa68dc8e279a0083100000000000000000000000094e8f1bfc0df5353121350c90d48cbe9818fa54500000000000000000000000000000000000000000000000000000000000000f4",
        "nonce": "0xc8e",
        "chainId": "0x14a34"
      },
      "additionalContracts": [],
      "isFixedGasLimit": false
    },
    {
      "hash": "0xa53d22e60ea80b09f37bd3ed1e77f606735c41996bfcce53073143137dc7f4d9",
      "transactionType": "CALL",
      "contractName": null,
      "contractAddress": "0x2da53f86929eca8e4c26791c2ac69a0845454c3e",
      "function": "updatePrice(address,address,uint256)",
      "arguments": [
        "0x94e8F1Bfc0DF5353121350c90D48CBE9818fA545",
        "0xede942F2e5bA8A49fe0A339AA68DC8E279a00831",
        "4100000000"
      ],
      "transaction": {
        "from": "0xa6b3d200cd34ca14d7579dac8b054bf50a62c37c",
        "to": "0x2da53f86929eca8e4c26791c2ac69a0845454c3e",
        "gas": "0x377d4",
        "value": "0x0",
        "input": "0x8fbb2a9000000000000000000000000094e8f1bfc0df5353121350c90d48cbe9818fa545000000000000000000000000ede942f2e5ba8a49fe0a339aa68dc8e279a0083100000000000000000000000000000000000000000000000000000000f4610900",
        "nonce": "0xc8f",
        "chainId": "0x14a34"
      },
      "additionalContracts": [],
      "isFixedGasLimit": false
    }
  ],
  "receipts": [
    {
      "status": "0x1",
      "cumulativeGasUsed": "0x6c81c1",
      "logs": [
        {
          "address": "0x2da53f86929eca8e4c26791c2ac69a0845454c3e",
          "topics": [
            "0xa4a204fa26714a90a8cea4be2a38ce6d1bf79dcebc5d05bc7d24d0e18bf09cb2",
            "0x000000000000000000000000ede942f2e5ba8a49fe0a339aa68dc8e279a00831",
            "0x00000000000000000000000094e8f1bfc0df5353121350c90d48cbe9818fa545"
          ],
          "data": "0x00000000000000000000000000000000000000000000000000000000000000f40000000000000000000000000000000000000000000000000000000000000002",
          "blockHash": "0xed5f4087cfc21189c8d7aaf57bead90925c6543d4c7e0acb497539198aad9a95",
          "blockNumber": "0x19eb78f",
          "blockTimestamp": "0x6850cdfe",
          "transactionHash": "0xd2531d0ccdea0dcdda8c92ae6dd69d04f98f972d74aeda0188b0e98671901d6a",
          "transactionIndex": "0x18",
          "logIndex": "0xb0",
          "removed": false
        }
      ],
      "logsBloom": "0x00000000000000010000000000000000000000000000000080000000000000000000000000000000000000000000000000000000000000000820000000000000000000000000000000000400000000000000000000000000000000000000000000000000000000000000000000000000000000000000000000000000000000000000000000000000000000800000000000000000000000000000000000000000000000000040000000000000000000000000000000000000000040000000000000000000400000000400000000120000000000000000000000000000000000000000000000000000000000000000000000000000000000000000000000000000",
      "type": "0x2",
      "transactionHash": "0xd2531d0ccdea0dcdda8c92ae6dd69d04f98f972d74aeda0188b0e98671901d6a",
      "transactionIndex": "0x18",
      "blockHash": "0xed5f4087cfc21189c8d7aaf57bead90925c6543d4c7e0acb497539198aad9a95",
      "blockNumber": "0x19eb78f",
      "gasUsed": "0x282ae",
      "effectiveGasPrice": "0x4c521",
      "from": "0xa6b3d200cd34ca14d7579dac8b054bf50a62c37c",
      "to": "0x2da53f86929eca8e4c26791c2ac69a0845454c3e",
      "contractAddress": null,
      "l1BaseFeeScalar": "0x44d",
      "l1BlobBaseFee": "0x1",
      "l1BlobBaseFeeScalar": "0xa118b",
      "l1Fee": "0xc296",
      "l1GasPrice": "0x66f2",
      "l1GasUsed": "0x6b2"
    },
    {
      "status": "0x1",
      "cumulativeGasUsed": "0x6f0487",
      "logs": [
        {
          "address": "0x2da53f86929eca8e4c26791c2ac69a0845454c3e",
          "topics": [
            "0xa4a204fa26714a90a8cea4be2a38ce6d1bf79dcebc5d05bc7d24d0e18bf09cb2",
            "0x00000000000000000000000094e8f1bfc0df5353121350c90d48cbe9818fa545",
            "0x000000000000000000000000ede942f2e5ba8a49fe0a339aa68dc8e279a00831"
          ],
          "data": "0x00000000000000000000000000000000000000000000000000000000f46109000000000000000000000000000000000000000000000000000000000000000002",
          "blockHash": "0xed5f4087cfc21189c8d7aaf57bead90925c6543d4c7e0acb497539198aad9a95",
          "blockNumber": "0x19eb78f",
          "blockTimestamp": "0x6850cdfe",
          "transactionHash": "0xa53d22e60ea80b09f37bd3ed1e77f606735c41996bfcce53073143137dc7f4d9",
          "transactionIndex": "0x19",
          "logIndex": "0xb1",
          "removed": false
        }
      ],
      "logsBloom": "0x00000000000000010000000000000000000000000000000080000000000000000000000000000000000000000000000000000000000000000820000000000000000000000000000000000400000000000000000000000000000000000000000000000000000000000000000000000000000000000000000000000000000000000000000000000000000000800000000000000000000000000000000000000000000000000040000000000000000000000000000000000000000040000000000000000000400000000400000000120000000000000000000000000000000000000000000000000000000000000000000000000000000000000000000000000000",
      "type": "0x2",
      "transactionHash": "0xa53d22e60ea80b09f37bd3ed1e77f606735c41996bfcce53073143137dc7f4d9",
      "transactionIndex": "0x19",
      "blockHash": "0xed5f4087cfc21189c8d7aaf57bead90925c6543d4c7e0acb497539198aad9a95",
      "blockNumber": "0x19eb78f",
      "gasUsed": "0x282c6",
      "effectiveGasPrice": "0x4c521",
      "from": "0xa6b3d200cd34ca14d7579dac8b054bf50a62c37c",
      "to": "0x2da53f86929eca8e4c26791c2ac69a0845454c3e",
      "contractAddress": null,
      "l1BaseFeeScalar": "0x44d",
      "l1BlobBaseFee": "0x1",
      "l1BlobBaseFeeScalar": "0xa118b",
      "l1Fee": "0xc725",
      "l1GasPrice": "0x66f2",
      "l1GasUsed": "0x6da"
    }
  ],
  "libraries": [],
  "pending": [],
  "returns": {},
  "timestamp": 1750126078,
  "chain": 84532,
  "commit": "e3173ca"
}