{
  "transactions": [
    {
      "hash": "0xd47cc21e05474532fd753c80322ea92f2a19c8bc984950d158d37a171fa9ceab",
      "transactionType": "CALL",
      "contractName": null,
      "contractAddress": "0x6f5bcbae1ff20cfadfa85f1fed2e6e83ffa167f7",
      "function": "updatePrice(address,address,uint256)",
      "arguments": [
        "0xE9B6b0faC1c14d7125df75E9fEAFEe5cd2434C5B",
        "0xbcBf29FD3f7686126019EC7e40fB15759afc50DE",
        "244"
      ],
      "transaction": {
        "from": "0xa6b3d200cd34ca14d7579dac8b054bf50a62c37c",
        "to": "0x6f5bcbae1ff20cfadfa85f1fed2e6e83ffa167f7",
        "gas": "0x377b2",
        "value": "0x0",
        "input": "0x8fbb2a90000000000000000000000000e9b6b0fac1c14d7125df75e9feafee5cd2434c5b000000000000000000000000bcbf29fd3f7686126019ec7e40fb15759afc50de00000000000000000000000000000000000000000000000000000000000000f4",
        "nonce": "0x155c",
        "chainId": "0x14a34"
      },
      "additionalContracts": [],
      "isFixedGasLimit": false
    },
    {
      "hash": "0x8432b7dfc7a932569f7b8b2c44e80057499a4ac0e298b4ca2b485d46028c1611",
      "transactionType": "CALL",
      "contractName": null,
      "contractAddress": "0x6f5bcbae1ff20cfadfa85f1fed2e6e83ffa167f7",
      "function": "updatePrice(address,address,uint256)",
      "arguments": [
        "0xbcBf29FD3f7686126019EC7e40fB15759afc50DE",
        "0xE9B6b0faC1c14d7125df75E9fEAFEe5cd2434C5B",
        "4100000000"
      ],
      "transaction": {
        "from": "0xa6b3d200cd34ca14d7579dac8b054bf50a62c37c",
        "to": "0x6f5bcbae1ff20cfadfa85f1fed2e6e83ffa167f7",
        "gas": "0x377d4",
        "value": "0x0",
        "input": "0x8fbb2a90000000000000000000000000bcbf29fd3f7686126019ec7e40fb15759afc50de000000000000000000000000e9b6b0fac1c14d7125df75e9feafee5cd2434c5b00000000000000000000000000000000000000000000000000000000f4610900",
        "nonce": "0x155d",
        "chainId": "0x14a34"
      },
      "additionalContracts": [],
      "isFixedGasLimit": false
    }
  ],
  "receipts": [
    {
      "status": "0x1",
      "cumulativeGasUsed": "0x4dfa96",
      "logs": [
        {
          "address": "0x6f5bcbae1ff20cfadfa85f1fed2e6e83ffa167f7",
          "topics": [
            "0xa4a204fa26714a90a8cea4be2a38ce6d1bf79dcebc5d05bc7d24d0e18bf09cb2",
            "0x000000000000000000000000e9b6b0fac1c14d7125df75e9feafee5cd2434c5b",
            "0x000000000000000000000000bcbf29fd3f7686126019ec7e40fb15759afc50de"
          ],
          "data": "0x00000000000000000000000000000000000000000000000000000000000000f40000000000000000000000000000000000000000000000000000000000000002",
          "blockHash": "0x16aa4cd5c8f3ada9cd134642f2d5e93b194dc11eb881ba0d5cf3fd2efe150e09",
          "blockNumber": "0x1a01d1f",
          "transactionHash": "0xd47cc21e05474532fd753c80322ea92f2a19c8bc984950d158d37a171fa9ceab",
          "transactionIndex": "0x14",
          "logIndex": "0x9a",
          "removed": false
        }
      ],
      "logsBloom": "0x00000000000000000000000000000000000000000000000000000000000000000000000000000000000000000000000000000000000000000020000000000020000000000000000000000400000000000000000000000000000000000000000000000000000000000000000000000000400000000000000000000000000000000000000000000000000000000000002000000000000000000000080010000000000000000000000000000000000000000800000000000001000000000000000000000000000000000400000000000000000000000000000000000100000000000000004000000000000000000000000000000000000000000000000000000000",
      "type": "0x0",
      "transactionHash": "0xd47cc21e05474532fd753c80322ea92f2a19c8bc984950d158d37a171fa9ceab",
      "transactionIndex": "0x14",
      "blockHash": "0x16aa4cd5c8f3ada9cd134642f2d5e93b194dc11eb881ba0d5cf3fd2efe150e09",
      "blockNumber": "0x1a01d1f",
      "gasUsed": "0x282ae",
      "effectiveGasPrice": "0xf428c",
      "from": "0xa6b3d200cd34ca14d7579dac8b054bf50a62c37c",
      "to": "0x6f5bcbae1ff20cfadfa85f1fed2e6e83ffa167f7",
      "contractAddress": null,
      "l1BaseFeeScalar": "0x44d",
      "l1BlobBaseFee": "0x1",
      "l1BlobBaseFeeScalar": "0xa118b",
      "l1Fee": "0x63e8",
      "l1GasPrice": "0x37d8",
      "l1GasUsed": "0x654"
    },
    {
      "status": "0x1",
      "cumulativeGasUsed": "0xc4d47c",
      "logs": [
        {
          "address": "0x6f5bcbae1ff20cfadfa85f1fed2e6e83ffa167f7",
          "topics": [
            "0xa4a204fa26714a90a8cea4be2a38ce6d1bf79dcebc5d05bc7d24d0e18bf09cb2",
            "0x000000000000000000000000bcbf29fd3f7686126019ec7e40fb15759afc50de",
            "0x000000000000000000000000e9b6b0fac1c14d7125df75e9feafee5cd2434c5b"
          ],
          "data": "0x00000000000000000000000000000000000000000000000000000000f46109000000000000000000000000000000000000000000000000000000000000000002",
          "blockHash": "0x8295dda6bb93093fd5944d2a97716243becb278b83a73922e2a2faea710756c2",
          "blockNumber": "0x1a01d20",
          "transactionHash": "0x8432b7dfc7a932569f7b8b2c44e80057499a4ac0e298b4ca2b485d46028c1611",
          "transactionIndex": "0x25",
          "logIndex": "0x174",
          "removed": false
        }
      ],
      "logsBloom": "0x00000000000000000000000000000000000000000000000000000000000000000000000000000000000000000000000000000000000000000020000000000020000000000000000000000400000000000000000000000000000000000000000000000000000000000000000000000000400000000000000000000000000000000000000000000000000000000000002000000000000000000000080010000000000000000000000000000000000000000800000000000001000000000000000000000000000000000400000000000000000000000000000000000100000000000000004000000000000000000000000000000000000000000000000000000000",
      "type": "0x0",
      "transactionHash": "0x8432b7dfc7a932569f7b8b2c44e80057499a4ac0e298b4ca2b485d46028c1611",
      "transactionIndex": "0x25",
      "blockHash": "0x8295dda6bb93093fd5944d2a97716243becb278b83a73922e2a2faea710756c2",
      "blockNumber": "0x1a01d20",
      "gasUsed": "0x282c6",
      "effectiveGasPrice": "0xf428c",
      "from": "0xa6b3d200cd34ca14d7579dac8b054bf50a62c37c",
      "to": "0x6f5bcbae1ff20cfadfa85f1fed2e6e83ffa167f7",
      "contractAddress": null,
      "l1BaseFeeScalar": "0x44d",
      "l1BlobBaseFee": "0x1",
      "l1BlobBaseFeeScalar": "0xa118b",
      "l1Fee": "0x6661",
      "l1GasPrice": "0x37d8",
      "l1GasUsed": "0x67c"
    }
  ],
  "libraries": [],
  "pending": [],
  "returns": {},
  "timestamp": 1750309153,
  "chain": 84532,
  "commit": "b2138f5"
}