{
  "transactions": [
    {
      "hash": "0xdd39905f3ec1ff7d49334e7912201bb01b9d4074dca031bd04c2eee14ff9a506",
      "transactionType": "CALL",
      "contractName": null,
      "contractAddress": "0xd12925a84a3fe684cdba703b28390784a57695c6",
      "function": "updatePrice(address,address,uint256)",
      "arguments": [
        "0x91B187907157431Ab6D97A1015d24745C5936Cee",
        "0x009A513d97e55C77060C303f74eE66a991Bd3f08",
        "244"
      ],
      "transaction": {
        "from": "0xa6b3d200cd34ca14d7579dac8b054bf50a62c37c",
        "to": "0xd12925a84a3fe684cdba703b28390784a57695c6",
        "gas": "0x3abd9",
        "value": "0x0",
        "input": "0x8fbb2a9000000000000000000000000091b187907157431ab6d97a1015d24745c5936cee000000000000000000000000009a513d97e55c77060c303f74ee66a991bd3f0800000000000000000000000000000000000000000000000000000000000000f4",
        "nonce": "0xd52",
        "chainId": "0x14a34"
      },
      "additionalContracts": [],
      "isFixedGasLimit": false
    },
    {
      "hash": "0xfe6bcc32e7f536c3bb6606382b54db86e347fb5606570af0bb5652ecd37ea069",
      "transactionType": "CALL",
      "contractName": null,
      "contractAddress": "0xd12925a84a3fe684cdba703b28390784a57695c6",
      "function": "updatePrice(address,address,uint256)",
      "arguments": [
        "0x009A513d97e55C77060C303f74eE66a991Bd3f08",
        "0x91B187907157431Ab6D97A1015d24745C5936Cee",
        "4100000000"
      ],
      "transaction": {
        "from": "0xa6b3d200cd34ca14d7579dac8b054bf50a62c37c",
        "to": "0xd12925a84a3fe684cdba703b28390784a57695c6",
        "gas": "0x3abfc",
        "value": "0x0",
        "input": "0x8fbb2a90000000000000000000000000009a513d97e55c77060c303f74ee66a991bd3f0800000000000000000000000091b187907157431ab6d97a1015d24745c5936cee00000000000000000000000000000000000000000000000000000000f4610900",
        "nonce": "0xd53",
        "chainId": "0x14a34"
      },
      "additionalContracts": [],
      "isFixedGasLimit": false
    }
  ],
  "receipts": [
    {
      "status": "0x1",
      "cumulativeGasUsed": "0x48c684",
      "logs": [
        {
          "address": "0xd12925a84a3fe684cdba703b28390784a57695c6",
          "topics": [
            "0xa4a204fa26714a90a8cea4be2a38ce6d1bf79dcebc5d05bc7d24d0e18bf09cb2",
            "0x00000000000000000000000091b187907157431ab6d97a1015d24745c5936cee",
            "0x000000000000000000000000009a513d97e55c77060c303f74ee66a991bd3f08"
          ],
          "data": "0x00000000000000000000000000000000000000000000000000000000000000f40000000000000000000000000000000000000000000000000000000000000002",
          "blockHash": "0xc05c7fbde4b2c47bfeac6f07bcf2458f3e679de030a719b1b1194222b73ecbf1",
          "blockNumber": "0x19ebc11",
          "transactionHash": "0xdd39905f3ec1ff7d49334e7912201bb01b9d4074dca031bd04c2eee14ff9a506",
          "transactionIndex": "0x12",
          "logIndex": "0x95",
          "removed": false
        }
      ],
      "logsBloom": "0x00000400000000000000000000000000000000000000000000000000000000000000000000000000000000000000000000000000000000000020000000001000000000000000000000002400000000000000000000000000000000000000000100000000000000000000000000000000000000000000000000000000000000000000000000000000010000000000000000000000000000000000000000000000000000000000000000000000000000000000020000000000000000000000000000000000000000000400000000000000000000000000000000000000000000000000000000008000000000000000000000080000000200000000000000000000",
      "type": "0x2",
      "transactionHash": "0xdd39905f3ec1ff7d49334e7912201bb01b9d4074dca031bd04c2eee14ff9a506",
      "transactionIndex": "0x12",
      "blockHash": "0xc05c7fbde4b2c47bfeac6f07bcf2458f3e679de030a719b1b1194222b73ecbf1",
      "blockNumber": "0x19ebc11",
      "gasUsed": "0x282a2",
      "effectiveGasPrice": "0x39538",
      "from": "0xa6b3d200cd34ca14d7579dac8b054bf50a62c37c",
      "to": "0xd12925a84a3fe684cdba703b28390784a57695c6",
      "contractAddress": null,
      "l1BaseFeeScalar": "0x44d",
      "l1BlobBaseFee": "0x1",
      "l1BlobBaseFeeScalar": "0xa118b",
      "l1Fee": "0x1133c",
      "l1GasPrice": "0x91ac",
      "l1GasUsed": "0x6b2"
    },
    {
      "status": "0x1",
      "cumulativeGasUsed": "0x4b493e",
      "logs": [
        {
          "address": "0xd12925a84a3fe684cdba703b28390784a57695c6",
          "topics": [
            "0xa4a204fa26714a90a8cea4be2a38ce6d1bf79dcebc5d05bc7d24d0e18bf09cb2",
            "0x000000000000000000000000009a513d97e55c77060c303f74ee66a991bd3f08",
            "0x00000000000000000000000091b187907157431ab6d97a1015d24745c5936cee"
          ],
          "data": "0x00000000000000000000000000000000000000000000000000000000f46109000000000000000000000000000000000000000000000000000000000000000002",
          "blockHash": "0xc05c7fbde4b2c47bfeac6f07bcf2458f3e679de030a719b1b1194222b73ecbf1",
          "blockNumber": "0x19ebc11",
          "transactionHash": "0xfe6bcc32e7f536c3bb6606382b54db86e347fb5606570af0bb5652ecd37ea069",
          "transactionIndex": "0x13",
          "logIndex": "0x96",
          "removed": false
        }
      ],
      "logsBloom": "0x00000400000000000000000000000000000000000000000000000000000000000000000000000000000000000000000000000000000000000020000000001000000000000000000000002400000000000000000000000000000000000000000100000000000000000000000000000000000000000000000000000000000000000000000000000000010000000000000000000000000000000000000000000000000000000000000000000000000000000000020000000000000000000000000000000000000000000400000000000000000000000000000000000000000000000000000000008000000000000000000000080000000200000000000000000000",
      "type": "0x2",
      "transactionHash": "0xfe6bcc32e7f536c3bb6606382b54db86e347fb5606570af0bb5652ecd37ea069",
      "transactionIndex": "0x13",
      "blockHash": "0xc05c7fbde4b2c47bfeac6f07bcf2458f3e679de030a719b1b1194222b73ecbf1",
      "blockNumber": "0x19ebc11",
      "gasUsed": "0x282ba",
      "effectiveGasPrice": "0x39538",
      "from": "0xa6b3d200cd34ca14d7579dac8b054bf50a62c37c",
      "to": "0xd12925a84a3fe684cdba703b28390784a57695c6",
      "contractAddress": null,
      "l1BaseFeeScalar": "0x44d",
      "l1BlobBaseFee": "0x1",
      "l1BlobBaseFeeScalar": "0xa118b",
      "l1Fee": "0x11788",
      "l1GasPrice": "0x91ac",
      "l1GasUsed": "0x6cd"
    }
  ],
  "libraries": [],
  "pending": [],
  "returns": {},
  "timestamp": 1750128387,
  "chain": 84532,
  "commit": "e3173ca"
}