{
  "transactions": [
    {
      "hash": "0x0df549486f59821203119a38ff61d6f9a0ed2da98edf0455342dc861aa73f1ab",
      "transactionType": "CALL",
      "contractName": null,
      "contractAddress": "0x70778a46054c5fd32795706d92ede96134f7fceb",
      "function": "updatePrice(address,address,uint256)",
      "arguments": [
        "0xD8552Cd4c6555145a2AFCDEB2fb818b4b9d00C61",
        "0xE12a783F7ceE6A9031d4f767AC91D5Df31a0EAF1",
        "244"
      ],
      "transaction": {
        "from": "0xa6b3d200cd34ca14d7579dac8b054bf50a62c37c",
        "to": "0x70778a46054c5fd32795706d92ede96134f7fceb",
        "gas": "0x377b2",
        "value": "0x0",
        "input": "0x8fbb2a90000000000000000000000000d8552cd4c6555145a2afcdeb2fb818b4b9d00c61000000000000000000000000e12a783f7cee6a9031d4f767ac91d5df31a0eaf100000000000000000000000000000000000000000000000000000000000000f4",
        "nonce": "0xe8d",
        "chainId": "0x14a34"
      },
      "additionalContracts": [],
      "isFixedGasLimit": false
    },
    {
      "hash": "0xa761b5530b0079f225efd66221663d12e4989d53ac84c123030fa4ffc014f383",
      "transactionType": "CALL",
      "contractName": null,
      "contractAddress": "0x70778a46054c5fd32795706d92ede96134f7fceb",
      "function": "updatePrice(address,address,uint256)",
      "arguments": [
        "0xE12a783F7ceE6A9031d4f767AC91D5Df31a0EAF1",
        "0xD8552Cd4c6555145a2AFCDEB2fb818b4b9d00C61",
        "4100000000"
      ],
      "transaction": {
        "from": "0xa6b3d200cd34ca14d7579dac8b054bf50a62c37c",
        "to": "0x70778a46054c5fd32795706d92ede96134f7fceb",
        "gas": "0x377d4",
        "value": "0x0",
        "input": "0x8fbb2a90000000000000000000000000e12a783f7cee6a9031d4f767ac91d5df31a0eaf1000000000000000000000000d8552cd4c6555145a2afcdeb2fb818b4b9d00c6100000000000000000000000000000000000000000000000000000000f4610900",
        "nonce": "0xe8e",
        "chainId": "0x14a34"
      },
      "additionalContracts": [],
      "isFixedGasLimit": false
    }
  ],
  "receipts": [
    {
      "status": "0x1",
      "cumulativeGasUsed": "0xd866d",
      "logs": [
        {
          "address": "0x70778a46054c5fd32795706d92ede96134f7fceb",
          "topics": [
            "0xa4a204fa26714a90a8cea4be2a38ce6d1bf79dcebc5d05bc7d24d0e18bf09cb2",
            "0x000000000000000000000000d8552cd4c6555145a2afcdeb2fb818b4b9d00c61",
            "0x000000000000000000000000e12a783f7cee6a9031d4f767ac91d5df31a0eaf1"
          ],
          "data": "0x00000000000000000000000000000000000000000000000000000000000000f40000000000000000000000000000000000000000000000000000000000000002",
          "blockHash": "0xca0ef9cdfb355bd52429418a262059719f5313f0738413468315aaea1c5bd749",
          "blockNumber": "0x19f6d61",
          "transactionHash": "0x0df549486f59821203119a38ff61d6f9a0ed2da98edf0455342dc861aa73f1ab",
          "transactionIndex": "0x5",
          "logIndex": "0x10",
          "removed": false
        }
      ],
      "logsBloom": "0x00000000000000000000000000000000000000000000000000000000000000000000000000000000000000000000000000000000000000000020000000000000000000000080000000000400000000000000000000000000000000000000010000000000000000000000000000000000000000000000000000000000000000000000000000000000000000000000000000000000000000000020000000000000000010000000000000000000000000000000000000000008000080080000000000000000000000000400000000001000000000000000000000000800000000000000000000000000000000000000000000000000000000000000000000000000",
      "type": "0x2",
      "transactionHash": "0x0df549486f59821203119a38ff61d6f9a0ed2da98edf0455342dc861aa73f1ab",
      "transactionIndex": "0x5",
      "blockHash": "0xca0ef9cdfb355bd52429418a262059719f5313f0738413468315aaea1c5bd749",
      "blockNumber": "0x19f6d61",
      "gasUsed": "0x282ae",
      "effectiveGasPrice": "0x3d2ac",
      "from": "0xa6b3d200cd34ca14d7579dac8b054bf50a62c37c",
      "to": "0x70778a46054c5fd32795706d92ede96134f7fceb",
      "contractAddress": null,
      "l1BaseFeeScalar": "0x44d",
      "l1BlobBaseFee": "0x1",
      "l1BlobBaseFeeScalar": "0xa118b",
      "l1Fee": "0x52f8e",
      "l1GasPrice": "0x2bf30",
      "l1GasUsed": "0x6b2"
    },
    {
      "status": "0x1",
      "cumulativeGasUsed": "0x100933",
      "logs": [
        {
          "address": "0x70778a46054c5fd32795706d92ede96134f7fceb",
          "topics": [
            "0xa4a204fa26714a90a8cea4be2a38ce6d1bf79dcebc5d05bc7d24d0e18bf09cb2",
            "0x000000000000000000000000e12a783f7cee6a9031d4f767ac91d5df31a0eaf1",
            "0x000000000000000000000000d8552cd4c6555145a2afcdeb2fb818b4b9d00c61"
          ],
          "data": "0x00000000000000000000000000000000000000000000000000000000f46109000000000000000000000000000000000000000000000000000000000000000002",
          "blockHash": "0xca0ef9cdfb355bd52429418a262059719f5313f0738413468315aaea1c5bd749",
          "blockNumber": "0x19f6d61",
          "transactionHash": "0xa761b5530b0079f225efd66221663d12e4989d53ac84c123030fa4ffc014f383",
          "transactionIndex": "0x6",
          "logIndex": "0x11",
          "removed": false
        }
      ],
      "logsBloom": "0x00000000000000000000000000000000000000000000000000000000000000000000000000000000000000000000000000000000000000000020000000000000000000000080000000000400000000000000000000000000000000000000010000000000000000000000000000000000000000000000000000000000000000000000000000000000000000000000000000000000000000000020000000000000000010000000000000000000000000000000000000000008000080080000000000000000000000000400000000001000000000000000000000000800000000000000000000000000000000000000000000000000000000000000000000000000",
      "type": "0x2",
      "transactionHash": "0xa761b5530b0079f225efd66221663d12e4989d53ac84c123030fa4ffc014f383",
      "transactionIndex": "0x6",
      "blockHash": "0xca0ef9cdfb355bd52429418a262059719f5313f0738413468315aaea1c5bd749",
      "blockNumber": "0x19f6d61",
      "gasUsed": "0x282c6",
      "effectiveGasPrice": "0x3d2ac",
      "from": "0xa6b3d200cd34ca14d7579dac8b054bf50a62c37c",
      "to": "0x70778a46054c5fd32795706d92ede96134f7fceb",
      "contractAddress": null,
      "l1BaseFeeScalar": "0x44d",
      "l1BlobBaseFee": "0x1",
      "l1BlobBaseFeeScalar": "0xa118b",
      "l1Fee": "0x54ea5",
      "l1GasPrice": "0x2bf30",
      "l1GasUsed": "0x6da"
    }
  ],
  "libraries": [],
  "pending": [],
  "returns": {},
  "timestamp": 1750219171,
  "chain": 84532,
  "commit": "4fea70f"
}