{
  "transactions": [
    {
      "hash": "0x4ef20f3ee7f1024296620f26b212c03e967837f323d741f3049bf05fa3af2c23",
      "transactionType": "CALL",
      "contractName": null,
      "contractAddress": "0x377100b614bfb71ca489b2f0f1b2c82ea8f88081",
      "function": "updatePrice(address,address,uint256)",
      "arguments": [
        "0xa79B663Cbb43CCFB7780E45a97e600198FA821A7",
        "0xabA8AFd2C637c27d09A893fe048A74f94D74108B",
        "244"
      ],
      "transaction": {
        "from": "0xa6b3d200cd34ca14d7579dac8b054bf50a62c37c",
        "to": "0x377100b614bfb71ca489b2f0f1b2c82ea8f88081",
        "gas": "0x3abd9",
        "value": "0x0",
        "input": "0x8fbb2a90000000000000000000000000a79b663cbb43ccfb7780e45a97e600198fa821a7000000000000000000000000aba8afd2c637c27d09a893fe048a74f94d74108b00000000000000000000000000000000000000000000000000000000000000f4",
        "nonce": "0x15b8",
        "chainId": "0x14a34"
      },
      "additionalContracts": [],
      "isFixedGasLimit": false
    },
    {
      "hash": "0x7a19206cb404afacee81bbee16a7c0084dee62d2d8078ff51f76132af81b89e6",
      "transactionType": "CALL",
      "contractName": null,
      "contractAddress": "0x377100b614bfb71ca489b2f0f1b2c82ea8f88081",
      "function": "updatePrice(address,address,uint256)",
      "arguments": [
        "0xabA8AFd2C637c27d09A893fe048A74f94D74108B",
        "0xa79B663Cbb43CCFB7780E45a97e600198FA821A7",
        "4100000000"
      ],
      "transaction": {
        "from": "0xa6b3d200cd34ca14d7579dac8b054bf50a62c37c",
        "to": "0x377100b614bfb71ca489b2f0f1b2c82ea8f88081",
        "gas": "0x3abfc",
        "value": "0x0",
        "input": "0x8fbb2a90000000000000000000000000aba8afd2c637c27d09a893fe048a74f94d74108b000000000000000000000000a79b663cbb43ccfb7780e45a97e600198fa821a700000000000000000000000000000000000000000000000000000000f4610900",
        "nonce": "0x15b9",
        "chainId": "0x14a34"
      },
      "additionalContracts": [],
      "isFixedGasLimit": false
    }
  ],
  "receipts": [
    {
      "status": "0x1",
      "cumulativeGasUsed": "0x15a32a",
      "logs": [
        {
          "address": "0x377100b614bfb71ca489b2f0f1b2c82ea8f88081",
          "topics": [
            "0xa4a204fa26714a90a8cea4be2a38ce6d1bf79dcebc5d05bc7d24d0e18bf09cb2",
            "0x000000000000000000000000a79b663cbb43ccfb7780e45a97e600198fa821a7",
            "0x000000000000000000000000aba8afd2c637c27d09a893fe048a74f94d74108b"
          ],
          "data": "0x00000000000000000000000000000000000000000000000000000000000000f40000000000000000000000000000000000000000000000000000000000000002",
          "blockHash": "0xe23174bbc843753e1f9db833273a653e7d9240cd4afcb426468743c0c196b37b",
          "blockNumber": "0x1a06d83",
          "transactionHash": "0x4ef20f3ee7f1024296620f26b212c03e967837f323d741f3049bf05fa3af2c23",
          "transactionIndex": "0x9",
          "logIndex": "0x12",
          "removed": false
        }
      ],
      "logsBloom": "0x00000000000000000000000000000200000000000000000000000000002000000000000000000000000000000020000000000000004000000020000000000000000000008000000000000400000000000000000000000000000000000000000000000000000000000000000000000000000000000000000000000000000000000000000000000000000000000000000000000000000000000000000000000000000000000000000000000000000000000000400000000000000000000000000000000000000000000400004000000000000000000000000000000000000000000000000000000200000000000000000000000000000000000000000000000004",
      "type": "0x0",
      "transactionHash": "0x4ef20f3ee7f1024296620f26b212c03e967837f323d741f3049bf05fa3af2c23",
      "transactionIndex": "0x9",
      "blockHash": "0xe23174bbc843753e1f9db833273a653e7d9240cd4afcb426468743c0c196b37b",
      "blockNumber": "0x1a06d83",
      "gasUsed": "0x282a2",
      "effectiveGasPrice": "0xf42bc",
      "from": "0xa6b3d200cd34ca14d7579dac8b054bf50a62c37c",
      "to": "0x377100b614bfb71ca489b2f0f1b2c82ea8f88081",
      "contractAddress": null,
      "l1BaseFeeScalar": "0x44d",
      "l1BlobBaseFee": "0x1",
      "l1BlobBaseFeeScalar": "0xa118b",
      "l1Fee": "0x13e",
      "l1GasPrice": "0x8d",
      "l1GasUsed": "0x654"
    },
    {
      "status": "0x1",
      "cumulativeGasUsed": "0x9d890a",
      "logs": [
        {
          "address": "0x377100b614bfb71ca489b2f0f1b2c82ea8f88081",
          "topics": [
            "0xa4a204fa26714a90a8cea4be2a38ce6d1bf79dcebc5d05bc7d24d0e18bf09cb2",
            "0x000000000000000000000000aba8afd2c637c27d09a893fe048a74f94d74108b",
            "0x000000000000000000000000a79b663cbb43ccfb7780e45a97e600198fa821a7"
          ],
          "data": "0x00000000000000000000000000000000000000000000000000000000f46109000000000000000000000000000000000000000000000000000000000000000002",
          "blockHash": "0x9d713f9445ac9fa72626ef86a5490a8dcea7a2e86010fd78fe44d1c5ae23d1f8",
          "blockNumber": "0x1a06d84",
          "transactionHash": "0x7a19206cb404afacee81bbee16a7c0084dee62d2d8078ff51f76132af81b89e6",
          "transactionIndex": "0x24",
          "logIndex": "0x162",
          "removed": false
        }
      ],
      "logsBloom": "0x00000000000000000000000000000200000000000000000000000000002000000000000000000000000000000020000000000000004000000020000000000000000000008000000000000400000000000000000000000000000000000000000000000000000000000000000000000000000000000000000000000000000000000000000000000000000000000000000000000000000000000000000000000000000000000000000000000000000000000000400000000000000000000000000000000000000000000400004000000000000000000000000000000000000000000000000000000200000000000000000000000000000000000000000000000004",
      "type": "0x0",
      "transactionHash": "0x7a19206cb404afacee81bbee16a7c0084dee62d2d8078ff51f76132af81b89e6",
      "transactionIndex": "0x24",
      "blockHash": "0x9d713f9445ac9fa72626ef86a5490a8dcea7a2e86010fd78fe44d1c5ae23d1f8",
      "blockNumber": "0x1a06d84",
      "gasUsed": "0x282ba",
      "effectiveGasPrice": "0xf42bc",
      "from": "0xa6b3d200cd34ca14d7579dac8b054bf50a62c37c",
      "to": "0x377100b614bfb71ca489b2f0f1b2c82ea8f88081",
      "contractAddress": null,
      "l1BaseFeeScalar": "0x44d",
      "l1BlobBaseFee": "0x1",
      "l1BlobBaseFeeScalar": "0xa118b",
      "l1Fee": "0x146",
      "l1GasPrice": "0x8d",
      "l1GasUsed": "0x67c"
    }
  ],
  "libraries": [],
  "pending": [],
  "returns": {},
  "timestamp": 1750350313,
  "chain": 84532,
  "commit": "4ffb982"
}