{
  "transactions": [
    {
      "hash": "0x47ef4e457d4d942022063f7f5a76285ffece737e8ed87ec098b6571b35850bcc",
      "transactionType": "CALL",
      "contractName": null,
      "contractAddress": "0x6e8a9d1f275bec9785b64e62a0824429fc887b0b",
      "function": "updatePrice(address,address,uint256)",
      "arguments": [
        "0xed289C5fEC1481fBBf1fFdDFd261f572aD5Dad58",
        "0x67BC322f1CcBd15683E6954be04ca28EaB23683F",
        "244"
      ],
      "transaction": {
        "from": "0xa6b3d200cd34ca14d7579dac8b054bf50a62c37c",
        "to": "0x6e8a9d1f275bec9785b64e62a0824429fc887b0b",
        "gas": "0x377b2",
        "value": "0x0",
        "input": "0x8fbb2a90000000000000000000000000ed289c5fec1481fbbf1ffddfd261f572ad5dad5800000000000000000000000067bc322f1ccbd15683e6954be04ca28eab23683f00000000000000000000000000000000000000000000000000000000000000f4",
        "nonce": "0x12fb",
        "chainId": "0x14a34"
      },
      "additionalContracts": [],
      "isFixedGasLimit": false
    },
    {
      "hash": "0xc586d50ebd412f6606a6385b759c2d600448c8eb05f831afcb80663ab236e52f",
      "transactionType": "CALL",
      "contractName": null,
      "contractAddress": "0x6e8a9d1f275bec9785b64e62a0824429fc887b0b",
      "function": "updatePrice(address,address,uint256)",
      "arguments": [
        "0x67BC322f1CcBd15683E6954be04ca28EaB23683F",
        "0xed289C5fEC1481fBBf1fFdDFd261f572aD5Dad58",
        "4100000000"
      ],
      "transaction": {
        "from": "0xa6b3d200cd34ca14d7579dac8b054bf50a62c37c",
        "to": "0x6e8a9d1f275bec9785b64e62a0824429fc887b0b",
        "gas": "0x377d4",
        "value": "0x0",
        "input": "0x8fbb2a9000000000000000000000000067bc322f1ccbd15683e6954be04ca28eab23683f000000000000000000000000ed289c5fec1481fbbf1ffddfd261f572ad5dad5800000000000000000000000000000000000000000000000000000000f4610900",
        "nonce": "0x12fc",
        "chainId": "0x14a34"
      },
      "additionalContracts": [],
      "isFixedGasLimit": false
    }
  ],
  "receipts": [
    {
      "status": "0x1",
      "cumulativeGasUsed": "0x23d201",
      "logs": [
        {
          "address": "0x6e8a9d1f275bec9785b64e62a0824429fc887b0b",
          "topics": [
            "0xa4a204fa26714a90a8cea4be2a38ce6d1bf79dcebc5d05bc7d24d0e18bf09cb2",
            "0x000000000000000000000000ed289c5fec1481fbbf1ffddfd261f572ad5dad58",
            "0x00000000000000000000000067bc322f1ccbd15683e6954be04ca28eab23683f"
          ],
          "data": "0x00000000000000000000000000000000000000000000000000000000000000f40000000000000000000000000000000000000000000000000000000000000002",
          "blockHash": "0x4c294f4283ad23275e02dc836b3c4e299b0223428ca186928a6ba3792a9afde5",
          "blockNumber": "0x19ffc5a",
          "transactionHash": "0x47ef4e457d4d942022063f7f5a76285ffece737e8ed87ec098b6571b35850bcc",
          "transactionIndex": "0x8",
          "logIndex": "0x54",
          "removed": false
        }
      ],
      "logsBloom": "0x00400000000000000000000000000000000000000004000000000000000000000000000000000000000000000000000000000000000000000020000000000000000000000000000000000400000000000000000000000080000000000000000000000000000000000000000000000000000000000000000000000000000000000000000000000000000000000000000000001000000000000000000000000000000000000000000000000000000000000000000000000000000000000000400000000000000000000400000000000000000000000000040000000000000000000000000000000000000000000000400100000000000000000000040000000000",
      "type": "0x2",
      "transactionHash": "0x47ef4e457d4d942022063f7f5a76285ffece737e8ed87ec098b6571b35850bcc",
      "transactionIndex": "0x8",
      "blockHash": "0x4c294f4283ad23275e02dc836b3c4e299b0223428ca186928a6ba3792a9afde5",
      "blockNumber": "0x19ffc5a",
      "gasUsed": "0x282ae",
      "effectiveGasPrice": "0x1bcfd",
      "from": "0xa6b3d200cd34ca14d7579dac8b054bf50a62c37c",
      "to": "0x6e8a9d1f275bec9785b64e62a0824429fc887b0b",
      "contractAddress": null,
      "l1BaseFeeScalar": "0x44d",
      "l1BlobBaseFee": "0x1",
      "l1BlobBaseFeeScalar": "0xa118b",
      "l1Fee": "0xa5",
      "l1GasPrice": "0x32",
      "l1GasUsed": "0x6b2"
    },
    {
      "status": "0x1",
      "cumulativeGasUsed": "0x2654c7",
      "logs": [
        {
          "address": "0x6e8a9d1f275bec9785b64e62a0824429fc887b0b",
          "topics": [
            "0xa4a204fa26714a90a8cea4be2a38ce6d1bf79dcebc5d05bc7d24d0e18bf09cb2",
            "0x00000000000000000000000067bc322f1ccbd15683e6954be04ca28eab23683f",
            "0x000000000000000000000000ed289c5fec1481fbbf1ffddfd261f572ad5dad58"
          ],
          "data": "0x00000000000000000000000000000000000000000000000000000000f46109000000000000000000000000000000000000000000000000000000000000000002",
          "blockHash": "0x4c294f4283ad23275e02dc836b3c4e299b0223428ca186928a6ba3792a9afde5",
          "blockNumber": "0x19ffc5a",
          "transactionHash": "0xc586d50ebd412f6606a6385b759c2d600448c8eb05f831afcb80663ab236e52f",
          "transactionIndex": "0x9",
          "logIndex": "0x55",
          "removed": false
        }
      ],
      "logsBloom": "0x00400000000000000000000000000000000000000004000000000000000000000000000000000000000000000000000000000000000000000020000000000000000000000000000000000400000000000000000000000080000000000000000000000000000000000000000000000000000000000000000000000000000000000000000000000000000000000000000000001000000000000000000000000000000000000000000000000000000000000000000000000000000000000000400000000000000000000400000000000000000000000000040000000000000000000000000000000000000000000000400100000000000000000000040000000000",
      "type": "0x2",
      "transactionHash": "0xc586d50ebd412f6606a6385b759c2d600448c8eb05f831afcb80663ab236e52f",
      "transactionIndex": "0x9",
      "blockHash": "0x4c294f4283ad23275e02dc836b3c4e299b0223428ca186928a6ba3792a9afde5",
      "blockNumber": "0x19ffc5a",
      "gasUsed": "0x282c6",
      "effectiveGasPrice": "0x1bcfd",
      "from": "0xa6b3d200cd34ca14d7579dac8b054bf50a62c37c",
      "to": "0x6e8a9d1f275bec9785b64e62a0824429fc887b0b",
      "contractAddress": null,
      "l1BaseFeeScalar": "0x44d",
      "l1BlobBaseFee": "0x1",
      "l1BlobBaseFeeScalar": "0xa118b",
      "l1Fee": "0xa8",
      "l1GasPrice": "0x32",
      "l1GasUsed": "0x6da"
    }
  ],
  "libraries": [],
  "pending": [],
  "returns": {},
  "timestamp": 1750292373,
  "chain": 84532,
  "commit": "51ec064"
}