{
  "transactions": [
    {
      "hash": "0x55e99b1df12a277433baa784d5c850865b4549ab69fb2e16447e2c278d14e6b2",
      "transactionType": "CALL",
      "contractName": null,
      "contractAddress": "0x3bac75b32cd049fa0fd7eeb3ef40b8d10d47a24b",
      "function": "updatePrice(address,address,uint256)",
      "arguments": [
        "0xE16bE08e8589f3D6e727c3D212a990fef3464E3D",
        "0xCc3199f5C52A778478e38a918Bc30e0050DF386C",
        "244"
      ],
      "transaction": {
        "from": "0xa6b3d200cd34ca14d7579dac8b054bf50a62c37c",
        "to": "0x3bac75b32cd049fa0fd7eeb3ef40b8d10d47a24b",
        "gas": "0x3abd9",
        "value": "0x0",
        "input": "0x8fbb2a90000000000000000000000000e16be08e8589f3d6e727c3d212a990fef3464e3d000000000000000000000000cc3199f5c52a778478e38a918bc30e0050df386c00000000000000000000000000000000000000000000000000000000000000f4",
        "nonce": "0xdfc",
        "chainId": "0x14a34"
      },
      "additionalContracts": [],
      "isFixedGasLimit": false
    },
    {
      "hash": "0x4a3c124f1e5ac1e0dd19541ceb85f6551baac06538105cff7f999c684dfa8b6c",
      "transactionType": "CALL",
      "contractName": null,
      "contractAddress": "0x3bac75b32cd049fa0fd7eeb3ef40b8d10d47a24b",
      "function": "updatePrice(address,address,uint256)",
      "arguments": [
        "0xCc3199f5C52A778478e38a918Bc30e0050DF386C",
        "0xE16bE08e8589f3D6e727c3D212a990fef3464E3D",
        "4100000000"
      ],
      "transaction": {
        "from": "0xa6b3d200cd34ca14d7579dac8b054bf50a62c37c",
        "to": "0x3bac75b32cd049fa0fd7eeb3ef40b8d10d47a24b",
        "gas": "0x3abfc",
        "value": "0x0",
        "input": "0x8fbb2a90000000000000000000000000cc3199f5c52a778478e38a918bc30e0050df386c000000000000000000000000e16be08e8589f3d6e727c3d212a990fef3464e3d00000000000000000000000000000000000000000000000000000000f4610900",
        "nonce": "0xdfd",
        "chainId": "0x14a34"
      },
      "additionalContracts": [],
      "isFixedGasLimit": false
    }
  ],
  "receipts": [
    {
      "status": "0x1",
      "cumulativeGasUsed": "0x3ae787",
      "logs": [
        {
          "address": "0x3bac75b32cd049fa0fd7eeb3ef40b8d10d47a24b",
          "topics": [
            "0xa4a204fa26714a90a8cea4be2a38ce6d1bf79dcebc5d05bc7d24d0e18bf09cb2",
            "0x000000000000000000000000e16be08e8589f3d6e727c3d212a990fef3464e3d",
            "0x000000000000000000000000cc3199f5c52a778478e38a918bc30e0050df386c"
          ],
          "data": "0x00000000000000000000000000000000000000000000000000000000000000f40000000000000000000000000000000000000000000000000000000000000002",
          "blockHash": "0x075d3c6d17ed974b4e544091141c8dcdeda35d928ddfc42267167d782af5e4d9",
          "blockNumber": "0x19ec5e6",
          "transactionHash": "0x55e99b1df12a277433baa784d5c850865b4549ab69fb2e16447e2c278d14e6b2",
          "transactionIndex": "0x13",
          "logIndex": "0x79",
          "removed": false
        }
      ],
      "logsBloom": "0x00000200000000000000000000000000200000000000000000000000000000000000000100000000000000000000000000000010000000000020000000000000000000400000000000000400000000000000000000000000000000000000000000000000000000000000000000000000000000000000000000000000000000000000000000000000000000000040000000000000000000000000000000000000000000000000000000000000000000000000000000000000000000000004000000000000000000000400000000000000000000000000000040000000000000000000000000000000000000000000000000400000000000000000000000000000",
      "type": "0x2",
      "transactionHash": "0x55e99b1df12a277433baa784d5c850865b4549ab69fb2e16447e2c278d14e6b2",
      "transactionIndex": "0x13",
      "blockHash": "0x075d3c6d17ed974b4e544091141c8dcdeda35d928ddfc42267167d782af5e4d9",
      "blockNumber": "0x19ec5e6",
      "gasUsed": "0x282a2",
      "effectiveGasPrice": "0xab6a8",
      "from": "0xa6b3d200cd34ca14d7579dac8b054bf50a62c37c",
      "to": "0x3bac75b32cd049fa0fd7eeb3ef40b8d10d47a24b",
      "contractAddress": null,
      "l1BaseFeeScalar": "0x44d",
      "l1BlobBaseFee": "0x1",
      "l1BlobBaseFeeScalar": "0xa118b",
      "l1Fee": "0x348ea0",
      "l1GasPrice": "0x1bd811",
      "l1GasUsed": "0x6b2"
    },
    {
      "status": "0x1",
      "cumulativeGasUsed": "0x3d6a41",
      "logs": [
        {
          "address": "0x3bac75b32cd049fa0fd7eeb3ef40b8d10d47a24b",
          "topics": [
            "0xa4a204fa26714a90a8cea4be2a38ce6d1bf79dcebc5d05bc7d24d0e18bf09cb2",
            "0x000000000000000000000000cc3199f5c52a778478e38a918bc30e0050df386c",
            "0x000000000000000000000000e16be08e8589f3d6e727c3d212a990fef3464e3d"
          ],
          "data": "0x00000000000000000000000000000000000000000000000000000000f46109000000000000000000000000000000000000000000000000000000000000000002",
          "blockHash": "0x075d3c6d17ed974b4e544091141c8dcdeda35d928ddfc42267167d782af5e4d9",
          "blockNumber": "0x19ec5e6",
          "transactionHash": "0x4a3c124f1e5ac1e0dd19541ceb85f6551baac06538105cff7f999c684dfa8b6c",
          "transactionIndex": "0x14",
          "logIndex": "0x7a",
          "removed": false
        }
      ],
      "logsBloom": "0x00000200000000000000000000000000200000000000000000000000000000000000000100000000000000000000000000000010000000000020000000000000000000400000000000000400000000000000000000000000000000000000000000000000000000000000000000000000000000000000000000000000000000000000000000000000000000000040000000000000000000000000000000000000000000000000000000000000000000000000000000000000000000000004000000000000000000000400000000000000000000000000000040000000000000000000000000000000000000000000000000400000000000000000000000000000",
      "type": "0x2",
      "transactionHash": "0x4a3c124f1e5ac1e0dd19541ceb85f6551baac06538105cff7f999c684dfa8b6c",
      "transactionIndex": "0x14",
      "blockHash": "0x075d3c6d17ed974b4e544091141c8dcdeda35d928ddfc42267167d782af5e4d9",
      "blockNumber": "0x19ec5e6",
      "gasUsed": "0x282ba",
      "effectiveGasPrice": "0xab6a8",
      "from": "0xa6b3d200cd34ca14d7579dac8b054bf50a62c37c",
      "to": "0x3bac75b32cd049fa0fd7eeb3ef40b8d10d47a24b",
      "contractAddress": null,
      "l1BaseFeeScalar": "0x44d",
      "l1BlobBaseFee": "0x1",
      "l1BlobBaseFeeScalar": "0xa118b",
      "l1Fee": "0x35c9be",
      "l1GasPrice": "0x1bd811",
      "l1GasUsed": "0x6da"
    }
  ],
  "libraries": [],
  "pending": [],
  "returns": {},
  "timestamp": 1750133421,
  "chain": 84532,
  "commit": "e3173ca"
}