{
  "transactions": [
    {
      "hash": "0xa95bfee96894ea54deebf0b089bc2370aff1e227b759e980de46275b15fb06ba",
      "transactionType": "CALL",
      "contractName": null,
      "contractAddress": "0x6c060e06d10c62d50e3c51470676cd370d6dde57",
      "function": "updatePrice(address,address,uint256)",
      "arguments": [
        "0x62f6E4abAf3FeA52cC933914b626F79ba735E73f",
        "0x2A0460cfD81cd057FCB2acc395181dBB1eF5779C",
        "244"
      ],
      "transaction": {
        "from": "0xa6b3d200cd34ca14d7579dac8b054bf50a62c37c",
        "to": "0x6c060e06d10c62d50e3c51470676cd370d6dde57",
        "gas": "0x377b2",
        "value": "0x0",
        "input": "0x8fbb2a9000000000000000000000000062f6e4abaf3fea52cc933914b626f79ba735e73f0000000000000000000000002a0460cfd81cd057fcb2acc395181dbb1ef5779c00000000000000000000000000000000000000000000000000000000000000f4",
        "nonce": "0x13c5",
        "chainId": "0x14a34"
      },
      "additionalContracts": [],
      "isFixedGasLimit": false
    },
    {
      "hash": "0xf475ecb6e1be1bf3e626ab1655dc335d74f43fd7246363ca45bf99992917116b",
      "transactionType": "CALL",
      "contractName": null,
      "contractAddress": "0x6c060e06d10c62d50e3c51470676cd370d6dde57",
      "function": "updatePrice(address,address,uint256)",
      "arguments": [
        "0x2A0460cfD81cd057FCB2acc395181dBB1eF5779C",
        "0x62f6E4abAf3FeA52cC933914b626F79ba735E73f",
        "4100000000"
      ],
      "transaction": {
        "from": "0xa6b3d200cd34ca14d7579dac8b054bf50a62c37c",
        "to": "0x6c060e06d10c62d50e3c51470676cd370d6dde57",
        "gas": "0x377d4",
        "value": "0x0",
        "input": "0x8fbb2a900000000000000000000000002a0460cfd81cd057fcb2acc395181dbb1ef5779c00000000000000000000000062f6e4abaf3fea52cc933914b626f79ba735e73f00000000000000000000000000000000000000000000000000000000f4610900",
        "nonce": "0x13c6",
        "chainId": "0x14a34"
      },
      "additionalContracts": [],
      "isFixedGasLimit": false
    }
  ],
  "receipts": [
    {
      "status": "0x1",
      "cumulativeGasUsed": "0x6841c9",
      "logs": [
        {
          "address": "0x6c060e06d10c62d50e3c51470676cd370d6dde57",
          "topics": [
            "0xa4a204fa26714a90a8cea4be2a38ce6d1bf79dcebc5d05bc7d24d0e18bf09cb2",
            "0x00000000000000000000000062f6e4abaf3fea52cc933914b626f79ba735e73f",
            "0x0000000000000000000000002a0460cfd81cd057fcb2acc395181dbb1ef5779c"
          ],
          "data": "0x00000000000000000000000000000000000000000000000000000000000000f40000000000000000000000000000000000000000000000000000000000000002",
          "blockHash": "0x5cf0f1b0406ee611a70a95f8ee5774b1b01af5002f4b9034c593debe9062a318",
          "blockNumber": "0x1a00065",
          "transactionHash": "0xa95bfee96894ea54deebf0b089bc2370aff1e227b759e980de46275b15fb06ba",
          "transactionIndex": "0x20",
          "logIndex": "0xc6",
          "removed": false
        }
      ],
      "logsBloom": "0x00000000000000000000000000000000000000000000000000000000000000000000000000000000000000000000000000000000000000000020000000000000000000000000000000000400000000000000000000000000000000000000000000000000000000000400000000000000000000000000000000002000000000000000000000000000000020000000000000000000000000000000004000000000000000000000000000000000000000040000000000000000000040008000000000000000000000000400000000000000000000000800000000000000000000000000000000000000000000000000000000000000000000010000000000000000",
      "type": "0x0",
      "transactionHash": "0xa95bfee96894ea54deebf0b089bc2370aff1e227b759e980de46275b15fb06ba",
      "transactionIndex": "0x20",
      "blockHash": "0x5cf0f1b0406ee611a70a95f8ee5774b1b01af5002f4b9034c593debe9062a318",
      "blockNumber": "0x1a00065",
      "gasUsed": "0x282ae",
      "effectiveGasPrice": "0xf4290",
      "from": "0xa6b3d200cd34ca14d7579dac8b054bf50a62c37c",
      "to": "0x6c060e06d10c62d50e3c51470676cd370d6dde57",
      "contractAddress": null,
      "l1BaseFeeScalar": "0x44d",
      "l1BlobBaseFee": "0x1",
      "l1BlobBaseFeeScalar": "0xa118b",
      "l1Fee": "0x4b47",
      "l1GasPrice": "0x2a0b",
      "l1GasUsed": "0x654"
    },
    {
      "status": "0x1",
      "cumulativeGasUsed": "0x111994",
      "logs": [
        {
          "address": "0x6c060e06d10c62d50e3c51470676cd370d6dde57",
          "topics": [
            "0xa4a204fa26714a90a8cea4be2a38ce6d1bf79dcebc5d05bc7d24d0e18bf09cb2",
            "0x0000000000000000000000002a0460cfd81cd057fcb2acc395181dbb1ef5779c",
            "0x00000000000000000000000062f6e4abaf3fea52cc933914b626f79ba735e73f"
          ],
          "data": "0x00000000000000000000000000000000000000000000000000000000f46109000000000000000000000000000000000000000000000000000000000000000002",
          "blockHash": "0x9f6a3985d29b1ab0757cd339c975351df1843f3f0d3a92040af6d03e08c21982",
          "blockNumber": "0x1a00067",
          "transactionHash": "0xf475ecb6e1be1bf3e626ab1655dc335d74f43fd7246363ca45bf99992917116b",
          "transactionIndex": "0x4",
          "logIndex": "0x1e",
          "removed": false
        }
      ],
      "logsBloom": "0x00000000000000000000000000000000000000000000000000000000000000000000000000000000000000000000000000000000000000000020000000000000000000000000000000000400000000000000000000000000000000000000000000000000000000000400000000000000000000000000000000002000000000000000000000000000000020000000000000000000000000000000004000000000000000000000000000000000000000040000000000000000000040008000000000000000000000000400000000000000000000000800000000000000000000000000000000000000000000000000000000000000000000010000000000000000",
      "type": "0x0",
      "transactionHash": "0xf475ecb6e1be1bf3e626ab1655dc335d74f43fd7246363ca45bf99992917116b",
      "transactionIndex": "0x4",
      "blockHash": "0x9f6a3985d29b1ab0757cd339c975351df1843f3f0d3a92040af6d03e08c21982",
      "blockNumber": "0x1a00067",
      "gasUsed": "0x282c6",
      "effectiveGasPrice": "0xf4290",
      "from": "0xa6b3d200cd34ca14d7579dac8b054bf50a62c37c",
      "to": "0x6c060e06d10c62d50e3c51470676cd370d6dde57",
      "contractAddress": null,
      "l1BaseFeeScalar": "0x44d",
      "l1BlobBaseFee": "0x1",
      "l1BlobBaseFeeScalar": "0xa118b",
      "l1Fee": "0x4d25",
      "l1GasPrice": "0x2a0b",
      "l1GasUsed": "0x67c"
    }
  ],
  "libraries": [],
  "pending": [],
  "returns": {},
  "timestamp": 1750294447,
  "chain": 84532,
  "commit": "16e600a"
}