{
  "transactions": [
    {
      "hash": "0xea695402eb7d76231658c422db6e5710774997270e2e87db1e29e24fd9be052d",
      "transactionType": "CALL",
      "contractName": null,
      "contractAddress": "0xfc68a9b57995c54e6be68aed23682a666a5d986e",
      "function": "updatePrice(address,address,uint256)",
      "arguments": [
        "0x6bF59e9cBbCe16AAf58b51D32D39b2a437281ae2",
        "0x16618AFA2B80D33163811f0C6716AC7DC39529aC",
        "244"
      ],
      "transaction": {
        "from": "0xa6b3d200cd34ca14d7579dac8b054bf50a62c37c",
        "to": "0xfc68a9b57995c54e6be68aed23682a666a5d986e",
        "gas": "0x377b2",
        "value": "0x0",
        "input": "0x8fbb2a900000000000000000000000006bf59e9cbbce16aaf58b51d32d39b2a437281ae200000000000000000000000016618afa2b80d33163811f0c6716ac7dc39529ac00000000000000000000000000000000000000000000000000000000000000f4",
        "nonce": "0xf34",
        "chainId": "0x14a34"
      },
      "additionalContracts": [],
      "isFixedGasLimit": false
    },
    {
      "hash": "0xd761c1abffd032eeaa5f4c3f0ae3bb84121b0c0fab7e8718f1d83c652269c56c",
      "transactionType": "CALL",
      "contractName": null,
      "contractAddress": "0xfc68a9b57995c54e6be68aed23682a666a5d986e",
      "function": "updatePrice(address,address,uint256)",
      "arguments": [
        "0x16618AFA2B80D33163811f0C6716AC7DC39529aC",
        "0x6bF59e9cBbCe16AAf58b51D32D39b2a437281ae2",
        "4100000000"
      ],
      "transaction": {
        "from": "0xa6b3d200cd34ca14d7579dac8b054bf50a62c37c",
        "to": "0xfc68a9b57995c54e6be68aed23682a666a5d986e",
        "gas": "0x377d4",
        "value": "0x0",
        "input": "0x8fbb2a9000000000000000000000000016618afa2b80d33163811f0c6716ac7dc39529ac0000000000000000000000006bf59e9cbbce16aaf58b51d32d39b2a437281ae200000000000000000000000000000000000000000000000000000000f4610900",
        "nonce": "0xf35",
        "chainId": "0x14a34"
      },
      "additionalContracts": [],
      "isFixedGasLimit": false
    }
  ],
  "receipts": [
    {
      "status": "0x1",
      "cumulativeGasUsed": "0x5f97aa",
      "logs": [
        {
          "address": "0xfc68a9b57995c54e6be68aed23682a666a5d986e",
          "topics": [
            "0xa4a204fa26714a90a8cea4be2a38ce6d1bf79dcebc5d05bc7d24d0e18bf09cb2",
            "0x0000000000000000000000006bf59e9cbbce16aaf58b51d32d39b2a437281ae2",
            "0x00000000000000000000000016618afa2b80d33163811f0c6716ac7dc39529ac"
          ],
          "data": "0x00000000000000000000000000000000000000000000000000000000000000f40000000000000000000000000000000000000000000000000000000000000002",
          "blockHash": "0xa92c6fc1ecd731adc0f698bfff510ddd9306cac65eef52cf772d9670f6f475e2",
          "blockNumber": "0x19fc559",
          "transactionHash": "0xea695402eb7d76231658c422db6e5710774997270e2e87db1e29e24fd9be052d",
          "transactionIndex": "0xe",
          "logIndex": "0xd7",
          "removed": false
        }
      ],
      "logsBloom": "0x00000000000000000000000002000000000010000000000000000000000000000000000000000000000000000008000000000000000000000020000000000008000000000000000000000400000000000000000000000000000000000000000000000000000000000000000000000000000000000000000000000000000000000000000000000000000000000000000000002004000000000001000000020000000000000000000000000000000000000000000000000000000000000000000000000000000000000400000000000000000000000000000000000000000000000000010000000000000000000000000000000000000000000000000000000000",
      "type": "0x2",
      "transactionHash": "0xea695402eb7d76231658c422db6e5710774997270e2e87db1e29e24fd9be052d",
      "transactionIndex": "0xe",
      "blockHash": "0xa92c6fc1ecd731adc0f698bfff510ddd9306cac65eef52cf772d9670f6f475e2",
      "blockNumber": "0x19fc559",
      "gasUsed": "0x282ae",
      "effectiveGasPrice": "0x73f585",
      "from": "0xa6b3d200cd34ca14d7579dac8b054bf50a62c37c",
      "to": "0xfc68a9b57995c54e6be68aed23682a666a5d986e",
      "contractAddress": null,
      "l1BaseFeeScalar": "0x44d",
      "l1BlobBaseFee": "0x1",
      "l1BlobBaseFeeScalar": "0xa118b",
      "l1Fee": "0x59ad56",
      "l1GasPrice": "0x2f8292",
      "l1GasUsed": "0x6b2"
    },
    {
      "status": "0x1",
      "cumulativeGasUsed": "0x621a70",
      "logs": [
        {
          "address": "0xfc68a9b57995c54e6be68aed23682a666a5d986e",
          "topics": [
            "0xa4a204fa26714a90a8cea4be2a38ce6d1bf79dcebc5d05bc7d24d0e18bf09cb2",
            "0x00000000000000000000000016618afa2b80d33163811f0c6716ac7dc39529ac",
            "0x0000000000000000000000006bf59e9cbbce16aaf58b51d32d39b2a437281ae2"
          ],
          "data": "0x00000000000000000000000000000000000000000000000000000000f46109000000000000000000000000000000000000000000000000000000000000000002",
          "blockHash": "0xa92c6fc1ecd731adc0f698bfff510ddd9306cac65eef52cf772d9670f6f475e2",
          "blockNumber": "0x19fc559",
          "transactionHash": "0xd761c1abffd032eeaa5f4c3f0ae3bb84121b0c0fab7e8718f1d83c652269c56c",
          "transactionIndex": "0xf",
          "logIndex": "0xd8",
          "removed": false
        }
      ],
      "logsBloom": "0x00000000000000000000000002000000000010000000000000000000000000000000000000000000000000000008000000000000000000000020000000000008000000000000000000000400000000000000000000000000000000000000000000000000000000000000000000000000000000000000000000000000000000000000000000000000000000000000000000002004000000000001000000020000000000000000000000000000000000000000000000000000000000000000000000000000000000000400000000000000000000000000000000000000000000000000010000000000000000000000000000000000000000000000000000000000",
      "type": "0x2",
      "transactionHash": "0xd761c1abffd032eeaa5f4c3f0ae3bb84121b0c0fab7e8718f1d83c652269c56c",
      "transactionIndex": "0xf",
      "blockHash": "0xa92c6fc1ecd731adc0f698bfff510ddd9306cac65eef52cf772d9670f6f475e2",
      "blockNumber": "0x19fc559",
      "gasUsed": "0x282c6",
      "effectiveGasPrice": "0x73f585",
      "from": "0xa6b3d200cd34ca14d7579dac8b054bf50a62c37c",
      "to": "0xfc68a9b57995c54e6be68aed23682a666a5d986e",
      "contractAddress": null,
      "l1BaseFeeScalar": "0x44d",
      "l1BlobBaseFee": "0x1",
      "l1BlobBaseFeeScalar": "0xa118b",
      "l1Fee": "0x5bc705",
      "l1GasPrice": "0x2f8292",
      "l1GasUsed": "0x6da"
    }
  ],
  "libraries": [],
  "pending": [],
  "returns": {},
  "timestamp": 1750264211,
  "chain": 84532,
  "commit": "51ec064"
}