{
  "transactions": [
    {
      "hash": "0x5ce0492eab9760097119af762856a9ffe0170f29ff4cbb8ce3155ddb96c88f8f",
      "transactionType": "CALL",
      "contractName": "MockUSDC",
      "contractAddress": "0x9b051dbf5bbfa94c9f18617a2d10ac9614d41d6c",
      "function": "approve(address,uint256)",
      "arguments": [
        "0x26a5B76417f4b12131542CEfd9083e70c9E647B1",
        "50000000000"
      ],
      "transaction": {
        "from": "0xa6b3d200cd34ca14d7579dac8b054bf50a62c37c",
        "to": "0x9b051dbf5bbfa94c9f18617a2d10ac9614d41d6c",
        "gas": "0xf7d3",
        "value": "0x0",
        "input": "0x095ea7b300000000000000000000000026a5b76417f4b12131542cefd9083e70c9e647b10000000000000000000000000000000000000000000000000000000ba43b7400",
        "nonce": "0xbb0",
        "chainId": "0x14a34"
      },
      "additionalContracts": [],
      "isFixedGasLimit": false
    },
    {
      "hash": "0x43693c906967e5a459fd6ad4033e04295fc437d7578b64cd6d0ad6151789e2fc",
      "transactionType": "CALL",
      "contractName": null,
      "contractAddress": "0x26a5b76417f4b12131542cefd9083e70c9e647b1",
      "function": "provideLiquidity(address,uint256,address)",
      "arguments": [
        "0x9B051Dbf5bbFA94c9F18617a2D10AC9614D41d6c",
        "50000000000",
        "0xA6B3D200cD34ca14d7579DAc8B054bf50a62c37c"
      ],
      "transaction": {
        "from": "0xa6b3d200cd34ca14d7579dac8b054bf50a62c37c",
        "to": "0x26a5b76417f4b12131542cefd9083e70c9e647b1",
        "gas": "0x22f23",
        "value": "0x0",
        "input": "0x98229cb80000000000000000000000009b051dbf5bbfa94c9f18617a2d10ac9614d41d6c0000000000000000000000000000000000000000000000000000000ba43b7400000000000000000000000000a6b3d200cd34ca14d7579dac8b054bf50a62c37c",
        "nonce": "0xbb1",
        "chainId": "0x14a34"
      },
      "additionalContracts": [],
      "isFixedGasLimit": false
    },
    {
      "hash": "0x3e39e093e21540bb8e5f863fa4279b061cbf2ed713b9a3ddb7787470db0d91cb",
      "transactionType": "CALL",
      "contractName": "MockETH",
      "contractAddress": "0x21756f22e0945ed3fab38d05cf8e933845a60622",
      "function": "approve(address,uint256)",
      "arguments": [
        "0x26a5B76417f4b12131542CEfd9083e70c9E647B1",
        "20000000000000000000"
      ],
      "transaction": {
        "from": "0xa6b3d200cd34ca14d7579dac8b054bf50a62c37c",
        "to": "0x21756f22e0945ed3fab38d05cf8e933845a60622",
        "gas": "0x1069d",
        "value": "0x0",
        "input": "0x095ea7b300000000000000000000000026a5b76417f4b12131542cefd9083e70c9e647b1000000000000000000000000000000000000000000000001158e460913d00000",
        "nonce": "0xbb2",
        "chainId": "0x14a34"
      },
      "additionalContracts": [],
      "isFixedGasLimit": false
    },
    {
      "hash": "0x903bf6e5b55d2b1bddaabc33b246b0ccc7a9588e8c775edc16f8d529c08e0254",
      "transactionType": "CALL",
      "contractName": null,
      "contractAddress": "0x26a5b76417f4b12131542cefd9083e70c9e647b1",
      "function": "provideLiquidity(address,uint256,address)",
      "arguments": [
        "0x21756f22e0945Ed3faB38D05Cf8E933845a60622",
        "20000000000000000000",
        "0xA6B3D200cD34ca14d7579DAc8B054bf50a62c37c"
      ],
      "transaction": {
        "from": "0xa6b3d200cd34ca14d7579dac8b054bf50a62c37c",
        "to": "0x26a5b76417f4b12131542cefd9083e70c9e647b1",
        "gas": "0x1db39",
        "value": "0x0",
        "input": "0x98229cb800000000000000000000000021756f22e0945ed3fab38d05cf8e933845a60622000000000000000000000000000000000000000000000001158e460913d00000000000000000000000000000a6b3d200cd34ca14d7579dac8b054bf50a62c37c",
        "nonce": "0xbb3",
        "chainId": "0x14a34"
      },
      "additionalContracts": [],
      "isFixedGasLimit": false
    },
    {
      "hash": "0xc3134b84b401c52891d307786320eb611d67b3070f0749bcee19bd6129f21cdb",
      "transactionType": "CALL",
      "contractName": "MockETH",
      "contractAddress": "0x21756f22e0945ed3fab38d05cf8e933845a60622",
      "function": "transfer(address,uint256)",
      "arguments": [
        "0x40eD404F4312190D30adFB42B3BDC952cA6C523A",
        "10000000000000000000"
      ],
      "transaction": {
        "from": "0xa6b3d200cd34ca14d7579dac8b054bf50a62c37c",
        "to": "0x21756f22e0945ed3fab38d05cf8e933845a60622",
        "gas": "0x11494",
        "value": "0x0",
        "input": "0xa9059cbb00000000000000000000000040ed404f4312190d30adfb42b3bdc952ca6c523a0000000000000000000000000000000000000000000000008ac7230489e80000",
        "nonce": "0xbb4",
        "chainId": "0x14a34"
      },
      "additionalContracts": [],
      "isFixedGasLimit": false
    },
    {
      "hash": "0x9aabaff9cf87a97191ca8a237b11f5a9bcca896595e09c7edaca52c48b29a2c2",
      "transactionType": "CALL",
      "contractName": "MockUSDC",
      "contractAddress": "0x9b051dbf5bbfa94c9f18617a2d10ac9614d41d6c",
      "function": "transfer(address,uint256)",
      "arguments": [
        "0x40eD404F4312190D30adFB42B3BDC952cA6C523A",
        "25000000000"
      ],
      "transaction": {
        "from": "0xa6b3d200cd34ca14d7579dac8b054bf50a62c37c",
        "to": "0x9b051dbf5bbfa94c9f18617a2d10ac9614d41d6c",
        "gas": "0x11474",
        "value": "0x0",
        "input": "0xa9059cbb00000000000000000000000040ed404f4312190d30adfb42b3bdc952ca6c523a00000000000000000000000000000000000000000000000000000005d21dba00",
        "nonce": "0xbb5",
        "chainId": "0x14a34"
      },
      "additionalContracts": [],
      "isFixedGasLimit": false
    },
    {
      "hash": "0x8122a14ac9efabf76bbb975978d11d485f24d941f02bb0b88e9ed1d26f31cc40",
      "transactionType": "CALL",
      "contractName": "MockWBTC",
      "contractAddress": "0xfb5810a37eb47df5a498673237ed16ace3600162",
      "function": "transfer(address,uint256)",
      "arguments": [
        "0x40eD404F4312190D30adFB42B3BDC952cA6C523A",
        "100000000"
      ],
      "transaction": {
        "from": "0xa6b3d200cd34ca14d7579dac8b054bf50a62c37c",
        "to": "0xfb5810a37eb47df5a498673237ed16ace3600162",
        "gas": "0x124a5",
        "value": "0x0",
        "input": "0xa9059cbb00000000000000000000000040ed404f4312190d30adfb42b3bdc952ca6c523a0000000000000000000000000000000000000000000000000000000005f5e100",
        "nonce": "0xbb6",
        "chainId": "0x14a34"
      },
      "additionalContracts": [],
      "isFixedGasLimit": false
    },
    {
      "hash": "0x948186366873e53a39a3a6ed9dd3ab95019819680a17571aef9fedb28b3abe9b",
      "transactionType": "CALL",
      "contractName": "TestCoreLiquidations",
      "contractAddress": "0x9f7cf1d1f558e57ef88a59ac3d47214ef25b6a06",
      "function": "_createRiskyPosition((string,address,address,address,uint256,uint256,uint256,uint256,bool))",
      "arguments": [
        "(GenericLoanManager: ETH -> USDC (Riesgoso), 0x374A7b5353F2E1E002Af4DD02138183776037Ea2, 0x21756f22e0945Ed3faB38D05Cf8E933845a60622, 0x9B051Dbf5bbFA94c9F18617a2D10AC9614D41d6c, 3000000000000000000, 5000000000, 100000, 800000, true)"
      ],
      "transaction": {
        "from": "0xa6b3d200cd34ca14d7579dac8b054bf50a62c37c",
        "to": "0x9f7cf1d1f558e57ef88a59ac3d47214ef25b6a06",
        "gas": "0x8287",
        "value": "0x0",
        "input": "0x83cab27900000000000000000000000000000000000000000000000000000000000000200000000000000000000000000000000000000000000000000000000000000120000000000000000000000000374a7b5353f2e1e002af4dd02138183776037ea200000000000000000000000021756f22e0945ed3fab38d05cf8e933845a606220000000000000000000000009b051dbf5bbfa94c9f18617a2d10ac9614d41d6c00000000000000000000000000000000000000000000000029a2241af62c0000000000000000000000000000000000000000000000000000000000012a05f20000000000000000000000000000000000000000000000000000000000000186a000000000000000000000000000000000000000000000000000000000000c35000000000000000000000000000000000000000000000000000000000000000001000000000000000000000000000000000000000000000000000000000000002a47656e657269634c6f616e4d616e616765723a20455448202d3e2055534443202852696573676f736f2900000000000000000000000000000000000000000000",
        "nonce": "0xbb7",
        "chainId": "0x14a34"
      },
      "additionalContracts": [],
      "isFixedGasLimit": false
    },
    {
      "hash": "0x2e898f621f74a88eb538a09cb3bc81a5faef13ee4958fb5837fb231a019fa1e7",
      "transactionType": "CALL",
      "contractName": "TestCoreLiquidations",
      "contractAddress": "0x9f7cf1d1f558e57ef88a59ac3d47214ef25b6a06",
      "function": "_createRiskyPosition((string,address,address,address,uint256,uint256,uint256,uint256,bool))",
      "arguments": [
        "(FlexibleLoanManager: USDC -> ETH (Ultra Riesgoso), 0x8F25AF7A087AC48f13f841C9d241A2094301547b, 0x9B051Dbf5bbFA94c9F18617a2D10AC9614D41d6c, 0x21756f22e0945Ed3faB38D05Cf8E933845a60622, 6000000000, 2000000000000000000, 120000, 950000, true)"
      ],
      "transaction": {
        "from": "0xa6b3d200cd34ca14d7579dac8b054bf50a62c37c",
        "to": "0x9f7cf1d1f558e57ef88a59ac3d47214ef25b6a06",
        "gas": "0x830b",
        "value": "0x0",
        "input": "0x83cab279000000000000000000000000000000000000000000000000000000000000002000000000000000000000000000000000000000000000000000000000000001200000000000000000000000008f25af7a087ac48f13f841c9d241a2094301547b0000000000000000000000009b051dbf5bbfa94c9f18617a2d10ac9614d41d6c00000000000000000000000021756f22e0945ed3fab38d05cf8e933845a606220000000000000000000000000000000000000000000000000000000165a0bc000000000000000000000000000000000000000000000000001bc16d674ec80000000000000000000000000000000000000000000000000000000000000001d4c000000000000000000000000000000000000000000000000000000000000e7ef000000000000000000000000000000000000000000000000000000000000000010000000000000000000000000000000000000000000000000000000000000031466c657869626c654c6f616e4d616e616765723a2055534443202d3e204554482028556c7472612052696573676f736f29000000000000000000000000000000",
        "nonce": "0xbb8",
        "chainId": "0x14a34"
      },
      "additionalContracts": [],
      "isFixedGasLimit": false
    }
  ],
  "receipts": [
    {
      "status": "0x1",
      "cumulativeGasUsed": "0xdc2a2",
      "logs": [
        {
          "address": "0x9b051dbf5bbfa94c9f18617a2d10ac9614d41d6c",
          "topics": [
            "0x8c5be1e5ebec7d5bd14f71427d1e84f3dd0314c0f7b2291e5b200ac8c7c3b925",
            "0x000000000000000000000000a6b3d200cd34ca14d7579dac8b054bf50a62c37c",
            "0x00000000000000000000000026a5b76417f4b12131542cefd9083e70c9e647b1"
          ],
          "data": "0x0000000000000000000000000000000000000000000000000000000ba43b7400",
          "blockHash": "0x33908848eb97f70b882f6a312a0fd8797a92fc1ed8379ce368a2475c78639c75",
          "blockNumber": "0x19ea26a",
          "transactionHash": "0x5ce0492eab9760097119af762856a9ffe0170f29ff4cbb8ce3155ddb96c88f8f",
          "transactionIndex": "0x4",
          "logIndex": "0x19",
          "removed": false
        }
      ],
      "logsBloom": "0x00020000000000000000000400000000000000000000000002000000000000000000000000000000000000000000000000000000000000000000040000200000000000000000000000000000000000000000000000000000000000000000000000800000000000000000000000000000000000000000000000000000000000000000000000000000000000000000000000000000000000000000000000000000020000000000000000000000000000000000008000100000000000000000000000000040000000000000000000001000000000000000000000000000000000000010000000000000000000000000000000000000000000000000000000000000",
      "type": "0x2",
      "transactionHash": "0x5ce0492eab9760097119af762856a9ffe0170f29ff4cbb8ce3155ddb96c88f8f",
      "transactionIndex": "0x4",
      "blockHash": "0x33908848eb97f70b882f6a312a0fd8797a92fc1ed8379ce368a2475c78639c75",
      "blockNumber": "0x19ea26a",
      "gasUsed": "0xb36d",
      "effectiveGasPrice": "0x1a104",
      "from": "0xa6b3d200cd34ca14d7579dac8b054bf50a62c37c",
      "to": "0x9b051dbf5bbfa94c9f18617a2d10ac9614d41d6c",
      "contractAddress": null,
      "l1BaseFeeScalar": "0x44d",
      "l1BlobBaseFee": "0x1",
      "l1BlobBaseFeeScalar": "0xa118b",
      "l1Fee": "0x23397",
      "l1GasPrice": "0x13fc9",
      "l1GasUsed": "0x640"
    },
    {
      "status": "0x1",
      "cumulativeGasUsed": "0xf40f3",
      "logs": [
        {
          "address": "0x9b051dbf5bbfa94c9f18617a2d10ac9614d41d6c",
          "topics": [
            "0xddf252ad1be2c89b69c2b068fc378daa952ba7f163c4a11628f55a4df523b3ef",
            "0x000000000000000000000000a6b3d200cd34ca14d7579dac8b054bf50a62c37c",
            "0x00000000000000000000000026a5b76417f4b12131542cefd9083e70c9e647b1"
          ],
          "data": "0x0000000000000000000000000000000000000000000000000000000ba43b7400",
          "blockHash": "0x33908848eb97f70b882f6a312a0fd8797a92fc1ed8379ce368a2475c78639c75",
          "blockNumber": "0x19ea26a",
          "transactionHash": "0x43693c906967e5a459fd6ad4033e04295fc437d7578b64cd6d0ad6151789e2fc",
          "transactionIndex": "0x5",
          "logIndex": "0x1a",
          "removed": false
        },
        {
          "address": "0x26a5b76417f4b12131542cefd9083e70c9e647b1",
          "topics": [
            "0x5e804d42ae3b860f881d11cb44a4bb1f2f0d5b3d081f5539a32d6f97b629d978",
            "0x0000000000000000000000009b051dbf5bbfa94c9f18617a2d10ac9614d41d6c"
          ],
          "data": "0x000000000000000000000000000000000000000000000000000000001259eec1",
          "blockHash": "0x33908848eb97f70b882f6a312a0fd8797a92fc1ed8379ce368a2475c78639c75",
          "blockNumber": "0x19ea26a",
          "transactionHash": "0x43693c906967e5a459fd6ad4033e04295fc437d7578b64cd6d0ad6151789e2fc",
          "transactionIndex": "0x5",
          "logIndex": "0x1b",
          "removed": false
        },
        {
          "address": "0x26a5b76417f4b12131542cefd9083e70c9e647b1",
          "topics": [
            "0x385feb58578c31f205b503905da1dec4c110dcdaac4a0dc43be298cae636307f",
            "0x0000000000000000000000009b051dbf5bbfa94c9f18617a2d10ac9614d41d6c"
          ],
          "data": "0x0000000000000000000000000000000000000000000000000000000000061a80",
          "blockHash": "0x33908848eb97f70b882f6a312a0fd8797a92fc1ed8379ce368a2475c78639c75",
          "blockNumber": "0x19ea26a",
          "transactionHash": "0x43693c906967e5a459fd6ad4033e04295fc437d7578b64cd6d0ad6151789e2fc",
          "transactionIndex": "0x5",
          "logIndex": "0x1c",
          "removed": false
        },
        {
          "address": "0x26a5b76417f4b12131542cefd9083e70c9e647b1",
          "topics": [
            "0x05e7be2689d5d20fd06bc749aa0d767080c4216945cacf5249f739d5a561d48f",
            "0x0000000000000000000000009b051dbf5bbfa94c9f18617a2d10ac9614d41d6c",
            "0x000000000000000000000000a6b3d200cd34ca14d7579dac8b054bf50a62c37c"
          ],
          "data": "0x0000000000000000000000000000000000000000000000000000000ba43b7400",
          "blockHash": "0x33908848eb97f70b882f6a312a0fd8797a92fc1ed8379ce368a2475c78639c75",
          "blockNumber": "0x19ea26a",
          "transactionHash": "0x43693c906967e5a459fd6ad4033e04295fc437d7578b64cd6d0ad6151789e2fc",
          "transactionIndex": "0x5",
          "logIndex": "0x1d",
          "removed": false
        }
      ],
      "logsBloom": "0x00020000000000000000000400000000000000000000000002000000000000000004000000000000000000000000000000000000000000000000040000000000000000000000000000000008000000000000000000000000000000020000000000800000000000000000000000000000000000080400000000400010000000000001000000000000000000000002000000000000000000020000000000000000000000000040000000000000000000000000008000102000000000000010000000000042000000000000000000001000000000000100000000000000000000000000000000000000000000000000000000802000000000000000000000000000",
      "type": "0x2",
      "transactionHash": "0x43693c906967e5a459fd6ad4033e04295fc437d7578b64cd6d0ad6151789e2fc",
      "transactionIndex": "0x5",
      "blockHash": "0x33908848eb97f70b882f6a312a0fd8797a92fc1ed8379ce368a2475c78639c75",
      "blockNumber": "0x19ea26a",
      "gasUsed": "0x17e51",
      "effectiveGasPrice": "0x1a104",
      "from": "0xa6b3d200cd34ca14d7579dac8b054bf50a62c37c",
      "to": "0x26a5b76417f4b12131542cefd9083e70c9e647b1",
      "contractAddress": null,
      "l1BaseFeeScalar": "0x44d",
      "l1BlobBaseFee": "0x1",
      "l1BlobBaseFeeScalar": "0xa118b",
      "l1Fee": "0x2654e",
      "l1GasPrice": "0x13fc9",
      "l1GasUsed": "0x6cd"
    },
    {
      "status": "0x1",
      "cumulativeGasUsed": "0xff484",
      "logs": [
        {
          "address": "0x21756f22e0945ed3fab38d05cf8e933845a60622",
          "topics": [
            "0x8c5be1e5ebec7d5bd14f71427d1e84f3dd0314c0f7b2291e5b200ac8c7c3b925",
            "0x000000000000000000000000a6b3d200cd34ca14d7579dac8b054bf50a62c37c",
            "0x00000000000000000000000026a5b76417f4b12131542cefd9083e70c9e647b1"
          ],
          "data": "0x000000000000000000000000000000000000000000000001158e460913d00000",
          "blockHash": "0x33908848eb97f70b882f6a312a0fd8797a92fc1ed8379ce368a2475c78639c75",
          "blockNumber": "0x19ea26a",
          "transactionHash": "0x3e39e093e21540bb8e5f863fa4279b061cbf2ed713b9a3ddb7787470db0d91cb",
          "transactionIndex": "0x6",
          "logIndex": "0x1e",
          "removed": false
        }
      ],
      "logsBloom": "0x00000000000000000000000400000000000000000000000002000000000000000000000000000000000000000000000000000000000000000000040000200000000000000000000000000000000000000000000000000000000000000000000000800000000000000000000000800000000000000000000000000000000000000000000000000000000000000000000000000000000000000000000000000000020000000000000000000000000000000000000000000000000000000000000000000040000000001000000000001800000000000000000000000000000000000010000000000000000000000000000000000000000000000000000000000000",
      "type": "0x2",
      "transactionHash": "0x3e39e093e21540bb8e5f863fa4279b061cbf2ed713b9a3ddb7787470db0d91cb",
      "transactionIndex": "0x6",
      "blockHash": "0x33908848eb97f70b882f6a312a0fd8797a92fc1ed8379ce368a2475c78639c75",
      "blockNumber": "0x19ea26a",
      "gasUsed": "0xb391",
      "effectiveGasPrice": "0x1a104",
      "from": "0xa6b3d200cd34ca14d7579dac8b054bf50a62c37c",
      "to": "0x21756f22e0945ed3fab38d05cf8e933845a60622",
      "contractAddress": null,
      "l1BaseFeeScalar": "0x44d",
      "l1BlobBaseFee": "0x1",
      "l1BlobBaseFeeScalar": "0xa118b",
      "l1Fee": "0x23397",
      "l1GasPrice": "0x13fc9",
      "l1GasUsed": "0x640"
    },
    {
      "status": "0x1",
      "cumulativeGasUsed": "0x113975",
      "logs": [
        {
          "address": "0x21756f22e0945ed3fab38d05cf8e933845a60622",
          "topics": [
            "0xddf252ad1be2c89b69c2b068fc378daa952ba7f163c4a11628f55a4df523b3ef",
            "0x000000000000000000000000a6b3d200cd34ca14d7579dac8b054bf50a62c37c",
            "0x00000000000000000000000026a5b76417f4b12131542cefd9083e70c9e647b1"
          ],
          "data": "0x000000000000000000000000000000000000000000000001158e460913d00000",
          "blockHash": "0x33908848eb97f70b882f6a312a0fd8797a92fc1ed8379ce368a2475c78639c75",
          "blockNumber": "0x19ea26a",
          "transactionHash": "0x903bf6e5b55d2b1bddaabc33b246b0ccc7a9588e8c775edc16f8d529c08e0254",
          "transactionIndex": "0x7",
          "logIndex": "0x1f",
          "removed": false
        },
        {
          "address": "0x26a5b76417f4b12131542cefd9083e70c9e647b1",
          "topics": [
            "0x385feb58578c31f205b503905da1dec4c110dcdaac4a0dc43be298cae636307f",
            "0x00000000000000000000000021756f22e0945ed3fab38d05cf8e933845a60622"
          ],
          "data": "0x0000000000000000000000000000000000000000000000000000000000000000",
          "blockHash": "0x33908848eb97f70b882f6a312a0fd8797a92fc1ed8379ce368a2475c78639c75",
          "blockNumber": "0x19ea26a",
          "transactionHash": "0x903bf6e5b55d2b1bddaabc33b246b0ccc7a9588e8c775edc16f8d529c08e0254",
          "transactionIndex": "0x7",
          "logIndex": "0x20",
          "removed": false
        },
        {
          "address": "0x26a5b76417f4b12131542cefd9083e70c9e647b1",
          "topics": [
            "0x05e7be2689d5d20fd06bc749aa0d767080c4216945cacf5249f739d5a561d48f",
            "0x00000000000000000000000021756f22e0945ed3fab38d05cf8e933845a60622",
            "0x000000000000000000000000a6b3d200cd34ca14d7579dac8b054bf50a62c37c"
          ],
          "data": "0x000000000000000000000000000000000000000000000001158e460913d00000",
          "blockHash": "0x33908848eb97f70b882f6a312a0fd8797a92fc1ed8379ce368a2475c78639c75",
          "blockNumber": "0x19ea26a",
          "transactionHash": "0x903bf6e5b55d2b1bddaabc33b246b0ccc7a9588e8c775edc16f8d529c08e0254",
          "transactionIndex": "0x7",
          "logIndex": "0x21",
          "removed": false
        }
      ],
      "logsBloom": "0x00000000000000010000000400000000000000000000002022000000000000000000000000000000000000000000000000000000000000000000040000000000000000000000000000000008000000000000000000000000000000020000000000800000000000000000000000800000000000080400000000000010000000000001000000000000000000000000000000000000000000020000000000000000000000000040000000000000000000000000000000002000000000000000000000000042000000001000000000001800000000000000000000000000000000000000000000000000000000000000000000802000000000000000000000000000",
      "type": "0x2",
      "transactionHash": "0x903bf6e5b55d2b1bddaabc33b246b0ccc7a9588e8c775edc16f8d529c08e0254",
      "transactionIndex": "0x7",
      "blockHash": "0x33908848eb97f70b882f6a312a0fd8797a92fc1ed8379ce368a2475c78639c75",
      "blockNumber": "0x19ea26a",
      "gasUsed": "0x144f1",
      "effectiveGasPrice": "0x1a104",
      "from": "0xa6b3d200cd34ca14d7579dac8b054bf50a62c37c",
      "to": "0x26a5b76417f4b12131542cefd9083e70c9e647b1",
      "contractAddress": null,
      "l1BaseFeeScalar": "0x44d",
      "l1BlobBaseFee": "0x1",
      "l1BlobBaseFeeScalar": "0xa118b",
      "l1Fee": "0x28197",
      "l1GasPrice": "0x13fc9",
      "l1GasUsed": "0x71d"
    },
    {
      "status": "0x1",
      "cumulativeGasUsed": "0x1201b3",
      "logs": [
        {
          "address": "0x21756f22e0945ed3fab38d05cf8e933845a60622",
          "topics": [
            "0xddf252ad1be2c89b69c2b068fc378daa952ba7f163c4a11628f55a4df523b3ef",
            "0x000000000000000000000000a6b3d200cd34ca14d7579dac8b054bf50a62c37c",
            "0x00000000000000000000000040ed404f4312190d30adfb42b3bdc952ca6c523a"
          ],
          "data": "0x0000000000000000000000000000000000000000000000008ac7230489e80000",
          "blockHash": "0x33908848eb97f70b882f6a312a0fd8797a92fc1ed8379ce368a2475c78639c75",
          "blockNumber": "0x19ea26a",
          "transactionHash": "0xc3134b84b401c52891d307786320eb611d67b3070f0749bcee19bd6129f21cdb",
          "transactionIndex": "0x8",
          "logIndex": "0x22",
          "removed": false
        }
      ],
      "logsBloom": "0x00000000000000000000000400000000000000000000000002000000000000000000000000000000000000000000000000000000000000000000000000000000000000000000000000000008000000000000000000000000000000000000000000000000000000000000000000800000000000000000000000000010000000000000000000000000000000000000000000000000000000000000000000000000000000000000000000000000000000000000000000000000000000000000000000000042000000001000000040000800000000000000000800000000000000000000000040000000000000000000000000000000000000000000000000000000",
      "type": "0x2",
      "transactionHash": "0xc3134b84b401c52891d307786320eb611d67b3070f0749bcee19bd6129f21cdb",
      "transactionIndex": "0x8",
      "blockHash": "0x33908848eb97f70b882f6a312a0fd8797a92fc1ed8379ce368a2475c78639c75",
      "blockNumber": "0x19ea26a",
      "gasUsed": "0xc83e",
      "effectiveGasPrice": "0x1a104",
      "from": "0xa6b3d200cd34ca14d7579dac8b054bf50a62c37c",
      "to": "0x21756f22e0945ed3fab38d05cf8e933845a60622",
      "contractAddress": null,
      "l1BaseFeeScalar": "0x44d",
      "l1BlobBaseFee": "0x1",
      "l1BlobBaseFeeScalar": "0xa118b",
      "l1Fee": "0x23397",
      "l1GasPrice": "0x13fc9",
      "l1GasUsed": "0x640"
    },
    {
      "status": "0x1",
      "cumulativeGasUsed": "0x1d62a6",
      "logs": [
        {
          "address": "0x9b051dbf5bbfa94c9f18617a2d10ac9614d41d6c",
          "topics": [
            "0xddf252ad1be2c89b69c2b068fc378daa952ba7f163c4a11628f55a4df523b3ef",
            "0x000000000000000000000000a6b3d200cd34ca14d7579dac8b054bf50a62c37c",
            "0x00000000000000000000000040ed404f4312190d30adfb42b3bdc952ca6c523a"
          ],
          "data": "0x00000000000000000000000000000000000000000000000000000005d21dba00",
          "blockHash": "0x33908848eb97f70b882f6a312a0fd8797a92fc1ed8379ce368a2475c78639c75",
          "blockNumber": "0x19ea26a",
          "transactionHash": "0x9aabaff9cf87a97191ca8a237b11f5a9bcca896595e09c7edaca52c48b29a2c2",
          "transactionIndex": "0xa",
          "logIndex": "0x4b",
          "removed": false
        }
      ],
      "logsBloom": "0x00020000000000000000000400000000000000000000000002000000000000000000000000000000000000000000000000000000000000000000000000000000000000000000000000000008000000000000000000000000000000000000000000000000000000000000000000000000000000000000000000000010000000000000000000000000000000000000000000000000000000000000000000000000000000000000000000000000000000000000008000100000000000000000000000000042000000000000000040000000000000000000000800000000000000000000000040000000000000000000000000000000000000000000000000000000",
      "type": "0x2",
      "transactionHash": "0x9aabaff9cf87a97191ca8a237b11f5a9bcca896595e09c7edaca52c48b29a2c2",
      "transactionIndex": "0xa",
      "blockHash": "0x33908848eb97f70b882f6a312a0fd8797a92fc1ed8379ce368a2475c78639c75",
      "blockNumber": "0x19ea26a",
      "gasUsed": "0xc826",
      "effectiveGasPrice": "0x1a104",
      "from": "0xa6b3d200cd34ca14d7579dac8b054bf50a62c37c",
      "to": "0x9b051dbf5bbfa94c9f18617a2d10ac9614d41d6c",
      "contractAddress": null,
      "l1BaseFeeScalar": "0x44d",
      "l1BlobBaseFee": "0x1",
      "l1BlobBaseFeeScalar": "0xa118b",
      "l1Fee": "0x23397",
      "l1GasPrice": "0x13fc9",
      "l1GasUsed": "0x640"
    },
    {
      "status": "0x1",
      "cumulativeGasUsed": "0x1e2ac0",
      "logs": [
        {
          "address": "0xfb5810a37eb47df5a498673237ed16ace3600162",
          "topics": [
            "0xddf252ad1be2c89b69c2b068fc378daa952ba7f163c4a11628f55a4df523b3ef",
            "0x000000000000000000000000a6b3d200cd34ca14d7579dac8b054bf50a62c37c",
            "0x00000000000000000000000040ed404f4312190d30adfb42b3bdc952ca6c523a"
          ],
          "data": "0x0000000000000000000000000000000000000000000000000000000005f5e100",
          "blockHash": "0x33908848eb97f70b882f6a312a0fd8797a92fc1ed8379ce368a2475c78639c75",
          "blockNumber": "0x19ea26a",
          "transactionHash": "0x8122a14ac9efabf76bbb975978d11d485f24d941f02bb0b88e9ed1d26f31cc40",
          "transactionIndex": "0xb",
          "logIndex": "0x4c",
          "removed": false
        }
      ],
      "logsBloom": "0x00000000000000000000000400000000000080000000000002000000000000000000000000000000000000000000000000000000000000000000000000000000000000000000000000000008000000000000000000000000000000000000000000000000000000000000000000000000000000000000000000000010000000000000000000000000000000000000000000000000000000000000000000000000000000000000001000000000000000000000000000000000000000000000000000000042000000000000000040000000000000000000000800000000000000000000000040000000000000400000000000000000000000000000000000000000",
      "type": "0x2",
      "transactionHash": "0x8122a14ac9efabf76bbb975978d11d485f24d941f02bb0b88e9ed1d26f31cc40",
      "transactionIndex": "0xb",
      "blockHash": "0x33908848eb97f70b882f6a312a0fd8797a92fc1ed8379ce368a2475c78639c75",
      "blockNumber": "0x19ea26a",
      "gasUsed": "0xc81a",
      "effectiveGasPrice": "0x1a104",
      "from": "0xa6b3d200cd34ca14d7579dac8b054bf50a62c37c",
      "to": "0xfb5810a37eb47df5a498673237ed16ace3600162",
      "contractAddress": null,
      "l1BaseFeeScalar": "0x44d",
      "l1BlobBaseFee": "0x1",
      "l1BlobBaseFeeScalar": "0xa118b",
      "l1Fee": "0x23397",
      "l1GasPrice": "0x13fc9",
      "l1GasUsed": "0x640"
    },
    {
      "status": "0x1",
      "cumulativeGasUsed": "0x1e9bf4",
      "logs": [],
      "logsBloom": "0x00000000000000000000000000000000000000000000000000000000000000000000000000000000000000000000000000000000000000000000000000000000000000000000000000000000000000000000000000000000000000000000000000000000000000000000000000000000000000000000000000000000000000000000000000000000000000000000000000000000000000000000000000000000000000000000000000000000000000000000000000000000000000000000000000000000000000000000000000000000000000000000000000000000000000000000000000000000000000000000000000000000000000000000000000000000",
      "type": "0x2",
      "transactionHash": "0x948186366873e53a39a3a6ed9dd3ab95019819680a17571aef9fedb28b3abe9b",
      "transactionIndex": "0xc",
      "blockHash": "0x33908848eb97f70b882f6a312a0fd8797a92fc1ed8379ce368a2475c78639c75",
      "blockNumber": "0x19ea26a",
      "gasUsed": "0x7134",
      "effectiveGasPrice": "0x1a104",
      "from": "0xa6b3d200cd34ca14d7579dac8b054bf50a62c37c",
      "to": "0x9f7cf1d1f558e57ef88a59ac3d47214ef25b6a06",
      "contractAddress": null,
      "l1BaseFeeScalar": "0x44d",
      "l1BlobBaseFee": "0x1",
      "l1BlobBaseFeeScalar": "0xa118b",
      "l1Fee": "0x4d853",
      "l1GasPrice": "0x13fc9",
      "l1GasUsed": "0xdc1"
    },
    {
      "status": "0x1",
      "cumulativeGasUsed": "0x1f0e18",
      "logs": [],
      "logsBloom": "0x00000000000000000000000000000000000000000000000000000000000000000000000000000000000000000000000000000000000000000000000000000000000000000000000000000000000000000000000000000000000000000000000000000000000000000000000000000000000000000000000000000000000000000000000000000000000000000000000000000000000000000000000000000000000000000000000000000000000000000000000000000000000000000000000000000000000000000000000000000000000000000000000000000000000000000000000000000000000000000000000000000000000000000000000000000000",
      "type": "0x2",
      "transactionHash": "0x2e898f621f74a88eb538a09cb3bc81a5faef13ee4958fb5837fb231a019fa1e7",
      "transactionIndex": "0xd",
      "blockHash": "0x33908848eb97f70b882f6a312a0fd8797a92fc1ed8379ce368a2475c78639c75",
      "blockNumber": "0x19ea26a",
      "gasUsed": "0x7224",
      "effectiveGasPrice": "0x1a104",
      "from": "0xa6b3d200cd34ca14d7579dac8b054bf50a62c37c",
      "to": "0x9f7cf1d1f558e57ef88a59ac3d47214ef25b6a06",
      "contractAddress": null,
      "l1BaseFeeScalar": "0x44d",
      "l1BlobBaseFee": "0x1",
      "l1BlobBaseFeeScalar": "0xa118b",
      "l1Fee": "0x4eb2e",
      "l1GasPrice": "0x13fc9",
      "l1GasUsed": "0xdf6"
    }
  ],
  "libraries": [],
  "pending": [],
  "returns": {},
  "timestamp": 1750115254,
  "chain": 84532,
  "commit": "e3173ca"
}