{
  "transactions": [
    {
      "hash": "0xc65439642b5180298e238f16fe106e1eba25579f004a002256659191adcf1bf1",
      "transactionType": "CALL",
      "contractName": "MockETH",
      "contractAddress": "0xa666d4ca761423f2a0898487a9795892e4db8220",
      "function": "approve(address,uint256)",
      "arguments": [
        "0x93DEA386E04B780d5aaCfb651A2CE2489A8f954b",
        "5000000000000000000"
      ],
      "transaction": {
        "from": "0xa6b3d200cd34ca14d7579dac8b054bf50a62c37c",
        "to": "0xa666d4ca761423f2a0898487a9795892e4db8220",
        "gas": "0xf7f5",
        "value": "0x0",
        "input": "0x095ea7b300000000000000000000000093dea386e04b780d5aacfb651a2ce2489a8f954b0000000000000000000000000000000000000000000000004563918244f40000",
        "nonce": "0xc35",
        "chainId": "0x14a34"
      },
      "additionalContracts": [],
      "isFixedGasLimit": false
    },
    {
      "hash": "0x94143b634e472e79788ef1733d815c62f3d24f13cd663c930d84f28466741df2",
      "transactionType": "CALL",
      "contractName": null,
      "contractAddress": "0x93dea386e04b780d5aacfb651a2ce2489a8f954b",
      "function": "createLoan((address,address,uint256,uint256,uint256,uint256,uint256))",
      "arguments": [
        "(0xa666d4Ca761423f2A0898487A9795892e4db8220, 0xC0bFe06AF089F24aE7ae52b6dBed8B9bb86ABCda, 5000000000000000000, 2000000000, 700000, 80000, 0)"
      ],
      "transaction": {
        "from": "0xa6b3d200cd34ca14d7579dac8b054bf50a62c37c",
        "to": "0x93dea386e04b780d5aacfb651a2ce2489a8f954b",
        "gas": "0xb4a98",
        "value": "0x0",
        "input": "0xe37ccfec000000000000000000000000a666d4ca761423f2a0898487a9795892e4db8220000000000000000000000000c0bfe06af089f24ae7ae52b6dbed8b9bb86abcda0000000000000000000000000000000000000000000000004563918244f40000000000000000000000000000000000000000000000000000000000007735940000000000000000000000000000000000000000000000000000000000000aae6000000000000000000000000000000000000000000000000000000000000138800000000000000000000000000000000000000000000000000000000000000000",
        "nonce": "0xc36",
        "chainId": "0x14a34"
      },
      "additionalContracts": [],
      "isFixedGasLimit": false
    },
    {
      "hash": "0xe3dd2be2a39587fa8102851eda774971ede115232de74c87404dd0fd1671fe61",
      "transactionType": "CALL",
      "contractName": null,
      "contractAddress": "0xc0bfe06af089f24ae7ae52b6dbed8b9bb86abcda",
      "function": "approve(address,uint256)",
      "arguments": [
        "0x28Ef8d4B3B048bE81405996C4D7A08C8331B015D",
        "10000000000"
      ],
      "transaction": {
        "from": "0xa6b3d200cd34ca14d7579dac8b054bf50a62c37c",
        "to": "0xc0bfe06af089f24ae7ae52b6dbed8b9bb86abcda",
        "gas": "0xf7d3",
        "value": "0x0",
        "input": "0x095ea7b300000000000000000000000028ef8d4b3b048be81405996c4d7a08c8331b015d00000000000000000000000000000000000000000000000000000002540be400",
        "nonce": "0xc37",
        "chainId": "0x14a34"
      },
      "additionalContracts": [],
      "isFixedGasLimit": false
    },
    {
      "hash": "0xbe12976149ec58f9baaed229b77be2d8b0d3d891e55320dcb558643138910e3e",
      "transactionType": "CALL",
      "contractName": null,
      "contractAddress": "0x28ef8d4b3b048be81405996c4d7a08c8331b015d",
      "function": "createLoan((address,address,uint256,uint256,uint256,uint256,uint256))",
      "arguments": [
        "(0xC0bFe06AF089F24aE7ae52b6dBed8B9bb86ABCda, 0xa666d4Ca761423f2A0898487A9795892e4db8220, 10000000000, 1000000000000000000, 500000, 75000, 0)"
      ],
      "transaction": {
        "from": "0xa6b3d200cd34ca14d7579dac8b054bf50a62c37c",
        "to": "0x28ef8d4b3b048be81405996c4d7a08c8331b015d",
        "gas": "0xaf8f9",
        "value": "0x0",
        "input": "0xe37ccfec000000000000000000000000c0bfe06af089f24ae7ae52b6dbed8b9bb86abcda000000000000000000000000a666d4ca761423f2a0898487a9795892e4db822000000000000000000000000000000000000000000000000000000002540be4000000000000000000000000000000000000000000000000000de0b6b3a7640000000000000000000000000000000000000000000000000000000000000007a12000000000000000000000000000000000000000000000000000000000000124f80000000000000000000000000000000000000000000000000000000000000000",
        "nonce": "0xc38",
        "chainId": "0x14a34"
      },
      "additionalContracts": [],
      "isFixedGasLimit": false
    },
    {
      "hash": "0xae3d3a3f3d80bab166eae6a0c009c9e19a3fe79dc202e053261ca2c63bf738d8",
      "transactionType": "CALL",
      "contractName": "MockETH",
      "contractAddress": "0xa666d4ca761423f2a0898487a9795892e4db8220",
      "function": "approve(address,uint256)",
      "arguments": [
        "0x93DEA386E04B780d5aaCfb651A2CE2489A8f954b",
        "1000000000000000000"
      ],
      "transaction": {
        "from": "0xa6b3d200cd34ca14d7579dac8b054bf50a62c37c",
        "to": "0xa666d4ca761423f2a0898487a9795892e4db8220",
        "gas": "0xf7f5",
        "value": "0x0",
        "input": "0x095ea7b300000000000000000000000093dea386e04b780d5aacfb651a2ce2489a8f954b0000000000000000000000000000000000000000000000000de0b6b3a7640000",
        "nonce": "0xc39",
        "chainId": "0x14a34"
      },
      "additionalContracts": [],
      "isFixedGasLimit": false
    },
    {
      "hash": "0x0b63c9275c90f6a8782c4f3a4e574f579b6530dbf9f8a5d10eb44d62c309fe9d",
      "transactionType": "CALL",
      "contractName": null,
      "contractAddress": "0x93dea386e04b780d5aacfb651a2ce2489a8f954b",
      "function": "addCollateral(uint256,uint256)",
      "arguments": [
        "1",
        "1000000000000000000"
      ],
      "transaction": {
        "from": "0xa6b3d200cd34ca14d7579dac8b054bf50a62c37c",
        "to": "0x93dea386e04b780d5aacfb651a2ce2489a8f954b",
        "gas": "0x23f97",
        "value": "0x0",
        "input": "0xa8f35adf00000000000000000000000000000000000000000000000000000000000000010000000000000000000000000000000000000000000000000de0b6b3a7640000",
        "nonce": "0xc3a",
        "chainId": "0x14a34"
      },
      "additionalContracts": [],
      "isFixedGasLimit": false
    },
    {
      "hash": "0xa0c2503c91bdaea9ac308186f75d6e3b289cb6fba668dde86ecb83c409a228d9",
      "transactionType": "CALL",
      "contractName": null,
      "contractAddress": "0x93dea386e04b780d5aacfb651a2ce2489a8f954b",
      "function": "withdrawCollateral(uint256,uint256)",
      "arguments": [
        "1",
        "500000000000000000"
      ],
      "transaction": {
        "from": "0xa6b3d200cd34ca14d7579dac8b054bf50a62c37c",
        "to": "0x93dea386e04b780d5aacfb651a2ce2489a8f954b",
        "gas": "0x2fc49",
        "value": "0x0",
        "input": "0x767a7b05000000000000000000000000000000000000000000000000000000000000000100000000000000000000000000000000000000000000000006f05b59d3b20000",
        "nonce": "0xc3b",
        "chainId": "0x14a34"
      },
      "additionalContracts": [],
      "isFixedGasLimit": false
    }
  ],
  "receipts": [
    {
      "status": "0x1",
      "cumulativeGasUsed": "0x4cc8bd",
      "logs": [
        {
          "address": "0xa666d4ca761423f2a0898487a9795892e4db8220",
          "topics": [
            "0x8c5be1e5ebec7d5bd14f71427d1e84f3dd0314c0f7b2291e5b200ac8c7c3b925",
            "0x000000000000000000000000a6b3d200cd34ca14d7579dac8b054bf50a62c37c",
            "0x00000000000000000000000093dea386e04b780d5aacfb651a2ce2489a8f954b"
          ],
          "data": "0x0000000000000000000000000000000000000000000000004563918244f40000",
          "blockHash": "0xd32b09f862ec02fc6efd908881c6f176ce72b0d785982e9a9bed53f75c6f7788",
          "blockNumber": "0x19eb45c",
          "transactionHash": "0xc65439642b5180298e238f16fe106e1eba25579f004a002256659191adcf1bf1",
          "transactionIndex": "0x1c",
          "logIndex": "0xb0",
          "removed": false
        }
      ],
      "logsBloom": "0x00000000000000000000000400000000000000000000000002000000000000000000000000000000000000000000000000000000000000000000000000200000000000000000000000000000000000000000000000000000000000000000000000200000000000000000000000000040000000000000000000000000000000000000000000000000000000000000000000000000000000000000000000000000020000000000000000000000000000000000000000000000000000000000000001000040000000000000000100000000000000000000000000000000000400000010000000000000000000000002000000000000000000000000000000000000",
      "type": "0x2",
      "transactionHash": "0xc65439642b5180298e238f16fe106e1eba25579f004a002256659191adcf1bf1",
      "transactionIndex": "0x1c",
      "blockHash": "0xd32b09f862ec02fc6efd908881c6f176ce72b0d785982e9a9bed53f75c6f7788",
      "blockNumber": "0x19eb45c",
      "gasUsed": "0xb385",
      "effectiveGasPrice": "0x39055",
      "from": "0xa6b3d200cd34ca14d7579dac8b054bf50a62c37c",
      "to": "0xa666d4ca761423f2a0898487a9795892e4db8220",
      "contractAddress": null,
      "l1BaseFeeScalar": "0x44d",
      "l1BlobBaseFee": "0x1",
      "l1BlobBaseFeeScalar": "0xa118b",
      "l1Fee": "0x183d9",
      "l1GasPrice": "0xdc06",
      "l1GasUsed": "0x640"
    },
    {
      "status": "0x1",
      "cumulativeGasUsed": "0x54f57b",
      "logs": [
        {
          "address": "0xa666d4ca761423f2a0898487a9795892e4db8220",
          "topics": [
            "0xddf252ad1be2c89b69c2b068fc378daa952ba7f163c4a11628f55a4df523b3ef",
            "0x000000000000000000000000a6b3d200cd34ca14d7579dac8b054bf50a62c37c",
            "0x00000000000000000000000093dea386e04b780d5aacfb651a2ce2489a8f954b"
          ],
          "data": "0x0000000000000000000000000000000000000000000000004563918244f40000",
          "blockHash": "0xd32b09f862ec02fc6efd908881c6f176ce72b0d785982e9a9bed53f75c6f7788",
          "blockNumber": "0x19eb45c",
          "transactionHash": "0x94143b634e472e79788ef1733d815c62f3d24f13cd663c930d84f28466741df2",
          "transactionIndex": "0x1d",
          "logIndex": "0xb1",
          "removed": false
        },
        {
          "address": "0xc0bfe06af089f24ae7ae52b6dbed8b9bb86abcda",
          "topics": [
            "0xddf252ad1be2c89b69c2b068fc378daa952ba7f163c4a11628f55a4df523b3ef",
            "0x000000000000000000000000547578c9dfed4b6be65c303d28a46fe5704e5c8e",
            "0x000000000000000000000000a6b3d200cd34ca14d7579dac8b054bf50a62c37c"
          ],
          "data": "0x0000000000000000000000000000000000000000000000000000000077359400",
          "blockHash": "0xd32b09f862ec02fc6efd908881c6f176ce72b0d785982e9a9bed53f75c6f7788",
          "blockNumber": "0x19eb45c",
          "transactionHash": "0x94143b634e472e79788ef1733d815c62f3d24f13cd663c930d84f28466741df2",
          "transactionIndex": "0x1d",
          "logIndex": "0xb2",
          "removed": false
        },
        {
          "address": "0x547578c9dfed4b6be65c303d28a46fe5704e5c8e",
          "topics": [
            "0x385feb58578c31f205b503905da1dec4c110dcdaac4a0dc43be298cae636307f",
            "0x000000000000000000000000c0bfe06af089f24ae7ae52b6dbed8b9bb86abcda"
          ],
          "data": "0x0000000000000000000000000000000000000000000000000000000000001f40",
          "blockHash": "0xd32b09f862ec02fc6efd908881c6f176ce72b0d785982e9a9bed53f75c6f7788",
          "blockNumber": "0x19eb45c",
          "transactionHash": "0x94143b634e472e79788ef1733d815c62f3d24f13cd663c930d84f28466741df2",
          "transactionIndex": "0x1d",
          "logIndex": "0xb3",
          "removed": false
        },
        {
          "address": "0x547578c9dfed4b6be65c303d28a46fe5704e5c8e",
          "topics": [
            "0xb088e70ab7e367eb8a026f0cf73edc838746f0f9761c510260ff489070d7b3c8",
            "0x000000000000000000000000c0bfe06af089f24ae7ae52b6dbed8b9bb86abcda",
            "0x000000000000000000000000a6b3d200cd34ca14d7579dac8b054bf50a62c37c"
          ],
          "data": "0x0000000000000000000000000000000000000000000000000000000077359400",
          "blockHash": "0xd32b09f862ec02fc6efd908881c6f176ce72b0d785982e9a9bed53f75c6f7788",
          "blockNumber": "0x19eb45c",
          "transactionHash": "0x94143b634e472e79788ef1733d815c62f3d24f13cd663c930d84f28466741df2",
          "transactionIndex": "0x1d",
          "logIndex": "0xb4",
          "removed": false
        },
        {
          "address": "0xb158d198b82696e4f3a01850a1c2aa966008e77e",
          "topics": [
            "0x9f0a7aaf8d18c024e8123bdcd157b0f6e0f42892a4ea14a2becc88a320a79922",
            "0x924cafe3f4668225141f2f2252ca17f67b629c2ff1426ac8ff340549f1266789",
            "0x000000000000000000000000a6b3d200cd34ca14d7579dac8b054bf50a62c37c"
          ],
          "data": "0x0000000000000000000000000000000000000000000000004563918244f400000000000000000000000000000000000000000000000000000000000000000001",
          "blockHash": "0xd32b09f862ec02fc6efd908881c6f176ce72b0d785982e9a9bed53f75c6f7788",
          "blockNumber": "0x19eb45c",
          "transactionHash": "0x94143b634e472e79788ef1733d815c62f3d24f13cd663c930d84f28466741df2",
          "transactionIndex": "0x1d",
          "logIndex": "0xb5",
          "removed": false
        },
        {
          "address": "0x93dea386e04b780d5aacfb651a2ce2489a8f954b",
          "topics": [
            "0xcb5aa1675878bc9c8edd5d4265b7e06610564c809ed69560d24f5f284dd8c44b",
            "0x000000000000000000000000a6b3d200cd34ca14d7579dac8b054bf50a62c37c"
          ],
          "data": "0x0000000000000000000000000000000000000000000000004563918244f40000924cafe3f4668225141f2f2252ca17f67b629c2ff1426ac8ff340549f1266789",
          "blockHash": "0xd32b09f862ec02fc6efd908881c6f176ce72b0d785982e9a9bed53f75c6f7788",
          "blockNumber": "0x19eb45c",
          "transactionHash": "0x94143b634e472e79788ef1733d815c62f3d24f13cd663c930d84f28466741df2",
          "transactionIndex": "0x1d",
          "logIndex": "0xb6",
          "removed": false
        },
        {
          "address": "0x93dea386e04b780d5aacfb651a2ce2489a8f954b",
          "topics": [
            "0x3c173f34da0900ded1a250c99de3d58cb900ce2841d93b11d877afee8b077a48",
            "0x0000000000000000000000000000000000000000000000000000000000000001",
            "0x000000000000000000000000a6b3d200cd34ca14d7579dac8b054bf50a62c37c"
          ],
          "data": "0x000000000000000000000000a666d4ca761423f2a0898487a9795892e4db8220000000000000000000000000c0bfe06af089f24ae7ae52b6dbed8b9bb86abcda0000000000000000000000000000000000000000000000004563918244f400000000000000000000000000000000000000000000000000000000000077359400",
          "blockHash": "0xd32b09f862ec02fc6efd908881c6f176ce72b0d785982e9a9bed53f75c6f7788",
          "blockNumber": "0x19eb45c",
          "transactionHash": "0x94143b634e472e79788ef1733d815c62f3d24f13cd663c930d84f28466741df2",
          "transactionIndex": "0x1d",
          "logIndex": "0xb7",
          "removed": false
        }
      ],
      "logsBloom": "0x0000000000400000000000840000000001000000000000020200000000000000000000000a000000000000000000000000002000020010000000000000040000000000000000000000000009000000000000000000050000000010000000000000200000100100000000000000000040100000000400000000000010000000000000008000000008000001000000000000000000000000000000000000000000000000000040008000000004000000000010020000000000000000000000000001080042000000000000000100000002000000c00000220004000020010440000000080000000000000000008002000000800000000000000000000000000000",
      "type": "0x2",
      "transactionHash": "0x94143b634e472e79788ef1733d815c62f3d24f13cd663c930d84f28466741df2",
      "transactionIndex": "0x1d",
      "blockHash": "0xd32b09f862ec02fc6efd908881c6f176ce72b0d785982e9a9bed53f75c6f7788",
      "blockNumber": "0x19eb45c",
      "gasUsed": "0x82cbe",
      "effectiveGasPrice": "0x39055",
      "from": "0xa6b3d200cd34ca14d7579dac8b054bf50a62c37c",
      "to": "0x93dea386e04b780d5aacfb651a2ce2489a8f954b",
      "contractAddress": null,
      "l1BaseFeeScalar": "0x44d",
      "l1BlobBaseFee": "0x1",
      "l1BlobBaseFeeScalar": "0xa118b",
      "l1Fee": "0x22497",
      "l1GasPrice": "0xdc06",
      "l1GasUsed": "0x8d7"
    },
    {
      "status": "0x1",
      "cumulativeGasUsed": "0x55a8e8",
      "logs": [
        {
          "address": "0xc0bfe06af089f24ae7ae52b6dbed8b9bb86abcda",
          "topics": [
            "0x8c5be1e5ebec7d5bd14f71427d1e84f3dd0314c0f7b2291e5b200ac8c7c3b925",
            "0x000000000000000000000000a6b3d200cd34ca14d7579dac8b054bf50a62c37c",
            "0x00000000000000000000000028ef8d4b3b048be81405996c4d7a08c8331b015d"
          ],
          "data": "0x00000000000000000000000000000000000000000000000000000002540be400",
          "blockHash": "0xd32b09f862ec02fc6efd908881c6f176ce72b0d785982e9a9bed53f75c6f7788",
          "blockNumber": "0x19eb45c",
          "transactionHash": "0xe3dd2be2a39587fa8102851eda774971ede115232de74c87404dd0fd1671fe61",
          "transactionIndex": "0x1e",
          "logIndex": "0xb8",
          "removed": false
        }
      ],
      "logsBloom": "0x00000000000000000000000400000000000000000000000002000000000000000000000000000000000000000000000000000004020000000000000000200000000000000000000000000000000000000000080000000000000000000000000000000000000000000000000004000000100000000000000000000000000000000000000000000000000000000000000000000000000000000000000000000000020000000000000000000000000000000000020000000000000000000000000000000040000000000000000000000000000000000000000000000000000000000010000000000000000000000000000000000000000000000000000000000000",
      "type": "0x2",
      "transactionHash": "0xe3dd2be2a39587fa8102851eda774971ede115232de74c87404dd0fd1671fe61",
      "transactionIndex": "0x1e",
      "blockHash": "0xd32b09f862ec02fc6efd908881c6f176ce72b0d785982e9a9bed53f75c6f7788",
      "blockNumber": "0x19eb45c",
      "gasUsed": "0xb36d",
      "effectiveGasPrice": "0x39055",
      "from": "0xa6b3d200cd34ca14d7579dac8b054bf50a62c37c",
      "to": "0xc0bfe06af089f24ae7ae52b6dbed8b9bb86abcda",
      "contractAddress": null,
      "l1BaseFeeScalar": "0x44d",
      "l1BlobBaseFee": "0x1",
      "l1BlobBaseFeeScalar": "0xa118b",
      "l1Fee": "0x183d9",
      "l1GasPrice": "0xdc06",
      "l1GasUsed": "0x640"
    },
    {
      "status": "0x1",
      "cumulativeGasUsed": "0x5d9a8e",
      "logs": [
        {
          "address": "0xc0bfe06af089f24ae7ae52b6dbed8b9bb86abcda",
          "topics": [
            "0xddf252ad1be2c89b69c2b068fc378daa952ba7f163c4a11628f55a4df523b3ef",
            "0x000000000000000000000000a6b3d200cd34ca14d7579dac8b054bf50a62c37c",
            "0x00000000000000000000000028ef8d4b3b048be81405996c4d7a08c8331b015d"
          ],
          "data": "0x00000000000000000000000000000000000000000000000000000002540be400",
          "blockHash": "0xd32b09f862ec02fc6efd908881c6f176ce72b0d785982e9a9bed53f75c6f7788",
          "blockNumber": "0x19eb45c",
          "transactionHash": "0xbe12976149ec58f9baaed229b77be2d8b0d3d891e55320dcb558643138910e3e",
          "transactionIndex": "0x1f",
          "logIndex": "0xb9",
          "removed": false
        },
        {
          "address": "0xb158d198b82696e4f3a01850a1c2aa966008e77e",
          "topics": [
            "0x9f0a7aaf8d18c024e8123bdcd157b0f6e0f42892a4ea14a2becc88a320a79922",
            "0x88ef8906c27d3e6af98ad7a5cf53c31a771fadb410370749ce5bf0cdb279c3b6",
            "0x000000000000000000000000a6b3d200cd34ca14d7579dac8b054bf50a62c37c"
          ],
          "data": "0x00000000000000000000000000000000000000000000000000000002540be4000000000000000000000000000000000000000000000000000000000000000001",
          "blockHash": "0xd32b09f862ec02fc6efd908881c6f176ce72b0d785982e9a9bed53f75c6f7788",
          "blockNumber": "0x19eb45c",
          "transactionHash": "0xbe12976149ec58f9baaed229b77be2d8b0d3d891e55320dcb558643138910e3e",
          "transactionIndex": "0x1f",
          "logIndex": "0xba",
          "removed": false
        },
        {
          "address": "0x28ef8d4b3b048be81405996c4d7a08c8331b015d",
          "topics": [
            "0xcb5aa1675878bc9c8edd5d4265b7e06610564c809ed69560d24f5f284dd8c44b",
            "0x000000000000000000000000a6b3d200cd34ca14d7579dac8b054bf50a62c37c"
          ],
          "data": "0x00000000000000000000000000000000000000000000000000000002540be40088ef8906c27d3e6af98ad7a5cf53c31a771fadb410370749ce5bf0cdb279c3b6",
          "blockHash": "0xd32b09f862ec02fc6efd908881c6f176ce72b0d785982e9a9bed53f75c6f7788",
          "blockNumber": "0x19eb45c",
          "transactionHash": "0xbe12976149ec58f9baaed229b77be2d8b0d3d891e55320dcb558643138910e3e",
          "transactionIndex": "0x1f",
          "logIndex": "0xbb",
          "removed": false
        },
        {
          "address": "0xa666d4ca761423f2a0898487a9795892e4db8220",
          "topics": [
            "0xddf252ad1be2c89b69c2b068fc378daa952ba7f163c4a11628f55a4df523b3ef",
            "0x000000000000000000000000547578c9dfed4b6be65c303d28a46fe5704e5c8e",
            "0x000000000000000000000000a6b3d200cd34ca14d7579dac8b054bf50a62c37c"
          ],
          "data": "0x0000000000000000000000000000000000000000000000000de0b6b3a7640000",
          "blockHash": "0xd32b09f862ec02fc6efd908881c6f176ce72b0d785982e9a9bed53f75c6f7788",
          "blockNumber": "0x19eb45c",
          "transactionHash": "0xbe12976149ec58f9baaed229b77be2d8b0d3d891e55320dcb558643138910e3e",
          "transactionIndex": "0x1f",
          "logIndex": "0xbc",
          "removed": false
        },
        {
          "address": "0x547578c9dfed4b6be65c303d28a46fe5704e5c8e",
          "topics": [
            "0x385feb58578c31f205b503905da1dec4c110dcdaac4a0dc43be298cae636307f",
            "0x000000000000000000000000a666d4ca761423f2a0898487a9795892e4db8220"
          ],
          "data": "0x0000000000000000000000000000000000000000000000000000000000002710",
          "blockHash": "0xd32b09f862ec02fc6efd908881c6f176ce72b0d785982e9a9bed53f75c6f7788",
          "blockNumber": "0x19eb45c",
          "transactionHash": "0xbe12976149ec58f9baaed229b77be2d8b0d3d891e55320dcb558643138910e3e",
          "transactionIndex": "0x1f",
          "logIndex": "0xbd",
          "removed": false
        },
        {
          "address": "0x547578c9dfed4b6be65c303d28a46fe5704e5c8e",
          "topics": [
            "0xb088e70ab7e367eb8a026f0cf73edc838746f0f9761c510260ff489070d7b3c8",
            "0x000000000000000000000000a666d4ca761423f2a0898487a9795892e4db8220",
            "0x000000000000000000000000a6b3d200cd34ca14d7579dac8b054bf50a62c37c"
          ],
          "data": "0x0000000000000000000000000000000000000000000000000de0b6b3a7640000",
          "blockHash": "0xd32b09f862ec02fc6efd908881c6f176ce72b0d785982e9a9bed53f75c6f7788",
          "blockNumber": "0x19eb45c",
          "transactionHash": "0xbe12976149ec58f9baaed229b77be2d8b0d3d891e55320dcb558643138910e3e",
          "transactionIndex": "0x1f",
          "logIndex": "0xbe",
          "removed": false
        },
        {
          "address": "0x28ef8d4b3b048be81405996c4d7a08c8331b015d",
          "topics": [
            "0x3c173f34da0900ded1a250c99de3d58cb900ce2841d93b11d877afee8b077a48",
            "0x0000000000000000000000000000000000000000000000000000000000000001",
            "0x000000000000000000000000a6b3d200cd34ca14d7579dac8b054bf50a62c37c"
          ],
          "data": "0x000000000000000000000000c0bfe06af089f24ae7ae52b6dbed8b9bb86abcda000000000000000000000000a666d4ca761423f2a0898487a9795892e4db822000000000000000000000000000000000000000000000000000000002540be4000000000000000000000000000000000000000000000000000de0b6b3a7640000",
          "blockHash": "0xd32b09f862ec02fc6efd908881c6f176ce72b0d785982e9a9bed53f75c6f7788",
          "blockNumber": "0x19eb45c",
          "transactionHash": "0xbe12976149ec58f9baaed229b77be2d8b0d3d891e55320dcb558643138910e3e",
          "transactionIndex": "0x1f",
          "logIndex": "0xbf",
          "removed": false
        }
      ],
      "logsBloom": "0x20000000004000000000002400000000010000000000000202000000000000000000000002000000000000000000000000002004020010000000000000040000000000000000000000000008000000000000080000050000200010000001000000000000100100000000000004000000100000000400000000000010000000000000008800000000000001000000000000000000000000000000000000000000000000000040000000000000000000000010020000000000000000000000000001080142000100000000000100000002000000c00000220004000000010040400000000001000000000000000002000000800000000000000000000000000000",
      "type": "0x2",
      "transactionHash": "0xbe12976149ec58f9baaed229b77be2d8b0d3d891e55320dcb558643138910e3e",
      "transactionIndex": "0x1f",
      "blockHash": "0xd32b09f862ec02fc6efd908881c6f176ce72b0d785982e9a9bed53f75c6f7788",
      "blockNumber": "0x19eb45c",
      "gasUsed": "0x7f1a6",
      "effectiveGasPrice": "0x39055",
      "from": "0xa6b3d200cd34ca14d7579dac8b054bf50a62c37c",
      "to": "0x28ef8d4b3b048be81405996c4d7a08c8331b015d",
      "contractAddress": null,
      "l1BaseFeeScalar": "0x44d",
      "l1BlobBaseFee": "0x1",
      "l1BlobBaseFeeScalar": "0xa118b",
      "l1Fee": "0x21adc",
      "l1GasPrice": "0xdc06",
      "l1GasUsed": "0x8ae"
    },
    {
      "status": "0x1",
      "cumulativeGasUsed": "0x5e4e13",
      "logs": [
        {
          "address": "0xa666d4ca761423f2a0898487a9795892e4db8220",
          "topics": [
            "0x8c5be1e5ebec7d5bd14f71427d1e84f3dd0314c0f7b2291e5b200ac8c7c3b925",
            "0x000000000000000000000000a6b3d200cd34ca14d7579dac8b054bf50a62c37c",
            "0x00000000000000000000000093dea386e04b780d5aacfb651a2ce2489a8f954b"
          ],
          "data": "0x0000000000000000000000000000000000000000000000000de0b6b3a7640000",
          "blockHash": "0xd32b09f862ec02fc6efd908881c6f176ce72b0d785982e9a9bed53f75c6f7788",
          "blockNumber": "0x19eb45c",
          "transactionHash": "0xae3d3a3f3d80bab166eae6a0c009c9e19a3fe79dc202e053261ca2c63bf738d8",
          "transactionIndex": "0x20",
          "logIndex": "0xc0",
          "removed": false
        }
      ],
      "logsBloom": "0x00000000000000000000000400000000000000000000000002000000000000000000000000000000000000000000000000000000000000000000000000200000000000000000000000000000000000000000000000000000000000000000000000200000000000000000000000000040000000000000000000000000000000000000000000000000000000000000000000000000000000000000000000000000020000000000000000000000000000000000000000000000000000000000000001000040000000000000000100000000000000000000000000000000000400000010000000000000000000000002000000000000000000000000000000000000",
      "type": "0x2",
      "transactionHash": "0xae3d3a3f3d80bab166eae6a0c009c9e19a3fe79dc202e053261ca2c63bf738d8",
      "transactionIndex": "0x20",
      "blockHash": "0xd32b09f862ec02fc6efd908881c6f176ce72b0d785982e9a9bed53f75c6f7788",
      "blockNumber": "0x19eb45c",
      "gasUsed": "0xb385",
      "effectiveGasPrice": "0x39055",
      "from": "0xa6b3d200cd34ca14d7579dac8b054bf50a62c37c",
      "to": "0xa666d4ca761423f2a0898487a9795892e4db8220",
      "contractAddress": null,
      "l1BaseFeeScalar": "0x44d",
      "l1BlobBaseFee": "0x1",
      "l1BlobBaseFeeScalar": "0xa118b",
      "l1Fee": "0x183d9",
      "l1GasPrice": "0xdc06",
      "l1GasUsed": "0x640"
    },
    {
      "status": "0x1",
      "cumulativeGasUsed": "0x5fd7a4",
      "logs": [
        {
          "address": "0xa666d4ca761423f2a0898487a9795892e4db8220",
          "topics": [
            "0xddf252ad1be2c89b69c2b068fc378daa952ba7f163c4a11628f55a4df523b3ef",
            "0x000000000000000000000000a6b3d200cd34ca14d7579dac8b054bf50a62c37c",
            "0x00000000000000000000000093dea386e04b780d5aacfb651a2ce2489a8f954b"
          ],
          "data": "0x0000000000000000000000000000000000000000000000000de0b6b3a7640000",
          "blockHash": "0xd32b09f862ec02fc6efd908881c6f176ce72b0d785982e9a9bed53f75c6f7788",
          "blockNumber": "0x19eb45c",
          "transactionHash": "0x0b63c9275c90f6a8782c4f3a4e574f579b6530dbf9f8a5d10eb44d62c309fe9d",
          "transactionIndex": "0x21",
          "logIndex": "0xc1",
          "removed": false
        },
        {
          "address": "0xb158d198b82696e4f3a01850a1c2aa966008e77e",
          "topics": [
            "0x9f0a7aaf8d18c024e8123bdcd157b0f6e0f42892a4ea14a2becc88a320a79922",
            "0x924cafe3f4668225141f2f2252ca17f67b629c2ff1426ac8ff340549f1266789",
            "0x000000000000000000000000a6b3d200cd34ca14d7579dac8b054bf50a62c37c"
          ],
          "data": "0x0000000000000000000000000000000000000000000000000de0b6b3a76400000000000000000000000000000000000000000000000000000000000000000001",
          "blockHash": "0xd32b09f862ec02fc6efd908881c6f176ce72b0d785982e9a9bed53f75c6f7788",
          "blockNumber": "0x19eb45c",
          "transactionHash": "0x0b63c9275c90f6a8782c4f3a4e574f579b6530dbf9f8a5d10eb44d62c309fe9d",
          "transactionIndex": "0x21",
          "logIndex": "0xc2",
          "removed": false
        },
        {
          "address": "0x93dea386e04b780d5aacfb651a2ce2489a8f954b",
          "topics": [
            "0xcb5aa1675878bc9c8edd5d4265b7e06610564c809ed69560d24f5f284dd8c44b",
            "0x000000000000000000000000a6b3d200cd34ca14d7579dac8b054bf50a62c37c"
          ],
          "data": "0x0000000000000000000000000000000000000000000000000de0b6b3a7640000924cafe3f4668225141f2f2252ca17f67b629c2ff1426ac8ff340549f1266789",
          "blockHash": "0xd32b09f862ec02fc6efd908881c6f176ce72b0d785982e9a9bed53f75c6f7788",
          "blockNumber": "0x19eb45c",
          "transactionHash": "0x0b63c9275c90f6a8782c4f3a4e574f579b6530dbf9f8a5d10eb44d62c309fe9d",
          "transactionIndex": "0x21",
          "logIndex": "0xc3",
          "removed": false
        },
        {
          "address": "0x93dea386e04b780d5aacfb651a2ce2489a8f954b",
          "topics": [
            "0x244160b15e69cc411f041d94ae7fab6f6bba85dade8403216c05ff4b920d5449",
            "0x0000000000000000000000000000000000000000000000000000000000000001"
          ],
          "data": "0x0000000000000000000000000000000000000000000000000de0b6b3a7640000",
          "blockHash": "0xd32b09f862ec02fc6efd908881c6f176ce72b0d785982e9a9bed53f75c6f7788",
          "blockNumber": "0x19eb45c",
          "transactionHash": "0x0b63c9275c90f6a8782c4f3a4e574f579b6530dbf9f8a5d10eb44d62c309fe9d",
          "transactionIndex": "0x21",
          "logIndex": "0xc4",
          "removed": false
        }
      ],
      "logsBloom": "0x00000000000000000000008400000000000000000000000202000000000000000000000008000000000000000000000000002000000200000000000000040000000000000000000000000008000000000000000000050000000010000000000000200000100100000000000000000040000000000000000000000010000000000000000000000008000000000000000000000000000000000000000000000000000000000000008000000000000000000010000000000000000000000000000001080042000000000000000100000010000000000000000000000020010440000000080000000080000000000002000000000000000000000000000000000000",
      "type": "0x2",
      "transactionHash": "0x0b63c9275c90f6a8782c4f3a4e574f579b6530dbf9f8a5d10eb44d62c309fe9d",
      "transactionIndex": "0x21",
      "blockHash": "0xd32b09f862ec02fc6efd908881c6f176ce72b0d785982e9a9bed53f75c6f7788",
      "blockNumber": "0x19eb45c",
      "gasUsed": "0x18991",
      "effectiveGasPrice": "0x39055",
      "from": "0xa6b3d200cd34ca14d7579dac8b054bf50a62c37c",
      "to": "0x93dea386e04b780d5aacfb651a2ce2489a8f954b",
      "contractAddress": null,
      "l1BaseFeeScalar": "0x44d",
      "l1BlobBaseFee": "0x1",
      "l1BlobBaseFeeScalar": "0xa118b",
      "l1Fee": "0x183d9",
      "l1GasPrice": "0xdc06",
      "l1GasUsed": "0x640"
    },
    {
      "status": "0x1",
      "cumulativeGasUsed": "0x6200f9",
      "logs": [
        {
          "address": "0xa666d4ca761423f2a0898487a9795892e4db8220",
          "topics": [
            "0xddf252ad1be2c89b69c2b068fc378daa952ba7f163c4a11628f55a4df523b3ef",
            "0x00000000000000000000000093dea386e04b780d5aacfb651a2ce2489a8f954b",
            "0x000000000000000000000000a6b3d200cd34ca14d7579dac8b054bf50a62c37c"
          ],
          "data": "0x00000000000000000000000000000000000000000000000006f05b59d3b20000",
          "blockHash": "0xd32b09f862ec02fc6efd908881c6f176ce72b0d785982e9a9bed53f75c6f7788",
          "blockNumber": "0x19eb45c",
          "transactionHash": "0xa0c2503c91bdaea9ac308186f75d6e3b289cb6fba668dde86ecb83c409a228d9",
          "transactionIndex": "0x22",
          "logIndex": "0xc5",
          "removed": false
        },
        {
          "address": "0xb158d198b82696e4f3a01850a1c2aa966008e77e",
          "topics": [
            "0x9f0a7aaf8d18c024e8123bdcd157b0f6e0f42892a4ea14a2becc88a320a79922",
            "0x924cafe3f4668225141f2f2252ca17f67b629c2ff1426ac8ff340549f1266789",
            "0x000000000000000000000000a6b3d200cd34ca14d7579dac8b054bf50a62c37c"
          ],
          "data": "0x00000000000000000000000000000000000000000000000006f05b59d3b200000000000000000000000000000000000000000000000000000000000000000000",
          "blockHash": "0xd32b09f862ec02fc6efd908881c6f176ce72b0d785982e9a9bed53f75c6f7788",
          "blockNumber": "0x19eb45c",
          "transactionHash": "0xa0c2503c91bdaea9ac308186f75d6e3b289cb6fba668dde86ecb83c409a228d9",
          "transactionIndex": "0x22",
          "logIndex": "0xc6",
          "removed": false
        },
        {
          "address": "0x93dea386e04b780d5aacfb651a2ce2489a8f954b",
          "topics": [
            "0xcb5aa1675878bc9c8edd5d4265b7e06610564c809ed69560d24f5f284dd8c44b",
            "0x000000000000000000000000a6b3d200cd34ca14d7579dac8b054bf50a62c37c"
          ],
          "data": "0x00000000000000000000000000000000000000000000000006f05b59d3b20000924cafe3f4668225141f2f2252ca17f67b629c2ff1426ac8ff340549f1266789",
          "blockHash": "0xd32b09f862ec02fc6efd908881c6f176ce72b0d785982e9a9bed53f75c6f7788",
          "blockNumber": "0x19eb45c",
          "transactionHash": "0xa0c2503c91bdaea9ac308186f75d6e3b289cb6fba668dde86ecb83c409a228d9",
          "transactionIndex": "0x22",
          "logIndex": "0xc7",
          "removed": false
        },
        {
          "address": "0x93dea386e04b780d5aacfb651a2ce2489a8f954b",
          "topics": [
            "0x2399e8aed1977410745a5211d8226a3a7d9278f50a8a197c5ec6e285bb437f0b",
            "0x0000000000000000000000000000000000000000000000000000000000000001"
          ],
          "data": "0x00000000000000000000000000000000000000000000000006f05b59d3b20000",
          "blockHash": "0xd32b09f862ec02fc6efd908881c6f176ce72b0d785982e9a9bed53f75c6f7788",
          "blockNumber": "0x19eb45c",
          "transactionHash": "0xa0c2503c91bdaea9ac308186f75d6e3b289cb6fba668dde86ecb83c409a228d9",
          "transactionIndex": "0x22",
          "logIndex": "0xc8",
          "removed": false
        }
      ],
      "logsBloom": "0x00000000000000000000008400000000000000000000000202000000000000000000000008000000000000000000000000002000000000000000000000040000000000000000000000000008000000000000000000050000000010000000000000200000100100000000000000000040000000000020000000000010000000000000000000000008000000000000000000000000000060000000000000000000000000000000008000000000000000000010000000000000000000000000000001080042000000000000000100000000000000000000000000000020010440000000080000000000000000000002000000000000000000000000000000000000",
      "type": "0x2",
      "transactionHash": "0xa0c2503c91bdaea9ac308186f75d6e3b289cb6fba668dde86ecb83c409a228d9",
      "transactionIndex": "0x22",
      "blockHash": "0xd32b09f862ec02fc6efd908881c6f176ce72b0d785982e9a9bed53f75c6f7788",
      "blockNumber": "0x19eb45c",
      "gasUsed": "0x22955",
      "effectiveGasPrice": "0x39055",
      "from": "0xa6b3d200cd34ca14d7579dac8b054bf50a62c37c",
      "to": "0x93dea386e04b780d5aacfb651a2ce2489a8f954b",
      "contractAddress": null,
      "l1BaseFeeScalar": "0x44d",
      "l1BlobBaseFee": "0x1",
      "l1BlobBaseFeeScalar": "0xa118b",
      "l1Fee": "0x183d9",
      "l1GasPrice": "0xdc06",
      "l1GasUsed": "0x640"
    }
  ],
  "libraries": [],
  "pending": [],
  "returns": {},
  "timestamp": 1750124441,
  "chain": 84532,
  "commit": "e3173ca"
}