{
  "transactions": [
    {
      "hash": "0xcbadb2471a0162bb06fafd377fc7341073090b1d0d51dcb8f406baaf391ea3cc",
      "transactionType": "CALL",
      "contractName": "MockETH",
      "contractAddress": "0x8b72ef3f6af733c44a0c5a81308f85c8fb3f8705",
      "function": "approve(address,uint256)",
      "arguments": [
        "0x10ffCF24EcF5664A0FB7aa727f10bC8eF6872bb0",
        "5000000000000000000"
      ],
      "transaction": {
        "from": "0xa6b3d200cd34ca14d7579dac8b054bf50a62c37c",
        "to": "0x8b72ef3f6af733c44a0c5a81308f85c8fb3f8705",
        "gas": "0xf7f5",
        "value": "0x0",
        "input": "0x095ea7b300000000000000000000000010ffcf24ecf5664a0fb7aa727f10bc8ef6872bb00000000000000000000000000000000000000000000000004563918244f40000",
        "nonce": "0xab9",
        "chainId": "0x14a34"
      },
      "additionalContracts": [],
      "isFixedGasLimit": false
    },
    {
      "hash": "0x9edb049665dac974ccdce379194b7f70447717d538f8dfce8829a5b94f2b9e49",
      "transactionType": "CALL",
      "contractName": null,
      "contractAddress": "0x10ffcf24ecf5664a0fb7aa727f10bc8ef6872bb0",
      "function": "createLoan((address,address,uint256,uint256,uint256,uint256,uint256))",
      "arguments": [
        "(0x8B72Ef3F6Af733C44a0C5A81308F85C8fb3f8705, 0xA90AE0DE43208DFF05Dce86e2d87b9ADB9b5b5Bb, 5000000000000000000, 2000000000, 700000, 80000, 0)"
      ],
      "transaction": {
        "from": "0xa6b3d200cd34ca14d7579dac8b054bf50a62c37c",
        "to": "0x10ffcf24ecf5664a0fb7aa727f10bc8ef6872bb0",
        "gas": "0x91fa2",
        "value": "0x0",
        "input": "0xe37ccfec0000000000000000000000008b72ef3f6af733c44a0c5a81308f85c8fb3f8705000000000000000000000000a90ae0de43208dff05dce86e2d87b9adb9b5b5bb0000000000000000000000000000000000000000000000004563918244f40000000000000000000000000000000000000000000000000000000000007735940000000000000000000000000000000000000000000000000000000000000aae6000000000000000000000000000000000000000000000000000000000000138800000000000000000000000000000000000000000000000000000000000000000",
        "nonce": "0xaba",
        "chainId": "0x14a34"
      },
      "additionalContracts": [],
      "isFixedGasLimit": false
    },
    {
      "hash": "0x6c1478778cbd956228f923e916a8407ae692a2d6aabf2bbbbcacff3409bb46c9",
      "transactionType": "CALL",
      "contractName": null,
      "contractAddress": "0xa90ae0de43208dff05dce86e2d87b9adb9b5b5bb",
      "function": "approve(address,uint256)",
      "arguments": [
        "0x99f445EdD455dCE9DFD745C0a870480FDEE35a15",
        "10000000000"
      ],
      "transaction": {
        "from": "0xa6b3d200cd34ca14d7579dac8b054bf50a62c37c",
        "to": "0xa90ae0de43208dff05dce86e2d87b9adb9b5b5bb",
        "gas": "0xf7d3",
        "value": "0x0",
        "input": "0x095ea7b300000000000000000000000099f445edd455dce9dfd745c0a870480fdee35a1500000000000000000000000000000000000000000000000000000002540be400",
        "nonce": "0xabb",
        "chainId": "0x14a34"
      },
      "additionalContracts": [],
      "isFixedGasLimit": false
    },
    {
      "hash": "0x202b20062d7eb049259d4e9fcb3ae88c2ce8b5a40f71854ebfffc46735866556",
      "transactionType": "CALL",
      "contractName": null,
      "contractAddress": "0x99f445edd455dce9dfd745c0a870480fdee35a15",
      "function": "createLoan((address,address,uint256,uint256,uint256,uint256,uint256))",
      "arguments": [
        "(0xA90AE0DE43208DFF05Dce86e2d87b9ADB9b5b5Bb, 0x8B72Ef3F6Af733C44a0C5A81308F85C8fb3f8705, 10000000000, 1000000000000000000, 500000, 75000, 0)"
      ],
      "transaction": {
        "from": "0xa6b3d200cd34ca14d7579dac8b054bf50a62c37c",
        "to": "0x99f445edd455dce9dfd745c0a870480fdee35a15",
        "gas": "0x9525b",
        "value": "0x0",
        "input": "0xe37ccfec000000000000000000000000a90ae0de43208dff05dce86e2d87b9adb9b5b5bb0000000000000000000000008b72ef3f6af733c44a0c5a81308f85c8fb3f870500000000000000000000000000000000000000000000000000000002540be4000000000000000000000000000000000000000000000000000de0b6b3a7640000000000000000000000000000000000000000000000000000000000000007a12000000000000000000000000000000000000000000000000000000000000124f80000000000000000000000000000000000000000000000000000000000000000",
        "nonce": "0xabc",
        "chainId": "0x14a34"
      },
      "additionalContracts": [],
      "isFixedGasLimit": false
    },
    {
      "hash": "0x15d381b0ba6adb7449ef4e839b30e940f5b43b8a8c2b84641196a39d8217b3dd",
      "transactionType": "CALL",
      "contractName": "MockETH",
      "contractAddress": "0x8b72ef3f6af733c44a0c5a81308f85c8fb3f8705",
      "function": "approve(address,uint256)",
      "arguments": [
        "0x10ffCF24EcF5664A0FB7aa727f10bC8eF6872bb0",
        "1000000000000000000"
      ],
      "transaction": {
        "from": "0xa6b3d200cd34ca14d7579dac8b054bf50a62c37c",
        "to": "0x8b72ef3f6af733c44a0c5a81308f85c8fb3f8705",
        "gas": "0xf7f5",
        "value": "0x0",
        "input": "0x095ea7b300000000000000000000000010ffcf24ecf5664a0fb7aa727f10bc8ef6872bb00000000000000000000000000000000000000000000000000de0b6b3a7640000",
        "nonce": "0xabd",
        "chainId": "0x14a34"
      },
      "additionalContracts": [],
      "isFixedGasLimit": false
    },
    {
      "hash": "0xca1d4be9f63f184667ab5bf5b5a4f93a71d55eacc6db2f2c3c12aeadd3d9273b",
      "transactionType": "CALL",
      "contractName": null,
      "contractAddress": "0x10ffcf24ecf5664a0fb7aa727f10bc8ef6872bb0",
      "function": "addCollateral(uint256,uint256)",
      "arguments": [
        "1",
        "1000000000000000000"
      ],
      "transaction": {
        "from": "0xa6b3d200cd34ca14d7579dac8b054bf50a62c37c",
        "to": "0x10ffcf24ecf5664a0fb7aa727f10bc8ef6872bb0",
        "gas": "0x122a6",
        "value": "0x0",
        "input": "0xa8f35adf00000000000000000000000000000000000000000000000000000000000000010000000000000000000000000000000000000000000000000de0b6b3a7640000",
        "nonce": "0xabe",
        "chainId": "0x14a34"
      },
      "additionalContracts": [],
      "isFixedGasLimit": false
    },
    {
      "hash": "0x7ff411747fd8edff57bf4634dbaf909e5cc705c42af4878567c583b2ae9d07bb",
      "transactionType": "CALL",
      "contractName": null,
      "contractAddress": "0x10ffcf24ecf5664a0fb7aa727f10bc8ef6872bb0",
      "function": "withdrawCollateral(uint256,uint256)",
      "arguments": [
        "1",
        "500000000000000000"
      ],
      "transaction": {
        "from": "0xa6b3d200cd34ca14d7579dac8b054bf50a62c37c",
        "to": "0x10ffcf24ecf5664a0fb7aa727f10bc8ef6872bb0",
        "gas": "0x21d38",
        "value": "0x0",
        "input": "0x767a7b05000000000000000000000000000000000000000000000000000000000000000100000000000000000000000000000000000000000000000006f05b59d3b20000",
        "nonce": "0xabf",
        "chainId": "0x14a34"
      },
      "additionalContracts": [],
      "isFixedGasLimit": false
    }
  ],
  "receipts": [
    {
      "status": "0x1",
      "cumulativeGasUsed": "0x186d33",
      "logs": [
        {
          "address": "0x8b72ef3f6af733c44a0c5a81308f85c8fb3f8705",
          "topics": [
            "0x8c5be1e5ebec7d5bd14f71427d1e84f3dd0314c0f7b2291e5b200ac8c7c3b925",
            "0x000000000000000000000000a6b3d200cd34ca14d7579dac8b054bf50a62c37c",
            "0x00000000000000000000000010ffcf24ecf5664a0fb7aa727f10bc8ef6872bb0"
          ],
          "data": "0x0000000000000000000000000000000000000000000000004563918244f40000",
          "blockHash": "0xcc263e61251215eb4ffc33f04af28d84c4f62200a0bee79afe13dafc9d8db995",
          "blockNumber": "0x19d5796",
          "transactionHash": "0xcbadb2471a0162bb06fafd377fc7341073090b1d0d51dcb8f406baaf391ea3cc",
          "transactionIndex": "0xc",
          "logIndex": "0x13",
          "removed": false
        }
      ],
      "logsBloom": "0x00000000080000000000000400000000000000000000000002000000000000000000000000000000000000000000000000000000000000000000000000200000000000000400000000000000000000000000000000000000000000000000000000000000000000000000000000000000000010000000000000000000000000000000800000000000000000000000000000000000000000000000000000000000020000000000000000000000000000000000004000000000000000000000000000400040000000000000000000000000000000000000000000000000000000000010000000000000000000000000000000000000000000000000000000000000",
      "type": "0x2",
      "transactionHash": "0xcbadb2471a0162bb06fafd377fc7341073090b1d0d51dcb8f406baaf391ea3cc",
      "transactionIndex": "0xc",
      "blockHash": "0xcc263e61251215eb4ffc33f04af28d84c4f62200a0bee79afe13dafc9d8db995",
      "blockNumber": "0x19d5796",
      "gasUsed": "0xb385",
      "effectiveGasPrice": "0x2b6",
      "from": "0xa6b3d200cd34ca14d7579dac8b054bf50a62c37c",
      "to": "0x8b72ef3f6af733c44a0c5a81308f85c8fb3f8705",
      "contractAddress": null,
      "l1BaseFeeScalar": "0x44d",
      "l1BlobBaseFee": "0x1",
      "l1BlobBaseFeeScalar": "0xa118b",
      "l1Fee": "0x171946",
      "l1GasPrice": "0xd1c9e",
      "l1GasUsed": "0x640"
    },
    {
      "status": "0x1",
      "cumulativeGasUsed": "0x1f0828",
      "logs": [
        {
          "address": "0x8b72ef3f6af733c44a0c5a81308f85c8fb3f8705",
          "topics": [
            "0xddf252ad1be2c89b69c2b068fc378daa952ba7f163c4a11628f55a4df523b3ef",
            "0x000000000000000000000000a6b3d200cd34ca14d7579dac8b054bf50a62c37c",
            "0x00000000000000000000000010ffcf24ecf5664a0fb7aa727f10bc8ef6872bb0"
          ],
          "data": "0x0000000000000000000000000000000000000000000000004563918244f40000",
          "blockHash": "0xcc263e61251215eb4ffc33f04af28d84c4f62200a0bee79afe13dafc9d8db995",
          "blockNumber": "0x19d5796",
          "transactionHash": "0x9edb049665dac974ccdce379194b7f70447717d538f8dfce8829a5b94f2b9e49",
          "transactionIndex": "0xd",
          "logIndex": "0x14",
          "removed": false
        },
        {
          "address": "0xa90ae0de43208dff05dce86e2d87b9adb9b5b5bb",
          "topics": [
            "0xddf252ad1be2c89b69c2b068fc378daa952ba7f163c4a11628f55a4df523b3ef",
            "0x000000000000000000000000c5701ebadf86a4b58e8fcfbe7264c5784a2142e2",
            "0x000000000000000000000000a6b3d200cd34ca14d7579dac8b054bf50a62c37c"
          ],
          "data": "0x0000000000000000000000000000000000000000000000000000000077359400",
          "blockHash": "0xcc263e61251215eb4ffc33f04af28d84c4f62200a0bee79afe13dafc9d8db995",
          "blockNumber": "0x19d5796",
          "transactionHash": "0x9edb049665dac974ccdce379194b7f70447717d538f8dfce8829a5b94f2b9e49",
          "transactionIndex": "0xd",
          "logIndex": "0x15",
          "removed": false
        },
        {
          "address": "0xc5701ebadf86a4b58e8fcfbe7264c5784a2142e2",
          "topics": [
            "0x385feb58578c31f205b503905da1dec4c110dcdaac4a0dc43be298cae636307f",
            "0x000000000000000000000000a90ae0de43208dff05dce86e2d87b9adb9b5b5bb"
          ],
          "data": "0x0000000000000000000000000000000000000000000000000000000000001f40",
          "blockHash": "0xcc263e61251215eb4ffc33f04af28d84c4f62200a0bee79afe13dafc9d8db995",
          "blockNumber": "0x19d5796",
          "transactionHash": "0x9edb049665dac974ccdce379194b7f70447717d538f8dfce8829a5b94f2b9e49",
          "transactionIndex": "0xd",
          "logIndex": "0x16",
          "removed": false
        },
        {
          "address": "0xc5701ebadf86a4b58e8fcfbe7264c5784a2142e2",
          "topics": [
            "0xb088e70ab7e367eb8a026f0cf73edc838746f0f9761c510260ff489070d7b3c8",
            "0x000000000000000000000000a90ae0de43208dff05dce86e2d87b9adb9b5b5bb",
            "0x000000000000000000000000a6b3d200cd34ca14d7579dac8b054bf50a62c37c"
          ],
          "data": "0x0000000000000000000000000000000000000000000000000000000077359400",
          "blockHash": "0xcc263e61251215eb4ffc33f04af28d84c4f62200a0bee79afe13dafc9d8db995",
          "blockNumber": "0x19d5796",
          "transactionHash": "0x9edb049665dac974ccdce379194b7f70447717d538f8dfce8829a5b94f2b9e49",
          "transactionIndex": "0xd",
          "logIndex": "0x17",
          "removed": false
        },
        {
          "address": "0x10ffcf24ecf5664a0fb7aa727f10bc8ef6872bb0",
          "topics": [
            "0x3c173f34da0900ded1a250c99de3d58cb900ce2841d93b11d877afee8b077a48",
            "0x0000000000000000000000000000000000000000000000000000000000000001",
            "0x000000000000000000000000a6b3d200cd34ca14d7579dac8b054bf50a62c37c"
          ],
          "data": "0x0000000000000000000000008b72ef3f6af733c44a0c5a81308f85c8fb3f8705000000000000000000000000a90ae0de43208dff05dce86e2d87b9adb9b5b5bb0000000000000000000000000000000000000000000000004563918244f400000000000000000000000000000000000000000000000000000000000077359400",
          "blockHash": "0xcc263e61251215eb4ffc33f04af28d84c4f62200a0bee79afe13dafc9d8db995",
          "blockNumber": "0x19d5796",
          "transactionHash": "0x9edb049665dac974ccdce379194b7f70447717d538f8dfce8829a5b94f2b9e49",
          "transactionIndex": "0xd",
          "logIndex": "0x18",
          "removed": false
        }
      ],
      "logsBloom": "0x00000000080000000000000400000000010000000000000002000000000400000000000002002000000000000000000000000000000010000000000000040000000000000400000100000008000000000000000000040000000000000000000000000000000004000000040000000000000010000400200000000010000100000000808000000000000000000000000000000000000000000000000000000000000000000040000000000000000000000000004000400000000000000000000000400042000040000000000040000000000000400000000004000000000040000010000000000000000000000000000000c00004000000000000000000000006",
      "type": "0x2",
      "transactionHash": "0x9edb049665dac974ccdce379194b7f70447717d538f8dfce8829a5b94f2b9e49",
      "transactionIndex": "0xd",
      "blockHash": "0xcc263e61251215eb4ffc33f04af28d84c4f62200a0bee79afe13dafc9d8db995",
      "blockNumber": "0x19d5796",
      "gasUsed": "0x69af5",
      "effectiveGasPrice": "0x2b6",
      "from": "0xa6b3d200cd34ca14d7579dac8b054bf50a62c37c",
      "to": "0x10ffcf24ecf5664a0fb7aa727f10bc8ef6872bb0",
      "contractAddress": null,
      "l1BaseFeeScalar": "0x44d",
      "l1BlobBaseFee": "0x1",
      "l1BlobBaseFeeScalar": "0xa118b",
      "l1Fee": "0x204911",
      "l1GasPrice": "0xd1c9e",
      "l1GasUsed": "0x8bc"
    },
    {
      "status": "0x1",
      "cumulativeGasUsed": "0x1fbb95",
      "logs": [
        {
          "address": "0xa90ae0de43208dff05dce86e2d87b9adb9b5b5bb",
          "topics": [
            "0x8c5be1e5ebec7d5bd14f71427d1e84f3dd0314c0f7b2291e5b200ac8c7c3b925",
            "0x000000000000000000000000a6b3d200cd34ca14d7579dac8b054bf50a62c37c",
            "0x00000000000000000000000099f445edd455dce9dfd745c0a870480fdee35a15"
          ],
          "data": "0x00000000000000000000000000000000000000000000000000000002540be400",
          "blockHash": "0xcc263e61251215eb4ffc33f04af28d84c4f62200a0bee79afe13dafc9d8db995",
          "blockNumber": "0x19d5796",
          "transactionHash": "0x6c1478778cbd956228f923e916a8407ae692a2d6aabf2bbbbcacff3409bb46c9",
          "transactionIndex": "0xe",
          "logIndex": "0x19",
          "removed": false
        }
      ],
      "logsBloom": "0x00000000000020000000000400000000000000000000000002000000000000000000000000000000000000000000000000000000000000000000000000200000000000000000000100000000000000000000000000000000000000000000000000000000000004000000000000000000000000000000000000000000000000000000000000000000000000000000000000000000000000000000000000000000020000000000000000000000000000000000000000000000000000000000000000000040008000000000000000000000000000000000000000000000000000000010000000000000000000080000000000400000000000000000000000000000",
      "type": "0x2",
      "transactionHash": "0x6c1478778cbd956228f923e916a8407ae692a2d6aabf2bbbbcacff3409bb46c9",
      "transactionIndex": "0xe",
      "blockHash": "0xcc263e61251215eb4ffc33f04af28d84c4f62200a0bee79afe13dafc9d8db995",
      "blockNumber": "0x19d5796",
      "gasUsed": "0xb36d",
      "effectiveGasPrice": "0x2b6",
      "from": "0xa6b3d200cd34ca14d7579dac8b054bf50a62c37c",
      "to": "0xa90ae0de43208dff05dce86e2d87b9adb9b5b5bb",
      "contractAddress": null,
      "l1BaseFeeScalar": "0x44d",
      "l1BlobBaseFee": "0x1",
      "l1BlobBaseFeeScalar": "0xa118b",
      "l1Fee": "0x171946",
      "l1GasPrice": "0xd1c9e",
      "l1GasUsed": "0x640"
    },
    {
      "status": "0x1",
      "cumulativeGasUsed": "0x261b48",
      "logs": [
        {
          "address": "0xa90ae0de43208dff05dce86e2d87b9adb9b5b5bb",
          "topics": [
            "0xddf252ad1be2c89b69c2b068fc378daa952ba7f163c4a11628f55a4df523b3ef",
            "0x000000000000000000000000a6b3d200cd34ca14d7579dac8b054bf50a62c37c",
            "0x00000000000000000000000099f445edd455dce9dfd745c0a870480fdee35a15"
          ],
          "data": "0x00000000000000000000000000000000000000000000000000000002540be400",
          "blockHash": "0xcc263e61251215eb4ffc33f04af28d84c4f62200a0bee79afe13dafc9d8db995",
          "blockNumber": "0x19d5796",
          "transactionHash": "0x202b20062d7eb049259d4e9fcb3ae88c2ce8b5a40f71854ebfffc46735866556",
          "transactionIndex": "0xf",
          "logIndex": "0x1a",
          "removed": false
        },
        {
          "address": "0x8b72ef3f6af733c44a0c5a81308f85c8fb3f8705",
          "topics": [
            "0xddf252ad1be2c89b69c2b068fc378daa952ba7f163c4a11628f55a4df523b3ef",
            "0x000000000000000000000000c5701ebadf86a4b58e8fcfbe7264c5784a2142e2",
            "0x000000000000000000000000a6b3d200cd34ca14d7579dac8b054bf50a62c37c"
          ],
          "data": "0x0000000000000000000000000000000000000000000000000de0b6b3a7640000",
          "blockHash": "0xcc263e61251215eb4ffc33f04af28d84c4f62200a0bee79afe13dafc9d8db995",
          "blockNumber": "0x19d5796",
          "transactionHash": "0x202b20062d7eb049259d4e9fcb3ae88c2ce8b5a40f71854ebfffc46735866556",
          "transactionIndex": "0xf",
          "logIndex": "0x1b",
          "removed": false
        },
        {
          "address": "0xc5701ebadf86a4b58e8fcfbe7264c5784a2142e2",
          "topics": [
            "0x385feb58578c31f205b503905da1dec4c110dcdaac4a0dc43be298cae636307f",
            "0x0000000000000000000000008b72ef3f6af733c44a0c5a81308f85c8fb3f8705"
          ],
          "data": "0x0000000000000000000000000000000000000000000000000000000000002710",
          "blockHash": "0xcc263e61251215eb4ffc33f04af28d84c4f62200a0bee79afe13dafc9d8db995",
          "blockNumber": "0x19d5796",
          "transactionHash": "0x202b20062d7eb049259d4e9fcb3ae88c2ce8b5a40f71854ebfffc46735866556",
          "transactionIndex": "0xf",
          "logIndex": "0x1c",
          "removed": false
        },
        {
          "address": "0xc5701ebadf86a4b58e8fcfbe7264c5784a2142e2",
          "topics": [
            "0xb088e70ab7e367eb8a026f0cf73edc838746f0f9761c510260ff489070d7b3c8",
            "0x0000000000000000000000008b72ef3f6af733c44a0c5a81308f85c8fb3f8705",
            "0x000000000000000000000000a6b3d200cd34ca14d7579dac8b054bf50a62c37c"
          ],
          "data": "0x0000000000000000000000000000000000000000000000000de0b6b3a7640000",
          "blockHash": "0xcc263e61251215eb4ffc33f04af28d84c4f62200a0bee79afe13dafc9d8db995",
          "blockNumber": "0x19d5796",
          "transactionHash": "0x202b20062d7eb049259d4e9fcb3ae88c2ce8b5a40f71854ebfffc46735866556",
          "transactionIndex": "0xf",
          "logIndex": "0x1d",
          "removed": false
        },
        {
          "address": "0x99f445edd455dce9dfd745c0a870480fdee35a15",
          "topics": [
            "0x3c173f34da0900ded1a250c99de3d58cb900ce2841d93b11d877afee8b077a48",
            "0x0000000000000000000000000000000000000000000000000000000000000001",
            "0x000000000000000000000000a6b3d200cd34ca14d7579dac8b054bf50a62c37c"
          ],
          "data": "0x000000000000000000000000a90ae0de43208dff05dce86e2d87b9adb9b5b5bb0000000000000000000000008b72ef3f6af733c44a0c5a81308f85c8fb3f870500000000000000000000000000000000000000000000000000000002540be4000000000000000000000000000000000000000000000000000de0b6b3a7640000",
          "blockHash": "0xcc263e61251215eb4ffc33f04af28d84c4f62200a0bee79afe13dafc9d8db995",
          "blockNumber": "0x19d5796",
          "transactionHash": "0x202b20062d7eb049259d4e9fcb3ae88c2ce8b5a40f71854ebfffc46735866556",
          "transactionIndex": "0xf",
          "logIndex": "0x1e",
          "removed": false
        }
      ],
      "logsBloom": "0x00000000000020000000000400000000010000000000000002000000000000000000000002002000000000100000000000000000000010000000800000040000000000000000000100000008000000000000000000040000000000000000000000000000000004000000040000000000000000000400080000000010000100000000808000000400000000000000000002000000000000000000000000000000000001000040000000000000000000000000004000000000000000000000000000400042008040000000000000000000000000400000000004000000000040000000000000000000000000080000000000c00004000000000000000000000004",
      "type": "0x2",
      "transactionHash": "0x202b20062d7eb049259d4e9fcb3ae88c2ce8b5a40f71854ebfffc46735866556",
      "transactionIndex": "0xf",
      "blockHash": "0xcc263e61251215eb4ffc33f04af28d84c4f62200a0bee79afe13dafc9d8db995",
      "blockNumber": "0x19d5796",
      "gasUsed": "0x65fb3",
      "effectiveGasPrice": "0x2b6",
      "from": "0xa6b3d200cd34ca14d7579dac8b054bf50a62c37c",
      "to": "0x99f445edd455dce9dfd745c0a870480fdee35a15",
      "contractAddress": null,
      "l1BaseFeeScalar": "0x44d",
      "l1BlobBaseFee": "0x1",
      "l1BlobBaseFeeScalar": "0xa118b",
      "l1Fee": "0x1fb4ac",
      "l1GasPrice": "0xd1c9e",
      "l1GasUsed": "0x894"
    },
    {
      "status": "0x1",
      "cumulativeGasUsed": "0x26cecd",
      "logs": [
        {
          "address": "0x8b72ef3f6af733c44a0c5a81308f85c8fb3f8705",
          "topics": [
            "0x8c5be1e5ebec7d5bd14f71427d1e84f3dd0314c0f7b2291e5b200ac8c7c3b925",
            "0x000000000000000000000000a6b3d200cd34ca14d7579dac8b054bf50a62c37c",
            "0x00000000000000000000000010ffcf24ecf5664a0fb7aa727f10bc8ef6872bb0"
          ],
          "data": "0x0000000000000000000000000000000000000000000000000de0b6b3a7640000",
          "blockHash": "0xcc263e61251215eb4ffc33f04af28d84c4f62200a0bee79afe13dafc9d8db995",
          "blockNumber": "0x19d5796",
          "transactionHash": "0x15d381b0ba6adb7449ef4e839b30e940f5b43b8a8c2b84641196a39d8217b3dd",
          "transactionIndex": "0x10",
          "logIndex": "0x1f",
          "removed": false
        }
      ],
      "logsBloom": "0x00000000080000000000000400000000000000000000000002000000000000000000000000000000000000000000000000000000000000000000000000200000000000000400000000000000000000000000000000000000000000000000000000000000000000000000000000000000000010000000000000000000000000000000800000000000000000000000000000000000000000000000000000000000020000000000000000000000000000000000004000000000000000000000000000400040000000000000000000000000000000000000000000000000000000000010000000000000000000000000000000000000000000000000000000000000",
      "type": "0x2",
      "transactionHash": "0x15d381b0ba6adb7449ef4e839b30e940f5b43b8a8c2b84641196a39d8217b3dd",
      "transactionIndex": "0x10",
      "blockHash": "0xcc263e61251215eb4ffc33f04af28d84c4f62200a0bee79afe13dafc9d8db995",
      "blockNumber": "0x19d5796",
      "gasUsed": "0xb385",
      "effectiveGasPrice": "0x2b6",
      "from": "0xa6b3d200cd34ca14d7579dac8b054bf50a62c37c",
      "to": "0x8b72ef3f6af733c44a0c5a81308f85c8fb3f8705",
      "contractAddress": null,
      "l1BaseFeeScalar": "0x44d",
      "l1BlobBaseFee": "0x1",
      "l1BlobBaseFeeScalar": "0xa118b",
      "l1Fee": "0x171946",
      "l1GasPrice": "0xd1c9e",
      "l1GasUsed": "0x640"
    },
    {
      "status": "0x1",
      "cumulativeGasUsed": "0x27a13b",
      "logs": [
        {
          "address": "0x8b72ef3f6af733c44a0c5a81308f85c8fb3f8705",
          "topics": [
            "0xddf252ad1be2c89b69c2b068fc378daa952ba7f163c4a11628f55a4df523b3ef",
            "0x000000000000000000000000a6b3d200cd34ca14d7579dac8b054bf50a62c37c",
            "0x00000000000000000000000010ffcf24ecf5664a0fb7aa727f10bc8ef6872bb0"
          ],
          "data": "0x0000000000000000000000000000000000000000000000000de0b6b3a7640000",
          "blockHash": "0xcc263e61251215eb4ffc33f04af28d84c4f62200a0bee79afe13dafc9d8db995",
          "blockNumber": "0x19d5796",
          "transactionHash": "0xca1d4be9f63f184667ab5bf5b5a4f93a71d55eacc6db2f2c3c12aeadd3d9273b",
          "transactionIndex": "0x11",
          "logIndex": "0x20",
          "removed": false
        },
        {
          "address": "0x10ffcf24ecf5664a0fb7aa727f10bc8ef6872bb0",
          "topics": [
            "0x244160b15e69cc411f041d94ae7fab6f6bba85dade8403216c05ff4b920d5449",
            "0x0000000000000000000000000000000000000000000000000000000000000001"
          ],
          "data": "0x0000000000000000000000000000000000000000000000000de0b6b3a7640000",
          "blockHash": "0xcc263e61251215eb4ffc33f04af28d84c4f62200a0bee79afe13dafc9d8db995",
          "blockNumber": "0x19d5796",
          "transactionHash": "0xca1d4be9f63f184667ab5bf5b5a4f93a71d55eacc6db2f2c3c12aeadd3d9273b",
          "transactionIndex": "0x11",
          "logIndex": "0x21",
          "removed": false
        }
      ],
      "logsBloom": "0x00000000080000000000000400000000000000000000000002000000000000000000000000000000000000000000000000000000000200000000000000040000000000000400000000000008000000000000000000040000000000000000000000000000000000000000000000000000000010000000000000000010000000000000800000000000000000000000000000000000000000000000000000000000000000000000000000000000000000000000004000000000000000000000000000400042000000000000000040000010000000000000000000000000000040000010000000000080000000000000000000000000000000000000000000000002",
      "type": "0x2",
      "transactionHash": "0xca1d4be9f63f184667ab5bf5b5a4f93a71d55eacc6db2f2c3c12aeadd3d9273b",
      "transactionIndex": "0x11",
      "blockHash": "0xcc263e61251215eb4ffc33f04af28d84c4f62200a0bee79afe13dafc9d8db995",
      "blockNumber": "0x19d5796",
      "gasUsed": "0xd26e",
      "effectiveGasPrice": "0x2b6",
      "from": "0xa6b3d200cd34ca14d7579dac8b054bf50a62c37c",
      "to": "0x10ffcf24ecf5664a0fb7aa727f10bc8ef6872bb0",
      "contractAddress": null,
      "l1BaseFeeScalar": "0x44d",
      "l1BlobBaseFee": "0x1",
      "l1BlobBaseFeeScalar": "0xa118b",
      "l1Fee": "0x171946",
      "l1GasPrice": "0xd1c9e",
      "l1GasUsed": "0x640"
    },
    {
      "status": "0x1",
      "cumulativeGasUsed": "0x29134c",
      "logs": [
        {
          "address": "0x8b72ef3f6af733c44a0c5a81308f85c8fb3f8705",
          "topics": [
            "0xddf252ad1be2c89b69c2b068fc378daa952ba7f163c4a11628f55a4df523b3ef",
            "0x00000000000000000000000010ffcf24ecf5664a0fb7aa727f10bc8ef6872bb0",
            "0x000000000000000000000000a6b3d200cd34ca14d7579dac8b054bf50a62c37c"
          ],
          "data": "0x00000000000000000000000000000000000000000000000006f05b59d3b20000",
          "blockHash": "0xcc263e61251215eb4ffc33f04af28d84c4f62200a0bee79afe13dafc9d8db995",
          "blockNumber": "0x19d5796",
          "transactionHash": "0x7ff411747fd8edff57bf4634dbaf909e5cc705c42af4878567c583b2ae9d07bb",
          "transactionIndex": "0x12",
          "logIndex": "0x22",
          "removed": false
        },
        {
          "address": "0x10ffcf24ecf5664a0fb7aa727f10bc8ef6872bb0",
          "topics": [
            "0x2399e8aed1977410745a5211d8226a3a7d9278f50a8a197c5ec6e285bb437f0b",
            "0x0000000000000000000000000000000000000000000000000000000000000001"
          ],
          "data": "0x00000000000000000000000000000000000000000000000006f05b59d3b20000",
          "blockHash": "0xcc263e61251215eb4ffc33f04af28d84c4f62200a0bee79afe13dafc9d8db995",
          "blockNumber": "0x19d5796",
          "transactionHash": "0x7ff411747fd8edff57bf4634dbaf909e5cc705c42af4878567c583b2ae9d07bb",
          "transactionIndex": "0x12",
          "logIndex": "0x23",
          "removed": false
        }
      ],
      "logsBloom": "0x00000000080000000000000400000000000000000000000002000000000000000000000000000000000000000000000000000000000000000000000000040000000000000400000000000008000000000000000000040000000000000000000000000000000000000000000000000000000010000020000000000010000000000000800000000000000000000000000000000000000060000000000000000000000000000000000000000000000000000000004000000000000000000000000000400042000000000000000040000000000000000000000000000000000040000010000000000000000000000000000000000000000000000000000000000002",
      "type": "0x2",
      "transactionHash": "0x7ff411747fd8edff57bf4634dbaf909e5cc705c42af4878567c583b2ae9d07bb",
      "transactionIndex": "0x12",
      "blockHash": "0xcc263e61251215eb4ffc33f04af28d84c4f62200a0bee79afe13dafc9d8db995",
      "blockNumber": "0x19d5796",
      "gasUsed": "0x17211",
      "effectiveGasPrice": "0x2b6",
      "from": "0xa6b3d200cd34ca14d7579dac8b054bf50a62c37c",
      "to": "0x10ffcf24ecf5664a0fb7aa727f10bc8ef6872bb0",
      "contractAddress": null,
      "l1BaseFeeScalar": "0x44d",
      "l1BlobBaseFee": "0x1",
      "l1BlobBaseFeeScalar": "0xa118b",
      "l1Fee": "0x171946",
      "l1GasPrice": "0xd1c9e",
      "l1GasUsed": "0x640"
    }
  ],
  "libraries": [],
  "pending": [],
  "returns": {},
  "timestamp": 1749945870,
  "chain": 84532,
  "commit": "e1d10af"
}