{
  "transactions": [
    {
      "hash": "0xfcf5613874805229272cfbc9aaf3ae8ac58e4b398d7f3518edb5c692d21851da",
      "transactionType": "CALL",
      "contractName": "MockUSDC",
      "contractAddress": "0x9b051dbf5bbfa94c9f18617a2d10ac9614d41d6c",
      "function": "approve(address,uint256)",
      "arguments": [
        "0x26a5B76417f4b12131542CEfd9083e70c9E647B1",
        "100000000000"
      ],
      "transaction": {
        "from": "0xa6b3d200cd34ca14d7579dac8b054bf50a62c37c",
        "to": "0x9b051dbf5bbfa94c9f18617a2d10ac9614d41d6c",
        "gas": "0xf7d3",
        "value": "0x0",
        "input": "0x095ea7b300000000000000000000000026a5b76417f4b12131542cefd9083e70c9e647b1000000000000000000000000000000000000000000000000000000174876e800",
        "nonce": "0x5d4",
        "chainId": "0x14a34"
      },
      "additionalContracts": [],
      "isFixedGasLimit": false
    },
    {
      "hash": "0xe612fdc9a8dc8433cb8ace0bb32b191b78a9133cf704623c0258ed0b3bc47d7e",
      "transactionType": "CALL",
      "contractName": null,
      "contractAddress": "0x26a5b76417f4b12131542cefd9083e70c9e647b1",
      "function": "provideLiquidity(address,uint256,address)",
      "arguments": [
        "0x9B051Dbf5bbFA94c9F18617a2D10AC9614D41d6c",
        "100000000000",
        "0xA6B3D200cD34ca14d7579DAc8B054bf50a62c37c"
      ],
      "transaction": {
        "from": "0xa6b3d200cd34ca14d7579dac8b054bf50a62c37c",
        "to": "0x26a5b76417f4b12131542cefd9083e70c9e647b1",
        "gas": "0x4c273",
        "value": "0x0",
        "input": "0x98229cb80000000000000000000000009b051dbf5bbfa94c9f18617a2d10ac9614d41d6c000000000000000000000000000000000000000000000000000000174876e800000000000000000000000000a6b3d200cd34ca14d7579dac8b054bf50a62c37c",
        "nonce": "0x5d5",
        "chainId": "0x14a34"
      },
      "additionalContracts": [],
      "isFixedGasLimit": false
    },
    {
      "hash": "0x100292aefb1edc8305f381695ca5c22110a31cf352de0f925b5fab7e73cad47e",
      "transactionType": "CALL",
      "contractName": "MockETH",
      "contractAddress": "0x21756f22e0945ed3fab38d05cf8e933845a60622",
      "function": "approve(address,uint256)",
      "arguments": [
        "0x374A7b5353F2E1E002Af4DD02138183776037Ea2",
        "5000000000000000000"
      ],
      "transaction": {
        "from": "0xa6b3d200cd34ca14d7579dac8b054bf50a62c37c",
        "to": "0x21756f22e0945ed3fab38d05cf8e933845a60622",
        "gas": "0xf7f5",
        "value": "0x0",
        "input": "0x095ea7b3000000000000000000000000374a7b5353f2e1e002af4dd02138183776037ea20000000000000000000000000000000000000000000000004563918244f40000",
        "nonce": "0x5d6",
        "chainId": "0x14a34"
      },
      "additionalContracts": [],
      "isFixedGasLimit": false
    },
    {
      "hash": "0x6078e6b93f35bd405f49b73c7eb67cf7c98062abb455de2c69a6362fd0e6c3a6",
      "transactionType": "CALL",
      "contractName": null,
      "contractAddress": "0x374a7b5353f2e1e002af4dd02138183776037ea2",
      "function": "createLoan((address,address,uint256,uint256,uint256,uint256,uint256))",
      "arguments": [
        "(0x21756f22e0945Ed3faB38D05Cf8E933845a60622, 0x9B051Dbf5bbFA94c9F18617a2D10AC9614D41d6c, 5000000000000000000, 10000000000, 700000, 80000, 0)"
      ],
      "transaction": {
        "from": "0xa6b3d200cd34ca14d7579dac8b054bf50a62c37c",
        "to": "0x374a7b5353f2e1e002af4dd02138183776037ea2",
        "gas": "0x9029f",
        "value": "0x0",
        "input": "0xe37ccfec00000000000000000000000021756f22e0945ed3fab38d05cf8e933845a606220000000000000000000000009b051dbf5bbfa94c9f18617a2d10ac9614d41d6c0000000000000000000000000000000000000000000000004563918244f4000000000000000000000000000000000000000000000000000000000002540be40000000000000000000000000000000000000000000000000000000000000aae6000000000000000000000000000000000000000000000000000000000000138800000000000000000000000000000000000000000000000000000000000000000",
        "nonce": "0x5d7",
        "chainId": "0x14a34"
      },
      "additionalContracts": [],
      "isFixedGasLimit": false
    }
  ],
  "receipts": [
    {
      "status": "0x1",
      "cumulativeGasUsed": "0x1b332b",
      "logs": [
        {
          "address": "0x9b051dbf5bbfa94c9f18617a2d10ac9614d41d6c",
          "topics": [
            "0x8c5be1e5ebec7d5bd14f71427d1e84f3dd0314c0f7b2291e5b200ac8c7c3b925",
            "0x000000000000000000000000a6b3d200cd34ca14d7579dac8b054bf50a62c37c",
            "0x00000000000000000000000026a5b76417f4b12131542cefd9083e70c9e647b1"
          ],
          "data": "0x000000000000000000000000000000000000000000000000000000174876e800",
          "blockHash": "0xc328e3b16a4f3dd721859ef41950078817e42483bf42836066d23ea64572b64a",
          "blockNumber": "0x1975d32",
          "blockTimestamp": "0x68421944",
          "transactionHash": "0xfcf5613874805229272cfbc9aaf3ae8ac58e4b398d7f3518edb5c692d21851da",
          "transactionIndex": "0xa",
          "logIndex": "0x38",
          "removed": false
        }
      ],
      "logsBloom": "0x00020000000000000000000400000000000000000000000002000000000000000000000000000000000000000000000000000000000000000000040000200000000000000000000000000000000000000000000000000000000000000000000000800000000000000000000000000000000000000000000000000000000000000000000000000000000000000000000000000000000000000000000000000000020000000000000000000000000000000000008000100000000000000000000000000040000000000000000000001000000000000000000000000000000000000010000000000000000000000000000000000000000000000000000000000000",
      "type": "0x2",
      "transactionHash": "0xfcf5613874805229272cfbc9aaf3ae8ac58e4b398d7f3518edb5c692d21851da",
      "transactionIndex": "0xa",
      "blockHash": "0xc328e3b16a4f3dd721859ef41950078817e42483bf42836066d23ea64572b64a",
      "blockNumber": "0x1975d32",
      "gasUsed": "0xb36d",
      "effectiveGasPrice": "0x221",
      "from": "0xa6b3d200cd34ca14d7579dac8b054bf50a62c37c",
      "to": "0x9b051dbf5bbfa94c9f18617a2d10ac9614d41d6c",
      "contractAddress": null,
      "l1BaseFeeScalar": "0x44d",
      "l1BlobBaseFee": "0x23",
      "l1BlobBaseFeeScalar": "0xa118b",
      "l1Fee": "0x917",
      "l1GasPrice": "0xa",
      "l1GasUsed": "0x640"
    },
    {
      "status": "0x1",
      "cumulativeGasUsed": "0x1e744c",
      "logs": [
        {
          "address": "0x9b051dbf5bbfa94c9f18617a2d10ac9614d41d6c",
          "topics": [
            "0xddf252ad1be2c89b69c2b068fc378daa952ba7f163c4a11628f55a4df523b3ef",
            "0x000000000000000000000000a6b3d200cd34ca14d7579dac8b054bf50a62c37c",
            "0x00000000000000000000000026a5b76417f4b12131542cefd9083e70c9e647b1"
          ],
          "data": "0x000000000000000000000000000000000000000000000000000000174876e800",
          "blockHash": "0xc328e3b16a4f3dd721859ef41950078817e42483bf42836066d23ea64572b64a",
          "blockNumber": "0x1975d32",
          "blockTimestamp": "0x68421944",
          "transactionHash": "0xe612fdc9a8dc8433cb8ace0bb32b191b78a9133cf704623c0258ed0b3bc47d7e",
          "transactionIndex": "0xb",
          "logIndex": "0x39",
          "removed": false
        },
        {
          "address": "0x26a5b76417f4b12131542cefd9083e70c9e647b1",
          "topics": [
            "0x385feb58578c31f205b503905da1dec4c110dcdaac4a0dc43be298cae636307f",
            "0x0000000000000000000000009b051dbf5bbfa94c9f18617a2d10ac9614d41d6c"
          ],
          "data": "0x0000000000000000000000000000000000000000000000000000000000000000",
          "blockHash": "0xc328e3b16a4f3dd721859ef41950078817e42483bf42836066d23ea64572b64a",
          "blockNumber": "0x1975d32",
          "blockTimestamp": "0x68421944",
          "transactionHash": "0xe612fdc9a8dc8433cb8ace0bb32b191b78a9133cf704623c0258ed0b3bc47d7e",
          "transactionIndex": "0xb",
          "logIndex": "0x3a",
          "removed": false
        },
        {
          "address": "0x26a5b76417f4b12131542cefd9083e70c9e647b1",
          "topics": [
            "0x05e7be2689d5d20fd06bc749aa0d767080c4216945cacf5249f739d5a561d48f",
            "0x0000000000000000000000009b051dbf5bbfa94c9f18617a2d10ac9614d41d6c",
            "0x000000000000000000000000a6b3d200cd34ca14d7579dac8b054bf50a62c37c"
          ],
          "data": "0x000000000000000000000000000000000000000000000000000000174876e800",
          "blockHash": "0xc328e3b16a4f3dd721859ef41950078817e42483bf42836066d23ea64572b64a",
          "blockNumber": "0x1975d32",
          "blockTimestamp": "0x68421944",
          "transactionHash": "0xe612fdc9a8dc8433cb8ace0bb32b191b78a9133cf704623c0258ed0b3bc47d7e",
          "transactionIndex": "0xb",
          "logIndex": "0x3b",
          "removed": false
        }
      ],
      "logsBloom": "0x00020000000000000000000400000000000000000000000002000000000000000004000000000000000000000000000000000000000000000000040000000000000000000000000000000008000000000000000000000000000000020000000000800000000000000000000000000000000000080400000000000010000000000001000000000000000000000000000000000000000000020000000000000000000000000040000000000000000000000000008000102000000000000000000000000042000000000000000000001000000000000100000000000000000000000000000000000000000000000000000000802000000000000000000000000000",
      "type": "0x2",
      "transactionHash": "0xe612fdc9a8dc8433cb8ace0bb32b191b78a9133cf704623c0258ed0b3bc47d7e",
      "transactionIndex": "0xb",
      "blockHash": "0xc328e3b16a4f3dd721859ef41950078817e42483bf42836066d23ea64572b64a",
      "blockNumber": "0x1975d32",
      "gasUsed": "0x34121",
      "effectiveGasPrice": "0x221",
      "from": "0xa6b3d200cd34ca14d7579dac8b054bf50a62c37c",
      "to": "0x26a5b76417f4b12131542cefd9083e70c9e647b1",
      "contractAddress": null,
      "l1BaseFeeScalar": "0x44d",
      "l1BlobBaseFee": "0x23",
      "l1BlobBaseFeeScalar": "0xa118b",
      "l1Fee": "0x9d0",
      "l1GasPrice": "0xa",
      "l1GasUsed": "0x6bf"
    },
    {
      "status": "0x1",
      "cumulativeGasUsed": "0x1f27d1",
      "logs": [
        {
          "address": "0x21756f22e0945ed3fab38d05cf8e933845a60622",
          "topics": [
            "0x8c5be1e5ebec7d5bd14f71427d1e84f3dd0314c0f7b2291e5b200ac8c7c3b925",
            "0x000000000000000000000000a6b3d200cd34ca14d7579dac8b054bf50a62c37c",
            "0x000000000000000000000000374a7b5353f2e1e002af4dd02138183776037ea2"
          ],
          "data": "0x0000000000000000000000000000000000000000000000004563918244f40000",
          "blockHash": "0xc328e3b16a4f3dd721859ef41950078817e42483bf42836066d23ea64572b64a",
          "blockNumber": "0x1975d32",
          "blockTimestamp": "0x68421944",
          "transactionHash": "0x100292aefb1edc8305f381695ca5c22110a31cf352de0f925b5fab7e73cad47e",
          "transactionIndex": "0xc",
          "logIndex": "0x3c",
          "removed": false
        }
      ],
      "logsBloom": "0x00000000000000000000000400000000000000000000000002000000080000000000000000000000000000000000000000000000000000000000000000200010000000000000000000000000000000000000000000000000000000000000000000000000000000000000000000800000000000000000000000000000000000000000000000000000000000000000000000000000000000000000000000000000020000000000000000000000000000000000000000000000000000000000000002000040000000001000000000000800000000000000000000000000000000000010000000000000000000000000000000000000000000000000000000000000",
      "type": "0x2",
      "transactionHash": "0x100292aefb1edc8305f381695ca5c22110a31cf352de0f925b5fab7e73cad47e",
      "transactionIndex": "0xc",
      "blockHash": "0xc328e3b16a4f3dd721859ef41950078817e42483bf42836066d23ea64572b64a",
      "blockNumber": "0x1975d32",
      "gasUsed": "0xb385",
      "effectiveGasPrice": "0x221",
      "from": "0xa6b3d200cd34ca14d7579dac8b054bf50a62c37c",
      "to": "0x21756f22e0945ed3fab38d05cf8e933845a60622",
      "contractAddress": null,
      "l1BaseFeeScalar": "0x44d",
      "l1BlobBaseFee": "0x23",
      "l1BlobBaseFeeScalar": "0xa118b",
      "l1Fee": "0x917",
      "l1GasPrice": "0xa",
      "l1GasUsed": "0x640"
    },
    {
      "status": "0x1",
      "cumulativeGasUsed": "0x25adc5",
      "logs": [
        {
          "address": "0x21756f22e0945ed3fab38d05cf8e933845a60622",
          "topics": [
            "0xddf252ad1be2c89b69c2b068fc378daa952ba7f163c4a11628f55a4df523b3ef",
            "0x000000000000000000000000a6b3d200cd34ca14d7579dac8b054bf50a62c37c",
            "0x000000000000000000000000374a7b5353f2e1e002af4dd02138183776037ea2"
          ],
          "data": "0x0000000000000000000000000000000000000000000000004563918244f40000",
          "blockHash": "0xc328e3b16a4f3dd721859ef41950078817e42483bf42836066d23ea64572b64a",
          "blockNumber": "0x1975d32",
          "blockTimestamp": "0x68421944",
          "transactionHash": "0x6078e6b93f35bd405f49b73c7eb67cf7c98062abb455de2c69a6362fd0e6c3a6",
          "transactionIndex": "0xd",
          "logIndex": "0x3d",
          "removed": false
        },
        {
          "address": "0x9b051dbf5bbfa94c9f18617a2d10ac9614d41d6c",
          "topics": [
            "0xddf252ad1be2c89b69c2b068fc378daa952ba7f163c4a11628f55a4df523b3ef",
            "0x00000000000000000000000026a5b76417f4b12131542cefd9083e70c9e647b1",
            "0x000000000000000000000000a6b3d200cd34ca14d7579dac8b054bf50a62c37c"
          ],
          "data": "0x00000000000000000000000000000000000000000000000000000002540be400",
          "blockHash": "0xc328e3b16a4f3dd721859ef41950078817e42483bf42836066d23ea64572b64a",
          "blockNumber": "0x1975d32",
          "blockTimestamp": "0x68421944",
          "transactionHash": "0x6078e6b93f35bd405f49b73c7eb67cf7c98062abb455de2c69a6362fd0e6c3a6",
          "transactionIndex": "0xd",
          "logIndex": "0x3e",
          "removed": false
        },
        {
          "address": "0x26a5b76417f4b12131542cefd9083e70c9e647b1",
          "topics": [
            "0x385feb58578c31f205b503905da1dec4c110dcdaac4a0dc43be298cae636307f",
            "0x0000000000000000000000009b051dbf5bbfa94c9f18617a2d10ac9614d41d6c"
          ],
          "data": "0x00000000000000000000000000000000000000000000000000000000000186a0",
          "blockHash": "0xc328e3b16a4f3dd721859ef41950078817e42483bf42836066d23ea64572b64a",
          "blockNumber": "0x1975d32",
          "blockTimestamp": "0x68421944",
          "transactionHash": "0x6078e6b93f35bd405f49b73c7eb67cf7c98062abb455de2c69a6362fd0e6c3a6",
          "transactionIndex": "0xd",
          "logIndex": "0x3f",
          "removed": false
        },
        {
          "address": "0x26a5b76417f4b12131542cefd9083e70c9e647b1",
          "topics": [
            "0xb088e70ab7e367eb8a026f0cf73edc838746f0f9761c510260ff489070d7b3c8",
            "0x0000000000000000000000009b051dbf5bbfa94c9f18617a2d10ac9614d41d6c",
            "0x000000000000000000000000a6b3d200cd34ca14d7579dac8b054bf50a62c37c"
          ],
          "data": "0x00000000000000000000000000000000000000000000000000000002540be400",
          "blockHash": "0xc328e3b16a4f3dd721859ef41950078817e42483bf42836066d23ea64572b64a",
          "blockNumber": "0x1975d32",
          "blockTimestamp": "0x68421944",
          "transactionHash": "0x6078e6b93f35bd405f49b73c7eb67cf7c98062abb455de2c69a6362fd0e6c3a6",
          "transactionIndex": "0xd",
          "logIndex": "0x40",
          "removed": false
        },
        {
          "address": "0x374a7b5353f2e1e002af4dd02138183776037ea2",
          "topics": [
            "0x3c173f34da0900ded1a250c99de3d58cb900ce2841d93b11d877afee8b077a48",
            "0x0000000000000000000000000000000000000000000000000000000000000001",
            "0x000000000000000000000000a6b3d200cd34ca14d7579dac8b054bf50a62c37c"
          ],
          "data": "0x00000000000000000000000021756f22e0945ed3fab38d05cf8e933845a606220000000000000000000000009b051dbf5bbfa94c9f18617a2d10ac9614d41d6c0000000000000000000000000000000000000000000000004563918244f4000000000000000000000000000000000000000000000000000000000002540be400",
          "blockHash": "0xc328e3b16a4f3dd721859ef41950078817e42483bf42836066d23ea64572b64a",
          "blockNumber": "0x1975d32",
          "blockTimestamp": "0x68421944",
          "transactionHash": "0x6078e6b93f35bd405f49b73c7eb67cf7c98062abb455de2c69a6362fd0e6c3a6",
          "transactionIndex": "0xd",
          "logIndex": "0x41",
          "removed": false
        }
      ],
      "logsBloom": "0x00020000000000000000000400000000010000000000000002000000080000000004000002000000000000000000000000000000000010000000040000040050000000000000000000000008000000000000000000040000000000020000000000800000000000000000000000800000000000000400000000000010000000000000008000000000000000000000000000000000000000020000000000000000000000000040000000000000000000000000008008102000000000000000000002000042000000001000000000001800000000400100000004000000000040000000000000000000000000000000000000800000000000000000000000000000",
      "type": "0x2",
      "transactionHash": "0x6078e6b93f35bd405f49b73c7eb67cf7c98062abb455de2c69a6362fd0e6c3a6",
      "transactionIndex": "0xd",
      "blockHash": "0xc328e3b16a4f3dd721859ef41950078817e42483bf42836066d23ea64572b64a",
      "blockNumber": "0x1975d32",
      "gasUsed": "0x685f4",
      "effectiveGasPrice": "0x221",
      "from": "0xa6b3d200cd34ca14d7579dac8b054bf50a62c37c",
      "to": "0x374a7b5353f2e1e002af4dd02138183776037ea2",
      "contractAddress": null,
      "l1BaseFeeScalar": "0x44d",
      "l1BlobBaseFee": "0x23",
      "l1BlobBaseFeeScalar": "0xa118b",
      "l1Fee": "0xca1",
      "l1GasPrice": "0xa",
      "l1GasUsed": "0x8ae"
    }
  ],
  "libraries": [],
  "pending": [],
  "returns": {},
  "timestamp": 1749162307,
  "chain": 84532,
  "commit": "ecf4992"
}