{
  "transactions": [
    {
      "hash": "0xcaaa42fb3c5da4e07bd79107e7aa5c4051d18b05a96e507e8e0803285a12198b",
      "transactionType": "CALL",
      "contractName": "MockETH",
      "contractAddress": "0x7c79c4ebd92837e95fd8b2c25975ce544eb17d82",
      "function": "approve(address,uint256)",
      "arguments": [
        "0x787d48ba90a5Badb0A4ACaaD721FD63a3a5561DE",
        "5000000000000000000"
      ],
      "transaction": {
        "from": "0xa6b3d200cd34ca14d7579dac8b054bf50a62c37c",
        "to": "0x7c79c4ebd92837e95fd8b2c25975ce544eb17d82",
        "gas": "0xf7f5",
        "value": "0x0",
        "input": "0x095ea7b3000000000000000000000000787d48ba90a5badb0a4acaad721fd63a3a5561de0000000000000000000000000000000000000000000000004563918244f40000",
        "nonce": "0x766",
        "chainId": "0x14a34"
      },
      "additionalContracts": [],
      "isFixedGasLimit": false
    },
    {
      "hash": "0x597f941ee5f406324a2e28ffa3e52c53a23e7a8c8cc470470ce7b4bfdc4e47d9",
      "transactionType": "CALL",
      "contractName": "GenericLoanManager",
      "contractAddress": "0x787d48ba90a5badb0a4acaad721fd63a3a5561de",
      "function": "createLoan((address,address,uint256,uint256,uint256,uint256,uint256))",
      "arguments": [
        "(0x7c79c4ebD92837E95fd8B2c25975CE544Eb17D82, 0x6bf9aDaCefe6a159710094eA5334786E35EE73f9, 5000000000000000000, 2000000000, 700000, 80000, 0)"
      ],
      "transaction": {
        "from": "0xa6b3d200cd34ca14d7579dac8b054bf50a62c37c",
        "to": "0x787d48ba90a5badb0a4acaad721fd63a3a5561de",
        "gas": "0x91198",
        "value": "0x0",
        "input": "0xe37ccfec0000000000000000000000007c79c4ebd92837e95fd8b2c25975ce544eb17d820000000000000000000000006bf9adacefe6a159710094ea5334786e35ee73f90000000000000000000000000000000000000000000000004563918244f40000000000000000000000000000000000000000000000000000000000007735940000000000000000000000000000000000000000000000000000000000000aae6000000000000000000000000000000000000000000000000000000000000138800000000000000000000000000000000000000000000000000000000000000000",
        "nonce": "0x767",
        "chainId": "0x14a34"
      },
      "additionalContracts": [],
      "isFixedGasLimit": false
    },
    {
      "hash": "0xaec0b0bc7c7b89d7906a6e320d52bd8df4b665a9e0908a1aadcabc3854a2f971",
      "transactionType": "CALL",
      "contractName": null,
      "contractAddress": "0x6bf9adacefe6a159710094ea5334786e35ee73f9",
      "function": "approve(address,uint256)",
      "arguments": [
        "0x63500615EE23a540257F7D32a2a762B461662369",
        "10000000000"
      ],
      "transaction": {
        "from": "0xa6b3d200cd34ca14d7579dac8b054bf50a62c37c",
        "to": "0x6bf9adacefe6a159710094ea5334786e35ee73f9",
        "gas": "0xf7d3",
        "value": "0x0",
        "input": "0x095ea7b300000000000000000000000063500615ee23a540257f7d32a2a762b46166236900000000000000000000000000000000000000000000000000000002540be400",
        "nonce": "0x768",
        "chainId": "0x14a34"
      },
      "additionalContracts": [],
      "isFixedGasLimit": false
    },
    {
      "hash": "0xe5aeb6636fd15ba31bd2da536d56d6d534e76af4553e2d48e770d28c860fb254",
      "transactionType": "CALL",
      "contractName": null,
      "contractAddress": "0x63500615ee23a540257f7d32a2a762b461662369",
      "function": "createLoan((address,address,uint256,uint256,uint256,uint256,uint256))",
      "arguments": [
        "(0x6bf9aDaCefe6a159710094eA5334786E35EE73f9, 0x7c79c4ebD92837E95fd8B2c25975CE544Eb17D82, 10000000000, 1000000000000000000, 500000, 75000, 0)"
      ],
      "transaction": {
        "from": "0xa6b3d200cd34ca14d7579dac8b054bf50a62c37c",
        "to": "0x63500615ee23a540257f7d32a2a762b461662369",
        "gas": "0x94f33",
        "value": "0x0",
        "input": "0xe37ccfec0000000000000000000000006bf9adacefe6a159710094ea5334786e35ee73f90000000000000000000000007c79c4ebd92837e95fd8b2c25975ce544eb17d8200000000000000000000000000000000000000000000000000000002540be4000000000000000000000000000000000000000000000000000de0b6b3a7640000000000000000000000000000000000000000000000000000000000000007a12000000000000000000000000000000000000000000000000000000000000124f80000000000000000000000000000000000000000000000000000000000000000",
        "nonce": "0x769",
        "chainId": "0x14a34"
      },
      "additionalContracts": [],
      "isFixedGasLimit": false
    },
    {
      "hash": "0x22bcab154e2c8f890d5f247e8c4698f36e2ab2044d545370722e6004e940452f",
      "transactionType": "CALL",
      "contractName": "MockETH",
      "contractAddress": "0x7c79c4ebd92837e95fd8b2c25975ce544eb17d82",
      "function": "approve(address,uint256)",
      "arguments": [
        "0x787d48ba90a5Badb0A4ACaaD721FD63a3a5561DE",
        "1000000000000000000"
      ],
      "transaction": {
        "from": "0xa6b3d200cd34ca14d7579dac8b054bf50a62c37c",
        "to": "0x7c79c4ebd92837e95fd8b2c25975ce544eb17d82",
        "gas": "0xf7f5",
        "value": "0x0",
        "input": "0x095ea7b3000000000000000000000000787d48ba90a5badb0a4acaad721fd63a3a5561de0000000000000000000000000000000000000000000000000de0b6b3a7640000",
        "nonce": "0x76a",
        "chainId": "0x14a34"
      },
      "additionalContracts": [],
      "isFixedGasLimit": false
    },
    {
      "hash": "0xa378731fa7f4e6aee557ec126c2f1b9c7439b36d7d0e4b7138c671b82d874112",
      "transactionType": "CALL",
      "contractName": "GenericLoanManager",
      "contractAddress": "0x787d48ba90a5badb0a4acaad721fd63a3a5561de",
      "function": "addCollateral(uint256,uint256)",
      "arguments": [
        "1",
        "1000000000000000000"
      ],
      "transaction": {
        "from": "0xa6b3d200cd34ca14d7579dac8b054bf50a62c37c",
        "to": "0x787d48ba90a5badb0a4acaad721fd63a3a5561de",
        "gas": "0x11657",
        "value": "0x0",
        "input": "0xa8f35adf00000000000000000000000000000000000000000000000000000000000000010000000000000000000000000000000000000000000000000de0b6b3a7640000",
        "nonce": "0x76b",
        "chainId": "0x14a34"
      },
      "additionalContracts": [],
      "isFixedGasLimit": false
    },
    {
      "hash": "0xfbb292310b50740d1d6e63bb4972ac1aace2c2b8ffd9043b44cf261e91125576",
      "transactionType": "CALL",
      "contractName": "GenericLoanManager",
      "contractAddress": "0x787d48ba90a5badb0a4acaad721fd63a3a5561de",
      "function": "withdrawCollateral(uint256,uint256)",
      "arguments": [
        "1",
        "500000000000000000"
      ],
      "transaction": {
        "from": "0xa6b3d200cd34ca14d7579dac8b054bf50a62c37c",
        "to": "0x787d48ba90a5badb0a4acaad721fd63a3a5561de",
        "gas": "0x20fc8",
        "value": "0x0",
        "input": "0x767a7b05000000000000000000000000000000000000000000000000000000000000000100000000000000000000000000000000000000000000000006f05b59d3b20000",
        "nonce": "0x76c",
        "chainId": "0x14a34"
      },
      "additionalContracts": [],
      "isFixedGasLimit": false
    }
  ],
  "receipts": [
    {
      "status": "0x1",
      "cumulativeGasUsed": "0x150659",
      "logs": [
        {
          "address": "0x7c79c4ebd92837e95fd8b2c25975ce544eb17d82",
          "topics": [
            "0x8c5be1e5ebec7d5bd14f71427d1e84f3dd0314c0f7b2291e5b200ac8c7c3b925",
            "0x000000000000000000000000a6b3d200cd34ca14d7579dac8b054bf50a62c37c",
            "0x000000000000000000000000787d48ba90a5badb0a4acaad721fd63a3a5561de"
          ],
          "data": "0x0000000000000000000000000000000000000000000000004563918244f40000",
          "blockHash": "0x930ebc34dfe7a32c9b3e02190ee25985f2e0184a82cbb12e461ef3f9b2ad5466",
          "blockNumber": "0x1977ccc",
          "blockTimestamp": "0x68425878",
          "transactionHash": "0xcaaa42fb3c5da4e07bd79107e7aa5c4051d18b05a96e507e8e0803285a12198b",
          "transactionIndex": "0xd",
          "logIndex": "0xe",
          "removed": false
        }
      ],
      "logsBloom": "0x00000000000000000000000400010000000000000000000002000000000000000000000000000000000000000000000200000000000000000000000000200000000000000000000000000000000000000000000000000000000000000000000000000000000000000000000000000000000000000000000000000000000000000000000000000000000000000000000000000000000000000000020000000000020000000000000000000004000000000000000000000000000000000000100000000040000000000000000000000000000000000000000000000000000000000010000000000000000000000000000000000000000000000000040000000000",
      "type": "0x2",
      "transactionHash": "0xcaaa42fb3c5da4e07bd79107e7aa5c4051d18b05a96e507e8e0803285a12198b",
      "transactionIndex": "0xd",
      "blockHash": "0x930ebc34dfe7a32c9b3e02190ee25985f2e0184a82cbb12e461ef3f9b2ad5466",
      "blockNumber": "0x1977ccc",
      "gasUsed": "0xb385",
      "effectiveGasPrice": "0xc4b6",
      "from": "0xa6b3d200cd34ca14d7579dac8b054bf50a62c37c",
      "to": "0x7c79c4ebd92837e95fd8b2c25975ce544eb17d82",
      "contractAddress": null,
      "l1BaseFeeScalar": "0x44d",
      "l1BlobBaseFee": "0x8",
      "l1BlobBaseFeeScalar": "0xa118b",
      "l1Fee": "0x23d",
      "l1GasPrice": "0x1a",
      "l1GasUsed": "0x640"
    },
    {
      "status": "0x1",
      "cumulativeGasUsed": "0x1b9725",
      "logs": [
        {
          "address": "0x7c79c4ebd92837e95fd8b2c25975ce544eb17d82",
          "topics": [
            "0xddf252ad1be2c89b69c2b068fc378daa952ba7f163c4a11628f55a4df523b3ef",
            "0x000000000000000000000000a6b3d200cd34ca14d7579dac8b054bf50a62c37c",
            "0x000000000000000000000000787d48ba90a5badb0a4acaad721fd63a3a5561de"
          ],
          "data": "0x0000000000000000000000000000000000000000000000004563918244f40000",
          "blockHash": "0x930ebc34dfe7a32c9b3e02190ee25985f2e0184a82cbb12e461ef3f9b2ad5466",
          "blockNumber": "0x1977ccc",
          "blockTimestamp": "0x68425878",
          "transactionHash": "0x597f941ee5f406324a2e28ffa3e52c53a23e7a8c8cc470470ce7b4bfdc4e47d9",
          "transactionIndex": "0xe",
          "logIndex": "0xf",
          "removed": false
        },
        {
          "address": "0x6bf9adacefe6a159710094ea5334786e35ee73f9",
          "topics": [
            "0xddf252ad1be2c89b69c2b068fc378daa952ba7f163c4a11628f55a4df523b3ef",
            "0x00000000000000000000000041e0bb71a57ecf69d19857f54e9c10f89c94b191",
            "0x000000000000000000000000a6b3d200cd34ca14d7579dac8b054bf50a62c37c"
          ],
          "data": "0x0000000000000000000000000000000000000000000000000000000077359400",
          "blockHash": "0x930ebc34dfe7a32c9b3e02190ee25985f2e0184a82cbb12e461ef3f9b2ad5466",
          "blockNumber": "0x1977ccc",
          "blockTimestamp": "0x68425878",
          "transactionHash": "0x597f941ee5f406324a2e28ffa3e52c53a23e7a8c8cc470470ce7b4bfdc4e47d9",
          "transactionIndex": "0xe",
          "logIndex": "0x10",
          "removed": false
        },
        {
          "address": "0x41e0bb71a57ecf69d19857f54e9c10f89c94b191",
          "topics": [
            "0x385feb58578c31f205b503905da1dec4c110dcdaac4a0dc43be298cae636307f",
            "0x0000000000000000000000006bf9adacefe6a159710094ea5334786e35ee73f9"
          ],
          "data": "0x0000000000000000000000000000000000000000000000000000000000001f40",
          "blockHash": "0x930ebc34dfe7a32c9b3e02190ee25985f2e0184a82cbb12e461ef3f9b2ad5466",
          "blockNumber": "0x1977ccc",
          "blockTimestamp": "0x68425878",
          "transactionHash": "0x597f941ee5f406324a2e28ffa3e52c53a23e7a8c8cc470470ce7b4bfdc4e47d9",
          "transactionIndex": "0xe",
          "logIndex": "0x11",
          "removed": false
        },
        {
          "address": "0x41e0bb71a57ecf69d19857f54e9c10f89c94b191",
          "topics": [
            "0xb088e70ab7e367eb8a026f0cf73edc838746f0f9761c510260ff489070d7b3c8",
            "0x0000000000000000000000006bf9adacefe6a159710094ea5334786e35ee73f9",
            "0x000000000000000000000000a6b3d200cd34ca14d7579dac8b054bf50a62c37c"
          ],
          "data": "0x0000000000000000000000000000000000000000000000000000000077359400",
          "blockHash": "0x930ebc34dfe7a32c9b3e02190ee25985f2e0184a82cbb12e461ef3f9b2ad5466",
          "blockNumber": "0x1977ccc",
          "blockTimestamp": "0x68425878",
          "transactionHash": "0x597f941ee5f406324a2e28ffa3e52c53a23e7a8c8cc470470ce7b4bfdc4e47d9",
          "transactionIndex": "0xe",
          "logIndex": "0x12",
          "removed": false
        },
        {
          "address": "0x787d48ba90a5badb0a4acaad721fd63a3a5561de",
          "topics": [
            "0x3c173f34da0900ded1a250c99de3d58cb900ce2841d93b11d877afee8b077a48",
            "0x0000000000000000000000000000000000000000000000000000000000000001",
            "0x000000000000000000000000a6b3d200cd34ca14d7579dac8b054bf50a62c37c"
          ],
          "data": "0x0000000000000000000000007c79c4ebd92837e95fd8b2c25975ce544eb17d820000000000000000000000006bf9adacefe6a159710094ea5334786e35ee73f90000000000000000000000000000000000000000000000004563918244f400000000000000000000000000000000000000000000000000000000000077359400",
          "blockHash": "0x930ebc34dfe7a32c9b3e02190ee25985f2e0184a82cbb12e461ef3f9b2ad5466",
          "blockNumber": "0x1977ccc",
          "blockTimestamp": "0x68425878",
          "transactionHash": "0x597f941ee5f406324a2e28ffa3e52c53a23e7a8c8cc470470ce7b4bfdc4e47d9",
          "transactionIndex": "0xe",
          "logIndex": "0x13",
          "removed": false
        }
      ],
      "logsBloom": "0x00000000000000000000000400010000010000000000000002000000000000000000000002000000810000000000000200000000000010100000000000040000000000000000000000000008000000000000000030040000000000000000080000000000000000000000000000000000000000000400000000000010000000000000008000000000000000000000000000000000100000008100020000000000000000000040000000000004000000000000000800000000000000000000100000000042000001000000000000001000000000400000120004000000000040000000000000000000000000000000000000a00000000000000000040000000000",
      "type": "0x2",
      "transactionHash": "0x597f941ee5f406324a2e28ffa3e52c53a23e7a8c8cc470470ce7b4bfdc4e47d9",
      "transactionIndex": "0xe",
      "blockHash": "0x930ebc34dfe7a32c9b3e02190ee25985f2e0184a82cbb12e461ef3f9b2ad5466",
      "blockNumber": "0x1977ccc",
      "gasUsed": "0x690cc",
      "effectiveGasPrice": "0xc4b6",
      "from": "0xa6b3d200cd34ca14d7579dac8b054bf50a62c37c",
      "to": "0x787d48ba90a5badb0a4acaad721fd63a3a5561de",
      "contractAddress": null,
      "l1BaseFeeScalar": "0x44d",
      "l1BlobBaseFee": "0x8",
      "l1BlobBaseFeeScalar": "0xa118b",
      "l1Fee": "0x321",
      "l1GasPrice": "0x1a",
      "l1GasUsed": "0x8bc"
    },
    {
      "status": "0x1",
      "cumulativeGasUsed": "0x1c4a92",
      "logs": [
        {
          "address": "0x6bf9adacefe6a159710094ea5334786e35ee73f9",
          "topics": [
            "0x8c5be1e5ebec7d5bd14f71427d1e84f3dd0314c0f7b2291e5b200ac8c7c3b925",
            "0x000000000000000000000000a6b3d200cd34ca14d7579dac8b054bf50a62c37c",
            "0x00000000000000000000000063500615ee23a540257f7d32a2a762b461662369"
          ],
          "data": "0x00000000000000000000000000000000000000000000000000000002540be400",
          "blockHash": "0x930ebc34dfe7a32c9b3e02190ee25985f2e0184a82cbb12e461ef3f9b2ad5466",
          "blockNumber": "0x1977ccc",
          "blockTimestamp": "0x68425878",
          "transactionHash": "0xaec0b0bc7c7b89d7906a6e320d52bd8df4b665a9e0908a1aadcabc3854a2f971",
          "transactionIndex": "0xf",
          "logIndex": "0x14",
          "removed": false
        }
      ],
      "logsBloom": "0x00000000000000000000002400000000000000000000000002000000000000000000000000000000010000000000000000000000000000000000000000200000000000000000000000000000000000000000000020000000000000000000000000000000000000000000000000000000000000000000000000000000000000000000000000000000000000000000000000000000000000000000000000000000020000000000000000000000000000000000000004000000000000000000000000000040000000000000000000000000000000000000100000000000000000000010000000000000000000000000000000000000000000040000000000000000",
      "type": "0x2",
      "transactionHash": "0xaec0b0bc7c7b89d7906a6e320d52bd8df4b665a9e0908a1aadcabc3854a2f971",
      "transactionIndex": "0xf",
      "blockHash": "0x930ebc34dfe7a32c9b3e02190ee25985f2e0184a82cbb12e461ef3f9b2ad5466",
      "blockNumber": "0x1977ccc",
      "gasUsed": "0xb36d",
      "effectiveGasPrice": "0xc4b6",
      "from": "0xa6b3d200cd34ca14d7579dac8b054bf50a62c37c",
      "to": "0x6bf9adacefe6a159710094ea5334786e35ee73f9",
      "contractAddress": null,
      "l1BaseFeeScalar": "0x44d",
      "l1BlobBaseFee": "0x8",
      "l1BlobBaseFeeScalar": "0xa118b",
      "l1Fee": "0x23d",
      "l1GasPrice": "0x1a",
      "l1GasUsed": "0x640"
    },
    {
      "status": "0x1",
      "cumulativeGasUsed": "0x22a81c",
      "logs": [
        {
          "address": "0x6bf9adacefe6a159710094ea5334786e35ee73f9",
          "topics": [
            "0xddf252ad1be2c89b69c2b068fc378daa952ba7f163c4a11628f55a4df523b3ef",
            "0x000000000000000000000000a6b3d200cd34ca14d7579dac8b054bf50a62c37c",
            "0x00000000000000000000000063500615ee23a540257f7d32a2a762b461662369"
          ],
          "data": "0x00000000000000000000000000000000000000000000000000000002540be400",
          "blockHash": "0x930ebc34dfe7a32c9b3e02190ee25985f2e0184a82cbb12e461ef3f9b2ad5466",
          "blockNumber": "0x1977ccc",
          "blockTimestamp": "0x68425878",
          "transactionHash": "0xe5aeb6636fd15ba31bd2da536d56d6d534e76af4553e2d48e770d28c860fb254",
          "transactionIndex": "0x10",
          "logIndex": "0x15",
          "removed": false
        },
        {
          "address": "0x7c79c4ebd92837e95fd8b2c25975ce544eb17d82",
          "topics": [
            "0xddf252ad1be2c89b69c2b068fc378daa952ba7f163c4a11628f55a4df523b3ef",
            "0x00000000000000000000000041e0bb71a57ecf69d19857f54e9c10f89c94b191",
            "0x000000000000000000000000a6b3d200cd34ca14d7579dac8b054bf50a62c37c"
          ],
          "data": "0x0000000000000000000000000000000000000000000000000de0b6b3a7640000",
          "blockHash": "0x930ebc34dfe7a32c9b3e02190ee25985f2e0184a82cbb12e461ef3f9b2ad5466",
          "blockNumber": "0x1977ccc",
          "blockTimestamp": "0x68425878",
          "transactionHash": "0xe5aeb6636fd15ba31bd2da536d56d6d534e76af4553e2d48e770d28c860fb254",
          "transactionIndex": "0x10",
          "logIndex": "0x16",
          "removed": false
        },
        {
          "address": "0x41e0bb71a57ecf69d19857f54e9c10f89c94b191",
          "topics": [
            "0x385feb58578c31f205b503905da1dec4c110dcdaac4a0dc43be298cae636307f",
            "0x0000000000000000000000007c79c4ebd92837e95fd8b2c25975ce544eb17d82"
          ],
          "data": "0x0000000000000000000000000000000000000000000000000000000000002710",
          "blockHash": "0x930ebc34dfe7a32c9b3e02190ee25985f2e0184a82cbb12e461ef3f9b2ad5466",
          "blockNumber": "0x1977ccc",
          "blockTimestamp": "0x68425878",
          "transactionHash": "0xe5aeb6636fd15ba31bd2da536d56d6d534e76af4553e2d48e770d28c860fb254",
          "transactionIndex": "0x10",
          "logIndex": "0x17",
          "removed": false
        },
        {
          "address": "0x41e0bb71a57ecf69d19857f54e9c10f89c94b191",
          "topics": [
            "0xb088e70ab7e367eb8a026f0cf73edc838746f0f9761c510260ff489070d7b3c8",
            "0x0000000000000000000000007c79c4ebd92837e95fd8b2c25975ce544eb17d82",
            "0x000000000000000000000000a6b3d200cd34ca14d7579dac8b054bf50a62c37c"
          ],
          "data": "0x0000000000000000000000000000000000000000000000000de0b6b3a7640000",
          "blockHash": "0x930ebc34dfe7a32c9b3e02190ee25985f2e0184a82cbb12e461ef3f9b2ad5466",
          "blockNumber": "0x1977ccc",
          "blockTimestamp": "0x68425878",
          "transactionHash": "0xe5aeb6636fd15ba31bd2da536d56d6d534e76af4553e2d48e770d28c860fb254",
          "transactionIndex": "0x10",
          "logIndex": "0x18",
          "removed": false
        },
        {
          "address": "0x63500615ee23a540257f7d32a2a762b461662369",
          "topics": [
            "0x3c173f34da0900ded1a250c99de3d58cb900ce2841d93b11d877afee8b077a48",
            "0x0000000000000000000000000000000000000000000000000000000000000001",
            "0x000000000000000000000000a6b3d200cd34ca14d7579dac8b054bf50a62c37c"
          ],
          "data": "0x0000000000000000000000006bf9adacefe6a159710094ea5334786e35ee73f90000000000000000000000007c79c4ebd92837e95fd8b2c25975ce544eb17d8200000000000000000000000000000000000000000000000000000002540be4000000000000000000000000000000000000000000000000000de0b6b3a7640000",
          "blockHash": "0x930ebc34dfe7a32c9b3e02190ee25985f2e0184a82cbb12e461ef3f9b2ad5466",
          "blockNumber": "0x1977ccc",
          "blockTimestamp": "0x68425878",
          "transactionHash": "0xe5aeb6636fd15ba31bd2da536d56d6d534e76af4553e2d48e770d28c860fb254",
          "transactionIndex": "0x10",
          "logIndex": "0x19",
          "removed": false
        }
      ],
      "logsBloom": "0x00000000000000000000002400010000010000000000000002000000000000010000000002000000010000000000000000000000000010100000000010040000000000000000000000000008000000000000000020040000000000000000000000000000000000000000000000000000000000000400000000000010000000200000008000000000000080000000000000000000100000000100020000000000000000000040000000000004000000000000000004000000000000000000000000000042000001000002000000000000000000400000120004000000000040000000000000000000000000000000000000a00000000000040000000000000000",
      "type": "0x2",
      "transactionHash": "0xe5aeb6636fd15ba31bd2da536d56d6d534e76af4553e2d48e770d28c860fb254",
      "transactionIndex": "0x10",
      "blockHash": "0x930ebc34dfe7a32c9b3e02190ee25985f2e0184a82cbb12e461ef3f9b2ad5466",
      "blockNumber": "0x1977ccc",
      "gasUsed": "0x65d8a",
      "effectiveGasPrice": "0xc4b6",
      "from": "0xa6b3d200cd34ca14d7579dac8b054bf50a62c37c",
      "to": "0x63500615ee23a540257f7d32a2a762b461662369",
      "contractAddress": null,
      "l1BaseFeeScalar": "0x44d",
      "l1BlobBaseFee": "0x8",
      "l1BlobBaseFeeScalar": "0xa118b",
      "l1Fee": "0x313",
      "l1GasPrice": "0x1a",
      "l1GasUsed": "0x894"
    },
    {
      "status": "0x1",
      "cumulativeGasUsed": "0x235ba1",
      "logs": [
        {
          "address": "0x7c79c4ebd92837e95fd8b2c25975ce544eb17d82",
          "topics": [
            "0x8c5be1e5ebec7d5bd14f71427d1e84f3dd0314c0f7b2291e5b200ac8c7c3b925",
            "0x000000000000000000000000a6b3d200cd34ca14d7579dac8b054bf50a62c37c",
            "0x000000000000000000000000787d48ba90a5badb0a4acaad721fd63a3a5561de"
          ],
          "data": "0x0000000000000000000000000000000000000000000000000de0b6b3a7640000",
          "blockHash": "0x930ebc34dfe7a32c9b3e02190ee25985f2e0184a82cbb12e461ef3f9b2ad5466",
          "blockNumber": "0x1977ccc",
          "blockTimestamp": "0x68425878",
          "transactionHash": "0x22bcab154e2c8f890d5f247e8c4698f36e2ab2044d545370722e6004e940452f",
          "transactionIndex": "0x11",
          "logIndex": "0x1a",
          "removed": false
        }
      ],
      "logsBloom": "0x00000000000000000000000400010000000000000000000002000000000000000000000000000000000000000000000200000000000000000000000000200000000000000000000000000000000000000000000000000000000000000000000000000000000000000000000000000000000000000000000000000000000000000000000000000000000000000000000000000000000000000000020000000000020000000000000000000004000000000000000000000000000000000000100000000040000000000000000000000000000000000000000000000000000000000010000000000000000000000000000000000000000000000000040000000000",
      "type": "0x2",
      "transactionHash": "0x22bcab154e2c8f890d5f247e8c4698f36e2ab2044d545370722e6004e940452f",
      "transactionIndex": "0x11",
      "blockHash": "0x930ebc34dfe7a32c9b3e02190ee25985f2e0184a82cbb12e461ef3f9b2ad5466",
      "blockNumber": "0x1977ccc",
      "gasUsed": "0xb385",
      "effectiveGasPrice": "0xc4b6",
      "from": "0xa6b3d200cd34ca14d7579dac8b054bf50a62c37c",
      "to": "0x7c79c4ebd92837e95fd8b2c25975ce544eb17d82",
      "contractAddress": null,
      "l1BaseFeeScalar": "0x44d",
      "l1BlobBaseFee": "0x8",
      "l1BlobBaseFeeScalar": "0xa118b",
      "l1Fee": "0x23d",
      "l1GasPrice": "0x1a",
      "l1GasUsed": "0x640"
    },
    {
      "status": "0x1",
      "cumulativeGasUsed": "0x242525",
      "logs": [
        {
          "address": "0x7c79c4ebd92837e95fd8b2c25975ce544eb17d82",
          "topics": [
            "0xddf252ad1be2c89b69c2b068fc378daa952ba7f163c4a11628f55a4df523b3ef",
            "0x000000000000000000000000a6b3d200cd34ca14d7579dac8b054bf50a62c37c",
            "0x000000000000000000000000787d48ba90a5badb0a4acaad721fd63a3a5561de"
          ],
          "data": "0x0000000000000000000000000000000000000000000000000de0b6b3a7640000",
          "blockHash": "0x930ebc34dfe7a32c9b3e02190ee25985f2e0184a82cbb12e461ef3f9b2ad5466",
          "blockNumber": "0x1977ccc",
          "blockTimestamp": "0x68425878",
          "transactionHash": "0xa378731fa7f4e6aee557ec126c2f1b9c7439b36d7d0e4b7138c671b82d874112",
          "transactionIndex": "0x12",
          "logIndex": "0x1b",
          "removed": false
        },
        {
          "address": "0x787d48ba90a5badb0a4acaad721fd63a3a5561de",
          "topics": [
            "0x244160b15e69cc411f041d94ae7fab6f6bba85dade8403216c05ff4b920d5449",
            "0x0000000000000000000000000000000000000000000000000000000000000001"
          ],
          "data": "0x0000000000000000000000000000000000000000000000000de0b6b3a7640000",
          "blockHash": "0x930ebc34dfe7a32c9b3e02190ee25985f2e0184a82cbb12e461ef3f9b2ad5466",
          "blockNumber": "0x1977ccc",
          "blockTimestamp": "0x68425878",
          "transactionHash": "0xa378731fa7f4e6aee557ec126c2f1b9c7439b36d7d0e4b7138c671b82d874112",
          "transactionIndex": "0x12",
          "logIndex": "0x1c",
          "removed": false
        }
      ],
      "logsBloom": "0x00000000000000000000000400010000000000000000000002000000000000000000000000000000800000000000000200000000000200000000000000040000000000000000000000000008000000000000000000040000000000000000000000000000000000000000000000000000000000000000000000000010000000000000000000000000000000000000000000000000000000008000020000000000000000000000000000000004000000000000000000000000000000000000100000000042000000000000000000001010000000000000000000000000000040000000000000000080000000000000000000000000000000000000040000000000",
      "type": "0x2",
      "transactionHash": "0xa378731fa7f4e6aee557ec126c2f1b9c7439b36d7d0e4b7138c671b82d874112",
      "transactionIndex": "0x12",
      "blockHash": "0x930ebc34dfe7a32c9b3e02190ee25985f2e0184a82cbb12e461ef3f9b2ad5466",
      "blockNumber": "0x1977ccc",
      "gasUsed": "0xc984",
      "effectiveGasPrice": "0xc4b6",
      "from": "0xa6b3d200cd34ca14d7579dac8b054bf50a62c37c",
      "to": "0x787d48ba90a5badb0a4acaad721fd63a3a5561de",
      "contractAddress": null,
      "l1BaseFeeScalar": "0x44d",
      "l1BlobBaseFee": "0x8",
      "l1BlobBaseFeeScalar": "0xa118b",
      "l1Fee": "0x23d",
      "l1GasPrice": "0x1a",
      "l1GasUsed": "0x640"
    },
    {
      "status": "0x1",
      "cumulativeGasUsed": "0x2dbd8e",
      "logs": [
        {
          "address": "0x7c79c4ebd92837e95fd8b2c25975ce544eb17d82",
          "topics": [
            "0xddf252ad1be2c89b69c2b068fc378daa952ba7f163c4a11628f55a4df523b3ef",
            "0x000000000000000000000000787d48ba90a5badb0a4acaad721fd63a3a5561de",
            "0x000000000000000000000000a6b3d200cd34ca14d7579dac8b054bf50a62c37c"
          ],
          "data": "0x00000000000000000000000000000000000000000000000006f05b59d3b20000",
          "blockHash": "0x5599ee7f7a0075eae294c19ade2599f43176d5dc97f9cb11c69b176dc80639b6",
          "blockNumber": "0x1977ccc",
          "transactionHash": "0xfbb292310b50740d1d6e63bb4972ac1aace2c2b8ffd9043b44cf261e91125576",
          "transactionIndex": "0x17",
          "logIndex": "0x2c",
          "removed": false
        },
        {
          "address": "0x787d48ba90a5badb0a4acaad721fd63a3a5561de",
          "topics": [
            "0x2399e8aed1977410745a5211d8226a3a7d9278f50a8a197c5ec6e285bb437f0b",
            "0x0000000000000000000000000000000000000000000000000000000000000001"
          ],
          "data": "0x00000000000000000000000000000000000000000000000006f05b59d3b20000",
          "blockHash": "0x5599ee7f7a0075eae294c19ade2599f43176d5dc97f9cb11c69b176dc80639b6",
          "blockNumber": "0x1977ccc",
          "transactionHash": "0xfbb292310b50740d1d6e63bb4972ac1aace2c2b8ffd9043b44cf261e91125576",
          "transactionIndex": "0x17",
          "logIndex": "0x2d",
          "removed": false
        }
      ],
      "logsBloom": "0x00000000000000000000000400010000000000000000000002000000000000000000000000000000800000000000000200000000000000000000000000040000000000000000000000000008000000000000000000040000000000000000000000000000000000000000000000000000000000000020000000000010000000000000000000000000000000000000000000000000000060008000020000000000000000000000000000000004000000000000000000000000000000000000100000000042000000000000000000001000000000000000000000000000000040000000000000000000000000000000000000000000000000000000040000000000",
      "type": "0x2",
      "transactionHash": "0xfbb292310b50740d1d6e63bb4972ac1aace2c2b8ffd9043b44cf261e91125576",
      "transactionIndex": "0x17",
      "blockHash": "0x5599ee7f7a0075eae294c19ade2599f43176d5dc97f9cb11c69b176dc80639b6",
      "blockNumber": "0x1977ccc",
      "gasUsed": "0x168e1",
      "effectiveGasPrice": "0xc470",
      "from": "0xa6b3d200cd34ca14d7579dac8b054bf50a62c37c",
      "to": "0x787d48ba90a5badb0a4acaad721fd63a3a5561de",
      "contractAddress": null,
      "l1BaseFeeScalar": "0x44d",
      "l1BlobBaseFee": "0x8",
      "l1BlobBaseFeeScalar": "0xa118b",
      "l1Fee": "0x23d",
      "l1GasPrice": "0x1a",
      "l1GasUsed": "0x640"
    }
  ],
  "libraries": [],
  "pending": [],
  "returns": {},
  "timestamp": 1749178489,
  "chain": 84532,
  "commit": "2f11b3c"
}