{
  "transactions": [
    {
      "hash": "0x8b40aca1b72fb1f11979bd8e84e11ea105960935c3ef832dabf1d578c6d13eca",
      "transactionType": "CALL",
      "contractName": "MockETH",
      "contractAddress": "0x59340e7c71a0ea614d1bc7062932861ac411dd67",
      "function": "approve(address,uint256)",
      "arguments": [
        "0x9Df3Ee3aA7fA4Eb76E5Ea5c81D40ff1380b5fE47",
        "5000000000000000000"
      ],
      "transaction": {
        "from": "0xa6b3d200cd34ca14d7579dac8b054bf50a62c37c",
        "to": "0x59340e7c71a0ea614d1bc7062932861ac411dd67",
        "gas": "0xf7f5",
        "value": "0x0",
        "input": "0x095ea7b30000000000000000000000009df3ee3aa7fa4eb76e5ea5c81d40ff1380b5fe470000000000000000000000000000000000000000000000004563918244f40000",
        "nonce": "0x7fb",
        "chainId": "0x14a34"
      },
      "additionalContracts": [],
      "isFixedGasLimit": false
    },
    {
      "hash": "0xb93ab14d3fd2796b85d7a79e14002485ae6f63d72082560bb75b7bf9add0a38b",
      "transactionType": "CALL",
      "contractName": null,
      "contractAddress": "0x9df3ee3aa7fa4eb76e5ea5c81d40ff1380b5fe47",
      "function": "createLoan((address,address,uint256,uint256,uint256,uint256,uint256))",
      "arguments": [
        "(0x59340e7c71a0Ea614D1bC7062932861aC411dd67, 0x9DDf02F9bDAcdc308eBC83289807D6C60B3fbB4d, 5000000000000000000, 2000000000, 700000, 80000, 0)"
      ],
      "transaction": {
        "from": "0xa6b3d200cd34ca14d7579dac8b054bf50a62c37c",
        "to": "0x9df3ee3aa7fa4eb76e5ea5c81d40ff1380b5fe47",
        "gas": "0x91fa2",
        "value": "0x0",
        "input": "0xe37ccfec00000000000000000000000059340e7c71a0ea614d1bc7062932861ac411dd670000000000000000000000009ddf02f9bdacdc308ebc83289807d6c60b3fbb4d0000000000000000000000000000000000000000000000004563918244f40000000000000000000000000000000000000000000000000000000000007735940000000000000000000000000000000000000000000000000000000000000aae6000000000000000000000000000000000000000000000000000000000000138800000000000000000000000000000000000000000000000000000000000000000",
        "nonce": "0x7fc",
        "chainId": "0x14a34"
      },
      "additionalContracts": [],
      "isFixedGasLimit": false
    },
    {
      "hash": "0xc7d80054b3e7eb6944b01d7bf83bcf5ea48edd21e39c7bb84e938b8e74ddaeca",
      "transactionType": "CALL",
      "contractName": null,
      "contractAddress": "0x9ddf02f9bdacdc308ebc83289807d6c60b3fbb4d",
      "function": "approve(address,uint256)",
      "arguments": [
        "0x25A1fCb83929A6AdCAa3E356315cb6461525D9A3",
        "10000000000"
      ],
      "transaction": {
        "from": "0xa6b3d200cd34ca14d7579dac8b054bf50a62c37c",
        "to": "0x9ddf02f9bdacdc308ebc83289807d6c60b3fbb4d",
        "gas": "0xf7d3",
        "value": "0x0",
        "input": "0x095ea7b300000000000000000000000025a1fcb83929a6adcaa3e356315cb6461525d9a300000000000000000000000000000000000000000000000000000002540be400",
        "nonce": "0x7fd",
        "chainId": "0x14a34"
      },
      "additionalContracts": [],
      "isFixedGasLimit": false
    },
    {
      "hash": "0x17995175fcefbcbb02ffe90c29fe39a6566cc614b416c71cb054ce0aa9872c53",
      "transactionType": "CALL",
      "contractName": null,
      "contractAddress": "0x25a1fcb83929a6adcaa3e356315cb6461525d9a3",
      "function": "createLoan((address,address,uint256,uint256,uint256,uint256,uint256))",
      "arguments": [
        "(0x9DDf02F9bDAcdc308eBC83289807D6C60B3fbB4d, 0x59340e7c71a0Ea614D1bC7062932861aC411dd67, 10000000000, 1000000000000000000, 500000, 75000, 0)"
      ],
      "transaction": {
        "from": "0xa6b3d200cd34ca14d7579dac8b054bf50a62c37c",
        "to": "0x25a1fcb83929a6adcaa3e356315cb6461525d9a3",
        "gas": "0x9525b",
        "value": "0x0",
        "input": "0xe37ccfec0000000000000000000000009ddf02f9bdacdc308ebc83289807d6c60b3fbb4d00000000000000000000000059340e7c71a0ea614d1bc7062932861ac411dd6700000000000000000000000000000000000000000000000000000002540be4000000000000000000000000000000000000000000000000000de0b6b3a7640000000000000000000000000000000000000000000000000000000000000007a12000000000000000000000000000000000000000000000000000000000000124f80000000000000000000000000000000000000000000000000000000000000000",
        "nonce": "0x7fe",
        "chainId": "0x14a34"
      },
      "additionalContracts": [],
      "isFixedGasLimit": false
    },
    {
      "hash": "0x2d3846315d59cd6ccabcbaba0362c07a3366625b88aecadf987b6e0f3cbc2c6d",
      "transactionType": "CALL",
      "contractName": "MockETH",
      "contractAddress": "0x59340e7c71a0ea614d1bc7062932861ac411dd67",
      "function": "approve(address,uint256)",
      "arguments": [
        "0x9Df3Ee3aA7fA4Eb76E5Ea5c81D40ff1380b5fE47",
        "1000000000000000000"
      ],
      "transaction": {
        "from": "0xa6b3d200cd34ca14d7579dac8b054bf50a62c37c",
        "to": "0x59340e7c71a0ea614d1bc7062932861ac411dd67",
        "gas": "0xf7f5",
        "value": "0x0",
        "input": "0x095ea7b30000000000000000000000009df3ee3aa7fa4eb76e5ea5c81d40ff1380b5fe470000000000000000000000000000000000000000000000000de0b6b3a7640000",
        "nonce": "0x7ff",
        "chainId": "0x14a34"
      },
      "additionalContracts": [],
      "isFixedGasLimit": false
    },
    {
      "hash": "0xbaf0fa81a3aaf92980c735cc0fa66cced634a4e3c9d189f1d02d5ffd260aeca9",
      "transactionType": "CALL",
      "contractName": null,
      "contractAddress": "0x9df3ee3aa7fa4eb76e5ea5c81d40ff1380b5fe47",
      "function": "addCollateral(uint256,uint256)",
      "arguments": [
        "1",
        "1000000000000000000"
      ],
      "transaction": {
        "from": "0xa6b3d200cd34ca14d7579dac8b054bf50a62c37c",
        "to": "0x9df3ee3aa7fa4eb76e5ea5c81d40ff1380b5fe47",
        "gas": "0x122a6",
        "value": "0x0",
        "input": "0xa8f35adf00000000000000000000000000000000000000000000000000000000000000010000000000000000000000000000000000000000000000000de0b6b3a7640000",
        "nonce": "0x800",
        "chainId": "0x14a34"
      },
      "additionalContracts": [],
      "isFixedGasLimit": false
    },
    {
      "hash": "0x92ec38c00bf534c84824bd5c8e015bcb6311842bb6b0488ea2feeb04559598e9",
      "transactionType": "CALL",
      "contractName": null,
      "contractAddress": "0x9df3ee3aa7fa4eb76e5ea5c81d40ff1380b5fe47",
      "function": "withdrawCollateral(uint256,uint256)",
      "arguments": [
        "1",
        "500000000000000000"
      ],
      "transaction": {
        "from": "0xa6b3d200cd34ca14d7579dac8b054bf50a62c37c",
        "to": "0x9df3ee3aa7fa4eb76e5ea5c81d40ff1380b5fe47",
        "gas": "0x21d38",
        "value": "0x0",
        "input": "0x767a7b05000000000000000000000000000000000000000000000000000000000000000100000000000000000000000000000000000000000000000006f05b59d3b20000",
        "nonce": "0x801",
        "chainId": "0x14a34"
      },
      "additionalContracts": [],
      "isFixedGasLimit": false
    }
  ],
  "receipts": [
    {
      "status": "0x1",
      "cumulativeGasUsed": "0x4c7777",
      "logs": [
        {
          "address": "0x59340e7c71a0ea614d1bc7062932861ac411dd67",
          "topics": [
            "0x8c5be1e5ebec7d5bd14f71427d1e84f3dd0314c0f7b2291e5b200ac8c7c3b925",
            "0x000000000000000000000000a6b3d200cd34ca14d7579dac8b054bf50a62c37c",
            "0x0000000000000000000000009df3ee3aa7fa4eb76e5ea5c81d40ff1380b5fe47"
          ],
          "data": "0x0000000000000000000000000000000000000000000000004563918244f40000",
          "blockHash": "0x62318eb247b353ed6700b156448a4f2cd7e736f90844920dba74cc55c45f5a25",
          "blockNumber": "0x19d3e2a",
          "transactionHash": "0x8b40aca1b72fb1f11979bd8e84e11ea105960935c3ef832dabf1d578c6d13eca",
          "transactionIndex": "0x15",
          "logIndex": "0xa1",
          "removed": false
        }
      ],
      "logsBloom": "0x00000000000000000000000400000000000000000000000002000000000000000000000000000000000000000000000000000000000000000000000000200000000000000000000000000000000000000000000000000000000000000000000000000000000000000000000000000000000000000000000000000000000000200000000000000000000000000000000000000000008000000000000000000000020000000000000000000000000000000000000000000000000000002000000000000040000000000000000000000000000000020000000800000000000000000010000000000000000000000000000000000000000000200000000000000000",
      "type": "0x2",
      "transactionHash": "0x8b40aca1b72fb1f11979bd8e84e11ea105960935c3ef832dabf1d578c6d13eca",
      "transactionIndex": "0x15",
      "blockHash": "0x62318eb247b353ed6700b156448a4f2cd7e736f90844920dba74cc55c45f5a25",
      "blockNumber": "0x19d3e2a",
      "gasUsed": "0xb385",
      "effectiveGasPrice": "0x2ea7",
      "from": "0xa6b3d200cd34ca14d7579dac8b054bf50a62c37c",
      "to": "0x59340e7c71a0ea614d1bc7062932861ac411dd67",
      "contractAddress": null,
      "l1BaseFeeScalar": "0x44d",
      "l1BlobBaseFee": "0x1",
      "l1BlobBaseFeeScalar": "0xa118b",
      "l1Fee": "0x2091db",
      "l1GasPrice": "0x127cf8",
      "l1GasUsed": "0x640"
    },
    {
      "status": "0x1",
      "cumulativeGasUsed": "0x53126c",
      "logs": [
        {
          "address": "0x59340e7c71a0ea614d1bc7062932861ac411dd67",
          "topics": [
            "0xddf252ad1be2c89b69c2b068fc378daa952ba7f163c4a11628f55a4df523b3ef",
            "0x000000000000000000000000a6b3d200cd34ca14d7579dac8b054bf50a62c37c",
            "0x0000000000000000000000009df3ee3aa7fa4eb76e5ea5c81d40ff1380b5fe47"
          ],
          "data": "0x0000000000000000000000000000000000000000000000004563918244f40000",
          "blockHash": "0x62318eb247b353ed6700b156448a4f2cd7e736f90844920dba74cc55c45f5a25",
          "blockNumber": "0x19d3e2a",
          "transactionHash": "0xb93ab14d3fd2796b85d7a79e14002485ae6f63d72082560bb75b7bf9add0a38b",
          "transactionIndex": "0x16",
          "logIndex": "0xa2",
          "removed": false
        },
        {
          "address": "0x9ddf02f9bdacdc308ebc83289807d6c60b3fbb4d",
          "topics": [
            "0xddf252ad1be2c89b69c2b068fc378daa952ba7f163c4a11628f55a4df523b3ef",
            "0x00000000000000000000000098b581050cdc681b2f585806ce1c53477ecc2305",
            "0x000000000000000000000000a6b3d200cd34ca14d7579dac8b054bf50a62c37c"
          ],
          "data": "0x0000000000000000000000000000000000000000000000000000000077359400",
          "blockHash": "0x62318eb247b353ed6700b156448a4f2cd7e736f90844920dba74cc55c45f5a25",
          "blockNumber": "0x19d3e2a",
          "transactionHash": "0xb93ab14d3fd2796b85d7a79e14002485ae6f63d72082560bb75b7bf9add0a38b",
          "transactionIndex": "0x16",
          "logIndex": "0xa3",
          "removed": false
        },
        {
          "address": "0x98b581050cdc681b2f585806ce1c53477ecc2305",
          "topics": [
            "0x385feb58578c31f205b503905da1dec4c110dcdaac4a0dc43be298cae636307f",
            "0x0000000000000000000000009ddf02f9bdacdc308ebc83289807d6c60b3fbb4d"
          ],
          "data": "0x0000000000000000000000000000000000000000000000000000000000001f40",
          "blockHash": "0x62318eb247b353ed6700b156448a4f2cd7e736f90844920dba74cc55c45f5a25",
          "blockNumber": "0x19d3e2a",
          "transactionHash": "0xb93ab14d3fd2796b85d7a79e14002485ae6f63d72082560bb75b7bf9add0a38b",
          "transactionIndex": "0x16",
          "logIndex": "0xa4",
          "removed": false
        },
        {
          "address": "0x98b581050cdc681b2f585806ce1c53477ecc2305",
          "topics": [
            "0xb088e70ab7e367eb8a026f0cf73edc838746f0f9761c510260ff489070d7b3c8",
            "0x0000000000000000000000009ddf02f9bdacdc308ebc83289807d6c60b3fbb4d",
            "0x000000000000000000000000a6b3d200cd34ca14d7579dac8b054bf50a62c37c"
          ],
          "data": "0x0000000000000000000000000000000000000000000000000000000077359400",
          "blockHash": "0x62318eb247b353ed6700b156448a4f2cd7e736f90844920dba74cc55c45f5a25",
          "blockNumber": "0x19d3e2a",
          "transactionHash": "0xb93ab14d3fd2796b85d7a79e14002485ae6f63d72082560bb75b7bf9add0a38b",
          "transactionIndex": "0x16",
          "logIndex": "0xa5",
          "removed": false
        },
        {
          "address": "0x9df3ee3aa7fa4eb76e5ea5c81d40ff1380b5fe47",
          "topics": [
            "0x3c173f34da0900ded1a250c99de3d58cb900ce2841d93b11d877afee8b077a48",
            "0x0000000000000000000000000000000000000000000000000000000000000001",
            "0x000000000000000000000000a6b3d200cd34ca14d7579dac8b054bf50a62c37c"
          ],
          "data": "0x00000000000000000000000059340e7c71a0ea614d1bc7062932861ac411dd670000000000000000000000009ddf02f9bdacdc308ebc83289807d6c60b3fbb4d0000000000000000000000000000000000000000000000004563918244f400000000000000000000000000000000000000000000000000000000000077359400",
          "blockHash": "0x62318eb247b353ed6700b156448a4f2cd7e736f90844920dba74cc55c45f5a25",
          "blockNumber": "0x19d3e2a",
          "transactionHash": "0xb93ab14d3fd2796b85d7a79e14002485ae6f63d72082560bb75b7bf9add0a38b",
          "transactionIndex": "0x16",
          "logIndex": "0xa6",
          "removed": false
        }
      ],
      "logsBloom": "0x00000000000000000000000400400000010000000080000002000000000000000000000006000020000000000000000000040000000110000000008000040000000000000000000000000008000000000000080000060000000000100000000000000000000000000000000000000000000000000400000000000010000000200000008000000000000000000000000000000000008000000020000000020000000000080040000100000000000000000000000000000000000000002000000000000042000000000000000000000000000000420000000804000000000040000080000000000000000000000000000000800000000000200000000000000000",
      "type": "0x2",
      "transactionHash": "0xb93ab14d3fd2796b85d7a79e14002485ae6f63d72082560bb75b7bf9add0a38b",
      "transactionIndex": "0x16",
      "blockHash": "0x62318eb247b353ed6700b156448a4f2cd7e736f90844920dba74cc55c45f5a25",
      "blockNumber": "0x19d3e2a",
      "gasUsed": "0x69af5",
      "effectiveGasPrice": "0x2ea7",
      "from": "0xa6b3d200cd34ca14d7579dac8b054bf50a62c37c",
      "to": "0x9df3ee3aa7fa4eb76e5ea5c81d40ff1380b5fe47",
      "contractAddress": null,
      "l1BaseFeeScalar": "0x44d",
      "l1BlobBaseFee": "0x1",
      "l1BlobBaseFeeScalar": "0xa118b",
      "l1Fee": "0x2d85ef",
      "l1GasPrice": "0x127cf8",
      "l1GasUsed": "0x8bc"
    },
    {
      "status": "0x1",
      "cumulativeGasUsed": "0x53c5d9",
      "logs": [
        {
          "address": "0x9ddf02f9bdacdc308ebc83289807d6c60b3fbb4d",
          "topics": [
            "0x8c5be1e5ebec7d5bd14f71427d1e84f3dd0314c0f7b2291e5b200ac8c7c3b925",
            "0x000000000000000000000000a6b3d200cd34ca14d7579dac8b054bf50a62c37c",
            "0x00000000000000000000000025a1fcb83929a6adcaa3e356315cb6461525d9a3"
          ],
          "data": "0x00000000000000000000000000000000000000000000000000000002540be400",
          "blockHash": "0x62318eb247b353ed6700b156448a4f2cd7e736f90844920dba74cc55c45f5a25",
          "blockNumber": "0x19d3e2a",
          "transactionHash": "0xc7d80054b3e7eb6944b01d7bf83bcf5ea48edd21e39c7bb84e938b8e74ddaeca",
          "transactionIndex": "0x17",
          "logIndex": "0xa7",
          "removed": false
        }
      ],
      "logsBloom": "0x00000000000000000000000400400000000000000000000002000000000000000000000000000000000000000000000000000000000000000000000000200000000000000000000000000000000000000000080000000000000000100000000000000000000000000000000000000000000000000000000000000000000000000000000000000000000000000000000000000000000000000000000000000000020000000000000000000080000000000000000000000000000000000000000000000040000000000000000000080000000000000000000000000000400000000010000000000000000000000000000000000000000000000000000000000000",
      "type": "0x2",
      "transactionHash": "0xc7d80054b3e7eb6944b01d7bf83bcf5ea48edd21e39c7bb84e938b8e74ddaeca",
      "transactionIndex": "0x17",
      "blockHash": "0x62318eb247b353ed6700b156448a4f2cd7e736f90844920dba74cc55c45f5a25",
      "blockNumber": "0x19d3e2a",
      "gasUsed": "0xb36d",
      "effectiveGasPrice": "0x2ea7",
      "from": "0xa6b3d200cd34ca14d7579dac8b054bf50a62c37c",
      "to": "0x9ddf02f9bdacdc308ebc83289807d6c60b3fbb4d",
      "contractAddress": null,
      "l1BaseFeeScalar": "0x44d",
      "l1BlobBaseFee": "0x1",
      "l1BlobBaseFeeScalar": "0xa118b",
      "l1Fee": "0x2091db",
      "l1GasPrice": "0x127cf8",
      "l1GasUsed": "0x640"
    },
    {
      "status": "0x1",
      "cumulativeGasUsed": "0x5a258c",
      "logs": [
        {
          "address": "0x9ddf02f9bdacdc308ebc83289807d6c60b3fbb4d",
          "topics": [
            "0xddf252ad1be2c89b69c2b068fc378daa952ba7f163c4a11628f55a4df523b3ef",
            "0x000000000000000000000000a6b3d200cd34ca14d7579dac8b054bf50a62c37c",
            "0x00000000000000000000000025a1fcb83929a6adcaa3e356315cb6461525d9a3"
          ],
          "data": "0x00000000000000000000000000000000000000000000000000000002540be400",
          "blockHash": "0x62318eb247b353ed6700b156448a4f2cd7e736f90844920dba74cc55c45f5a25",
          "blockNumber": "0x19d3e2a",
          "transactionHash": "0x17995175fcefbcbb02ffe90c29fe39a6566cc614b416c71cb054ce0aa9872c53",
          "transactionIndex": "0x18",
          "logIndex": "0xa8",
          "removed": false
        },
        {
          "address": "0x59340e7c71a0ea614d1bc7062932861ac411dd67",
          "topics": [
            "0xddf252ad1be2c89b69c2b068fc378daa952ba7f163c4a11628f55a4df523b3ef",
            "0x00000000000000000000000098b581050cdc681b2f585806ce1c53477ecc2305",
            "0x000000000000000000000000a6b3d200cd34ca14d7579dac8b054bf50a62c37c"
          ],
          "data": "0x0000000000000000000000000000000000000000000000000de0b6b3a7640000",
          "blockHash": "0x62318eb247b353ed6700b156448a4f2cd7e736f90844920dba74cc55c45f5a25",
          "blockNumber": "0x19d3e2a",
          "transactionHash": "0x17995175fcefbcbb02ffe90c29fe39a6566cc614b416c71cb054ce0aa9872c53",
          "transactionIndex": "0x18",
          "logIndex": "0xa9",
          "removed": false
        },
        {
          "address": "0x98b581050cdc681b2f585806ce1c53477ecc2305",
          "topics": [
            "0x385feb58578c31f205b503905da1dec4c110dcdaac4a0dc43be298cae636307f",
            "0x00000000000000000000000059340e7c71a0ea614d1bc7062932861ac411dd67"
          ],
          "data": "0x0000000000000000000000000000000000000000000000000000000000002710",
          "blockHash": "0x62318eb247b353ed6700b156448a4f2cd7e736f90844920dba74cc55c45f5a25",
          "blockNumber": "0x19d3e2a",
          "transactionHash": "0x17995175fcefbcbb02ffe90c29fe39a6566cc614b416c71cb054ce0aa9872c53",
          "transactionIndex": "0x18",
          "logIndex": "0xaa",
          "removed": false
        },
        {
          "address": "0x98b581050cdc681b2f585806ce1c53477ecc2305",
          "topics": [
            "0xb088e70ab7e367eb8a026f0cf73edc838746f0f9761c510260ff489070d7b3c8",
            "0x00000000000000000000000059340e7c71a0ea614d1bc7062932861ac411dd67",
            "0x000000000000000000000000a6b3d200cd34ca14d7579dac8b054bf50a62c37c"
          ],
          "data": "0x0000000000000000000000000000000000000000000000000de0b6b3a7640000",
          "blockHash": "0x62318eb247b353ed6700b156448a4f2cd7e736f90844920dba74cc55c45f5a25",
          "blockNumber": "0x19d3e2a",
          "transactionHash": "0x17995175fcefbcbb02ffe90c29fe39a6566cc614b416c71cb054ce0aa9872c53",
          "transactionIndex": "0x18",
          "logIndex": "0xab",
          "removed": false
        },
        {
          "address": "0x25a1fcb83929a6adcaa3e356315cb6461525d9a3",
          "topics": [
            "0x3c173f34da0900ded1a250c99de3d58cb900ce2841d93b11d877afee8b077a48",
            "0x0000000000000000000000000000000000000000000000000000000000000001",
            "0x000000000000000000000000a6b3d200cd34ca14d7579dac8b054bf50a62c37c"
          ],
          "data": "0x0000000000000000000000009ddf02f9bdacdc308ebc83289807d6c60b3fbb4d00000000000000000000000059340e7c71a0ea614d1bc7062932861ac411dd6700000000000000000000000000000000000000000000000000000002540be4000000000000000000000000000000000000000000000000000de0b6b3a7640000",
          "blockHash": "0x62318eb247b353ed6700b156448a4f2cd7e736f90844920dba74cc55c45f5a25",
          "blockNumber": "0x19d3e2a",
          "transactionHash": "0x17995175fcefbcbb02ffe90c29fe39a6566cc614b416c71cb054ce0aa9872c53",
          "transactionIndex": "0x18",
          "logIndex": "0xac",
          "removed": false
        }
      ],
      "logsBloom": "0x00000000000000000000000400400000010000000080000002000000000000000000000002000020000000000000000000040000000010000000000000040000000000000000000000000008000000000000080000048000000000100000000000000000000000000000000000000000000000000400000000080010000000000000008000080000000000000080000000000000000004000000000000020000000000080040000100000080000000000000000000000000000000002000000000000042000000000000000000080000000000420000000004000000400060000000000000000000000000000000000000800000000000200000000000000000",
      "type": "0x2",
      "transactionHash": "0x17995175fcefbcbb02ffe90c29fe39a6566cc614b416c71cb054ce0aa9872c53",
      "transactionIndex": "0x18",
      "blockHash": "0x62318eb247b353ed6700b156448a4f2cd7e736f90844920dba74cc55c45f5a25",
      "blockNumber": "0x19d3e2a",
      "gasUsed": "0x65fb3",
      "effectiveGasPrice": "0x2ea7",
      "from": "0xa6b3d200cd34ca14d7579dac8b054bf50a62c37c",
      "to": "0x25a1fcb83929a6adcaa3e356315cb6461525d9a3",
      "contractAddress": null,
      "l1BaseFeeScalar": "0x44d",
      "l1BlobBaseFee": "0x1",
      "l1BlobBaseFeeScalar": "0xa118b",
      "l1Fee": "0x2cb4b2",
      "l1GasPrice": "0x127cf8",
      "l1GasUsed": "0x894"
    },
    {
      "status": "0x1",
      "cumulativeGasUsed": "0x5ad911",
      "logs": [
        {
          "address": "0x59340e7c71a0ea614d1bc7062932861ac411dd67",
          "topics": [
            "0x8c5be1e5ebec7d5bd14f71427d1e84f3dd0314c0f7b2291e5b200ac8c7c3b925",
            "0x000000000000000000000000a6b3d200cd34ca14d7579dac8b054bf50a62c37c",
            "0x0000000000000000000000009df3ee3aa7fa4eb76e5ea5c81d40ff1380b5fe47"
          ],
          "data": "0x0000000000000000000000000000000000000000000000000de0b6b3a7640000",
          "blockHash": "0x62318eb247b353ed6700b156448a4f2cd7e736f90844920dba74cc55c45f5a25",
          "blockNumber": "0x19d3e2a",
          "transactionHash": "0x2d3846315d59cd6ccabcbaba0362c07a3366625b88aecadf987b6e0f3cbc2c6d",
          "transactionIndex": "0x19",
          "logIndex": "0xad",
          "removed": false
        }
      ],
      "logsBloom": "0x00000000000000000000000400000000000000000000000002000000000000000000000000000000000000000000000000000000000000000000000000200000000000000000000000000000000000000000000000000000000000000000000000000000000000000000000000000000000000000000000000000000000000200000000000000000000000000000000000000000008000000000000000000000020000000000000000000000000000000000000000000000000000002000000000000040000000000000000000000000000000020000000800000000000000000010000000000000000000000000000000000000000000200000000000000000",
      "type": "0x2",
      "transactionHash": "0x2d3846315d59cd6ccabcbaba0362c07a3366625b88aecadf987b6e0f3cbc2c6d",
      "transactionIndex": "0x19",
      "blockHash": "0x62318eb247b353ed6700b156448a4f2cd7e736f90844920dba74cc55c45f5a25",
      "blockNumber": "0x19d3e2a",
      "gasUsed": "0xb385",
      "effectiveGasPrice": "0x2ea7",
      "from": "0xa6b3d200cd34ca14d7579dac8b054bf50a62c37c",
      "to": "0x59340e7c71a0ea614d1bc7062932861ac411dd67",
      "contractAddress": null,
      "l1BaseFeeScalar": "0x44d",
      "l1BlobBaseFee": "0x1",
      "l1BlobBaseFeeScalar": "0xa118b",
      "l1Fee": "0x2091db",
      "l1GasPrice": "0x127cf8",
      "l1GasUsed": "0x640"
    },
    {
      "status": "0x1",
      "cumulativeGasUsed": "0x5bab7f",
      "logs": [
        {
          "address": "0x59340e7c71a0ea614d1bc7062932861ac411dd67",
          "topics": [
            "0xddf252ad1be2c89b69c2b068fc378daa952ba7f163c4a11628f55a4df523b3ef",
            "0x000000000000000000000000a6b3d200cd34ca14d7579dac8b054bf50a62c37c",
            "0x0000000000000000000000009df3ee3aa7fa4eb76e5ea5c81d40ff1380b5fe47"
          ],
          "data": "0x0000000000000000000000000000000000000000000000000de0b6b3a7640000",
          "blockHash": "0x62318eb247b353ed6700b156448a4f2cd7e736f90844920dba74cc55c45f5a25",
          "blockNumber": "0x19d3e2a",
          "transactionHash": "0xbaf0fa81a3aaf92980c735cc0fa66cced634a4e3c9d189f1d02d5ffd260aeca9",
          "transactionIndex": "0x1a",
          "logIndex": "0xae",
          "removed": false
        },
        {
          "address": "0x9df3ee3aa7fa4eb76e5ea5c81d40ff1380b5fe47",
          "topics": [
            "0x244160b15e69cc411f041d94ae7fab6f6bba85dade8403216c05ff4b920d5449",
            "0x0000000000000000000000000000000000000000000000000000000000000001"
          ],
          "data": "0x0000000000000000000000000000000000000000000000000de0b6b3a7640000",
          "blockHash": "0x62318eb247b353ed6700b156448a4f2cd7e736f90844920dba74cc55c45f5a25",
          "blockNumber": "0x19d3e2a",
          "transactionHash": "0xbaf0fa81a3aaf92980c735cc0fa66cced634a4e3c9d189f1d02d5ffd260aeca9",
          "transactionIndex": "0x1a",
          "logIndex": "0xaf",
          "removed": false
        }
      ],
      "logsBloom": "0x00000000000000000000000400000000000000000000000002000000000000000000000000000000000000000000000000000000000300000000000000040000000000000000000000000008000000000000000000060000000000000000000000000000000000000000000000000000000000000000000000000010000000200000000000000000000000000000000000000000008000000020000000000000000000000000000000000000000000000000000000000000000000002000000000000042000000000000000000000010000000020000000800000000000040000000000000000080000000000000000000000000000000200000000000000000",
      "type": "0x2",
      "transactionHash": "0xbaf0fa81a3aaf92980c735cc0fa66cced634a4e3c9d189f1d02d5ffd260aeca9",
      "transactionIndex": "0x1a",
      "blockHash": "0x62318eb247b353ed6700b156448a4f2cd7e736f90844920dba74cc55c45f5a25",
      "blockNumber": "0x19d3e2a",
      "gasUsed": "0xd26e",
      "effectiveGasPrice": "0x2ea7",
      "from": "0xa6b3d200cd34ca14d7579dac8b054bf50a62c37c",
      "to": "0x9df3ee3aa7fa4eb76e5ea5c81d40ff1380b5fe47",
      "contractAddress": null,
      "l1BaseFeeScalar": "0x44d",
      "l1BlobBaseFee": "0x1",
      "l1BlobBaseFeeScalar": "0xa118b",
      "l1Fee": "0x2091db",
      "l1GasPrice": "0x127cf8",
      "l1GasUsed": "0x640"
    },
    {
      "status": "0x1",
      "cumulativeGasUsed": "0x5d1d90",
      "logs": [
        {
          "address": "0x59340e7c71a0ea614d1bc7062932861ac411dd67",
          "topics": [
            "0xddf252ad1be2c89b69c2b068fc378daa952ba7f163c4a11628f55a4df523b3ef",
            "0x0000000000000000000000009df3ee3aa7fa4eb76e5ea5c81d40ff1380b5fe47",
            "0x000000000000000000000000a6b3d200cd34ca14d7579dac8b054bf50a62c37c"
          ],
          "data": "0x00000000000000000000000000000000000000000000000006f05b59d3b20000",
          "blockHash": "0x62318eb247b353ed6700b156448a4f2cd7e736f90844920dba74cc55c45f5a25",
          "blockNumber": "0x19d3e2a",
          "transactionHash": "0x92ec38c00bf534c84824bd5c8e015bcb6311842bb6b0488ea2feeb04559598e9",
          "transactionIndex": "0x1b",
          "logIndex": "0xb0",
          "removed": false
        },
        {
          "address": "0x9df3ee3aa7fa4eb76e5ea5c81d40ff1380b5fe47",
          "topics": [
            "0x2399e8aed1977410745a5211d8226a3a7d9278f50a8a197c5ec6e285bb437f0b",
            "0x0000000000000000000000000000000000000000000000000000000000000001"
          ],
          "data": "0x00000000000000000000000000000000000000000000000006f05b59d3b20000",
          "blockHash": "0x62318eb247b353ed6700b156448a4f2cd7e736f90844920dba74cc55c45f5a25",
          "blockNumber": "0x19d3e2a",
          "transactionHash": "0x92ec38c00bf534c84824bd5c8e015bcb6311842bb6b0488ea2feeb04559598e9",
          "transactionIndex": "0x1b",
          "logIndex": "0xb1",
          "removed": false
        }
      ],
      "logsBloom": "0x00000000000000000000000400000000000000000000000002000000000000000000000000000000000000000000000000000000000100000000000000040000000000000000000000000008000000000000000000060000000000000000000000000000000000000000000000000000000000000020000000000010000000200000000000000000000000000000000000000000008060000020000000000000000000000000000000000000000000000000000000000000000000002000000000000042000000000000000000000000000000020000000800000000000040000000000000000000000000000000000000000000000000200000000000000000",
      "type": "0x2",
      "transactionHash": "0x92ec38c00bf534c84824bd5c8e015bcb6311842bb6b0488ea2feeb04559598e9",
      "transactionIndex": "0x1b",
      "blockHash": "0x62318eb247b353ed6700b156448a4f2cd7e736f90844920dba74cc55c45f5a25",
      "blockNumber": "0x19d3e2a",
      "gasUsed": "0x17211",
      "effectiveGasPrice": "0x2ea7",
      "from": "0xa6b3d200cd34ca14d7579dac8b054bf50a62c37c",
      "to": "0x9df3ee3aa7fa4eb76e5ea5c81d40ff1380b5fe47",
      "contractAddress": null,
      "l1BaseFeeScalar": "0x44d",
      "l1BlobBaseFee": "0x1",
      "l1BlobBaseFeeScalar": "0xa118b",
      "l1Fee": "0x2091db",
      "l1GasPrice": "0x127cf8",
      "l1GasUsed": "0x640"
    }
  ],
  "libraries": [],
  "pending": [],
  "returns": {},
  "timestamp": 1749932853,
  "chain": 84532,
  "commit": "34f47c4"
}