{
  "transactions": [
    {
      "hash": "0x4fc4d030e77272e3934bcb50996af724078f33e175f1e8302c1abda8ad4ffe87",
      "transactionType": "CALL",
      "contractName": "MockETH",
      "contractAddress": "0xa4d604c70c4695364d25760d2ad07b07a3de2ad1",
      "function": "approve(address,uint256)",
      "arguments": [
        "0x803D9E7c42844670dB6F5b14FA96d95C23e43572",
        "5000000000000000000"
      ],
      "transaction": {
        "from": "0xa6b3d200cd34ca14d7579dac8b054bf50a62c37c",
        "to": "0xa4d604c70c4695364d25760d2ad07b07a3de2ad1",
        "gas": "0xf7f5",
        "value": "0x0",
        "input": "0x095ea7b3000000000000000000000000803d9e7c42844670db6f5b14fa96d95c23e435720000000000000000000000000000000000000000000000004563918244f40000",
        "nonce": "0x73f",
        "chainId": "0x14a34"
      },
      "additionalContracts": [],
      "isFixedGasLimit": false
    },
    {
      "hash": "0x6cb7aa9d2e510e6557b6d54808ec74f5e907c027fcb12c9dab42dfc23b17f206",
      "transactionType": "CALL",
      "contractName": "GenericLoanManager",
      "contractAddress": "0x803d9e7c42844670db6f5b14fa96d95c23e43572",
      "function": "createLoan((address,address,uint256,uint256,uint256,uint256,uint256))",
      "arguments": [
        "(0xA4D604C70c4695364D25760D2AD07B07A3DE2aD1, 0xe32b992791e0ec4D83a4BFaC048CB7cEe7c951F0, 5000000000000000000, 2000000000, 700000, 80000, 0)"
      ],
      "transaction": {
        "from": "0xa6b3d200cd34ca14d7579dac8b054bf50a62c37c",
        "to": "0x803d9e7c42844670db6f5b14fa96d95c23e43572",
        "gas": "0x911a9",
        "value": "0x0",
        "input": "0xe37ccfec000000000000000000000000a4d604c70c4695364d25760d2ad07b07a3de2ad1000000000000000000000000e32b992791e0ec4d83a4bfac048cb7cee7c951f00000000000000000000000000000000000000000000000004563918244f40000000000000000000000000000000000000000000000000000000000007735940000000000000000000000000000000000000000000000000000000000000aae6000000000000000000000000000000000000000000000000000000000000138800000000000000000000000000000000000000000000000000000000000000000",
        "nonce": "0x740",
        "chainId": "0x14a34"
      },
      "additionalContracts": [],
      "isFixedGasLimit": false
    },
    {
      "hash": "0xe6746b5981199354b027cd6b015971d798697ad58e1edb571c4e736c8e1007d8",
      "transactionType": "CALL",
      "contractName": null,
      "contractAddress": "0xe32b992791e0ec4d83a4bfac048cb7cee7c951f0",
      "function": "approve(address,uint256)",
      "arguments": [
        "0xf2416FeF3684d74D0BAE2BAEc4af9A4BcC676e8E",
        "10000000000"
      ],
      "transaction": {
        "from": "0xa6b3d200cd34ca14d7579dac8b054bf50a62c37c",
        "to": "0xe32b992791e0ec4d83a4bfac048cb7cee7c951f0",
        "gas": "0xf7d3",
        "value": "0x0",
        "input": "0x095ea7b3000000000000000000000000f2416fef3684d74d0bae2baec4af9a4bcc676e8e00000000000000000000000000000000000000000000000000000002540be400",
        "nonce": "0x741",
        "chainId": "0x14a34"
      },
      "additionalContracts": [],
      "isFixedGasLimit": false
    },
    {
      "hash": "0x45b2d192f79fc974f3dc116bb0bf8b35a2f05eef25fc20d4d8fb3235c3206aff",
      "transactionType": "CALL",
      "contractName": null,
      "contractAddress": "0xf2416fef3684d74d0bae2baec4af9a4bcc676e8e",
      "function": "createLoan((address,address,uint256,uint256,uint256,uint256,uint256))",
      "arguments": [
        "(0xe32b992791e0ec4D83a4BFaC048CB7cEe7c951F0, 0xA4D604C70c4695364D25760D2AD07B07A3DE2aD1, 10000000000, 1000000000000000000, 500000, 75000, 0)"
      ],
      "transaction": {
        "from": "0xa6b3d200cd34ca14d7579dac8b054bf50a62c37c",
        "to": "0xf2416fef3684d74d0bae2baec4af9a4bcc676e8e",
        "gas": "0x8cadd",
        "value": "0x0",
        "input": "0xe37ccfec000000000000000000000000e32b992791e0ec4d83a4bfac048cb7cee7c951f0000000000000000000000000a4d604c70c4695364d25760d2ad07b07a3de2ad100000000000000000000000000000000000000000000000000000002540be4000000000000000000000000000000000000000000000000000de0b6b3a7640000000000000000000000000000000000000000000000000000000000000007a12000000000000000000000000000000000000000000000000000000000000124f80000000000000000000000000000000000000000000000000000000000000000",
        "nonce": "0x742",
        "chainId": "0x14a34"
      },
      "additionalContracts": [],
      "isFixedGasLimit": false
    },
    {
      "hash": "0xdd06c13261e3e1f137c1fc1626963afcf21c9b43cbbde5f5bb01c6e0780ec696",
      "transactionType": "CALL",
      "contractName": "MockETH",
      "contractAddress": "0xa4d604c70c4695364d25760d2ad07b07a3de2ad1",
      "function": "approve(address,uint256)",
      "arguments": [
        "0x803D9E7c42844670dB6F5b14FA96d95C23e43572",
        "1000000000000000000"
      ],
      "transaction": {
        "from": "0xa6b3d200cd34ca14d7579dac8b054bf50a62c37c",
        "to": "0xa4d604c70c4695364d25760d2ad07b07a3de2ad1",
        "gas": "0xf7f5",
        "value": "0x0",
        "input": "0x095ea7b3000000000000000000000000803d9e7c42844670db6f5b14fa96d95c23e435720000000000000000000000000000000000000000000000000de0b6b3a7640000",
        "nonce": "0x743",
        "chainId": "0x14a34"
      },
      "additionalContracts": [],
      "isFixedGasLimit": false
    },
    {
      "hash": "0x6bdaa087041f30c5f0d9c5e6f5bd1e87b7af6698f20f58cba811956170d987c8",
      "transactionType": "CALL",
      "contractName": "GenericLoanManager",
      "contractAddress": "0x803d9e7c42844670db6f5b14fa96d95c23e43572",
      "function": "addCollateral(uint256,uint256)",
      "arguments": [
        "1",
        "1000000000000000000"
      ],
      "transaction": {
        "from": "0xa6b3d200cd34ca14d7579dac8b054bf50a62c37c",
        "to": "0x803d9e7c42844670db6f5b14fa96d95c23e43572",
        "gas": "0x11657",
        "value": "0x0",
        "input": "0xa8f35adf00000000000000000000000000000000000000000000000000000000000000010000000000000000000000000000000000000000000000000de0b6b3a7640000",
        "nonce": "0x744",
        "chainId": "0x14a34"
      },
      "additionalContracts": [],
      "isFixedGasLimit": false
    },
    {
      "hash": "0x0d751cb2826e6061ccc6c4fd28a63eda1e223875df8cfd69c69e064377b704ee",
      "transactionType": "CALL",
      "contractName": "GenericLoanManager",
      "contractAddress": "0x803d9e7c42844670db6f5b14fa96d95c23e43572",
      "function": "withdrawCollateral(uint256,uint256)",
      "arguments": [
        "1",
        "500000000000000000"
      ],
      "transaction": {
        "from": "0xa6b3d200cd34ca14d7579dac8b054bf50a62c37c",
        "to": "0x803d9e7c42844670db6f5b14fa96d95c23e43572",
        "gas": "0x20fc8",
        "value": "0x0",
        "input": "0x767a7b05000000000000000000000000000000000000000000000000000000000000000100000000000000000000000000000000000000000000000006f05b59d3b20000",
        "nonce": "0x745",
        "chainId": "0x14a34"
      },
      "additionalContracts": [],
      "isFixedGasLimit": false
    }
  ],
  "receipts": [
    {
      "status": "0x1",
      "cumulativeGasUsed": "0xeab57",
      "logs": [
        {
          "address": "0xa4d604c70c4695364d25760d2ad07b07a3de2ad1",
          "topics": [
            "0x8c5be1e5ebec7d5bd14f71427d1e84f3dd0314c0f7b2291e5b200ac8c7c3b925",
            "0x000000000000000000000000a6b3d200cd34ca14d7579dac8b054bf50a62c37c",
            "0x000000000000000000000000803d9e7c42844670db6f5b14fa96d95c23e43572"
          ],
          "data": "0x0000000000000000000000000000000000000000000000004563918244f40000",
          "blockHash": "0x6ffb65bea88fb11e882aec05be9a2fe022a2668d300c08447b800cac0a8bed59",
          "blockNumber": "0x1977220",
          "blockTimestamp": "0x68424320",
          "transactionHash": "0x4fc4d030e77272e3934bcb50996af724078f33e175f1e8302c1abda8ad4ffe87",
          "transactionIndex": "0x8",
          "logIndex": "0xd",
          "removed": false
        }
      ],
      "logsBloom": "0x00000000000000000000000400000000000000000000000002000000000000010000000000000000000000000000000000000000000000000000000000200000000000000000000000000000000000000010000000000000000000000000000000000000000000000000000000000000000000000000000000000000000000000000000000000000000000000000000000000000000000000000000000000000020000000000000000000000000000000100000000000000000000000000000000000040000000000000000000000000000000400000800000000000000000100010000000000000000000000000000000000000000000000000000000000000",
      "type": "0x2",
      "transactionHash": "0x4fc4d030e77272e3934bcb50996af724078f33e175f1e8302c1abda8ad4ffe87",
      "transactionIndex": "0x8",
      "blockHash": "0x6ffb65bea88fb11e882aec05be9a2fe022a2668d300c08447b800cac0a8bed59",
      "blockNumber": "0x1977220",
      "gasUsed": "0xb385",
      "effectiveGasPrice": "0xe94cf",
      "from": "0xa6b3d200cd34ca14d7579dac8b054bf50a62c37c",
      "to": "0xa4d604c70c4695364d25760d2ad07b07a3de2ad1",
      "contractAddress": null,
      "l1BaseFeeScalar": "0x44d",
      "l1BlobBaseFee": "0x98",
      "l1BlobBaseFeeScalar": "0xa118b",
      "l1Fee": "0x2767",
      "l1GasPrice": "0x21",
      "l1GasUsed": "0x640"
    },
    {
      "status": "0x1",
      "cumulativeGasUsed": "0x24403b",
      "logs": [
        {
          "address": "0xa4d604c70c4695364d25760d2ad07b07a3de2ad1",
          "topics": [
            "0xddf252ad1be2c89b69c2b068fc378daa952ba7f163c4a11628f55a4df523b3ef",
            "0x000000000000000000000000a6b3d200cd34ca14d7579dac8b054bf50a62c37c",
            "0x000000000000000000000000803d9e7c42844670db6f5b14fa96d95c23e43572"
          ],
          "data": "0x0000000000000000000000000000000000000000000000004563918244f40000",
          "blockHash": "0xae2bccd7fe180976effe436ee6ab1c62891648b8ceaa98f1a4184db8269e94b3",
          "blockNumber": "0x1977220",
          "transactionHash": "0x6cb7aa9d2e510e6557b6d54808ec74f5e907c027fcb12c9dab42dfc23b17f206",
          "transactionIndex": "0xd",
          "logIndex": "0x3b",
          "removed": false
        },
        {
          "address": "0xe32b992791e0ec4d83a4bfac048cb7cee7c951f0",
          "topics": [
            "0xddf252ad1be2c89b69c2b068fc378daa952ba7f163c4a11628f55a4df523b3ef",
            "0x000000000000000000000000a2d79964dd431c19445f1aea87e5dd06d626bdaa",
            "0x000000000000000000000000a6b3d200cd34ca14d7579dac8b054bf50a62c37c"
          ],
          "data": "0x0000000000000000000000000000000000000000000000000000000077359400",
          "blockHash": "0xae2bccd7fe180976effe436ee6ab1c62891648b8ceaa98f1a4184db8269e94b3",
          "blockNumber": "0x1977220",
          "transactionHash": "0x6cb7aa9d2e510e6557b6d54808ec74f5e907c027fcb12c9dab42dfc23b17f206",
          "transactionIndex": "0xd",
          "logIndex": "0x3c",
          "removed": false
        },
        {
          "address": "0xa2d79964dd431c19445f1aea87e5dd06d626bdaa",
          "topics": [
            "0x385feb58578c31f205b503905da1dec4c110dcdaac4a0dc43be298cae636307f",
            "0x000000000000000000000000e32b992791e0ec4d83a4bfac048cb7cee7c951f0"
          ],
          "data": "0x0000000000000000000000000000000000000000000000000000000000001f40",
          "blockHash": "0xae2bccd7fe180976effe436ee6ab1c62891648b8ceaa98f1a4184db8269e94b3",
          "blockNumber": "0x1977220",
          "transactionHash": "0x6cb7aa9d2e510e6557b6d54808ec74f5e907c027fcb12c9dab42dfc23b17f206",
          "transactionIndex": "0xd",
          "logIndex": "0x3d",
          "removed": false
        },
        {
          "address": "0xa2d79964dd431c19445f1aea87e5dd06d626bdaa",
          "topics": [
            "0xb088e70ab7e367eb8a026f0cf73edc838746f0f9761c510260ff489070d7b3c8",
            "0x000000000000000000000000e32b992791e0ec4d83a4bfac048cb7cee7c951f0",
            "0x000000000000000000000000a6b3d200cd34ca14d7579dac8b054bf50a62c37c"
          ],
          "data": "0x0000000000000000000000000000000000000000000000000000000077359400",
          "blockHash": "0xae2bccd7fe180976effe436ee6ab1c62891648b8ceaa98f1a4184db8269e94b3",
          "blockNumber": "0x1977220",
          "transactionHash": "0x6cb7aa9d2e510e6557b6d54808ec74f5e907c027fcb12c9dab42dfc23b17f206",
          "transactionIndex": "0xd",
          "logIndex": "0x3e",
          "removed": false
        },
        {
          "address": "0x803d9e7c42844670db6f5b14fa96d95c23e43572",
          "topics": [
            "0x3c173f34da0900ded1a250c99de3d58cb900ce2841d93b11d877afee8b077a48",
            "0x0000000000000000000000000000000000000000000000000000000000000001",
            "0x000000000000000000000000a6b3d200cd34ca14d7579dac8b054bf50a62c37c"
          ],
          "data": "0x000000000000000000000000a4d604c70c4695364d25760d2ad07b07a3de2ad1000000000000000000000000e32b992791e0ec4d83a4bfac048cb7cee7c951f00000000000000000000000000000000000000000000000004563918244f400000000000000000000000000000000000000000000000000000000000077359400",
          "blockHash": "0xae2bccd7fe180976effe436ee6ab1c62891648b8ceaa98f1a4184db8269e94b3",
          "blockNumber": "0x1977220",
          "transactionHash": "0x6cb7aa9d2e510e6557b6d54808ec74f5e907c027fcb12c9dab42dfc23b17f206",
          "transactionIndex": "0xd",
          "logIndex": "0x3f",
          "removed": false
        }
      ],
      "logsBloom": "0x00000000008000000000000400000000010000000000000002000000000000010000000003000000000000000000000000000000000010000000000000040000000000000000000000023008000000000010000002040000000000000800000000000000000100000000000000000000000000000400000000000010000000000002008000000000000000000000000000000004000000000000000000000000000000000040004000000000000000000100000000000000000000100000000000000142000000000000000000000000000000400000800004200000000040100000000000000000000010000000000000800000000000000000000000000000",
      "type": "0x2",
      "transactionHash": "0x6cb7aa9d2e510e6557b6d54808ec74f5e907c027fcb12c9dab42dfc23b17f206",
      "transactionIndex": "0xd",
      "blockHash": "0xae2bccd7fe180976effe436ee6ab1c62891648b8ceaa98f1a4184db8269e94b3",
      "blockNumber": "0x1977220",
      "gasUsed": "0x690d8",
      "effectiveGasPrice": "0xe9483",
      "from": "0xa6b3d200cd34ca14d7579dac8b054bf50a62c37c",
      "to": "0x803d9e7c42844670db6f5b14fa96d95c23e43572",
      "contractAddress": null,
      "l1BaseFeeScalar": "0x44d",
      "l1BlobBaseFee": "0x98",
      "l1BlobBaseFeeScalar": "0xa118b",
      "l1Fee": "0x37bc",
      "l1GasPrice": "0x21",
      "l1GasUsed": "0x8d7"
    },
    {
      "status": "0x1",
      "cumulativeGasUsed": "0x28c33e",
      "logs": [
        {
          "address": "0xe32b992791e0ec4d83a4bfac048cb7cee7c951f0",
          "topics": [
            "0x8c5be1e5ebec7d5bd14f71427d1e84f3dd0314c0f7b2291e5b200ac8c7c3b925",
            "0x000000000000000000000000a6b3d200cd34ca14d7579dac8b054bf50a62c37c",
            "0x000000000000000000000000f2416fef3684d74d0bae2baec4af9a4bcc676e8e"
          ],
          "data": "0x00000000000000000000000000000000000000000000000000000002540be400",
          "blockHash": "0xae2bccd7fe180976effe436ee6ab1c62891648b8ceaa98f1a4184db8269e94b3",
          "blockNumber": "0x1977220",
          "transactionHash": "0xe6746b5981199354b027cd6b015971d798697ad58e1edb571c4e736c8e1007d8",
          "transactionIndex": "0xf",
          "logIndex": "0x43",
          "removed": false
        }
      ],
      "logsBloom": "0x00000000000000000000000400000000000000000000000002000000800000000000000000000000000000000400000000000000000000000000000000200000000000000000000000002000000000000000000000000000000000000000000000000000000000000000000000000000000000000000000000000000000000000000000000000000000000000000000000000004000000000000000000000000820000000000000000000000000000000000000000000000000000100000000000000040000000000000000000000000000000000000000000000000000000000010000000000000000000000000000000000000000000000000000000000000",
      "type": "0x2",
      "transactionHash": "0xe6746b5981199354b027cd6b015971d798697ad58e1edb571c4e736c8e1007d8",
      "transactionIndex": "0xf",
      "blockHash": "0xae2bccd7fe180976effe436ee6ab1c62891648b8ceaa98f1a4184db8269e94b3",
      "blockNumber": "0x1977220",
      "gasUsed": "0xb36d",
      "effectiveGasPrice": "0xe9483",
      "from": "0xa6b3d200cd34ca14d7579dac8b054bf50a62c37c",
      "to": "0xe32b992791e0ec4d83a4bfac048cb7cee7c951f0",
      "contractAddress": null,
      "l1BaseFeeScalar": "0x44d",
      "l1BlobBaseFee": "0x98",
      "l1BlobBaseFeeScalar": "0xa118b",
      "l1Fee": "0x2767",
      "l1GasPrice": "0x21",
      "l1GasUsed": "0x640"
    },
    {
      "status": "0x1",
      "cumulativeGasUsed": "0x2f20d4",
      "logs": [
        {
          "address": "0xe32b992791e0ec4d83a4bfac048cb7cee7c951f0",
          "topics": [
            "0xddf252ad1be2c89b69c2b068fc378daa952ba7f163c4a11628f55a4df523b3ef",
            "0x000000000000000000000000a6b3d200cd34ca14d7579dac8b054bf50a62c37c",
            "0x000000000000000000000000f2416fef3684d74d0bae2baec4af9a4bcc676e8e"
          ],
          "data": "0x00000000000000000000000000000000000000000000000000000002540be400",
          "blockHash": "0xae2bccd7fe180976effe436ee6ab1c62891648b8ceaa98f1a4184db8269e94b3",
          "blockNumber": "0x1977220",
          "transactionHash": "0x45b2d192f79fc974f3dc116bb0bf8b35a2f05eef25fc20d4d8fb3235c3206aff",
          "transactionIndex": "0x10",
          "logIndex": "0x44",
          "removed": false
        },
        {
          "address": "0xa4d604c70c4695364d25760d2ad07b07a3de2ad1",
          "topics": [
            "0xddf252ad1be2c89b69c2b068fc378daa952ba7f163c4a11628f55a4df523b3ef",
            "0x000000000000000000000000a2d79964dd431c19445f1aea87e5dd06d626bdaa",
            "0x000000000000000000000000a6b3d200cd34ca14d7579dac8b054bf50a62c37c"
          ],
          "data": "0x0000000000000000000000000000000000000000000000000de0b6b3a7640000",
          "blockHash": "0xae2bccd7fe180976effe436ee6ab1c62891648b8ceaa98f1a4184db8269e94b3",
          "blockNumber": "0x1977220",
          "transactionHash": "0x45b2d192f79fc974f3dc116bb0bf8b35a2f05eef25fc20d4d8fb3235c3206aff",
          "transactionIndex": "0x10",
          "logIndex": "0x45",
          "removed": false
        },
        {
          "address": "0xa2d79964dd431c19445f1aea87e5dd06d626bdaa",
          "topics": [
            "0x385feb58578c31f205b503905da1dec4c110dcdaac4a0dc43be298cae636307f",
            "0x000000000000000000000000a4d604c70c4695364d25760d2ad07b07a3de2ad1"
          ],
          "data": "0x0000000000000000000000000000000000000000000000000000000000002710",
          "blockHash": "0xae2bccd7fe180976effe436ee6ab1c62891648b8ceaa98f1a4184db8269e94b3",
          "blockNumber": "0x1977220",
          "transactionHash": "0x45b2d192f79fc974f3dc116bb0bf8b35a2f05eef25fc20d4d8fb3235c3206aff",
          "transactionIndex": "0x10",
          "logIndex": "0x46",
          "removed": false
        },
        {
          "address": "0xa2d79964dd431c19445f1aea87e5dd06d626bdaa",
          "topics": [
            "0xb088e70ab7e367eb8a026f0cf73edc838746f0f9761c510260ff489070d7b3c8",
            "0x000000000000000000000000a4d604c70c4695364d25760d2ad07b07a3de2ad1",
            "0x000000000000000000000000a6b3d200cd34ca14d7579dac8b054bf50a62c37c"
          ],
          "data": "0x0000000000000000000000000000000000000000000000000de0b6b3a7640000",
          "blockHash": "0xae2bccd7fe180976effe436ee6ab1c62891648b8ceaa98f1a4184db8269e94b3",
          "blockNumber": "0x1977220",
          "transactionHash": "0x45b2d192f79fc974f3dc116bb0bf8b35a2f05eef25fc20d4d8fb3235c3206aff",
          "transactionIndex": "0x10",
          "logIndex": "0x47",
          "removed": false
        },
        {
          "address": "0xf2416fef3684d74d0bae2baec4af9a4bcc676e8e",
          "topics": [
            "0x3c173f34da0900ded1a250c99de3d58cb900ce2841d93b11d877afee8b077a48",
            "0x0000000000000000000000000000000000000000000000000000000000000001",
            "0x000000000000000000000000a6b3d200cd34ca14d7579dac8b054bf50a62c37c"
          ],
          "data": "0x000000000000000000000000e32b992791e0ec4d83a4bfac048cb7cee7c951f0000000000000000000000000a4d604c70c4695364d25760d2ad07b07a3de2ad100000000000000000000000000000000000000000000000000000002540be4000000000000000000000000000000000000000000000000000de0b6b3a7640000",
          "blockHash": "0xae2bccd7fe180976effe436ee6ab1c62891648b8ceaa98f1a4184db8269e94b3",
          "blockNumber": "0x1977220",
          "transactionHash": "0x45b2d192f79fc974f3dc116bb0bf8b35a2f05eef25fc20d4d8fb3235c3206aff",
          "transactionIndex": "0x10",
          "logIndex": "0x48",
          "removed": false
        }
      ],
      "logsBloom": "0x00000000008000000000000400000000010000000000000002000000800000010000000002000000000000000400000000000000000010000000000200040000000000000000000000022008000000000000000000040000000000000800000000000000000100002000000000000000000000000400000000000010000000000002008001000000400000000000000000000004000000000000000000000000800002000040000000000000000008000000000000000000000000100000000000000042000000000000000000000000000000400000000004000000000040100000000000000000000010000000000000800000000000000000000000000000",
      "type": "0x2",
      "transactionHash": "0x45b2d192f79fc974f3dc116bb0bf8b35a2f05eef25fc20d4d8fb3235c3206aff",
      "transactionIndex": "0x10",
      "blockHash": "0xae2bccd7fe180976effe436ee6ab1c62891648b8ceaa98f1a4184db8269e94b3",
      "blockNumber": "0x1977220",
      "gasUsed": "0x65d96",
      "effectiveGasPrice": "0xe9483",
      "from": "0xa6b3d200cd34ca14d7579dac8b054bf50a62c37c",
      "to": "0xf2416fef3684d74d0bae2baec4af9a4bcc676e8e",
      "contractAddress": null,
      "l1BaseFeeScalar": "0x44d",
      "l1BlobBaseFee": "0x98",
      "l1BlobBaseFeeScalar": "0xa118b",
      "l1Fee": "0x36bf",
      "l1GasPrice": "0x21",
      "l1GasUsed": "0x8ae"
    },
    {
      "status": "0x1",
      "cumulativeGasUsed": "0x2fd459",
      "logs": [
        {
          "address": "0xa4d604c70c4695364d25760d2ad07b07a3de2ad1",
          "topics": [
            "0x8c5be1e5ebec7d5bd14f71427d1e84f3dd0314c0f7b2291e5b200ac8c7c3b925",
            "0x000000000000000000000000a6b3d200cd34ca14d7579dac8b054bf50a62c37c",
            "0x000000000000000000000000803d9e7c42844670db6f5b14fa96d95c23e43572"
          ],
          "data": "0x0000000000000000000000000000000000000000000000000de0b6b3a7640000",
          "blockHash": "0xae2bccd7fe180976effe436ee6ab1c62891648b8ceaa98f1a4184db8269e94b3",
          "blockNumber": "0x1977220",
          "transactionHash": "0xdd06c13261e3e1f137c1fc1626963afcf21c9b43cbbde5f5bb01c6e0780ec696",
          "transactionIndex": "0x11",
          "logIndex": "0x49",
          "removed": false
        }
      ],
      "logsBloom": "0x00000000000000000000000400000000000000000000000002000000000000010000000000000000000000000000000000000000000000000000000000200000000000000000000000000000000000000010000000000000000000000000000000000000000000000000000000000000000000000000000000000000000000000000000000000000000000000000000000000000000000000000000000000000020000000000000000000000000000000100000000000000000000000000000000000040000000000000000000000000000000400000800000000000000000100010000000000000000000000000000000000000000000000000000000000000",
      "type": "0x2",
      "transactionHash": "0xdd06c13261e3e1f137c1fc1626963afcf21c9b43cbbde5f5bb01c6e0780ec696",
      "transactionIndex": "0x11",
      "blockHash": "0xae2bccd7fe180976effe436ee6ab1c62891648b8ceaa98f1a4184db8269e94b3",
      "blockNumber": "0x1977220",
      "gasUsed": "0xb385",
      "effectiveGasPrice": "0xe9483",
      "from": "0xa6b3d200cd34ca14d7579dac8b054bf50a62c37c",
      "to": "0xa4d604c70c4695364d25760d2ad07b07a3de2ad1",
      "contractAddress": null,
      "l1BaseFeeScalar": "0x44d",
      "l1BlobBaseFee": "0x98",
      "l1BlobBaseFeeScalar": "0xa118b",
      "l1Fee": "0x2767",
      "l1GasPrice": "0x21",
      "l1GasUsed": "0x640"
    },
    {
      "status": "0x1",
      "cumulativeGasUsed": "0x33dfa4",
      "logs": [
        {
          "address": "0xa4d604c70c4695364d25760d2ad07b07a3de2ad1",
          "topics": [
            "0xddf252ad1be2c89b69c2b068fc378daa952ba7f163c4a11628f55a4df523b3ef",
            "0x000000000000000000000000a6b3d200cd34ca14d7579dac8b054bf50a62c37c",
            "0x000000000000000000000000803d9e7c42844670db6f5b14fa96d95c23e43572"
          ],
          "data": "0x0000000000000000000000000000000000000000000000000de0b6b3a7640000",
          "blockHash": "0xbae1bc2eaad0d70f2c5abcc6823679f639276cbf144d687cb47d606b9d51ba15",
          "blockNumber": "0x1977220",
          "blockTimestamp": "0x68424320",
          "transactionHash": "0x6bdaa087041f30c5f0d9c5e6f5bd1e87b7af6698f20f58cba811956170d987c8",
          "transactionIndex": "0x15",
          "logIndex": "0x4e",
          "removed": false
        },
        {
          "address": "0x803d9e7c42844670db6f5b14fa96d95c23e43572",
          "topics": [
            "0x244160b15e69cc411f041d94ae7fab6f6bba85dade8403216c05ff4b920d5449",
            "0x0000000000000000000000000000000000000000000000000000000000000001"
          ],
          "data": "0x0000000000000000000000000000000000000000000000000de0b6b3a7640000",
          "blockHash": "0xbae1bc2eaad0d70f2c5abcc6823679f639276cbf144d687cb47d606b9d51ba15",
          "blockNumber": "0x1977220",
          "blockTimestamp": "0x68424320",
          "transactionHash": "0x6bdaa087041f30c5f0d9c5e6f5bd1e87b7af6698f20f58cba811956170d987c8",
          "transactionIndex": "0x15",
          "logIndex": "0x4f",
          "removed": false
        }
      ],
      "logsBloom": "0x00000000000000000000000400000000000000000000000002000000000000010000000001000000000000000000000000000000000200000000000000040000000000000000000000001008000000000010000002040000000000000000000000000000000000000000000000000000000000000000000000000010000000000000000000000000000000000000000000000000000000000000000000000000000000000000000000000000000000000100000000000000000000000000000000000042000000000000000000000010000000400000800000000000000040100000000000000080000000000000000000000000000000000000000000000000",
      "type": "0x2",
      "transactionHash": "0x6bdaa087041f30c5f0d9c5e6f5bd1e87b7af6698f20f58cba811956170d987c8",
      "transactionIndex": "0x15",
      "blockHash": "0xbae1bc2eaad0d70f2c5abcc6823679f639276cbf144d687cb47d606b9d51ba15",
      "blockNumber": "0x1977220",
      "gasUsed": "0xc984",
      "effectiveGasPrice": "0xe94cf",
      "from": "0xa6b3d200cd34ca14d7579dac8b054bf50a62c37c",
      "to": "0x803d9e7c42844670db6f5b14fa96d95c23e43572",
      "contractAddress": null,
      "l1BaseFeeScalar": "0x44d",
      "l1BlobBaseFee": "0x98",
      "l1BlobBaseFeeScalar": "0xa118b",
      "l1Fee": "0x2767",
      "l1GasPrice": "0x21",
      "l1GasUsed": "0x640"
    },
    {
      "status": "0x1",
      "cumulativeGasUsed": "0x354885",
      "logs": [
        {
          "address": "0xa4d604c70c4695364d25760d2ad07b07a3de2ad1",
          "topics": [
            "0xddf252ad1be2c89b69c2b068fc378daa952ba7f163c4a11628f55a4df523b3ef",
            "0x000000000000000000000000803d9e7c42844670db6f5b14fa96d95c23e43572",
            "0x000000000000000000000000a6b3d200cd34ca14d7579dac8b054bf50a62c37c"
          ],
          "data": "0x00000000000000000000000000000000000000000000000006f05b59d3b20000",
          "blockHash": "0xbae1bc2eaad0d70f2c5abcc6823679f639276cbf144d687cb47d606b9d51ba15",
          "blockNumber": "0x1977220",
          "blockTimestamp": "0x68424320",
          "transactionHash": "0x0d751cb2826e6061ccc6c4fd28a63eda1e223875df8cfd69c69e064377b704ee",
          "transactionIndex": "0x16",
          "logIndex": "0x50",
          "removed": false
        },
        {
          "address": "0x803d9e7c42844670db6f5b14fa96d95c23e43572",
          "topics": [
            "0x2399e8aed1977410745a5211d8226a3a7d9278f50a8a197c5ec6e285bb437f0b",
            "0x0000000000000000000000000000000000000000000000000000000000000001"
          ],
          "data": "0x00000000000000000000000000000000000000000000000006f05b59d3b20000",
          "blockHash": "0xbae1bc2eaad0d70f2c5abcc6823679f639276cbf144d687cb47d606b9d51ba15",
          "blockNumber": "0x1977220",
          "blockTimestamp": "0x68424320",
          "transactionHash": "0x0d751cb2826e6061ccc6c4fd28a63eda1e223875df8cfd69c69e064377b704ee",
          "transactionIndex": "0x16",
          "logIndex": "0x51",
          "removed": false
        }
      ],
      "logsBloom": "0x00000000000000000000000400000000000000000000000002000000000000010000000001000000000000000000000000000000000000000000000000040000000000000000000000001008000000000010000002040000000000000000000000000000000000000000000000000000000000000020000000000010000000000000000000000000000000000000000000000000000060000000000000000000000000000000000000000000000000000100000000000000000000000000000000000042000000000000000000000000000000400000800000000000000040100000000000000000000000000000000000000000000000000000000000000000",
      "type": "0x2",
      "transactionHash": "0x0d751cb2826e6061ccc6c4fd28a63eda1e223875df8cfd69c69e064377b704ee",
      "transactionIndex": "0x16",
      "blockHash": "0xbae1bc2eaad0d70f2c5abcc6823679f639276cbf144d687cb47d606b9d51ba15",
      "blockNumber": "0x1977220",
      "gasUsed": "0x168e1",
      "effectiveGasPrice": "0xe94cf",
      "from": "0xa6b3d200cd34ca14d7579dac8b054bf50a62c37c",
      "to": "0x803d9e7c42844670db6f5b14fa96d95c23e43572",
      "contractAddress": null,
      "l1BaseFeeScalar": "0x44d",
      "l1BlobBaseFee": "0x98",
      "l1BlobBaseFeeScalar": "0xa118b",
      "l1Fee": "0x2767",
      "l1GasPrice": "0x21",
      "l1GasUsed": "0x640"
    }
  ],
  "libraries": [],
  "pending": [],
  "returns": {},
  "timestamp": 1749173027,
  "chain": 84532,
  "commit": "ecf4992"
}