{
  "transactions": [
    {
      "hash": "0xcf35b30634e8bb451d3c8a4c84cbd7714d421d4b800c03fcfc135812f30083e6",
      "transactionType": "CALL",
      "contractName": null,
      "contractAddress": "0x09c68e4689f62fdde6bd9d05b3794533825f294c",
      "function": "approve(address,uint256)",
      "arguments": [
        "0xbF8f9F5e8A5A77ba627CF0CFed11e48bDE0ac36b",
        "5000000000000000000"
      ],
      "transaction": {
        "from": "0xa6b3d200cd34ca14d7579dac8b054bf50a62c37c",
        "to": "0x09c68e4689f62fdde6bd9d05b3794533825f294c",
        "gas": "0xf7f5",
        "value": "0x0",
        "input": "0x095ea7b3000000000000000000000000bf8f9f5e8a5a77ba627cf0cfed11e48bde0ac36b0000000000000000000000000000000000000000000000004563918244f40000",
        "nonce": "0x7b5",
        "chainId": "0x14a34"
      },
      "additionalContracts": [],
      "isFixedGasLimit": false
    },
    {
      "hash": "0x1e676585d628d02a2a5dd8e1e9e6cf16bf758d5e54d7de6877b7d0f4d96cac90",
      "transactionType": "CALL",
      "contractName": null,
      "contractAddress": "0xbf8f9f5e8a5a77ba627cf0cfed11e48bde0ac36b",
      "function": "createLoan((address,address,uint256,uint256,uint256,uint256,uint256))",
      "arguments": [
        "(0x09c68E4689f62fdde6BD9d05B3794533825f294c, 0xE97C88CC04F3D9419A8F098eC22963Ce8D110661, 5000000000000000000, 2000000000, 700000, 80000, 0)"
      ],
      "transaction": {
        "from": "0xa6b3d200cd34ca14d7579dac8b054bf50a62c37c",
        "to": "0xbf8f9f5e8a5a77ba627cf0cfed11e48bde0ac36b",
        "gas": "0xb49f6",
        "value": "0x0",
        "input": "0xe37ccfec00000000000000000000000009c68e4689f62fdde6bd9d05b3794533825f294c000000000000000000000000e97c88cc04f3d9419a8f098ec22963ce8d1106610000000000000000000000000000000000000000000000004563918244f40000000000000000000000000000000000000000000000000000000000007735940000000000000000000000000000000000000000000000000000000000000aae6000000000000000000000000000000000000000000000000000000000000138800000000000000000000000000000000000000000000000000000000000000000",
        "nonce": "0x7b6",
        "chainId": "0x14a34"
      },
      "additionalContracts": [],
      "isFixedGasLimit": false
    },
    {
      "hash": "0xbff5b0f452befaa8c4a52f07b6fc07dcba14833f1a2de2267c956a6dfbc01d35",
      "transactionType": "CALL",
      "contractName": null,
      "contractAddress": "0xe97c88cc04f3d9419a8f098ec22963ce8d110661",
      "function": "approve(address,uint256)",
      "arguments": [
        "0x79Ad6507A5683C6411477144ceE6c68914072001",
        "10000000000"
      ],
      "transaction": {
        "from": "0xa6b3d200cd34ca14d7579dac8b054bf50a62c37c",
        "to": "0xe97c88cc04f3d9419a8f098ec22963ce8d110661",
        "gas": "0xf7d3",
        "value": "0x0",
        "input": "0x095ea7b300000000000000000000000079ad6507a5683c6411477144cee6c6891407200100000000000000000000000000000000000000000000000000000002540be400",
        "nonce": "0x7b7",
        "chainId": "0x14a34"
      },
      "additionalContracts": [],
      "isFixedGasLimit": false
    },
    {
      "hash": "0xaefceeddd522c6e3c81bbf6459d7ff1453df02c7bf703bb7c3ac2c624a6e8529",
      "transactionType": "CALL",
      "contractName": null,
      "contractAddress": "0x79ad6507a5683c6411477144cee6c68914072001",
      "function": "createLoan((address,address,uint256,uint256,uint256,uint256,uint256))",
      "arguments": [
        "(0xE97C88CC04F3D9419A8F098eC22963Ce8D110661, 0x09c68E4689f62fdde6BD9d05B3794533825f294c, 10000000000, 1000000000000000000, 500000, 75000, 0)"
      ],
      "transaction": {
        "from": "0xa6b3d200cd34ca14d7579dac8b054bf50a62c37c",
        "to": "0x79ad6507a5683c6411477144cee6c68914072001",
        "gas": "0xaf857",
        "value": "0x0",
        "input": "0xe37ccfec000000000000000000000000e97c88cc04f3d9419a8f098ec22963ce8d11066100000000000000000000000009c68e4689f62fdde6bd9d05b3794533825f294c00000000000000000000000000000000000000000000000000000002540be4000000000000000000000000000000000000000000000000000de0b6b3a7640000000000000000000000000000000000000000000000000000000000000007a12000000000000000000000000000000000000000000000000000000000000124f80000000000000000000000000000000000000000000000000000000000000000",
        "nonce": "0x7b8",
        "chainId": "0x14a34"
      },
      "additionalContracts": [],
      "isFixedGasLimit": false
    },
    {
      "hash": "0xc06d8cfe171623fe9089c1dfb29ebc3ea943ebf1a2d4395c26532ddc7095af0f",
      "transactionType": "CALL",
      "contractName": null,
      "contractAddress": "0x09c68e4689f62fdde6bd9d05b3794533825f294c",
      "function": "approve(address,uint256)",
      "arguments": [
        "0xbF8f9F5e8A5A77ba627CF0CFed11e48bDE0ac36b",
        "1000000000000000000"
      ],
      "transaction": {
        "from": "0xa6b3d200cd34ca14d7579dac8b054bf50a62c37c",
        "to": "0x09c68e4689f62fdde6bd9d05b3794533825f294c",
        "gas": "0xf7f5",
        "value": "0x0",
        "input": "0x095ea7b3000000000000000000000000bf8f9f5e8a5a77ba627cf0cfed11e48bde0ac36b0000000000000000000000000000000000000000000000000de0b6b3a7640000",
        "nonce": "0x7b9",
        "chainId": "0x14a34"
      },
      "additionalContracts": [],
      "isFixedGasLimit": false
    },
    {
      "hash": "0x60804915d241862003bd0874806e79407cae9cd83b0b9d6ed00ac63089ced2fb",
      "transactionType": "CALL",
      "contractName": null,
      "contractAddress": "0xbf8f9f5e8a5a77ba627cf0cfed11e48bde0ac36b",
      "function": "addCollateral(uint256,uint256)",
      "arguments": [
        "1",
        "1000000000000000000"
      ],
      "transaction": {
        "from": "0xa6b3d200cd34ca14d7579dac8b054bf50a62c37c",
        "to": "0xbf8f9f5e8a5a77ba627cf0cfed11e48bde0ac36b",
        "gas": "0x23eea",
        "value": "0x0",
        "input": "0xa8f35adf00000000000000000000000000000000000000000000000000000000000000010000000000000000000000000000000000000000000000000de0b6b3a7640000",
        "nonce": "0x7ba",
        "chainId": "0x14a34"
      },
      "additionalContracts": [],
      "isFixedGasLimit": false
    },
    {
      "hash": "0x305012c40c2dc981dca8aa956860925eb7d57c9412f32e0aa1183af7f679d018",
      "transactionType": "CALL",
      "contractName": null,
      "contractAddress": "0xbf8f9f5e8a5a77ba627cf0cfed11e48bde0ac36b",
      "function": "withdrawCollateral(uint256,uint256)",
      "arguments": [
        "1",
        "500000000000000000"
      ],
      "transaction": {
        "from": "0xa6b3d200cd34ca14d7579dac8b054bf50a62c37c",
        "to": "0xbf8f9f5e8a5a77ba627cf0cfed11e48bde0ac36b",
        "gas": "0x2fba6",
        "value": "0x0",
        "input": "0x767a7b05000000000000000000000000000000000000000000000000000000000000000100000000000000000000000000000000000000000000000006f05b59d3b20000",
        "nonce": "0x7bb",
        "chainId": "0x14a34"
      },
      "additionalContracts": [],
      "isFixedGasLimit": false
    }
  ],
  "receipts": [
    {
      "status": "0x1",
      "cumulativeGasUsed": "0x1d18c0",
      "logs": [
        {
          "address": "0x09c68e4689f62fdde6bd9d05b3794533825f294c",
          "topics": [
            "0x8c5be1e5ebec7d5bd14f71427d1e84f3dd0314c0f7b2291e5b200ac8c7c3b925",
            "0x000000000000000000000000a6b3d200cd34ca14d7579dac8b054bf50a62c37c",
            "0x000000000000000000000000bf8f9f5e8a5a77ba627cf0cfed11e48bde0ac36b"
          ],
          "data": "0x0000000000000000000000000000000000000000000000004563918244f40000",
          "blockHash": "0xb2986f06feb1fc61fd99f309ba33c08d77b2c7a42e8efed89b4ef60d4b57d5ca",
          "blockNumber": "0x19d3a49",
          "blockTimestamp": "0x684dd372",
          "transactionHash": "0xcf35b30634e8bb451d3c8a4c84cbd7714d421d4b800c03fcfc135812f30083e6",
          "transactionIndex": "0xc",
          "logIndex": "0x2f",
          "removed": false
        }
      ],
      "logsBloom": "0x00000000000004000000000400000000000000000000000002000000000000000000000000000000000000000000000000000000000000000000000000200400000000000000000000000000000000000000000080000000000000000000000000020000000000000000000000000000000000000000000000000000000000000000000000000000000000000000000000000000000000000000200000000000020000000000000000000000000000000000000000000000000000000000000000000040000000000000000000000000000000000000000000000000000000000010000000000000000000000000000000040000000000000000000000000000",
      "type": "0x2",
      "transactionHash": "0xcf35b30634e8bb451d3c8a4c84cbd7714d421d4b800c03fcfc135812f30083e6",
      "transactionIndex": "0xc",
      "blockHash": "0xb2986f06feb1fc61fd99f309ba33c08d77b2c7a42e8efed89b4ef60d4b57d5ca",
      "blockNumber": "0x19d3a49",
      "gasUsed": "0xb385",
      "effectiveGasPrice": "0x44db",
      "from": "0xa6b3d200cd34ca14d7579dac8b054bf50a62c37c",
      "to": "0x09c68e4689f62fdde6bd9d05b3794533825f294c",
      "contractAddress": null,
      "l1BaseFeeScalar": "0x44d",
      "l1BlobBaseFee": "0x1",
      "l1BlobBaseFeeScalar": "0xa118b",
      "l1Fee": "0x172fc3",
      "l1GasPrice": "0xd2962",
      "l1GasUsed": "0x640"
    },
    {
      "status": "0x1",
      "cumulativeGasUsed": "0x254508",
      "logs": [
        {
          "address": "0x09c68e4689f62fdde6bd9d05b3794533825f294c",
          "topics": [
            "0xddf252ad1be2c89b69c2b068fc378daa952ba7f163c4a11628f55a4df523b3ef",
            "0x000000000000000000000000a6b3d200cd34ca14d7579dac8b054bf50a62c37c",
            "0x000000000000000000000000bf8f9f5e8a5a77ba627cf0cfed11e48bde0ac36b"
          ],
          "data": "0x0000000000000000000000000000000000000000000000004563918244f40000",
          "blockHash": "0xb2986f06feb1fc61fd99f309ba33c08d77b2c7a42e8efed89b4ef60d4b57d5ca",
          "blockNumber": "0x19d3a49",
          "blockTimestamp": "0x684dd372",
          "transactionHash": "0x1e676585d628d02a2a5dd8e1e9e6cf16bf758d5e54d7de6877b7d0f4d96cac90",
          "transactionIndex": "0xd",
          "logIndex": "0x30",
          "removed": false
        },
        {
          "address": "0xe97c88cc04f3d9419a8f098ec22963ce8d110661",
          "topics": [
            "0xddf252ad1be2c89b69c2b068fc378daa952ba7f163c4a11628f55a4df523b3ef",
            "0x0000000000000000000000005d81190a1c162d81b7053b443bc914c7716b8930",
            "0x000000000000000000000000a6b3d200cd34ca14d7579dac8b054bf50a62c37c"
          ],
          "data": "0x0000000000000000000000000000000000000000000000000000000077359400",
          "blockHash": "0xb2986f06feb1fc61fd99f309ba33c08d77b2c7a42e8efed89b4ef60d4b57d5ca",
          "blockNumber": "0x19d3a49",
          "blockTimestamp": "0x684dd372",
          "transactionHash": "0x1e676585d628d02a2a5dd8e1e9e6cf16bf758d5e54d7de6877b7d0f4d96cac90",
          "transactionIndex": "0xd",
          "logIndex": "0x31",
          "removed": false
        },
        {
          "address": "0x5d81190a1c162d81b7053b443bc914c7716b8930",
          "topics": [
            "0x385feb58578c31f205b503905da1dec4c110dcdaac4a0dc43be298cae636307f",
            "0x000000000000000000000000e97c88cc04f3d9419a8f098ec22963ce8d110661"
          ],
          "data": "0x0000000000000000000000000000000000000000000000000000000000001f40",
          "blockHash": "0xb2986f06feb1fc61fd99f309ba33c08d77b2c7a42e8efed89b4ef60d4b57d5ca",
          "blockNumber": "0x19d3a49",
          "blockTimestamp": "0x684dd372",
          "transactionHash": "0x1e676585d628d02a2a5dd8e1e9e6cf16bf758d5e54d7de6877b7d0f4d96cac90",
          "transactionIndex": "0xd",
          "logIndex": "0x32",
          "removed": false
        },
        {
          "address": "0x5d81190a1c162d81b7053b443bc914c7716b8930",
          "topics": [
            "0xb088e70ab7e367eb8a026f0cf73edc838746f0f9761c510260ff489070d7b3c8",
            "0x000000000000000000000000e97c88cc04f3d9419a8f098ec22963ce8d110661",
            "0x000000000000000000000000a6b3d200cd34ca14d7579dac8b054bf50a62c37c"
          ],
          "data": "0x0000000000000000000000000000000000000000000000000000000077359400",
          "blockHash": "0xb2986f06feb1fc61fd99f309ba33c08d77b2c7a42e8efed89b4ef60d4b57d5ca",
          "blockNumber": "0x19d3a49",
          "blockTimestamp": "0x684dd372",
          "transactionHash": "0x1e676585d628d02a2a5dd8e1e9e6cf16bf758d5e54d7de6877b7d0f4d96cac90",
          "transactionIndex": "0xd",
          "logIndex": "0x33",
          "removed": false
        },
        {
          "address": "0xff7b41d19a2d4d6be1fc347d95e3ab70492193bc",
          "topics": [
            "0x9f0a7aaf8d18c024e8123bdcd157b0f6e0f42892a4ea14a2becc88a320a79922",
            "0x924cafe3f4668225141f2f2252ca17f67b629c2ff1426ac8ff340549f1266789",
            "0x000000000000000000000000a6b3d200cd34ca14d7579dac8b054bf50a62c37c"
          ],
          "data": "0x0000000000000000000000000000000000000000000000004563918244f400000000000000000000000000000000000000000000000000000000000000000001",
          "blockHash": "0xb2986f06feb1fc61fd99f309ba33c08d77b2c7a42e8efed89b4ef60d4b57d5ca",
          "blockNumber": "0x19d3a49",
          "blockTimestamp": "0x684dd372",
          "transactionHash": "0x1e676585d628d02a2a5dd8e1e9e6cf16bf758d5e54d7de6877b7d0f4d96cac90",
          "transactionIndex": "0xd",
          "logIndex": "0x34",
          "removed": false
        },
        {
          "address": "0xbf8f9f5e8a5a77ba627cf0cfed11e48bde0ac36b",
          "topics": [
            "0xcb5aa1675878bc9c8edd5d4265b7e06610564c809ed69560d24f5f284dd8c44b",
            "0x000000000000000000000000a6b3d200cd34ca14d7579dac8b054bf50a62c37c"
          ],
          "data": "0x0000000000000000000000000000000000000000000000004563918244f40000924cafe3f4668225141f2f2252ca17f67b629c2ff1426ac8ff340549f1266789",
          "blockHash": "0xb2986f06feb1fc61fd99f309ba33c08d77b2c7a42e8efed89b4ef60d4b57d5ca",
          "blockNumber": "0x19d3a49",
          "blockTimestamp": "0x684dd372",
          "transactionHash": "0x1e676585d628d02a2a5dd8e1e9e6cf16bf758d5e54d7de6877b7d0f4d96cac90",
          "transactionIndex": "0xd",
          "logIndex": "0x35",
          "removed": false
        },
        {
          "address": "0xbf8f9f5e8a5a77ba627cf0cfed11e48bde0ac36b",
          "topics": [
            "0x3c173f34da0900ded1a250c99de3d58cb900ce2841d93b11d877afee8b077a48",
            "0x0000000000000000000000000000000000000000000000000000000000000001",
            "0x000000000000000000000000a6b3d200cd34ca14d7579dac8b054bf50a62c37c"
          ],
          "data": "0x00000000000000000000000009c68e4689f62fdde6bd9d05b3794533825f294c000000000000000000000000e97c88cc04f3d9419a8f098ec22963ce8d1106610000000000000000000000000000000000000000000000004563918244f400000000000000000000000000000000000000000000000000000000000077359400",
          "blockHash": "0xb2986f06feb1fc61fd99f309ba33c08d77b2c7a42e8efed89b4ef60d4b57d5ca",
          "blockNumber": "0x19d3a49",
          "blockTimestamp": "0x684dd372",
          "transactionHash": "0x1e676585d628d02a2a5dd8e1e9e6cf16bf758d5e54d7de6877b7d0f4d96cac90",
          "transactionIndex": "0xd",
          "logIndex": "0x36",
          "removed": false
        }
      ],
      "logsBloom": "0x00000020000004000040020420200000010000000000000202000000100100000000000002000000000000000000000000002000000010000000000000040400000000000000000000000008020000000000000080040010000010000000000000020000100100000000002000000000000000000400000000000010000000000000008000000000000000000000000000000000008000000000380000000000000000000040008000000000000000000000082000000000000000000400000000000042000000000000000000000000000000400000000004000020010040000000080000000000000000000000000001840000000000000000000000000000",
      "type": "0x2",
      "transactionHash": "0x1e676585d628d02a2a5dd8e1e9e6cf16bf758d5e54d7de6877b7d0f4d96cac90",
      "transactionIndex": "0xd",
      "blockHash": "0xb2986f06feb1fc61fd99f309ba33c08d77b2c7a42e8efed89b4ef60d4b57d5ca",
      "blockNumber": "0x19d3a49",
      "gasUsed": "0x82c48",
      "effectiveGasPrice": "0x44db",
      "from": "0xa6b3d200cd34ca14d7579dac8b054bf50a62c37c",
      "to": "0xbf8f9f5e8a5a77ba627cf0cfed11e48bde0ac36b",
      "contractAddress": null,
      "l1BaseFeeScalar": "0x44d",
      "l1BlobBaseFee": "0x1",
      "l1BlobBaseFeeScalar": "0xa118b",
      "l1Fee": "0x20687f",
      "l1GasPrice": "0xd2962",
      "l1GasUsed": "0x8bc"
    },
    {
      "status": "0x1",
      "cumulativeGasUsed": "0x25f875",
      "logs": [
        {
          "address": "0xe97c88cc04f3d9419a8f098ec22963ce8d110661",
          "topics": [
            "0x8c5be1e5ebec7d5bd14f71427d1e84f3dd0314c0f7b2291e5b200ac8c7c3b925",
            "0x000000000000000000000000a6b3d200cd34ca14d7579dac8b054bf50a62c37c",
            "0x00000000000000000000000079ad6507a5683c6411477144cee6c68914072001"
          ],
          "data": "0x00000000000000000000000000000000000000000000000000000002540be400",
          "blockHash": "0xb2986f06feb1fc61fd99f309ba33c08d77b2c7a42e8efed89b4ef60d4b57d5ca",
          "blockNumber": "0x19d3a49",
          "blockTimestamp": "0x684dd372",
          "transactionHash": "0xbff5b0f452befaa8c4a52f07b6fc07dcba14833f1a2de2267c956a6dfbc01d35",
          "transactionIndex": "0xe",
          "logIndex": "0x37",
          "removed": false
        }
      ],
      "logsBloom": "0x00000020000000000000000400000000010000000000000002000000000000000000000000000000000000000000000000000000000000000000000000200000000000000000000000000000000000000000000000000000000000000000000000000000000000004000000000000000100000000000000000000000000000000000000000000000100000000000000000000000000000000000000000000000020000000000000000000000000000000000080000000000000000000000000000000040000000000000000000000000000000000000000000000000000000000010000000000000000000000000000000000000000000000000000000000000",
      "type": "0x2",
      "transactionHash": "0xbff5b0f452befaa8c4a52f07b6fc07dcba14833f1a2de2267c956a6dfbc01d35",
      "transactionIndex": "0xe",
      "blockHash": "0xb2986f06feb1fc61fd99f309ba33c08d77b2c7a42e8efed89b4ef60d4b57d5ca",
      "blockNumber": "0x19d3a49",
      "gasUsed": "0xb36d",
      "effectiveGasPrice": "0x44db",
      "from": "0xa6b3d200cd34ca14d7579dac8b054bf50a62c37c",
      "to": "0xe97c88cc04f3d9419a8f098ec22963ce8d110661",
      "contractAddress": null,
      "l1BaseFeeScalar": "0x44d",
      "l1BlobBaseFee": "0x1",
      "l1BlobBaseFeeScalar": "0xa118b",
      "l1Fee": "0x172fc3",
      "l1GasPrice": "0xd2962",
      "l1GasUsed": "0x640"
    },
    {
      "status": "0x1",
      "cumulativeGasUsed": "0x2de9a5",
      "logs": [
        {
          "address": "0xe97c88cc04f3d9419a8f098ec22963ce8d110661",
          "topics": [
            "0xddf252ad1be2c89b69c2b068fc378daa952ba7f163c4a11628f55a4df523b3ef",
            "0x000000000000000000000000a6b3d200cd34ca14d7579dac8b054bf50a62c37c",
            "0x00000000000000000000000079ad6507a5683c6411477144cee6c68914072001"
          ],
          "data": "0x00000000000000000000000000000000000000000000000000000002540be400",
          "blockHash": "0xb2986f06feb1fc61fd99f309ba33c08d77b2c7a42e8efed89b4ef60d4b57d5ca",
          "blockNumber": "0x19d3a49",
          "blockTimestamp": "0x684dd372",
          "transactionHash": "0xaefceeddd522c6e3c81bbf6459d7ff1453df02c7bf703bb7c3ac2c624a6e8529",
          "transactionIndex": "0xf",
          "logIndex": "0x38",
          "removed": false
        },
        {
          "address": "0xff7b41d19a2d4d6be1fc347d95e3ab70492193bc",
          "topics": [
            "0x9f0a7aaf8d18c024e8123bdcd157b0f6e0f42892a4ea14a2becc88a320a79922",
            "0x88ef8906c27d3e6af98ad7a5cf53c31a771fadb410370749ce5bf0cdb279c3b6",
            "0x000000000000000000000000a6b3d200cd34ca14d7579dac8b054bf50a62c37c"
          ],
          "data": "0x00000000000000000000000000000000000000000000000000000002540be4000000000000000000000000000000000000000000000000000000000000000001",
          "blockHash": "0xb2986f06feb1fc61fd99f309ba33c08d77b2c7a42e8efed89b4ef60d4b57d5ca",
          "blockNumber": "0x19d3a49",
          "blockTimestamp": "0x684dd372",
          "transactionHash": "0xaefceeddd522c6e3c81bbf6459d7ff1453df02c7bf703bb7c3ac2c624a6e8529",
          "transactionIndex": "0xf",
          "logIndex": "0x39",
          "removed": false
        },
        {
          "address": "0x79ad6507a5683c6411477144cee6c68914072001",
          "topics": [
            "0xcb5aa1675878bc9c8edd5d4265b7e06610564c809ed69560d24f5f284dd8c44b",
            "0x000000000000000000000000a6b3d200cd34ca14d7579dac8b054bf50a62c37c"
          ],
          "data": "0x00000000000000000000000000000000000000000000000000000002540be40088ef8906c27d3e6af98ad7a5cf53c31a771fadb410370749ce5bf0cdb279c3b6",
          "blockHash": "0xb2986f06feb1fc61fd99f309ba33c08d77b2c7a42e8efed89b4ef60d4b57d5ca",
          "blockNumber": "0x19d3a49",
          "blockTimestamp": "0x684dd372",
          "transactionHash": "0xaefceeddd522c6e3c81bbf6459d7ff1453df02c7bf703bb7c3ac2c624a6e8529",
          "transactionIndex": "0xf",
          "logIndex": "0x3a",
          "removed": false
        },
        {
          "address": "0x09c68e4689f62fdde6bd9d05b3794533825f294c",
          "topics": [
            "0xddf252ad1be2c89b69c2b068fc378daa952ba7f163c4a11628f55a4df523b3ef",
            "0x0000000000000000000000005d81190a1c162d81b7053b443bc914c7716b8930",
            "0x000000000000000000000000a6b3d200cd34ca14d7579dac8b054bf50a62c37c"
          ],
          "data": "0x0000000000000000000000000000000000000000000000000de0b6b3a7640000",
          "blockHash": "0xb2986f06feb1fc61fd99f309ba33c08d77b2c7a42e8efed89b4ef60d4b57d5ca",
          "blockNumber": "0x19d3a49",
          "blockTimestamp": "0x684dd372",
          "transactionHash": "0xaefceeddd522c6e3c81bbf6459d7ff1453df02c7bf703bb7c3ac2c624a6e8529",
          "transactionIndex": "0xf",
          "logIndex": "0x3b",
          "removed": false
        },
        {
          "address": "0x5d81190a1c162d81b7053b443bc914c7716b8930",
          "topics": [
            "0x385feb58578c31f205b503905da1dec4c110dcdaac4a0dc43be298cae636307f",
            "0x00000000000000000000000009c68e4689f62fdde6bd9d05b3794533825f294c"
          ],
          "data": "0x0000000000000000000000000000000000000000000000000000000000002710",
          "blockHash": "0xb2986f06feb1fc61fd99f309ba33c08d77b2c7a42e8efed89b4ef60d4b57d5ca",
          "blockNumber": "0x19d3a49",
          "blockTimestamp": "0x684dd372",
          "transactionHash": "0xaefceeddd522c6e3c81bbf6459d7ff1453df02c7bf703bb7c3ac2c624a6e8529",
          "transactionIndex": "0xf",
          "logIndex": "0x3c",
          "removed": false
        },
        {
          "address": "0x5d81190a1c162d81b7053b443bc914c7716b8930",
          "topics": [
            "0xb088e70ab7e367eb8a026f0cf73edc838746f0f9761c510260ff489070d7b3c8",
            "0x00000000000000000000000009c68e4689f62fdde6bd9d05b3794533825f294c",
            "0x000000000000000000000000a6b3d200cd34ca14d7579dac8b054bf50a62c37c"
          ],
          "data": "0x0000000000000000000000000000000000000000000000000de0b6b3a7640000",
          "blockHash": "0xb2986f06feb1fc61fd99f309ba33c08d77b2c7a42e8efed89b4ef60d4b57d5ca",
          "blockNumber": "0x19d3a49",
          "blockTimestamp": "0x684dd372",
          "transactionHash": "0xaefceeddd522c6e3c81bbf6459d7ff1453df02c7bf703bb7c3ac2c624a6e8529",
          "transactionIndex": "0xf",
          "logIndex": "0x3d",
          "removed": false
        },
        {
          "address": "0x79ad6507a5683c6411477144cee6c68914072001",
          "topics": [
            "0x3c173f34da0900ded1a250c99de3d58cb900ce2841d93b11d877afee8b077a48",
            "0x0000000000000000000000000000000000000000000000000000000000000001",
            "0x000000000000000000000000a6b3d200cd34ca14d7579dac8b054bf50a62c37c"
          ],
          "data": "0x000000000000000000000000e97c88cc04f3d9419a8f098ec22963ce8d11066100000000000000000000000009c68e4689f62fdde6bd9d05b3794533825f294c00000000000000000000000000000000000000000000000000000002540be4000000000000000000000000000000000000000000000000000de0b6b3a7640000",
          "blockHash": "0xb2986f06feb1fc61fd99f309ba33c08d77b2c7a42e8efed89b4ef60d4b57d5ca",
          "blockNumber": "0x19d3a49",
          "blockTimestamp": "0x684dd372",
          "transactionHash": "0xaefceeddd522c6e3c81bbf6459d7ff1453df02c7bf703bb7c3ac2c624a6e8529",
          "transactionIndex": "0xf",
          "logIndex": "0x3e",
          "removed": false
        }
      ],
      "logsBloom": "0x200000200000040000400204200000000100000000000002020000000001000000000000020000000000000000000000000020000000100000000000000400000000000000000000000000080200000000000000000c000020001000000000000002000010010040400000000000000010000000050000000000001000000000000000c800000000100000000000000000000000008100000000180000000000000000000040000000000000000000000000080000000000000000000000000000000042000000000000000000000000000000400000000004000000010040000000000200000000000000000000000001840000000000000000000000000000",
      "type": "0x2",
      "transactionHash": "0xaefceeddd522c6e3c81bbf6459d7ff1453df02c7bf703bb7c3ac2c624a6e8529",
      "transactionIndex": "0xf",
      "blockHash": "0xb2986f06feb1fc61fd99f309ba33c08d77b2c7a42e8efed89b4ef60d4b57d5ca",
      "blockNumber": "0x19d3a49",
      "gasUsed": "0x7f130",
      "effectiveGasPrice": "0x44db",
      "from": "0xa6b3d200cd34ca14d7579dac8b054bf50a62c37c",
      "to": "0x79ad6507a5683c6411477144cee6c68914072001",
      "contractAddress": null,
      "l1BaseFeeScalar": "0x44d",
      "l1BlobBaseFee": "0x1",
      "l1BlobBaseFeeScalar": "0xa118b",
      "l1Fee": "0x1fd38a",
      "l1GasPrice": "0xd2962",
      "l1GasUsed": "0x894"
    },
    {
      "status": "0x1",
      "cumulativeGasUsed": "0x30d2f3",
      "logs": [
        {
          "address": "0x09c68e4689f62fdde6bd9d05b3794533825f294c",
          "topics": [
            "0x8c5be1e5ebec7d5bd14f71427d1e84f3dd0314c0f7b2291e5b200ac8c7c3b925",
            "0x000000000000000000000000a6b3d200cd34ca14d7579dac8b054bf50a62c37c",
            "0x000000000000000000000000bf8f9f5e8a5a77ba627cf0cfed11e48bde0ac36b"
          ],
          "data": "0x0000000000000000000000000000000000000000000000000de0b6b3a7640000",
          "blockHash": "0x66450d0f2888c62bf7c4931a9a4f7f184e95a3c239cb5dc5e3737f1dd6802939",
          "blockNumber": "0x19d3a49",
          "blockTimestamp": "0x684dd372",
          "transactionHash": "0xc06d8cfe171623fe9089c1dfb29ebc3ea943ebf1a2d4395c26532ddc7095af0f",
          "transactionIndex": "0x12",
          "logIndex": "0x43",
          "removed": false
        }
      ],
      "logsBloom": "0x00000000000004000000000400000000000000000000000002000000000000000000000000000000000000000000000000000000000000000000000000200400000000000000000000000000000000000000000080000000000000000000000000020000000000000000000000000000000000000000000000000000000000000000000000000000000000000000000000000000000000000000200000000000020000000000000000000000000000000000000000000000000000000000000000000040000000000000000000000000000000000000000000000000000000000010000000000000000000000000000000040000000000000000000000000000",
      "type": "0x2",
      "transactionHash": "0xc06d8cfe171623fe9089c1dfb29ebc3ea943ebf1a2d4395c26532ddc7095af0f",
      "transactionIndex": "0x12",
      "blockHash": "0x66450d0f2888c62bf7c4931a9a4f7f184e95a3c239cb5dc5e3737f1dd6802939",
      "blockNumber": "0x19d3a49",
      "gasUsed": "0xb385",
      "effectiveGasPrice": "0x44db",
      "from": "0xa6b3d200cd34ca14d7579dac8b054bf50a62c37c",
      "to": "0x09c68e4689f62fdde6bd9d05b3794533825f294c",
      "contractAddress": null,
      "l1BaseFeeScalar": "0x44d",
      "l1BlobBaseFee": "0x1",
      "l1BlobBaseFeeScalar": "0xa118b",
      "l1Fee": "0x172fc3",
      "l1GasPrice": "0xd2962",
      "l1GasUsed": "0x640"
    },
    {
      "status": "0x1",
      "cumulativeGasUsed": "0x325c0e",
      "logs": [
        {
          "address": "0x09c68e4689f62fdde6bd9d05b3794533825f294c",
          "topics": [
            "0xddf252ad1be2c89b69c2b068fc378daa952ba7f163c4a11628f55a4df523b3ef",
            "0x000000000000000000000000a6b3d200cd34ca14d7579dac8b054bf50a62c37c",
            "0x000000000000000000000000bf8f9f5e8a5a77ba627cf0cfed11e48bde0ac36b"
          ],
          "data": "0x0000000000000000000000000000000000000000000000000de0b6b3a7640000",
          "blockHash": "0x66450d0f2888c62bf7c4931a9a4f7f184e95a3c239cb5dc5e3737f1dd6802939",
          "blockNumber": "0x19d3a49",
          "blockTimestamp": "0x684dd372",
          "transactionHash": "0x60804915d241862003bd0874806e79407cae9cd83b0b9d6ed00ac63089ced2fb",
          "transactionIndex": "0x13",
          "logIndex": "0x44",
          "removed": false
        },
        {
          "address": "0xff7b41d19a2d4d6be1fc347d95e3ab70492193bc",
          "topics": [
            "0x9f0a7aaf8d18c024e8123bdcd157b0f6e0f42892a4ea14a2becc88a320a79922",
            "0x924cafe3f4668225141f2f2252ca17f67b629c2ff1426ac8ff340549f1266789",
            "0x000000000000000000000000a6b3d200cd34ca14d7579dac8b054bf50a62c37c"
          ],
          "data": "0x0000000000000000000000000000000000000000000000000de0b6b3a76400000000000000000000000000000000000000000000000000000000000000000001",
          "blockHash": "0x66450d0f2888c62bf7c4931a9a4f7f184e95a3c239cb5dc5e3737f1dd6802939",
          "blockNumber": "0x19d3a49",
          "blockTimestamp": "0x684dd372",
          "transactionHash": "0x60804915d241862003bd0874806e79407cae9cd83b0b9d6ed00ac63089ced2fb",
          "transactionIndex": "0x13",
          "logIndex": "0x45",
          "removed": false
        },
        {
          "address": "0xbf8f9f5e8a5a77ba627cf0cfed11e48bde0ac36b",
          "topics": [
            "0xcb5aa1675878bc9c8edd5d4265b7e06610564c809ed69560d24f5f284dd8c44b",
            "0x000000000000000000000000a6b3d200cd34ca14d7579dac8b054bf50a62c37c"
          ],
          "data": "0x0000000000000000000000000000000000000000000000000de0b6b3a7640000924cafe3f4668225141f2f2252ca17f67b629c2ff1426ac8ff340549f1266789",
          "blockHash": "0x66450d0f2888c62bf7c4931a9a4f7f184e95a3c239cb5dc5e3737f1dd6802939",
          "blockNumber": "0x19d3a49",
          "blockTimestamp": "0x684dd372",
          "transactionHash": "0x60804915d241862003bd0874806e79407cae9cd83b0b9d6ed00ac63089ced2fb",
          "transactionIndex": "0x13",
          "logIndex": "0x46",
          "removed": false
        },
        {
          "address": "0xbf8f9f5e8a5a77ba627cf0cfed11e48bde0ac36b",
          "topics": [
            "0x244160b15e69cc411f041d94ae7fab6f6bba85dade8403216c05ff4b920d5449",
            "0x0000000000000000000000000000000000000000000000000000000000000001"
          ],
          "data": "0x0000000000000000000000000000000000000000000000000de0b6b3a7640000",
          "blockHash": "0x66450d0f2888c62bf7c4931a9a4f7f184e95a3c239cb5dc5e3737f1dd6802939",
          "blockNumber": "0x19d3a49",
          "blockTimestamp": "0x684dd372",
          "transactionHash": "0x60804915d241862003bd0874806e79407cae9cd83b0b9d6ed00ac63089ced2fb",
          "transactionIndex": "0x13",
          "logIndex": "0x47",
          "removed": false
        }
      ],
      "logsBloom": "0x00000000000004000000000400200000000000000000000202000000000000000000000000000000000000000000000000002000000200000000000000040400000000000000000000000008020000000000000080040010000010000000000000020000100100000000002000000000000000000000000000000010000000000000000000000000000000000000000000000000000000000000380000000000000000000000008000000000000000000000000000000000000000000000000000000042000000000000000000000010000000000000000000000020010040000000080000000080000000000000000000040000000000000000000000000000",
      "type": "0x2",
      "transactionHash": "0x60804915d241862003bd0874806e79407cae9cd83b0b9d6ed00ac63089ced2fb",
      "transactionIndex": "0x13",
      "blockHash": "0x66450d0f2888c62bf7c4931a9a4f7f184e95a3c239cb5dc5e3737f1dd6802939",
      "blockNumber": "0x19d3a49",
      "gasUsed": "0x1891b",
      "effectiveGasPrice": "0x44db",
      "from": "0xa6b3d200cd34ca14d7579dac8b054bf50a62c37c",
      "to": "0xbf8f9f5e8a5a77ba627cf0cfed11e48bde0ac36b",
      "contractAddress": null,
      "l1BaseFeeScalar": "0x44d",
      "l1BlobBaseFee": "0x1",
      "l1BlobBaseFeeScalar": "0xa118b",
      "l1Fee": "0x172fc3",
      "l1GasPrice": "0xd2962",
      "l1GasUsed": "0x640"
    },
    {
      "status": "0x1",
      "cumulativeGasUsed": "0x3484ed",
      "logs": [
        {
          "address": "0x09c68e4689f62fdde6bd9d05b3794533825f294c",
          "topics": [
            "0xddf252ad1be2c89b69c2b068fc378daa952ba7f163c4a11628f55a4df523b3ef",
            "0x000000000000000000000000bf8f9f5e8a5a77ba627cf0cfed11e48bde0ac36b",
            "0x000000000000000000000000a6b3d200cd34ca14d7579dac8b054bf50a62c37c"
          ],
          "data": "0x00000000000000000000000000000000000000000000000006f05b59d3b20000",
          "blockHash": "0x66450d0f2888c62bf7c4931a9a4f7f184e95a3c239cb5dc5e3737f1dd6802939",
          "blockNumber": "0x19d3a49",
          "blockTimestamp": "0x684dd372",
          "transactionHash": "0x305012c40c2dc981dca8aa956860925eb7d57c9412f32e0aa1183af7f679d018",
          "transactionIndex": "0x14",
          "logIndex": "0x48",
          "removed": false
        },
        {
          "address": "0xff7b41d19a2d4d6be1fc347d95e3ab70492193bc",
          "topics": [
            "0x9f0a7aaf8d18c024e8123bdcd157b0f6e0f42892a4ea14a2becc88a320a79922",
            "0x924cafe3f4668225141f2f2252ca17f67b629c2ff1426ac8ff340549f1266789",
            "0x000000000000000000000000a6b3d200cd34ca14d7579dac8b054bf50a62c37c"
          ],
          "data": "0x00000000000000000000000000000000000000000000000006f05b59d3b200000000000000000000000000000000000000000000000000000000000000000000",
          "blockHash": "0x66450d0f2888c62bf7c4931a9a4f7f184e95a3c239cb5dc5e3737f1dd6802939",
          "blockNumber": "0x19d3a49",
          "blockTimestamp": "0x684dd372",
          "transactionHash": "0x305012c40c2dc981dca8aa956860925eb7d57c9412f32e0aa1183af7f679d018",
          "transactionIndex": "0x14",
          "logIndex": "0x49",
          "removed": false
        },
        {
          "address": "0xbf8f9f5e8a5a77ba627cf0cfed11e48bde0ac36b",
          "topics": [
            "0xcb5aa1675878bc9c8edd5d4265b7e06610564c809ed69560d24f5f284dd8c44b",
            "0x000000000000000000000000a6b3d200cd34ca14d7579dac8b054bf50a62c37c"
          ],
          "data": "0x00000000000000000000000000000000000000000000000006f05b59d3b20000924cafe3f4668225141f2f2252ca17f67b629c2ff1426ac8ff340549f1266789",
          "blockHash": "0x66450d0f2888c62bf7c4931a9a4f7f184e95a3c239cb5dc5e3737f1dd6802939",
          "blockNumber": "0x19d3a49",
          "blockTimestamp": "0x684dd372",
          "transactionHash": "0x305012c40c2dc981dca8aa956860925eb7d57c9412f32e0aa1183af7f679d018",
          "transactionIndex": "0x14",
          "logIndex": "0x4a",
          "removed": false
        },
        {
          "address": "0xbf8f9f5e8a5a77ba627cf0cfed11e48bde0ac36b",
          "topics": [
            "0x2399e8aed1977410745a5211d8226a3a7d9278f50a8a197c5ec6e285bb437f0b",
            "0x0000000000000000000000000000000000000000000000000000000000000001"
          ],
          "data": "0x00000000000000000000000000000000000000000000000006f05b59d3b20000",
          "blockHash": "0x66450d0f2888c62bf7c4931a9a4f7f184e95a3c239cb5dc5e3737f1dd6802939",
          "blockNumber": "0x19d3a49",
          "blockTimestamp": "0x684dd372",
          "transactionHash": "0x305012c40c2dc981dca8aa956860925eb7d57c9412f32e0aa1183af7f679d018",
          "transactionIndex": "0x14",
          "logIndex": "0x4b",
          "removed": false
        }
      ],
      "logsBloom": "0x00000000000004000000000400200000000000000000000202000000000000000000000000000000000000000000000000002000000000000000000000040400000000000000000000000008020000000000000080040010000010000000000000020000100100000000002000000000000000000020000000000010000000000000000000000000000000000000000000000000000060000000380000000000000000000000008000000000000000000000000000000000000000000000000000000042000000000000000000000000000000000000000000000020010040000000080000000000000000000000000000040000000000000000000000000000",
      "type": "0x2",
      "transactionHash": "0x305012c40c2dc981dca8aa956860925eb7d57c9412f32e0aa1183af7f679d018",
      "transactionIndex": "0x14",
      "blockHash": "0x66450d0f2888c62bf7c4931a9a4f7f184e95a3c239cb5dc5e3737f1dd6802939",
      "blockNumber": "0x19d3a49",
      "gasUsed": "0x228df",
      "effectiveGasPrice": "0x44db",
      "from": "0xa6b3d200cd34ca14d7579dac8b054bf50a62c37c",
      "to": "0xbf8f9f5e8a5a77ba627cf0cfed11e48bde0ac36b",
      "contractAddress": null,
      "l1BaseFeeScalar": "0x44d",
      "l1BlobBaseFee": "0x1",
      "l1BlobBaseFeeScalar": "0xa118b",
      "l1Fee": "0x172fc3",
      "l1GasPrice": "0xd2962",
      "l1GasUsed": "0x640"
    }
  ],
  "libraries": [],
  "pending": [],
  "returns": {},
  "timestamp": 1749930865,
  "chain": 84532,
  "commit": "34f47c4"
}