{
  "transactions": [
    {
      "hash": "0x49c4343c3ecd8e4a5bac53680cf2d533c51775efab3a2489ba3a7ac098bc2b37",
      "transactionType": "CALL",
      "contractName": "MockETH",
      "contractAddress": "0x707e8084b5eb0036ed52094efaf23d47fb41bd3a",
      "function": "approve(address,uint256)",
      "arguments": [
        "0x2eCc7AE04d07C61aF95524244bfa7E6dc05AEBF2",
        "100000000000000000000"
      ],
      "transaction": {
        "from": "0xa6b3d200cd34ca14d7579dac8b054bf50a62c37c",
        "to": "0x707e8084b5eb0036ed52094efaf23d47fb41bd3a",
        "gas": "0x1069d",
        "value": "0x0",
        "input": "0x095ea7b30000000000000000000000002ecc7ae04d07c61af95524244bfa7e6dc05aebf20000000000000000000000000000000000000000000000056bc75e2d63100000",
        "nonce": "0x6da",
        "chainId": "0x14a34"
      },
      "additionalContracts": [],
      "isFixedGasLimit": false
    },
    {
      "hash": "0xf6e7d14bc16459dd81e31f3a922aea515f1693f05c443908bc6a8a61de1c2884",
      "transactionType": "CALL",
      "contractName": null,
      "contractAddress": "0x2ecc7ae04d07c61af95524244bfa7e6dc05aebf2",
      "function": "provideLiquidity(address,uint256,address)",
      "arguments": [
        "0x707E8084b5EB0036ed52094eFaF23D47fB41bd3a",
        "100000000000000000000",
        "0xA6B3D200cD34ca14d7579DAc8B054bf50a62c37c"
      ],
      "transaction": {
        "from": "0xa6b3d200cd34ca14d7579dac8b054bf50a62c37c",
        "to": "0x2ecc7ae04d07c61af95524244bfa7e6dc05aebf2",
        "gas": "0x4c296",
        "value": "0x0",
        "input": "0x98229cb8000000000000000000000000707e8084b5eb0036ed52094efaf23d47fb41bd3a0000000000000000000000000000000000000000000000056bc75e2d63100000000000000000000000000000a6b3d200cd34ca14d7579dac8b054bf50a62c37c",
        "nonce": "0x6db",
        "chainId": "0x14a34"
      },
      "additionalContracts": [],
      "isFixedGasLimit": false
    },
    {
      "hash": "0x21ae5e46ca6eb925b795fd5ed921126061b7f499f52ed411bae1f0dbbd162723",
      "transactionType": "CALL",
      "contractName": "MockUSDC",
      "contractAddress": "0xc31c4e718ed1e7c1d52b4076eee6c2308d92687b",
      "function": "approve(address,uint256)",
      "arguments": [
        "0x2eCc7AE04d07C61aF95524244bfa7E6dc05AEBF2",
        "250000000000"
      ],
      "transaction": {
        "from": "0xa6b3d200cd34ca14d7579dac8b054bf50a62c37c",
        "to": "0xc31c4e718ed1e7c1d52b4076eee6c2308d92687b",
        "gas": "0xf7d3",
        "value": "0x0",
        "input": "0x095ea7b30000000000000000000000002ecc7ae04d07c61af95524244bfa7e6dc05aebf20000000000000000000000000000000000000000000000000000003a35294400",
        "nonce": "0x6dc",
        "chainId": "0x14a34"
      },
      "additionalContracts": [],
      "isFixedGasLimit": false
    },
    {
      "hash": "0x6a79fae886509a4a59ad6521a6eb13ce62c1b3b7ed54c72e0266f483940be8e1",
      "transactionType": "CALL",
      "contractName": null,
      "contractAddress": "0x2ecc7ae04d07c61af95524244bfa7e6dc05aebf2",
      "function": "provideLiquidity(address,uint256,address)",
      "arguments": [
        "0xC31C4E718ED1E7c1d52b4076eeE6c2308D92687b",
        "250000000000",
        "0xA6B3D200cD34ca14d7579DAc8B054bf50a62c37c"
      ],
      "transaction": {
        "from": "0xa6b3d200cd34ca14d7579dac8b054bf50a62c37c",
        "to": "0x2ecc7ae04d07c61af95524244bfa7e6dc05aebf2",
        "gas": "0x4c273",
        "value": "0x0",
        "input": "0x98229cb8000000000000000000000000c31c4e718ed1e7c1d52b4076eee6c2308d92687b0000000000000000000000000000000000000000000000000000003a35294400000000000000000000000000a6b3d200cd34ca14d7579dac8b054bf50a62c37c",
        "nonce": "0x6dd",
        "chainId": "0x14a34"
      },
      "additionalContracts": [],
      "isFixedGasLimit": false
    }
  ],
  "receipts": [
    {
      "status": "0x1",
      "cumulativeGasUsed": "0x151399",
      "logs": [
        {
          "address": "0x707e8084b5eb0036ed52094efaf23d47fb41bd3a",
          "topics": [
            "0x8c5be1e5ebec7d5bd14f71427d1e84f3dd0314c0f7b2291e5b200ac8c7c3b925",
            "0x000000000000000000000000a6b3d200cd34ca14d7579dac8b054bf50a62c37c",
            "0x0000000000000000000000002ecc7ae04d07c61af95524244bfa7e6dc05aebf2"
          ],
          "data": "0x0000000000000000000000000000000000000000000000056bc75e2d63100000",
          "blockHash": "0x1eed9c4fcca53098d204cc82e6762fb122dd2b7bcfd3155f6167faec6d6d41f5",
          "blockNumber": "0x1976fc5",
          "blockTimestamp": "0x68423e6a",
          "transactionHash": "0x49c4343c3ecd8e4a5bac53680cf2d533c51775efab3a2489ba3a7ac098bc2b37",
          "transactionIndex": "0xa",
          "logIndex": "0x10",
          "removed": false
        }
      ],
      "logsBloom": "0x00000000000000000000000400000000000000000000000002000000000000000000000000000000000000000000000000000000000000000000000000200000000000000000000000000000000000000000000000000000000000000000000000000040000000000000000000000000000000000000000000000000000040000000000000000080000000000000000000000000000000000000100000000000020000000000000800000000000000000000000000000000000000000000000000000040000000000000000000000000000000000000000000000000000000000010000000000000000020000000000000000000000000000000000000000000",
      "type": "0x2",
      "transactionHash": "0x49c4343c3ecd8e4a5bac53680cf2d533c51775efab3a2489ba3a7ac098bc2b37",
      "transactionIndex": "0xa",
      "blockHash": "0x1eed9c4fcca53098d204cc82e6762fb122dd2b7bcfd3155f6167faec6d6d41f5",
      "blockNumber": "0x1976fc5",
      "gasUsed": "0xb391",
      "effectiveGasPrice": "0xf42d1",
      "from": "0xa6b3d200cd34ca14d7579dac8b054bf50a62c37c",
      "to": "0x707e8084b5eb0036ed52094efaf23d47fb41bd3a",
      "contractAddress": null,
      "l1BaseFeeScalar": "0x44d",
      "l1BlobBaseFee": "0xed",
      "l1BlobBaseFeeScalar": "0xa118b",
      "l1Fee": "0x3d70",
      "l1GasPrice": "0x33",
      "l1GasUsed": "0x640"
    },
    {
      "status": "0x1",
      "cumulativeGasUsed": "0x1854d2",
      "logs": [
        {
          "address": "0x707e8084b5eb0036ed52094efaf23d47fb41bd3a",
          "topics": [
            "0xddf252ad1be2c89b69c2b068fc378daa952ba7f163c4a11628f55a4df523b3ef",
            "0x000000000000000000000000a6b3d200cd34ca14d7579dac8b054bf50a62c37c",
            "0x0000000000000000000000002ecc7ae04d07c61af95524244bfa7e6dc05aebf2"
          ],
          "data": "0x0000000000000000000000000000000000000000000000056bc75e2d63100000",
          "blockHash": "0x1eed9c4fcca53098d204cc82e6762fb122dd2b7bcfd3155f6167faec6d6d41f5",
          "blockNumber": "0x1976fc5",
          "blockTimestamp": "0x68423e6a",
          "transactionHash": "0xf6e7d14bc16459dd81e31f3a922aea515f1693f05c443908bc6a8a61de1c2884",
          "transactionIndex": "0xb",
          "logIndex": "0x11",
          "removed": false
        },
        {
          "address": "0x2ecc7ae04d07c61af95524244bfa7e6dc05aebf2",
          "topics": [
            "0x385feb58578c31f205b503905da1dec4c110dcdaac4a0dc43be298cae636307f",
            "0x000000000000000000000000707e8084b5eb0036ed52094efaf23d47fb41bd3a"
          ],
          "data": "0x0000000000000000000000000000000000000000000000000000000000000000",
          "blockHash": "0x1eed9c4fcca53098d204cc82e6762fb122dd2b7bcfd3155f6167faec6d6d41f5",
          "blockNumber": "0x1976fc5",
          "blockTimestamp": "0x68423e6a",
          "transactionHash": "0xf6e7d14bc16459dd81e31f3a922aea515f1693f05c443908bc6a8a61de1c2884",
          "transactionIndex": "0xb",
          "logIndex": "0x12",
          "removed": false
        },
        {
          "address": "0x2ecc7ae04d07c61af95524244bfa7e6dc05aebf2",
          "topics": [
            "0x05e7be2689d5d20fd06bc749aa0d767080c4216945cacf5249f739d5a561d48f",
            "0x000000000000000000000000707e8084b5eb0036ed52094efaf23d47fb41bd3a",
            "0x000000000000000000000000a6b3d200cd34ca14d7579dac8b054bf50a62c37c"
          ],
          "data": "0x0000000000000000000000000000000000000000000000056bc75e2d63100000",
          "blockHash": "0x1eed9c4fcca53098d204cc82e6762fb122dd2b7bcfd3155f6167faec6d6d41f5",
          "blockNumber": "0x1976fc5",
          "blockTimestamp": "0x68423e6a",
          "transactionHash": "0xf6e7d14bc16459dd81e31f3a922aea515f1693f05c443908bc6a8a61de1c2884",
          "transactionIndex": "0xb",
          "logIndex": "0x13",
          "removed": false
        }
      ],
      "logsBloom": "0x00000000000000000000000400000000000000000000000002000000000000000000000000000000000000000000000000000000000000000000000000000000000000000000000000000008000000000000000000000200800000000000000000000040080000000000000000000000000000080400000000000010000040000001000000000080000000000000000000000000000000000000100000000000200000000040000800000000000000000000000000000000000000000000000000000042000020000000000000000000000000000000000000000000000000000000002000000000000020000000000000802000000000000000000000000000",
      "type": "0x2",
      "transactionHash": "0xf6e7d14bc16459dd81e31f3a922aea515f1693f05c443908bc6a8a61de1c2884",
      "transactionIndex": "0xb",
      "blockHash": "0x1eed9c4fcca53098d204cc82e6762fb122dd2b7bcfd3155f6167faec6d6d41f5",
      "blockNumber": "0x1976fc5",
      "gasUsed": "0x34139",
      "effectiveGasPrice": "0xf42d1",
      "from": "0xa6b3d200cd34ca14d7579dac8b054bf50a62c37c",
      "to": "0x2ecc7ae04d07c61af95524244bfa7e6dc05aebf2",
      "contractAddress": null,
      "l1BaseFeeScalar": "0x44d",
      "l1BlobBaseFee": "0xed",
      "l1BlobBaseFeeScalar": "0xa118b",
      "l1Fee": "0x45f1",
      "l1GasPrice": "0x33",
      "l1GasUsed": "0x71d"
    },
    {
      "status": "0x1",
      "cumulativeGasUsed": "0x31652c",
      "logs": [
        {
          "address": "0xc31c4e718ed1e7c1d52b4076eee6c2308d92687b",
          "topics": [
            "0x8c5be1e5ebec7d5bd14f71427d1e84f3dd0314c0f7b2291e5b200ac8c7c3b925",
            "0x000000000000000000000000a6b3d200cd34ca14d7579dac8b054bf50a62c37c",
            "0x0000000000000000000000002ecc7ae04d07c61af95524244bfa7e6dc05aebf2"
          ],
          "data": "0x0000000000000000000000000000000000000000000000000000003a35294400",
          "blockHash": "0x6d2be3541793a628747346c46ac4dbd8df980a21c607486f2802509de3ab1c35",
          "blockNumber": "0x1976fc5",
          "transactionHash": "0x21ae5e46ca6eb925b795fd5ed921126061b7f499f52ed411bae1f0dbbd162723",
          "transactionIndex": "0x15",
          "logIndex": "0x23",
          "removed": false
        }
      ],
      "logsBloom": "0x00000000000000000000000400000000000000000000000002000000000000000000000000000000000000000000000000000000000000000000000000200000000000000000200000000000000000000000000000000000000800000000000000000040000000000000000000000000000000000000000000000000000000000000000000000000000000000000000000000000000000000000100000000000020000000000000000000200000000000000000000000000000000000000000000000040000000000000000000000000000000000000000000000000000000000010000000000000000020000000000000000000000000000000000000000000",
      "type": "0x2",
      "transactionHash": "0x21ae5e46ca6eb925b795fd5ed921126061b7f499f52ed411bae1f0dbbd162723",
      "transactionIndex": "0x15",
      "blockHash": "0x6d2be3541793a628747346c46ac4dbd8df980a21c607486f2802509de3ab1c35",
      "blockNumber": "0x1976fc5",
      "gasUsed": "0xb36d",
      "effectiveGasPrice": "0xf4287",
      "from": "0xa6b3d200cd34ca14d7579dac8b054bf50a62c37c",
      "to": "0xc31c4e718ed1e7c1d52b4076eee6c2308d92687b",
      "contractAddress": null,
      "l1BaseFeeScalar": "0x44d",
      "l1BlobBaseFee": "0xed",
      "l1BlobBaseFeeScalar": "0xa118b",
      "l1Fee": "0x3d70",
      "l1GasPrice": "0x33",
      "l1GasUsed": "0x640"
    },
    {
      "status": "0x1",
      "cumulativeGasUsed": "0x34a64d",
      "logs": [
        {
          "address": "0xc31c4e718ed1e7c1d52b4076eee6c2308d92687b",
          "topics": [
            "0xddf252ad1be2c89b69c2b068fc378daa952ba7f163c4a11628f55a4df523b3ef",
            "0x000000000000000000000000a6b3d200cd34ca14d7579dac8b054bf50a62c37c",
            "0x0000000000000000000000002ecc7ae04d07c61af95524244bfa7e6dc05aebf2"
          ],
          "data": "0x0000000000000000000000000000000000000000000000000000003a35294400",
          "blockHash": "0x6d2be3541793a628747346c46ac4dbd8df980a21c607486f2802509de3ab1c35",
          "blockNumber": "0x1976fc5",
          "transactionHash": "0x6a79fae886509a4a59ad6521a6eb13ce62c1b3b7ed54c72e0266f483940be8e1",
          "transactionIndex": "0x16",
          "logIndex": "0x24",
          "removed": false
        },
        {
          "address": "0x2ecc7ae04d07c61af95524244bfa7e6dc05aebf2",
          "topics": [
            "0x385feb58578c31f205b503905da1dec4c110dcdaac4a0dc43be298cae636307f",
            "0x000000000000000000000000c31c4e718ed1e7c1d52b4076eee6c2308d92687b"
          ],
          "data": "0x0000000000000000000000000000000000000000000000000000000000000000",
          "blockHash": "0x6d2be3541793a628747346c46ac4dbd8df980a21c607486f2802509de3ab1c35",
          "blockNumber": "0x1976fc5",
          "transactionHash": "0x6a79fae886509a4a59ad6521a6eb13ce62c1b3b7ed54c72e0266f483940be8e1",
          "transactionIndex": "0x16",
          "logIndex": "0x25",
          "removed": false
        },
        {
          "address": "0x2ecc7ae04d07c61af95524244bfa7e6dc05aebf2",
          "topics": [
            "0x05e7be2689d5d20fd06bc749aa0d767080c4216945cacf5249f739d5a561d48f",
            "0x000000000000000000000000c31c4e718ed1e7c1d52b4076eee6c2308d92687b",
            "0x000000000000000000000000a6b3d200cd34ca14d7579dac8b054bf50a62c37c"
          ],
          "data": "0x0000000000000000000000000000000000000000000000000000003a35294400",
          "blockHash": "0x6d2be3541793a628747346c46ac4dbd8df980a21c607486f2802509de3ab1c35",
          "blockNumber": "0x1976fc5",
          "transactionHash": "0x6a79fae886509a4a59ad6521a6eb13ce62c1b3b7ed54c72e0266f483940be8e1",
          "transactionIndex": "0x16",
          "logIndex": "0x26",
          "removed": false
        }
      ],
      "logsBloom": "0x00000000000000000000000400000000000000000000000002000000000000000100000000000000000000000000000000000000000000000000000000000020000000000000200000000028000000000000000000000000800800000000000000000040080000000000000000000000000000080400000000000010000000000001000000000000000000000000000000000000000000000000100000000000200000000040000000000200000000000000000000000000000000000000000000000042000000000000000000000000000000000000000000000000000000000000000000000000000020000000000000802000000000000000000000000000",
      "type": "0x2",
      "transactionHash": "0x6a79fae886509a4a59ad6521a6eb13ce62c1b3b7ed54c72e0266f483940be8e1",
      "transactionIndex": "0x16",
      "blockHash": "0x6d2be3541793a628747346c46ac4dbd8df980a21c607486f2802509de3ab1c35",
      "blockNumber": "0x1976fc5",
      "gasUsed": "0x34121",
      "effectiveGasPrice": "0xf4287",
      "from": "0xa6b3d200cd34ca14d7579dac8b054bf50a62c37c",
      "to": "0x2ecc7ae04d07c61af95524244bfa7e6dc05aebf2",
      "contractAddress": null,
      "l1BaseFeeScalar": "0x44d",
      "l1BlobBaseFee": "0xed",
      "l1BlobBaseFeeScalar": "0xa118b",
      "l1Fee": "0x435f",
      "l1GasPrice": "0x33",
      "l1GasUsed": "0x6da"
    }
  ],
  "libraries": [],
  "pending": [],
  "returns": {},
  "timestamp": 1749171822,
  "chain": 84532,
  "commit": "ecf4992"
}