{
  "transactions": [
    {
      "hash": "0x84fb70b41d7ff9d6e34369c5322ea42acb8cf3ce6d6b4eccae1cf8c4e39dfd6a",
      "transactionType": "CALL",
      "contractName": null,
      "contractAddress": "0x111444fd9b2e748308057ab8983ddda8c262ceec",
      "function": "configureAsset(address,uint8,uint256,uint256,uint256,uint256)",
      "arguments": [
        "0xca09D6c5f9f5646A20b5EF71986EED5f8A86add0",
        "0",
        "1200000",
        "1050000",
        "1000000000000000000000",
        "80000"
      ],
      "transaction": {
        "from": "0xa6b3d200cd34ca14d7579dac8b054bf50a62c37c",
        "to": "0x111444fd9b2e748308057ab8983ddda8c262ceec",
        "gas": "0x135db",
        "value": "0x0",
        "input": "0x51e23bf1000000000000000000000000ca09d6c5f9f5646a20b5ef71986eed5f8a86add000000000000000000000000000000000000000000000000000000000000000000000000000000000000000000000000000000000000000000000000000124f80000000000000000000000000000000000000000000000000000000000010059000000000000000000000000000000000000000000000003635c9adc5dea000000000000000000000000000000000000000000000000000000000000000013880",
        "nonce": "0xd5e",
        "chainId": "0x14a34"
      },
      "additionalContracts": [],
      "isFixedGasLimit": false
    },
    {
      "hash": "0x9de32e1fef41cf65f21eeef1f81a54804c89c6d35c35c8190b2a55e231c354f6",
      "transactionType": "CALL",
      "contractName": null,
      "contractAddress": "0x111444fd9b2e748308057ab8983ddda8c262ceec",
      "function": "configureAsset(address,uint8,uint256,uint256,uint256,uint256)",
      "arguments": [
        "0xAdc9649EF0468d6C73B56Dc96fF6bb527B8251A0",
        "0",
        "1300000",
        "1100000",
        "1000000000000",
        "50000"
      ],
      "transaction": {
        "from": "0xa6b3d200cd34ca14d7579dac8b054bf50a62c37c",
        "to": "0x111444fd9b2e748308057ab8983ddda8c262ceec",
        "gas": "0x13599",
        "value": "0x0",
        "input": "0x51e23bf1000000000000000000000000adc9649ef0468d6c73b56dc96ff6bb527b8251a00000000000000000000000000000000000000000000000000000000000000000000000000000000000000000000000000000000000000000000000000013d620000000000000000000000000000000000000000000000000000000000010c8e0000000000000000000000000000000000000000000000000000000e8d4a51000000000000000000000000000000000000000000000000000000000000000c350",
        "nonce": "0xd5f",
        "chainId": "0x14a34"
      },
      "additionalContracts": [],
      "isFixedGasLimit": false
    },
    {
      "hash": "0x4170f675fc858fd6afce4f96c95d56d99f81ae414ce9074a6317e4607b9f1aab",
      "transactionType": "CALL",
      "contractName": null,
      "contractAddress": "0x111444fd9b2e748308057ab8983ddda8c262ceec",
      "function": "configureAsset(address,uint8,uint256,uint256,uint256,uint256)",
      "arguments": [
        "0x6C2AAf9cFb130d516401Ee769074F02fae6ACb91",
        "0",
        "1250000",
        "1080000",
        "10000000000",
        "90000"
      ],
      "transaction": {
        "from": "0xa6b3d200cd34ca14d7579dac8b054bf50a62c37c",
        "to": "0x111444fd9b2e748308057ab8983ddda8c262ceec",
        "gas": "0x147e1",
        "value": "0x0",
        "input": "0x51e23bf10000000000000000000000006c2aaf9cfb130d516401ee769074f02fae6acb91000000000000000000000000000000000000000000000000000000000000000000000000000000000000000000000000000000000000000000000000001312d00000000000000000000000000000000000000000000000000000000000107ac000000000000000000000000000000000000000000000000000000002540be4000000000000000000000000000000000000000000000000000000000000015f90",
        "nonce": "0xd60",
        "chainId": "0x14a34"
      },
      "additionalContracts": [],
      "isFixedGasLimit": false
    }
  ],
  "receipts": [
    {
      "status": "0x1",
      "cumulativeGasUsed": "0xd9f39",
      "logs": [
        {
          "address": "0x111444fd9b2e748308057ab8983ddda8c262ceec",
          "topics": [
            "0xef4fb1b25c475da87164d55f9cbc768c795bd55c6bd1255e7d1e5d058742a3a8",
            "0x000000000000000000000000ca09d6c5f9f5646a20b5ef71986eed5f8a86add0"
          ],
          "data": "0x00000000000000000000000000000000000000000000000000000000000000000000000000000000000000000000000000000000000000000000000000124f80",
          "blockHash": "0x775fddfddbe9aa32fee536590dafb5a8a9bbd9ce262fa0d8b407a5ecc189bd2d",
          "blockNumber": "0x19ebdfd",
          "transactionHash": "0x84fb70b41d7ff9d6e34369c5322ea42acb8cf3ce6d6b4eccae1cf8c4e39dfd6a",
          "transactionIndex": "0x4",
          "logIndex": "0x15",
          "removed": false
        }
      ],
      "logsBloom": "0x08000000000000000000000000000000000000000000000000000000000000000000000000000000000000000000000000000000000000000000000000000000000000000000000000000000000000000000000000000000000000000000000000000000000000000000000000000000000000000000800000000000000000000000008020200000000000000000000000000000400000000000000000000000000000000000000000000000000000000000000000000000000000000000000000000000000000000000000000000000000000100000000000000000000000000000000800000000000000080000000000000000000000000000000000000000",
      "type": "0x2",
      "transactionHash": "0x84fb70b41d7ff9d6e34369c5322ea42acb8cf3ce6d6b4eccae1cf8c4e39dfd6a",
      "transactionIndex": "0x4",
      "blockHash": "0x775fddfddbe9aa32fee536590dafb5a8a9bbd9ce262fa0d8b407a5ecc189bd2d",
      "blockNumber": "0x19ebdfd",
      "gasUsed": "0xe055",
      "effectiveGasPrice": "0x39c79",
      "from": "0xa6b3d200cd34ca14d7579dac8b054bf50a62c37c",
      "to": "0x111444fd9b2e748308057ab8983ddda8c262ceec",
      "contractAddress": null,
      "l1BaseFeeScalar": "0x44d",
      "l1BlobBaseFee": "0x1",
      "l1BlobBaseFeeScalar": "0xa118b",
      "l1Fee": "0x684ab",
      "l1GasPrice": "0x34c5a",
      "l1GasUsed": "0x702"
    },
    {
      "status": "0x1",
      "cumulativeGasUsed": "0xe7f5e",
      "logs": [
        {
          "address": "0x111444fd9b2e748308057ab8983ddda8c262ceec",
          "topics": [
            "0xef4fb1b25c475da87164d55f9cbc768c795bd55c6bd1255e7d1e5d058742a3a8",
            "0x000000000000000000000000adc9649ef0468d6c73b56dc96ff6bb527b8251a0"
          ],
          "data": "0x0000000000000000000000000000000000000000000000000000000000000000000000000000000000000000000000000000000000000000000000000013d620",
          "blockHash": "0x775fddfddbe9aa32fee536590dafb5a8a9bbd9ce262fa0d8b407a5ecc189bd2d",
          "blockNumber": "0x19ebdfd",
          "transactionHash": "0x9de32e1fef41cf65f21eeef1f81a54804c89c6d35c35c8190b2a55e231c354f6",
          "transactionIndex": "0x5",
          "logIndex": "0x16",
          "removed": false
        }
      ],
      "logsBloom": "0x08000000000000000000000000000000000000000000000000000000000000000000000000000000000000000000000000000000000000000000000000000000000000000000000000000000000000000000000000000000000000000000000000000000000000000000000000000000000010000000800000000000000000000000000020200000000000000000000000000000400000000000000000000000000000000000004000000000000000000000000000000000000000000000000000000000000000000000000000000000000000000000000000000000000080000000000000000000000000080000000000000000000000000000000000000000",
      "type": "0x2",
      "transactionHash": "0x9de32e1fef41cf65f21eeef1f81a54804c89c6d35c35c8190b2a55e231c354f6",
      "transactionIndex": "0x5",
      "blockHash": "0x775fddfddbe9aa32fee536590dafb5a8a9bbd9ce262fa0d8b407a5ecc189bd2d",
      "blockNumber": "0x19ebdfd",
      "gasUsed": "0xe025",
      "effectiveGasPrice": "0x39c79",
      "from": "0xa6b3d200cd34ca14d7579dac8b054bf50a62c37c",
      "to": "0x111444fd9b2e748308057ab8983ddda8c262ceec",
      "contractAddress": null,
      "l1BaseFeeScalar": "0x44d",
      "l1BlobBaseFee": "0x1",
      "l1BlobBaseFeeScalar": "0xa118b",
      "l1Fee": "0x652e4",
      "l1GasPrice": "0x34c5a",
      "l1GasUsed": "0x6cd"
    },
    {
      "status": "0x1",
      "cumulativeGasUsed": "0xf5f8f",
      "logs": [
        {
          "address": "0x111444fd9b2e748308057ab8983ddda8c262ceec",
          "topics": [
            "0xef4fb1b25c475da87164d55f9cbc768c795bd55c6bd1255e7d1e5d058742a3a8",
            "0x0000000000000000000000006c2aaf9cfb130d516401ee769074f02fae6acb91"
          ],
          "data": "0x000000000000000000000000000000000000000000000000000000000000000000000000000000000000000000000000000000000000000000000000001312d0",
          "blockHash": "0x775fddfddbe9aa32fee536590dafb5a8a9bbd9ce262fa0d8b407a5ecc189bd2d",
          "blockNumber": "0x19ebdfd",
          "transactionHash": "0x4170f675fc858fd6afce4f96c95d56d99f81ae414ce9074a6317e4607b9f1aab",
          "transactionIndex": "0x6",
          "logIndex": "0x17",
          "removed": false
        }
      ],
      "logsBloom": "0x08000000000000000000000000000000000000000000000000000000000000000000000000000000000000000000000000000000000000000000000000000000001000000000000000000000000000000000000000000000000000000000000000000000000000000000010000000000000000000000800000100000000000000000000020200000000000000000000000000000400000000000000000000000000000000000000000000000000000000000000000000000000000000000000000000000000000000000000000000000000000000000000000000000000000000000000000000000000000080000000000000000000000000000000000000000",
      "type": "0x2",
      "transactionHash": "0x4170f675fc858fd6afce4f96c95d56d99f81ae414ce9074a6317e4607b9f1aab",
      "transactionIndex": "0x6",
      "blockHash": "0x775fddfddbe9aa32fee536590dafb5a8a9bbd9ce262fa0d8b407a5ecc189bd2d",
      "blockNumber": "0x19ebdfd",
      "gasUsed": "0xe031",
      "effectiveGasPrice": "0x39c79",
      "from": "0xa6b3d200cd34ca14d7579dac8b054bf50a62c37c",
      "to": "0x111444fd9b2e748308057ab8983ddda8c262ceec",
      "contractAddress": null,
      "l1BaseFeeScalar": "0x44d",
      "l1BlobBaseFee": "0x1",
      "l1BlobBaseFeeScalar": "0xa118b",
      "l1Fee": "0x65f56",
      "l1GasPrice": "0x34c5a",
      "l1GasUsed": "0x6da"
    }
  ],
  "libraries": [],
  "pending": [],
  "returns": {},
  "timestamp": 1750129370,
  "chain": 84532,
  "commit": "e3173ca"
}