{
  "transactions": [
    {
      "hash": "0x8e6371b5b3eeed74680e498558c760843a9a291c873d9719d7d03ac3e7d47341",
      "transactionType": "CALL",
      "contractName": null,
      "contractAddress": "0x388f7d72fd879725e40d893fc1b5455036c7fd19",
      "function": "approve(address,uint256)",
      "arguments": [
        "0xe2AA5803F1baD51f092650De840Ea79547F26b7d",
        "115792089237316195423570985008687907853269984665640564039457584007913129639935"
      ],
      "transaction": {
        "from": "0xa6b3d200cd34ca14d7579dac8b054bf50a62c37c",
        "to": "0x388f7d72fd879725e40d893fc1b5455036c7fd19",
        "gas": "0x96a4",
        "value": "0x0",
        "input": "0x095ea7b3000000000000000000000000e2aa5803f1bad51f092650de840ea79547f26b7dffffffffffffffffffffffffffffffffffffffffffffffffffffffffffffffff",
        "nonce": "0xd77",
        "chainId": "0x14a34"
      },
      "additionalContracts": [],
      "isFixedGasLimit": false
    },
    {
      "hash": "0xd407b768e3edf3da73381bce28c1783a9fc17e648a1a668df8fc807a63c9aaf5",
      "transactionType": "CALL",
      "contractName": null,
      "contractAddress": "0xe2aa5803f1bad51f092650de840ea79547f26b7d",
      "function": "createLoan((address,address,uint256,uint256,uint256,uint256,uint256))",
      "arguments": [
        "(0x388F7D72FD879725E40d893Fc1b5455036C7fd19, 0x009A513d97e55C77060C303f74eE66a991Bd3f08, 827000000000000000, 2000000000, 950000, 50000, 0)"
      ],
      "transaction": {
        "from": "0xa6b3d200cd34ca14d7579dac8b054bf50a62c37c",
        "to": "0xe2aa5803f1bad51f092650de840ea79547f26b7d",
        "gas": "0xa0539",
        "value": "0x0",
        "input": "0xe37ccfec000000000000000000000000388f7d72fd879725e40d893fc1b5455036c7fd19000000000000000000000000009a513d97e55c77060c303f74ee66a991bd3f080000000000000000000000000000000000000000000000000b7a181e4d3f8000000000000000000000000000000000000000000000000000000000007735940000000000000000000000000000000000000000000000000000000000000e7ef0000000000000000000000000000000000000000000000000000000000000c3500000000000000000000000000000000000000000000000000000000000000000",
        "nonce": "0xd78",
        "chainId": "0x14a34"
      },
      "additionalContracts": [],
      "isFixedGasLimit": false
    }
  ],
  "receipts": [
    {
      "status": "0x1",
      "cumulativeGasUsed": "0x1cbb81",
      "logs": [
        {
          "address": "0x388f7d72fd879725e40d893fc1b5455036c7fd19",
          "topics": [
            "0x8c5be1e5ebec7d5bd14f71427d1e84f3dd0314c0f7b2291e5b200ac8c7c3b925",
            "0x000000000000000000000000a6b3d200cd34ca14d7579dac8b054bf50a62c37c",
            "0x000000000000000000000000e2aa5803f1bad51f092650de840ea79547f26b7d"
          ],
          "data": "0xffffffffffffffffffffffffffffffffffffffffffffffffffffffffffffffff",
          "blockHash": "0xb6c6158bccea39b3e9159a719ed9a471fc47a6030eb687071d856c9358163ff9",
          "blockNumber": "0x19ec0a1",
          "transactionHash": "0x8e6371b5b3eeed74680e498558c760843a9a291c873d9719d7d03ac3e7d47341",
          "transactionIndex": "0xa",
          "logIndex": "0x2c",
          "removed": false
        }
      ],
      "logsBloom": "0x00000000000000000000000400000000000000080000000002000000000000000000000000000000000000000000000000000000000000000000000000200000000000000000000000000000000000000000000000000000000000000000000000000000000000000000000000000000000000000000000000000000000000000000000000000000002000000000000000000000000000000000000002000000020000000000040000000000000000000000000000000000000000000000000000000040000000000000000000000000002400000000000000000000000000000010000000000000000000000000000000000000000000000000000000000000",
      "type": "0x2",
      "transactionHash": "0x8e6371b5b3eeed74680e498558c760843a9a291c873d9719d7d03ac3e7d47341",
      "transactionIndex": "0xa",
      "blockHash": "0xb6c6158bccea39b3e9159a719ed9a471fc47a6030eb687071d856c9358163ff9",
      "blockNumber": "0x19ec0a1",
      "gasUsed": "0x6701",
      "effectiveGasPrice": "0x39543",
      "from": "0xa6b3d200cd34ca14d7579dac8b054bf50a62c37c",
      "to": "0x388f7d72fd879725e40d893fc1b5455036c7fd19",
      "contractAddress": null,
      "l1BaseFeeScalar": "0x44d",
      "l1BlobBaseFee": "0x1",
      "l1BlobBaseFeeScalar": "0xa118b",
      "l1Fee": "0x1471fd",
      "l1GasPrice": "0xb9b03",
      "l1GasUsed": "0x640"
    },
    {
      "status": "0x1",
      "cumulativeGasUsed": "0x23fcaf",
      "logs": [
        {
          "address": "0x388f7d72fd879725e40d893fc1b5455036c7fd19",
          "topics": [
            "0xddf252ad1be2c89b69c2b068fc378daa952ba7f163c4a11628f55a4df523b3ef",
            "0x000000000000000000000000a6b3d200cd34ca14d7579dac8b054bf50a62c37c",
            "0x000000000000000000000000e2aa5803f1bad51f092650de840ea79547f26b7d"
          ],
          "data": "0x0000000000000000000000000000000000000000000000000b7a181e4d3f8000",
          "blockHash": "0xb6c6158bccea39b3e9159a719ed9a471fc47a6030eb687071d856c9358163ff9",
          "blockNumber": "0x19ec0a1",
          "transactionHash": "0xd407b768e3edf3da73381bce28c1783a9fc17e648a1a668df8fc807a63c9aaf5",
          "transactionIndex": "0xb",
          "logIndex": "0x2d",
          "removed": false
        },
        {
          "address": "0xfe9cc4dc386606b00dcb057f4f3425a0cbd8bd3f",
          "topics": [
            "0x5e804d42ae3b860f881d11cb44a4bb1f2f0d5b3d081f5539a32d6f97b629d978",
            "0x000000000000000000000000009a513d97e55c77060c303f74ee66a991bd3f08"
          ],
          "data": "0x0000000000000000000000000000000000000000000000000000000000000f11",
          "blockHash": "0xb6c6158bccea39b3e9159a719ed9a471fc47a6030eb687071d856c9358163ff9",
          "blockNumber": "0x19ec0a1",
          "transactionHash": "0xd407b768e3edf3da73381bce28c1783a9fc17e648a1a668df8fc807a63c9aaf5",
          "transactionIndex": "0xb",
          "logIndex": "0x2e",
          "removed": false
        },
        {
          "address": "0x009a513d97e55c77060c303f74ee66a991bd3f08",
          "topics": [
            "0xddf252ad1be2c89b69c2b068fc378daa952ba7f163c4a11628f55a4df523b3ef",
            "0x000000000000000000000000fe9cc4dc386606b00dcb057f4f3425a0cbd8bd3f",
            "0x000000000000000000000000a6b3d200cd34ca14d7579dac8b054bf50a62c37c"
          ],
          "data": "0x0000000000000000000000000000000000000000000000000000000077359400",
          "blockHash": "0xb6c6158bccea39b3e9159a719ed9a471fc47a6030eb687071d856c9358163ff9",
          "blockNumber": "0x19ec0a1",
          "transactionHash": "0xd407b768e3edf3da73381bce28c1783a9fc17e648a1a668df8fc807a63c9aaf5",
          "transactionIndex": "0xb",
          "logIndex": "0x2f",
          "removed": false
        },
        {
          "address": "0xfe9cc4dc386606b00dcb057f4f3425a0cbd8bd3f",
          "topics": [
            "0x385feb58578c31f205b503905da1dec4c110dcdaac4a0dc43be298cae636307f",
            "0x000000000000000000000000009a513d97e55c77060c303f74ee66a991bd3f08"
          ],
          "data": "0x0000000000000000000000000000000000000000000000000000000000007d00",
          "blockHash": "0xb6c6158bccea39b3e9159a719ed9a471fc47a6030eb687071d856c9358163ff9",
          "blockNumber": "0x19ec0a1",
          "transactionHash": "0xd407b768e3edf3da73381bce28c1783a9fc17e648a1a668df8fc807a63c9aaf5",
          "transactionIndex": "0xb",
          "logIndex": "0x30",
          "removed": false
        },
        {
          "address": "0xfe9cc4dc386606b00dcb057f4f3425a0cbd8bd3f",
          "topics": [
            "0xb088e70ab7e367eb8a026f0cf73edc838746f0f9761c510260ff489070d7b3c8",
            "0x000000000000000000000000009a513d97e55c77060c303f74ee66a991bd3f08",
            "0x000000000000000000000000a6b3d200cd34ca14d7579dac8b054bf50a62c37c"
          ],
          "data": "0x0000000000000000000000000000000000000000000000000000000077359400",
          "blockHash": "0xb6c6158bccea39b3e9159a719ed9a471fc47a6030eb687071d856c9358163ff9",
          "blockNumber": "0x19ec0a1",
          "transactionHash": "0xd407b768e3edf3da73381bce28c1783a9fc17e648a1a668df8fc807a63c9aaf5",
          "transactionIndex": "0xb",
          "logIndex": "0x31",
          "removed": false
        },
        {
          "address": "0x6323cb90555ba52ae0b37450935c56d511390787",
          "topics": [
            "0x9f0a7aaf8d18c024e8123bdcd157b0f6e0f42892a4ea14a2becc88a320a79922",
            "0x924cafe3f4668225141f2f2252ca17f67b629c2ff1426ac8ff340549f1266789",
            "0x000000000000000000000000a6b3d200cd34ca14d7579dac8b054bf50a62c37c"
          ],
          "data": "0x0000000000000000000000000000000000000000000000000b7a181e4d3f80000000000000000000000000000000000000000000000000000000000000000001",
          "blockHash": "0xb6c6158bccea39b3e9159a719ed9a471fc47a6030eb687071d856c9358163ff9",
          "blockNumber": "0x19ec0a1",
          "transactionHash": "0xd407b768e3edf3da73381bce28c1783a9fc17e648a1a668df8fc807a63c9aaf5",
          "transactionIndex": "0xb",
          "logIndex": "0x32",
          "removed": false
        },
        {
          "address": "0xe2aa5803f1bad51f092650de840ea79547f26b7d",
          "topics": [
            "0xcb5aa1675878bc9c8edd5d4265b7e06610564c809ed69560d24f5f284dd8c44b",
            "0x000000000000000000000000a6b3d200cd34ca14d7579dac8b054bf50a62c37c"
          ],
          "data": "0x0000000000000000000000000000000000000000000000000b7a181e4d3f8000924cafe3f4668225141f2f2252ca17f67b629c2ff1426ac8ff340549f1266789",
          "blockHash": "0xb6c6158bccea39b3e9159a719ed9a471fc47a6030eb687071d856c9358163ff9",
          "blockNumber": "0x19ec0a1",
          "transactionHash": "0xd407b768e3edf3da73381bce28c1783a9fc17e648a1a668df8fc807a63c9aaf5",
          "transactionIndex": "0xb",
          "logIndex": "0x33",
          "removed": false
        },
        {
          "address": "0xe2aa5803f1bad51f092650de840ea79547f26b7d",
          "topics": [
            "0x3c173f34da0900ded1a250c99de3d58cb900ce2841d93b11d877afee8b077a48",
            "0x0000000000000000000000000000000000000000000000000000000000000004",
            "0x000000000000000000000000a6b3d200cd34ca14d7579dac8b054bf50a62c37c"
          ],
          "data": "0x000000000000000000000000388f7d72fd879725e40d893fc1b5455036c7fd19000000000000000000000000009a513d97e55c77060c303f74ee66a991bd3f080000000000000000000000000000000000000000000000000b7a181e4d3f80000000000000000000000000000000000000000000000000000000000077359400",
          "blockHash": "0xb6c6158bccea39b3e9159a719ed9a471fc47a6030eb687071d856c9358163ff9",
          "blockNumber": "0x19ec0a1",
          "transactionHash": "0xd407b768e3edf3da73381bce28c1783a9fc17e648a1a668df8fc807a63c9aaf5",
          "transactionIndex": "0xb",
          "logIndex": "0x34",
          "removed": false
        }
      ],
      "logsBloom": "0x0000040000000000000000040000000001000018000000020200000000000008000000000200000000000020000000000000200000001000000000000000000000000400000004000000000800000200000000000000000000001000000000010800000010010000000000000000000000000000048040000040001000000000000000c000000000002000000202000000000000000000000002000002000000000000000040048000000000002000000000000000000000002000000010000000000042000000000000000000000000002400408000000024000120010000000000080000000000000000000000000000800010000200000000000000000000",
      "type": "0x2",
      "transactionHash": "0xd407b768e3edf3da73381bce28c1783a9fc17e648a1a668df8fc807a63c9aaf5",
      "transactionIndex": "0xb",
      "blockHash": "0xb6c6158bccea39b3e9159a719ed9a471fc47a6030eb687071d856c9358163ff9",
      "blockNumber": "0x19ec0a1",
      "gasUsed": "0x7412e",
      "effectiveGasPrice": "0x39543",
      "from": "0xa6b3d200cd34ca14d7579dac8b054bf50a62c37c",
      "to": "0xe2aa5803f1bad51f092650de840ea79547f26b7d",
      "contractAddress": null,
      "l1BaseFeeScalar": "0x44d",
      "l1BlobBaseFee": "0x1",
      "l1BlobBaseFeeScalar": "0xa118b",
      "l1Fee": "0x1c939f",
      "l1GasPrice": "0xb9b03",
      "l1GasUsed": "0x8bc"
    }
  ],
  "libraries": [],
  "pending": [],
  "returns": {},
  "timestamp": 1750130723,
  "chain": 84532,
  "commit": "e3173ca"
}